{
	"contracts/token/ERC721/ERC721.sol": {
		"ERC721": {
			"abi": [
				{
					"inputs": [
						{
							"internalType": "string",
							"name": "name_",
							"type": "string"
						},
						{
							"internalType": "string",
							"name": "symbol_",
							"type": "string"
						}
					],
					"stateMutability": "nonpayable",
					"type": "constructor"
				},
				{
					"anonymous": false,
					"inputs": [
						{
							"indexed": true,
							"internalType": "address",
							"name": "owner",
							"type": "address"
						},
						{
							"indexed": true,
							"internalType": "address",
							"name": "approved",
							"type": "address"
						},
						{
							"indexed": true,
							"internalType": "uint256",
							"name": "tokenId",
							"type": "uint256"
						}
					],
					"name": "Approval",
					"type": "event"
				},
				{
					"anonymous": false,
					"inputs": [
						{
							"indexed": true,
							"internalType": "address",
							"name": "owner",
							"type": "address"
						},
						{
							"indexed": true,
							"internalType": "address",
							"name": "operator",
							"type": "address"
						},
						{
							"indexed": false,
							"internalType": "bool",
							"name": "approved",
							"type": "bool"
						}
					],
					"name": "ApprovalForAll",
					"type": "event"
				},
				{
					"anonymous": false,
					"inputs": [
						{
							"indexed": true,
							"internalType": "address",
							"name": "owner",
							"type": "address"
						},
						{
							"indexed": false,
							"internalType": "uint256",
							"name": "tokenId",
							"type": "uint256"
						},
						{
							"indexed": false,
							"internalType": "bool",
							"name": "locked",
							"type": "bool"
						}
					],
					"name": "Lock",
					"type": "event"
				},
				{
					"anonymous": false,
					"inputs": [
						{
							"indexed": true,
							"internalType": "address",
							"name": "from",
							"type": "address"
						},
						{
							"indexed": true,
							"internalType": "address",
							"name": "to",
							"type": "address"
						},
						{
							"indexed": true,
							"internalType": "uint256",
							"name": "tokenId",
							"type": "uint256"
						}
					],
					"name": "Transfer",
					"type": "event"
				},
				{
					"inputs": [
						{
							"internalType": "address",
							"name": "to",
							"type": "address"
						},
						{
							"internalType": "uint256",
							"name": "tokenId",
							"type": "uint256"
						}
					],
					"name": "approve",
					"outputs": [],
					"stateMutability": "nonpayable",
					"type": "function"
				},
				{
					"inputs": [
						{
							"internalType": "address",
							"name": "owner",
							"type": "address"
						}
					],
					"name": "balanceOf",
					"outputs": [
						{
							"internalType": "uint256",
							"name": "",
							"type": "uint256"
						}
					],
					"stateMutability": "view",
					"type": "function"
				},
				{
					"inputs": [
						{
							"internalType": "uint256",
							"name": "tokenId",
							"type": "uint256"
						}
					],
					"name": "getApproved",
					"outputs": [
						{
							"internalType": "address",
							"name": "",
							"type": "address"
						}
					],
					"stateMutability": "view",
					"type": "function"
				},
				{
					"inputs": [
						{
							"internalType": "uint256",
							"name": "tokenId",
							"type": "uint256"
						}
					],
					"name": "getLocked",
					"outputs": [
						{
							"internalType": "bool",
							"name": "",
							"type": "bool"
						}
					],
					"stateMutability": "view",
					"type": "function"
				},
				{
					"inputs": [
						{
							"internalType": "address",
							"name": "owner",
							"type": "address"
						}
					],
					"name": "getLockedCountByOwner",
					"outputs": [
						{
							"internalType": "uint256",
							"name": "",
							"type": "uint256"
						}
					],
					"stateMutability": "view",
					"type": "function"
				},
				{
					"inputs": [
						{
							"internalType": "address",
							"name": "owner",
							"type": "address"
						},
						{
							"internalType": "address",
							"name": "operator",
							"type": "address"
						}
					],
					"name": "isApprovedForAll",
					"outputs": [
						{
							"internalType": "bool",
							"name": "",
							"type": "bool"
						}
					],
					"stateMutability": "view",
					"type": "function"
				},
				{
					"inputs": [
						{
							"internalType": "uint256",
							"name": "tokenId",
							"type": "uint256"
						},
						{
							"internalType": "bool",
							"name": "locked",
							"type": "bool"
						}
					],
					"name": "lock",
					"outputs": [],
					"stateMutability": "nonpayable",
					"type": "function"
				},
				{
					"inputs": [],
					"name": "name",
					"outputs": [
						{
							"internalType": "string",
							"name": "",
							"type": "string"
						}
					],
					"stateMutability": "view",
					"type": "function"
				},
				{
					"inputs": [
						{
							"internalType": "uint256",
							"name": "tokenId",
							"type": "uint256"
						}
					],
					"name": "ownerOf",
					"outputs": [
						{
							"internalType": "address",
							"name": "",
							"type": "address"
						}
					],
					"stateMutability": "view",
					"type": "function"
				},
				{
					"inputs": [
						{
							"internalType": "address",
							"name": "from",
							"type": "address"
						},
						{
							"internalType": "address",
							"name": "to",
							"type": "address"
						},
						{
							"internalType": "uint256",
							"name": "tokenId",
							"type": "uint256"
						}
					],
					"name": "safeTransferFrom",
					"outputs": [],
					"stateMutability": "nonpayable",
					"type": "function"
				},
				{
					"inputs": [
						{
							"internalType": "address",
							"name": "from",
							"type": "address"
						},
						{
							"internalType": "address",
							"name": "to",
							"type": "address"
						},
						{
							"internalType": "uint256",
							"name": "tokenId",
							"type": "uint256"
						},
						{
							"internalType": "bytes",
							"name": "data",
							"type": "bytes"
						}
					],
					"name": "safeTransferFrom",
					"outputs": [],
					"stateMutability": "nonpayable",
					"type": "function"
				},
				{
					"inputs": [
						{
							"internalType": "address",
							"name": "operator",
							"type": "address"
						},
						{
							"internalType": "bool",
							"name": "approved",
							"type": "bool"
						}
					],
					"name": "setApprovalForAll",
					"outputs": [],
					"stateMutability": "nonpayable",
					"type": "function"
				},
				{
					"inputs": [
						{
							"internalType": "bytes4",
							"name": "interfaceId",
							"type": "bytes4"
						}
					],
					"name": "supportsInterface",
					"outputs": [
						{
							"internalType": "bool",
							"name": "",
							"type": "bool"
						}
					],
					"stateMutability": "view",
					"type": "function"
				},
				{
					"inputs": [],
					"name": "symbol",
					"outputs": [
						{
							"internalType": "string",
							"name": "",
							"type": "string"
						}
					],
					"stateMutability": "view",
					"type": "function"
				},
				{
					"inputs": [
						{
							"internalType": "uint256",
							"name": "tokenId",
							"type": "uint256"
						}
					],
					"name": "tokenURI",
					"outputs": [
						{
							"internalType": "string",
							"name": "",
							"type": "string"
						}
					],
					"stateMutability": "view",
					"type": "function"
				},
				{
					"inputs": [
						{
							"internalType": "address",
							"name": "from",
							"type": "address"
						},
						{
							"internalType": "address",
							"name": "to",
							"type": "address"
						},
						{
							"internalType": "uint256",
							"name": "tokenId",
							"type": "uint256"
						}
					],
					"name": "transferFrom",
					"outputs": [],
					"stateMutability": "nonpayable",
					"type": "function"
				}
			],
			"devdoc": {
				"details": "Implementation of https://eips.ethereum.org/EIPS/eip-721[ERC721] Non-Fungible Token Standard, including the Metadata extension, but not including the Enumerable extension, which is available separately as {ERC721Enumerable}.",
				"events": {
					"Approval(address,address,uint256)": {
						"details": "Emitted when `owner` enables `approved` to manage the `tokenId` token."
					},
					"ApprovalForAll(address,address,bool)": {
						"details": "Emitted when `owner` enables or disables (`approved`) `operator` to manage all of its assets."
					},
					"Lock(address,uint256,bool)": {
						"details": "Emitted when `owner` enables or disables (`approved`) lock to token."
					},
					"Transfer(address,address,uint256)": {
						"details": "Emitted when `tokenId` token is transferred from `from` to `to`."
					}
				},
				"kind": "dev",
				"methods": {
					"approve(address,uint256)": {
						"details": "See {IERC721-approve}."
					},
					"balanceOf(address)": {
						"details": "See {IERC721-balanceOf}."
					},
					"constructor": {
						"details": "Initializes the contract by setting a `name` and a `symbol` to the token collection."
					},
					"getApproved(uint256)": {
						"details": "See {IERC721-getApproved}."
					},
					"getLocked(uint256)": {
						"details": "See {IERC721-isApprovedForAll}."
					},
					"getLockedCountByOwner(address)": {
						"details": "See {IERC721-isApprovedForAll}."
					},
					"isApprovedForAll(address,address)": {
						"details": "See {IERC721-isApprovedForAll}."
					},
					"lock(uint256,bool)": {
						"details": "See {IERC721-approve}."
					},
					"name()": {
						"details": "See {IERC721Metadata-name}."
					},
					"ownerOf(uint256)": {
						"details": "See {IERC721-ownerOf}."
					},
					"safeTransferFrom(address,address,uint256)": {
						"details": "See {IERC721-safeTransferFrom}."
					},
					"safeTransferFrom(address,address,uint256,bytes)": {
						"details": "See {IERC721-safeTransferFrom}."
					},
					"setApprovalForAll(address,bool)": {
						"details": "See {IERC721-setApprovalForAll}."
					},
					"supportsInterface(bytes4)": {
						"details": "See {IERC165-supportsInterface}."
					},
					"symbol()": {
						"details": "See {IERC721Metadata-symbol}."
					},
					"tokenURI(uint256)": {
						"details": "See {IERC721Metadata-tokenURI}."
					},
					"transferFrom(address,address,uint256)": {
						"details": "See {IERC721-transferFrom}."
					}
				},
				"version": 1
			},
			"evm": {
				"assembly": "    /* \"contracts/token/ERC721/ERC721.sol\":646:19591  contract ERC721 is Context, ERC165, IERC721, IERC721Metadata {... */\n  mstore(0x40, 0x80)\n    /* \"contracts/token/ERC721/ERC721.sol\":1748:1864  constructor(string memory name_, string memory symbol_) {... */\n  callvalue\n  dup1\n  iszero\n  tag_1\n  jumpi\n  0x00\n  dup1\n  revert\ntag_1:\n  pop\n  mload(0x40)\n  sub(codesize, bytecodeSize)\n  dup1\n  bytecodeSize\n  dup4\n  codecopy\n  dup2\n  dup2\n  add\n  0x40\n  mstore\n  dup2\n  add\n  swap1\n  tag_2\n  swap2\n  swap1\n  tag_3\n  jump\t// in\ntag_2:\n    /* \"contracts/token/ERC721/ERC721.sol\":1823:1828  name_ */\n  dup2\n    /* \"contracts/token/ERC721/ERC721.sol\":1815:1820  _name */\n  0x00\n    /* \"contracts/token/ERC721/ERC721.sol\":1815:1828  _name = name_ */\n  swap1\n  dup2\n  tag_6\n  swap2\n  swap1\n  tag_7\n  jump\t// in\ntag_6:\n  pop\n    /* \"contracts/token/ERC721/ERC721.sol\":1849:1856  symbol_ */\n  dup1\n    /* \"contracts/token/ERC721/ERC721.sol\":1839:1846  _symbol */\n  0x01\n    /* \"contracts/token/ERC721/ERC721.sol\":1839:1856  _symbol = symbol_ */\n  swap1\n  dup2\n  tag_8\n  swap2\n  swap1\n  tag_7\n  jump\t// in\ntag_8:\n  pop\n    /* \"contracts/token/ERC721/ERC721.sol\":1748:1864  constructor(string memory name_, string memory symbol_) {... */\n  pop\n  pop\n    /* \"contracts/token/ERC721/ERC721.sol\":646:19591  contract ERC721 is Context, ERC165, IERC721, IERC721Metadata {... */\n  jump(tag_9)\n    /* \"#utility.yul\":7:82   */\ntag_10:\n    /* \"#utility.yul\":40:46   */\n  0x00\n    /* \"#utility.yul\":73:75   */\n  0x40\n    /* \"#utility.yul\":67:76   */\n  mload\n    /* \"#utility.yul\":57:76   */\n  swap1\n  pop\n    /* \"#utility.yul\":7:82   */\n  swap1\n  jump\t// out\n    /* \"#utility.yul\":88:205   */\ntag_11:\n    /* \"#utility.yul\":197:198   */\n  0x00\n    /* \"#utility.yul\":194:195   */\n  dup1\n    /* \"#utility.yul\":187:199   */\n  revert\n    /* \"#utility.yul\":211:328   */\ntag_12:\n    /* \"#utility.yul\":320:321   */\n  0x00\n    /* \"#utility.yul\":317:318   */\n  dup1\n    /* \"#utility.yul\":310:322   */\n  revert\n    /* \"#utility.yul\":334:451   */\ntag_13:\n    /* \"#utility.yul\":443:444   */\n  0x00\n    /* \"#utility.yul\":440:441   */\n  dup1\n    /* \"#utility.yul\":433:445   */\n  revert\n    /* \"#utility.yul\":457:574   */\ntag_14:\n    /* \"#utility.yul\":566:567   */\n  0x00\n    /* \"#utility.yul\":563:564   */\n  dup1\n    /* \"#utility.yul\":556:568   */\n  revert\n    /* \"#utility.yul\":580:682   */\ntag_15:\n    /* \"#utility.yul\":621:627   */\n  0x00\n    /* \"#utility.yul\":672:674   */\n  0x1f\n    /* \"#utility.yul\":668:675   */\n  not\n    /* \"#utility.yul\":663:665   */\n  0x1f\n    /* \"#utility.yul\":656:661   */\n  dup4\n    /* \"#utility.yul\":652:666   */\n  add\n    /* \"#utility.yul\":648:676   */\n  and\n    /* \"#utility.yul\":638:676   */\n  swap1\n  pop\n    /* \"#utility.yul\":580:682   */\n  swap2\n  swap1\n  pop\n  jump\t// out\n    /* \"#utility.yul\":688:868   */\ntag_16:\n    /* \"#utility.yul\":736:813   */\n  0x4e487b7100000000000000000000000000000000000000000000000000000000\n    /* \"#utility.yul\":733:734   */\n  0x00\n    /* \"#utility.yul\":726:814   */\n  mstore\n    /* \"#utility.yul\":833:837   */\n  0x41\n    /* \"#utility.yul\":830:831   */\n  0x04\n    /* \"#utility.yul\":823:838   */\n  mstore\n    /* \"#utility.yul\":857:861   */\n  0x24\n    /* \"#utility.yul\":854:855   */\n  0x00\n    /* \"#utility.yul\":847:862   */\n  revert\n    /* \"#utility.yul\":874:1155   */\ntag_17:\n    /* \"#utility.yul\":957:984   */\n  tag_51\n    /* \"#utility.yul\":979:983   */\n  dup3\n    /* \"#utility.yul\":957:984   */\n  tag_15\n  jump\t// in\ntag_51:\n    /* \"#utility.yul\":949:955   */\n  dup2\n    /* \"#utility.yul\":945:985   */\n  add\n    /* \"#utility.yul\":1087:1093   */\n  dup2\n    /* \"#utility.yul\":1075:1085   */\n  dup2\n    /* \"#utility.yul\":1072:1094   */\n  lt\n    /* \"#utility.yul\":1051:1069   */\n  0xffffffffffffffff\n    /* \"#utility.yul\":1039:1049   */\n  dup3\n    /* \"#utility.yul\":1036:1070   */\n  gt\n    /* \"#utility.yul\":1033:1095   */\n  or\n    /* \"#utility.yul\":1030:1118   */\n  iszero\n  tag_52\n  jumpi\n    /* \"#utility.yul\":1098:1116   */\n  tag_53\n  tag_16\n  jump\t// in\ntag_53:\n    /* \"#utility.yul\":1030:1118   */\ntag_52:\n    /* \"#utility.yul\":1138:1148   */\n  dup1\n    /* \"#utility.yul\":1134:1136   */\n  0x40\n    /* \"#utility.yul\":1127:1149   */\n  mstore\n    /* \"#utility.yul\":917:1155   */\n  pop\n    /* \"#utility.yul\":874:1155   */\n  pop\n  pop\n  jump\t// out\n    /* \"#utility.yul\":1161:1290   */\ntag_18:\n    /* \"#utility.yul\":1195:1201   */\n  0x00\n    /* \"#utility.yul\":1222:1242   */\n  tag_55\n  tag_10\n  jump\t// in\ntag_55:\n    /* \"#utility.yul\":1212:1242   */\n  swap1\n  pop\n    /* \"#utility.yul\":1251:1284   */\n  tag_56\n    /* \"#utility.yul\":1279:1283   */\n  dup3\n    /* \"#utility.yul\":1271:1277   */\n  dup3\n    /* \"#utility.yul\":1251:1284   */\n  tag_17\n  jump\t// in\ntag_56:\n    /* \"#utility.yul\":1161:1290   */\n  swap2\n  swap1\n  pop\n  jump\t// out\n    /* \"#utility.yul\":1296:1604   */\ntag_19:\n    /* \"#utility.yul\":1358:1362   */\n  0x00\n    /* \"#utility.yul\":1448:1466   */\n  0xffffffffffffffff\n    /* \"#utility.yul\":1440:1446   */\n  dup3\n    /* \"#utility.yul\":1437:1467   */\n  gt\n    /* \"#utility.yul\":1434:1490   */\n  iszero\n  tag_58\n  jumpi\n    /* \"#utility.yul\":1470:1488   */\n  tag_59\n  tag_16\n  jump\t// in\ntag_59:\n    /* \"#utility.yul\":1434:1490   */\ntag_58:\n    /* \"#utility.yul\":1508:1537   */\n  tag_60\n    /* \"#utility.yul\":1530:1536   */\n  dup3\n    /* \"#utility.yul\":1508:1537   */\n  tag_15\n  jump\t// in\ntag_60:\n    /* \"#utility.yul\":1500:1537   */\n  swap1\n  pop\n    /* \"#utility.yul\":1592:1596   */\n  0x20\n    /* \"#utility.yul\":1586:1590   */\n  dup2\n    /* \"#utility.yul\":1582:1597   */\n  add\n    /* \"#utility.yul\":1574:1597   */\n  swap1\n  pop\n    /* \"#utility.yul\":1296:1604   */\n  swap2\n  swap1\n  pop\n  jump\t// out\n    /* \"#utility.yul\":1610:1856   */\ntag_20:\n    /* \"#utility.yul\":1691:1692   */\n  0x00\n    /* \"#utility.yul\":1701:1814   */\ntag_62:\n    /* \"#utility.yul\":1715:1721   */\n  dup4\n    /* \"#utility.yul\":1712:1713   */\n  dup2\n    /* \"#utility.yul\":1709:1722   */\n  lt\n    /* \"#utility.yul\":1701:1814   */\n  iszero\n  tag_64\n  jumpi\n    /* \"#utility.yul\":1800:1801   */\n  dup1\n    /* \"#utility.yul\":1795:1798   */\n  dup3\n    /* \"#utility.yul\":1791:1802   */\n  add\n    /* \"#utility.yul\":1785:1803   */\n  mload\n    /* \"#utility.yul\":1781:1782   */\n  dup2\n    /* \"#utility.yul\":1776:1779   */\n  dup5\n    /* \"#utility.yul\":1772:1783   */\n  add\n    /* \"#utility.yul\":1765:1804   */\n  mstore\n    /* \"#utility.yul\":1737:1739   */\n  0x20\n    /* \"#utility.yul\":1734:1735   */\n  dup2\n    /* \"#utility.yul\":1730:1740   */\n  add\n    /* \"#utility.yul\":1725:1740   */\n  swap1\n  pop\n    /* \"#utility.yul\":1701:1814   */\n  jump(tag_62)\ntag_64:\n    /* \"#utility.yul\":1848:1849   */\n  0x00\n    /* \"#utility.yul\":1839:1845   */\n  dup5\n    /* \"#utility.yul\":1834:1837   */\n  dup5\n    /* \"#utility.yul\":1830:1846   */\n  add\n    /* \"#utility.yul\":1823:1850   */\n  mstore\n    /* \"#utility.yul\":1672:1856   */\n  pop\n    /* \"#utility.yul\":1610:1856   */\n  pop\n  pop\n  pop\n  jump\t// out\n    /* \"#utility.yul\":1862:2296   */\ntag_21:\n    /* \"#utility.yul\":1951:1956   */\n  0x00\n    /* \"#utility.yul\":1976:2042   */\n  tag_66\n    /* \"#utility.yul\":1992:2041   */\n  tag_67\n    /* \"#utility.yul\":2034:2040   */\n  dup5\n    /* \"#utility.yul\":1992:2041   */\n  tag_19\n  jump\t// in\ntag_67:\n    /* \"#utility.yul\":1976:2042   */\n  tag_18\n  jump\t// in\ntag_66:\n    /* \"#utility.yul\":1967:2042   */\n  swap1\n  pop\n    /* \"#utility.yul\":2065:2071   */\n  dup3\n    /* \"#utility.yul\":2058:2063   */\n  dup2\n    /* \"#utility.yul\":2051:2072   */\n  mstore\n    /* \"#utility.yul\":2103:2107   */\n  0x20\n    /* \"#utility.yul\":2096:2101   */\n  dup2\n    /* \"#utility.yul\":2092:2108   */\n  add\n    /* \"#utility.yul\":2141:2144   */\n  dup5\n    /* \"#utility.yul\":2132:2138   */\n  dup5\n    /* \"#utility.yul\":2127:2130   */\n  dup5\n    /* \"#utility.yul\":2123:2139   */\n  add\n    /* \"#utility.yul\":2120:2145   */\n  gt\n    /* \"#utility.yul\":2117:2229   */\n  iszero\n  tag_68\n  jumpi\n    /* \"#utility.yul\":2148:2227   */\n  tag_69\n  tag_14\n  jump\t// in\ntag_69:\n    /* \"#utility.yul\":2117:2229   */\ntag_68:\n    /* \"#utility.yul\":2238:2290   */\n  tag_70\n    /* \"#utility.yul\":2283:2289   */\n  dup5\n    /* \"#utility.yul\":2278:2281   */\n  dup3\n    /* \"#utility.yul\":2273:2276   */\n  dup6\n    /* \"#utility.yul\":2238:2290   */\n  tag_20\n  jump\t// in\ntag_70:\n    /* \"#utility.yul\":1957:2296   */\n  pop\n    /* \"#utility.yul\":1862:2296   */\n  swap4\n  swap3\n  pop\n  pop\n  pop\n  jump\t// out\n    /* \"#utility.yul\":2316:2671   */\ntag_22:\n    /* \"#utility.yul\":2383:2388   */\n  0x00\n    /* \"#utility.yul\":2432:2435   */\n  dup3\n    /* \"#utility.yul\":2425:2429   */\n  0x1f\n    /* \"#utility.yul\":2417:2423   */\n  dup4\n    /* \"#utility.yul\":2413:2430   */\n  add\n    /* \"#utility.yul\":2409:2436   */\n  slt\n    /* \"#utility.yul\":2399:2521   */\n  tag_72\n  jumpi\n    /* \"#utility.yul\":2440:2519   */\n  tag_73\n  tag_13\n  jump\t// in\ntag_73:\n    /* \"#utility.yul\":2399:2521   */\ntag_72:\n    /* \"#utility.yul\":2550:2556   */\n  dup2\n    /* \"#utility.yul\":2544:2557   */\n  mload\n    /* \"#utility.yul\":2575:2665   */\n  tag_74\n    /* \"#utility.yul\":2661:2664   */\n  dup5\n    /* \"#utility.yul\":2653:2659   */\n  dup3\n    /* \"#utility.yul\":2646:2650   */\n  0x20\n    /* \"#utility.yul\":2638:2644   */\n  dup7\n    /* \"#utility.yul\":2634:2651   */\n  add\n    /* \"#utility.yul\":2575:2665   */\n  tag_21\n  jump\t// in\ntag_74:\n    /* \"#utility.yul\":2566:2665   */\n  swap2\n  pop\n    /* \"#utility.yul\":2389:2671   */\n  pop\n    /* \"#utility.yul\":2316:2671   */\n  swap3\n  swap2\n  pop\n  pop\n  jump\t// out\n    /* \"#utility.yul\":2677:3530   */\ntag_3:\n    /* \"#utility.yul\":2776:2782   */\n  0x00\n    /* \"#utility.yul\":2784:2790   */\n  dup1\n    /* \"#utility.yul\":2833:2835   */\n  0x40\n    /* \"#utility.yul\":2821:2830   */\n  dup4\n    /* \"#utility.yul\":2812:2819   */\n  dup6\n    /* \"#utility.yul\":2808:2831   */\n  sub\n    /* \"#utility.yul\":2804:2836   */\n  slt\n    /* \"#utility.yul\":2801:2920   */\n  iszero\n  tag_76\n  jumpi\n    /* \"#utility.yul\":2839:2918   */\n  tag_77\n  tag_11\n  jump\t// in\ntag_77:\n    /* \"#utility.yul\":2801:2920   */\ntag_76:\n    /* \"#utility.yul\":2980:2981   */\n  0x00\n    /* \"#utility.yul\":2969:2978   */\n  dup4\n    /* \"#utility.yul\":2965:2982   */\n  add\n    /* \"#utility.yul\":2959:2983   */\n  mload\n    /* \"#utility.yul\":3010:3028   */\n  0xffffffffffffffff\n    /* \"#utility.yul\":3002:3008   */\n  dup2\n    /* \"#utility.yul\":2999:3029   */\n  gt\n    /* \"#utility.yul\":2996:3113   */\n  iszero\n  tag_78\n  jumpi\n    /* \"#utility.yul\":3032:3111   */\n  tag_79\n  tag_12\n  jump\t// in\ntag_79:\n    /* \"#utility.yul\":2996:3113   */\ntag_78:\n    /* \"#utility.yul\":3137:3211   */\n  tag_80\n    /* \"#utility.yul\":3203:3210   */\n  dup6\n    /* \"#utility.yul\":3194:3200   */\n  dup3\n    /* \"#utility.yul\":3183:3192   */\n  dup7\n    /* \"#utility.yul\":3179:3201   */\n  add\n    /* \"#utility.yul\":3137:3211   */\n  tag_22\n  jump\t// in\ntag_80:\n    /* \"#utility.yul\":3127:3211   */\n  swap3\n  pop\n    /* \"#utility.yul\":2930:3221   */\n  pop\n    /* \"#utility.yul\":3281:3283   */\n  0x20\n    /* \"#utility.yul\":3270:3279   */\n  dup4\n    /* \"#utility.yul\":3266:3284   */\n  add\n    /* \"#utility.yul\":3260:3285   */\n  mload\n    /* \"#utility.yul\":3312:3330   */\n  0xffffffffffffffff\n    /* \"#utility.yul\":3304:3310   */\n  dup2\n    /* \"#utility.yul\":3301:3331   */\n  gt\n    /* \"#utility.yul\":3298:3415   */\n  iszero\n  tag_81\n  jumpi\n    /* \"#utility.yul\":3334:3413   */\n  tag_82\n  tag_12\n  jump\t// in\ntag_82:\n    /* \"#utility.yul\":3298:3415   */\ntag_81:\n    /* \"#utility.yul\":3439:3513   */\n  tag_83\n    /* \"#utility.yul\":3505:3512   */\n  dup6\n    /* \"#utility.yul\":3496:3502   */\n  dup3\n    /* \"#utility.yul\":3485:3494   */\n  dup7\n    /* \"#utility.yul\":3481:3503   */\n  add\n    /* \"#utility.yul\":3439:3513   */\n  tag_22\n  jump\t// in\ntag_83:\n    /* \"#utility.yul\":3429:3513   */\n  swap2\n  pop\n    /* \"#utility.yul\":3231:3523   */\n  pop\n    /* \"#utility.yul\":2677:3530   */\n  swap3\n  pop\n  swap3\n  swap1\n  pop\n  jump\t// out\n    /* \"#utility.yul\":3536:3635   */\ntag_23:\n    /* \"#utility.yul\":3588:3594   */\n  0x00\n    /* \"#utility.yul\":3622:3627   */\n  dup2\n    /* \"#utility.yul\":3616:3628   */\n  mload\n    /* \"#utility.yul\":3606:3628   */\n  swap1\n  pop\n    /* \"#utility.yul\":3536:3635   */\n  swap2\n  swap1\n  pop\n  jump\t// out\n    /* \"#utility.yul\":3641:3821   */\ntag_24:\n    /* \"#utility.yul\":3689:3766   */\n  0x4e487b7100000000000000000000000000000000000000000000000000000000\n    /* \"#utility.yul\":3686:3687   */\n  0x00\n    /* \"#utility.yul\":3679:3767   */\n  mstore\n    /* \"#utility.yul\":3786:3790   */\n  0x22\n    /* \"#utility.yul\":3783:3784   */\n  0x04\n    /* \"#utility.yul\":3776:3791   */\n  mstore\n    /* \"#utility.yul\":3810:3814   */\n  0x24\n    /* \"#utility.yul\":3807:3808   */\n  0x00\n    /* \"#utility.yul\":3800:3815   */\n  revert\n    /* \"#utility.yul\":3827:4147   */\ntag_25:\n    /* \"#utility.yul\":3871:3877   */\n  0x00\n    /* \"#utility.yul\":3908:3909   */\n  0x02\n    /* \"#utility.yul\":3902:3906   */\n  dup3\n    /* \"#utility.yul\":3898:3910   */\n  div\n    /* \"#utility.yul\":3888:3910   */\n  swap1\n  pop\n    /* \"#utility.yul\":3955:3956   */\n  0x01\n    /* \"#utility.yul\":3949:3953   */\n  dup3\n    /* \"#utility.yul\":3945:3957   */\n  and\n    /* \"#utility.yul\":3976:3994   */\n  dup1\n    /* \"#utility.yul\":3966:4047   */\n  tag_87\n  jumpi\n    /* \"#utility.yul\":4032:4036   */\n  0x7f\n    /* \"#utility.yul\":4024:4030   */\n  dup3\n    /* \"#utility.yul\":4020:4037   */\n  and\n    /* \"#utility.yul\":4010:4037   */\n  swap2\n  pop\n    /* \"#utility.yul\":3966:4047   */\ntag_87:\n    /* \"#utility.yul\":4094:4096   */\n  0x20\n    /* \"#utility.yul\":4086:4092   */\n  dup3\n    /* \"#utility.yul\":4083:4097   */\n  lt\n    /* \"#utility.yul\":4063:4081   */\n  dup2\n    /* \"#utility.yul\":4060:4098   */\n  sub\n    /* \"#utility.yul\":4057:4141   */\n  tag_88\n  jumpi\n    /* \"#utility.yul\":4113:4131   */\n  tag_89\n  tag_24\n  jump\t// in\ntag_89:\n    /* \"#utility.yul\":4057:4141   */\ntag_88:\n    /* \"#utility.yul\":3878:4147   */\n  pop\n    /* \"#utility.yul\":3827:4147   */\n  swap2\n  swap1\n  pop\n  jump\t// out\n    /* \"#utility.yul\":4153:4294   */\ntag_26:\n    /* \"#utility.yul\":4202:4206   */\n  0x00\n    /* \"#utility.yul\":4225:4228   */\n  dup2\n    /* \"#utility.yul\":4217:4228   */\n  swap1\n  pop\n    /* \"#utility.yul\":4248:4251   */\n  dup2\n    /* \"#utility.yul\":4245:4246   */\n  0x00\n    /* \"#utility.yul\":4238:4252   */\n  mstore\n    /* \"#utility.yul\":4282:4286   */\n  0x20\n    /* \"#utility.yul\":4279:4280   */\n  0x00\n    /* \"#utility.yul\":4269:4287   */\n  keccak256\n    /* \"#utility.yul\":4261:4287   */\n  swap1\n  pop\n    /* \"#utility.yul\":4153:4294   */\n  swap2\n  swap1\n  pop\n  jump\t// out\n    /* \"#utility.yul\":4300:4393   */\ntag_27:\n    /* \"#utility.yul\":4337:4343   */\n  0x00\n    /* \"#utility.yul\":4384:4386   */\n  0x20\n    /* \"#utility.yul\":4379:4381   */\n  0x1f\n    /* \"#utility.yul\":4372:4377   */\n  dup4\n    /* \"#utility.yul\":4368:4382   */\n  add\n    /* \"#utility.yul\":4364:4387   */\n  div\n    /* \"#utility.yul\":4354:4387   */\n  swap1\n  pop\n    /* \"#utility.yul\":4300:4393   */\n  swap2\n  swap1\n  pop\n  jump\t// out\n    /* \"#utility.yul\":4399:4506   */\ntag_28:\n    /* \"#utility.yul\":4443:4451   */\n  0x00\n    /* \"#utility.yul\":4493:4498   */\n  dup3\n    /* \"#utility.yul\":4487:4491   */\n  dup3\n    /* \"#utility.yul\":4483:4499   */\n  shl\n    /* \"#utility.yul\":4462:4499   */\n  swap1\n  pop\n    /* \"#utility.yul\":4399:4506   */\n  swap3\n  swap2\n  pop\n  pop\n  jump\t// out\n    /* \"#utility.yul\":4512:4905   */\ntag_29:\n    /* \"#utility.yul\":4581:4587   */\n  0x00\n    /* \"#utility.yul\":4631:4632   */\n  0x08\n    /* \"#utility.yul\":4619:4629   */\n  dup4\n    /* \"#utility.yul\":4615:4633   */\n  mul\n    /* \"#utility.yul\":4654:4751   */\n  tag_94\n    /* \"#utility.yul\":4684:4750   */\n  0xffffffffffffffffffffffffffffffffffffffffffffffffffffffffffffffff\n    /* \"#utility.yul\":4673:4682   */\n  dup3\n    /* \"#utility.yul\":4654:4751   */\n  tag_28\n  jump\t// in\ntag_94:\n    /* \"#utility.yul\":4772:4811   */\n  tag_95\n    /* \"#utility.yul\":4802:4810   */\n  dup7\n    /* \"#utility.yul\":4791:4800   */\n  dup4\n    /* \"#utility.yul\":4772:4811   */\n  tag_28\n  jump\t// in\ntag_95:\n    /* \"#utility.yul\":4760:4811   */\n  swap6\n  pop\n    /* \"#utility.yul\":4844:4848   */\n  dup1\n    /* \"#utility.yul\":4840:4849   */\n  not\n    /* \"#utility.yul\":4833:4838   */\n  dup5\n    /* \"#utility.yul\":4829:4850   */\n  and\n    /* \"#utility.yul\":4820:4850   */\n  swap4\n  pop\n    /* \"#utility.yul\":4893:4897   */\n  dup1\n    /* \"#utility.yul\":4883:4891   */\n  dup7\n    /* \"#utility.yul\":4879:4898   */\n  and\n    /* \"#utility.yul\":4872:4877   */\n  dup5\n    /* \"#utility.yul\":4869:4899   */\n  or\n    /* \"#utility.yul\":4859:4899   */\n  swap3\n  pop\n    /* \"#utility.yul\":4588:4905   */\n  pop\n  pop\n    /* \"#utility.yul\":4512:4905   */\n  swap4\n  swap3\n  pop\n  pop\n  pop\n  jump\t// out\n    /* \"#utility.yul\":4911:4988   */\ntag_30:\n    /* \"#utility.yul\":4948:4955   */\n  0x00\n    /* \"#utility.yul\":4977:4982   */\n  dup2\n    /* \"#utility.yul\":4966:4982   */\n  swap1\n  pop\n    /* \"#utility.yul\":4911:4988   */\n  swap2\n  swap1\n  pop\n  jump\t// out\n    /* \"#utility.yul\":4994:5054   */\ntag_31:\n    /* \"#utility.yul\":5022:5025   */\n  0x00\n    /* \"#utility.yul\":5043:5048   */\n  dup2\n    /* \"#utility.yul\":5036:5048   */\n  swap1\n  pop\n    /* \"#utility.yul\":4994:5054   */\n  swap2\n  swap1\n  pop\n  jump\t// out\n    /* \"#utility.yul\":5060:5202   */\ntag_32:\n    /* \"#utility.yul\":5110:5119   */\n  0x00\n    /* \"#utility.yul\":5143:5196   */\n  tag_99\n    /* \"#utility.yul\":5161:5195   */\n  tag_100\n    /* \"#utility.yul\":5170:5194   */\n  tag_101\n    /* \"#utility.yul\":5188:5193   */\n  dup5\n    /* \"#utility.yul\":5170:5194   */\n  tag_30\n  jump\t// in\ntag_101:\n    /* \"#utility.yul\":5161:5195   */\n  tag_31\n  jump\t// in\ntag_100:\n    /* \"#utility.yul\":5143:5196   */\n  tag_30\n  jump\t// in\ntag_99:\n    /* \"#utility.yul\":5130:5196   */\n  swap1\n  pop\n    /* \"#utility.yul\":5060:5202   */\n  swap2\n  swap1\n  pop\n  jump\t// out\n    /* \"#utility.yul\":5208:5283   */\ntag_33:\n    /* \"#utility.yul\":5251:5254   */\n  0x00\n    /* \"#utility.yul\":5272:5277   */\n  dup2\n    /* \"#utility.yul\":5265:5277   */\n  swap1\n  pop\n    /* \"#utility.yul\":5208:5283   */\n  swap2\n  swap1\n  pop\n  jump\t// out\n    /* \"#utility.yul\":5289:5558   */\ntag_34:\n    /* \"#utility.yul\":5399:5438   */\n  tag_104\n    /* \"#utility.yul\":5430:5437   */\n  dup4\n    /* \"#utility.yul\":5399:5438   */\n  tag_32\n  jump\t// in\ntag_104:\n    /* \"#utility.yul\":5460:5551   */\n  tag_105\n    /* \"#utility.yul\":5509:5550   */\n  tag_106\n    /* \"#utility.yul\":5533:5549   */\n  dup3\n    /* \"#utility.yul\":5509:5550   */\n  tag_33\n  jump\t// in\ntag_106:\n    /* \"#utility.yul\":5501:5507   */\n  dup5\n    /* \"#utility.yul\":5494:5498   */\n  dup5\n    /* \"#utility.yul\":5488:5499   */\n  sload\n    /* \"#utility.yul\":5460:5551   */\n  tag_29\n  jump\t// in\ntag_105:\n    /* \"#utility.yul\":5454:5458   */\n  dup3\n    /* \"#utility.yul\":5447:5552   */\n  sstore\n    /* \"#utility.yul\":5365:5558   */\n  pop\n    /* \"#utility.yul\":5289:5558   */\n  pop\n  pop\n  pop\n  jump\t// out\n    /* \"#utility.yul\":5564:5637   */\ntag_35:\n    /* \"#utility.yul\":5609:5612   */\n  0x00\n    /* \"#utility.yul\":5564:5637   */\n  swap1\n  jump\t// out\n    /* \"#utility.yul\":5643:5832   */\ntag_36:\n    /* \"#utility.yul\":5720:5752   */\n  tag_109\n  tag_35\n  jump\t// in\ntag_109:\n    /* \"#utility.yul\":5761:5826   */\n  tag_110\n    /* \"#utility.yul\":5819:5825   */\n  dup2\n    /* \"#utility.yul\":5811:5817   */\n  dup5\n    /* \"#utility.yul\":5805:5809   */\n  dup5\n    /* \"#utility.yul\":5761:5826   */\n  tag_34\n  jump\t// in\ntag_110:\n    /* \"#utility.yul\":5696:5832   */\n  pop\n    /* \"#utility.yul\":5643:5832   */\n  pop\n  pop\n  jump\t// out\n    /* \"#utility.yul\":5838:6024   */\ntag_37:\n    /* \"#utility.yul\":5898:6018   */\ntag_112:\n    /* \"#utility.yul\":5915:5918   */\n  dup2\n    /* \"#utility.yul\":5908:5913   */\n  dup2\n    /* \"#utility.yul\":5905:5919   */\n  lt\n    /* \"#utility.yul\":5898:6018   */\n  iszero\n  tag_114\n  jumpi\n    /* \"#utility.yul\":5969:6008   */\n  tag_115\n    /* \"#utility.yul\":6006:6007   */\n  0x00\n    /* \"#utility.yul\":5999:6004   */\n  dup3\n    /* \"#utility.yul\":5969:6008   */\n  tag_36\n  jump\t// in\ntag_115:\n    /* \"#utility.yul\":5942:5943   */\n  0x01\n    /* \"#utility.yul\":5935:5940   */\n  dup2\n    /* \"#utility.yul\":5931:5944   */\n  add\n    /* \"#utility.yul\":5922:5944   */\n  swap1\n  pop\n    /* \"#utility.yul\":5898:6018   */\n  jump(tag_112)\ntag_114:\n    /* \"#utility.yul\":5838:6024   */\n  pop\n  pop\n  jump\t// out\n    /* \"#utility.yul\":6030:6573   */\ntag_38:\n    /* \"#utility.yul\":6131:6133   */\n  0x1f\n    /* \"#utility.yul\":6126:6129   */\n  dup3\n    /* \"#utility.yul\":6123:6134   */\n  gt\n    /* \"#utility.yul\":6120:6566   */\n  iszero\n  tag_117\n  jumpi\n    /* \"#utility.yul\":6165:6203   */\n  tag_118\n    /* \"#utility.yul\":6197:6202   */\n  dup2\n    /* \"#utility.yul\":6165:6203   */\n  tag_26\n  jump\t// in\ntag_118:\n    /* \"#utility.yul\":6249:6278   */\n  tag_119\n    /* \"#utility.yul\":6267:6277   */\n  dup5\n    /* \"#utility.yul\":6249:6278   */\n  tag_27\n  jump\t// in\ntag_119:\n    /* \"#utility.yul\":6239:6247   */\n  dup2\n    /* \"#utility.yul\":6235:6279   */\n  add\n    /* \"#utility.yul\":6432:6434   */\n  0x20\n    /* \"#utility.yul\":6420:6430   */\n  dup6\n    /* \"#utility.yul\":6417:6435   */\n  lt\n    /* \"#utility.yul\":6414:6463   */\n  iszero\n  tag_120\n  jumpi\n    /* \"#utility.yul\":6453:6461   */\n  dup2\n    /* \"#utility.yul\":6438:6461   */\n  swap1\n  pop\n    /* \"#utility.yul\":6414:6463   */\ntag_120:\n    /* \"#utility.yul\":6476:6556   */\n  tag_121\n    /* \"#utility.yul\":6532:6554   */\n  tag_122\n    /* \"#utility.yul\":6550:6553   */\n  dup6\n    /* \"#utility.yul\":6532:6554   */\n  tag_27\n  jump\t// in\ntag_122:\n    /* \"#utility.yul\":6522:6530   */\n  dup4\n    /* \"#utility.yul\":6518:6555   */\n  add\n    /* \"#utility.yul\":6505:6516   */\n  dup3\n    /* \"#utility.yul\":6476:6556   */\n  tag_37\n  jump\t// in\ntag_121:\n    /* \"#utility.yul\":6135:6566   */\n  pop\n  pop\n    /* \"#utility.yul\":6120:6566   */\ntag_117:\n    /* \"#utility.yul\":6030:6573   */\n  pop\n  pop\n  pop\n  jump\t// out\n    /* \"#utility.yul\":6579:6696   */\ntag_39:\n    /* \"#utility.yul\":6633:6641   */\n  0x00\n    /* \"#utility.yul\":6683:6688   */\n  dup3\n    /* \"#utility.yul\":6677:6681   */\n  dup3\n    /* \"#utility.yul\":6673:6689   */\n  shr\n    /* \"#utility.yul\":6652:6689   */\n  swap1\n  pop\n    /* \"#utility.yul\":6579:6696   */\n  swap3\n  swap2\n  pop\n  pop\n  jump\t// out\n    /* \"#utility.yul\":6702:6871   */\ntag_40:\n    /* \"#utility.yul\":6746:6752   */\n  0x00\n    /* \"#utility.yul\":6779:6830   */\n  tag_125\n    /* \"#utility.yul\":6827:6828   */\n  0x00\n    /* \"#utility.yul\":6823:6829   */\n  not\n    /* \"#utility.yul\":6815:6820   */\n  dup5\n    /* \"#utility.yul\":6812:6813   */\n  0x08\n    /* \"#utility.yul\":6808:6821   */\n  mul\n    /* \"#utility.yul\":6779:6830   */\n  tag_39\n  jump\t// in\ntag_125:\n    /* \"#utility.yul\":6775:6831   */\n  not\n    /* \"#utility.yul\":6860:6864   */\n  dup1\n    /* \"#utility.yul\":6854:6858   */\n  dup4\n    /* \"#utility.yul\":6850:6865   */\n  and\n    /* \"#utility.yul\":6840:6865   */\n  swap2\n  pop\n    /* \"#utility.yul\":6753:6871   */\n  pop\n    /* \"#utility.yul\":6702:6871   */\n  swap3\n  swap2\n  pop\n  pop\n  jump\t// out\n    /* \"#utility.yul\":6876:7171   */\ntag_41:\n    /* \"#utility.yul\":6952:6956   */\n  0x00\n    /* \"#utility.yul\":7098:7127   */\n  tag_127\n    /* \"#utility.yul\":7123:7126   */\n  dup4\n    /* \"#utility.yul\":7117:7121   */\n  dup4\n    /* \"#utility.yul\":7098:7127   */\n  tag_40\n  jump\t// in\ntag_127:\n    /* \"#utility.yul\":7090:7127   */\n  swap2\n  pop\n    /* \"#utility.yul\":7160:7163   */\n  dup3\n    /* \"#utility.yul\":7157:7158   */\n  0x02\n    /* \"#utility.yul\":7153:7164   */\n  mul\n    /* \"#utility.yul\":7147:7151   */\n  dup3\n    /* \"#utility.yul\":7144:7165   */\n  or\n    /* \"#utility.yul\":7136:7165   */\n  swap1\n  pop\n    /* \"#utility.yul\":6876:7171   */\n  swap3\n  swap2\n  pop\n  pop\n  jump\t// out\n    /* \"#utility.yul\":7176:8571   */\ntag_7:\n    /* \"#utility.yul\":7293:7330   */\n  tag_129\n    /* \"#utility.yul\":7326:7329   */\n  dup3\n    /* \"#utility.yul\":7293:7330   */\n  tag_23\n  jump\t// in\ntag_129:\n    /* \"#utility.yul\":7395:7413   */\n  0xffffffffffffffff\n    /* \"#utility.yul\":7387:7393   */\n  dup2\n    /* \"#utility.yul\":7384:7414   */\n  gt\n    /* \"#utility.yul\":7381:7437   */\n  iszero\n  tag_130\n  jumpi\n    /* \"#utility.yul\":7417:7435   */\n  tag_131\n  tag_16\n  jump\t// in\ntag_131:\n    /* \"#utility.yul\":7381:7437   */\ntag_130:\n    /* \"#utility.yul\":7461:7499   */\n  tag_132\n    /* \"#utility.yul\":7493:7497   */\n  dup3\n    /* \"#utility.yul\":7487:7498   */\n  sload\n    /* \"#utility.yul\":7461:7499   */\n  tag_25\n  jump\t// in\ntag_132:\n    /* \"#utility.yul\":7546:7613   */\n  tag_133\n    /* \"#utility.yul\":7606:7612   */\n  dup3\n    /* \"#utility.yul\":7598:7604   */\n  dup3\n    /* \"#utility.yul\":7592:7596   */\n  dup6\n    /* \"#utility.yul\":7546:7613   */\n  tag_38\n  jump\t// in\ntag_133:\n    /* \"#utility.yul\":7640:7641   */\n  0x00\n    /* \"#utility.yul\":7664:7668   */\n  0x20\n    /* \"#utility.yul\":7651:7668   */\n  swap1\n  pop\n    /* \"#utility.yul\":7696:7698   */\n  0x1f\n    /* \"#utility.yul\":7688:7694   */\n  dup4\n    /* \"#utility.yul\":7685:7699   */\n  gt\n    /* \"#utility.yul\":7713:7714   */\n  0x01\n    /* \"#utility.yul\":7708:8326   */\n  dup2\n  eq\n  tag_135\n  jumpi\n    /* \"#utility.yul\":8370:8371   */\n  0x00\n    /* \"#utility.yul\":8387:8393   */\n  dup5\n    /* \"#utility.yul\":8384:8461   */\n  iszero\n  tag_136\n  jumpi\n    /* \"#utility.yul\":8436:8445   */\n  dup3\n    /* \"#utility.yul\":8431:8434   */\n  dup8\n    /* \"#utility.yul\":8427:8446   */\n  add\n    /* \"#utility.yul\":8421:8447   */\n  mload\n    /* \"#utility.yul\":8412:8447   */\n  swap1\n  pop\n    /* \"#utility.yul\":8384:8461   */\ntag_136:\n    /* \"#utility.yul\":8487:8554   */\n  tag_137\n    /* \"#utility.yul\":8547:8553   */\n  dup6\n    /* \"#utility.yul\":8540:8545   */\n  dup3\n    /* \"#utility.yul\":8487:8554   */\n  tag_41\n  jump\t// in\ntag_137:\n    /* \"#utility.yul\":8481:8485   */\n  dup7\n    /* \"#utility.yul\":8474:8555   */\n  sstore\n    /* \"#utility.yul\":8343:8565   */\n  pop\n    /* \"#utility.yul\":7678:8565   */\n  jump(tag_134)\n    /* \"#utility.yul\":7708:8326   */\ntag_135:\n    /* \"#utility.yul\":7760:7764   */\n  0x1f\n    /* \"#utility.yul\":7756:7765   */\n  not\n    /* \"#utility.yul\":7748:7754   */\n  dup5\n    /* \"#utility.yul\":7744:7766   */\n  and\n    /* \"#utility.yul\":7794:7831   */\n  tag_138\n    /* \"#utility.yul\":7826:7830   */\n  dup7\n    /* \"#utility.yul\":7794:7831   */\n  tag_26\n  jump\t// in\ntag_138:\n    /* \"#utility.yul\":7853:7854   */\n  0x00\n    /* \"#utility.yul\":7867:8075   */\ntag_139:\n    /* \"#utility.yul\":7881:7888   */\n  dup3\n    /* \"#utility.yul\":7878:7879   */\n  dup2\n    /* \"#utility.yul\":7875:7889   */\n  lt\n    /* \"#utility.yul\":7867:8075   */\n  iszero\n  tag_141\n  jumpi\n    /* \"#utility.yul\":7960:7969   */\n  dup5\n    /* \"#utility.yul\":7955:7958   */\n  dup10\n    /* \"#utility.yul\":7951:7970   */\n  add\n    /* \"#utility.yul\":7945:7971   */\n  mload\n    /* \"#utility.yul\":7937:7943   */\n  dup3\n    /* \"#utility.yul\":7930:7972   */\n  sstore\n    /* \"#utility.yul\":8011:8012   */\n  0x01\n    /* \"#utility.yul\":8003:8009   */\n  dup3\n    /* \"#utility.yul\":7999:8013   */\n  add\n    /* \"#utility.yul\":7989:8013   */\n  swap2\n  pop\n    /* \"#utility.yul\":8058:8060   */\n  0x20\n    /* \"#utility.yul\":8047:8056   */\n  dup6\n    /* \"#utility.yul\":8043:8061   */\n  add\n    /* \"#utility.yul\":8030:8061   */\n  swap5\n  pop\n    /* \"#utility.yul\":7904:7908   */\n  0x20\n    /* \"#utility.yul\":7901:7902   */\n  dup2\n    /* \"#utility.yul\":7897:7909   */\n  add\n    /* \"#utility.yul\":7892:7909   */\n  swap1\n  pop\n    /* \"#utility.yul\":7867:8075   */\n  jump(tag_139)\ntag_141:\n    /* \"#utility.yul\":8103:8109   */\n  dup7\n    /* \"#utility.yul\":8094:8101   */\n  dup4\n    /* \"#utility.yul\":8091:8110   */\n  lt\n    /* \"#utility.yul\":8088:8267   */\n  iszero\n  tag_142\n  jumpi\n    /* \"#utility.yul\":8161:8170   */\n  dup5\n    /* \"#utility.yul\":8156:8159   */\n  dup10\n    /* \"#utility.yul\":8152:8171   */\n  add\n    /* \"#utility.yul\":8146:8172   */\n  mload\n    /* \"#utility.yul\":8204:8252   */\n  tag_143\n    /* \"#utility.yul\":8246:8250   */\n  0x1f\n    /* \"#utility.yul\":8238:8244   */\n  dup10\n    /* \"#utility.yul\":8234:8251   */\n  and\n    /* \"#utility.yul\":8223:8232   */\n  dup3\n    /* \"#utility.yul\":8204:8252   */\n  tag_40\n  jump\t// in\ntag_143:\n    /* \"#utility.yul\":8196:8202   */\n  dup4\n    /* \"#utility.yul\":8189:8253   */\n  sstore\n    /* \"#utility.yul\":8111:8267   */\n  pop\n    /* \"#utility.yul\":8088:8267   */\ntag_142:\n    /* \"#utility.yul\":8313:8314   */\n  0x01\n    /* \"#utility.yul\":8309:8310   */\n  0x02\n    /* \"#utility.yul\":8301:8307   */\n  dup9\n    /* \"#utility.yul\":8297:8311   */\n  mul\n    /* \"#utility.yul\":8293:8315   */\n  add\n    /* \"#utility.yul\":8287:8291   */\n  dup9\n    /* \"#utility.yul\":8280:8316   */\n  sstore\n    /* \"#utility.yul\":7715:8326   */\n  pop\n  pop\n  pop\n    /* \"#utility.yul\":7678:8565   */\ntag_134:\n  pop\n    /* \"#utility.yul\":7268:8571   */\n  pop\n  pop\n  pop\n    /* \"#utility.yul\":7176:8571   */\n  pop\n  pop\n  jump\t// out\n    /* \"contracts/token/ERC721/ERC721.sol\":646:19591  contract ERC721 is Context, ERC165, IERC721, IERC721Metadata {... */\ntag_9:\n  dataSize(sub_0)\n  dup1\n  dataOffset(sub_0)\n  0x00\n  codecopy\n  0x00\n  return\nstop\n\nsub_0: assembly {\n        /* \"contracts/token/ERC721/ERC721.sol\":646:19591  contract ERC721 is Context, ERC165, IERC721, IERC721Metadata {... */\n      mstore(0x40, 0x80)\n      callvalue\n      dup1\n      iszero\n      tag_1\n      jumpi\n      0x00\n      dup1\n      revert\n    tag_1:\n      pop\n      jumpi(tag_2, lt(calldatasize, 0x04))\n      shr(0xe0, calldataload(0x00))\n      dup1\n      0x42842e0e\n      gt\n      tag_19\n      jumpi\n      dup1\n      0xa22cb465\n      gt\n      tag_20\n      jumpi\n      dup1\n      0xa22cb465\n      eq\n      tag_15\n      jumpi\n      dup1\n      0xb88d4fde\n      eq\n      tag_16\n      jumpi\n      dup1\n      0xc87b56dd\n      eq\n      tag_17\n      jumpi\n      dup1\n      0xe985e9c5\n      eq\n      tag_18\n      jumpi\n      jump(tag_2)\n    tag_20:\n      dup1\n      0x42842e0e\n      eq\n      tag_11\n      jumpi\n      dup1\n      0x6352211e\n      eq\n      tag_12\n      jumpi\n      dup1\n      0x70a08231\n      eq\n      tag_13\n      jumpi\n      dup1\n      0x95d89b41\n      eq\n      tag_14\n      jumpi\n      jump(tag_2)\n    tag_19:\n      dup1\n      0x095ea7b3\n      gt\n      tag_21\n      jumpi\n      dup1\n      0x095ea7b3\n      eq\n      tag_7\n      jumpi\n      dup1\n      0x23b872dd\n      eq\n      tag_8\n      jumpi\n      dup1\n      0x346c94cf\n      eq\n      tag_9\n      jumpi\n      dup1\n      0x3b035df6\n      eq\n      tag_10\n      jumpi\n      jump(tag_2)\n    tag_21:\n      dup1\n      0x01ffc9a7\n      eq\n      tag_3\n      jumpi\n      dup1\n      0x06fdde03\n      eq\n      tag_4\n      jumpi\n      dup1\n      0x07f0661c\n      eq\n      tag_5\n      jumpi\n      dup1\n      0x081812fc\n      eq\n      tag_6\n      jumpi\n    tag_2:\n      0x00\n      dup1\n      revert\n        /* \"contracts/token/ERC721/ERC721.sol\":1936:2241  function supportsInterface(bytes4 interfaceId) public view virtual override(ERC165, IERC165) returns (bool) {... */\n    tag_3:\n      tag_22\n      0x04\n      dup1\n      calldatasize\n      sub\n      dup2\n      add\n      swap1\n      tag_23\n      swap2\n      swap1\n      tag_24\n      jump\t// in\n    tag_23:\n      tag_25\n      jump\t// in\n    tag_22:\n      mload(0x40)\n      tag_26\n      swap2\n      swap1\n      tag_27\n      jump\t// in\n    tag_26:\n      mload(0x40)\n      dup1\n      swap2\n      sub\n      swap1\n      return\n        /* \"contracts/token/ERC721/ERC721.sol\":2864:2964  function name() public view virtual override returns (string memory) {... */\n    tag_4:\n      tag_28\n      tag_29\n      jump\t// in\n    tag_28:\n      mload(0x40)\n      tag_30\n      swap2\n      swap1\n      tag_31\n      jump\t// in\n    tag_30:\n      mload(0x40)\n      dup1\n      swap2\n      sub\n      swap1\n      return\n        /* \"contracts/token/ERC721/ERC721.sol\":6919:7057  function getLockedCountByOwner(address owner) public view virtual override returns (uint256) {... */\n    tag_5:\n      tag_32\n      0x04\n      dup1\n      calldatasize\n      sub\n      dup2\n      add\n      swap1\n      tag_33\n      swap2\n      swap1\n      tag_34\n      jump\t// in\n    tag_33:\n      tag_35\n      jump\t// in\n    tag_32:\n      mload(0x40)\n      tag_36\n      swap2\n      swap1\n      tag_37\n      jump\t// in\n    tag_36:\n      mload(0x40)\n      dup1\n      swap2\n      sub\n      swap1\n      return\n        /* \"contracts/token/ERC721/ERC721.sol\":4441:4612  function getApproved(uint256 tokenId) public view virtual override returns (address) {... */\n    tag_6:\n      tag_38\n      0x04\n      dup1\n      calldatasize\n      sub\n      dup2\n      add\n      swap1\n      tag_39\n      swap2\n      swap1\n      tag_40\n      jump\t// in\n    tag_39:\n      tag_41\n      jump\t// in\n    tag_38:\n      mload(0x40)\n      tag_42\n      swap2\n      swap1\n      tag_43\n      jump\t// in\n    tag_42:\n      mload(0x40)\n      dup1\n      swap2\n      sub\n      swap1\n      return\n        /* \"contracts/token/ERC721/ERC721.sol\":3894:4375  function approve(address to, uint256 tokenId) public virtual override {... */\n    tag_7:\n      tag_44\n      0x04\n      dup1\n      calldatasize\n      sub\n      dup2\n      add\n      swap1\n      tag_45\n      swap2\n      swap1\n      tag_46\n      jump\t// in\n    tag_45:\n      tag_47\n      jump\t// in\n    tag_44:\n      stop\n        /* \"contracts/token/ERC721/ERC721.sol\":5141:5505  function transferFrom(address from, address to, uint256 tokenId) public virtual override {... */\n    tag_8:\n      tag_48\n      0x04\n      dup1\n      calldatasize\n      sub\n      dup2\n      add\n      swap1\n      tag_49\n      swap2\n      swap1\n      tag_50\n      jump\t// in\n    tag_49:\n      tag_51\n      jump\t// in\n    tag_48:\n      stop\n        /* \"contracts/token/ERC721/ERC721.sol\":6204:6650  function lock(uint256 tokenId,bool locked) public virtual override {... */\n    tag_9:\n      tag_52\n      0x04\n      dup1\n      calldatasize\n      sub\n      dup2\n      add\n      swap1\n      tag_53\n      swap2\n      swap1\n      tag_54\n      jump\t// in\n    tag_53:\n      tag_55\n      jump\t// in\n    tag_52:\n      stop\n        /* \"contracts/token/ERC721/ERC721.sol\":6722:6847  function getLocked(uint256 tokenId) public view virtual override returns (bool) {... */\n    tag_10:\n      tag_56\n      0x04\n      dup1\n      calldatasize\n      sub\n      dup2\n      add\n      swap1\n      tag_57\n      swap2\n      swap1\n      tag_40\n      jump\t// in\n    tag_57:\n      tag_58\n      jump\t// in\n    tag_56:\n      mload(0x40)\n      tag_59\n      swap2\n      swap1\n      tag_27\n      jump\t// in\n    tag_59:\n      mload(0x40)\n      dup1\n      swap2\n      sub\n      swap1\n      return\n        /* \"contracts/token/ERC721/ERC721.sol\":5576:5727  function safeTransferFrom(address from, address to, uint256 tokenId) public virtual override {... */\n    tag_11:\n      tag_60\n      0x04\n      dup1\n      calldatasize\n      sub\n      dup2\n      add\n      swap1\n      tag_61\n      swap2\n      swap1\n      tag_50\n      jump\t// in\n    tag_61:\n      tag_62\n      jump\t// in\n    tag_60:\n      stop\n        /* \"contracts/token/ERC721/ERC721.sol\":2574:2797  function ownerOf(uint256 tokenId) public view virtual override returns (address) {... */\n    tag_12:\n      tag_63\n      0x04\n      dup1\n      calldatasize\n      sub\n      dup2\n      add\n      swap1\n      tag_64\n      swap2\n      swap1\n      tag_40\n      jump\t// in\n    tag_64:\n      tag_65\n      jump\t// in\n    tag_63:\n      mload(0x40)\n      tag_66\n      swap2\n      swap1\n      tag_43\n      jump\t// in\n    tag_66:\n      mload(0x40)\n      dup1\n      swap2\n      sub\n      swap1\n      return\n        /* \"contracts/token/ERC721/ERC721.sol\":2305:2512  function balanceOf(address owner) public view virtual override returns (uint256) {... */\n    tag_13:\n      tag_67\n      0x04\n      dup1\n      calldatasize\n      sub\n      dup2\n      add\n      swap1\n      tag_68\n      swap2\n      swap1\n      tag_34\n      jump\t// in\n    tag_68:\n      tag_69\n      jump\t// in\n    tag_67:\n      mload(0x40)\n      tag_70\n      swap2\n      swap1\n      tag_37\n      jump\t// in\n    tag_70:\n      mload(0x40)\n      dup1\n      swap2\n      sub\n      swap1\n      return\n        /* \"contracts/token/ERC721/ERC721.sol\":3033:3137  function symbol() public view virtual override returns (string memory) {... */\n    tag_14:\n      tag_71\n      tag_72\n      jump\t// in\n    tag_71:\n      mload(0x40)\n      tag_73\n      swap2\n      swap1\n      tag_31\n      jump\t// in\n    tag_73:\n      mload(0x40)\n      dup1\n      swap2\n      sub\n      swap1\n      return\n        /* \"contracts/token/ERC721/ERC721.sol\":4684:4839  function setApprovalForAll(address operator, bool approved) public virtual override {... */\n    tag_15:\n      tag_74\n      0x04\n      dup1\n      calldatasize\n      sub\n      dup2\n      add\n      swap1\n      tag_75\n      swap2\n      swap1\n      tag_76\n      jump\t// in\n    tag_75:\n      tag_77\n      jump\t// in\n    tag_74:\n      stop\n        /* \"contracts/token/ERC721/ERC721.sol\":5798:6142  function safeTransferFrom(address from, address to, uint256 tokenId, bytes memory data) public virtual override {... */\n    tag_16:\n      tag_78\n      0x04\n      dup1\n      calldatasize\n      sub\n      dup2\n      add\n      swap1\n      tag_79\n      swap2\n      swap1\n      tag_80\n      jump\t// in\n    tag_79:\n      tag_81\n      jump\t// in\n    tag_78:\n      stop\n        /* \"contracts/token/ERC721/ERC721.sol\":3208:3489  function tokenURI(uint256 tokenId) public view virtual override returns (string memory) {... */\n    tag_17:\n      tag_82\n      0x04\n      dup1\n      calldatasize\n      sub\n      dup2\n      add\n      swap1\n      tag_83\n      swap2\n      swap1\n      tag_40\n      jump\t// in\n    tag_83:\n      tag_84\n      jump\t// in\n    tag_82:\n      mload(0x40)\n      tag_85\n      swap2\n      swap1\n      tag_31\n      jump\t// in\n    tag_85:\n      mload(0x40)\n      dup1\n      swap2\n      sub\n      swap1\n      return\n        /* \"contracts/token/ERC721/ERC721.sol\":4910:5074  function isApprovedForAll(address owner, address operator) public view virtual override returns (bool) {... */\n    tag_18:\n      tag_86\n      0x04\n      dup1\n      calldatasize\n      sub\n      dup2\n      add\n      swap1\n      tag_87\n      swap2\n      swap1\n      tag_88\n      jump\t// in\n    tag_87:\n      tag_89\n      jump\t// in\n    tag_86:\n      mload(0x40)\n      tag_90\n      swap2\n      swap1\n      tag_27\n      jump\t// in\n    tag_90:\n      mload(0x40)\n      dup1\n      swap2\n      sub\n      swap1\n      return\n        /* \"contracts/token/ERC721/ERC721.sol\":1936:2241  function supportsInterface(bytes4 interfaceId) public view virtual override(ERC165, IERC165) returns (bool) {... */\n    tag_25:\n        /* \"contracts/token/ERC721/ERC721.sol\":2038:2042  bool */\n      0x00\n        /* \"contracts/token/ERC721/ERC721.sol\":2090:2115  type(IERC721).interfaceId */\n      0x8833f7e800000000000000000000000000000000000000000000000000000000\n        /* \"contracts/token/ERC721/ERC721.sol\":2075:2115  interfaceId == type(IERC721).interfaceId */\n      not(0xffffffffffffffffffffffffffffffffffffffffffffffffffffffff)\n      and\n        /* \"contracts/token/ERC721/ERC721.sol\":2075:2086  interfaceId */\n      dup3\n        /* \"contracts/token/ERC721/ERC721.sol\":2075:2115  interfaceId == type(IERC721).interfaceId */\n      not(0xffffffffffffffffffffffffffffffffffffffffffffffffffffffff)\n      and\n      eq\n        /* \"contracts/token/ERC721/ERC721.sol\":2075:2180  interfaceId == type(IERC721).interfaceId ||... */\n      dup1\n      tag_92\n      jumpi\n      pop\n        /* \"contracts/token/ERC721/ERC721.sol\":2147:2180  type(IERC721Metadata).interfaceId */\n      0x5b5e139f00000000000000000000000000000000000000000000000000000000\n        /* \"contracts/token/ERC721/ERC721.sol\":2132:2180  interfaceId == type(IERC721Metadata).interfaceId */\n      not(0xffffffffffffffffffffffffffffffffffffffffffffffffffffffff)\n      and\n        /* \"contracts/token/ERC721/ERC721.sol\":2132:2143  interfaceId */\n      dup3\n        /* \"contracts/token/ERC721/ERC721.sol\":2132:2180  interfaceId == type(IERC721Metadata).interfaceId */\n      not(0xffffffffffffffffffffffffffffffffffffffffffffffffffffffff)\n      and\n      eq\n        /* \"contracts/token/ERC721/ERC721.sol\":2075:2180  interfaceId == type(IERC721).interfaceId ||... */\n    tag_92:\n        /* \"contracts/token/ERC721/ERC721.sol\":2075:2233  interfaceId == type(IERC721).interfaceId ||... */\n      dup1\n      tag_93\n      jumpi\n      pop\n        /* \"contracts/token/ERC721/ERC721.sol\":2197:2233  super.supportsInterface(interfaceId) */\n      tag_94\n        /* \"contracts/token/ERC721/ERC721.sol\":2221:2232  interfaceId */\n      dup3\n        /* \"contracts/token/ERC721/ERC721.sol\":2197:2220  super.supportsInterface */\n      tag_95\n        /* \"contracts/token/ERC721/ERC721.sol\":2197:2233  super.supportsInterface(interfaceId) */\n      jump\t// in\n    tag_94:\n        /* \"contracts/token/ERC721/ERC721.sol\":2075:2233  interfaceId == type(IERC721).interfaceId ||... */\n    tag_93:\n        /* \"contracts/token/ERC721/ERC721.sol\":2055:2233  return... */\n      swap1\n      pop\n        /* \"contracts/token/ERC721/ERC721.sol\":1936:2241  function supportsInterface(bytes4 interfaceId) public view virtual override(ERC165, IERC165) returns (bool) {... */\n      swap2\n      swap1\n      pop\n      jump\t// out\n        /* \"contracts/token/ERC721/ERC721.sol\":2864:2964  function name() public view virtual override returns (string memory) {... */\n    tag_29:\n        /* \"contracts/token/ERC721/ERC721.sol\":2918:2931  string memory */\n      0x60\n        /* \"contracts/token/ERC721/ERC721.sol\":2951:2956  _name */\n      0x00\n        /* \"contracts/token/ERC721/ERC721.sol\":2944:2956  return _name */\n      dup1\n      sload\n      tag_97\n      swap1\n      tag_98\n      jump\t// in\n    tag_97:\n      dup1\n      0x1f\n      add\n      0x20\n      dup1\n      swap2\n      div\n      mul\n      0x20\n      add\n      mload(0x40)\n      swap1\n      dup2\n      add\n      0x40\n      mstore\n      dup1\n      swap3\n      swap2\n      swap1\n      dup2\n      dup2\n      mstore\n      0x20\n      add\n      dup3\n      dup1\n      sload\n      tag_99\n      swap1\n      tag_98\n      jump\t// in\n    tag_99:\n      dup1\n      iszero\n      tag_100\n      jumpi\n      dup1\n      0x1f\n      lt\n      tag_101\n      jumpi\n      0x0100\n      dup1\n      dup4\n      sload\n      div\n      mul\n      dup4\n      mstore\n      swap2\n      0x20\n      add\n      swap2\n      jump(tag_100)\n    tag_101:\n      dup3\n      add\n      swap2\n      swap1\n      0x00\n      mstore\n      keccak256(0x00, 0x20)\n      swap1\n    tag_102:\n      dup2\n      sload\n      dup2\n      mstore\n      swap1\n      0x01\n      add\n      swap1\n      0x20\n      add\n      dup1\n      dup4\n      gt\n      tag_102\n      jumpi\n      dup3\n      swap1\n      sub\n      0x1f\n      and\n      dup3\n      add\n      swap2\n    tag_100:\n      pop\n      pop\n      pop\n      pop\n      pop\n      swap1\n      pop\n        /* \"contracts/token/ERC721/ERC721.sol\":2864:2964  function name() public view virtual override returns (string memory) {... */\n      swap1\n      jump\t// out\n        /* \"contracts/token/ERC721/ERC721.sol\":6919:7057  function getLockedCountByOwner(address owner) public view virtual override returns (uint256) {... */\n    tag_35:\n        /* \"contracts/token/ERC721/ERC721.sol\":7003:7010  uint256 */\n      0x00\n        /* \"contracts/token/ERC721/ERC721.sol\":7030:7042  _lockedCount */\n      0x08\n        /* \"contracts/token/ERC721/ERC721.sol\":7030:7049  _lockedCount[owner] */\n      0x00\n        /* \"contracts/token/ERC721/ERC721.sol\":7043:7048  owner */\n      dup4\n        /* \"contracts/token/ERC721/ERC721.sol\":7030:7049  _lockedCount[owner] */\n      0xffffffffffffffffffffffffffffffffffffffff\n      and\n      0xffffffffffffffffffffffffffffffffffffffff\n      and\n      dup2\n      mstore\n      0x20\n      add\n      swap1\n      dup2\n      mstore\n      0x20\n      add\n      0x00\n      keccak256\n      sload\n        /* \"contracts/token/ERC721/ERC721.sol\":7023:7049  return _lockedCount[owner] */\n      swap1\n      pop\n        /* \"contracts/token/ERC721/ERC721.sol\":6919:7057  function getLockedCountByOwner(address owner) public view virtual override returns (uint256) {... */\n      swap2\n      swap1\n      pop\n      jump\t// out\n        /* \"contracts/token/ERC721/ERC721.sol\":4441:4612  function getApproved(uint256 tokenId) public view virtual override returns (address) {... */\n    tag_41:\n        /* \"contracts/token/ERC721/ERC721.sol\":4517:4524  address */\n      0x00\n        /* \"contracts/token/ERC721/ERC721.sol\":4537:4560  _requireMinted(tokenId) */\n      tag_105\n        /* \"contracts/token/ERC721/ERC721.sol\":4552:4559  tokenId */\n      dup3\n        /* \"contracts/token/ERC721/ERC721.sol\":4537:4551  _requireMinted */\n      tag_106\n        /* \"contracts/token/ERC721/ERC721.sol\":4537:4560  _requireMinted(tokenId) */\n      jump\t// in\n    tag_105:\n        /* \"contracts/token/ERC721/ERC721.sol\":4580:4595  _tokenApprovals */\n      0x04\n        /* \"contracts/token/ERC721/ERC721.sol\":4580:4604  _tokenApprovals[tokenId] */\n      0x00\n        /* \"contracts/token/ERC721/ERC721.sol\":4596:4603  tokenId */\n      dup4\n        /* \"contracts/token/ERC721/ERC721.sol\":4580:4604  _tokenApprovals[tokenId] */\n      dup2\n      mstore\n      0x20\n      add\n      swap1\n      dup2\n      mstore\n      0x20\n      add\n      0x00\n      keccak256\n      0x00\n      swap1\n      sload\n      swap1\n      0x0100\n      exp\n      swap1\n      div\n      0xffffffffffffffffffffffffffffffffffffffff\n      and\n        /* \"contracts/token/ERC721/ERC721.sol\":4573:4604  return _tokenApprovals[tokenId] */\n      swap1\n      pop\n        /* \"contracts/token/ERC721/ERC721.sol\":4441:4612  function getApproved(uint256 tokenId) public view virtual override returns (address) {... */\n      swap2\n      swap1\n      pop\n      jump\t// out\n        /* \"contracts/token/ERC721/ERC721.sol\":3894:4375  function approve(address to, uint256 tokenId) public virtual override {... */\n    tag_47:\n        /* \"contracts/token/ERC721/ERC721.sol\":3975:3988  address owner */\n      0x00\n        /* \"contracts/token/ERC721/ERC721.sol\":3991:4014  ERC721.ownerOf(tokenId) */\n      tag_108\n        /* \"contracts/token/ERC721/ERC721.sol\":4006:4013  tokenId */\n      dup3\n        /* \"contracts/token/ERC721/ERC721.sol\":3991:4005  ERC721.ownerOf */\n      tag_65\n        /* \"contracts/token/ERC721/ERC721.sol\":3991:4014  ERC721.ownerOf(tokenId) */\n      jump\t// in\n    tag_108:\n        /* \"contracts/token/ERC721/ERC721.sol\":3975:4014  address owner = ERC721.ownerOf(tokenId) */\n      swap1\n      pop\n        /* \"contracts/token/ERC721/ERC721.sol\":4039:4044  owner */\n      dup1\n        /* \"contracts/token/ERC721/ERC721.sol\":4033:4044  to != owner */\n      0xffffffffffffffffffffffffffffffffffffffff\n      and\n        /* \"contracts/token/ERC721/ERC721.sol\":4033:4035  to */\n      dup4\n        /* \"contracts/token/ERC721/ERC721.sol\":4033:4044  to != owner */\n      0xffffffffffffffffffffffffffffffffffffffff\n      and\n      sub\n        /* \"contracts/token/ERC721/ERC721.sol\":4025:4082  require(to != owner, \"ERC721: approval to current owner\") */\n      tag_109\n      jumpi\n      mload(0x40)\n      0x08c379a000000000000000000000000000000000000000000000000000000000\n      dup2\n      mstore\n      0x04\n      add\n      tag_110\n      swap1\n      tag_111\n      jump\t// in\n    tag_110:\n      mload(0x40)\n      dup1\n      swap2\n      sub\n      swap1\n      revert\n    tag_109:\n        /* \"contracts/token/ERC721/ERC721.sol\":4133:4138  owner */\n      dup1\n        /* \"contracts/token/ERC721/ERC721.sol\":4117:4138  _msgSender() == owner */\n      0xffffffffffffffffffffffffffffffffffffffff\n      and\n        /* \"contracts/token/ERC721/ERC721.sol\":4117:4129  _msgSender() */\n      tag_112\n        /* \"contracts/token/ERC721/ERC721.sol\":4117:4127  _msgSender */\n      tag_113\n        /* \"contracts/token/ERC721/ERC721.sol\":4117:4129  _msgSender() */\n      jump\t// in\n    tag_112:\n        /* \"contracts/token/ERC721/ERC721.sol\":4117:4138  _msgSender() == owner */\n      0xffffffffffffffffffffffffffffffffffffffff\n      and\n      eq\n        /* \"contracts/token/ERC721/ERC721.sol\":4117:4179  _msgSender() == owner || isApprovedForAll(owner, _msgSender()) */\n      dup1\n      tag_114\n      jumpi\n      pop\n        /* \"contracts/token/ERC721/ERC721.sol\":4142:4179  isApprovedForAll(owner, _msgSender()) */\n      tag_115\n        /* \"contracts/token/ERC721/ERC721.sol\":4159:4164  owner */\n      dup2\n        /* \"contracts/token/ERC721/ERC721.sol\":4166:4178  _msgSender() */\n      tag_116\n        /* \"contracts/token/ERC721/ERC721.sol\":4166:4176  _msgSender */\n      tag_113\n        /* \"contracts/token/ERC721/ERC721.sol\":4166:4178  _msgSender() */\n      jump\t// in\n    tag_116:\n        /* \"contracts/token/ERC721/ERC721.sol\":4142:4158  isApprovedForAll */\n      tag_89\n        /* \"contracts/token/ERC721/ERC721.sol\":4142:4179  isApprovedForAll(owner, _msgSender()) */\n      jump\t// in\n    tag_115:\n        /* \"contracts/token/ERC721/ERC721.sol\":4117:4179  _msgSender() == owner || isApprovedForAll(owner, _msgSender()) */\n    tag_114:\n        /* \"contracts/token/ERC721/ERC721.sol\":4095:4268  require(... */\n      tag_117\n      jumpi\n      mload(0x40)\n      0x08c379a000000000000000000000000000000000000000000000000000000000\n      dup2\n      mstore\n      0x04\n      add\n      tag_118\n      swap1\n      tag_119\n      jump\t// in\n    tag_118:\n      mload(0x40)\n      dup1\n      swap2\n      sub\n      swap1\n      revert\n    tag_117:\n        /* \"contracts/token/ERC721/ERC721.sol\":4290:4300  _tokenLock */\n      0x06\n        /* \"contracts/token/ERC721/ERC721.sol\":4290:4309  _tokenLock[tokenId] */\n      0x00\n        /* \"contracts/token/ERC721/ERC721.sol\":4301:4308  tokenId */\n      dup4\n        /* \"contracts/token/ERC721/ERC721.sol\":4290:4309  _tokenLock[tokenId] */\n      dup2\n      mstore\n      0x20\n      add\n      swap1\n      dup2\n      mstore\n      0x20\n      add\n      0x00\n      keccak256\n      0x00\n      swap1\n      sload\n      swap1\n      0x0100\n      exp\n      swap1\n      div\n      0xff\n      and\n        /* \"contracts/token/ERC721/ERC721.sol\":4289:4309  !_tokenLock[tokenId] */\n      iszero\n        /* \"contracts/token/ERC721/ERC721.sol\":4281:4333  require(!_tokenLock[tokenId],\"ERC721: token locked\") */\n      tag_120\n      jumpi\n      mload(0x40)\n      0x08c379a000000000000000000000000000000000000000000000000000000000\n      dup2\n      mstore\n      0x04\n      add\n      tag_121\n      swap1\n      tag_122\n      jump\t// in\n    tag_121:\n      mload(0x40)\n      dup1\n      swap2\n      sub\n      swap1\n      revert\n    tag_120:\n        /* \"contracts/token/ERC721/ERC721.sol\":4346:4367  _approve(to, tokenId) */\n      tag_123\n        /* \"contracts/token/ERC721/ERC721.sol\":4355:4357  to */\n      dup4\n        /* \"contracts/token/ERC721/ERC721.sol\":4359:4366  tokenId */\n      dup4\n        /* \"contracts/token/ERC721/ERC721.sol\":4346:4354  _approve */\n      tag_124\n        /* \"contracts/token/ERC721/ERC721.sol\":4346:4367  _approve(to, tokenId) */\n      jump\t// in\n    tag_123:\n        /* \"contracts/token/ERC721/ERC721.sol\":3964:4375  {... */\n      pop\n        /* \"contracts/token/ERC721/ERC721.sol\":3894:4375  function approve(address to, uint256 tokenId) public virtual override {... */\n      pop\n      pop\n      jump\t// out\n        /* \"contracts/token/ERC721/ERC721.sol\":5141:5505  function transferFrom(address from, address to, uint256 tokenId) public virtual override {... */\n    tag_51:\n        /* \"contracts/token/ERC721/ERC721.sol\":5302:5343  _isApprovedOrOwner(_msgSender(), tokenId) */\n      tag_126\n        /* \"contracts/token/ERC721/ERC721.sol\":5321:5333  _msgSender() */\n      tag_127\n        /* \"contracts/token/ERC721/ERC721.sol\":5321:5331  _msgSender */\n      tag_113\n        /* \"contracts/token/ERC721/ERC721.sol\":5321:5333  _msgSender() */\n      jump\t// in\n    tag_127:\n        /* \"contracts/token/ERC721/ERC721.sol\":5335:5342  tokenId */\n      dup3\n        /* \"contracts/token/ERC721/ERC721.sol\":5302:5320  _isApprovedOrOwner */\n      tag_128\n        /* \"contracts/token/ERC721/ERC721.sol\":5302:5343  _isApprovedOrOwner(_msgSender(), tokenId) */\n      jump\t// in\n    tag_126:\n        /* \"contracts/token/ERC721/ERC721.sol\":5294:5393  require(_isApprovedOrOwner(_msgSender(), tokenId), \"ERC721: caller is not token owner or approved\") */\n      tag_129\n      jumpi\n      mload(0x40)\n      0x08c379a000000000000000000000000000000000000000000000000000000000\n      dup2\n      mstore\n      0x04\n      add\n      tag_130\n      swap1\n      tag_131\n      jump\t// in\n    tag_130:\n      mload(0x40)\n      dup1\n      swap2\n      sub\n      swap1\n      revert\n    tag_129:\n        /* \"contracts/token/ERC721/ERC721.sol\":5413:5423  _tokenLock */\n      0x06\n        /* \"contracts/token/ERC721/ERC721.sol\":5413:5432  _tokenLock[tokenId] */\n      0x00\n        /* \"contracts/token/ERC721/ERC721.sol\":5424:5431  tokenId */\n      dup3\n        /* \"contracts/token/ERC721/ERC721.sol\":5413:5432  _tokenLock[tokenId] */\n      dup2\n      mstore\n      0x20\n      add\n      swap1\n      dup2\n      mstore\n      0x20\n      add\n      0x00\n      keccak256\n      0x00\n      swap1\n      sload\n      swap1\n      0x0100\n      exp\n      swap1\n      div\n      0xff\n      and\n        /* \"contracts/token/ERC721/ERC721.sol\":5412:5432  !_tokenLock[tokenId] */\n      iszero\n        /* \"contracts/token/ERC721/ERC721.sol\":5404:5456  require(!_tokenLock[tokenId],\"ERC721: token locked\") */\n      tag_132\n      jumpi\n      mload(0x40)\n      0x08c379a000000000000000000000000000000000000000000000000000000000\n      dup2\n      mstore\n      0x04\n      add\n      tag_133\n      swap1\n      tag_122\n      jump\t// in\n    tag_133:\n      mload(0x40)\n      dup1\n      swap2\n      sub\n      swap1\n      revert\n    tag_132:\n        /* \"contracts/token/ERC721/ERC721.sol\":5469:5497  _transfer(from, to, tokenId) */\n      tag_134\n        /* \"contracts/token/ERC721/ERC721.sol\":5479:5483  from */\n      dup4\n        /* \"contracts/token/ERC721/ERC721.sol\":5485:5487  to */\n      dup4\n        /* \"contracts/token/ERC721/ERC721.sol\":5489:5496  tokenId */\n      dup4\n        /* \"contracts/token/ERC721/ERC721.sol\":5469:5478  _transfer */\n      tag_135\n        /* \"contracts/token/ERC721/ERC721.sol\":5469:5497  _transfer(from, to, tokenId) */\n      jump\t// in\n    tag_134:\n        /* \"contracts/token/ERC721/ERC721.sol\":5141:5505  function transferFrom(address from, address to, uint256 tokenId) public virtual override {... */\n      pop\n      pop\n      pop\n      jump\t// out\n        /* \"contracts/token/ERC721/ERC721.sol\":6204:6650  function lock(uint256 tokenId,bool locked) public virtual override {... */\n    tag_55:\n        /* \"contracts/token/ERC721/ERC721.sol\":6282:6295  address owner */\n      0x00\n        /* \"contracts/token/ERC721/ERC721.sol\":6298:6321  ERC721.ownerOf(tokenId) */\n      tag_137\n        /* \"contracts/token/ERC721/ERC721.sol\":6313:6320  tokenId */\n      dup4\n        /* \"contracts/token/ERC721/ERC721.sol\":6298:6312  ERC721.ownerOf */\n      tag_65\n        /* \"contracts/token/ERC721/ERC721.sol\":6298:6321  ERC721.ownerOf(tokenId) */\n      jump\t// in\n    tag_137:\n        /* \"contracts/token/ERC721/ERC721.sol\":6282:6321  address owner = ERC721.ownerOf(tokenId) */\n      swap1\n      pop\n        /* \"contracts/token/ERC721/ERC721.sol\":6358:6363  owner */\n      dup1\n        /* \"contracts/token/ERC721/ERC721.sol\":6342:6363  _msgSender() == owner */\n      0xffffffffffffffffffffffffffffffffffffffff\n      and\n        /* \"contracts/token/ERC721/ERC721.sol\":6342:6354  _msgSender() */\n      tag_138\n        /* \"contracts/token/ERC721/ERC721.sol\":6342:6352  _msgSender */\n      tag_113\n        /* \"contracts/token/ERC721/ERC721.sol\":6342:6354  _msgSender() */\n      jump\t// in\n    tag_138:\n        /* \"contracts/token/ERC721/ERC721.sol\":6342:6363  _msgSender() == owner */\n      0xffffffffffffffffffffffffffffffffffffffff\n      and\n      eq\n        /* \"contracts/token/ERC721/ERC721.sol\":6334:6449  require(_msgSender() == owner,... */\n      tag_139\n      jumpi\n      mload(0x40)\n      0x08c379a000000000000000000000000000000000000000000000000000000000\n      dup2\n      mstore\n      0x04\n      add\n      tag_140\n      swap1\n      tag_141\n      jump\t// in\n    tag_140:\n      mload(0x40)\n      dup1\n      swap2\n      sub\n      swap1\n      revert\n    tag_139:\n        /* \"contracts/token/ERC721/ERC721.sol\":6505:6506  0 */\n      0x00\n        /* \"contracts/token/ERC721/ERC721.sol\":6470:6507  _tokenApprovals[tokenId] ==address(0) */\n      0xffffffffffffffffffffffffffffffffffffffff\n      and\n        /* \"contracts/token/ERC721/ERC721.sol\":6470:6485  _tokenApprovals */\n      0x04\n        /* \"contracts/token/ERC721/ERC721.sol\":6470:6494  _tokenApprovals[tokenId] */\n      0x00\n        /* \"contracts/token/ERC721/ERC721.sol\":6486:6493  tokenId */\n      dup6\n        /* \"contracts/token/ERC721/ERC721.sol\":6470:6494  _tokenApprovals[tokenId] */\n      dup2\n      mstore\n      0x20\n      add\n      swap1\n      dup2\n      mstore\n      0x20\n      add\n      0x00\n      keccak256\n      0x00\n      swap1\n      sload\n      swap1\n      0x0100\n      exp\n      swap1\n      div\n      0xffffffffffffffffffffffffffffffffffffffff\n      and\n        /* \"contracts/token/ERC721/ERC721.sol\":6470:6507  _tokenApprovals[tokenId] ==address(0) */\n      0xffffffffffffffffffffffffffffffffffffffff\n      and\n      eq\n        /* \"contracts/token/ERC721/ERC721.sol\":6462:6534  require(_tokenApprovals[tokenId] ==address(0), \"ERC721: token approved\") */\n      tag_142\n      jumpi\n      mload(0x40)\n      0x08c379a000000000000000000000000000000000000000000000000000000000\n      dup2\n      mstore\n      0x04\n      add\n      tag_143\n      swap1\n      tag_144\n      jump\t// in\n    tag_143:\n      mload(0x40)\n      dup1\n      swap2\n      sub\n      swap1\n      revert\n    tag_142:\n        /* \"contracts/token/ERC721/ERC721.sol\":6554:6574  _isOperatorApprovals */\n      0x07\n        /* \"contracts/token/ERC721/ERC721.sol\":6554:6581  _isOperatorApprovals[owner] */\n      0x00\n        /* \"contracts/token/ERC721/ERC721.sol\":6575:6580  owner */\n      dup3\n        /* \"contracts/token/ERC721/ERC721.sol\":6554:6581  _isOperatorApprovals[owner] */\n      0xffffffffffffffffffffffffffffffffffffffff\n      and\n      0xffffffffffffffffffffffffffffffffffffffff\n      and\n      dup2\n      mstore\n      0x20\n      add\n      swap1\n      dup2\n      mstore\n      0x20\n      add\n      0x00\n      keccak256\n      0x00\n      swap1\n      sload\n      swap1\n      0x0100\n      exp\n      swap1\n      div\n      0xff\n      and\n        /* \"contracts/token/ERC721/ERC721.sol\":6553:6581  !_isOperatorApprovals[owner] */\n      iszero\n        /* \"contracts/token/ERC721/ERC721.sol\":6545:6607  require(!_isOperatorApprovals[owner],\"ERC721: token approved\") */\n      tag_145\n      jumpi\n      mload(0x40)\n      0x08c379a000000000000000000000000000000000000000000000000000000000\n      dup2\n      mstore\n      0x04\n      add\n      tag_146\n      swap1\n      tag_144\n      jump\t// in\n    tag_146:\n      mload(0x40)\n      dup1\n      swap2\n      sub\n      swap1\n      revert\n    tag_145:\n        /* \"contracts/token/ERC721/ERC721.sol\":6620:6642  _lock(tokenId, locked) */\n      tag_147\n        /* \"contracts/token/ERC721/ERC721.sol\":6626:6633  tokenId */\n      dup4\n        /* \"contracts/token/ERC721/ERC721.sol\":6635:6641  locked */\n      dup4\n        /* \"contracts/token/ERC721/ERC721.sol\":6620:6625  _lock */\n      tag_148\n        /* \"contracts/token/ERC721/ERC721.sol\":6620:6642  _lock(tokenId, locked) */\n      jump\t// in\n    tag_147:\n        /* \"contracts/token/ERC721/ERC721.sol\":6271:6650  {... */\n      pop\n        /* \"contracts/token/ERC721/ERC721.sol\":6204:6650  function lock(uint256 tokenId,bool locked) public virtual override {... */\n      pop\n      pop\n      jump\t// out\n        /* \"contracts/token/ERC721/ERC721.sol\":6722:6847  function getLocked(uint256 tokenId) public view virtual override returns (bool) {... */\n    tag_58:\n        /* \"contracts/token/ERC721/ERC721.sol\":6796:6800  bool */\n      0x00\n        /* \"contracts/token/ERC721/ERC721.sol\":6820:6830  _tokenLock */\n      0x06\n        /* \"contracts/token/ERC721/ERC721.sol\":6820:6839  _tokenLock[tokenId] */\n      0x00\n        /* \"contracts/token/ERC721/ERC721.sol\":6831:6838  tokenId */\n      dup4\n        /* \"contracts/token/ERC721/ERC721.sol\":6820:6839  _tokenLock[tokenId] */\n      dup2\n      mstore\n      0x20\n      add\n      swap1\n      dup2\n      mstore\n      0x20\n      add\n      0x00\n      keccak256\n      0x00\n      swap1\n      sload\n      swap1\n      0x0100\n      exp\n      swap1\n      div\n      0xff\n      and\n        /* \"contracts/token/ERC721/ERC721.sol\":6813:6839  return _tokenLock[tokenId] */\n      swap1\n      pop\n        /* \"contracts/token/ERC721/ERC721.sol\":6722:6847  function getLocked(uint256 tokenId) public view virtual override returns (bool) {... */\n      swap2\n      swap1\n      pop\n      jump\t// out\n        /* \"contracts/token/ERC721/ERC721.sol\":5576:5727  function safeTransferFrom(address from, address to, uint256 tokenId) public virtual override {... */\n    tag_62:\n        /* \"contracts/token/ERC721/ERC721.sol\":5680:5719  safeTransferFrom(from, to, tokenId, \"\") */\n      tag_151\n        /* \"contracts/token/ERC721/ERC721.sol\":5697:5701  from */\n      dup4\n        /* \"contracts/token/ERC721/ERC721.sol\":5703:5705  to */\n      dup4\n        /* \"contracts/token/ERC721/ERC721.sol\":5707:5714  tokenId */\n      dup4\n        /* \"contracts/token/ERC721/ERC721.sol\":5680:5719  safeTransferFrom(from, to, tokenId, \"\") */\n      mload(0x40)\n      dup1\n      0x20\n      add\n      0x40\n      mstore\n      dup1\n      0x00\n      dup2\n      mstore\n      pop\n        /* \"contracts/token/ERC721/ERC721.sol\":5680:5696  safeTransferFrom */\n      tag_81\n        /* \"contracts/token/ERC721/ERC721.sol\":5680:5719  safeTransferFrom(from, to, tokenId, \"\") */\n      jump\t// in\n    tag_151:\n        /* \"contracts/token/ERC721/ERC721.sol\":5576:5727  function safeTransferFrom(address from, address to, uint256 tokenId) public virtual override {... */\n      pop\n      pop\n      pop\n      jump\t// out\n        /* \"contracts/token/ERC721/ERC721.sol\":2574:2797  function ownerOf(uint256 tokenId) public view virtual override returns (address) {... */\n    tag_65:\n        /* \"contracts/token/ERC721/ERC721.sol\":2646:2653  address */\n      0x00\n        /* \"contracts/token/ERC721/ERC721.sol\":2666:2679  address owner */\n      dup1\n        /* \"contracts/token/ERC721/ERC721.sol\":2682:2699  _ownerOf(tokenId) */\n      tag_153\n        /* \"contracts/token/ERC721/ERC721.sol\":2691:2698  tokenId */\n      dup4\n        /* \"contracts/token/ERC721/ERC721.sol\":2682:2690  _ownerOf */\n      tag_154\n        /* \"contracts/token/ERC721/ERC721.sol\":2682:2699  _ownerOf(tokenId) */\n      jump\t// in\n    tag_153:\n        /* \"contracts/token/ERC721/ERC721.sol\":2666:2699  address owner = _ownerOf(tokenId) */\n      swap1\n      pop\n        /* \"contracts/token/ERC721/ERC721.sol\":2735:2736  0 */\n      0x00\n        /* \"contracts/token/ERC721/ERC721.sol\":2718:2737  owner != address(0) */\n      0xffffffffffffffffffffffffffffffffffffffff\n      and\n        /* \"contracts/token/ERC721/ERC721.sol\":2718:2723  owner */\n      dup2\n        /* \"contracts/token/ERC721/ERC721.sol\":2718:2737  owner != address(0) */\n      0xffffffffffffffffffffffffffffffffffffffff\n      and\n      sub\n        /* \"contracts/token/ERC721/ERC721.sol\":2710:2766  require(owner != address(0), \"ERC721: invalid token ID\") */\n      tag_155\n      jumpi\n      mload(0x40)\n      0x08c379a000000000000000000000000000000000000000000000000000000000\n      dup2\n      mstore\n      0x04\n      add\n      tag_156\n      swap1\n      tag_157\n      jump\t// in\n    tag_156:\n      mload(0x40)\n      dup1\n      swap2\n      sub\n      swap1\n      revert\n    tag_155:\n        /* \"contracts/token/ERC721/ERC721.sol\":2784:2789  owner */\n      dup1\n        /* \"contracts/token/ERC721/ERC721.sol\":2777:2789  return owner */\n      swap2\n      pop\n      pop\n        /* \"contracts/token/ERC721/ERC721.sol\":2574:2797  function ownerOf(uint256 tokenId) public view virtual override returns (address) {... */\n      swap2\n      swap1\n      pop\n      jump\t// out\n        /* \"contracts/token/ERC721/ERC721.sol\":2305:2512  function balanceOf(address owner) public view virtual override returns (uint256) {... */\n    tag_69:\n        /* \"contracts/token/ERC721/ERC721.sol\":2377:2384  uint256 */\n      0x00\n        /* \"contracts/token/ERC721/ERC721.sol\":2422:2423  0 */\n      dup1\n        /* \"contracts/token/ERC721/ERC721.sol\":2405:2424  owner != address(0) */\n      0xffffffffffffffffffffffffffffffffffffffff\n      and\n        /* \"contracts/token/ERC721/ERC721.sol\":2405:2410  owner */\n      dup3\n        /* \"contracts/token/ERC721/ERC721.sol\":2405:2424  owner != address(0) */\n      0xffffffffffffffffffffffffffffffffffffffff\n      and\n      sub\n        /* \"contracts/token/ERC721/ERC721.sol\":2397:2470  require(owner != address(0), \"ERC721: address zero is not a valid owner\") */\n      tag_159\n      jumpi\n      mload(0x40)\n      0x08c379a000000000000000000000000000000000000000000000000000000000\n      dup2\n      mstore\n      0x04\n      add\n      tag_160\n      swap1\n      tag_161\n      jump\t// in\n    tag_160:\n      mload(0x40)\n      dup1\n      swap2\n      sub\n      swap1\n      revert\n    tag_159:\n        /* \"contracts/token/ERC721/ERC721.sol\":2488:2497  _balances */\n      0x03\n        /* \"contracts/token/ERC721/ERC721.sol\":2488:2504  _balances[owner] */\n      0x00\n        /* \"contracts/token/ERC721/ERC721.sol\":2498:2503  owner */\n      dup4\n        /* \"contracts/token/ERC721/ERC721.sol\":2488:2504  _balances[owner] */\n      0xffffffffffffffffffffffffffffffffffffffff\n      and\n      0xffffffffffffffffffffffffffffffffffffffff\n      and\n      dup2\n      mstore\n      0x20\n      add\n      swap1\n      dup2\n      mstore\n      0x20\n      add\n      0x00\n      keccak256\n      sload\n        /* \"contracts/token/ERC721/ERC721.sol\":2481:2504  return _balances[owner] */\n      swap1\n      pop\n        /* \"contracts/token/ERC721/ERC721.sol\":2305:2512  function balanceOf(address owner) public view virtual override returns (uint256) {... */\n      swap2\n      swap1\n      pop\n      jump\t// out\n        /* \"contracts/token/ERC721/ERC721.sol\":3033:3137  function symbol() public view virtual override returns (string memory) {... */\n    tag_72:\n        /* \"contracts/token/ERC721/ERC721.sol\":3089:3102  string memory */\n      0x60\n        /* \"contracts/token/ERC721/ERC721.sol\":3122:3129  _symbol */\n      0x01\n        /* \"contracts/token/ERC721/ERC721.sol\":3115:3129  return _symbol */\n      dup1\n      sload\n      tag_163\n      swap1\n      tag_98\n      jump\t// in\n    tag_163:\n      dup1\n      0x1f\n      add\n      0x20\n      dup1\n      swap2\n      div\n      mul\n      0x20\n      add\n      mload(0x40)\n      swap1\n      dup2\n      add\n      0x40\n      mstore\n      dup1\n      swap3\n      swap2\n      swap1\n      dup2\n      dup2\n      mstore\n      0x20\n      add\n      dup3\n      dup1\n      sload\n      tag_164\n      swap1\n      tag_98\n      jump\t// in\n    tag_164:\n      dup1\n      iszero\n      tag_165\n      jumpi\n      dup1\n      0x1f\n      lt\n      tag_166\n      jumpi\n      0x0100\n      dup1\n      dup4\n      sload\n      div\n      mul\n      dup4\n      mstore\n      swap2\n      0x20\n      add\n      swap2\n      jump(tag_165)\n    tag_166:\n      dup3\n      add\n      swap2\n      swap1\n      0x00\n      mstore\n      keccak256(0x00, 0x20)\n      swap1\n    tag_167:\n      dup2\n      sload\n      dup2\n      mstore\n      swap1\n      0x01\n      add\n      swap1\n      0x20\n      add\n      dup1\n      dup4\n      gt\n      tag_167\n      jumpi\n      dup3\n      swap1\n      sub\n      0x1f\n      and\n      dup3\n      add\n      swap2\n    tag_165:\n      pop\n      pop\n      pop\n      pop\n      pop\n      swap1\n      pop\n        /* \"contracts/token/ERC721/ERC721.sol\":3033:3137  function symbol() public view virtual override returns (string memory) {... */\n      swap1\n      jump\t// out\n        /* \"contracts/token/ERC721/ERC721.sol\":4684:4839  function setApprovalForAll(address operator, bool approved) public virtual override {... */\n    tag_77:\n        /* \"contracts/token/ERC721/ERC721.sol\":4779:4831  _setApprovalForAll(_msgSender(), operator, approved) */\n      tag_169\n        /* \"contracts/token/ERC721/ERC721.sol\":4798:4810  _msgSender() */\n      tag_170\n        /* \"contracts/token/ERC721/ERC721.sol\":4798:4808  _msgSender */\n      tag_113\n        /* \"contracts/token/ERC721/ERC721.sol\":4798:4810  _msgSender() */\n      jump\t// in\n    tag_170:\n        /* \"contracts/token/ERC721/ERC721.sol\":4812:4820  operator */\n      dup4\n        /* \"contracts/token/ERC721/ERC721.sol\":4822:4830  approved */\n      dup4\n        /* \"contracts/token/ERC721/ERC721.sol\":4779:4797  _setApprovalForAll */\n      tag_171\n        /* \"contracts/token/ERC721/ERC721.sol\":4779:4831  _setApprovalForAll(_msgSender(), operator, approved) */\n      jump\t// in\n    tag_169:\n        /* \"contracts/token/ERC721/ERC721.sol\":4684:4839  function setApprovalForAll(address operator, bool approved) public virtual override {... */\n      pop\n      pop\n      jump\t// out\n        /* \"contracts/token/ERC721/ERC721.sol\":5798:6142  function safeTransferFrom(address from, address to, uint256 tokenId, bytes memory data) public virtual override {... */\n    tag_81:\n        /* \"contracts/token/ERC721/ERC721.sol\":5929:5970  _isApprovedOrOwner(_msgSender(), tokenId) */\n      tag_173\n        /* \"contracts/token/ERC721/ERC721.sol\":5948:5960  _msgSender() */\n      tag_174\n        /* \"contracts/token/ERC721/ERC721.sol\":5948:5958  _msgSender */\n      tag_113\n        /* \"contracts/token/ERC721/ERC721.sol\":5948:5960  _msgSender() */\n      jump\t// in\n    tag_174:\n        /* \"contracts/token/ERC721/ERC721.sol\":5962:5969  tokenId */\n      dup4\n        /* \"contracts/token/ERC721/ERC721.sol\":5929:5947  _isApprovedOrOwner */\n      tag_128\n        /* \"contracts/token/ERC721/ERC721.sol\":5929:5970  _isApprovedOrOwner(_msgSender(), tokenId) */\n      jump\t// in\n    tag_173:\n        /* \"contracts/token/ERC721/ERC721.sol\":5921:6020  require(_isApprovedOrOwner(_msgSender(), tokenId), \"ERC721: caller is not token owner or approved\") */\n      tag_175\n      jumpi\n      mload(0x40)\n      0x08c379a000000000000000000000000000000000000000000000000000000000\n      dup2\n      mstore\n      0x04\n      add\n      tag_176\n      swap1\n      tag_131\n      jump\t// in\n    tag_176:\n      mload(0x40)\n      dup1\n      swap2\n      sub\n      swap1\n      revert\n    tag_175:\n        /* \"contracts/token/ERC721/ERC721.sol\":6040:6050  _tokenLock */\n      0x06\n        /* \"contracts/token/ERC721/ERC721.sol\":6040:6059  _tokenLock[tokenId] */\n      0x00\n        /* \"contracts/token/ERC721/ERC721.sol\":6051:6058  tokenId */\n      dup4\n        /* \"contracts/token/ERC721/ERC721.sol\":6040:6059  _tokenLock[tokenId] */\n      dup2\n      mstore\n      0x20\n      add\n      swap1\n      dup2\n      mstore\n      0x20\n      add\n      0x00\n      keccak256\n      0x00\n      swap1\n      sload\n      swap1\n      0x0100\n      exp\n      swap1\n      div\n      0xff\n      and\n        /* \"contracts/token/ERC721/ERC721.sol\":6039:6059  !_tokenLock[tokenId] */\n      iszero\n        /* \"contracts/token/ERC721/ERC721.sol\":6031:6083  require(!_tokenLock[tokenId],\"ERC721: token locked\") */\n      tag_177\n      jumpi\n      mload(0x40)\n      0x08c379a000000000000000000000000000000000000000000000000000000000\n      dup2\n      mstore\n      0x04\n      add\n      tag_178\n      swap1\n      tag_122\n      jump\t// in\n    tag_178:\n      mload(0x40)\n      dup1\n      swap2\n      sub\n      swap1\n      revert\n    tag_177:\n        /* \"contracts/token/ERC721/ERC721.sol\":6096:6134  _safeTransfer(from, to, tokenId, data) */\n      tag_179\n        /* \"contracts/token/ERC721/ERC721.sol\":6110:6114  from */\n      dup5\n        /* \"contracts/token/ERC721/ERC721.sol\":6116:6118  to */\n      dup5\n        /* \"contracts/token/ERC721/ERC721.sol\":6120:6127  tokenId */\n      dup5\n        /* \"contracts/token/ERC721/ERC721.sol\":6129:6133  data */\n      dup5\n        /* \"contracts/token/ERC721/ERC721.sol\":6096:6109  _safeTransfer */\n      tag_180\n        /* \"contracts/token/ERC721/ERC721.sol\":6096:6134  _safeTransfer(from, to, tokenId, data) */\n      jump\t// in\n    tag_179:\n        /* \"contracts/token/ERC721/ERC721.sol\":5798:6142  function safeTransferFrom(address from, address to, uint256 tokenId, bytes memory data) public virtual override {... */\n      pop\n      pop\n      pop\n      pop\n      jump\t// out\n        /* \"contracts/token/ERC721/ERC721.sol\":3208:3489  function tokenURI(uint256 tokenId) public view virtual override returns (string memory) {... */\n    tag_84:\n        /* \"contracts/token/ERC721/ERC721.sol\":3281:3294  string memory */\n      0x60\n        /* \"contracts/token/ERC721/ERC721.sol\":3307:3330  _requireMinted(tokenId) */\n      tag_182\n        /* \"contracts/token/ERC721/ERC721.sol\":3322:3329  tokenId */\n      dup3\n        /* \"contracts/token/ERC721/ERC721.sol\":3307:3321  _requireMinted */\n      tag_106\n        /* \"contracts/token/ERC721/ERC721.sol\":3307:3330  _requireMinted(tokenId) */\n      jump\t// in\n    tag_182:\n        /* \"contracts/token/ERC721/ERC721.sol\":3343:3364  string memory baseURI */\n      0x00\n        /* \"contracts/token/ERC721/ERC721.sol\":3367:3377  _baseURI() */\n      tag_183\n        /* \"contracts/token/ERC721/ERC721.sol\":3367:3375  _baseURI */\n      tag_184\n        /* \"contracts/token/ERC721/ERC721.sol\":3367:3377  _baseURI() */\n      jump\t// in\n    tag_183:\n        /* \"contracts/token/ERC721/ERC721.sol\":3343:3377  string memory baseURI = _baseURI() */\n      swap1\n      pop\n        /* \"contracts/token/ERC721/ERC721.sol\":3419:3420  0 */\n      0x00\n        /* \"contracts/token/ERC721/ERC721.sol\":3401:3408  baseURI */\n      dup2\n        /* \"contracts/token/ERC721/ERC721.sol\":3395:3416  bytes(baseURI).length */\n      mload\n        /* \"contracts/token/ERC721/ERC721.sol\":3395:3420  bytes(baseURI).length > 0 */\n      gt\n        /* \"contracts/token/ERC721/ERC721.sol\":3395:3481  bytes(baseURI).length > 0 ? string(abi.encodePacked(baseURI, tokenId.toString())) : \"\" */\n      tag_185\n      jumpi\n      mload(0x40)\n      dup1\n      0x20\n      add\n      0x40\n      mstore\n      dup1\n      0x00\n      dup2\n      mstore\n      pop\n      jump(tag_186)\n    tag_185:\n        /* \"contracts/token/ERC721/ERC721.sol\":3447:3454  baseURI */\n      dup1\n        /* \"contracts/token/ERC721/ERC721.sol\":3456:3474  tokenId.toString() */\n      tag_187\n        /* \"contracts/token/ERC721/ERC721.sol\":3456:3463  tokenId */\n      dup5\n        /* \"contracts/token/ERC721/ERC721.sol\":3456:3472  tokenId.toString */\n      tag_188\n        /* \"contracts/token/ERC721/ERC721.sol\":3456:3474  tokenId.toString() */\n      jump\t// in\n    tag_187:\n        /* \"contracts/token/ERC721/ERC721.sol\":3430:3475  abi.encodePacked(baseURI, tokenId.toString()) */\n      add(0x20, mload(0x40))\n      tag_189\n      swap3\n      swap2\n      swap1\n      tag_190\n      jump\t// in\n    tag_189:\n      mload(0x40)\n      0x20\n      dup2\n      dup4\n      sub\n      sub\n      dup2\n      mstore\n      swap1\n      0x40\n      mstore\n        /* \"contracts/token/ERC721/ERC721.sol\":3395:3481  bytes(baseURI).length > 0 ? string(abi.encodePacked(baseURI, tokenId.toString())) : \"\" */\n    tag_186:\n        /* \"contracts/token/ERC721/ERC721.sol\":3388:3481  return bytes(baseURI).length > 0 ? string(abi.encodePacked(baseURI, tokenId.toString())) : \"\" */\n      swap2\n      pop\n      pop\n        /* \"contracts/token/ERC721/ERC721.sol\":3208:3489  function tokenURI(uint256 tokenId) public view virtual override returns (string memory) {... */\n      swap2\n      swap1\n      pop\n      jump\t// out\n        /* \"contracts/token/ERC721/ERC721.sol\":4910:5074  function isApprovedForAll(address owner, address operator) public view virtual override returns (bool) {... */\n    tag_89:\n        /* \"contracts/token/ERC721/ERC721.sol\":5007:5011  bool */\n      0x00\n        /* \"contracts/token/ERC721/ERC721.sol\":5031:5049  _operatorApprovals */\n      0x05\n        /* \"contracts/token/ERC721/ERC721.sol\":5031:5056  _operatorApprovals[owner] */\n      0x00\n        /* \"contracts/token/ERC721/ERC721.sol\":5050:5055  owner */\n      dup5\n        /* \"contracts/token/ERC721/ERC721.sol\":5031:5056  _operatorApprovals[owner] */\n      0xffffffffffffffffffffffffffffffffffffffff\n      and\n      0xffffffffffffffffffffffffffffffffffffffff\n      and\n      dup2\n      mstore\n      0x20\n      add\n      swap1\n      dup2\n      mstore\n      0x20\n      add\n      0x00\n      keccak256\n        /* \"contracts/token/ERC721/ERC721.sol\":5031:5066  _operatorApprovals[owner][operator] */\n      0x00\n        /* \"contracts/token/ERC721/ERC721.sol\":5057:5065  operator */\n      dup4\n        /* \"contracts/token/ERC721/ERC721.sol\":5031:5066  _operatorApprovals[owner][operator] */\n      0xffffffffffffffffffffffffffffffffffffffff\n      and\n      0xffffffffffffffffffffffffffffffffffffffff\n      and\n      dup2\n      mstore\n      0x20\n      add\n      swap1\n      dup2\n      mstore\n      0x20\n      add\n      0x00\n      keccak256\n      0x00\n      swap1\n      sload\n      swap1\n      0x0100\n      exp\n      swap1\n      div\n      0xff\n      and\n        /* \"contracts/token/ERC721/ERC721.sol\":5024:5066  return _operatorApprovals[owner][operator] */\n      swap1\n      pop\n        /* \"contracts/token/ERC721/ERC721.sol\":4910:5074  function isApprovedForAll(address owner, address operator) public view virtual override returns (bool) {... */\n      swap3\n      swap2\n      pop\n      pop\n      jump\t// out\n        /* \"contracts/utils/introspection/ERC165.sol\":854:1011  function supportsInterface(bytes4 interfaceId) public view virtual override returns (bool) {... */\n    tag_95:\n        /* \"contracts/utils/introspection/ERC165.sol\":939:943  bool */\n      0x00\n        /* \"contracts/utils/introspection/ERC165.sol\":978:1003  type(IERC165).interfaceId */\n      0x01ffc9a700000000000000000000000000000000000000000000000000000000\n        /* \"contracts/utils/introspection/ERC165.sol\":963:1003  interfaceId == type(IERC165).interfaceId */\n      not(0xffffffffffffffffffffffffffffffffffffffffffffffffffffffff)\n      and\n        /* \"contracts/utils/introspection/ERC165.sol\":963:974  interfaceId */\n      dup3\n        /* \"contracts/utils/introspection/ERC165.sol\":963:1003  interfaceId == type(IERC165).interfaceId */\n      not(0xffffffffffffffffffffffffffffffffffffffffffffffffffffffff)\n      and\n      eq\n        /* \"contracts/utils/introspection/ERC165.sol\":956:1003  return interfaceId == type(IERC165).interfaceId */\n      swap1\n      pop\n        /* \"contracts/utils/introspection/ERC165.sol\":854:1011  function supportsInterface(bytes4 interfaceId) public view virtual override returns (bool) {... */\n      swap2\n      swap1\n      pop\n      jump\t// out\n        /* \"contracts/token/ERC721/ERC721.sol\":15237:15372  function _requireMinted(uint256 tokenId) internal view virtual {... */\n    tag_106:\n        /* \"contracts/token/ERC721/ERC721.sol\":15319:15335  _exists(tokenId) */\n      tag_194\n        /* \"contracts/token/ERC721/ERC721.sol\":15327:15334  tokenId */\n      dup2\n        /* \"contracts/token/ERC721/ERC721.sol\":15319:15326  _exists */\n      tag_195\n        /* \"contracts/token/ERC721/ERC721.sol\":15319:15335  _exists(tokenId) */\n      jump\t// in\n    tag_194:\n        /* \"contracts/token/ERC721/ERC721.sol\":15311:15364  require(_exists(tokenId), \"ERC721: invalid token ID\") */\n      tag_196\n      jumpi\n      mload(0x40)\n      0x08c379a000000000000000000000000000000000000000000000000000000000\n      dup2\n      mstore\n      0x04\n      add\n      tag_197\n      swap1\n      tag_157\n      jump\t// in\n    tag_197:\n      mload(0x40)\n      dup1\n      swap2\n      sub\n      swap1\n      revert\n    tag_196:\n        /* \"contracts/token/ERC721/ERC721.sol\":15237:15372  function _requireMinted(uint256 tokenId) internal view virtual {... */\n      pop\n      jump\t// out\n        /* \"contracts/utils/Context.sol\":656:754  function _msgSender() internal view virtual returns (address) {... */\n    tag_113:\n        /* \"contracts/utils/Context.sol\":709:716  address */\n      0x00\n        /* \"contracts/utils/Context.sol\":736:746  msg.sender */\n      caller\n        /* \"contracts/utils/Context.sol\":729:746  return msg.sender */\n      swap1\n      pop\n        /* \"contracts/utils/Context.sol\":656:754  function _msgSender() internal view virtual returns (address) {... */\n      swap1\n      jump\t// out\n        /* \"contracts/token/ERC721/ERC721.sol\":14427:14601  function _approve(address to, uint256 tokenId) internal virtual {... */\n    tag_124:\n        /* \"contracts/token/ERC721/ERC721.sol\":14529:14531  to */\n      dup2\n        /* \"contracts/token/ERC721/ERC721.sol\":14502:14517  _tokenApprovals */\n      0x04\n        /* \"contracts/token/ERC721/ERC721.sol\":14502:14526  _tokenApprovals[tokenId] */\n      0x00\n        /* \"contracts/token/ERC721/ERC721.sol\":14518:14525  tokenId */\n      dup4\n        /* \"contracts/token/ERC721/ERC721.sol\":14502:14526  _tokenApprovals[tokenId] */\n      dup2\n      mstore\n      0x20\n      add\n      swap1\n      dup2\n      mstore\n      0x20\n      add\n      0x00\n      keccak256\n      0x00\n        /* \"contracts/token/ERC721/ERC721.sol\":14502:14531  _tokenApprovals[tokenId] = to */\n      0x0100\n      exp\n      dup2\n      sload\n      dup2\n      0xffffffffffffffffffffffffffffffffffffffff\n      mul\n      not\n      and\n      swap1\n      dup4\n      0xffffffffffffffffffffffffffffffffffffffff\n      and\n      mul\n      or\n      swap1\n      sstore\n      pop\n        /* \"contracts/token/ERC721/ERC721.sol\":14585:14592  tokenId */\n      dup1\n        /* \"contracts/token/ERC721/ERC721.sol\":14581:14583  to */\n      dup3\n        /* \"contracts/token/ERC721/ERC721.sol\":14547:14593  Approval(ERC721.ownerOf(tokenId), to, tokenId) */\n      0xffffffffffffffffffffffffffffffffffffffff\n      and\n        /* \"contracts/token/ERC721/ERC721.sol\":14556:14579  ERC721.ownerOf(tokenId) */\n      tag_200\n        /* \"contracts/token/ERC721/ERC721.sol\":14571:14578  tokenId */\n      dup4\n        /* \"contracts/token/ERC721/ERC721.sol\":14556:14570  ERC721.ownerOf */\n      tag_65\n        /* \"contracts/token/ERC721/ERC721.sol\":14556:14579  ERC721.ownerOf(tokenId) */\n      jump\t// in\n    tag_200:\n        /* \"contracts/token/ERC721/ERC721.sol\":14547:14593  Approval(ERC721.ownerOf(tokenId), to, tokenId) */\n      0xffffffffffffffffffffffffffffffffffffffff\n      and\n      0x8c5be1e5ebec7d5bd14f71427d1e84f3dd0314c0f7b2291e5b200ac8c7c3b925\n      mload(0x40)\n      mload(0x40)\n      dup1\n      swap2\n      sub\n      swap1\n      log4\n        /* \"contracts/token/ERC721/ERC721.sol\":14427:14601  function _approve(address to, uint256 tokenId) internal virtual {... */\n      pop\n      pop\n      jump\t// out\n        /* \"contracts/token/ERC721/ERC721.sol\":9049:9313  function _isApprovedOrOwner(address spender, uint256 tokenId) internal view virtual returns (bool) {... */\n    tag_128:\n        /* \"contracts/token/ERC721/ERC721.sol\":9142:9146  bool */\n      0x00\n        /* \"contracts/token/ERC721/ERC721.sol\":9159:9172  address owner */\n      dup1\n        /* \"contracts/token/ERC721/ERC721.sol\":9175:9198  ERC721.ownerOf(tokenId) */\n      tag_202\n        /* \"contracts/token/ERC721/ERC721.sol\":9190:9197  tokenId */\n      dup4\n        /* \"contracts/token/ERC721/ERC721.sol\":9175:9189  ERC721.ownerOf */\n      tag_65\n        /* \"contracts/token/ERC721/ERC721.sol\":9175:9198  ERC721.ownerOf(tokenId) */\n      jump\t// in\n    tag_202:\n        /* \"contracts/token/ERC721/ERC721.sol\":9159:9198  address owner = ERC721.ownerOf(tokenId) */\n      swap1\n      pop\n        /* \"contracts/token/ERC721/ERC721.sol\":9228:9233  owner */\n      dup1\n        /* \"contracts/token/ERC721/ERC721.sol\":9217:9233  spender == owner */\n      0xffffffffffffffffffffffffffffffffffffffff\n      and\n        /* \"contracts/token/ERC721/ERC721.sol\":9217:9224  spender */\n      dup5\n        /* \"contracts/token/ERC721/ERC721.sol\":9217:9233  spender == owner */\n      0xffffffffffffffffffffffffffffffffffffffff\n      and\n      eq\n        /* \"contracts/token/ERC721/ERC721.sol\":9217:9269  spender == owner || isApprovedForAll(owner, spender) */\n      dup1\n      tag_203\n      jumpi\n      pop\n        /* \"contracts/token/ERC721/ERC721.sol\":9237:9269  isApprovedForAll(owner, spender) */\n      tag_204\n        /* \"contracts/token/ERC721/ERC721.sol\":9254:9259  owner */\n      dup2\n        /* \"contracts/token/ERC721/ERC721.sol\":9261:9268  spender */\n      dup6\n        /* \"contracts/token/ERC721/ERC721.sol\":9237:9253  isApprovedForAll */\n      tag_89\n        /* \"contracts/token/ERC721/ERC721.sol\":9237:9269  isApprovedForAll(owner, spender) */\n      jump\t// in\n    tag_204:\n        /* \"contracts/token/ERC721/ERC721.sol\":9217:9269  spender == owner || isApprovedForAll(owner, spender) */\n    tag_203:\n        /* \"contracts/token/ERC721/ERC721.sol\":9217:9304  spender == owner || isApprovedForAll(owner, spender) || getApproved(tokenId) == spender */\n      dup1\n      tag_205\n      jumpi\n      pop\n        /* \"contracts/token/ERC721/ERC721.sol\":9297:9304  spender */\n      dup4\n        /* \"contracts/token/ERC721/ERC721.sol\":9273:9304  getApproved(tokenId) == spender */\n      0xffffffffffffffffffffffffffffffffffffffff\n      and\n        /* \"contracts/token/ERC721/ERC721.sol\":9273:9293  getApproved(tokenId) */\n      tag_206\n        /* \"contracts/token/ERC721/ERC721.sol\":9285:9292  tokenId */\n      dup5\n        /* \"contracts/token/ERC721/ERC721.sol\":9273:9284  getApproved */\n      tag_41\n        /* \"contracts/token/ERC721/ERC721.sol\":9273:9293  getApproved(tokenId) */\n      jump\t// in\n    tag_206:\n        /* \"contracts/token/ERC721/ERC721.sol\":9273:9304  getApproved(tokenId) == spender */\n      0xffffffffffffffffffffffffffffffffffffffff\n      and\n      eq\n        /* \"contracts/token/ERC721/ERC721.sol\":9217:9304  spender == owner || isApprovedForAll(owner, spender) || getApproved(tokenId) == spender */\n    tag_205:\n        /* \"contracts/token/ERC721/ERC721.sol\":9209:9305  return (spender == owner || isApprovedForAll(owner, spender) || getApproved(tokenId) == spender) */\n      swap2\n      pop\n      pop\n        /* \"contracts/token/ERC721/ERC721.sol\":9049:9313  function _isApprovedOrOwner(address spender, uint256 tokenId) internal view virtual returns (bool) {... */\n      swap3\n      swap2\n      pop\n      pop\n      jump\t// out\n        /* \"contracts/token/ERC721/ERC721.sol\":13079:14308  function _transfer(address from, address to, uint256 tokenId) internal virtual {... */\n    tag_135:\n        /* \"contracts/token/ERC721/ERC721.sol\":13204:13208  from */\n      dup3\n        /* \"contracts/token/ERC721/ERC721.sol\":13177:13208  ERC721.ownerOf(tokenId) == from */\n      0xffffffffffffffffffffffffffffffffffffffff\n      and\n        /* \"contracts/token/ERC721/ERC721.sol\":13177:13200  ERC721.ownerOf(tokenId) */\n      tag_208\n        /* \"contracts/token/ERC721/ERC721.sol\":13192:13199  tokenId */\n      dup3\n        /* \"contracts/token/ERC721/ERC721.sol\":13177:13191  ERC721.ownerOf */\n      tag_65\n        /* \"contracts/token/ERC721/ERC721.sol\":13177:13200  ERC721.ownerOf(tokenId) */\n      jump\t// in\n    tag_208:\n        /* \"contracts/token/ERC721/ERC721.sol\":13177:13208  ERC721.ownerOf(tokenId) == from */\n      0xffffffffffffffffffffffffffffffffffffffff\n      and\n      eq\n        /* \"contracts/token/ERC721/ERC721.sol\":13169:13250  require(ERC721.ownerOf(tokenId) == from, \"ERC721: transfer from incorrect owner\") */\n      tag_209\n      jumpi\n      mload(0x40)\n      0x08c379a000000000000000000000000000000000000000000000000000000000\n      dup2\n      mstore\n      0x04\n      add\n      tag_210\n      swap1\n      tag_211\n      jump\t// in\n    tag_210:\n      mload(0x40)\n      dup1\n      swap2\n      sub\n      swap1\n      revert\n    tag_209:\n        /* \"contracts/token/ERC721/ERC721.sol\":13283:13284  0 */\n      0x00\n        /* \"contracts/token/ERC721/ERC721.sol\":13269:13285  to != address(0) */\n      0xffffffffffffffffffffffffffffffffffffffff\n      and\n        /* \"contracts/token/ERC721/ERC721.sol\":13269:13271  to */\n      dup3\n        /* \"contracts/token/ERC721/ERC721.sol\":13269:13285  to != address(0) */\n      0xffffffffffffffffffffffffffffffffffffffff\n      and\n      sub\n        /* \"contracts/token/ERC721/ERC721.sol\":13261:13326  require(to != address(0), \"ERC721: transfer to the zero address\") */\n      tag_212\n      jumpi\n      mload(0x40)\n      0x08c379a000000000000000000000000000000000000000000000000000000000\n      dup2\n      mstore\n      0x04\n      add\n      tag_213\n      swap1\n      tag_214\n      jump\t// in\n    tag_213:\n      mload(0x40)\n      dup1\n      swap2\n      sub\n      swap1\n      revert\n    tag_212:\n        /* \"contracts/token/ERC721/ERC721.sol\":13339:13381  _beforeTokenTransfer(from, to, tokenId, 1) */\n      tag_215\n        /* \"contracts/token/ERC721/ERC721.sol\":13360:13364  from */\n      dup4\n        /* \"contracts/token/ERC721/ERC721.sol\":13366:13368  to */\n      dup4\n        /* \"contracts/token/ERC721/ERC721.sol\":13370:13377  tokenId */\n      dup4\n        /* \"contracts/token/ERC721/ERC721.sol\":13379:13380  1 */\n      0x01\n        /* \"contracts/token/ERC721/ERC721.sol\":13339:13359  _beforeTokenTransfer */\n      tag_216\n        /* \"contracts/token/ERC721/ERC721.sol\":13339:13381  _beforeTokenTransfer(from, to, tokenId, 1) */\n      jump\t// in\n    tag_215:\n        /* \"contracts/token/ERC721/ERC721.sol\":13511:13515  from */\n      dup3\n        /* \"contracts/token/ERC721/ERC721.sol\":13484:13515  ERC721.ownerOf(tokenId) == from */\n      0xffffffffffffffffffffffffffffffffffffffff\n      and\n        /* \"contracts/token/ERC721/ERC721.sol\":13484:13507  ERC721.ownerOf(tokenId) */\n      tag_217\n        /* \"contracts/token/ERC721/ERC721.sol\":13499:13506  tokenId */\n      dup3\n        /* \"contracts/token/ERC721/ERC721.sol\":13484:13498  ERC721.ownerOf */\n      tag_65\n        /* \"contracts/token/ERC721/ERC721.sol\":13484:13507  ERC721.ownerOf(tokenId) */\n      jump\t// in\n    tag_217:\n        /* \"contracts/token/ERC721/ERC721.sol\":13484:13515  ERC721.ownerOf(tokenId) == from */\n      0xffffffffffffffffffffffffffffffffffffffff\n      and\n      eq\n        /* \"contracts/token/ERC721/ERC721.sol\":13476:13557  require(ERC721.ownerOf(tokenId) == from, \"ERC721: transfer from incorrect owner\") */\n      tag_218\n      jumpi\n      mload(0x40)\n      0x08c379a000000000000000000000000000000000000000000000000000000000\n      dup2\n      mstore\n      0x04\n      add\n      tag_219\n      swap1\n      tag_211\n      jump\t// in\n    tag_219:\n      mload(0x40)\n      dup1\n      swap2\n      sub\n      swap1\n      revert\n    tag_218:\n        /* \"contracts/token/ERC721/ERC721.sol\":13629:13644  _tokenApprovals */\n      0x04\n        /* \"contracts/token/ERC721/ERC721.sol\":13629:13653  _tokenApprovals[tokenId] */\n      0x00\n        /* \"contracts/token/ERC721/ERC721.sol\":13645:13652  tokenId */\n      dup3\n        /* \"contracts/token/ERC721/ERC721.sol\":13629:13653  _tokenApprovals[tokenId] */\n      dup2\n      mstore\n      0x20\n      add\n      swap1\n      dup2\n      mstore\n      0x20\n      add\n      0x00\n      keccak256\n      0x00\n        /* \"contracts/token/ERC721/ERC721.sol\":13622:13653  delete _tokenApprovals[tokenId] */\n      0x0100\n      exp\n      dup2\n      sload\n      swap1\n      0xffffffffffffffffffffffffffffffffffffffff\n      mul\n      not\n      and\n      swap1\n      sstore\n        /* \"contracts/token/ERC721/ERC721.sol\":14124:14125  1 */\n      0x01\n        /* \"contracts/token/ERC721/ERC721.sol\":14105:14114  _balances */\n      0x03\n        /* \"contracts/token/ERC721/ERC721.sol\":14105:14120  _balances[from] */\n      0x00\n        /* \"contracts/token/ERC721/ERC721.sol\":14115:14119  from */\n      dup6\n        /* \"contracts/token/ERC721/ERC721.sol\":14105:14120  _balances[from] */\n      0xffffffffffffffffffffffffffffffffffffffff\n      and\n      0xffffffffffffffffffffffffffffffffffffffff\n      and\n      dup2\n      mstore\n      0x20\n      add\n      swap1\n      dup2\n      mstore\n      0x20\n      add\n      0x00\n      keccak256\n      0x00\n        /* \"contracts/token/ERC721/ERC721.sol\":14105:14125  _balances[from] -= 1 */\n      dup3\n      dup3\n      sload\n      sub\n      swap3\n      pop\n      pop\n      dup2\n      swap1\n      sstore\n      pop\n        /* \"contracts/token/ERC721/ERC721.sol\":14157:14158  1 */\n      0x01\n        /* \"contracts/token/ERC721/ERC721.sol\":14140:14149  _balances */\n      0x03\n        /* \"contracts/token/ERC721/ERC721.sol\":14140:14153  _balances[to] */\n      0x00\n        /* \"contracts/token/ERC721/ERC721.sol\":14150:14152  to */\n      dup5\n        /* \"contracts/token/ERC721/ERC721.sol\":14140:14153  _balances[to] */\n      0xffffffffffffffffffffffffffffffffffffffff\n      and\n      0xffffffffffffffffffffffffffffffffffffffff\n      and\n      dup2\n      mstore\n      0x20\n      add\n      swap1\n      dup2\n      mstore\n      0x20\n      add\n      0x00\n      keccak256\n      0x00\n        /* \"contracts/token/ERC721/ERC721.sol\":14140:14158  _balances[to] += 1 */\n      dup3\n      dup3\n      sload\n      add\n      swap3\n      pop\n      pop\n      dup2\n      swap1\n      sstore\n      pop\n        /* \"contracts/token/ERC721/ERC721.sol\":14199:14201  to */\n      dup2\n        /* \"contracts/token/ERC721/ERC721.sol\":14180:14187  _owners */\n      0x02\n        /* \"contracts/token/ERC721/ERC721.sol\":14180:14196  _owners[tokenId] */\n      0x00\n        /* \"contracts/token/ERC721/ERC721.sol\":14188:14195  tokenId */\n      dup4\n        /* \"contracts/token/ERC721/ERC721.sol\":14180:14196  _owners[tokenId] */\n      dup2\n      mstore\n      0x20\n      add\n      swap1\n      dup2\n      mstore\n      0x20\n      add\n      0x00\n      keccak256\n      0x00\n        /* \"contracts/token/ERC721/ERC721.sol\":14180:14201  _owners[tokenId] = to */\n      0x0100\n      exp\n      dup2\n      sload\n      dup2\n      0xffffffffffffffffffffffffffffffffffffffff\n      mul\n      not\n      and\n      swap1\n      dup4\n      0xffffffffffffffffffffffffffffffffffffffff\n      and\n      mul\n      or\n      swap1\n      sstore\n      pop\n        /* \"contracts/token/ERC721/ERC721.sol\":14238:14245  tokenId */\n      dup1\n        /* \"contracts/token/ERC721/ERC721.sol\":14234:14236  to */\n      dup3\n        /* \"contracts/token/ERC721/ERC721.sol\":14219:14246  Transfer(from, to, tokenId) */\n      0xffffffffffffffffffffffffffffffffffffffff\n      and\n        /* \"contracts/token/ERC721/ERC721.sol\":14228:14232  from */\n      dup5\n        /* \"contracts/token/ERC721/ERC721.sol\":14219:14246  Transfer(from, to, tokenId) */\n      0xffffffffffffffffffffffffffffffffffffffff\n      and\n      0xddf252ad1be2c89b69c2b068fc378daa952ba7f163c4a11628f55a4df523b3ef\n      mload(0x40)\n      mload(0x40)\n      dup1\n      swap2\n      sub\n      swap1\n      log4\n        /* \"contracts/token/ERC721/ERC721.sol\":14259:14300  _afterTokenTransfer(from, to, tokenId, 1) */\n      tag_220\n        /* \"contracts/token/ERC721/ERC721.sol\":14279:14283  from */\n      dup4\n        /* \"contracts/token/ERC721/ERC721.sol\":14285:14287  to */\n      dup4\n        /* \"contracts/token/ERC721/ERC721.sol\":14289:14296  tokenId */\n      dup4\n        /* \"contracts/token/ERC721/ERC721.sol\":14298:14299  1 */\n      0x01\n        /* \"contracts/token/ERC721/ERC721.sol\":14259:14278  _afterTokenTransfer */\n      tag_221\n        /* \"contracts/token/ERC721/ERC721.sol\":14259:14300  _afterTokenTransfer(from, to, tokenId, 1) */\n      jump\t// in\n    tag_220:\n        /* \"contracts/token/ERC721/ERC721.sol\":13079:14308  function _transfer(address from, address to, uint256 tokenId) internal virtual {... */\n      pop\n      pop\n      pop\n      jump\t// out\n        /* \"contracts/token/ERC721/ERC721.sol\":19173:19586  function _lock(uint256 tokenId,bool locked) internal virtual {... */\n    tag_148:\n        /* \"contracts/token/ERC721/ERC721.sol\":19245:19258  address owner */\n      0x00\n        /* \"contracts/token/ERC721/ERC721.sol\":19261:19284  ERC721.ownerOf(tokenId) */\n      tag_223\n        /* \"contracts/token/ERC721/ERC721.sol\":19276:19283  tokenId */\n      dup4\n        /* \"contracts/token/ERC721/ERC721.sol\":19261:19275  ERC721.ownerOf */\n      tag_65\n        /* \"contracts/token/ERC721/ERC721.sol\":19261:19284  ERC721.ownerOf(tokenId) */\n      jump\t// in\n    tag_223:\n        /* \"contracts/token/ERC721/ERC721.sol\":19245:19284  address owner = ERC721.ownerOf(tokenId) */\n      swap1\n      pop\n        /* \"contracts/token/ERC721/ERC721.sol\":19333:19339  locked */\n      dup2\n        /* \"contracts/token/ERC721/ERC721.sol\":19333:19363  locked && !_tokenLock[tokenId] */\n      dup1\n      iszero\n      tag_224\n      jumpi\n      pop\n        /* \"contracts/token/ERC721/ERC721.sol\":19344:19354  _tokenLock */\n      0x06\n        /* \"contracts/token/ERC721/ERC721.sol\":19344:19363  _tokenLock[tokenId] */\n      0x00\n        /* \"contracts/token/ERC721/ERC721.sol\":19355:19362  tokenId */\n      dup5\n        /* \"contracts/token/ERC721/ERC721.sol\":19344:19363  _tokenLock[tokenId] */\n      dup2\n      mstore\n      0x20\n      add\n      swap1\n      dup2\n      mstore\n      0x20\n      add\n      0x00\n      keccak256\n      0x00\n      swap1\n      sload\n      swap1\n      0x0100\n      exp\n      swap1\n      div\n      0xff\n      and\n        /* \"contracts/token/ERC721/ERC721.sol\":19343:19363  !_tokenLock[tokenId] */\n      iszero\n        /* \"contracts/token/ERC721/ERC721.sol\":19333:19363  locked && !_tokenLock[tokenId] */\n    tag_224:\n        /* \"contracts/token/ERC721/ERC721.sol\":19330:19466  if(locked && !_tokenLock[tokenId]) _lockedCount[owner] += 1;... */\n      iszero\n      tag_225\n      jumpi\n        /* \"contracts/token/ERC721/ERC721.sol\":19388:19389  1 */\n      0x01\n        /* \"contracts/token/ERC721/ERC721.sol\":19365:19377  _lockedCount */\n      0x08\n        /* \"contracts/token/ERC721/ERC721.sol\":19365:19384  _lockedCount[owner] */\n      0x00\n        /* \"contracts/token/ERC721/ERC721.sol\":19378:19383  owner */\n      dup4\n        /* \"contracts/token/ERC721/ERC721.sol\":19365:19384  _lockedCount[owner] */\n      0xffffffffffffffffffffffffffffffffffffffff\n      and\n      0xffffffffffffffffffffffffffffffffffffffff\n      and\n      dup2\n      mstore\n      0x20\n      add\n      swap1\n      dup2\n      mstore\n      0x20\n      add\n      0x00\n      keccak256\n      0x00\n        /* \"contracts/token/ERC721/ERC721.sol\":19365:19389  _lockedCount[owner] += 1 */\n      dup3\n      dup3\n      sload\n      add\n      swap3\n      pop\n      pop\n      dup2\n      swap1\n      sstore\n      pop\n        /* \"contracts/token/ERC721/ERC721.sol\":19330:19466  if(locked && !_tokenLock[tokenId]) _lockedCount[owner] += 1;... */\n      jump(tag_226)\n    tag_225:\n        /* \"contracts/token/ERC721/ERC721.sol\":19413:19419  locked */\n      dup2\n        /* \"contracts/token/ERC721/ERC721.sol\":19412:19419  !locked */\n      iszero\n        /* \"contracts/token/ERC721/ERC721.sol\":19412:19442  !locked && _tokenLock[tokenId] */\n      dup1\n      iszero\n      tag_227\n      jumpi\n      pop\n        /* \"contracts/token/ERC721/ERC721.sol\":19423:19433  _tokenLock */\n      0x06\n        /* \"contracts/token/ERC721/ERC721.sol\":19423:19442  _tokenLock[tokenId] */\n      0x00\n        /* \"contracts/token/ERC721/ERC721.sol\":19434:19441  tokenId */\n      dup5\n        /* \"contracts/token/ERC721/ERC721.sol\":19423:19442  _tokenLock[tokenId] */\n      dup2\n      mstore\n      0x20\n      add\n      swap1\n      dup2\n      mstore\n      0x20\n      add\n      0x00\n      keccak256\n      0x00\n      swap1\n      sload\n      swap1\n      0x0100\n      exp\n      swap1\n      div\n      0xff\n      and\n        /* \"contracts/token/ERC721/ERC721.sol\":19412:19442  !locked && _tokenLock[tokenId] */\n    tag_227:\n        /* \"contracts/token/ERC721/ERC721.sol\":19409:19466  if(!locked && _tokenLock[tokenId]) _lockedCount[owner]-=1 */\n      iszero\n      tag_228\n      jumpi\n        /* \"contracts/token/ERC721/ERC721.sol\":19465:19466  1 */\n      0x01\n        /* \"contracts/token/ERC721/ERC721.sol\":19444:19456  _lockedCount */\n      0x08\n        /* \"contracts/token/ERC721/ERC721.sol\":19444:19463  _lockedCount[owner] */\n      0x00\n        /* \"contracts/token/ERC721/ERC721.sol\":19457:19462  owner */\n      dup4\n        /* \"contracts/token/ERC721/ERC721.sol\":19444:19463  _lockedCount[owner] */\n      0xffffffffffffffffffffffffffffffffffffffff\n      and\n      0xffffffffffffffffffffffffffffffffffffffff\n      and\n      dup2\n      mstore\n      0x20\n      add\n      swap1\n      dup2\n      mstore\n      0x20\n      add\n      0x00\n      keccak256\n      0x00\n        /* \"contracts/token/ERC721/ERC721.sol\":19444:19466  _lockedCount[owner]-=1 */\n      dup3\n      dup3\n      sload\n      sub\n      swap3\n      pop\n      pop\n      dup2\n      swap1\n      sstore\n      pop\n        /* \"contracts/token/ERC721/ERC721.sol\":19409:19466  if(!locked && _tokenLock[tokenId]) _lockedCount[owner]-=1 */\n    tag_228:\n        /* \"contracts/token/ERC721/ERC721.sol\":19330:19466  if(locked && !_tokenLock[tokenId]) _lockedCount[owner] += 1;... */\n    tag_226:\n        /* \"contracts/token/ERC721/ERC721.sol\":19510:19516  locked */\n      dup2\n        /* \"contracts/token/ERC721/ERC721.sol\":19488:19498  _tokenLock */\n      0x06\n        /* \"contracts/token/ERC721/ERC721.sol\":19488:19507  _tokenLock[tokenId] */\n      0x00\n        /* \"contracts/token/ERC721/ERC721.sol\":19499:19506  tokenId */\n      dup6\n        /* \"contracts/token/ERC721/ERC721.sol\":19488:19507  _tokenLock[tokenId] */\n      dup2\n      mstore\n      0x20\n      add\n      swap1\n      dup2\n      mstore\n      0x20\n      add\n      0x00\n      keccak256\n      0x00\n        /* \"contracts/token/ERC721/ERC721.sol\":19488:19516  _tokenLock[tokenId] = locked */\n      0x0100\n      exp\n      dup2\n      sload\n      dup2\n      0xff\n      mul\n      not\n      and\n      swap1\n      dup4\n      iszero\n      iszero\n      mul\n      or\n      swap1\n      sstore\n      pop\n        /* \"contracts/token/ERC721/ERC721.sol\":19537:19560  ERC721.ownerOf(tokenId) */\n      tag_229\n        /* \"contracts/token/ERC721/ERC721.sol\":19552:19559  tokenId */\n      dup4\n        /* \"contracts/token/ERC721/ERC721.sol\":19537:19551  ERC721.ownerOf */\n      tag_65\n        /* \"contracts/token/ERC721/ERC721.sol\":19537:19560  ERC721.ownerOf(tokenId) */\n      jump\t// in\n    tag_229:\n        /* \"contracts/token/ERC721/ERC721.sol\":19532:19578  Lock(ERC721.ownerOf(tokenId), tokenId, locked) */\n      0xffffffffffffffffffffffffffffffffffffffff\n      and\n      0xb5aaf11176f7b5020892b8a131e119463931075db10e5e370c7d63292206ec63\n        /* \"contracts/token/ERC721/ERC721.sol\":19562:19569  tokenId */\n      dup5\n        /* \"contracts/token/ERC721/ERC721.sol\":19571:19577  locked */\n      dup5\n        /* \"contracts/token/ERC721/ERC721.sol\":19532:19578  Lock(ERC721.ownerOf(tokenId), tokenId, locked) */\n      mload(0x40)\n      tag_230\n      swap3\n      swap2\n      swap1\n      tag_231\n      jump\t// in\n    tag_230:\n      mload(0x40)\n      dup1\n      swap2\n      sub\n      swap1\n      log2\n        /* \"contracts/token/ERC721/ERC721.sol\":19234:19586  {... */\n      pop\n        /* \"contracts/token/ERC721/ERC721.sol\":19173:19586  function _lock(uint256 tokenId,bool locked) internal virtual {... */\n      pop\n      pop\n      jump\t// out\n        /* \"contracts/token/ERC721/ERC721.sol\":8324:8441  function _ownerOf(uint256 tokenId) internal view virtual returns (address) {... */\n    tag_154:\n        /* \"contracts/token/ERC721/ERC721.sol\":8390:8397  address */\n      0x00\n        /* \"contracts/token/ERC721/ERC721.sol\":8417:8424  _owners */\n      0x02\n        /* \"contracts/token/ERC721/ERC721.sol\":8417:8433  _owners[tokenId] */\n      0x00\n        /* \"contracts/token/ERC721/ERC721.sol\":8425:8432  tokenId */\n      dup4\n        /* \"contracts/token/ERC721/ERC721.sol\":8417:8433  _owners[tokenId] */\n      dup2\n      mstore\n      0x20\n      add\n      swap1\n      dup2\n      mstore\n      0x20\n      add\n      0x00\n      keccak256\n      0x00\n      swap1\n      sload\n      swap1\n      0x0100\n      exp\n      swap1\n      div\n      0xffffffffffffffffffffffffffffffffffffffff\n      and\n        /* \"contracts/token/ERC721/ERC721.sol\":8410:8433  return _owners[tokenId] */\n      swap1\n      pop\n        /* \"contracts/token/ERC721/ERC721.sol\":8324:8441  function _ownerOf(uint256 tokenId) internal view virtual returns (address) {... */\n      swap2\n      swap1\n      pop\n      jump\t// out\n        /* \"contracts/token/ERC721/ERC721.sol\":14744:15148  function _setApprovalForAll(address owner, address operator, bool approved) internal virtual {... */\n    tag_171:\n        /* \"contracts/token/ERC721/ERC721.sol\":14865:14873  operator */\n      dup2\n        /* \"contracts/token/ERC721/ERC721.sol\":14856:14873  owner != operator */\n      0xffffffffffffffffffffffffffffffffffffffff\n      and\n        /* \"contracts/token/ERC721/ERC721.sol\":14856:14861  owner */\n      dup4\n        /* \"contracts/token/ERC721/ERC721.sol\":14856:14873  owner != operator */\n      0xffffffffffffffffffffffffffffffffffffffff\n      and\n      sub\n        /* \"contracts/token/ERC721/ERC721.sol\":14848:14903  require(owner != operator, \"ERC721: approve to caller\") */\n      tag_234\n      jumpi\n      mload(0x40)\n      0x08c379a000000000000000000000000000000000000000000000000000000000\n      dup2\n      mstore\n      0x04\n      add\n      tag_235\n      swap1\n      tag_236\n      jump\t// in\n    tag_235:\n      mload(0x40)\n      dup1\n      swap2\n      sub\n      swap1\n      revert\n    tag_234:\n        /* \"contracts/token/ERC721/ERC721.sol\":14943:14944  0 */\n      0x00\n        /* \"contracts/token/ERC721/ERC721.sol\":14922:14934  _lockedCount */\n      0x08\n        /* \"contracts/token/ERC721/ERC721.sol\":14922:14941  _lockedCount[owner] */\n      0x00\n        /* \"contracts/token/ERC721/ERC721.sol\":14935:14940  owner */\n      dup6\n        /* \"contracts/token/ERC721/ERC721.sol\":14922:14941  _lockedCount[owner] */\n      0xffffffffffffffffffffffffffffffffffffffff\n      and\n      0xffffffffffffffffffffffffffffffffffffffff\n      and\n      dup2\n      mstore\n      0x20\n      add\n      swap1\n      dup2\n      mstore\n      0x20\n      add\n      0x00\n      keccak256\n      sload\n        /* \"contracts/token/ERC721/ERC721.sol\":14922:14944  _lockedCount[owner]==0 */\n      eq\n        /* \"contracts/token/ERC721/ERC721.sol\":14914:14969  require(_lockedCount[owner]==0, \"ERC721: token locked\") */\n      tag_237\n      jumpi\n      mload(0x40)\n      0x08c379a000000000000000000000000000000000000000000000000000000000\n      dup2\n      mstore\n      0x04\n      add\n      tag_238\n      swap1\n      tag_122\n      jump\t// in\n    tag_238:\n      mload(0x40)\n      dup1\n      swap2\n      sub\n      swap1\n      revert\n    tag_237:\n        /* \"contracts/token/ERC721/ERC721.sol\":15028:15036  approved */\n      dup1\n        /* \"contracts/token/ERC721/ERC721.sol\":14990:15008  _operatorApprovals */\n      0x05\n        /* \"contracts/token/ERC721/ERC721.sol\":14990:15015  _operatorApprovals[owner] */\n      0x00\n        /* \"contracts/token/ERC721/ERC721.sol\":15009:15014  owner */\n      dup6\n        /* \"contracts/token/ERC721/ERC721.sol\":14990:15015  _operatorApprovals[owner] */\n      0xffffffffffffffffffffffffffffffffffffffff\n      and\n      0xffffffffffffffffffffffffffffffffffffffff\n      and\n      dup2\n      mstore\n      0x20\n      add\n      swap1\n      dup2\n      mstore\n      0x20\n      add\n      0x00\n      keccak256\n        /* \"contracts/token/ERC721/ERC721.sol\":14990:15025  _operatorApprovals[owner][operator] */\n      0x00\n        /* \"contracts/token/ERC721/ERC721.sol\":15016:15024  operator */\n      dup5\n        /* \"contracts/token/ERC721/ERC721.sol\":14990:15025  _operatorApprovals[owner][operator] */\n      0xffffffffffffffffffffffffffffffffffffffff\n      and\n      0xffffffffffffffffffffffffffffffffffffffff\n      and\n      dup2\n      mstore\n      0x20\n      add\n      swap1\n      dup2\n      mstore\n      0x20\n      add\n      0x00\n      keccak256\n      0x00\n        /* \"contracts/token/ERC721/ERC721.sol\":14990:15036  _operatorApprovals[owner][operator] = approved */\n      0x0100\n      exp\n      dup2\n      sload\n      dup2\n      0xff\n      mul\n      not\n      and\n      swap1\n      dup4\n      iszero\n      iszero\n      mul\n      or\n      swap1\n      sstore\n      pop\n        /* \"contracts/token/ERC721/ERC721.sol\":15075:15083  approved */\n      dup1\n        /* \"contracts/token/ERC721/ERC721.sol\":15047:15067  _isOperatorApprovals */\n      0x07\n        /* \"contracts/token/ERC721/ERC721.sol\":15047:15074  _isOperatorApprovals[owner] */\n      0x00\n        /* \"contracts/token/ERC721/ERC721.sol\":15068:15073  owner */\n      dup6\n        /* \"contracts/token/ERC721/ERC721.sol\":15047:15074  _isOperatorApprovals[owner] */\n      0xffffffffffffffffffffffffffffffffffffffff\n      and\n      0xffffffffffffffffffffffffffffffffffffffff\n      and\n      dup2\n      mstore\n      0x20\n      add\n      swap1\n      dup2\n      mstore\n      0x20\n      add\n      0x00\n      keccak256\n      0x00\n        /* \"contracts/token/ERC721/ERC721.sol\":15047:15083  _isOperatorApprovals[owner]=approved */\n      0x0100\n      exp\n      dup2\n      sload\n      dup2\n      0xff\n      mul\n      not\n      and\n      swap1\n      dup4\n      iszero\n      iszero\n      mul\n      or\n      swap1\n      sstore\n      pop\n        /* \"contracts/token/ERC721/ERC721.sol\":15121:15129  operator */\n      dup2\n        /* \"contracts/token/ERC721/ERC721.sol\":15099:15140  ApprovalForAll(owner, operator, approved) */\n      0xffffffffffffffffffffffffffffffffffffffff\n      and\n        /* \"contracts/token/ERC721/ERC721.sol\":15114:15119  owner */\n      dup4\n        /* \"contracts/token/ERC721/ERC721.sol\":15099:15140  ApprovalForAll(owner, operator, approved) */\n      0xffffffffffffffffffffffffffffffffffffffff\n      and\n      0x17307eab39ab6107e8899845ad3d59bd9653f200f220920489ca2b5937696c31\n        /* \"contracts/token/ERC721/ERC721.sol\":15131:15139  approved */\n      dup4\n        /* \"contracts/token/ERC721/ERC721.sol\":15099:15140  ApprovalForAll(owner, operator, approved) */\n      mload(0x40)\n      tag_239\n      swap2\n      swap1\n      tag_27\n      jump\t// in\n    tag_239:\n      mload(0x40)\n      dup1\n      swap2\n      sub\n      swap1\n      log3\n        /* \"contracts/token/ERC721/ERC721.sol\":14744:15148  function _setApprovalForAll(address owner, address operator, bool approved) internal virtual {... */\n      pop\n      pop\n      pop\n      jump\t// out\n        /* \"contracts/token/ERC721/ERC721.sol\":7940:8210  function _safeTransfer(address from, address to, uint256 tokenId, bytes memory data) internal virtual {... */\n    tag_180:\n        /* \"contracts/token/ERC721/ERC721.sol\":8053:8081  _transfer(from, to, tokenId) */\n      tag_241\n        /* \"contracts/token/ERC721/ERC721.sol\":8063:8067  from */\n      dup5\n        /* \"contracts/token/ERC721/ERC721.sol\":8069:8071  to */\n      dup5\n        /* \"contracts/token/ERC721/ERC721.sol\":8073:8080  tokenId */\n      dup5\n        /* \"contracts/token/ERC721/ERC721.sol\":8053:8062  _transfer */\n      tag_135\n        /* \"contracts/token/ERC721/ERC721.sol\":8053:8081  _transfer(from, to, tokenId) */\n      jump\t// in\n    tag_241:\n        /* \"contracts/token/ERC721/ERC721.sol\":8100:8147  _checkOnERC721Received(from, to, tokenId, data) */\n      tag_242\n        /* \"contracts/token/ERC721/ERC721.sol\":8123:8127  from */\n      dup5\n        /* \"contracts/token/ERC721/ERC721.sol\":8129:8131  to */\n      dup5\n        /* \"contracts/token/ERC721/ERC721.sol\":8133:8140  tokenId */\n      dup5\n        /* \"contracts/token/ERC721/ERC721.sol\":8142:8146  data */\n      dup5\n        /* \"contracts/token/ERC721/ERC721.sol\":8100:8122  _checkOnERC721Received */\n      tag_243\n        /* \"contracts/token/ERC721/ERC721.sol\":8100:8147  _checkOnERC721Received(from, to, tokenId, data) */\n      jump\t// in\n    tag_242:\n        /* \"contracts/token/ERC721/ERC721.sol\":8092:8202  require(_checkOnERC721Received(from, to, tokenId, data), \"ERC721: transfer to non ERC721Receiver implementer\") */\n      tag_244\n      jumpi\n      mload(0x40)\n      0x08c379a000000000000000000000000000000000000000000000000000000000\n      dup2\n      mstore\n      0x04\n      add\n      tag_245\n      swap1\n      tag_246\n      jump\t// in\n    tag_245:\n      mload(0x40)\n      dup1\n      swap2\n      sub\n      swap1\n      revert\n    tag_244:\n        /* \"contracts/token/ERC721/ERC721.sol\":7940:8210  function _safeTransfer(address from, address to, uint256 tokenId, bytes memory data) internal virtual {... */\n      pop\n      pop\n      pop\n      pop\n      jump\t// out\n        /* \"contracts/token/ERC721/ERC721.sol\":3738:3832  function _baseURI() internal view virtual returns (string memory) {... */\n    tag_184:\n        /* \"contracts/token/ERC721/ERC721.sol\":3789:3802  string memory */\n      0x60\n        /* \"contracts/token/ERC721/ERC721.sol\":3815:3824  return \"\" */\n      mload(0x40)\n      dup1\n      0x20\n      add\n      0x40\n      mstore\n      dup1\n      0x00\n      dup2\n      mstore\n      pop\n      swap1\n      pop\n        /* \"contracts/token/ERC721/ERC721.sol\":3738:3832  function _baseURI() internal view virtual returns (string memory) {... */\n      swap1\n      jump\t// out\n        /* \"contracts/utils/Strings.sol\":465:1181  function toString(uint256 value) internal pure returns (string memory) {... */\n    tag_188:\n        /* \"contracts/utils/Strings.sol\":521:534  string memory */\n      0x60\n        /* \"contracts/utils/Strings.sol\":572:586  uint256 length */\n      0x00\n        /* \"contracts/utils/Strings.sol\":609:610  1 */\n      0x01\n        /* \"contracts/utils/Strings.sol\":589:606  Math.log10(value) */\n      tag_249\n        /* \"contracts/utils/Strings.sol\":600:605  value */\n      dup5\n        /* \"contracts/utils/Strings.sol\":589:599  Math.log10 */\n      tag_250\n        /* \"contracts/utils/Strings.sol\":589:606  Math.log10(value) */\n      jump\t// in\n    tag_249:\n        /* \"contracts/utils/Strings.sol\":589:610  Math.log10(value) + 1 */\n      add\n        /* \"contracts/utils/Strings.sol\":572:610  uint256 length = Math.log10(value) + 1 */\n      swap1\n      pop\n        /* \"contracts/utils/Strings.sol\":625:645  string memory buffer */\n      0x00\n        /* \"contracts/utils/Strings.sol\":659:665  length */\n      dup2\n        /* \"contracts/utils/Strings.sol\":648:666  new string(length) */\n      0xffffffffffffffff\n      dup2\n      gt\n      iszero\n      tag_251\n      jumpi\n      tag_252\n      tag_253\n      jump\t// in\n    tag_252:\n    tag_251:\n      mload(0x40)\n      swap1\n      dup1\n      dup3\n      mstore\n      dup1\n      0x1f\n      add\n      not(0x1f)\n      and\n      0x20\n      add\n      dup3\n      add\n      0x40\n      mstore\n      dup1\n      iszero\n      tag_254\n      jumpi\n      dup2\n      0x20\n      add\n      0x01\n      dup3\n      mul\n      dup1\n      calldatasize\n      dup4\n      calldatacopy\n      dup1\n      dup3\n      add\n      swap2\n      pop\n      pop\n      swap1\n      pop\n    tag_254:\n      pop\n        /* \"contracts/utils/Strings.sol\":625:666  string memory buffer = new string(length) */\n      swap1\n      pop\n        /* \"contracts/utils/Strings.sol\":681:692  uint256 ptr */\n      0x00\n        /* \"contracts/utils/Strings.sol\":810:816  length */\n      dup3\n        /* \"contracts/utils/Strings.sol\":806:808  32 */\n      0x20\n        /* \"contracts/utils/Strings.sol\":802:817  add(32, length) */\n      add\n        /* \"contracts/utils/Strings.sol\":794:800  buffer */\n      dup3\n        /* \"contracts/utils/Strings.sol\":790:818  add(buffer, add(32, length)) */\n      add\n        /* \"contracts/utils/Strings.sol\":783:818  ptr := add(buffer, add(32, length)) */\n      swap1\n      pop\n        /* \"contracts/utils/Strings.sol\":847:1135  while (true) {... */\n    tag_255:\n        /* \"contracts/utils/Strings.sol\":854:858  true */\n      0x01\n        /* \"contracts/utils/Strings.sol\":847:1135  while (true) {... */\n      iszero\n      tag_256\n      jumpi\n        /* \"contracts/utils/Strings.sol\":879:884  ptr-- */\n      dup1\n      dup1\n      0x01\n      swap1\n      sub\n      swap2\n      pop\n      pop\n        /* \"contracts/utils/Strings.sol\":1021:1029  _SYMBOLS */\n      0x3031323334353637383961626364656600000000000000000000000000000000\n        /* \"contracts/utils/Strings.sol\":1016:1018  10 */\n      0x0a\n        /* \"contracts/utils/Strings.sol\":1009:1014  value */\n      dup7\n        /* \"contracts/utils/Strings.sol\":1005:1019  mod(value, 10) */\n      mod\n        /* \"contracts/utils/Strings.sol\":1000:1030  byte(mod(value, 10), _SYMBOLS) */\n      byte\n        /* \"contracts/utils/Strings.sol\":995:998  ptr */\n      dup2\n        /* \"contracts/utils/Strings.sol\":987:1031  mstore8(ptr, byte(mod(value, 10), _SYMBOLS)) */\n      mstore8\n        /* \"contracts/utils/Strings.sol\":1077:1079  10 */\n      0x0a\n        /* \"contracts/utils/Strings.sol\":1068:1079  value /= 10 */\n      dup6\n      dup2\n      tag_257\n      jumpi\n      tag_258\n      tag_259\n      jump\t// in\n    tag_258:\n    tag_257:\n      div\n      swap5\n      pop\n        /* \"contracts/utils/Strings.sol\":1111:1112  0 */\n      0x00\n        /* \"contracts/utils/Strings.sol\":1102:1107  value */\n      dup6\n        /* \"contracts/utils/Strings.sol\":1102:1112  value == 0 */\n      sub\n        /* \"contracts/utils/Strings.sol\":847:1135  while (true) {... */\n      tag_255\n        /* \"contracts/utils/Strings.sol\":1098:1119  if (value == 0) break */\n      jumpi\n        /* \"contracts/utils/Strings.sol\":847:1135  while (true) {... */\n    tag_256:\n        /* \"contracts/utils/Strings.sol\":1156:1162  buffer */\n      dup2\n        /* \"contracts/utils/Strings.sol\":1149:1162  return buffer */\n      swap4\n      pop\n      pop\n      pop\n      pop\n        /* \"contracts/utils/Strings.sol\":465:1181  function toString(uint256 value) internal pure returns (string memory) {... */\n      swap2\n      swap1\n      pop\n      jump\t// out\n        /* \"contracts/token/ERC721/ERC721.sol\":8754:8882  function _exists(uint256 tokenId) internal view virtual returns (bool) {... */\n    tag_195:\n        /* \"contracts/token/ERC721/ERC721.sol\":8819:8823  bool */\n      0x00\n        /* \"contracts/token/ERC721/ERC721.sol\":8872:8873  0 */\n      dup1\n        /* \"contracts/token/ERC721/ERC721.sol\":8843:8874  _ownerOf(tokenId) != address(0) */\n      0xffffffffffffffffffffffffffffffffffffffff\n      and\n        /* \"contracts/token/ERC721/ERC721.sol\":8843:8860  _ownerOf(tokenId) */\n      tag_262\n        /* \"contracts/token/ERC721/ERC721.sol\":8852:8859  tokenId */\n      dup4\n        /* \"contracts/token/ERC721/ERC721.sol\":8843:8851  _ownerOf */\n      tag_154\n        /* \"contracts/token/ERC721/ERC721.sol\":8843:8860  _ownerOf(tokenId) */\n      jump\t// in\n    tag_262:\n        /* \"contracts/token/ERC721/ERC721.sol\":8843:8874  _ownerOf(tokenId) != address(0) */\n      0xffffffffffffffffffffffffffffffffffffffff\n      and\n      eq\n      iszero\n        /* \"contracts/token/ERC721/ERC721.sol\":8836:8874  return _ownerOf(tokenId) != address(0) */\n      swap1\n      pop\n        /* \"contracts/token/ERC721/ERC721.sol\":8754:8882  function _exists(uint256 tokenId) internal view virtual returns (bool) {... */\n      swap2\n      swap1\n      pop\n      jump\t// out\n        /* \"contracts/token/ERC721/ERC721.sol\":17521:17637  function _beforeTokenTransfer(address from, address to, uint256 firstTokenId, uint256 batchSize) internal virtual {} */\n    tag_216:\n      pop\n      pop\n      pop\n      pop\n      jump\t// out\n        /* \"contracts/token/ERC721/ERC721.sol\":18359:18474  function _afterTokenTransfer(address from, address to, uint256 firstTokenId, uint256 batchSize) internal virtual {} */\n    tag_221:\n      pop\n      pop\n      pop\n      pop\n      jump\t// out\n        /* \"contracts/token/ERC721/ERC721.sol\":15936:16789  function _checkOnERC721Received(... */\n    tag_243:\n        /* \"contracts/token/ERC721/ERC721.sol\":16090:16094  bool */\n      0x00\n        /* \"contracts/token/ERC721/ERC721.sol\":16111:16126  to.isContract() */\n      tag_266\n        /* \"contracts/token/ERC721/ERC721.sol\":16111:16113  to */\n      dup5\n        /* \"contracts/token/ERC721/ERC721.sol\":16111:16124  to.isContract */\n      0xffffffffffffffffffffffffffffffffffffffff\n      and\n      tag_267\n        /* \"contracts/token/ERC721/ERC721.sol\":16111:16126  to.isContract() */\n      jump\t// in\n    tag_266:\n        /* \"contracts/token/ERC721/ERC721.sol\":16107:16782  if (to.isContract()) {... */\n      iszero\n      tag_268\n      jumpi\n        /* \"contracts/token/ERC721/ERC721.sol\":16163:16165  to */\n      dup4\n        /* \"contracts/token/ERC721/ERC721.sol\":16147:16183  IERC721Receiver(to).onERC721Received */\n      0xffffffffffffffffffffffffffffffffffffffff\n      and\n      0x150b7a02\n        /* \"contracts/token/ERC721/ERC721.sol\":16184:16196  _msgSender() */\n      tag_269\n        /* \"contracts/token/ERC721/ERC721.sol\":16184:16194  _msgSender */\n      tag_113\n        /* \"contracts/token/ERC721/ERC721.sol\":16184:16196  _msgSender() */\n      jump\t// in\n    tag_269:\n        /* \"contracts/token/ERC721/ERC721.sol\":16198:16202  from */\n      dup8\n        /* \"contracts/token/ERC721/ERC721.sol\":16204:16211  tokenId */\n      dup7\n        /* \"contracts/token/ERC721/ERC721.sol\":16213:16217  data */\n      dup7\n        /* \"contracts/token/ERC721/ERC721.sol\":16147:16218  IERC721Receiver(to).onERC721Received(_msgSender(), from, tokenId, data) */\n      mload(0x40)\n      dup6\n      0xffffffff\n      and\n      0xe0\n      shl\n      dup2\n      mstore\n      0x04\n      add\n      tag_270\n      swap5\n      swap4\n      swap3\n      swap2\n      swap1\n      tag_271\n      jump\t// in\n    tag_270:\n      0x20\n      mload(0x40)\n      dup1\n      dup4\n      sub\n      dup2\n      0x00\n      dup8\n      gas\n      call\n      swap3\n      pop\n      pop\n      pop\n      dup1\n      iszero\n      tag_272\n      jumpi\n      pop\n      mload(0x40)\n      returndatasize\n      not(0x1f)\n      0x1f\n      dup3\n      add\n      and\n      dup3\n      add\n      dup1\n      0x40\n      mstore\n      pop\n      dup2\n      add\n      swap1\n      tag_273\n      swap2\n      swap1\n      tag_274\n      jump\t// in\n    tag_273:\n      0x01\n    tag_272:\n        /* \"contracts/token/ERC721/ERC721.sol\":16143:16727  try IERC721Receiver(to).onERC721Received(_msgSender(), from, tokenId, data) returns (bytes4 retval) {... */\n      tag_275\n      jumpi\n      returndatasize\n      dup1\n      0x00\n      dup2\n      eq\n      tag_280\n      jumpi\n      mload(0x40)\n      swap2\n      pop\n      and(add(returndatasize, 0x3f), not(0x1f))\n      dup3\n      add\n      0x40\n      mstore\n      returndatasize\n      dup3\n      mstore\n      returndatasize\n      0x00\n      0x20\n      dup5\n      add\n      returndatacopy\n      jump(tag_279)\n    tag_280:\n      0x60\n      swap2\n      pop\n    tag_279:\n      pop\n        /* \"contracts/token/ERC721/ERC721.sol\":16405:16406  0 */\n      0x00\n        /* \"contracts/token/ERC721/ERC721.sol\":16388:16394  reason */\n      dup2\n        /* \"contracts/token/ERC721/ERC721.sol\":16388:16401  reason.length */\n      mload\n        /* \"contracts/token/ERC721/ERC721.sol\":16388:16406  reason.length == 0 */\n      sub\n        /* \"contracts/token/ERC721/ERC721.sol\":16384:16712  if (reason.length == 0) {... */\n      tag_281\n      jumpi\n        /* \"contracts/token/ERC721/ERC721.sol\":16431:16491  revert(\"ERC721: transfer to non ERC721Receiver implementer\") */\n      mload(0x40)\n      0x08c379a000000000000000000000000000000000000000000000000000000000\n      dup2\n      mstore\n      0x04\n      add\n      tag_282\n      swap1\n      tag_246\n      jump\t// in\n    tag_282:\n      mload(0x40)\n      dup1\n      swap2\n      sub\n      swap1\n      revert\n        /* \"contracts/token/ERC721/ERC721.sol\":16384:16712  if (reason.length == 0) {... */\n    tag_281:\n        /* \"contracts/token/ERC721/ERC721.sol\":16662:16668  reason */\n      dup1\n        /* \"contracts/token/ERC721/ERC721.sol\":16656:16669  mload(reason) */\n      mload\n        /* \"contracts/token/ERC721/ERC721.sol\":16647:16653  reason */\n      dup2\n        /* \"contracts/token/ERC721/ERC721.sol\":16643:16645  32 */\n      0x20\n        /* \"contracts/token/ERC721/ERC721.sol\":16639:16654  add(32, reason) */\n      add\n        /* \"contracts/token/ERC721/ERC721.sol\":16632:16670  revert(add(32, reason), mload(reason)) */\n      revert\n        /* \"contracts/token/ERC721/ERC721.sol\":16143:16727  try IERC721Receiver(to).onERC721Received(_msgSender(), from, tokenId, data) returns (bytes4 retval) {... */\n    tag_275:\n        /* \"contracts/token/ERC721/ERC721.sol\":16279:16320  IERC721Receiver.onERC721Received.selector */\n      shl(0xe0, 0x150b7a02)\n        /* \"contracts/token/ERC721/ERC721.sol\":16269:16320  retval == IERC721Receiver.onERC721Received.selector */\n      not(0xffffffffffffffffffffffffffffffffffffffffffffffffffffffff)\n      and\n        /* \"contracts/token/ERC721/ERC721.sol\":16269:16275  retval */\n      dup2\n        /* \"contracts/token/ERC721/ERC721.sol\":16269:16320  retval == IERC721Receiver.onERC721Received.selector */\n      not(0xffffffffffffffffffffffffffffffffffffffffffffffffffffffff)\n      and\n      eq\n        /* \"contracts/token/ERC721/ERC721.sol\":16262:16320  return retval == IERC721Receiver.onERC721Received.selector */\n      swap2\n      pop\n      pop\n      jump(tag_265)\n        /* \"contracts/token/ERC721/ERC721.sol\":16107:16782  if (to.isContract()) {... */\n    tag_268:\n        /* \"contracts/token/ERC721/ERC721.sol\":16766:16770  true */\n      0x01\n        /* \"contracts/token/ERC721/ERC721.sol\":16759:16770  return true */\n      swap1\n      pop\n        /* \"contracts/token/ERC721/ERC721.sol\":15936:16789  function _checkOnERC721Received(... */\n    tag_265:\n      swap5\n      swap4\n      pop\n      pop\n      pop\n      pop\n      jump\t// out\n        /* \"contracts/utils/math/Math.sol\":10390:11338  function log10(uint256 value) internal pure returns (uint256) {... */\n    tag_250:\n        /* \"contracts/utils/math/Math.sol\":10443:10450  uint256 */\n      0x00\n        /* \"contracts/utils/math/Math.sol\":10463:10477  uint256 result */\n      dup1\n        /* \"contracts/utils/math/Math.sol\":10480:10481  0 */\n      0x00\n        /* \"contracts/utils/math/Math.sol\":10463:10481  uint256 result = 0 */\n      swap1\n      pop\n        /* \"contracts/utils/math/Math.sol\":10530:10538  10 ** 64 */\n      0x184f03e93ff9f4daa797ed6e38ed64bf6a1f010000000000000000\n        /* \"contracts/utils/math/Math.sol\":10521:10526  value */\n      dup4\n        /* \"contracts/utils/math/Math.sol\":10521:10538  value >= 10 ** 64 */\n      lt\n        /* \"contracts/utils/math/Math.sol\":10517:10623  if (value >= 10 ** 64) {... */\n      tag_287\n      jumpi\n        /* \"contracts/utils/math/Math.sol\":10568:10576  10 ** 64 */\n      0x184f03e93ff9f4daa797ed6e38ed64bf6a1f010000000000000000\n        /* \"contracts/utils/math/Math.sol\":10559:10576  value /= 10 ** 64 */\n      dup4\n      dup2\n      tag_288\n      jumpi\n      tag_289\n      tag_259\n      jump\t// in\n    tag_289:\n    tag_288:\n      div\n      swap3\n      pop\n        /* \"contracts/utils/math/Math.sol\":10605:10607  64 */\n      0x40\n        /* \"contracts/utils/math/Math.sol\":10595:10607  result += 64 */\n      dup2\n      add\n      swap1\n      pop\n        /* \"contracts/utils/math/Math.sol\":10517:10623  if (value >= 10 ** 64) {... */\n    tag_287:\n        /* \"contracts/utils/math/Math.sol\":10650:10658  10 ** 32 */\n      0x04ee2d6d415b85acef8100000000\n        /* \"contracts/utils/math/Math.sol\":10641:10646  value */\n      dup4\n        /* \"contracts/utils/math/Math.sol\":10641:10658  value >= 10 ** 32 */\n      lt\n        /* \"contracts/utils/math/Math.sol\":10637:10743  if (value >= 10 ** 32) {... */\n      tag_290\n      jumpi\n        /* \"contracts/utils/math/Math.sol\":10688:10696  10 ** 32 */\n      0x04ee2d6d415b85acef8100000000\n        /* \"contracts/utils/math/Math.sol\":10679:10696  value /= 10 ** 32 */\n      dup4\n      dup2\n      tag_291\n      jumpi\n      tag_292\n      tag_259\n      jump\t// in\n    tag_292:\n    tag_291:\n      div\n      swap3\n      pop\n        /* \"contracts/utils/math/Math.sol\":10725:10727  32 */\n      0x20\n        /* \"contracts/utils/math/Math.sol\":10715:10727  result += 32 */\n      dup2\n      add\n      swap1\n      pop\n        /* \"contracts/utils/math/Math.sol\":10637:10743  if (value >= 10 ** 32) {... */\n    tag_290:\n        /* \"contracts/utils/math/Math.sol\":10770:10778  10 ** 16 */\n      0x2386f26fc10000\n        /* \"contracts/utils/math/Math.sol\":10761:10766  value */\n      dup4\n        /* \"contracts/utils/math/Math.sol\":10761:10778  value >= 10 ** 16 */\n      lt\n        /* \"contracts/utils/math/Math.sol\":10757:10863  if (value >= 10 ** 16) {... */\n      tag_293\n      jumpi\n        /* \"contracts/utils/math/Math.sol\":10808:10816  10 ** 16 */\n      0x2386f26fc10000\n        /* \"contracts/utils/math/Math.sol\":10799:10816  value /= 10 ** 16 */\n      dup4\n      dup2\n      tag_294\n      jumpi\n      tag_295\n      tag_259\n      jump\t// in\n    tag_295:\n    tag_294:\n      div\n      swap3\n      pop\n        /* \"contracts/utils/math/Math.sol\":10845:10847  16 */\n      0x10\n        /* \"contracts/utils/math/Math.sol\":10835:10847  result += 16 */\n      dup2\n      add\n      swap1\n      pop\n        /* \"contracts/utils/math/Math.sol\":10757:10863  if (value >= 10 ** 16) {... */\n    tag_293:\n        /* \"contracts/utils/math/Math.sol\":10890:10897  10 ** 8 */\n      0x05f5e100\n        /* \"contracts/utils/math/Math.sol\":10881:10886  value */\n      dup4\n        /* \"contracts/utils/math/Math.sol\":10881:10897  value >= 10 ** 8 */\n      lt\n        /* \"contracts/utils/math/Math.sol\":10877:10980  if (value >= 10 ** 8) {... */\n      tag_296\n      jumpi\n        /* \"contracts/utils/math/Math.sol\":10927:10934  10 ** 8 */\n      0x05f5e100\n        /* \"contracts/utils/math/Math.sol\":10918:10934  value /= 10 ** 8 */\n      dup4\n      dup2\n      tag_297\n      jumpi\n      tag_298\n      tag_259\n      jump\t// in\n    tag_298:\n    tag_297:\n      div\n      swap3\n      pop\n        /* \"contracts/utils/math/Math.sol\":10963:10964  8 */\n      0x08\n        /* \"contracts/utils/math/Math.sol\":10953:10964  result += 8 */\n      dup2\n      add\n      swap1\n      pop\n        /* \"contracts/utils/math/Math.sol\":10877:10980  if (value >= 10 ** 8) {... */\n    tag_296:\n        /* \"contracts/utils/math/Math.sol\":11007:11014  10 ** 4 */\n      0x2710\n        /* \"contracts/utils/math/Math.sol\":10998:11003  value */\n      dup4\n        /* \"contracts/utils/math/Math.sol\":10998:11014  value >= 10 ** 4 */\n      lt\n        /* \"contracts/utils/math/Math.sol\":10994:11097  if (value >= 10 ** 4) {... */\n      tag_299\n      jumpi\n        /* \"contracts/utils/math/Math.sol\":11044:11051  10 ** 4 */\n      0x2710\n        /* \"contracts/utils/math/Math.sol\":11035:11051  value /= 10 ** 4 */\n      dup4\n      dup2\n      tag_300\n      jumpi\n      tag_301\n      tag_259\n      jump\t// in\n    tag_301:\n    tag_300:\n      div\n      swap3\n      pop\n        /* \"contracts/utils/math/Math.sol\":11080:11081  4 */\n      0x04\n        /* \"contracts/utils/math/Math.sol\":11070:11081  result += 4 */\n      dup2\n      add\n      swap1\n      pop\n        /* \"contracts/utils/math/Math.sol\":10994:11097  if (value >= 10 ** 4) {... */\n    tag_299:\n        /* \"contracts/utils/math/Math.sol\":11124:11131  10 ** 2 */\n      0x64\n        /* \"contracts/utils/math/Math.sol\":11115:11120  value */\n      dup4\n        /* \"contracts/utils/math/Math.sol\":11115:11131  value >= 10 ** 2 */\n      lt\n        /* \"contracts/utils/math/Math.sol\":11111:11214  if (value >= 10 ** 2) {... */\n      tag_302\n      jumpi\n        /* \"contracts/utils/math/Math.sol\":11161:11168  10 ** 2 */\n      0x64\n        /* \"contracts/utils/math/Math.sol\":11152:11168  value /= 10 ** 2 */\n      dup4\n      dup2\n      tag_303\n      jumpi\n      tag_304\n      tag_259\n      jump\t// in\n    tag_304:\n    tag_303:\n      div\n      swap3\n      pop\n        /* \"contracts/utils/math/Math.sol\":11197:11198  2 */\n      0x02\n        /* \"contracts/utils/math/Math.sol\":11187:11198  result += 2 */\n      dup2\n      add\n      swap1\n      pop\n        /* \"contracts/utils/math/Math.sol\":11111:11214  if (value >= 10 ** 2) {... */\n    tag_302:\n        /* \"contracts/utils/math/Math.sol\":11241:11248  10 ** 1 */\n      0x0a\n        /* \"contracts/utils/math/Math.sol\":11232:11237  value */\n      dup4\n        /* \"contracts/utils/math/Math.sol\":11232:11248  value >= 10 ** 1 */\n      lt\n        /* \"contracts/utils/math/Math.sol\":11228:11296  if (value >= 10 ** 1) {... */\n      tag_305\n      jumpi\n        /* \"contracts/utils/math/Math.sol\":11279:11280  1 */\n      0x01\n        /* \"contracts/utils/math/Math.sol\":11269:11280  result += 1 */\n      dup2\n      add\n      swap1\n      pop\n        /* \"contracts/utils/math/Math.sol\":11228:11296  if (value >= 10 ** 1) {... */\n    tag_305:\n        /* \"contracts/utils/math/Math.sol\":11324:11330  result */\n      dup1\n        /* \"contracts/utils/math/Math.sol\":11317:11330  return result */\n      swap2\n      pop\n      pop\n        /* \"contracts/utils/math/Math.sol\":10390:11338  function log10(uint256 value) internal pure returns (uint256) {... */\n      swap2\n      swap1\n      pop\n      jump\t// out\n        /* \"contracts/utils/Address.sol\":1451:1777  function isContract(address account) internal view returns (bool) {... */\n    tag_267:\n        /* \"contracts/utils/Address.sol\":1511:1515  bool */\n      0x00\n        /* \"contracts/utils/Address.sol\":1768:1769  0 */\n      dup1\n        /* \"contracts/utils/Address.sol\":1746:1753  account */\n      dup3\n        /* \"contracts/utils/Address.sol\":1746:1765  account.code.length */\n      0xffffffffffffffffffffffffffffffffffffffff\n      and\n      extcodesize\n        /* \"contracts/utils/Address.sol\":1746:1769  account.code.length > 0 */\n      gt\n        /* \"contracts/utils/Address.sol\":1739:1769  return account.code.length > 0 */\n      swap1\n      pop\n        /* \"contracts/utils/Address.sol\":1451:1777  function isContract(address account) internal view returns (bool) {... */\n      swap2\n      swap1\n      pop\n      jump\t// out\n        /* \"#utility.yul\":7:82   */\n    tag_307:\n        /* \"#utility.yul\":40:46   */\n      0x00\n        /* \"#utility.yul\":73:75   */\n      0x40\n        /* \"#utility.yul\":67:76   */\n      mload\n        /* \"#utility.yul\":57:76   */\n      swap1\n      pop\n        /* \"#utility.yul\":7:82   */\n      swap1\n      jump\t// out\n        /* \"#utility.yul\":88:205   */\n    tag_308:\n        /* \"#utility.yul\":197:198   */\n      0x00\n        /* \"#utility.yul\":194:195   */\n      dup1\n        /* \"#utility.yul\":187:199   */\n      revert\n        /* \"#utility.yul\":211:328   */\n    tag_309:\n        /* \"#utility.yul\":320:321   */\n      0x00\n        /* \"#utility.yul\":317:318   */\n      dup1\n        /* \"#utility.yul\":310:322   */\n      revert\n        /* \"#utility.yul\":334:483   */\n    tag_310:\n        /* \"#utility.yul\":370:377   */\n      0x00\n        /* \"#utility.yul\":410:476   */\n      0xffffffff00000000000000000000000000000000000000000000000000000000\n        /* \"#utility.yul\":403:408   */\n      dup3\n        /* \"#utility.yul\":399:477   */\n      and\n        /* \"#utility.yul\":388:477   */\n      swap1\n      pop\n        /* \"#utility.yul\":334:483   */\n      swap2\n      swap1\n      pop\n      jump\t// out\n        /* \"#utility.yul\":489:609   */\n    tag_311:\n        /* \"#utility.yul\":561:584   */\n      tag_376\n        /* \"#utility.yul\":578:583   */\n      dup2\n        /* \"#utility.yul\":561:584   */\n      tag_310\n      jump\t// in\n    tag_376:\n        /* \"#utility.yul\":554:559   */\n      dup2\n        /* \"#utility.yul\":551:585   */\n      eq\n        /* \"#utility.yul\":541:603   */\n      tag_377\n      jumpi\n        /* \"#utility.yul\":599:600   */\n      0x00\n        /* \"#utility.yul\":596:597   */\n      dup1\n        /* \"#utility.yul\":589:601   */\n      revert\n        /* \"#utility.yul\":541:603   */\n    tag_377:\n        /* \"#utility.yul\":489:609   */\n      pop\n      jump\t// out\n        /* \"#utility.yul\":615:752   */\n    tag_312:\n        /* \"#utility.yul\":660:665   */\n      0x00\n        /* \"#utility.yul\":698:704   */\n      dup2\n        /* \"#utility.yul\":685:705   */\n      calldataload\n        /* \"#utility.yul\":676:705   */\n      swap1\n      pop\n        /* \"#utility.yul\":714:746   */\n      tag_379\n        /* \"#utility.yul\":740:745   */\n      dup2\n        /* \"#utility.yul\":714:746   */\n      tag_311\n      jump\t// in\n    tag_379:\n        /* \"#utility.yul\":615:752   */\n      swap3\n      swap2\n      pop\n      pop\n      jump\t// out\n        /* \"#utility.yul\":758:1085   */\n    tag_24:\n        /* \"#utility.yul\":816:822   */\n      0x00\n        /* \"#utility.yul\":865:867   */\n      0x20\n        /* \"#utility.yul\":853:862   */\n      dup3\n        /* \"#utility.yul\":844:851   */\n      dup5\n        /* \"#utility.yul\":840:863   */\n      sub\n        /* \"#utility.yul\":836:868   */\n      slt\n        /* \"#utility.yul\":833:952   */\n      iszero\n      tag_381\n      jumpi\n        /* \"#utility.yul\":871:950   */\n      tag_382\n      tag_308\n      jump\t// in\n    tag_382:\n        /* \"#utility.yul\":833:952   */\n    tag_381:\n        /* \"#utility.yul\":991:992   */\n      0x00\n        /* \"#utility.yul\":1016:1068   */\n      tag_383\n        /* \"#utility.yul\":1060:1067   */\n      dup5\n        /* \"#utility.yul\":1051:1057   */\n      dup3\n        /* \"#utility.yul\":1040:1049   */\n      dup6\n        /* \"#utility.yul\":1036:1058   */\n      add\n        /* \"#utility.yul\":1016:1068   */\n      tag_312\n      jump\t// in\n    tag_383:\n        /* \"#utility.yul\":1006:1068   */\n      swap2\n      pop\n        /* \"#utility.yul\":962:1078   */\n      pop\n        /* \"#utility.yul\":758:1085   */\n      swap3\n      swap2\n      pop\n      pop\n      jump\t// out\n        /* \"#utility.yul\":1091:1181   */\n    tag_313:\n        /* \"#utility.yul\":1125:1132   */\n      0x00\n        /* \"#utility.yul\":1168:1173   */\n      dup2\n        /* \"#utility.yul\":1161:1174   */\n      iszero\n        /* \"#utility.yul\":1154:1175   */\n      iszero\n        /* \"#utility.yul\":1143:1175   */\n      swap1\n      pop\n        /* \"#utility.yul\":1091:1181   */\n      swap2\n      swap1\n      pop\n      jump\t// out\n        /* \"#utility.yul\":1187:1296   */\n    tag_314:\n        /* \"#utility.yul\":1268:1289   */\n      tag_386\n        /* \"#utility.yul\":1283:1288   */\n      dup2\n        /* \"#utility.yul\":1268:1289   */\n      tag_313\n      jump\t// in\n    tag_386:\n        /* \"#utility.yul\":1263:1266   */\n      dup3\n        /* \"#utility.yul\":1256:1290   */\n      mstore\n        /* \"#utility.yul\":1187:1296   */\n      pop\n      pop\n      jump\t// out\n        /* \"#utility.yul\":1302:1512   */\n    tag_27:\n        /* \"#utility.yul\":1389:1393   */\n      0x00\n        /* \"#utility.yul\":1427:1429   */\n      0x20\n        /* \"#utility.yul\":1416:1425   */\n      dup3\n        /* \"#utility.yul\":1412:1430   */\n      add\n        /* \"#utility.yul\":1404:1430   */\n      swap1\n      pop\n        /* \"#utility.yul\":1440:1505   */\n      tag_388\n        /* \"#utility.yul\":1502:1503   */\n      0x00\n        /* \"#utility.yul\":1491:1500   */\n      dup4\n        /* \"#utility.yul\":1487:1504   */\n      add\n        /* \"#utility.yul\":1478:1484   */\n      dup5\n        /* \"#utility.yul\":1440:1505   */\n      tag_314\n      jump\t// in\n    tag_388:\n        /* \"#utility.yul\":1302:1512   */\n      swap3\n      swap2\n      pop\n      pop\n      jump\t// out\n        /* \"#utility.yul\":1518:1617   */\n    tag_315:\n        /* \"#utility.yul\":1570:1576   */\n      0x00\n        /* \"#utility.yul\":1604:1609   */\n      dup2\n        /* \"#utility.yul\":1598:1610   */\n      mload\n        /* \"#utility.yul\":1588:1610   */\n      swap1\n      pop\n        /* \"#utility.yul\":1518:1617   */\n      swap2\n      swap1\n      pop\n      jump\t// out\n        /* \"#utility.yul\":1623:1792   */\n    tag_316:\n        /* \"#utility.yul\":1707:1718   */\n      0x00\n        /* \"#utility.yul\":1741:1747   */\n      dup3\n        /* \"#utility.yul\":1736:1739   */\n      dup3\n        /* \"#utility.yul\":1729:1748   */\n      mstore\n        /* \"#utility.yul\":1781:1785   */\n      0x20\n        /* \"#utility.yul\":1776:1779   */\n      dup3\n        /* \"#utility.yul\":1772:1786   */\n      add\n        /* \"#utility.yul\":1757:1786   */\n      swap1\n      pop\n        /* \"#utility.yul\":1623:1792   */\n      swap3\n      swap2\n      pop\n      pop\n      jump\t// out\n        /* \"#utility.yul\":1798:2044   */\n    tag_317:\n        /* \"#utility.yul\":1879:1880   */\n      0x00\n        /* \"#utility.yul\":1889:2002   */\n    tag_392:\n        /* \"#utility.yul\":1903:1909   */\n      dup4\n        /* \"#utility.yul\":1900:1901   */\n      dup2\n        /* \"#utility.yul\":1897:1910   */\n      lt\n        /* \"#utility.yul\":1889:2002   */\n      iszero\n      tag_394\n      jumpi\n        /* \"#utility.yul\":1988:1989   */\n      dup1\n        /* \"#utility.yul\":1983:1986   */\n      dup3\n        /* \"#utility.yul\":1979:1990   */\n      add\n        /* \"#utility.yul\":1973:1991   */\n      mload\n        /* \"#utility.yul\":1969:1970   */\n      dup2\n        /* \"#utility.yul\":1964:1967   */\n      dup5\n        /* \"#utility.yul\":1960:1971   */\n      add\n        /* \"#utility.yul\":1953:1992   */\n      mstore\n        /* \"#utility.yul\":1925:1927   */\n      0x20\n        /* \"#utility.yul\":1922:1923   */\n      dup2\n        /* \"#utility.yul\":1918:1928   */\n      add\n        /* \"#utility.yul\":1913:1928   */\n      swap1\n      pop\n        /* \"#utility.yul\":1889:2002   */\n      jump(tag_392)\n    tag_394:\n        /* \"#utility.yul\":2036:2037   */\n      0x00\n        /* \"#utility.yul\":2027:2033   */\n      dup5\n        /* \"#utility.yul\":2022:2025   */\n      dup5\n        /* \"#utility.yul\":2018:2034   */\n      add\n        /* \"#utility.yul\":2011:2038   */\n      mstore\n        /* \"#utility.yul\":1860:2044   */\n      pop\n        /* \"#utility.yul\":1798:2044   */\n      pop\n      pop\n      pop\n      jump\t// out\n        /* \"#utility.yul\":2050:2152   */\n    tag_318:\n        /* \"#utility.yul\":2091:2097   */\n      0x00\n        /* \"#utility.yul\":2142:2144   */\n      0x1f\n        /* \"#utility.yul\":2138:2145   */\n      not\n        /* \"#utility.yul\":2133:2135   */\n      0x1f\n        /* \"#utility.yul\":2126:2131   */\n      dup4\n        /* \"#utility.yul\":2122:2136   */\n      add\n        /* \"#utility.yul\":2118:2146   */\n      and\n        /* \"#utility.yul\":2108:2146   */\n      swap1\n      pop\n        /* \"#utility.yul\":2050:2152   */\n      swap2\n      swap1\n      pop\n      jump\t// out\n        /* \"#utility.yul\":2158:2535   */\n    tag_319:\n        /* \"#utility.yul\":2246:2249   */\n      0x00\n        /* \"#utility.yul\":2274:2313   */\n      tag_397\n        /* \"#utility.yul\":2307:2312   */\n      dup3\n        /* \"#utility.yul\":2274:2313   */\n      tag_315\n      jump\t// in\n    tag_397:\n        /* \"#utility.yul\":2329:2400   */\n      tag_398\n        /* \"#utility.yul\":2393:2399   */\n      dup2\n        /* \"#utility.yul\":2388:2391   */\n      dup6\n        /* \"#utility.yul\":2329:2400   */\n      tag_316\n      jump\t// in\n    tag_398:\n        /* \"#utility.yul\":2322:2400   */\n      swap4\n      pop\n        /* \"#utility.yul\":2409:2474   */\n      tag_399\n        /* \"#utility.yul\":2467:2473   */\n      dup2\n        /* \"#utility.yul\":2462:2465   */\n      dup6\n        /* \"#utility.yul\":2455:2459   */\n      0x20\n        /* \"#utility.yul\":2448:2453   */\n      dup7\n        /* \"#utility.yul\":2444:2460   */\n      add\n        /* \"#utility.yul\":2409:2474   */\n      tag_317\n      jump\t// in\n    tag_399:\n        /* \"#utility.yul\":2499:2528   */\n      tag_400\n        /* \"#utility.yul\":2521:2527   */\n      dup2\n        /* \"#utility.yul\":2499:2528   */\n      tag_318\n      jump\t// in\n    tag_400:\n        /* \"#utility.yul\":2494:2497   */\n      dup5\n        /* \"#utility.yul\":2490:2529   */\n      add\n        /* \"#utility.yul\":2483:2529   */\n      swap2\n      pop\n        /* \"#utility.yul\":2250:2535   */\n      pop\n        /* \"#utility.yul\":2158:2535   */\n      swap3\n      swap2\n      pop\n      pop\n      jump\t// out\n        /* \"#utility.yul\":2541:2854   */\n    tag_31:\n        /* \"#utility.yul\":2654:2658   */\n      0x00\n        /* \"#utility.yul\":2692:2694   */\n      0x20\n        /* \"#utility.yul\":2681:2690   */\n      dup3\n        /* \"#utility.yul\":2677:2695   */\n      add\n        /* \"#utility.yul\":2669:2695   */\n      swap1\n      pop\n        /* \"#utility.yul\":2741:2750   */\n      dup2\n        /* \"#utility.yul\":2735:2739   */\n      dup2\n        /* \"#utility.yul\":2731:2751   */\n      sub\n        /* \"#utility.yul\":2727:2728   */\n      0x00\n        /* \"#utility.yul\":2716:2725   */\n      dup4\n        /* \"#utility.yul\":2712:2729   */\n      add\n        /* \"#utility.yul\":2705:2752   */\n      mstore\n        /* \"#utility.yul\":2769:2847   */\n      tag_402\n        /* \"#utility.yul\":2842:2846   */\n      dup2\n        /* \"#utility.yul\":2833:2839   */\n      dup5\n        /* \"#utility.yul\":2769:2847   */\n      tag_319\n      jump\t// in\n    tag_402:\n        /* \"#utility.yul\":2761:2847   */\n      swap1\n      pop\n        /* \"#utility.yul\":2541:2854   */\n      swap3\n      swap2\n      pop\n      pop\n      jump\t// out\n        /* \"#utility.yul\":2860:2986   */\n    tag_320:\n        /* \"#utility.yul\":2897:2904   */\n      0x00\n        /* \"#utility.yul\":2937:2979   */\n      0xffffffffffffffffffffffffffffffffffffffff\n        /* \"#utility.yul\":2930:2935   */\n      dup3\n        /* \"#utility.yul\":2926:2980   */\n      and\n        /* \"#utility.yul\":2915:2980   */\n      swap1\n      pop\n        /* \"#utility.yul\":2860:2986   */\n      swap2\n      swap1\n      pop\n      jump\t// out\n        /* \"#utility.yul\":2992:3088   */\n    tag_321:\n        /* \"#utility.yul\":3029:3036   */\n      0x00\n        /* \"#utility.yul\":3058:3082   */\n      tag_405\n        /* \"#utility.yul\":3076:3081   */\n      dup3\n        /* \"#utility.yul\":3058:3082   */\n      tag_320\n      jump\t// in\n    tag_405:\n        /* \"#utility.yul\":3047:3082   */\n      swap1\n      pop\n        /* \"#utility.yul\":2992:3088   */\n      swap2\n      swap1\n      pop\n      jump\t// out\n        /* \"#utility.yul\":3094:3216   */\n    tag_322:\n        /* \"#utility.yul\":3167:3191   */\n      tag_407\n        /* \"#utility.yul\":3185:3190   */\n      dup2\n        /* \"#utility.yul\":3167:3191   */\n      tag_321\n      jump\t// in\n    tag_407:\n        /* \"#utility.yul\":3160:3165   */\n      dup2\n        /* \"#utility.yul\":3157:3192   */\n      eq\n        /* \"#utility.yul\":3147:3210   */\n      tag_408\n      jumpi\n        /* \"#utility.yul\":3206:3207   */\n      0x00\n        /* \"#utility.yul\":3203:3204   */\n      dup1\n        /* \"#utility.yul\":3196:3208   */\n      revert\n        /* \"#utility.yul\":3147:3210   */\n    tag_408:\n        /* \"#utility.yul\":3094:3216   */\n      pop\n      jump\t// out\n        /* \"#utility.yul\":3222:3361   */\n    tag_323:\n        /* \"#utility.yul\":3268:3273   */\n      0x00\n        /* \"#utility.yul\":3306:3312   */\n      dup2\n        /* \"#utility.yul\":3293:3313   */\n      calldataload\n        /* \"#utility.yul\":3284:3313   */\n      swap1\n      pop\n        /* \"#utility.yul\":3322:3355   */\n      tag_410\n        /* \"#utility.yul\":3349:3354   */\n      dup2\n        /* \"#utility.yul\":3322:3355   */\n      tag_322\n      jump\t// in\n    tag_410:\n        /* \"#utility.yul\":3222:3361   */\n      swap3\n      swap2\n      pop\n      pop\n      jump\t// out\n        /* \"#utility.yul\":3367:3696   */\n    tag_34:\n        /* \"#utility.yul\":3426:3432   */\n      0x00\n        /* \"#utility.yul\":3475:3477   */\n      0x20\n        /* \"#utility.yul\":3463:3472   */\n      dup3\n        /* \"#utility.yul\":3454:3461   */\n      dup5\n        /* \"#utility.yul\":3450:3473   */\n      sub\n        /* \"#utility.yul\":3446:3478   */\n      slt\n        /* \"#utility.yul\":3443:3562   */\n      iszero\n      tag_412\n      jumpi\n        /* \"#utility.yul\":3481:3560   */\n      tag_413\n      tag_308\n      jump\t// in\n    tag_413:\n        /* \"#utility.yul\":3443:3562   */\n    tag_412:\n        /* \"#utility.yul\":3601:3602   */\n      0x00\n        /* \"#utility.yul\":3626:3679   */\n      tag_414\n        /* \"#utility.yul\":3671:3678   */\n      dup5\n        /* \"#utility.yul\":3662:3668   */\n      dup3\n        /* \"#utility.yul\":3651:3660   */\n      dup6\n        /* \"#utility.yul\":3647:3669   */\n      add\n        /* \"#utility.yul\":3626:3679   */\n      tag_323\n      jump\t// in\n    tag_414:\n        /* \"#utility.yul\":3616:3679   */\n      swap2\n      pop\n        /* \"#utility.yul\":3572:3689   */\n      pop\n        /* \"#utility.yul\":3367:3696   */\n      swap3\n      swap2\n      pop\n      pop\n      jump\t// out\n        /* \"#utility.yul\":3702:3779   */\n    tag_324:\n        /* \"#utility.yul\":3739:3746   */\n      0x00\n        /* \"#utility.yul\":3768:3773   */\n      dup2\n        /* \"#utility.yul\":3757:3773   */\n      swap1\n      pop\n        /* \"#utility.yul\":3702:3779   */\n      swap2\n      swap1\n      pop\n      jump\t// out\n        /* \"#utility.yul\":3785:3903   */\n    tag_325:\n        /* \"#utility.yul\":3872:3896   */\n      tag_417\n        /* \"#utility.yul\":3890:3895   */\n      dup2\n        /* \"#utility.yul\":3872:3896   */\n      tag_324\n      jump\t// in\n    tag_417:\n        /* \"#utility.yul\":3867:3870   */\n      dup3\n        /* \"#utility.yul\":3860:3897   */\n      mstore\n        /* \"#utility.yul\":3785:3903   */\n      pop\n      pop\n      jump\t// out\n        /* \"#utility.yul\":3909:4131   */\n    tag_37:\n        /* \"#utility.yul\":4002:4006   */\n      0x00\n        /* \"#utility.yul\":4040:4042   */\n      0x20\n        /* \"#utility.yul\":4029:4038   */\n      dup3\n        /* \"#utility.yul\":4025:4043   */\n      add\n        /* \"#utility.yul\":4017:4043   */\n      swap1\n      pop\n        /* \"#utility.yul\":4053:4124   */\n      tag_419\n        /* \"#utility.yul\":4121:4122   */\n      0x00\n        /* \"#utility.yul\":4110:4119   */\n      dup4\n        /* \"#utility.yul\":4106:4123   */\n      add\n        /* \"#utility.yul\":4097:4103   */\n      dup5\n        /* \"#utility.yul\":4053:4124   */\n      tag_325\n      jump\t// in\n    tag_419:\n        /* \"#utility.yul\":3909:4131   */\n      swap3\n      swap2\n      pop\n      pop\n      jump\t// out\n        /* \"#utility.yul\":4137:4259   */\n    tag_326:\n        /* \"#utility.yul\":4210:4234   */\n      tag_421\n        /* \"#utility.yul\":4228:4233   */\n      dup2\n        /* \"#utility.yul\":4210:4234   */\n      tag_324\n      jump\t// in\n    tag_421:\n        /* \"#utility.yul\":4203:4208   */\n      dup2\n        /* \"#utility.yul\":4200:4235   */\n      eq\n        /* \"#utility.yul\":4190:4253   */\n      tag_422\n      jumpi\n        /* \"#utility.yul\":4249:4250   */\n      0x00\n        /* \"#utility.yul\":4246:4247   */\n      dup1\n        /* \"#utility.yul\":4239:4251   */\n      revert\n        /* \"#utility.yul\":4190:4253   */\n    tag_422:\n        /* \"#utility.yul\":4137:4259   */\n      pop\n      jump\t// out\n        /* \"#utility.yul\":4265:4404   */\n    tag_327:\n        /* \"#utility.yul\":4311:4316   */\n      0x00\n        /* \"#utility.yul\":4349:4355   */\n      dup2\n        /* \"#utility.yul\":4336:4356   */\n      calldataload\n        /* \"#utility.yul\":4327:4356   */\n      swap1\n      pop\n        /* \"#utility.yul\":4365:4398   */\n      tag_424\n        /* \"#utility.yul\":4392:4397   */\n      dup2\n        /* \"#utility.yul\":4365:4398   */\n      tag_326\n      jump\t// in\n    tag_424:\n        /* \"#utility.yul\":4265:4404   */\n      swap3\n      swap2\n      pop\n      pop\n      jump\t// out\n        /* \"#utility.yul\":4410:4739   */\n    tag_40:\n        /* \"#utility.yul\":4469:4475   */\n      0x00\n        /* \"#utility.yul\":4518:4520   */\n      0x20\n        /* \"#utility.yul\":4506:4515   */\n      dup3\n        /* \"#utility.yul\":4497:4504   */\n      dup5\n        /* \"#utility.yul\":4493:4516   */\n      sub\n        /* \"#utility.yul\":4489:4521   */\n      slt\n        /* \"#utility.yul\":4486:4605   */\n      iszero\n      tag_426\n      jumpi\n        /* \"#utility.yul\":4524:4603   */\n      tag_427\n      tag_308\n      jump\t// in\n    tag_427:\n        /* \"#utility.yul\":4486:4605   */\n    tag_426:\n        /* \"#utility.yul\":4644:4645   */\n      0x00\n        /* \"#utility.yul\":4669:4722   */\n      tag_428\n        /* \"#utility.yul\":4714:4721   */\n      dup5\n        /* \"#utility.yul\":4705:4711   */\n      dup3\n        /* \"#utility.yul\":4694:4703   */\n      dup6\n        /* \"#utility.yul\":4690:4712   */\n      add\n        /* \"#utility.yul\":4669:4722   */\n      tag_327\n      jump\t// in\n    tag_428:\n        /* \"#utility.yul\":4659:4722   */\n      swap2\n      pop\n        /* \"#utility.yul\":4615:4732   */\n      pop\n        /* \"#utility.yul\":4410:4739   */\n      swap3\n      swap2\n      pop\n      pop\n      jump\t// out\n        /* \"#utility.yul\":4745:4863   */\n    tag_328:\n        /* \"#utility.yul\":4832:4856   */\n      tag_430\n        /* \"#utility.yul\":4850:4855   */\n      dup2\n        /* \"#utility.yul\":4832:4856   */\n      tag_321\n      jump\t// in\n    tag_430:\n        /* \"#utility.yul\":4827:4830   */\n      dup3\n        /* \"#utility.yul\":4820:4857   */\n      mstore\n        /* \"#utility.yul\":4745:4863   */\n      pop\n      pop\n      jump\t// out\n        /* \"#utility.yul\":4869:5091   */\n    tag_43:\n        /* \"#utility.yul\":4962:4966   */\n      0x00\n        /* \"#utility.yul\":5000:5002   */\n      0x20\n        /* \"#utility.yul\":4989:4998   */\n      dup3\n        /* \"#utility.yul\":4985:5003   */\n      add\n        /* \"#utility.yul\":4977:5003   */\n      swap1\n      pop\n        /* \"#utility.yul\":5013:5084   */\n      tag_432\n        /* \"#utility.yul\":5081:5082   */\n      0x00\n        /* \"#utility.yul\":5070:5079   */\n      dup4\n        /* \"#utility.yul\":5066:5083   */\n      add\n        /* \"#utility.yul\":5057:5063   */\n      dup5\n        /* \"#utility.yul\":5013:5084   */\n      tag_328\n      jump\t// in\n    tag_432:\n        /* \"#utility.yul\":4869:5091   */\n      swap3\n      swap2\n      pop\n      pop\n      jump\t// out\n        /* \"#utility.yul\":5097:5571   */\n    tag_46:\n        /* \"#utility.yul\":5165:5171   */\n      0x00\n        /* \"#utility.yul\":5173:5179   */\n      dup1\n        /* \"#utility.yul\":5222:5224   */\n      0x40\n        /* \"#utility.yul\":5210:5219   */\n      dup4\n        /* \"#utility.yul\":5201:5208   */\n      dup6\n        /* \"#utility.yul\":5197:5220   */\n      sub\n        /* \"#utility.yul\":5193:5225   */\n      slt\n        /* \"#utility.yul\":5190:5309   */\n      iszero\n      tag_434\n      jumpi\n        /* \"#utility.yul\":5228:5307   */\n      tag_435\n      tag_308\n      jump\t// in\n    tag_435:\n        /* \"#utility.yul\":5190:5309   */\n    tag_434:\n        /* \"#utility.yul\":5348:5349   */\n      0x00\n        /* \"#utility.yul\":5373:5426   */\n      tag_436\n        /* \"#utility.yul\":5418:5425   */\n      dup6\n        /* \"#utility.yul\":5409:5415   */\n      dup3\n        /* \"#utility.yul\":5398:5407   */\n      dup7\n        /* \"#utility.yul\":5394:5416   */\n      add\n        /* \"#utility.yul\":5373:5426   */\n      tag_323\n      jump\t// in\n    tag_436:\n        /* \"#utility.yul\":5363:5426   */\n      swap3\n      pop\n        /* \"#utility.yul\":5319:5436   */\n      pop\n        /* \"#utility.yul\":5475:5477   */\n      0x20\n        /* \"#utility.yul\":5501:5554   */\n      tag_437\n        /* \"#utility.yul\":5546:5553   */\n      dup6\n        /* \"#utility.yul\":5537:5543   */\n      dup3\n        /* \"#utility.yul\":5526:5535   */\n      dup7\n        /* \"#utility.yul\":5522:5544   */\n      add\n        /* \"#utility.yul\":5501:5554   */\n      tag_327\n      jump\t// in\n    tag_437:\n        /* \"#utility.yul\":5491:5554   */\n      swap2\n      pop\n        /* \"#utility.yul\":5446:5564   */\n      pop\n        /* \"#utility.yul\":5097:5571   */\n      swap3\n      pop\n      swap3\n      swap1\n      pop\n      jump\t// out\n        /* \"#utility.yul\":5577:6196   */\n    tag_50:\n        /* \"#utility.yul\":5654:5660   */\n      0x00\n        /* \"#utility.yul\":5662:5668   */\n      dup1\n        /* \"#utility.yul\":5670:5676   */\n      0x00\n        /* \"#utility.yul\":5719:5721   */\n      0x60\n        /* \"#utility.yul\":5707:5716   */\n      dup5\n        /* \"#utility.yul\":5698:5705   */\n      dup7\n        /* \"#utility.yul\":5694:5717   */\n      sub\n        /* \"#utility.yul\":5690:5722   */\n      slt\n        /* \"#utility.yul\":5687:5806   */\n      iszero\n      tag_439\n      jumpi\n        /* \"#utility.yul\":5725:5804   */\n      tag_440\n      tag_308\n      jump\t// in\n    tag_440:\n        /* \"#utility.yul\":5687:5806   */\n    tag_439:\n        /* \"#utility.yul\":5845:5846   */\n      0x00\n        /* \"#utility.yul\":5870:5923   */\n      tag_441\n        /* \"#utility.yul\":5915:5922   */\n      dup7\n        /* \"#utility.yul\":5906:5912   */\n      dup3\n        /* \"#utility.yul\":5895:5904   */\n      dup8\n        /* \"#utility.yul\":5891:5913   */\n      add\n        /* \"#utility.yul\":5870:5923   */\n      tag_323\n      jump\t// in\n    tag_441:\n        /* \"#utility.yul\":5860:5923   */\n      swap4\n      pop\n        /* \"#utility.yul\":5816:5933   */\n      pop\n        /* \"#utility.yul\":5972:5974   */\n      0x20\n        /* \"#utility.yul\":5998:6051   */\n      tag_442\n        /* \"#utility.yul\":6043:6050   */\n      dup7\n        /* \"#utility.yul\":6034:6040   */\n      dup3\n        /* \"#utility.yul\":6023:6032   */\n      dup8\n        /* \"#utility.yul\":6019:6041   */\n      add\n        /* \"#utility.yul\":5998:6051   */\n      tag_323\n      jump\t// in\n    tag_442:\n        /* \"#utility.yul\":5988:6051   */\n      swap3\n      pop\n        /* \"#utility.yul\":5943:6061   */\n      pop\n        /* \"#utility.yul\":6100:6102   */\n      0x40\n        /* \"#utility.yul\":6126:6179   */\n      tag_443\n        /* \"#utility.yul\":6171:6178   */\n      dup7\n        /* \"#utility.yul\":6162:6168   */\n      dup3\n        /* \"#utility.yul\":6151:6160   */\n      dup8\n        /* \"#utility.yul\":6147:6169   */\n      add\n        /* \"#utility.yul\":6126:6179   */\n      tag_327\n      jump\t// in\n    tag_443:\n        /* \"#utility.yul\":6116:6179   */\n      swap2\n      pop\n        /* \"#utility.yul\":6071:6189   */\n      pop\n        /* \"#utility.yul\":5577:6196   */\n      swap3\n      pop\n      swap3\n      pop\n      swap3\n      jump\t// out\n        /* \"#utility.yul\":6202:6318   */\n    tag_329:\n        /* \"#utility.yul\":6272:6293   */\n      tag_445\n        /* \"#utility.yul\":6287:6292   */\n      dup2\n        /* \"#utility.yul\":6272:6293   */\n      tag_313\n      jump\t// in\n    tag_445:\n        /* \"#utility.yul\":6265:6270   */\n      dup2\n        /* \"#utility.yul\":6262:6294   */\n      eq\n        /* \"#utility.yul\":6252:6312   */\n      tag_446\n      jumpi\n        /* \"#utility.yul\":6308:6309   */\n      0x00\n        /* \"#utility.yul\":6305:6306   */\n      dup1\n        /* \"#utility.yul\":6298:6310   */\n      revert\n        /* \"#utility.yul\":6252:6312   */\n    tag_446:\n        /* \"#utility.yul\":6202:6318   */\n      pop\n      jump\t// out\n        /* \"#utility.yul\":6324:6457   */\n    tag_330:\n        /* \"#utility.yul\":6367:6372   */\n      0x00\n        /* \"#utility.yul\":6405:6411   */\n      dup2\n        /* \"#utility.yul\":6392:6412   */\n      calldataload\n        /* \"#utility.yul\":6383:6412   */\n      swap1\n      pop\n        /* \"#utility.yul\":6421:6451   */\n      tag_448\n        /* \"#utility.yul\":6445:6450   */\n      dup2\n        /* \"#utility.yul\":6421:6451   */\n      tag_329\n      jump\t// in\n    tag_448:\n        /* \"#utility.yul\":6324:6457   */\n      swap3\n      swap2\n      pop\n      pop\n      jump\t// out\n        /* \"#utility.yul\":6463:6931   */\n    tag_54:\n        /* \"#utility.yul\":6528:6534   */\n      0x00\n        /* \"#utility.yul\":6536:6542   */\n      dup1\n        /* \"#utility.yul\":6585:6587   */\n      0x40\n        /* \"#utility.yul\":6573:6582   */\n      dup4\n        /* \"#utility.yul\":6564:6571   */\n      dup6\n        /* \"#utility.yul\":6560:6583   */\n      sub\n        /* \"#utility.yul\":6556:6588   */\n      slt\n        /* \"#utility.yul\":6553:6672   */\n      iszero\n      tag_450\n      jumpi\n        /* \"#utility.yul\":6591:6670   */\n      tag_451\n      tag_308\n      jump\t// in\n    tag_451:\n        /* \"#utility.yul\":6553:6672   */\n    tag_450:\n        /* \"#utility.yul\":6711:6712   */\n      0x00\n        /* \"#utility.yul\":6736:6789   */\n      tag_452\n        /* \"#utility.yul\":6781:6788   */\n      dup6\n        /* \"#utility.yul\":6772:6778   */\n      dup3\n        /* \"#utility.yul\":6761:6770   */\n      dup7\n        /* \"#utility.yul\":6757:6779   */\n      add\n        /* \"#utility.yul\":6736:6789   */\n      tag_327\n      jump\t// in\n    tag_452:\n        /* \"#utility.yul\":6726:6789   */\n      swap3\n      pop\n        /* \"#utility.yul\":6682:6799   */\n      pop\n        /* \"#utility.yul\":6838:6840   */\n      0x20\n        /* \"#utility.yul\":6864:6914   */\n      tag_453\n        /* \"#utility.yul\":6906:6913   */\n      dup6\n        /* \"#utility.yul\":6897:6903   */\n      dup3\n        /* \"#utility.yul\":6886:6895   */\n      dup7\n        /* \"#utility.yul\":6882:6904   */\n      add\n        /* \"#utility.yul\":6864:6914   */\n      tag_330\n      jump\t// in\n    tag_453:\n        /* \"#utility.yul\":6854:6914   */\n      swap2\n      pop\n        /* \"#utility.yul\":6809:6924   */\n      pop\n        /* \"#utility.yul\":6463:6931   */\n      swap3\n      pop\n      swap3\n      swap1\n      pop\n      jump\t// out\n        /* \"#utility.yul\":6937:7405   */\n    tag_76:\n        /* \"#utility.yul\":7002:7008   */\n      0x00\n        /* \"#utility.yul\":7010:7016   */\n      dup1\n        /* \"#utility.yul\":7059:7061   */\n      0x40\n        /* \"#utility.yul\":7047:7056   */\n      dup4\n        /* \"#utility.yul\":7038:7045   */\n      dup6\n        /* \"#utility.yul\":7034:7057   */\n      sub\n        /* \"#utility.yul\":7030:7062   */\n      slt\n        /* \"#utility.yul\":7027:7146   */\n      iszero\n      tag_455\n      jumpi\n        /* \"#utility.yul\":7065:7144   */\n      tag_456\n      tag_308\n      jump\t// in\n    tag_456:\n        /* \"#utility.yul\":7027:7146   */\n    tag_455:\n        /* \"#utility.yul\":7185:7186   */\n      0x00\n        /* \"#utility.yul\":7210:7263   */\n      tag_457\n        /* \"#utility.yul\":7255:7262   */\n      dup6\n        /* \"#utility.yul\":7246:7252   */\n      dup3\n        /* \"#utility.yul\":7235:7244   */\n      dup7\n        /* \"#utility.yul\":7231:7253   */\n      add\n        /* \"#utility.yul\":7210:7263   */\n      tag_323\n      jump\t// in\n    tag_457:\n        /* \"#utility.yul\":7200:7263   */\n      swap3\n      pop\n        /* \"#utility.yul\":7156:7273   */\n      pop\n        /* \"#utility.yul\":7312:7314   */\n      0x20\n        /* \"#utility.yul\":7338:7388   */\n      tag_458\n        /* \"#utility.yul\":7380:7387   */\n      dup6\n        /* \"#utility.yul\":7371:7377   */\n      dup3\n        /* \"#utility.yul\":7360:7369   */\n      dup7\n        /* \"#utility.yul\":7356:7378   */\n      add\n        /* \"#utility.yul\":7338:7388   */\n      tag_330\n      jump\t// in\n    tag_458:\n        /* \"#utility.yul\":7328:7388   */\n      swap2\n      pop\n        /* \"#utility.yul\":7283:7398   */\n      pop\n        /* \"#utility.yul\":6937:7405   */\n      swap3\n      pop\n      swap3\n      swap1\n      pop\n      jump\t// out\n        /* \"#utility.yul\":7411:7528   */\n    tag_331:\n        /* \"#utility.yul\":7520:7521   */\n      0x00\n        /* \"#utility.yul\":7517:7518   */\n      dup1\n        /* \"#utility.yul\":7510:7522   */\n      revert\n        /* \"#utility.yul\":7534:7651   */\n    tag_332:\n        /* \"#utility.yul\":7643:7644   */\n      0x00\n        /* \"#utility.yul\":7640:7641   */\n      dup1\n        /* \"#utility.yul\":7633:7645   */\n      revert\n        /* \"#utility.yul\":7657:7837   */\n    tag_253:\n        /* \"#utility.yul\":7705:7782   */\n      0x4e487b7100000000000000000000000000000000000000000000000000000000\n        /* \"#utility.yul\":7702:7703   */\n      0x00\n        /* \"#utility.yul\":7695:7783   */\n      mstore\n        /* \"#utility.yul\":7802:7806   */\n      0x41\n        /* \"#utility.yul\":7799:7800   */\n      0x04\n        /* \"#utility.yul\":7792:7807   */\n      mstore\n        /* \"#utility.yul\":7826:7830   */\n      0x24\n        /* \"#utility.yul\":7823:7824   */\n      0x00\n        /* \"#utility.yul\":7816:7831   */\n      revert\n        /* \"#utility.yul\":7843:8124   */\n    tag_333:\n        /* \"#utility.yul\":7926:7953   */\n      tag_463\n        /* \"#utility.yul\":7948:7952   */\n      dup3\n        /* \"#utility.yul\":7926:7953   */\n      tag_318\n      jump\t// in\n    tag_463:\n        /* \"#utility.yul\":7918:7924   */\n      dup2\n        /* \"#utility.yul\":7914:7954   */\n      add\n        /* \"#utility.yul\":8056:8062   */\n      dup2\n        /* \"#utility.yul\":8044:8054   */\n      dup2\n        /* \"#utility.yul\":8041:8063   */\n      lt\n        /* \"#utility.yul\":8020:8038   */\n      0xffffffffffffffff\n        /* \"#utility.yul\":8008:8018   */\n      dup3\n        /* \"#utility.yul\":8005:8039   */\n      gt\n        /* \"#utility.yul\":8002:8064   */\n      or\n        /* \"#utility.yul\":7999:8087   */\n      iszero\n      tag_464\n      jumpi\n        /* \"#utility.yul\":8067:8085   */\n      tag_465\n      tag_253\n      jump\t// in\n    tag_465:\n        /* \"#utility.yul\":7999:8087   */\n    tag_464:\n        /* \"#utility.yul\":8107:8117   */\n      dup1\n        /* \"#utility.yul\":8103:8105   */\n      0x40\n        /* \"#utility.yul\":8096:8118   */\n      mstore\n        /* \"#utility.yul\":7886:8124   */\n      pop\n        /* \"#utility.yul\":7843:8124   */\n      pop\n      pop\n      jump\t// out\n        /* \"#utility.yul\":8130:8259   */\n    tag_334:\n        /* \"#utility.yul\":8164:8170   */\n      0x00\n        /* \"#utility.yul\":8191:8211   */\n      tag_467\n      tag_307\n      jump\t// in\n    tag_467:\n        /* \"#utility.yul\":8181:8211   */\n      swap1\n      pop\n        /* \"#utility.yul\":8220:8253   */\n      tag_468\n        /* \"#utility.yul\":8248:8252   */\n      dup3\n        /* \"#utility.yul\":8240:8246   */\n      dup3\n        /* \"#utility.yul\":8220:8253   */\n      tag_333\n      jump\t// in\n    tag_468:\n        /* \"#utility.yul\":8130:8259   */\n      swap2\n      swap1\n      pop\n      jump\t// out\n        /* \"#utility.yul\":8265:8572   */\n    tag_335:\n        /* \"#utility.yul\":8326:8330   */\n      0x00\n        /* \"#utility.yul\":8416:8434   */\n      0xffffffffffffffff\n        /* \"#utility.yul\":8408:8414   */\n      dup3\n        /* \"#utility.yul\":8405:8435   */\n      gt\n        /* \"#utility.yul\":8402:8458   */\n      iszero\n      tag_470\n      jumpi\n        /* \"#utility.yul\":8438:8456   */\n      tag_471\n      tag_253\n      jump\t// in\n    tag_471:\n        /* \"#utility.yul\":8402:8458   */\n    tag_470:\n        /* \"#utility.yul\":8476:8505   */\n      tag_472\n        /* \"#utility.yul\":8498:8504   */\n      dup3\n        /* \"#utility.yul\":8476:8505   */\n      tag_318\n      jump\t// in\n    tag_472:\n        /* \"#utility.yul\":8468:8505   */\n      swap1\n      pop\n        /* \"#utility.yul\":8560:8564   */\n      0x20\n        /* \"#utility.yul\":8554:8558   */\n      dup2\n        /* \"#utility.yul\":8550:8565   */\n      add\n        /* \"#utility.yul\":8542:8565   */\n      swap1\n      pop\n        /* \"#utility.yul\":8265:8572   */\n      swap2\n      swap1\n      pop\n      jump\t// out\n        /* \"#utility.yul\":8578:8724   */\n    tag_336:\n        /* \"#utility.yul\":8675:8681   */\n      dup3\n        /* \"#utility.yul\":8670:8673   */\n      dup2\n        /* \"#utility.yul\":8665:8668   */\n      dup4\n        /* \"#utility.yul\":8652:8682   */\n      calldatacopy\n        /* \"#utility.yul\":8716:8717   */\n      0x00\n        /* \"#utility.yul\":8707:8713   */\n      dup4\n        /* \"#utility.yul\":8702:8705   */\n      dup4\n        /* \"#utility.yul\":8698:8714   */\n      add\n        /* \"#utility.yul\":8691:8718   */\n      mstore\n        /* \"#utility.yul\":8578:8724   */\n      pop\n      pop\n      pop\n      jump\t// out\n        /* \"#utility.yul\":8730:9153   */\n    tag_337:\n        /* \"#utility.yul\":8807:8812   */\n      0x00\n        /* \"#utility.yul\":8832:8897   */\n      tag_475\n        /* \"#utility.yul\":8848:8896   */\n      tag_476\n        /* \"#utility.yul\":8889:8895   */\n      dup5\n        /* \"#utility.yul\":8848:8896   */\n      tag_335\n      jump\t// in\n    tag_476:\n        /* \"#utility.yul\":8832:8897   */\n      tag_334\n      jump\t// in\n    tag_475:\n        /* \"#utility.yul\":8823:8897   */\n      swap1\n      pop\n        /* \"#utility.yul\":8920:8926   */\n      dup3\n        /* \"#utility.yul\":8913:8918   */\n      dup2\n        /* \"#utility.yul\":8906:8927   */\n      mstore\n        /* \"#utility.yul\":8958:8962   */\n      0x20\n        /* \"#utility.yul\":8951:8956   */\n      dup2\n        /* \"#utility.yul\":8947:8963   */\n      add\n        /* \"#utility.yul\":8996:8999   */\n      dup5\n        /* \"#utility.yul\":8987:8993   */\n      dup5\n        /* \"#utility.yul\":8982:8985   */\n      dup5\n        /* \"#utility.yul\":8978:8994   */\n      add\n        /* \"#utility.yul\":8975:9000   */\n      gt\n        /* \"#utility.yul\":8972:9084   */\n      iszero\n      tag_477\n      jumpi\n        /* \"#utility.yul\":9003:9082   */\n      tag_478\n      tag_332\n      jump\t// in\n    tag_478:\n        /* \"#utility.yul\":8972:9084   */\n    tag_477:\n        /* \"#utility.yul\":9093:9147   */\n      tag_479\n        /* \"#utility.yul\":9140:9146   */\n      dup5\n        /* \"#utility.yul\":9135:9138   */\n      dup3\n        /* \"#utility.yul\":9130:9133   */\n      dup6\n        /* \"#utility.yul\":9093:9147   */\n      tag_336\n      jump\t// in\n    tag_479:\n        /* \"#utility.yul\":8813:9153   */\n      pop\n        /* \"#utility.yul\":8730:9153   */\n      swap4\n      swap3\n      pop\n      pop\n      pop\n      jump\t// out\n        /* \"#utility.yul\":9172:9510   */\n    tag_338:\n        /* \"#utility.yul\":9227:9232   */\n      0x00\n        /* \"#utility.yul\":9276:9279   */\n      dup3\n        /* \"#utility.yul\":9269:9273   */\n      0x1f\n        /* \"#utility.yul\":9261:9267   */\n      dup4\n        /* \"#utility.yul\":9257:9274   */\n      add\n        /* \"#utility.yul\":9253:9280   */\n      slt\n        /* \"#utility.yul\":9243:9365   */\n      tag_481\n      jumpi\n        /* \"#utility.yul\":9284:9363   */\n      tag_482\n      tag_331\n      jump\t// in\n    tag_482:\n        /* \"#utility.yul\":9243:9365   */\n    tag_481:\n        /* \"#utility.yul\":9401:9407   */\n      dup2\n        /* \"#utility.yul\":9388:9408   */\n      calldataload\n        /* \"#utility.yul\":9426:9504   */\n      tag_483\n        /* \"#utility.yul\":9500:9503   */\n      dup5\n        /* \"#utility.yul\":9492:9498   */\n      dup3\n        /* \"#utility.yul\":9485:9489   */\n      0x20\n        /* \"#utility.yul\":9477:9483   */\n      dup7\n        /* \"#utility.yul\":9473:9490   */\n      add\n        /* \"#utility.yul\":9426:9504   */\n      tag_337\n      jump\t// in\n    tag_483:\n        /* \"#utility.yul\":9417:9504   */\n      swap2\n      pop\n        /* \"#utility.yul\":9233:9510   */\n      pop\n        /* \"#utility.yul\":9172:9510   */\n      swap3\n      swap2\n      pop\n      pop\n      jump\t// out\n        /* \"#utility.yul\":9516:10459   */\n    tag_80:\n        /* \"#utility.yul\":9611:9617   */\n      0x00\n        /* \"#utility.yul\":9619:9625   */\n      dup1\n        /* \"#utility.yul\":9627:9633   */\n      0x00\n        /* \"#utility.yul\":9635:9641   */\n      dup1\n        /* \"#utility.yul\":9684:9687   */\n      0x80\n        /* \"#utility.yul\":9672:9681   */\n      dup6\n        /* \"#utility.yul\":9663:9670   */\n      dup8\n        /* \"#utility.yul\":9659:9682   */\n      sub\n        /* \"#utility.yul\":9655:9688   */\n      slt\n        /* \"#utility.yul\":9652:9772   */\n      iszero\n      tag_485\n      jumpi\n        /* \"#utility.yul\":9691:9770   */\n      tag_486\n      tag_308\n      jump\t// in\n    tag_486:\n        /* \"#utility.yul\":9652:9772   */\n    tag_485:\n        /* \"#utility.yul\":9811:9812   */\n      0x00\n        /* \"#utility.yul\":9836:9889   */\n      tag_487\n        /* \"#utility.yul\":9881:9888   */\n      dup8\n        /* \"#utility.yul\":9872:9878   */\n      dup3\n        /* \"#utility.yul\":9861:9870   */\n      dup9\n        /* \"#utility.yul\":9857:9879   */\n      add\n        /* \"#utility.yul\":9836:9889   */\n      tag_323\n      jump\t// in\n    tag_487:\n        /* \"#utility.yul\":9826:9889   */\n      swap5\n      pop\n        /* \"#utility.yul\":9782:9899   */\n      pop\n        /* \"#utility.yul\":9938:9940   */\n      0x20\n        /* \"#utility.yul\":9964:10017   */\n      tag_488\n        /* \"#utility.yul\":10009:10016   */\n      dup8\n        /* \"#utility.yul\":10000:10006   */\n      dup3\n        /* \"#utility.yul\":9989:9998   */\n      dup9\n        /* \"#utility.yul\":9985:10007   */\n      add\n        /* \"#utility.yul\":9964:10017   */\n      tag_323\n      jump\t// in\n    tag_488:\n        /* \"#utility.yul\":9954:10017   */\n      swap4\n      pop\n        /* \"#utility.yul\":9909:10027   */\n      pop\n        /* \"#utility.yul\":10066:10068   */\n      0x40\n        /* \"#utility.yul\":10092:10145   */\n      tag_489\n        /* \"#utility.yul\":10137:10144   */\n      dup8\n        /* \"#utility.yul\":10128:10134   */\n      dup3\n        /* \"#utility.yul\":10117:10126   */\n      dup9\n        /* \"#utility.yul\":10113:10135   */\n      add\n        /* \"#utility.yul\":10092:10145   */\n      tag_327\n      jump\t// in\n    tag_489:\n        /* \"#utility.yul\":10082:10145   */\n      swap3\n      pop\n        /* \"#utility.yul\":10037:10155   */\n      pop\n        /* \"#utility.yul\":10222:10224   */\n      0x60\n        /* \"#utility.yul\":10211:10220   */\n      dup6\n        /* \"#utility.yul\":10207:10225   */\n      add\n        /* \"#utility.yul\":10194:10226   */\n      calldataload\n        /* \"#utility.yul\":10253:10271   */\n      0xffffffffffffffff\n        /* \"#utility.yul\":10245:10251   */\n      dup2\n        /* \"#utility.yul\":10242:10272   */\n      gt\n        /* \"#utility.yul\":10239:10356   */\n      iszero\n      tag_490\n      jumpi\n        /* \"#utility.yul\":10275:10354   */\n      tag_491\n      tag_309\n      jump\t// in\n    tag_491:\n        /* \"#utility.yul\":10239:10356   */\n    tag_490:\n        /* \"#utility.yul\":10380:10442   */\n      tag_492\n        /* \"#utility.yul\":10434:10441   */\n      dup8\n        /* \"#utility.yul\":10425:10431   */\n      dup3\n        /* \"#utility.yul\":10414:10423   */\n      dup9\n        /* \"#utility.yul\":10410:10432   */\n      add\n        /* \"#utility.yul\":10380:10442   */\n      tag_338\n      jump\t// in\n    tag_492:\n        /* \"#utility.yul\":10370:10442   */\n      swap2\n      pop\n        /* \"#utility.yul\":10165:10452   */\n      pop\n        /* \"#utility.yul\":9516:10459   */\n      swap3\n      swap6\n      swap2\n      swap5\n      pop\n      swap3\n      pop\n      jump\t// out\n        /* \"#utility.yul\":10465:10939   */\n    tag_88:\n        /* \"#utility.yul\":10533:10539   */\n      0x00\n        /* \"#utility.yul\":10541:10547   */\n      dup1\n        /* \"#utility.yul\":10590:10592   */\n      0x40\n        /* \"#utility.yul\":10578:10587   */\n      dup4\n        /* \"#utility.yul\":10569:10576   */\n      dup6\n        /* \"#utility.yul\":10565:10588   */\n      sub\n        /* \"#utility.yul\":10561:10593   */\n      slt\n        /* \"#utility.yul\":10558:10677   */\n      iszero\n      tag_494\n      jumpi\n        /* \"#utility.yul\":10596:10675   */\n      tag_495\n      tag_308\n      jump\t// in\n    tag_495:\n        /* \"#utility.yul\":10558:10677   */\n    tag_494:\n        /* \"#utility.yul\":10716:10717   */\n      0x00\n        /* \"#utility.yul\":10741:10794   */\n      tag_496\n        /* \"#utility.yul\":10786:10793   */\n      dup6\n        /* \"#utility.yul\":10777:10783   */\n      dup3\n        /* \"#utility.yul\":10766:10775   */\n      dup7\n        /* \"#utility.yul\":10762:10784   */\n      add\n        /* \"#utility.yul\":10741:10794   */\n      tag_323\n      jump\t// in\n    tag_496:\n        /* \"#utility.yul\":10731:10794   */\n      swap3\n      pop\n        /* \"#utility.yul\":10687:10804   */\n      pop\n        /* \"#utility.yul\":10843:10845   */\n      0x20\n        /* \"#utility.yul\":10869:10922   */\n      tag_497\n        /* \"#utility.yul\":10914:10921   */\n      dup6\n        /* \"#utility.yul\":10905:10911   */\n      dup3\n        /* \"#utility.yul\":10894:10903   */\n      dup7\n        /* \"#utility.yul\":10890:10912   */\n      add\n        /* \"#utility.yul\":10869:10922   */\n      tag_323\n      jump\t// in\n    tag_497:\n        /* \"#utility.yul\":10859:10922   */\n      swap2\n      pop\n        /* \"#utility.yul\":10814:10932   */\n      pop\n        /* \"#utility.yul\":10465:10939   */\n      swap3\n      pop\n      swap3\n      swap1\n      pop\n      jump\t// out\n        /* \"#utility.yul\":10945:11125   */\n    tag_339:\n        /* \"#utility.yul\":10993:11070   */\n      0x4e487b7100000000000000000000000000000000000000000000000000000000\n        /* \"#utility.yul\":10990:10991   */\n      0x00\n        /* \"#utility.yul\":10983:11071   */\n      mstore\n        /* \"#utility.yul\":11090:11094   */\n      0x22\n        /* \"#utility.yul\":11087:11088   */\n      0x04\n        /* \"#utility.yul\":11080:11095   */\n      mstore\n        /* \"#utility.yul\":11114:11118   */\n      0x24\n        /* \"#utility.yul\":11111:11112   */\n      0x00\n        /* \"#utility.yul\":11104:11119   */\n      revert\n        /* \"#utility.yul\":11131:11451   */\n    tag_98:\n        /* \"#utility.yul\":11175:11181   */\n      0x00\n        /* \"#utility.yul\":11212:11213   */\n      0x02\n        /* \"#utility.yul\":11206:11210   */\n      dup3\n        /* \"#utility.yul\":11202:11214   */\n      div\n        /* \"#utility.yul\":11192:11214   */\n      swap1\n      pop\n        /* \"#utility.yul\":11259:11260   */\n      0x01\n        /* \"#utility.yul\":11253:11257   */\n      dup3\n        /* \"#utility.yul\":11249:11261   */\n      and\n        /* \"#utility.yul\":11280:11298   */\n      dup1\n        /* \"#utility.yul\":11270:11351   */\n      tag_500\n      jumpi\n        /* \"#utility.yul\":11336:11340   */\n      0x7f\n        /* \"#utility.yul\":11328:11334   */\n      dup3\n        /* \"#utility.yul\":11324:11341   */\n      and\n        /* \"#utility.yul\":11314:11341   */\n      swap2\n      pop\n        /* \"#utility.yul\":11270:11351   */\n    tag_500:\n        /* \"#utility.yul\":11398:11400   */\n      0x20\n        /* \"#utility.yul\":11390:11396   */\n      dup3\n        /* \"#utility.yul\":11387:11401   */\n      lt\n        /* \"#utility.yul\":11367:11385   */\n      dup2\n        /* \"#utility.yul\":11364:11402   */\n      sub\n        /* \"#utility.yul\":11361:11445   */\n      tag_501\n      jumpi\n        /* \"#utility.yul\":11417:11435   */\n      tag_502\n      tag_339\n      jump\t// in\n    tag_502:\n        /* \"#utility.yul\":11361:11445   */\n    tag_501:\n        /* \"#utility.yul\":11182:11451   */\n      pop\n        /* \"#utility.yul\":11131:11451   */\n      swap2\n      swap1\n      pop\n      jump\t// out\n        /* \"#utility.yul\":11457:11677   */\n    tag_340:\n        /* \"#utility.yul\":11597:11631   */\n      0x4552433732313a20617070726f76616c20746f2063757272656e74206f776e65\n        /* \"#utility.yul\":11593:11594   */\n      0x00\n        /* \"#utility.yul\":11585:11591   */\n      dup3\n        /* \"#utility.yul\":11581:11595   */\n      add\n        /* \"#utility.yul\":11574:11632   */\n      mstore\n        /* \"#utility.yul\":11666:11669   */\n      0x7200000000000000000000000000000000000000000000000000000000000000\n        /* \"#utility.yul\":11661:11663   */\n      0x20\n        /* \"#utility.yul\":11653:11659   */\n      dup3\n        /* \"#utility.yul\":11649:11664   */\n      add\n        /* \"#utility.yul\":11642:11670   */\n      mstore\n        /* \"#utility.yul\":11457:11677   */\n      pop\n      jump\t// out\n        /* \"#utility.yul\":11683:12049   */\n    tag_341:\n        /* \"#utility.yul\":11825:11828   */\n      0x00\n        /* \"#utility.yul\":11846:11913   */\n      tag_505\n        /* \"#utility.yul\":11910:11912   */\n      0x21\n        /* \"#utility.yul\":11905:11908   */\n      dup4\n        /* \"#utility.yul\":11846:11913   */\n      tag_316\n      jump\t// in\n    tag_505:\n        /* \"#utility.yul\":11839:11913   */\n      swap2\n      pop\n        /* \"#utility.yul\":11922:12015   */\n      tag_506\n        /* \"#utility.yul\":12011:12014   */\n      dup3\n        /* \"#utility.yul\":11922:12015   */\n      tag_340\n      jump\t// in\n    tag_506:\n        /* \"#utility.yul\":12040:12042   */\n      0x40\n        /* \"#utility.yul\":12035:12038   */\n      dup3\n        /* \"#utility.yul\":12031:12043   */\n      add\n        /* \"#utility.yul\":12024:12043   */\n      swap1\n      pop\n        /* \"#utility.yul\":11683:12049   */\n      swap2\n      swap1\n      pop\n      jump\t// out\n        /* \"#utility.yul\":12055:12474   */\n    tag_111:\n        /* \"#utility.yul\":12221:12225   */\n      0x00\n        /* \"#utility.yul\":12259:12261   */\n      0x20\n        /* \"#utility.yul\":12248:12257   */\n      dup3\n        /* \"#utility.yul\":12244:12262   */\n      add\n        /* \"#utility.yul\":12236:12262   */\n      swap1\n      pop\n        /* \"#utility.yul\":12308:12317   */\n      dup2\n        /* \"#utility.yul\":12302:12306   */\n      dup2\n        /* \"#utility.yul\":12298:12318   */\n      sub\n        /* \"#utility.yul\":12294:12295   */\n      0x00\n        /* \"#utility.yul\":12283:12292   */\n      dup4\n        /* \"#utility.yul\":12279:12296   */\n      add\n        /* \"#utility.yul\":12272:12319   */\n      mstore\n        /* \"#utility.yul\":12336:12467   */\n      tag_508\n        /* \"#utility.yul\":12462:12466   */\n      dup2\n        /* \"#utility.yul\":12336:12467   */\n      tag_341\n      jump\t// in\n    tag_508:\n        /* \"#utility.yul\":12328:12467   */\n      swap1\n      pop\n        /* \"#utility.yul\":12055:12474   */\n      swap2\n      swap1\n      pop\n      jump\t// out\n        /* \"#utility.yul\":12480:12728   */\n    tag_342:\n        /* \"#utility.yul\":12620:12654   */\n      0x4552433732313a20617070726f76652063616c6c6572206973206e6f7420746f\n        /* \"#utility.yul\":12616:12617   */\n      0x00\n        /* \"#utility.yul\":12608:12614   */\n      dup3\n        /* \"#utility.yul\":12604:12618   */\n      add\n        /* \"#utility.yul\":12597:12655   */\n      mstore\n        /* \"#utility.yul\":12689:12720   */\n      0x6b656e206f776e6572206f7220617070726f76656420666f7220616c6c000000\n        /* \"#utility.yul\":12684:12686   */\n      0x20\n        /* \"#utility.yul\":12676:12682   */\n      dup3\n        /* \"#utility.yul\":12672:12687   */\n      add\n        /* \"#utility.yul\":12665:12721   */\n      mstore\n        /* \"#utility.yul\":12480:12728   */\n      pop\n      jump\t// out\n        /* \"#utility.yul\":12734:13100   */\n    tag_343:\n        /* \"#utility.yul\":12876:12879   */\n      0x00\n        /* \"#utility.yul\":12897:12964   */\n      tag_511\n        /* \"#utility.yul\":12961:12963   */\n      0x3d\n        /* \"#utility.yul\":12956:12959   */\n      dup4\n        /* \"#utility.yul\":12897:12964   */\n      tag_316\n      jump\t// in\n    tag_511:\n        /* \"#utility.yul\":12890:12964   */\n      swap2\n      pop\n        /* \"#utility.yul\":12973:13066   */\n      tag_512\n        /* \"#utility.yul\":13062:13065   */\n      dup3\n        /* \"#utility.yul\":12973:13066   */\n      tag_342\n      jump\t// in\n    tag_512:\n        /* \"#utility.yul\":13091:13093   */\n      0x40\n        /* \"#utility.yul\":13086:13089   */\n      dup3\n        /* \"#utility.yul\":13082:13094   */\n      add\n        /* \"#utility.yul\":13075:13094   */\n      swap1\n      pop\n        /* \"#utility.yul\":12734:13100   */\n      swap2\n      swap1\n      pop\n      jump\t// out\n        /* \"#utility.yul\":13106:13525   */\n    tag_119:\n        /* \"#utility.yul\":13272:13276   */\n      0x00\n        /* \"#utility.yul\":13310:13312   */\n      0x20\n        /* \"#utility.yul\":13299:13308   */\n      dup3\n        /* \"#utility.yul\":13295:13313   */\n      add\n        /* \"#utility.yul\":13287:13313   */\n      swap1\n      pop\n        /* \"#utility.yul\":13359:13368   */\n      dup2\n        /* \"#utility.yul\":13353:13357   */\n      dup2\n        /* \"#utility.yul\":13349:13369   */\n      sub\n        /* \"#utility.yul\":13345:13346   */\n      0x00\n        /* \"#utility.yul\":13334:13343   */\n      dup4\n        /* \"#utility.yul\":13330:13347   */\n      add\n        /* \"#utility.yul\":13323:13370   */\n      mstore\n        /* \"#utility.yul\":13387:13518   */\n      tag_514\n        /* \"#utility.yul\":13513:13517   */\n      dup2\n        /* \"#utility.yul\":13387:13518   */\n      tag_343\n      jump\t// in\n    tag_514:\n        /* \"#utility.yul\":13379:13518   */\n      swap1\n      pop\n        /* \"#utility.yul\":13106:13525   */\n      swap2\n      swap1\n      pop\n      jump\t// out\n        /* \"#utility.yul\":13531:13701   */\n    tag_344:\n        /* \"#utility.yul\":13671:13693   */\n      0x4552433732313a20746f6b656e206c6f636b6564000000000000000000000000\n        /* \"#utility.yul\":13667:13668   */\n      0x00\n        /* \"#utility.yul\":13659:13665   */\n      dup3\n        /* \"#utility.yul\":13655:13669   */\n      add\n        /* \"#utility.yul\":13648:13694   */\n      mstore\n        /* \"#utility.yul\":13531:13701   */\n      pop\n      jump\t// out\n        /* \"#utility.yul\":13707:14073   */\n    tag_345:\n        /* \"#utility.yul\":13849:13852   */\n      0x00\n        /* \"#utility.yul\":13870:13937   */\n      tag_517\n        /* \"#utility.yul\":13934:13936   */\n      0x14\n        /* \"#utility.yul\":13929:13932   */\n      dup4\n        /* \"#utility.yul\":13870:13937   */\n      tag_316\n      jump\t// in\n    tag_517:\n        /* \"#utility.yul\":13863:13937   */\n      swap2\n      pop\n        /* \"#utility.yul\":13946:14039   */\n      tag_518\n        /* \"#utility.yul\":14035:14038   */\n      dup3\n        /* \"#utility.yul\":13946:14039   */\n      tag_344\n      jump\t// in\n    tag_518:\n        /* \"#utility.yul\":14064:14066   */\n      0x20\n        /* \"#utility.yul\":14059:14062   */\n      dup3\n        /* \"#utility.yul\":14055:14067   */\n      add\n        /* \"#utility.yul\":14048:14067   */\n      swap1\n      pop\n        /* \"#utility.yul\":13707:14073   */\n      swap2\n      swap1\n      pop\n      jump\t// out\n        /* \"#utility.yul\":14079:14498   */\n    tag_122:\n        /* \"#utility.yul\":14245:14249   */\n      0x00\n        /* \"#utility.yul\":14283:14285   */\n      0x20\n        /* \"#utility.yul\":14272:14281   */\n      dup3\n        /* \"#utility.yul\":14268:14286   */\n      add\n        /* \"#utility.yul\":14260:14286   */\n      swap1\n      pop\n        /* \"#utility.yul\":14332:14341   */\n      dup2\n        /* \"#utility.yul\":14326:14330   */\n      dup2\n        /* \"#utility.yul\":14322:14342   */\n      sub\n        /* \"#utility.yul\":14318:14319   */\n      0x00\n        /* \"#utility.yul\":14307:14316   */\n      dup4\n        /* \"#utility.yul\":14303:14320   */\n      add\n        /* \"#utility.yul\":14296:14343   */\n      mstore\n        /* \"#utility.yul\":14360:14491   */\n      tag_520\n        /* \"#utility.yul\":14486:14490   */\n      dup2\n        /* \"#utility.yul\":14360:14491   */\n      tag_345\n      jump\t// in\n    tag_520:\n        /* \"#utility.yul\":14352:14491   */\n      swap1\n      pop\n        /* \"#utility.yul\":14079:14498   */\n      swap2\n      swap1\n      pop\n      jump\t// out\n        /* \"#utility.yul\":14504:14736   */\n    tag_346:\n        /* \"#utility.yul\":14644:14678   */\n      0x4552433732313a2063616c6c6572206973206e6f7420746f6b656e206f776e65\n        /* \"#utility.yul\":14640:14641   */\n      0x00\n        /* \"#utility.yul\":14632:14638   */\n      dup3\n        /* \"#utility.yul\":14628:14642   */\n      add\n        /* \"#utility.yul\":14621:14679   */\n      mstore\n        /* \"#utility.yul\":14713:14728   */\n      0x72206f7220617070726f76656400000000000000000000000000000000000000\n        /* \"#utility.yul\":14708:14710   */\n      0x20\n        /* \"#utility.yul\":14700:14706   */\n      dup3\n        /* \"#utility.yul\":14696:14711   */\n      add\n        /* \"#utility.yul\":14689:14729   */\n      mstore\n        /* \"#utility.yul\":14504:14736   */\n      pop\n      jump\t// out\n        /* \"#utility.yul\":14742:15108   */\n    tag_347:\n        /* \"#utility.yul\":14884:14887   */\n      0x00\n        /* \"#utility.yul\":14905:14972   */\n      tag_523\n        /* \"#utility.yul\":14969:14971   */\n      0x2d\n        /* \"#utility.yul\":14964:14967   */\n      dup4\n        /* \"#utility.yul\":14905:14972   */\n      tag_316\n      jump\t// in\n    tag_523:\n        /* \"#utility.yul\":14898:14972   */\n      swap2\n      pop\n        /* \"#utility.yul\":14981:15074   */\n      tag_524\n        /* \"#utility.yul\":15070:15073   */\n      dup3\n        /* \"#utility.yul\":14981:15074   */\n      tag_346\n      jump\t// in\n    tag_524:\n        /* \"#utility.yul\":15099:15101   */\n      0x40\n        /* \"#utility.yul\":15094:15097   */\n      dup3\n        /* \"#utility.yul\":15090:15102   */\n      add\n        /* \"#utility.yul\":15083:15102   */\n      swap1\n      pop\n        /* \"#utility.yul\":14742:15108   */\n      swap2\n      swap1\n      pop\n      jump\t// out\n        /* \"#utility.yul\":15114:15533   */\n    tag_131:\n        /* \"#utility.yul\":15280:15284   */\n      0x00\n        /* \"#utility.yul\":15318:15320   */\n      0x20\n        /* \"#utility.yul\":15307:15316   */\n      dup3\n        /* \"#utility.yul\":15303:15321   */\n      add\n        /* \"#utility.yul\":15295:15321   */\n      swap1\n      pop\n        /* \"#utility.yul\":15367:15376   */\n      dup2\n        /* \"#utility.yul\":15361:15365   */\n      dup2\n        /* \"#utility.yul\":15357:15377   */\n      sub\n        /* \"#utility.yul\":15353:15354   */\n      0x00\n        /* \"#utility.yul\":15342:15351   */\n      dup4\n        /* \"#utility.yul\":15338:15355   */\n      add\n        /* \"#utility.yul\":15331:15378   */\n      mstore\n        /* \"#utility.yul\":15395:15526   */\n      tag_526\n        /* \"#utility.yul\":15521:15525   */\n      dup2\n        /* \"#utility.yul\":15395:15526   */\n      tag_347\n      jump\t// in\n    tag_526:\n        /* \"#utility.yul\":15387:15526   */\n      swap1\n      pop\n        /* \"#utility.yul\":15114:15533   */\n      swap2\n      swap1\n      pop\n      jump\t// out\n        /* \"#utility.yul\":15539:15784   */\n    tag_348:\n        /* \"#utility.yul\":15679:15713   */\n      0x4552433732313a206c6f636b2063616c6c6572206973206e6f7420746f6b656e\n        /* \"#utility.yul\":15675:15676   */\n      0x00\n        /* \"#utility.yul\":15667:15673   */\n      dup3\n        /* \"#utility.yul\":15663:15677   */\n      add\n        /* \"#utility.yul\":15656:15714   */\n      mstore\n        /* \"#utility.yul\":15748:15776   */\n      0x206f776e6572206f7220617070726f76656420666f7220616c6c000000000000\n        /* \"#utility.yul\":15743:15745   */\n      0x20\n        /* \"#utility.yul\":15735:15741   */\n      dup3\n        /* \"#utility.yul\":15731:15746   */\n      add\n        /* \"#utility.yul\":15724:15777   */\n      mstore\n        /* \"#utility.yul\":15539:15784   */\n      pop\n      jump\t// out\n        /* \"#utility.yul\":15790:16156   */\n    tag_349:\n        /* \"#utility.yul\":15932:15935   */\n      0x00\n        /* \"#utility.yul\":15953:16020   */\n      tag_529\n        /* \"#utility.yul\":16017:16019   */\n      0x3a\n        /* \"#utility.yul\":16012:16015   */\n      dup4\n        /* \"#utility.yul\":15953:16020   */\n      tag_316\n      jump\t// in\n    tag_529:\n        /* \"#utility.yul\":15946:16020   */\n      swap2\n      pop\n        /* \"#utility.yul\":16029:16122   */\n      tag_530\n        /* \"#utility.yul\":16118:16121   */\n      dup3\n        /* \"#utility.yul\":16029:16122   */\n      tag_348\n      jump\t// in\n    tag_530:\n        /* \"#utility.yul\":16147:16149   */\n      0x40\n        /* \"#utility.yul\":16142:16145   */\n      dup3\n        /* \"#utility.yul\":16138:16150   */\n      add\n        /* \"#utility.yul\":16131:16150   */\n      swap1\n      pop\n        /* \"#utility.yul\":15790:16156   */\n      swap2\n      swap1\n      pop\n      jump\t// out\n        /* \"#utility.yul\":16162:16581   */\n    tag_141:\n        /* \"#utility.yul\":16328:16332   */\n      0x00\n        /* \"#utility.yul\":16366:16368   */\n      0x20\n        /* \"#utility.yul\":16355:16364   */\n      dup3\n        /* \"#utility.yul\":16351:16369   */\n      add\n        /* \"#utility.yul\":16343:16369   */\n      swap1\n      pop\n        /* \"#utility.yul\":16415:16424   */\n      dup2\n        /* \"#utility.yul\":16409:16413   */\n      dup2\n        /* \"#utility.yul\":16405:16425   */\n      sub\n        /* \"#utility.yul\":16401:16402   */\n      0x00\n        /* \"#utility.yul\":16390:16399   */\n      dup4\n        /* \"#utility.yul\":16386:16403   */\n      add\n        /* \"#utility.yul\":16379:16426   */\n      mstore\n        /* \"#utility.yul\":16443:16574   */\n      tag_532\n        /* \"#utility.yul\":16569:16573   */\n      dup2\n        /* \"#utility.yul\":16443:16574   */\n      tag_349\n      jump\t// in\n    tag_532:\n        /* \"#utility.yul\":16435:16574   */\n      swap1\n      pop\n        /* \"#utility.yul\":16162:16581   */\n      swap2\n      swap1\n      pop\n      jump\t// out\n        /* \"#utility.yul\":16587:16759   */\n    tag_350:\n        /* \"#utility.yul\":16727:16751   */\n      0x4552433732313a20746f6b656e20617070726f76656400000000000000000000\n        /* \"#utility.yul\":16723:16724   */\n      0x00\n        /* \"#utility.yul\":16715:16721   */\n      dup3\n        /* \"#utility.yul\":16711:16725   */\n      add\n        /* \"#utility.yul\":16704:16752   */\n      mstore\n        /* \"#utility.yul\":16587:16759   */\n      pop\n      jump\t// out\n        /* \"#utility.yul\":16765:17131   */\n    tag_351:\n        /* \"#utility.yul\":16907:16910   */\n      0x00\n        /* \"#utility.yul\":16928:16995   */\n      tag_535\n        /* \"#utility.yul\":16992:16994   */\n      0x16\n        /* \"#utility.yul\":16987:16990   */\n      dup4\n        /* \"#utility.yul\":16928:16995   */\n      tag_316\n      jump\t// in\n    tag_535:\n        /* \"#utility.yul\":16921:16995   */\n      swap2\n      pop\n        /* \"#utility.yul\":17004:17097   */\n      tag_536\n        /* \"#utility.yul\":17093:17096   */\n      dup3\n        /* \"#utility.yul\":17004:17097   */\n      tag_350\n      jump\t// in\n    tag_536:\n        /* \"#utility.yul\":17122:17124   */\n      0x20\n        /* \"#utility.yul\":17117:17120   */\n      dup3\n        /* \"#utility.yul\":17113:17125   */\n      add\n        /* \"#utility.yul\":17106:17125   */\n      swap1\n      pop\n        /* \"#utility.yul\":16765:17131   */\n      swap2\n      swap1\n      pop\n      jump\t// out\n        /* \"#utility.yul\":17137:17556   */\n    tag_144:\n        /* \"#utility.yul\":17303:17307   */\n      0x00\n        /* \"#utility.yul\":17341:17343   */\n      0x20\n        /* \"#utility.yul\":17330:17339   */\n      dup3\n        /* \"#utility.yul\":17326:17344   */\n      add\n        /* \"#utility.yul\":17318:17344   */\n      swap1\n      pop\n        /* \"#utility.yul\":17390:17399   */\n      dup2\n        /* \"#utility.yul\":17384:17388   */\n      dup2\n        /* \"#utility.yul\":17380:17400   */\n      sub\n        /* \"#utility.yul\":17376:17377   */\n      0x00\n        /* \"#utility.yul\":17365:17374   */\n      dup4\n        /* \"#utility.yul\":17361:17378   */\n      add\n        /* \"#utility.yul\":17354:17401   */\n      mstore\n        /* \"#utility.yul\":17418:17549   */\n      tag_538\n        /* \"#utility.yul\":17544:17548   */\n      dup2\n        /* \"#utility.yul\":17418:17549   */\n      tag_351\n      jump\t// in\n    tag_538:\n        /* \"#utility.yul\":17410:17549   */\n      swap1\n      pop\n        /* \"#utility.yul\":17137:17556   */\n      swap2\n      swap1\n      pop\n      jump\t// out\n        /* \"#utility.yul\":17562:17736   */\n    tag_352:\n        /* \"#utility.yul\":17702:17728   */\n      0x4552433732313a20696e76616c696420746f6b656e2049440000000000000000\n        /* \"#utility.yul\":17698:17699   */\n      0x00\n        /* \"#utility.yul\":17690:17696   */\n      dup3\n        /* \"#utility.yul\":17686:17700   */\n      add\n        /* \"#utility.yul\":17679:17729   */\n      mstore\n        /* \"#utility.yul\":17562:17736   */\n      pop\n      jump\t// out\n        /* \"#utility.yul\":17742:18108   */\n    tag_353:\n        /* \"#utility.yul\":17884:17887   */\n      0x00\n        /* \"#utility.yul\":17905:17972   */\n      tag_541\n        /* \"#utility.yul\":17969:17971   */\n      0x18\n        /* \"#utility.yul\":17964:17967   */\n      dup4\n        /* \"#utility.yul\":17905:17972   */\n      tag_316\n      jump\t// in\n    tag_541:\n        /* \"#utility.yul\":17898:17972   */\n      swap2\n      pop\n        /* \"#utility.yul\":17981:18074   */\n      tag_542\n        /* \"#utility.yul\":18070:18073   */\n      dup3\n        /* \"#utility.yul\":17981:18074   */\n      tag_352\n      jump\t// in\n    tag_542:\n        /* \"#utility.yul\":18099:18101   */\n      0x20\n        /* \"#utility.yul\":18094:18097   */\n      dup3\n        /* \"#utility.yul\":18090:18102   */\n      add\n        /* \"#utility.yul\":18083:18102   */\n      swap1\n      pop\n        /* \"#utility.yul\":17742:18108   */\n      swap2\n      swap1\n      pop\n      jump\t// out\n        /* \"#utility.yul\":18114:18533   */\n    tag_157:\n        /* \"#utility.yul\":18280:18284   */\n      0x00\n        /* \"#utility.yul\":18318:18320   */\n      0x20\n        /* \"#utility.yul\":18307:18316   */\n      dup3\n        /* \"#utility.yul\":18303:18321   */\n      add\n        /* \"#utility.yul\":18295:18321   */\n      swap1\n      pop\n        /* \"#utility.yul\":18367:18376   */\n      dup2\n        /* \"#utility.yul\":18361:18365   */\n      dup2\n        /* \"#utility.yul\":18357:18377   */\n      sub\n        /* \"#utility.yul\":18353:18354   */\n      0x00\n        /* \"#utility.yul\":18342:18351   */\n      dup4\n        /* \"#utility.yul\":18338:18355   */\n      add\n        /* \"#utility.yul\":18331:18378   */\n      mstore\n        /* \"#utility.yul\":18395:18526   */\n      tag_544\n        /* \"#utility.yul\":18521:18525   */\n      dup2\n        /* \"#utility.yul\":18395:18526   */\n      tag_353\n      jump\t// in\n    tag_544:\n        /* \"#utility.yul\":18387:18526   */\n      swap1\n      pop\n        /* \"#utility.yul\":18114:18533   */\n      swap2\n      swap1\n      pop\n      jump\t// out\n        /* \"#utility.yul\":18539:18767   */\n    tag_354:\n        /* \"#utility.yul\":18679:18713   */\n      0x4552433732313a2061646472657373207a65726f206973206e6f742061207661\n        /* \"#utility.yul\":18675:18676   */\n      0x00\n        /* \"#utility.yul\":18667:18673   */\n      dup3\n        /* \"#utility.yul\":18663:18677   */\n      add\n        /* \"#utility.yul\":18656:18714   */\n      mstore\n        /* \"#utility.yul\":18748:18759   */\n      0x6c6964206f776e65720000000000000000000000000000000000000000000000\n        /* \"#utility.yul\":18743:18745   */\n      0x20\n        /* \"#utility.yul\":18735:18741   */\n      dup3\n        /* \"#utility.yul\":18731:18746   */\n      add\n        /* \"#utility.yul\":18724:18760   */\n      mstore\n        /* \"#utility.yul\":18539:18767   */\n      pop\n      jump\t// out\n        /* \"#utility.yul\":18773:19139   */\n    tag_355:\n        /* \"#utility.yul\":18915:18918   */\n      0x00\n        /* \"#utility.yul\":18936:19003   */\n      tag_547\n        /* \"#utility.yul\":19000:19002   */\n      0x29\n        /* \"#utility.yul\":18995:18998   */\n      dup4\n        /* \"#utility.yul\":18936:19003   */\n      tag_316\n      jump\t// in\n    tag_547:\n        /* \"#utility.yul\":18929:19003   */\n      swap2\n      pop\n        /* \"#utility.yul\":19012:19105   */\n      tag_548\n        /* \"#utility.yul\":19101:19104   */\n      dup3\n        /* \"#utility.yul\":19012:19105   */\n      tag_354\n      jump\t// in\n    tag_548:\n        /* \"#utility.yul\":19130:19132   */\n      0x40\n        /* \"#utility.yul\":19125:19128   */\n      dup3\n        /* \"#utility.yul\":19121:19133   */\n      add\n        /* \"#utility.yul\":19114:19133   */\n      swap1\n      pop\n        /* \"#utility.yul\":18773:19139   */\n      swap2\n      swap1\n      pop\n      jump\t// out\n        /* \"#utility.yul\":19145:19564   */\n    tag_161:\n        /* \"#utility.yul\":19311:19315   */\n      0x00\n        /* \"#utility.yul\":19349:19351   */\n      0x20\n        /* \"#utility.yul\":19338:19347   */\n      dup3\n        /* \"#utility.yul\":19334:19352   */\n      add\n        /* \"#utility.yul\":19326:19352   */\n      swap1\n      pop\n        /* \"#utility.yul\":19398:19407   */\n      dup2\n        /* \"#utility.yul\":19392:19396   */\n      dup2\n        /* \"#utility.yul\":19388:19408   */\n      sub\n        /* \"#utility.yul\":19384:19385   */\n      0x00\n        /* \"#utility.yul\":19373:19382   */\n      dup4\n        /* \"#utility.yul\":19369:19386   */\n      add\n        /* \"#utility.yul\":19362:19409   */\n      mstore\n        /* \"#utility.yul\":19426:19557   */\n      tag_550\n        /* \"#utility.yul\":19552:19556   */\n      dup2\n        /* \"#utility.yul\":19426:19557   */\n      tag_355\n      jump\t// in\n    tag_550:\n        /* \"#utility.yul\":19418:19557   */\n      swap1\n      pop\n        /* \"#utility.yul\":19145:19564   */\n      swap2\n      swap1\n      pop\n      jump\t// out\n        /* \"#utility.yul\":19570:19718   */\n    tag_356:\n        /* \"#utility.yul\":19672:19683   */\n      0x00\n        /* \"#utility.yul\":19709:19712   */\n      dup2\n        /* \"#utility.yul\":19694:19712   */\n      swap1\n      pop\n        /* \"#utility.yul\":19570:19718   */\n      swap3\n      swap2\n      pop\n      pop\n      jump\t// out\n        /* \"#utility.yul\":19724:20114   */\n    tag_357:\n        /* \"#utility.yul\":19830:19833   */\n      0x00\n        /* \"#utility.yul\":19858:19897   */\n      tag_553\n        /* \"#utility.yul\":19891:19896   */\n      dup3\n        /* \"#utility.yul\":19858:19897   */\n      tag_315\n      jump\t// in\n    tag_553:\n        /* \"#utility.yul\":19913:20002   */\n      tag_554\n        /* \"#utility.yul\":19995:20001   */\n      dup2\n        /* \"#utility.yul\":19990:19993   */\n      dup6\n        /* \"#utility.yul\":19913:20002   */\n      tag_356\n      jump\t// in\n    tag_554:\n        /* \"#utility.yul\":19906:20002   */\n      swap4\n      pop\n        /* \"#utility.yul\":20011:20076   */\n      tag_555\n        /* \"#utility.yul\":20069:20075   */\n      dup2\n        /* \"#utility.yul\":20064:20067   */\n      dup6\n        /* \"#utility.yul\":20057:20061   */\n      0x20\n        /* \"#utility.yul\":20050:20055   */\n      dup7\n        /* \"#utility.yul\":20046:20062   */\n      add\n        /* \"#utility.yul\":20011:20076   */\n      tag_317\n      jump\t// in\n    tag_555:\n        /* \"#utility.yul\":20101:20107   */\n      dup1\n        /* \"#utility.yul\":20096:20099   */\n      dup5\n        /* \"#utility.yul\":20092:20108   */\n      add\n        /* \"#utility.yul\":20085:20108   */\n      swap2\n      pop\n        /* \"#utility.yul\":19834:20114   */\n      pop\n        /* \"#utility.yul\":19724:20114   */\n      swap3\n      swap2\n      pop\n      pop\n      jump\t// out\n        /* \"#utility.yul\":20120:20555   */\n    tag_190:\n        /* \"#utility.yul\":20300:20303   */\n      0x00\n        /* \"#utility.yul\":20322:20417   */\n      tag_557\n        /* \"#utility.yul\":20413:20416   */\n      dup3\n        /* \"#utility.yul\":20404:20410   */\n      dup6\n        /* \"#utility.yul\":20322:20417   */\n      tag_357\n      jump\t// in\n    tag_557:\n        /* \"#utility.yul\":20315:20417   */\n      swap2\n      pop\n        /* \"#utility.yul\":20434:20529   */\n      tag_558\n        /* \"#utility.yul\":20525:20528   */\n      dup3\n        /* \"#utility.yul\":20516:20522   */\n      dup5\n        /* \"#utility.yul\":20434:20529   */\n      tag_357\n      jump\t// in\n    tag_558:\n        /* \"#utility.yul\":20427:20529   */\n      swap2\n      pop\n        /* \"#utility.yul\":20546:20549   */\n      dup2\n        /* \"#utility.yul\":20539:20549   */\n      swap1\n      pop\n        /* \"#utility.yul\":20120:20555   */\n      swap4\n      swap3\n      pop\n      pop\n      pop\n      jump\t// out\n        /* \"#utility.yul\":20561:20785   */\n    tag_358:\n        /* \"#utility.yul\":20701:20735   */\n      0x4552433732313a207472616e736665722066726f6d20696e636f727265637420\n        /* \"#utility.yul\":20697:20698   */\n      0x00\n        /* \"#utility.yul\":20689:20695   */\n      dup3\n        /* \"#utility.yul\":20685:20699   */\n      add\n        /* \"#utility.yul\":20678:20736   */\n      mstore\n        /* \"#utility.yul\":20770:20777   */\n      0x6f776e6572000000000000000000000000000000000000000000000000000000\n        /* \"#utility.yul\":20765:20767   */\n      0x20\n        /* \"#utility.yul\":20757:20763   */\n      dup3\n        /* \"#utility.yul\":20753:20768   */\n      add\n        /* \"#utility.yul\":20746:20778   */\n      mstore\n        /* \"#utility.yul\":20561:20785   */\n      pop\n      jump\t// out\n        /* \"#utility.yul\":20791:21157   */\n    tag_359:\n        /* \"#utility.yul\":20933:20936   */\n      0x00\n        /* \"#utility.yul\":20954:21021   */\n      tag_561\n        /* \"#utility.yul\":21018:21020   */\n      0x25\n        /* \"#utility.yul\":21013:21016   */\n      dup4\n        /* \"#utility.yul\":20954:21021   */\n      tag_316\n      jump\t// in\n    tag_561:\n        /* \"#utility.yul\":20947:21021   */\n      swap2\n      pop\n        /* \"#utility.yul\":21030:21123   */\n      tag_562\n        /* \"#utility.yul\":21119:21122   */\n      dup3\n        /* \"#utility.yul\":21030:21123   */\n      tag_358\n      jump\t// in\n    tag_562:\n        /* \"#utility.yul\":21148:21150   */\n      0x40\n        /* \"#utility.yul\":21143:21146   */\n      dup3\n        /* \"#utility.yul\":21139:21151   */\n      add\n        /* \"#utility.yul\":21132:21151   */\n      swap1\n      pop\n        /* \"#utility.yul\":20791:21157   */\n      swap2\n      swap1\n      pop\n      jump\t// out\n        /* \"#utility.yul\":21163:21582   */\n    tag_211:\n        /* \"#utility.yul\":21329:21333   */\n      0x00\n        /* \"#utility.yul\":21367:21369   */\n      0x20\n        /* \"#utility.yul\":21356:21365   */\n      dup3\n        /* \"#utility.yul\":21352:21370   */\n      add\n        /* \"#utility.yul\":21344:21370   */\n      swap1\n      pop\n        /* \"#utility.yul\":21416:21425   */\n      dup2\n        /* \"#utility.yul\":21410:21414   */\n      dup2\n        /* \"#utility.yul\":21406:21426   */\n      sub\n        /* \"#utility.yul\":21402:21403   */\n      0x00\n        /* \"#utility.yul\":21391:21400   */\n      dup4\n        /* \"#utility.yul\":21387:21404   */\n      add\n        /* \"#utility.yul\":21380:21427   */\n      mstore\n        /* \"#utility.yul\":21444:21575   */\n      tag_564\n        /* \"#utility.yul\":21570:21574   */\n      dup2\n        /* \"#utility.yul\":21444:21575   */\n      tag_359\n      jump\t// in\n    tag_564:\n        /* \"#utility.yul\":21436:21575   */\n      swap1\n      pop\n        /* \"#utility.yul\":21163:21582   */\n      swap2\n      swap1\n      pop\n      jump\t// out\n        /* \"#utility.yul\":21588:21811   */\n    tag_360:\n        /* \"#utility.yul\":21728:21762   */\n      0x4552433732313a207472616e7366657220746f20746865207a65726f20616464\n        /* \"#utility.yul\":21724:21725   */\n      0x00\n        /* \"#utility.yul\":21716:21722   */\n      dup3\n        /* \"#utility.yul\":21712:21726   */\n      add\n        /* \"#utility.yul\":21705:21763   */\n      mstore\n        /* \"#utility.yul\":21797:21803   */\n      0x7265737300000000000000000000000000000000000000000000000000000000\n        /* \"#utility.yul\":21792:21794   */\n      0x20\n        /* \"#utility.yul\":21784:21790   */\n      dup3\n        /* \"#utility.yul\":21780:21795   */\n      add\n        /* \"#utility.yul\":21773:21804   */\n      mstore\n        /* \"#utility.yul\":21588:21811   */\n      pop\n      jump\t// out\n        /* \"#utility.yul\":21817:22183   */\n    tag_361:\n        /* \"#utility.yul\":21959:21962   */\n      0x00\n        /* \"#utility.yul\":21980:22047   */\n      tag_567\n        /* \"#utility.yul\":22044:22046   */\n      0x24\n        /* \"#utility.yul\":22039:22042   */\n      dup4\n        /* \"#utility.yul\":21980:22047   */\n      tag_316\n      jump\t// in\n    tag_567:\n        /* \"#utility.yul\":21973:22047   */\n      swap2\n      pop\n        /* \"#utility.yul\":22056:22149   */\n      tag_568\n        /* \"#utility.yul\":22145:22148   */\n      dup3\n        /* \"#utility.yul\":22056:22149   */\n      tag_360\n      jump\t// in\n    tag_568:\n        /* \"#utility.yul\":22174:22176   */\n      0x40\n        /* \"#utility.yul\":22169:22172   */\n      dup3\n        /* \"#utility.yul\":22165:22177   */\n      add\n        /* \"#utility.yul\":22158:22177   */\n      swap1\n      pop\n        /* \"#utility.yul\":21817:22183   */\n      swap2\n      swap1\n      pop\n      jump\t// out\n        /* \"#utility.yul\":22189:22608   */\n    tag_214:\n        /* \"#utility.yul\":22355:22359   */\n      0x00\n        /* \"#utility.yul\":22393:22395   */\n      0x20\n        /* \"#utility.yul\":22382:22391   */\n      dup3\n        /* \"#utility.yul\":22378:22396   */\n      add\n        /* \"#utility.yul\":22370:22396   */\n      swap1\n      pop\n        /* \"#utility.yul\":22442:22451   */\n      dup2\n        /* \"#utility.yul\":22436:22440   */\n      dup2\n        /* \"#utility.yul\":22432:22452   */\n      sub\n        /* \"#utility.yul\":22428:22429   */\n      0x00\n        /* \"#utility.yul\":22417:22426   */\n      dup4\n        /* \"#utility.yul\":22413:22430   */\n      add\n        /* \"#utility.yul\":22406:22453   */\n      mstore\n        /* \"#utility.yul\":22470:22601   */\n      tag_570\n        /* \"#utility.yul\":22596:22600   */\n      dup2\n        /* \"#utility.yul\":22470:22601   */\n      tag_361\n      jump\t// in\n    tag_570:\n        /* \"#utility.yul\":22462:22601   */\n      swap1\n      pop\n        /* \"#utility.yul\":22189:22608   */\n      swap2\n      swap1\n      pop\n      jump\t// out\n        /* \"#utility.yul\":22614:22934   */\n    tag_231:\n        /* \"#utility.yul\":22729:22733   */\n      0x00\n        /* \"#utility.yul\":22767:22769   */\n      0x40\n        /* \"#utility.yul\":22756:22765   */\n      dup3\n        /* \"#utility.yul\":22752:22770   */\n      add\n        /* \"#utility.yul\":22744:22770   */\n      swap1\n      pop\n        /* \"#utility.yul\":22780:22851   */\n      tag_572\n        /* \"#utility.yul\":22848:22849   */\n      0x00\n        /* \"#utility.yul\":22837:22846   */\n      dup4\n        /* \"#utility.yul\":22833:22850   */\n      add\n        /* \"#utility.yul\":22824:22830   */\n      dup6\n        /* \"#utility.yul\":22780:22851   */\n      tag_325\n      jump\t// in\n    tag_572:\n        /* \"#utility.yul\":22861:22927   */\n      tag_573\n        /* \"#utility.yul\":22923:22925   */\n      0x20\n        /* \"#utility.yul\":22912:22921   */\n      dup4\n        /* \"#utility.yul\":22908:22926   */\n      add\n        /* \"#utility.yul\":22899:22905   */\n      dup5\n        /* \"#utility.yul\":22861:22927   */\n      tag_314\n      jump\t// in\n    tag_573:\n        /* \"#utility.yul\":22614:22934   */\n      swap4\n      swap3\n      pop\n      pop\n      pop\n      jump\t// out\n        /* \"#utility.yul\":22940:23115   */\n    tag_362:\n        /* \"#utility.yul\":23080:23107   */\n      0x4552433732313a20617070726f766520746f2063616c6c657200000000000000\n        /* \"#utility.yul\":23076:23077   */\n      0x00\n        /* \"#utility.yul\":23068:23074   */\n      dup3\n        /* \"#utility.yul\":23064:23078   */\n      add\n        /* \"#utility.yul\":23057:23108   */\n      mstore\n        /* \"#utility.yul\":22940:23115   */\n      pop\n      jump\t// out\n        /* \"#utility.yul\":23121:23487   */\n    tag_363:\n        /* \"#utility.yul\":23263:23266   */\n      0x00\n        /* \"#utility.yul\":23284:23351   */\n      tag_576\n        /* \"#utility.yul\":23348:23350   */\n      0x19\n        /* \"#utility.yul\":23343:23346   */\n      dup4\n        /* \"#utility.yul\":23284:23351   */\n      tag_316\n      jump\t// in\n    tag_576:\n        /* \"#utility.yul\":23277:23351   */\n      swap2\n      pop\n        /* \"#utility.yul\":23360:23453   */\n      tag_577\n        /* \"#utility.yul\":23449:23452   */\n      dup3\n        /* \"#utility.yul\":23360:23453   */\n      tag_362\n      jump\t// in\n    tag_577:\n        /* \"#utility.yul\":23478:23480   */\n      0x20\n        /* \"#utility.yul\":23473:23476   */\n      dup3\n        /* \"#utility.yul\":23469:23481   */\n      add\n        /* \"#utility.yul\":23462:23481   */\n      swap1\n      pop\n        /* \"#utility.yul\":23121:23487   */\n      swap2\n      swap1\n      pop\n      jump\t// out\n        /* \"#utility.yul\":23493:23912   */\n    tag_236:\n        /* \"#utility.yul\":23659:23663   */\n      0x00\n        /* \"#utility.yul\":23697:23699   */\n      0x20\n        /* \"#utility.yul\":23686:23695   */\n      dup3\n        /* \"#utility.yul\":23682:23700   */\n      add\n        /* \"#utility.yul\":23674:23700   */\n      swap1\n      pop\n        /* \"#utility.yul\":23746:23755   */\n      dup2\n        /* \"#utility.yul\":23740:23744   */\n      dup2\n        /* \"#utility.yul\":23736:23756   */\n      sub\n        /* \"#utility.yul\":23732:23733   */\n      0x00\n        /* \"#utility.yul\":23721:23730   */\n      dup4\n        /* \"#utility.yul\":23717:23734   */\n      add\n        /* \"#utility.yul\":23710:23757   */\n      mstore\n        /* \"#utility.yul\":23774:23905   */\n      tag_579\n        /* \"#utility.yul\":23900:23904   */\n      dup2\n        /* \"#utility.yul\":23774:23905   */\n      tag_363\n      jump\t// in\n    tag_579:\n        /* \"#utility.yul\":23766:23905   */\n      swap1\n      pop\n        /* \"#utility.yul\":23493:23912   */\n      swap2\n      swap1\n      pop\n      jump\t// out\n        /* \"#utility.yul\":23918:24155   */\n    tag_364:\n        /* \"#utility.yul\":24058:24092   */\n      0x4552433732313a207472616e7366657220746f206e6f6e204552433732315265\n        /* \"#utility.yul\":24054:24055   */\n      0x00\n        /* \"#utility.yul\":24046:24052   */\n      dup3\n        /* \"#utility.yul\":24042:24056   */\n      add\n        /* \"#utility.yul\":24035:24093   */\n      mstore\n        /* \"#utility.yul\":24127:24147   */\n      0x63656976657220696d706c656d656e7465720000000000000000000000000000\n        /* \"#utility.yul\":24122:24124   */\n      0x20\n        /* \"#utility.yul\":24114:24120   */\n      dup3\n        /* \"#utility.yul\":24110:24125   */\n      add\n        /* \"#utility.yul\":24103:24148   */\n      mstore\n        /* \"#utility.yul\":23918:24155   */\n      pop\n      jump\t// out\n        /* \"#utility.yul\":24161:24527   */\n    tag_365:\n        /* \"#utility.yul\":24303:24306   */\n      0x00\n        /* \"#utility.yul\":24324:24391   */\n      tag_582\n        /* \"#utility.yul\":24388:24390   */\n      0x32\n        /* \"#utility.yul\":24383:24386   */\n      dup4\n        /* \"#utility.yul\":24324:24391   */\n      tag_316\n      jump\t// in\n    tag_582:\n        /* \"#utility.yul\":24317:24391   */\n      swap2\n      pop\n        /* \"#utility.yul\":24400:24493   */\n      tag_583\n        /* \"#utility.yul\":24489:24492   */\n      dup3\n        /* \"#utility.yul\":24400:24493   */\n      tag_364\n      jump\t// in\n    tag_583:\n        /* \"#utility.yul\":24518:24520   */\n      0x40\n        /* \"#utility.yul\":24513:24516   */\n      dup3\n        /* \"#utility.yul\":24509:24521   */\n      add\n        /* \"#utility.yul\":24502:24521   */\n      swap1\n      pop\n        /* \"#utility.yul\":24161:24527   */\n      swap2\n      swap1\n      pop\n      jump\t// out\n        /* \"#utility.yul\":24533:24952   */\n    tag_246:\n        /* \"#utility.yul\":24699:24703   */\n      0x00\n        /* \"#utility.yul\":24737:24739   */\n      0x20\n        /* \"#utility.yul\":24726:24735   */\n      dup3\n        /* \"#utility.yul\":24722:24740   */\n      add\n        /* \"#utility.yul\":24714:24740   */\n      swap1\n      pop\n        /* \"#utility.yul\":24786:24795   */\n      dup2\n        /* \"#utility.yul\":24780:24784   */\n      dup2\n        /* \"#utility.yul\":24776:24796   */\n      sub\n        /* \"#utility.yul\":24772:24773   */\n      0x00\n        /* \"#utility.yul\":24761:24770   */\n      dup4\n        /* \"#utility.yul\":24757:24774   */\n      add\n        /* \"#utility.yul\":24750:24797   */\n      mstore\n        /* \"#utility.yul\":24814:24945   */\n      tag_585\n        /* \"#utility.yul\":24940:24944   */\n      dup2\n        /* \"#utility.yul\":24814:24945   */\n      tag_365\n      jump\t// in\n    tag_585:\n        /* \"#utility.yul\":24806:24945   */\n      swap1\n      pop\n        /* \"#utility.yul\":24533:24952   */\n      swap2\n      swap1\n      pop\n      jump\t// out\n        /* \"#utility.yul\":24958:25138   */\n    tag_259:\n        /* \"#utility.yul\":25006:25083   */\n      0x4e487b7100000000000000000000000000000000000000000000000000000000\n        /* \"#utility.yul\":25003:25004   */\n      0x00\n        /* \"#utility.yul\":24996:25084   */\n      mstore\n        /* \"#utility.yul\":25103:25107   */\n      0x12\n        /* \"#utility.yul\":25100:25101   */\n      0x04\n        /* \"#utility.yul\":25093:25108   */\n      mstore\n        /* \"#utility.yul\":25127:25131   */\n      0x24\n        /* \"#utility.yul\":25124:25125   */\n      0x00\n        /* \"#utility.yul\":25117:25132   */\n      revert\n        /* \"#utility.yul\":25144:25242   */\n    tag_366:\n        /* \"#utility.yul\":25195:25201   */\n      0x00\n        /* \"#utility.yul\":25229:25234   */\n      dup2\n        /* \"#utility.yul\":25223:25235   */\n      mload\n        /* \"#utility.yul\":25213:25235   */\n      swap1\n      pop\n        /* \"#utility.yul\":25144:25242   */\n      swap2\n      swap1\n      pop\n      jump\t// out\n        /* \"#utility.yul\":25248:25416   */\n    tag_367:\n        /* \"#utility.yul\":25331:25342   */\n      0x00\n        /* \"#utility.yul\":25365:25371   */\n      dup3\n        /* \"#utility.yul\":25360:25363   */\n      dup3\n        /* \"#utility.yul\":25353:25372   */\n      mstore\n        /* \"#utility.yul\":25405:25409   */\n      0x20\n        /* \"#utility.yul\":25400:25403   */\n      dup3\n        /* \"#utility.yul\":25396:25410   */\n      add\n        /* \"#utility.yul\":25381:25410   */\n      swap1\n      pop\n        /* \"#utility.yul\":25248:25416   */\n      swap3\n      swap2\n      pop\n      pop\n      jump\t// out\n        /* \"#utility.yul\":25422:25795   */\n    tag_368:\n        /* \"#utility.yul\":25508:25511   */\n      0x00\n        /* \"#utility.yul\":25536:25574   */\n      tag_590\n        /* \"#utility.yul\":25568:25573   */\n      dup3\n        /* \"#utility.yul\":25536:25574   */\n      tag_366\n      jump\t// in\n    tag_590:\n        /* \"#utility.yul\":25590:25660   */\n      tag_591\n        /* \"#utility.yul\":25653:25659   */\n      dup2\n        /* \"#utility.yul\":25648:25651   */\n      dup6\n        /* \"#utility.yul\":25590:25660   */\n      tag_367\n      jump\t// in\n    tag_591:\n        /* \"#utility.yul\":25583:25660   */\n      swap4\n      pop\n        /* \"#utility.yul\":25669:25734   */\n      tag_592\n        /* \"#utility.yul\":25727:25733   */\n      dup2\n        /* \"#utility.yul\":25722:25725   */\n      dup6\n        /* \"#utility.yul\":25715:25719   */\n      0x20\n        /* \"#utility.yul\":25708:25713   */\n      dup7\n        /* \"#utility.yul\":25704:25720   */\n      add\n        /* \"#utility.yul\":25669:25734   */\n      tag_317\n      jump\t// in\n    tag_592:\n        /* \"#utility.yul\":25759:25788   */\n      tag_593\n        /* \"#utility.yul\":25781:25787   */\n      dup2\n        /* \"#utility.yul\":25759:25788   */\n      tag_318\n      jump\t// in\n    tag_593:\n        /* \"#utility.yul\":25754:25757   */\n      dup5\n        /* \"#utility.yul\":25750:25789   */\n      add\n        /* \"#utility.yul\":25743:25789   */\n      swap2\n      pop\n        /* \"#utility.yul\":25512:25795   */\n      pop\n        /* \"#utility.yul\":25422:25795   */\n      swap3\n      swap2\n      pop\n      pop\n      jump\t// out\n        /* \"#utility.yul\":25801:26441   */\n    tag_271:\n        /* \"#utility.yul\":25996:26000   */\n      0x00\n        /* \"#utility.yul\":26034:26037   */\n      0x80\n        /* \"#utility.yul\":26023:26032   */\n      dup3\n        /* \"#utility.yul\":26019:26038   */\n      add\n        /* \"#utility.yul\":26011:26038   */\n      swap1\n      pop\n        /* \"#utility.yul\":26048:26119   */\n      tag_595\n        /* \"#utility.yul\":26116:26117   */\n      0x00\n        /* \"#utility.yul\":26105:26114   */\n      dup4\n        /* \"#utility.yul\":26101:26118   */\n      add\n        /* \"#utility.yul\":26092:26098   */\n      dup8\n        /* \"#utility.yul\":26048:26119   */\n      tag_328\n      jump\t// in\n    tag_595:\n        /* \"#utility.yul\":26129:26201   */\n      tag_596\n        /* \"#utility.yul\":26197:26199   */\n      0x20\n        /* \"#utility.yul\":26186:26195   */\n      dup4\n        /* \"#utility.yul\":26182:26200   */\n      add\n        /* \"#utility.yul\":26173:26179   */\n      dup7\n        /* \"#utility.yul\":26129:26201   */\n      tag_328\n      jump\t// in\n    tag_596:\n        /* \"#utility.yul\":26211:26283   */\n      tag_597\n        /* \"#utility.yul\":26279:26281   */\n      0x40\n        /* \"#utility.yul\":26268:26277   */\n      dup4\n        /* \"#utility.yul\":26264:26282   */\n      add\n        /* \"#utility.yul\":26255:26261   */\n      dup6\n        /* \"#utility.yul\":26211:26283   */\n      tag_325\n      jump\t// in\n    tag_597:\n        /* \"#utility.yul\":26330:26339   */\n      dup2\n        /* \"#utility.yul\":26324:26328   */\n      dup2\n        /* \"#utility.yul\":26320:26340   */\n      sub\n        /* \"#utility.yul\":26315:26317   */\n      0x60\n        /* \"#utility.yul\":26304:26313   */\n      dup4\n        /* \"#utility.yul\":26300:26318   */\n      add\n        /* \"#utility.yul\":26293:26341   */\n      mstore\n        /* \"#utility.yul\":26358:26434   */\n      tag_598\n        /* \"#utility.yul\":26429:26433   */\n      dup2\n        /* \"#utility.yul\":26420:26426   */\n      dup5\n        /* \"#utility.yul\":26358:26434   */\n      tag_368\n      jump\t// in\n    tag_598:\n        /* \"#utility.yul\":26350:26434   */\n      swap1\n      pop\n        /* \"#utility.yul\":25801:26441   */\n      swap6\n      swap5\n      pop\n      pop\n      pop\n      pop\n      pop\n      jump\t// out\n        /* \"#utility.yul\":26447:26588   */\n    tag_369:\n        /* \"#utility.yul\":26503:26508   */\n      0x00\n        /* \"#utility.yul\":26534:26540   */\n      dup2\n        /* \"#utility.yul\":26528:26541   */\n      mload\n        /* \"#utility.yul\":26519:26541   */\n      swap1\n      pop\n        /* \"#utility.yul\":26550:26582   */\n      tag_600\n        /* \"#utility.yul\":26576:26581   */\n      dup2\n        /* \"#utility.yul\":26550:26582   */\n      tag_311\n      jump\t// in\n    tag_600:\n        /* \"#utility.yul\":26447:26588   */\n      swap3\n      swap2\n      pop\n      pop\n      jump\t// out\n        /* \"#utility.yul\":26594:26943   */\n    tag_274:\n        /* \"#utility.yul\":26663:26669   */\n      0x00\n        /* \"#utility.yul\":26712:26714   */\n      0x20\n        /* \"#utility.yul\":26700:26709   */\n      dup3\n        /* \"#utility.yul\":26691:26698   */\n      dup5\n        /* \"#utility.yul\":26687:26710   */\n      sub\n        /* \"#utility.yul\":26683:26715   */\n      slt\n        /* \"#utility.yul\":26680:26799   */\n      iszero\n      tag_602\n      jumpi\n        /* \"#utility.yul\":26718:26797   */\n      tag_603\n      tag_308\n      jump\t// in\n    tag_603:\n        /* \"#utility.yul\":26680:26799   */\n    tag_602:\n        /* \"#utility.yul\":26838:26839   */\n      0x00\n        /* \"#utility.yul\":26863:26926   */\n      tag_604\n        /* \"#utility.yul\":26918:26925   */\n      dup5\n        /* \"#utility.yul\":26909:26915   */\n      dup3\n        /* \"#utility.yul\":26898:26907   */\n      dup6\n        /* \"#utility.yul\":26894:26916   */\n      add\n        /* \"#utility.yul\":26863:26926   */\n      tag_369\n      jump\t// in\n    tag_604:\n        /* \"#utility.yul\":26853:26926   */\n      swap2\n      pop\n        /* \"#utility.yul\":26809:26936   */\n      pop\n        /* \"#utility.yul\":26594:26943   */\n      swap3\n      swap2\n      pop\n      pop\n      jump\t// out\n\n    auxdata: 0xa26469706673582212206a6044119b26d3488c450895fb18ed0c16276cb678b68fc1550d84b77f877caf64736f6c63430008120033\n}\n",
				"bytecode": {
					"linkReferences": {},
					"object": "60806040523480156200001157600080fd5b5060405162002f2438038062002f248339818101604052810190620000379190620001f6565b8160009081620000489190620004c6565b5080600190816200005a9190620004c6565b505050620005ad565b6000604051905090565b600080fd5b600080fd5b600080fd5b600080fd5b6000601f19601f8301169050919050565b7f4e487b7100000000000000000000000000000000000000000000000000000000600052604160045260246000fd5b620000cc8262000081565b810181811067ffffffffffffffff82111715620000ee57620000ed62000092565b5b80604052505050565b60006200010362000063565b9050620001118282620000c1565b919050565b600067ffffffffffffffff82111562000134576200013362000092565b5b6200013f8262000081565b9050602081019050919050565b60005b838110156200016c5780820151818401526020810190506200014f565b60008484015250505050565b60006200018f620001898462000116565b620000f7565b905082815260208101848484011115620001ae57620001ad6200007c565b5b620001bb8482856200014c565b509392505050565b600082601f830112620001db57620001da62000077565b5b8151620001ed84826020860162000178565b91505092915050565b6000806040838503121562000210576200020f6200006d565b5b600083015167ffffffffffffffff81111562000231576200023062000072565b5b6200023f85828601620001c3565b925050602083015167ffffffffffffffff81111562000263576200026262000072565b5b6200027185828601620001c3565b9150509250929050565b600081519050919050565b7f4e487b7100000000000000000000000000000000000000000000000000000000600052602260045260246000fd5b60006002820490506001821680620002ce57607f821691505b602082108103620002e457620002e362000286565b5b50919050565b60008190508160005260206000209050919050565b60006020601f8301049050919050565b600082821b905092915050565b6000600883026200034e7fffffffffffffffffffffffffffffffffffffffffffffffffffffffffffffffff826200030f565b6200035a86836200030f565b95508019841693508086168417925050509392505050565b6000819050919050565b6000819050919050565b6000620003a7620003a16200039b8462000372565b6200037c565b62000372565b9050919050565b6000819050919050565b620003c38362000386565b620003db620003d282620003ae565b8484546200031c565b825550505050565b600090565b620003f2620003e3565b620003ff818484620003b8565b505050565b5b8181101562000427576200041b600082620003e8565b60018101905062000405565b5050565b601f82111562000476576200044081620002ea565b6200044b84620002ff565b810160208510156200045b578190505b620004736200046a85620002ff565b83018262000404565b50505b505050565b600082821c905092915050565b60006200049b600019846008026200047b565b1980831691505092915050565b6000620004b6838362000488565b9150826002028217905092915050565b620004d1826200027b565b67ffffffffffffffff811115620004ed57620004ec62000092565b5b620004f98254620002b5565b620005068282856200042b565b600060209050601f8311600181146200053e576000841562000529578287015190505b620005358582620004a8565b865550620005a5565b601f1984166200054e86620002ea565b60005b82811015620005785784890151825560018201915060208501945060208101905062000551565b8683101562000598578489015162000594601f89168262000488565b8355505b6001600288020188555050505b505050505050565b61296780620005bd6000396000f3fe608060405234801561001057600080fd5b50600436106101005760003560e01c806342842e0e11610097578063a22cb46511610066578063a22cb465146102d1578063b88d4fde146102ed578063c87b56dd14610309578063e985e9c51461033957610100565b806342842e0e146102375780636352211e1461025357806370a082311461028357806395d89b41146102b357610100565b8063095ea7b3116100d3578063095ea7b3146101b357806323b872dd146101cf578063346c94cf146101eb5780633b035df61461020757610100565b806301ffc9a71461010557806306fdde031461013557806307f0661c14610153578063081812fc14610183575b600080fd5b61011f600480360381019061011a9190611b68565b610369565b60405161012c9190611bb0565b60405180910390f35b61013d61044b565b60405161014a9190611c5b565b60405180910390f35b61016d60048036038101906101689190611cdb565b6104dd565b60405161017a9190611d21565b60405180910390f35b61019d60048036038101906101989190611d68565b610526565b6040516101aa9190611da4565b60405180910390f35b6101cd60048036038101906101c89190611dbf565b61056c565b005b6101e960048036038101906101e49190611dff565b6106e4565b005b61020560048036038101906102009190611e7e565b6107a5565b005b610221600480360381019061021c9190611d68565b610965565b60405161022e9190611bb0565b60405180910390f35b610251600480360381019061024c9190611dff565b61098f565b005b61026d60048036038101906102689190611d68565b6109af565b60405161027a9190611da4565b60405180910390f35b61029d60048036038101906102989190611cdb565b610a35565b6040516102aa9190611d21565b60405180910390f35b6102bb610aec565b6040516102c89190611c5b565b60405180910390f35b6102eb60048036038101906102e69190611ebe565b610b7e565b005b61030760048036038101906103029190612033565b610b94565b005b610323600480360381019061031e9190611d68565b610c57565b6040516103309190611c5b565b60405180910390f35b610353600480360381019061034e91906120b6565b610cbf565b6040516103609190611bb0565b60405180910390f35b60007f8833f7e8000000000000000000000000000000000000000000000000000000007bffffffffffffffffffffffffffffffffffffffffffffffffffffffff1916827bffffffffffffffffffffffffffffffffffffffffffffffffffffffff1916148061043457507f5b5e139f000000000000000000000000000000000000000000000000000000007bffffffffffffffffffffffffffffffffffffffffffffffffffffffff1916827bffffffffffffffffffffffffffffffffffffffffffffffffffffffff1916145b80610444575061044382610d53565b5b9050919050565b60606000805461045a90612125565b80601f016020809104026020016040519081016040528092919081815260200182805461048690612125565b80156104d35780601f106104a8576101008083540402835291602001916104d3565b820191906000526020600020905b8154815290600101906020018083116104b657829003601f168201915b5050505050905090565b6000600860008373ffffffffffffffffffffffffffffffffffffffff1673ffffffffffffffffffffffffffffffffffffffff168152602001908152602001600020549050919050565b600061053182610dbd565b6004600083815260200190815260200160002060009054906101000a900473ffffffffffffffffffffffffffffffffffffffff169050919050565b6000610577826109af565b90508073ffffffffffffffffffffffffffffffffffffffff168373ffffffffffffffffffffffffffffffffffffffff16036105e7576040517f08c379a00000000000000000000000000000000000000000000000000000000081526004016105de906121c8565b60405180910390fd5b8073ffffffffffffffffffffffffffffffffffffffff16610606610e08565b73ffffffffffffffffffffffffffffffffffffffff16148061063557506106348161062f610e08565b610cbf565b5b610674576040517f08c379a000000000000000000000000000000000000000000000000000000000815260040161066b9061225a565b60405180910390fd5b6006600083815260200190815260200160002060009054906101000a900460ff16156106d5576040517f08c379a00000000000000000000000000000000000000000000000000000000081526004016106cc906122c6565b60405180910390fd5b6106df8383610e10565b505050565b6106f56106ef610e08565b82610ec9565b610734576040517f08c379a000000000000000000000000000000000000000000000000000000000815260040161072b90612358565b60405180910390fd5b6006600082815260200190815260200160002060009054906101000a900460ff1615610795576040517f08c379a000000000000000000000000000000000000000000000000000000000815260040161078c906122c6565b60405180910390fd5b6107a0838383610f5e565b505050565b60006107b0836109af565b90508073ffffffffffffffffffffffffffffffffffffffff166107d1610e08565b73ffffffffffffffffffffffffffffffffffffffff1614610827576040517f08c379a000000000000000000000000000000000000000000000000000000000815260040161081e906123ea565b60405180910390fd5b600073ffffffffffffffffffffffffffffffffffffffff166004600085815260200190815260200160002060009054906101000a900473ffffffffffffffffffffffffffffffffffffffff1673ffffffffffffffffffffffffffffffffffffffff16146108c9576040517f08c379a00000000000000000000000000000000000000000000000000000000081526004016108c090612456565b60405180910390fd5b600760008273ffffffffffffffffffffffffffffffffffffffff1673ffffffffffffffffffffffffffffffffffffffff16815260200190815260200160002060009054906101000a900460ff1615610956576040517f08c379a000000000000000000000000000000000000000000000000000000000815260040161094d90612456565b60405180910390fd5b6109608383611257565b505050565b60006006600083815260200190815260200160002060009054906101000a900460ff169050919050565b6109aa83838360405180602001604052806000815250610b94565b505050565b6000806109bb836113ef565b9050600073ffffffffffffffffffffffffffffffffffffffff168173ffffffffffffffffffffffffffffffffffffffff1603610a2c576040517f08c379a0000000000000000000000000000000000000000000000000000000008152600401610a23906124c2565b60405180910390fd5b80915050919050565b60008073ffffffffffffffffffffffffffffffffffffffff168273ffffffffffffffffffffffffffffffffffffffff1603610aa5576040517f08c379a0000000000000000000000000000000000000000000000000000000008152600401610a9c90612554565b60405180910390fd5b600360008373ffffffffffffffffffffffffffffffffffffffff1673ffffffffffffffffffffffffffffffffffffffff168152602001908152602001600020549050919050565b606060018054610afb90612125565b80601f0160208091040260200160405190810160405280929190818152602001828054610b2790612125565b8015610b745780601f10610b4957610100808354040283529160200191610b74565b820191906000526020600020905b815481529060010190602001808311610b5757829003601f168201915b5050505050905090565b610b90610b89610e08565b838361142c565b5050565b610ba5610b9f610e08565b83610ec9565b610be4576040517f08c379a0000000000000000000000000000000000000000000000000000000008152600401610bdb90612358565b60405180910390fd5b6006600083815260200190815260200160002060009054906101000a900460ff1615610c45576040517f08c379a0000000000000000000000000000000000000000000000000000000008152600401610c3c906122c6565b60405180910390fd5b610c5184848484611671565b50505050565b6060610c6282610dbd565b6000610c6c6116cd565b90506000815111610c8c5760405180602001604052806000815250610cb7565b80610c96846116e4565b604051602001610ca79291906125b0565b6040516020818303038152906040525b915050919050565b6000600560008473ffffffffffffffffffffffffffffffffffffffff1673ffffffffffffffffffffffffffffffffffffffff16815260200190815260200160002060008373ffffffffffffffffffffffffffffffffffffffff1673ffffffffffffffffffffffffffffffffffffffff16815260200190815260200160002060009054906101000a900460ff16905092915050565b60007f01ffc9a7000000000000000000000000000000000000000000000000000000007bffffffffffffffffffffffffffffffffffffffffffffffffffffffff1916827bffffffffffffffffffffffffffffffffffffffffffffffffffffffff1916149050919050565b610dc6816117b2565b610e05576040517f08c379a0000000000000000000000000000000000000000000000000000000008152600401610dfc906124c2565b60405180910390fd5b50565b600033905090565b816004600083815260200190815260200160002060006101000a81548173ffffffffffffffffffffffffffffffffffffffff021916908373ffffffffffffffffffffffffffffffffffffffff160217905550808273ffffffffffffffffffffffffffffffffffffffff16610e83836109af565b73ffffffffffffffffffffffffffffffffffffffff167f8c5be1e5ebec7d5bd14f71427d1e84f3dd0314c0f7b2291e5b200ac8c7c3b92560405160405180910390a45050565b600080610ed5836109af565b90508073ffffffffffffffffffffffffffffffffffffffff168473ffffffffffffffffffffffffffffffffffffffff161480610f175750610f168185610cbf565b5b80610f5557508373ffffffffffffffffffffffffffffffffffffffff16610f3d84610526565b73ffffffffffffffffffffffffffffffffffffffff16145b91505092915050565b8273ffffffffffffffffffffffffffffffffffffffff16610f7e826109af565b73ffffffffffffffffffffffffffffffffffffffff1614610fd4576040517f08c379a0000000000000000000000000000000000000000000000000000000008152600401610fcb90612646565b60405180910390fd5b600073ffffffffffffffffffffffffffffffffffffffff168273ffffffffffffffffffffffffffffffffffffffff1603611043576040517f08c379a000000000000000000000000000000000000000000000000000000000815260040161103a906126d8565b60405180910390fd5b61105083838360016117f3565b8273ffffffffffffffffffffffffffffffffffffffff16611070826109af565b73ffffffffffffffffffffffffffffffffffffffff16146110c6576040517f08c379a00000000000000000000000000000000000000000000000000000000081526004016110bd90612646565b60405180910390fd5b6004600082815260200190815260200160002060006101000a81549073ffffffffffffffffffffffffffffffffffffffff02191690556001600360008573ffffffffffffffffffffffffffffffffffffffff1673ffffffffffffffffffffffffffffffffffffffff168152602001908152602001600020600082825403925050819055506001600360008473ffffffffffffffffffffffffffffffffffffffff1673ffffffffffffffffffffffffffffffffffffffff16815260200190815260200160002060008282540192505081905550816002600083815260200190815260200160002060006101000a81548173ffffffffffffffffffffffffffffffffffffffff021916908373ffffffffffffffffffffffffffffffffffffffff160217905550808273ffffffffffffffffffffffffffffffffffffffff168473ffffffffffffffffffffffffffffffffffffffff167fddf252ad1be2c89b69c2b068fc378daa952ba7f163c4a11628f55a4df523b3ef60405160405180910390a461125283838360016117f9565b505050565b6000611262836109af565b905081801561128f57506006600084815260200190815260200160002060009054906101000a900460ff16155b156112e7576001600860008373ffffffffffffffffffffffffffffffffffffffff1673ffffffffffffffffffffffffffffffffffffffff16815260200190815260200160002060008282540192505081905550611367565b8115801561131257506006600084815260200190815260200160002060009054906101000a900460ff165b15611366576001600860008373ffffffffffffffffffffffffffffffffffffffff1673ffffffffffffffffffffffffffffffffffffffff168152602001908152602001600020600082825403925050819055505b5b816006600085815260200190815260200160002060006101000a81548160ff02191690831515021790555061139b836109af565b73ffffffffffffffffffffffffffffffffffffffff167fb5aaf11176f7b5020892b8a131e119463931075db10e5e370c7d63292206ec6384846040516113e29291906126f8565b60405180910390a2505050565b60006002600083815260200190815260200160002060009054906101000a900473ffffffffffffffffffffffffffffffffffffffff169050919050565b8173ffffffffffffffffffffffffffffffffffffffff168373ffffffffffffffffffffffffffffffffffffffff160361149a576040517f08c379a00000000000000000000000000000000000000000000000000000000081526004016114919061276d565b60405180910390fd5b6000600860008573ffffffffffffffffffffffffffffffffffffffff1673ffffffffffffffffffffffffffffffffffffffff168152602001908152602001600020541461151c576040517f08c379a0000000000000000000000000000000000000000000000000000000008152600401611513906122c6565b60405180910390fd5b80600560008573ffffffffffffffffffffffffffffffffffffffff1673ffffffffffffffffffffffffffffffffffffffff16815260200190815260200160002060008473ffffffffffffffffffffffffffffffffffffffff1673ffffffffffffffffffffffffffffffffffffffff16815260200190815260200160002060006101000a81548160ff02191690831515021790555080600760008573ffffffffffffffffffffffffffffffffffffffff1673ffffffffffffffffffffffffffffffffffffffff16815260200190815260200160002060006101000a81548160ff0219169083151502179055508173ffffffffffffffffffffffffffffffffffffffff168373ffffffffffffffffffffffffffffffffffffffff167f17307eab39ab6107e8899845ad3d59bd9653f200f220920489ca2b5937696c31836040516116649190611bb0565b60405180910390a3505050565b61167c848484610f5e565b611688848484846117ff565b6116c7576040517f08c379a00000000000000000000000000000000000000000000000000000000081526004016116be906127ff565b60405180910390fd5b50505050565b606060405180602001604052806000815250905090565b6060600060016116f384611986565b01905060008167ffffffffffffffff81111561171257611711611f08565b5b6040519080825280601f01601f1916602001820160405280156117445781602001600182028036833780820191505090505b509050600082602001820190505b6001156117a7578080600190039150507f3031323334353637383961626364656600000000000000000000000000000000600a86061a8153600a858161179b5761179a61281f565b5b04945060008503611752575b819350505050919050565b60008073ffffffffffffffffffffffffffffffffffffffff166117d4836113ef565b73ffffffffffffffffffffffffffffffffffffffff1614159050919050565b50505050565b50505050565b60006118208473ffffffffffffffffffffffffffffffffffffffff16611ad9565b15611979578373ffffffffffffffffffffffffffffffffffffffff1663150b7a02611849610e08565b8786866040518563ffffffff1660e01b815260040161186b94939291906128a3565b6020604051808303816000875af19250505080156118a757506040513d601f19601f820116820180604052508101906118a49190612904565b60015b611929573d80600081146118d7576040519150601f19603f3d011682016040523d82523d6000602084013e6118dc565b606091505b506000815103611921576040517f08c379a0000000000000000000000000000000000000000000000000000000008152600401611918906127ff565b60405180910390fd5b805181602001fd5b63150b7a0260e01b7bffffffffffffffffffffffffffffffffffffffffffffffffffffffff1916817bffffffffffffffffffffffffffffffffffffffffffffffffffffffff19161491505061197e565b600190505b949350505050565b600080600090507a184f03e93ff9f4daa797ed6e38ed64bf6a1f01000000000000000083106119e4577a184f03e93ff9f4daa797ed6e38ed64bf6a1f01000000000000000083816119da576119d961281f565b5b0492506040810190505b6d04ee2d6d415b85acef81000000008310611a21576d04ee2d6d415b85acef81000000008381611a1757611a1661281f565b5b0492506020810190505b662386f26fc100008310611a5057662386f26fc100008381611a4657611a4561281f565b5b0492506010810190505b6305f5e1008310611a79576305f5e1008381611a6f57611a6e61281f565b5b0492506008810190505b6127108310611a9e576127108381611a9457611a9361281f565b5b0492506004810190505b60648310611ac15760648381611ab757611ab661281f565b5b0492506002810190505b600a8310611ad0576001810190505b80915050919050565b6000808273ffffffffffffffffffffffffffffffffffffffff163b119050919050565b6000604051905090565b600080fd5b600080fd5b60007fffffffff0000000000000000000000000000000000000000000000000000000082169050919050565b611b4581611b10565b8114611b5057600080fd5b50565b600081359050611b6281611b3c565b92915050565b600060208284031215611b7e57611b7d611b06565b5b6000611b8c84828501611b53565b91505092915050565b60008115159050919050565b611baa81611b95565b82525050565b6000602082019050611bc56000830184611ba1565b92915050565b600081519050919050565b600082825260208201905092915050565b60005b83811015611c05578082015181840152602081019050611bea565b60008484015250505050565b6000601f19601f8301169050919050565b6000611c2d82611bcb565b611c378185611bd6565b9350611c47818560208601611be7565b611c5081611c11565b840191505092915050565b60006020820190508181036000830152611c758184611c22565b905092915050565b600073ffffffffffffffffffffffffffffffffffffffff82169050919050565b6000611ca882611c7d565b9050919050565b611cb881611c9d565b8114611cc357600080fd5b50565b600081359050611cd581611caf565b92915050565b600060208284031215611cf157611cf0611b06565b5b6000611cff84828501611cc6565b91505092915050565b6000819050919050565b611d1b81611d08565b82525050565b6000602082019050611d366000830184611d12565b92915050565b611d4581611d08565b8114611d5057600080fd5b50565b600081359050611d6281611d3c565b92915050565b600060208284031215611d7e57611d7d611b06565b5b6000611d8c84828501611d53565b91505092915050565b611d9e81611c9d565b82525050565b6000602082019050611db96000830184611d95565b92915050565b60008060408385031215611dd657611dd5611b06565b5b6000611de485828601611cc6565b9250506020611df585828601611d53565b9150509250929050565b600080600060608486031215611e1857611e17611b06565b5b6000611e2686828701611cc6565b9350506020611e3786828701611cc6565b9250506040611e4886828701611d53565b9150509250925092565b611e5b81611b95565b8114611e6657600080fd5b50565b600081359050611e7881611e52565b92915050565b60008060408385031215611e9557611e94611b06565b5b6000611ea385828601611d53565b9250506020611eb485828601611e69565b9150509250929050565b60008060408385031215611ed557611ed4611b06565b5b6000611ee385828601611cc6565b9250506020611ef485828601611e69565b9150509250929050565b600080fd5b600080fd5b7f4e487b7100000000000000000000000000000000000000000000000000000000600052604160045260246000fd5b611f4082611c11565b810181811067ffffffffffffffff82111715611f5f57611f5e611f08565b5b80604052505050565b6000611f72611afc565b9050611f7e8282611f37565b919050565b600067ffffffffffffffff821115611f9e57611f9d611f08565b5b611fa782611c11565b9050602081019050919050565b82818337600083830152505050565b6000611fd6611fd184611f83565b611f68565b905082815260208101848484011115611ff257611ff1611f03565b5b611ffd848285611fb4565b509392505050565b600082601f83011261201a57612019611efe565b5b813561202a848260208601611fc3565b91505092915050565b6000806000806080858703121561204d5761204c611b06565b5b600061205b87828801611cc6565b945050602061206c87828801611cc6565b935050604061207d87828801611d53565b925050606085013567ffffffffffffffff81111561209e5761209d611b0b565b5b6120aa87828801612005565b91505092959194509250565b600080604083850312156120cd576120cc611b06565b5b60006120db85828601611cc6565b92505060206120ec85828601611cc6565b9150509250929050565b7f4e487b7100000000000000000000000000000000000000000000000000000000600052602260045260246000fd5b6000600282049050600182168061213d57607f821691505b6020821081036121505761214f6120f6565b5b50919050565b7f4552433732313a20617070726f76616c20746f2063757272656e74206f776e6560008201527f7200000000000000000000000000000000000000000000000000000000000000602082015250565b60006121b2602183611bd6565b91506121bd82612156565b604082019050919050565b600060208201905081810360008301526121e1816121a5565b9050919050565b7f4552433732313a20617070726f76652063616c6c6572206973206e6f7420746f60008201527f6b656e206f776e6572206f7220617070726f76656420666f7220616c6c000000602082015250565b6000612244603d83611bd6565b915061224f826121e8565b604082019050919050565b6000602082019050818103600083015261227381612237565b9050919050565b7f4552433732313a20746f6b656e206c6f636b6564000000000000000000000000600082015250565b60006122b0601483611bd6565b91506122bb8261227a565b602082019050919050565b600060208201905081810360008301526122df816122a3565b9050919050565b7f4552433732313a2063616c6c6572206973206e6f7420746f6b656e206f776e6560008201527f72206f7220617070726f76656400000000000000000000000000000000000000602082015250565b6000612342602d83611bd6565b915061234d826122e6565b604082019050919050565b6000602082019050818103600083015261237181612335565b9050919050565b7f4552433732313a206c6f636b2063616c6c6572206973206e6f7420746f6b656e60008201527f206f776e6572206f7220617070726f76656420666f7220616c6c000000000000602082015250565b60006123d4603a83611bd6565b91506123df82612378565b604082019050919050565b60006020820190508181036000830152612403816123c7565b9050919050565b7f4552433732313a20746f6b656e20617070726f76656400000000000000000000600082015250565b6000612440601683611bd6565b915061244b8261240a565b602082019050919050565b6000602082019050818103600083015261246f81612433565b9050919050565b7f4552433732313a20696e76616c696420746f6b656e2049440000000000000000600082015250565b60006124ac601883611bd6565b91506124b782612476565b602082019050919050565b600060208201905081810360008301526124db8161249f565b9050919050565b7f4552433732313a2061646472657373207a65726f206973206e6f74206120766160008201527f6c6964206f776e65720000000000000000000000000000000000000000000000602082015250565b600061253e602983611bd6565b9150612549826124e2565b604082019050919050565b6000602082019050818103600083015261256d81612531565b9050919050565b600081905092915050565b600061258a82611bcb565b6125948185612574565b93506125a4818560208601611be7565b80840191505092915050565b60006125bc828561257f565b91506125c8828461257f565b91508190509392505050565b7f4552433732313a207472616e736665722066726f6d20696e636f72726563742060008201527f6f776e6572000000000000000000000000000000000000000000000000000000602082015250565b6000612630602583611bd6565b915061263b826125d4565b604082019050919050565b6000602082019050818103600083015261265f81612623565b9050919050565b7f4552433732313a207472616e7366657220746f20746865207a65726f2061646460008201527f7265737300000000000000000000000000000000000000000000000000000000602082015250565b60006126c2602483611bd6565b91506126cd82612666565b604082019050919050565b600060208201905081810360008301526126f1816126b5565b9050919050565b600060408201905061270d6000830185611d12565b61271a6020830184611ba1565b9392505050565b7f4552433732313a20617070726f766520746f2063616c6c657200000000000000600082015250565b6000612757601983611bd6565b915061276282612721565b602082019050919050565b600060208201905081810360008301526127868161274a565b9050919050565b7f4552433732313a207472616e7366657220746f206e6f6e20455243373231526560008201527f63656976657220696d706c656d656e7465720000000000000000000000000000602082015250565b60006127e9603283611bd6565b91506127f48261278d565b604082019050919050565b60006020820190508181036000830152612818816127dc565b9050919050565b7f4e487b7100000000000000000000000000000000000000000000000000000000600052601260045260246000fd5b600081519050919050565b600082825260208201905092915050565b60006128758261284e565b61287f8185612859565b935061288f818560208601611be7565b61289881611c11565b840191505092915050565b60006080820190506128b86000830187611d95565b6128c56020830186611d95565b6128d26040830185611d12565b81810360608301526128e4818461286a565b905095945050505050565b6000815190506128fe81611b3c565b92915050565b60006020828403121561291a57612919611b06565b5b6000612928848285016128ef565b9150509291505056fea26469706673582212206a6044119b26d3488c450895fb18ed0c16276cb678b68fc1550d84b77f877caf64736f6c63430008120033",
					"opcodes": "PUSH1 0x80 PUSH1 0x40 MSTORE CALLVALUE DUP1 ISZERO PUSH3 0x11 JUMPI PUSH1 0x0 DUP1 REVERT JUMPDEST POP PUSH1 0x40 MLOAD PUSH3 0x2F24 CODESIZE SUB DUP1 PUSH3 0x2F24 DUP4 CODECOPY DUP2 DUP2 ADD PUSH1 0x40 MSTORE DUP2 ADD SWAP1 PUSH3 0x37 SWAP2 SWAP1 PUSH3 0x1F6 JUMP JUMPDEST DUP2 PUSH1 0x0 SWAP1 DUP2 PUSH3 0x48 SWAP2 SWAP1 PUSH3 0x4C6 JUMP JUMPDEST POP DUP1 PUSH1 0x1 SWAP1 DUP2 PUSH3 0x5A SWAP2 SWAP1 PUSH3 0x4C6 JUMP JUMPDEST POP POP POP PUSH3 0x5AD JUMP JUMPDEST PUSH1 0x0 PUSH1 0x40 MLOAD SWAP1 POP SWAP1 JUMP JUMPDEST PUSH1 0x0 DUP1 REVERT JUMPDEST PUSH1 0x0 DUP1 REVERT JUMPDEST PUSH1 0x0 DUP1 REVERT JUMPDEST PUSH1 0x0 DUP1 REVERT JUMPDEST PUSH1 0x0 PUSH1 0x1F NOT PUSH1 0x1F DUP4 ADD AND SWAP1 POP SWAP2 SWAP1 POP JUMP JUMPDEST PUSH32 0x4E487B7100000000000000000000000000000000000000000000000000000000 PUSH1 0x0 MSTORE PUSH1 0x41 PUSH1 0x4 MSTORE PUSH1 0x24 PUSH1 0x0 REVERT JUMPDEST PUSH3 0xCC DUP3 PUSH3 0x81 JUMP JUMPDEST DUP2 ADD DUP2 DUP2 LT PUSH8 0xFFFFFFFFFFFFFFFF DUP3 GT OR ISZERO PUSH3 0xEE JUMPI PUSH3 0xED PUSH3 0x92 JUMP JUMPDEST JUMPDEST DUP1 PUSH1 0x40 MSTORE POP POP POP JUMP JUMPDEST PUSH1 0x0 PUSH3 0x103 PUSH3 0x63 JUMP JUMPDEST SWAP1 POP PUSH3 0x111 DUP3 DUP3 PUSH3 0xC1 JUMP JUMPDEST SWAP2 SWAP1 POP JUMP JUMPDEST PUSH1 0x0 PUSH8 0xFFFFFFFFFFFFFFFF DUP3 GT ISZERO PUSH3 0x134 JUMPI PUSH3 0x133 PUSH3 0x92 JUMP JUMPDEST JUMPDEST PUSH3 0x13F DUP3 PUSH3 0x81 JUMP JUMPDEST SWAP1 POP PUSH1 0x20 DUP2 ADD SWAP1 POP SWAP2 SWAP1 POP JUMP JUMPDEST PUSH1 0x0 JUMPDEST DUP4 DUP2 LT ISZERO PUSH3 0x16C JUMPI DUP1 DUP3 ADD MLOAD DUP2 DUP5 ADD MSTORE PUSH1 0x20 DUP2 ADD SWAP1 POP PUSH3 0x14F JUMP JUMPDEST PUSH1 0x0 DUP5 DUP5 ADD MSTORE POP POP POP POP JUMP JUMPDEST PUSH1 0x0 PUSH3 0x18F PUSH3 0x189 DUP5 PUSH3 0x116 JUMP JUMPDEST PUSH3 0xF7 JUMP JUMPDEST SWAP1 POP DUP3 DUP2 MSTORE PUSH1 0x20 DUP2 ADD DUP5 DUP5 DUP5 ADD GT ISZERO PUSH3 0x1AE JUMPI PUSH3 0x1AD PUSH3 0x7C JUMP JUMPDEST JUMPDEST PUSH3 0x1BB DUP5 DUP3 DUP6 PUSH3 0x14C JUMP JUMPDEST POP SWAP4 SWAP3 POP POP POP JUMP JUMPDEST PUSH1 0x0 DUP3 PUSH1 0x1F DUP4 ADD SLT PUSH3 0x1DB JUMPI PUSH3 0x1DA PUSH3 0x77 JUMP JUMPDEST JUMPDEST DUP2 MLOAD PUSH3 0x1ED DUP5 DUP3 PUSH1 0x20 DUP7 ADD PUSH3 0x178 JUMP JUMPDEST SWAP2 POP POP SWAP3 SWAP2 POP POP JUMP JUMPDEST PUSH1 0x0 DUP1 PUSH1 0x40 DUP4 DUP6 SUB SLT ISZERO PUSH3 0x210 JUMPI PUSH3 0x20F PUSH3 0x6D JUMP JUMPDEST JUMPDEST PUSH1 0x0 DUP4 ADD MLOAD PUSH8 0xFFFFFFFFFFFFFFFF DUP2 GT ISZERO PUSH3 0x231 JUMPI PUSH3 0x230 PUSH3 0x72 JUMP JUMPDEST JUMPDEST PUSH3 0x23F DUP6 DUP3 DUP7 ADD PUSH3 0x1C3 JUMP JUMPDEST SWAP3 POP POP PUSH1 0x20 DUP4 ADD MLOAD PUSH8 0xFFFFFFFFFFFFFFFF DUP2 GT ISZERO PUSH3 0x263 JUMPI PUSH3 0x262 PUSH3 0x72 JUMP JUMPDEST JUMPDEST PUSH3 0x271 DUP6 DUP3 DUP7 ADD PUSH3 0x1C3 JUMP JUMPDEST SWAP2 POP POP SWAP3 POP SWAP3 SWAP1 POP JUMP JUMPDEST PUSH1 0x0 DUP2 MLOAD SWAP1 POP SWAP2 SWAP1 POP JUMP JUMPDEST PUSH32 0x4E487B7100000000000000000000000000000000000000000000000000000000 PUSH1 0x0 MSTORE PUSH1 0x22 PUSH1 0x4 MSTORE PUSH1 0x24 PUSH1 0x0 REVERT JUMPDEST PUSH1 0x0 PUSH1 0x2 DUP3 DIV SWAP1 POP PUSH1 0x1 DUP3 AND DUP1 PUSH3 0x2CE JUMPI PUSH1 0x7F DUP3 AND SWAP2 POP JUMPDEST PUSH1 0x20 DUP3 LT DUP2 SUB PUSH3 0x2E4 JUMPI PUSH3 0x2E3 PUSH3 0x286 JUMP JUMPDEST JUMPDEST POP SWAP2 SWAP1 POP JUMP JUMPDEST PUSH1 0x0 DUP2 SWAP1 POP DUP2 PUSH1 0x0 MSTORE PUSH1 0x20 PUSH1 0x0 KECCAK256 SWAP1 POP SWAP2 SWAP1 POP JUMP JUMPDEST PUSH1 0x0 PUSH1 0x20 PUSH1 0x1F DUP4 ADD DIV SWAP1 POP SWAP2 SWAP1 POP JUMP JUMPDEST PUSH1 0x0 DUP3 DUP3 SHL SWAP1 POP SWAP3 SWAP2 POP POP JUMP JUMPDEST PUSH1 0x0 PUSH1 0x8 DUP4 MUL PUSH3 0x34E PUSH32 0xFFFFFFFFFFFFFFFFFFFFFFFFFFFFFFFFFFFFFFFFFFFFFFFFFFFFFFFFFFFFFFFF DUP3 PUSH3 0x30F JUMP JUMPDEST PUSH3 0x35A DUP7 DUP4 PUSH3 0x30F JUMP JUMPDEST SWAP6 POP DUP1 NOT DUP5 AND SWAP4 POP DUP1 DUP7 AND DUP5 OR SWAP3 POP POP POP SWAP4 SWAP3 POP POP POP JUMP JUMPDEST PUSH1 0x0 DUP2 SWAP1 POP SWAP2 SWAP1 POP JUMP JUMPDEST PUSH1 0x0 DUP2 SWAP1 POP SWAP2 SWAP1 POP JUMP JUMPDEST PUSH1 0x0 PUSH3 0x3A7 PUSH3 0x3A1 PUSH3 0x39B DUP5 PUSH3 0x372 JUMP JUMPDEST PUSH3 0x37C JUMP JUMPDEST PUSH3 0x372 JUMP JUMPDEST SWAP1 POP SWAP2 SWAP1 POP JUMP JUMPDEST PUSH1 0x0 DUP2 SWAP1 POP SWAP2 SWAP1 POP JUMP JUMPDEST PUSH3 0x3C3 DUP4 PUSH3 0x386 JUMP JUMPDEST PUSH3 0x3DB PUSH3 0x3D2 DUP3 PUSH3 0x3AE JUMP JUMPDEST DUP5 DUP5 SLOAD PUSH3 0x31C JUMP JUMPDEST DUP3 SSTORE POP POP POP POP JUMP JUMPDEST PUSH1 0x0 SWAP1 JUMP JUMPDEST PUSH3 0x3F2 PUSH3 0x3E3 JUMP JUMPDEST PUSH3 0x3FF DUP2 DUP5 DUP5 PUSH3 0x3B8 JUMP JUMPDEST POP POP POP JUMP JUMPDEST JUMPDEST DUP2 DUP2 LT ISZERO PUSH3 0x427 JUMPI PUSH3 0x41B PUSH1 0x0 DUP3 PUSH3 0x3E8 JUMP JUMPDEST PUSH1 0x1 DUP2 ADD SWAP1 POP PUSH3 0x405 JUMP JUMPDEST POP POP JUMP JUMPDEST PUSH1 0x1F DUP3 GT ISZERO PUSH3 0x476 JUMPI PUSH3 0x440 DUP2 PUSH3 0x2EA JUMP JUMPDEST PUSH3 0x44B DUP5 PUSH3 0x2FF JUMP JUMPDEST DUP2 ADD PUSH1 0x20 DUP6 LT ISZERO PUSH3 0x45B JUMPI DUP2 SWAP1 POP JUMPDEST PUSH3 0x473 PUSH3 0x46A DUP6 PUSH3 0x2FF JUMP JUMPDEST DUP4 ADD DUP3 PUSH3 0x404 JUMP JUMPDEST POP POP JUMPDEST POP POP POP JUMP JUMPDEST PUSH1 0x0 DUP3 DUP3 SHR SWAP1 POP SWAP3 SWAP2 POP POP JUMP JUMPDEST PUSH1 0x0 PUSH3 0x49B PUSH1 0x0 NOT DUP5 PUSH1 0x8 MUL PUSH3 0x47B JUMP JUMPDEST NOT DUP1 DUP4 AND SWAP2 POP POP SWAP3 SWAP2 POP POP JUMP JUMPDEST PUSH1 0x0 PUSH3 0x4B6 DUP4 DUP4 PUSH3 0x488 JUMP JUMPDEST SWAP2 POP DUP3 PUSH1 0x2 MUL DUP3 OR SWAP1 POP SWAP3 SWAP2 POP POP JUMP JUMPDEST PUSH3 0x4D1 DUP3 PUSH3 0x27B JUMP JUMPDEST PUSH8 0xFFFFFFFFFFFFFFFF DUP2 GT ISZERO PUSH3 0x4ED JUMPI PUSH3 0x4EC PUSH3 0x92 JUMP JUMPDEST JUMPDEST PUSH3 0x4F9 DUP3 SLOAD PUSH3 0x2B5 JUMP JUMPDEST PUSH3 0x506 DUP3 DUP3 DUP6 PUSH3 0x42B JUMP JUMPDEST PUSH1 0x0 PUSH1 0x20 SWAP1 POP PUSH1 0x1F DUP4 GT PUSH1 0x1 DUP2 EQ PUSH3 0x53E JUMPI PUSH1 0x0 DUP5 ISZERO PUSH3 0x529 JUMPI DUP3 DUP8 ADD MLOAD SWAP1 POP JUMPDEST PUSH3 0x535 DUP6 DUP3 PUSH3 0x4A8 JUMP JUMPDEST DUP7 SSTORE POP PUSH3 0x5A5 JUMP JUMPDEST PUSH1 0x1F NOT DUP5 AND PUSH3 0x54E DUP7 PUSH3 0x2EA JUMP JUMPDEST PUSH1 0x0 JUMPDEST DUP3 DUP2 LT ISZERO PUSH3 0x578 JUMPI DUP5 DUP10 ADD MLOAD DUP3 SSTORE PUSH1 0x1 DUP3 ADD SWAP2 POP PUSH1 0x20 DUP6 ADD SWAP5 POP PUSH1 0x20 DUP2 ADD SWAP1 POP PUSH3 0x551 JUMP JUMPDEST DUP7 DUP4 LT ISZERO PUSH3 0x598 JUMPI DUP5 DUP10 ADD MLOAD PUSH3 0x594 PUSH1 0x1F DUP10 AND DUP3 PUSH3 0x488 JUMP JUMPDEST DUP4 SSTORE POP JUMPDEST PUSH1 0x1 PUSH1 0x2 DUP9 MUL ADD DUP9 SSTORE POP POP POP JUMPDEST POP POP POP POP POP POP JUMP JUMPDEST PUSH2 0x2967 DUP1 PUSH3 0x5BD PUSH1 0x0 CODECOPY PUSH1 0x0 RETURN INVALID PUSH1 0x80 PUSH1 0x40 MSTORE CALLVALUE DUP1 ISZERO PUSH2 0x10 JUMPI PUSH1 0x0 DUP1 REVERT JUMPDEST POP PUSH1 0x4 CALLDATASIZE LT PUSH2 0x100 JUMPI PUSH1 0x0 CALLDATALOAD PUSH1 0xE0 SHR DUP1 PUSH4 0x42842E0E GT PUSH2 0x97 JUMPI DUP1 PUSH4 0xA22CB465 GT PUSH2 0x66 JUMPI DUP1 PUSH4 0xA22CB465 EQ PUSH2 0x2D1 JUMPI DUP1 PUSH4 0xB88D4FDE EQ PUSH2 0x2ED JUMPI DUP1 PUSH4 0xC87B56DD EQ PUSH2 0x309 JUMPI DUP1 PUSH4 0xE985E9C5 EQ PUSH2 0x339 JUMPI PUSH2 0x100 JUMP JUMPDEST DUP1 PUSH4 0x42842E0E EQ PUSH2 0x237 JUMPI DUP1 PUSH4 0x6352211E EQ PUSH2 0x253 JUMPI DUP1 PUSH4 0x70A08231 EQ PUSH2 0x283 JUMPI DUP1 PUSH4 0x95D89B41 EQ PUSH2 0x2B3 JUMPI PUSH2 0x100 JUMP JUMPDEST DUP1 PUSH4 0x95EA7B3 GT PUSH2 0xD3 JUMPI DUP1 PUSH4 0x95EA7B3 EQ PUSH2 0x1B3 JUMPI DUP1 PUSH4 0x23B872DD EQ PUSH2 0x1CF JUMPI DUP1 PUSH4 0x346C94CF EQ PUSH2 0x1EB JUMPI DUP1 PUSH4 0x3B035DF6 EQ PUSH2 0x207 JUMPI PUSH2 0x100 JUMP JUMPDEST DUP1 PUSH4 0x1FFC9A7 EQ PUSH2 0x105 JUMPI DUP1 PUSH4 0x6FDDE03 EQ PUSH2 0x135 JUMPI DUP1 PUSH4 0x7F0661C EQ PUSH2 0x153 JUMPI DUP1 PUSH4 0x81812FC EQ PUSH2 0x183 JUMPI JUMPDEST PUSH1 0x0 DUP1 REVERT JUMPDEST PUSH2 0x11F PUSH1 0x4 DUP1 CALLDATASIZE SUB DUP2 ADD SWAP1 PUSH2 0x11A SWAP2 SWAP1 PUSH2 0x1B68 JUMP JUMPDEST PUSH2 0x369 JUMP JUMPDEST PUSH1 0x40 MLOAD PUSH2 0x12C SWAP2 SWAP1 PUSH2 0x1BB0 JUMP JUMPDEST PUSH1 0x40 MLOAD DUP1 SWAP2 SUB SWAP1 RETURN JUMPDEST PUSH2 0x13D PUSH2 0x44B JUMP JUMPDEST PUSH1 0x40 MLOAD PUSH2 0x14A SWAP2 SWAP1 PUSH2 0x1C5B JUMP JUMPDEST PUSH1 0x40 MLOAD DUP1 SWAP2 SUB SWAP1 RETURN JUMPDEST PUSH2 0x16D PUSH1 0x4 DUP1 CALLDATASIZE SUB DUP2 ADD SWAP1 PUSH2 0x168 SWAP2 SWAP1 PUSH2 0x1CDB JUMP JUMPDEST PUSH2 0x4DD JUMP JUMPDEST PUSH1 0x40 MLOAD PUSH2 0x17A SWAP2 SWAP1 PUSH2 0x1D21 JUMP JUMPDEST PUSH1 0x40 MLOAD DUP1 SWAP2 SUB SWAP1 RETURN JUMPDEST PUSH2 0x19D PUSH1 0x4 DUP1 CALLDATASIZE SUB DUP2 ADD SWAP1 PUSH2 0x198 SWAP2 SWAP1 PUSH2 0x1D68 JUMP JUMPDEST PUSH2 0x526 JUMP JUMPDEST PUSH1 0x40 MLOAD PUSH2 0x1AA SWAP2 SWAP1 PUSH2 0x1DA4 JUMP JUMPDEST PUSH1 0x40 MLOAD DUP1 SWAP2 SUB SWAP1 RETURN JUMPDEST PUSH2 0x1CD PUSH1 0x4 DUP1 CALLDATASIZE SUB DUP2 ADD SWAP1 PUSH2 0x1C8 SWAP2 SWAP1 PUSH2 0x1DBF JUMP JUMPDEST PUSH2 0x56C JUMP JUMPDEST STOP JUMPDEST PUSH2 0x1E9 PUSH1 0x4 DUP1 CALLDATASIZE SUB DUP2 ADD SWAP1 PUSH2 0x1E4 SWAP2 SWAP1 PUSH2 0x1DFF JUMP JUMPDEST PUSH2 0x6E4 JUMP JUMPDEST STOP JUMPDEST PUSH2 0x205 PUSH1 0x4 DUP1 CALLDATASIZE SUB DUP2 ADD SWAP1 PUSH2 0x200 SWAP2 SWAP1 PUSH2 0x1E7E JUMP JUMPDEST PUSH2 0x7A5 JUMP JUMPDEST STOP JUMPDEST PUSH2 0x221 PUSH1 0x4 DUP1 CALLDATASIZE SUB DUP2 ADD SWAP1 PUSH2 0x21C SWAP2 SWAP1 PUSH2 0x1D68 JUMP JUMPDEST PUSH2 0x965 JUMP JUMPDEST PUSH1 0x40 MLOAD PUSH2 0x22E SWAP2 SWAP1 PUSH2 0x1BB0 JUMP JUMPDEST PUSH1 0x40 MLOAD DUP1 SWAP2 SUB SWAP1 RETURN JUMPDEST PUSH2 0x251 PUSH1 0x4 DUP1 CALLDATASIZE SUB DUP2 ADD SWAP1 PUSH2 0x24C SWAP2 SWAP1 PUSH2 0x1DFF JUMP JUMPDEST PUSH2 0x98F JUMP JUMPDEST STOP JUMPDEST PUSH2 0x26D PUSH1 0x4 DUP1 CALLDATASIZE SUB DUP2 ADD SWAP1 PUSH2 0x268 SWAP2 SWAP1 PUSH2 0x1D68 JUMP JUMPDEST PUSH2 0x9AF JUMP JUMPDEST PUSH1 0x40 MLOAD PUSH2 0x27A SWAP2 SWAP1 PUSH2 0x1DA4 JUMP JUMPDEST PUSH1 0x40 MLOAD DUP1 SWAP2 SUB SWAP1 RETURN JUMPDEST PUSH2 0x29D PUSH1 0x4 DUP1 CALLDATASIZE SUB DUP2 ADD SWAP1 PUSH2 0x298 SWAP2 SWAP1 PUSH2 0x1CDB JUMP JUMPDEST PUSH2 0xA35 JUMP JUMPDEST PUSH1 0x40 MLOAD PUSH2 0x2AA SWAP2 SWAP1 PUSH2 0x1D21 JUMP JUMPDEST PUSH1 0x40 MLOAD DUP1 SWAP2 SUB SWAP1 RETURN JUMPDEST PUSH2 0x2BB PUSH2 0xAEC JUMP JUMPDEST PUSH1 0x40 MLOAD PUSH2 0x2C8 SWAP2 SWAP1 PUSH2 0x1C5B JUMP JUMPDEST PUSH1 0x40 MLOAD DUP1 SWAP2 SUB SWAP1 RETURN JUMPDEST PUSH2 0x2EB PUSH1 0x4 DUP1 CALLDATASIZE SUB DUP2 ADD SWAP1 PUSH2 0x2E6 SWAP2 SWAP1 PUSH2 0x1EBE JUMP JUMPDEST PUSH2 0xB7E JUMP JUMPDEST STOP JUMPDEST PUSH2 0x307 PUSH1 0x4 DUP1 CALLDATASIZE SUB DUP2 ADD SWAP1 PUSH2 0x302 SWAP2 SWAP1 PUSH2 0x2033 JUMP JUMPDEST PUSH2 0xB94 JUMP JUMPDEST STOP JUMPDEST PUSH2 0x323 PUSH1 0x4 DUP1 CALLDATASIZE SUB DUP2 ADD SWAP1 PUSH2 0x31E SWAP2 SWAP1 PUSH2 0x1D68 JUMP JUMPDEST PUSH2 0xC57 JUMP JUMPDEST PUSH1 0x40 MLOAD PUSH2 0x330 SWAP2 SWAP1 PUSH2 0x1C5B JUMP JUMPDEST PUSH1 0x40 MLOAD DUP1 SWAP2 SUB SWAP1 RETURN JUMPDEST PUSH2 0x353 PUSH1 0x4 DUP1 CALLDATASIZE SUB DUP2 ADD SWAP1 PUSH2 0x34E SWAP2 SWAP1 PUSH2 0x20B6 JUMP JUMPDEST PUSH2 0xCBF JUMP JUMPDEST PUSH1 0x40 MLOAD PUSH2 0x360 SWAP2 SWAP1 PUSH2 0x1BB0 JUMP JUMPDEST PUSH1 0x40 MLOAD DUP1 SWAP2 SUB SWAP1 RETURN JUMPDEST PUSH1 0x0 PUSH32 0x8833F7E800000000000000000000000000000000000000000000000000000000 PUSH28 0xFFFFFFFFFFFFFFFFFFFFFFFFFFFFFFFFFFFFFFFFFFFFFFFFFFFFFFFF NOT AND DUP3 PUSH28 0xFFFFFFFFFFFFFFFFFFFFFFFFFFFFFFFFFFFFFFFFFFFFFFFFFFFFFFFF NOT AND EQ DUP1 PUSH2 0x434 JUMPI POP PUSH32 0x5B5E139F00000000000000000000000000000000000000000000000000000000 PUSH28 0xFFFFFFFFFFFFFFFFFFFFFFFFFFFFFFFFFFFFFFFFFFFFFFFFFFFFFFFF NOT AND DUP3 PUSH28 0xFFFFFFFFFFFFFFFFFFFFFFFFFFFFFFFFFFFFFFFFFFFFFFFFFFFFFFFF NOT AND EQ JUMPDEST DUP1 PUSH2 0x444 JUMPI POP PUSH2 0x443 DUP3 PUSH2 0xD53 JUMP JUMPDEST JUMPDEST SWAP1 POP SWAP2 SWAP1 POP JUMP JUMPDEST PUSH1 0x60 PUSH1 0x0 DUP1 SLOAD PUSH2 0x45A SWAP1 PUSH2 0x2125 JUMP JUMPDEST DUP1 PUSH1 0x1F ADD PUSH1 0x20 DUP1 SWAP2 DIV MUL PUSH1 0x20 ADD PUSH1 0x40 MLOAD SWAP1 DUP2 ADD PUSH1 0x40 MSTORE DUP1 SWAP3 SWAP2 SWAP1 DUP2 DUP2 MSTORE PUSH1 0x20 ADD DUP3 DUP1 SLOAD PUSH2 0x486 SWAP1 PUSH2 0x2125 JUMP JUMPDEST DUP1 ISZERO PUSH2 0x4D3 JUMPI DUP1 PUSH1 0x1F LT PUSH2 0x4A8 JUMPI PUSH2 0x100 DUP1 DUP4 SLOAD DIV MUL DUP4 MSTORE SWAP2 PUSH1 0x20 ADD SWAP2 PUSH2 0x4D3 JUMP JUMPDEST DUP3 ADD SWAP2 SWAP1 PUSH1 0x0 MSTORE PUSH1 0x20 PUSH1 0x0 KECCAK256 SWAP1 JUMPDEST DUP2 SLOAD DUP2 MSTORE SWAP1 PUSH1 0x1 ADD SWAP1 PUSH1 0x20 ADD DUP1 DUP4 GT PUSH2 0x4B6 JUMPI DUP3 SWAP1 SUB PUSH1 0x1F AND DUP3 ADD SWAP2 JUMPDEST POP POP POP POP POP SWAP1 POP SWAP1 JUMP JUMPDEST PUSH1 0x0 PUSH1 0x8 PUSH1 0x0 DUP4 PUSH20 0xFFFFFFFFFFFFFFFFFFFFFFFFFFFFFFFFFFFFFFFF AND PUSH20 0xFFFFFFFFFFFFFFFFFFFFFFFFFFFFFFFFFFFFFFFF AND DUP2 MSTORE PUSH1 0x20 ADD SWAP1 DUP2 MSTORE PUSH1 0x20 ADD PUSH1 0x0 KECCAK256 SLOAD SWAP1 POP SWAP2 SWAP1 POP JUMP JUMPDEST PUSH1 0x0 PUSH2 0x531 DUP3 PUSH2 0xDBD JUMP JUMPDEST PUSH1 0x4 PUSH1 0x0 DUP4 DUP2 MSTORE PUSH1 0x20 ADD SWAP1 DUP2 MSTORE PUSH1 0x20 ADD PUSH1 0x0 KECCAK256 PUSH1 0x0 SWAP1 SLOAD SWAP1 PUSH2 0x100 EXP SWAP1 DIV PUSH20 0xFFFFFFFFFFFFFFFFFFFFFFFFFFFFFFFFFFFFFFFF AND SWAP1 POP SWAP2 SWAP1 POP JUMP JUMPDEST PUSH1 0x0 PUSH2 0x577 DUP3 PUSH2 0x9AF JUMP JUMPDEST SWAP1 POP DUP1 PUSH20 0xFFFFFFFFFFFFFFFFFFFFFFFFFFFFFFFFFFFFFFFF AND DUP4 PUSH20 0xFFFFFFFFFFFFFFFFFFFFFFFFFFFFFFFFFFFFFFFF AND SUB PUSH2 0x5E7 JUMPI PUSH1 0x40 MLOAD PUSH32 0x8C379A000000000000000000000000000000000000000000000000000000000 DUP2 MSTORE PUSH1 0x4 ADD PUSH2 0x5DE SWAP1 PUSH2 0x21C8 JUMP JUMPDEST PUSH1 0x40 MLOAD DUP1 SWAP2 SUB SWAP1 REVERT JUMPDEST DUP1 PUSH20 0xFFFFFFFFFFFFFFFFFFFFFFFFFFFFFFFFFFFFFFFF AND PUSH2 0x606 PUSH2 0xE08 JUMP JUMPDEST PUSH20 0xFFFFFFFFFFFFFFFFFFFFFFFFFFFFFFFFFFFFFFFF AND EQ DUP1 PUSH2 0x635 JUMPI POP PUSH2 0x634 DUP2 PUSH2 0x62F PUSH2 0xE08 JUMP JUMPDEST PUSH2 0xCBF JUMP JUMPDEST JUMPDEST PUSH2 0x674 JUMPI PUSH1 0x40 MLOAD PUSH32 0x8C379A000000000000000000000000000000000000000000000000000000000 DUP2 MSTORE PUSH1 0x4 ADD PUSH2 0x66B SWAP1 PUSH2 0x225A JUMP JUMPDEST PUSH1 0x40 MLOAD DUP1 SWAP2 SUB SWAP1 REVERT JUMPDEST PUSH1 0x6 PUSH1 0x0 DUP4 DUP2 MSTORE PUSH1 0x20 ADD SWAP1 DUP2 MSTORE PUSH1 0x20 ADD PUSH1 0x0 KECCAK256 PUSH1 0x0 SWAP1 SLOAD SWAP1 PUSH2 0x100 EXP SWAP1 DIV PUSH1 0xFF AND ISZERO PUSH2 0x6D5 JUMPI PUSH1 0x40 MLOAD PUSH32 0x8C379A000000000000000000000000000000000000000000000000000000000 DUP2 MSTORE PUSH1 0x4 ADD PUSH2 0x6CC SWAP1 PUSH2 0x22C6 JUMP JUMPDEST PUSH1 0x40 MLOAD DUP1 SWAP2 SUB SWAP1 REVERT JUMPDEST PUSH2 0x6DF DUP4 DUP4 PUSH2 0xE10 JUMP JUMPDEST POP POP POP JUMP JUMPDEST PUSH2 0x6F5 PUSH2 0x6EF PUSH2 0xE08 JUMP JUMPDEST DUP3 PUSH2 0xEC9 JUMP JUMPDEST PUSH2 0x734 JUMPI PUSH1 0x40 MLOAD PUSH32 0x8C379A000000000000000000000000000000000000000000000000000000000 DUP2 MSTORE PUSH1 0x4 ADD PUSH2 0x72B SWAP1 PUSH2 0x2358 JUMP JUMPDEST PUSH1 0x40 MLOAD DUP1 SWAP2 SUB SWAP1 REVERT JUMPDEST PUSH1 0x6 PUSH1 0x0 DUP3 DUP2 MSTORE PUSH1 0x20 ADD SWAP1 DUP2 MSTORE PUSH1 0x20 ADD PUSH1 0x0 KECCAK256 PUSH1 0x0 SWAP1 SLOAD SWAP1 PUSH2 0x100 EXP SWAP1 DIV PUSH1 0xFF AND ISZERO PUSH2 0x795 JUMPI PUSH1 0x40 MLOAD PUSH32 0x8C379A000000000000000000000000000000000000000000000000000000000 DUP2 MSTORE PUSH1 0x4 ADD PUSH2 0x78C SWAP1 PUSH2 0x22C6 JUMP JUMPDEST PUSH1 0x40 MLOAD DUP1 SWAP2 SUB SWAP1 REVERT JUMPDEST PUSH2 0x7A0 DUP4 DUP4 DUP4 PUSH2 0xF5E JUMP JUMPDEST POP POP POP JUMP JUMPDEST PUSH1 0x0 PUSH2 0x7B0 DUP4 PUSH2 0x9AF JUMP JUMPDEST SWAP1 POP DUP1 PUSH20 0xFFFFFFFFFFFFFFFFFFFFFFFFFFFFFFFFFFFFFFFF AND PUSH2 0x7D1 PUSH2 0xE08 JUMP JUMPDEST PUSH20 0xFFFFFFFFFFFFFFFFFFFFFFFFFFFFFFFFFFFFFFFF AND EQ PUSH2 0x827 JUMPI PUSH1 0x40 MLOAD PUSH32 0x8C379A000000000000000000000000000000000000000000000000000000000 DUP2 MSTORE PUSH1 0x4 ADD PUSH2 0x81E SWAP1 PUSH2 0x23EA JUMP JUMPDEST PUSH1 0x40 MLOAD DUP1 SWAP2 SUB SWAP1 REVERT JUMPDEST PUSH1 0x0 PUSH20 0xFFFFFFFFFFFFFFFFFFFFFFFFFFFFFFFFFFFFFFFF AND PUSH1 0x4 PUSH1 0x0 DUP6 DUP2 MSTORE PUSH1 0x20 ADD SWAP1 DUP2 MSTORE PUSH1 0x20 ADD PUSH1 0x0 KECCAK256 PUSH1 0x0 SWAP1 SLOAD SWAP1 PUSH2 0x100 EXP SWAP1 DIV PUSH20 0xFFFFFFFFFFFFFFFFFFFFFFFFFFFFFFFFFFFFFFFF AND PUSH20 0xFFFFFFFFFFFFFFFFFFFFFFFFFFFFFFFFFFFFFFFF AND EQ PUSH2 0x8C9 JUMPI PUSH1 0x40 MLOAD PUSH32 0x8C379A000000000000000000000000000000000000000000000000000000000 DUP2 MSTORE PUSH1 0x4 ADD PUSH2 0x8C0 SWAP1 PUSH2 0x2456 JUMP JUMPDEST PUSH1 0x40 MLOAD DUP1 SWAP2 SUB SWAP1 REVERT JUMPDEST PUSH1 0x7 PUSH1 0x0 DUP3 PUSH20 0xFFFFFFFFFFFFFFFFFFFFFFFFFFFFFFFFFFFFFFFF AND PUSH20 0xFFFFFFFFFFFFFFFFFFFFFFFFFFFFFFFFFFFFFFFF AND DUP2 MSTORE PUSH1 0x20 ADD SWAP1 DUP2 MSTORE PUSH1 0x20 ADD PUSH1 0x0 KECCAK256 PUSH1 0x0 SWAP1 SLOAD SWAP1 PUSH2 0x100 EXP SWAP1 DIV PUSH1 0xFF AND ISZERO PUSH2 0x956 JUMPI PUSH1 0x40 MLOAD PUSH32 0x8C379A000000000000000000000000000000000000000000000000000000000 DUP2 MSTORE PUSH1 0x4 ADD PUSH2 0x94D SWAP1 PUSH2 0x2456 JUMP JUMPDEST PUSH1 0x40 MLOAD DUP1 SWAP2 SUB SWAP1 REVERT JUMPDEST PUSH2 0x960 DUP4 DUP4 PUSH2 0x1257 JUMP JUMPDEST POP POP POP JUMP JUMPDEST PUSH1 0x0 PUSH1 0x6 PUSH1 0x0 DUP4 DUP2 MSTORE PUSH1 0x20 ADD SWAP1 DUP2 MSTORE PUSH1 0x20 ADD PUSH1 0x0 KECCAK256 PUSH1 0x0 SWAP1 SLOAD SWAP1 PUSH2 0x100 EXP SWAP1 DIV PUSH1 0xFF AND SWAP1 POP SWAP2 SWAP1 POP JUMP JUMPDEST PUSH2 0x9AA DUP4 DUP4 DUP4 PUSH1 0x40 MLOAD DUP1 PUSH1 0x20 ADD PUSH1 0x40 MSTORE DUP1 PUSH1 0x0 DUP2 MSTORE POP PUSH2 0xB94 JUMP JUMPDEST POP POP POP JUMP JUMPDEST PUSH1 0x0 DUP1 PUSH2 0x9BB DUP4 PUSH2 0x13EF JUMP JUMPDEST SWAP1 POP PUSH1 0x0 PUSH20 0xFFFFFFFFFFFFFFFFFFFFFFFFFFFFFFFFFFFFFFFF AND DUP2 PUSH20 0xFFFFFFFFFFFFFFFFFFFFFFFFFFFFFFFFFFFFFFFF AND SUB PUSH2 0xA2C JUMPI PUSH1 0x40 MLOAD PUSH32 0x8C379A000000000000000000000000000000000000000000000000000000000 DUP2 MSTORE PUSH1 0x4 ADD PUSH2 0xA23 SWAP1 PUSH2 0x24C2 JUMP JUMPDEST PUSH1 0x40 MLOAD DUP1 SWAP2 SUB SWAP1 REVERT JUMPDEST DUP1 SWAP2 POP POP SWAP2 SWAP1 POP JUMP JUMPDEST PUSH1 0x0 DUP1 PUSH20 0xFFFFFFFFFFFFFFFFFFFFFFFFFFFFFFFFFFFFFFFF AND DUP3 PUSH20 0xFFFFFFFFFFFFFFFFFFFFFFFFFFFFFFFFFFFFFFFF AND SUB PUSH2 0xAA5 JUMPI PUSH1 0x40 MLOAD PUSH32 0x8C379A000000000000000000000000000000000000000000000000000000000 DUP2 MSTORE PUSH1 0x4 ADD PUSH2 0xA9C SWAP1 PUSH2 0x2554 JUMP JUMPDEST PUSH1 0x40 MLOAD DUP1 SWAP2 SUB SWAP1 REVERT JUMPDEST PUSH1 0x3 PUSH1 0x0 DUP4 PUSH20 0xFFFFFFFFFFFFFFFFFFFFFFFFFFFFFFFFFFFFFFFF AND PUSH20 0xFFFFFFFFFFFFFFFFFFFFFFFFFFFFFFFFFFFFFFFF AND DUP2 MSTORE PUSH1 0x20 ADD SWAP1 DUP2 MSTORE PUSH1 0x20 ADD PUSH1 0x0 KECCAK256 SLOAD SWAP1 POP SWAP2 SWAP1 POP JUMP JUMPDEST PUSH1 0x60 PUSH1 0x1 DUP1 SLOAD PUSH2 0xAFB SWAP1 PUSH2 0x2125 JUMP JUMPDEST DUP1 PUSH1 0x1F ADD PUSH1 0x20 DUP1 SWAP2 DIV MUL PUSH1 0x20 ADD PUSH1 0x40 MLOAD SWAP1 DUP2 ADD PUSH1 0x40 MSTORE DUP1 SWAP3 SWAP2 SWAP1 DUP2 DUP2 MSTORE PUSH1 0x20 ADD DUP3 DUP1 SLOAD PUSH2 0xB27 SWAP1 PUSH2 0x2125 JUMP JUMPDEST DUP1 ISZERO PUSH2 0xB74 JUMPI DUP1 PUSH1 0x1F LT PUSH2 0xB49 JUMPI PUSH2 0x100 DUP1 DUP4 SLOAD DIV MUL DUP4 MSTORE SWAP2 PUSH1 0x20 ADD SWAP2 PUSH2 0xB74 JUMP JUMPDEST DUP3 ADD SWAP2 SWAP1 PUSH1 0x0 MSTORE PUSH1 0x20 PUSH1 0x0 KECCAK256 SWAP1 JUMPDEST DUP2 SLOAD DUP2 MSTORE SWAP1 PUSH1 0x1 ADD SWAP1 PUSH1 0x20 ADD DUP1 DUP4 GT PUSH2 0xB57 JUMPI DUP3 SWAP1 SUB PUSH1 0x1F AND DUP3 ADD SWAP2 JUMPDEST POP POP POP POP POP SWAP1 POP SWAP1 JUMP JUMPDEST PUSH2 0xB90 PUSH2 0xB89 PUSH2 0xE08 JUMP JUMPDEST DUP4 DUP4 PUSH2 0x142C JUMP JUMPDEST POP POP JUMP JUMPDEST PUSH2 0xBA5 PUSH2 0xB9F PUSH2 0xE08 JUMP JUMPDEST DUP4 PUSH2 0xEC9 JUMP JUMPDEST PUSH2 0xBE4 JUMPI PUSH1 0x40 MLOAD PUSH32 0x8C379A000000000000000000000000000000000000000000000000000000000 DUP2 MSTORE PUSH1 0x4 ADD PUSH2 0xBDB SWAP1 PUSH2 0x2358 JUMP JUMPDEST PUSH1 0x40 MLOAD DUP1 SWAP2 SUB SWAP1 REVERT JUMPDEST PUSH1 0x6 PUSH1 0x0 DUP4 DUP2 MSTORE PUSH1 0x20 ADD SWAP1 DUP2 MSTORE PUSH1 0x20 ADD PUSH1 0x0 KECCAK256 PUSH1 0x0 SWAP1 SLOAD SWAP1 PUSH2 0x100 EXP SWAP1 DIV PUSH1 0xFF AND ISZERO PUSH2 0xC45 JUMPI PUSH1 0x40 MLOAD PUSH32 0x8C379A000000000000000000000000000000000000000000000000000000000 DUP2 MSTORE PUSH1 0x4 ADD PUSH2 0xC3C SWAP1 PUSH2 0x22C6 JUMP JUMPDEST PUSH1 0x40 MLOAD DUP1 SWAP2 SUB SWAP1 REVERT JUMPDEST PUSH2 0xC51 DUP5 DUP5 DUP5 DUP5 PUSH2 0x1671 JUMP JUMPDEST POP POP POP POP JUMP JUMPDEST PUSH1 0x60 PUSH2 0xC62 DUP3 PUSH2 0xDBD JUMP JUMPDEST PUSH1 0x0 PUSH2 0xC6C PUSH2 0x16CD JUMP JUMPDEST SWAP1 POP PUSH1 0x0 DUP2 MLOAD GT PUSH2 0xC8C JUMPI PUSH1 0x40 MLOAD DUP1 PUSH1 0x20 ADD PUSH1 0x40 MSTORE DUP1 PUSH1 0x0 DUP2 MSTORE POP PUSH2 0xCB7 JUMP JUMPDEST DUP1 PUSH2 0xC96 DUP5 PUSH2 0x16E4 JUMP JUMPDEST PUSH1 0x40 MLOAD PUSH1 0x20 ADD PUSH2 0xCA7 SWAP3 SWAP2 SWAP1 PUSH2 0x25B0 JUMP JUMPDEST PUSH1 0x40 MLOAD PUSH1 0x20 DUP2 DUP4 SUB SUB DUP2 MSTORE SWAP1 PUSH1 0x40 MSTORE JUMPDEST SWAP2 POP POP SWAP2 SWAP1 POP JUMP JUMPDEST PUSH1 0x0 PUSH1 0x5 PUSH1 0x0 DUP5 PUSH20 0xFFFFFFFFFFFFFFFFFFFFFFFFFFFFFFFFFFFFFFFF AND PUSH20 0xFFFFFFFFFFFFFFFFFFFFFFFFFFFFFFFFFFFFFFFF AND DUP2 MSTORE PUSH1 0x20 ADD SWAP1 DUP2 MSTORE PUSH1 0x20 ADD PUSH1 0x0 KECCAK256 PUSH1 0x0 DUP4 PUSH20 0xFFFFFFFFFFFFFFFFFFFFFFFFFFFFFFFFFFFFFFFF AND PUSH20 0xFFFFFFFFFFFFFFFFFFFFFFFFFFFFFFFFFFFFFFFF AND DUP2 MSTORE PUSH1 0x20 ADD SWAP1 DUP2 MSTORE PUSH1 0x20 ADD PUSH1 0x0 KECCAK256 PUSH1 0x0 SWAP1 SLOAD SWAP1 PUSH2 0x100 EXP SWAP1 DIV PUSH1 0xFF AND SWAP1 POP SWAP3 SWAP2 POP POP JUMP JUMPDEST PUSH1 0x0 PUSH32 0x1FFC9A700000000000000000000000000000000000000000000000000000000 PUSH28 0xFFFFFFFFFFFFFFFFFFFFFFFFFFFFFFFFFFFFFFFFFFFFFFFFFFFFFFFF NOT AND DUP3 PUSH28 0xFFFFFFFFFFFFFFFFFFFFFFFFFFFFFFFFFFFFFFFFFFFFFFFFFFFFFFFF NOT AND EQ SWAP1 POP SWAP2 SWAP1 POP JUMP JUMPDEST PUSH2 0xDC6 DUP2 PUSH2 0x17B2 JUMP JUMPDEST PUSH2 0xE05 JUMPI PUSH1 0x40 MLOAD PUSH32 0x8C379A000000000000000000000000000000000000000000000000000000000 DUP2 MSTORE PUSH1 0x4 ADD PUSH2 0xDFC SWAP1 PUSH2 0x24C2 JUMP JUMPDEST PUSH1 0x40 MLOAD DUP1 SWAP2 SUB SWAP1 REVERT JUMPDEST POP JUMP JUMPDEST PUSH1 0x0 CALLER SWAP1 POP SWAP1 JUMP JUMPDEST DUP2 PUSH1 0x4 PUSH1 0x0 DUP4 DUP2 MSTORE PUSH1 0x20 ADD SWAP1 DUP2 MSTORE PUSH1 0x20 ADD PUSH1 0x0 KECCAK256 PUSH1 0x0 PUSH2 0x100 EXP DUP2 SLOAD DUP2 PUSH20 0xFFFFFFFFFFFFFFFFFFFFFFFFFFFFFFFFFFFFFFFF MUL NOT AND SWAP1 DUP4 PUSH20 0xFFFFFFFFFFFFFFFFFFFFFFFFFFFFFFFFFFFFFFFF AND MUL OR SWAP1 SSTORE POP DUP1 DUP3 PUSH20 0xFFFFFFFFFFFFFFFFFFFFFFFFFFFFFFFFFFFFFFFF AND PUSH2 0xE83 DUP4 PUSH2 0x9AF JUMP JUMPDEST PUSH20 0xFFFFFFFFFFFFFFFFFFFFFFFFFFFFFFFFFFFFFFFF AND PUSH32 0x8C5BE1E5EBEC7D5BD14F71427D1E84F3DD0314C0F7B2291E5B200AC8C7C3B925 PUSH1 0x40 MLOAD PUSH1 0x40 MLOAD DUP1 SWAP2 SUB SWAP1 LOG4 POP POP JUMP JUMPDEST PUSH1 0x0 DUP1 PUSH2 0xED5 DUP4 PUSH2 0x9AF JUMP JUMPDEST SWAP1 POP DUP1 PUSH20 0xFFFFFFFFFFFFFFFFFFFFFFFFFFFFFFFFFFFFFFFF AND DUP5 PUSH20 0xFFFFFFFFFFFFFFFFFFFFFFFFFFFFFFFFFFFFFFFF AND EQ DUP1 PUSH2 0xF17 JUMPI POP PUSH2 0xF16 DUP2 DUP6 PUSH2 0xCBF JUMP JUMPDEST JUMPDEST DUP1 PUSH2 0xF55 JUMPI POP DUP4 PUSH20 0xFFFFFFFFFFFFFFFFFFFFFFFFFFFFFFFFFFFFFFFF AND PUSH2 0xF3D DUP5 PUSH2 0x526 JUMP JUMPDEST PUSH20 0xFFFFFFFFFFFFFFFFFFFFFFFFFFFFFFFFFFFFFFFF AND EQ JUMPDEST SWAP2 POP POP SWAP3 SWAP2 POP POP JUMP JUMPDEST DUP3 PUSH20 0xFFFFFFFFFFFFFFFFFFFFFFFFFFFFFFFFFFFFFFFF AND PUSH2 0xF7E DUP3 PUSH2 0x9AF JUMP JUMPDEST PUSH20 0xFFFFFFFFFFFFFFFFFFFFFFFFFFFFFFFFFFFFFFFF AND EQ PUSH2 0xFD4 JUMPI PUSH1 0x40 MLOAD PUSH32 0x8C379A000000000000000000000000000000000000000000000000000000000 DUP2 MSTORE PUSH1 0x4 ADD PUSH2 0xFCB SWAP1 PUSH2 0x2646 JUMP JUMPDEST PUSH1 0x40 MLOAD DUP1 SWAP2 SUB SWAP1 REVERT JUMPDEST PUSH1 0x0 PUSH20 0xFFFFFFFFFFFFFFFFFFFFFFFFFFFFFFFFFFFFFFFF AND DUP3 PUSH20 0xFFFFFFFFFFFFFFFFFFFFFFFFFFFFFFFFFFFFFFFF AND SUB PUSH2 0x1043 JUMPI PUSH1 0x40 MLOAD PUSH32 0x8C379A000000000000000000000000000000000000000000000000000000000 DUP2 MSTORE PUSH1 0x4 ADD PUSH2 0x103A SWAP1 PUSH2 0x26D8 JUMP JUMPDEST PUSH1 0x40 MLOAD DUP1 SWAP2 SUB SWAP1 REVERT JUMPDEST PUSH2 0x1050 DUP4 DUP4 DUP4 PUSH1 0x1 PUSH2 0x17F3 JUMP JUMPDEST DUP3 PUSH20 0xFFFFFFFFFFFFFFFFFFFFFFFFFFFFFFFFFFFFFFFF AND PUSH2 0x1070 DUP3 PUSH2 0x9AF JUMP JUMPDEST PUSH20 0xFFFFFFFFFFFFFFFFFFFFFFFFFFFFFFFFFFFFFFFF AND EQ PUSH2 0x10C6 JUMPI PUSH1 0x40 MLOAD PUSH32 0x8C379A000000000000000000000000000000000000000000000000000000000 DUP2 MSTORE PUSH1 0x4 ADD PUSH2 0x10BD SWAP1 PUSH2 0x2646 JUMP JUMPDEST PUSH1 0x40 MLOAD DUP1 SWAP2 SUB SWAP1 REVERT JUMPDEST PUSH1 0x4 PUSH1 0x0 DUP3 DUP2 MSTORE PUSH1 0x20 ADD SWAP1 DUP2 MSTORE PUSH1 0x20 ADD PUSH1 0x0 KECCAK256 PUSH1 0x0 PUSH2 0x100 EXP DUP2 SLOAD SWAP1 PUSH20 0xFFFFFFFFFFFFFFFFFFFFFFFFFFFFFFFFFFFFFFFF MUL NOT AND SWAP1 SSTORE PUSH1 0x1 PUSH1 0x3 PUSH1 0x0 DUP6 PUSH20 0xFFFFFFFFFFFFFFFFFFFFFFFFFFFFFFFFFFFFFFFF AND PUSH20 0xFFFFFFFFFFFFFFFFFFFFFFFFFFFFFFFFFFFFFFFF AND DUP2 MSTORE PUSH1 0x20 ADD SWAP1 DUP2 MSTORE PUSH1 0x20 ADD PUSH1 0x0 KECCAK256 PUSH1 0x0 DUP3 DUP3 SLOAD SUB SWAP3 POP POP DUP2 SWAP1 SSTORE POP PUSH1 0x1 PUSH1 0x3 PUSH1 0x0 DUP5 PUSH20 0xFFFFFFFFFFFFFFFFFFFFFFFFFFFFFFFFFFFFFFFF AND PUSH20 0xFFFFFFFFFFFFFFFFFFFFFFFFFFFFFFFFFFFFFFFF AND DUP2 MSTORE PUSH1 0x20 ADD SWAP1 DUP2 MSTORE PUSH1 0x20 ADD PUSH1 0x0 KECCAK256 PUSH1 0x0 DUP3 DUP3 SLOAD ADD SWAP3 POP POP DUP2 SWAP1 SSTORE POP DUP2 PUSH1 0x2 PUSH1 0x0 DUP4 DUP2 MSTORE PUSH1 0x20 ADD SWAP1 DUP2 MSTORE PUSH1 0x20 ADD PUSH1 0x0 KECCAK256 PUSH1 0x0 PUSH2 0x100 EXP DUP2 SLOAD DUP2 PUSH20 0xFFFFFFFFFFFFFFFFFFFFFFFFFFFFFFFFFFFFFFFF MUL NOT AND SWAP1 DUP4 PUSH20 0xFFFFFFFFFFFFFFFFFFFFFFFFFFFFFFFFFFFFFFFF AND MUL OR SWAP1 SSTORE POP DUP1 DUP3 PUSH20 0xFFFFFFFFFFFFFFFFFFFFFFFFFFFFFFFFFFFFFFFF AND DUP5 PUSH20 0xFFFFFFFFFFFFFFFFFFFFFFFFFFFFFFFFFFFFFFFF AND PUSH32 0xDDF252AD1BE2C89B69C2B068FC378DAA952BA7F163C4A11628F55A4DF523B3EF PUSH1 0x40 MLOAD PUSH1 0x40 MLOAD DUP1 SWAP2 SUB SWAP1 LOG4 PUSH2 0x1252 DUP4 DUP4 DUP4 PUSH1 0x1 PUSH2 0x17F9 JUMP JUMPDEST POP POP POP JUMP JUMPDEST PUSH1 0x0 PUSH2 0x1262 DUP4 PUSH2 0x9AF JUMP JUMPDEST SWAP1 POP DUP2 DUP1 ISZERO PUSH2 0x128F JUMPI POP PUSH1 0x6 PUSH1 0x0 DUP5 DUP2 MSTORE PUSH1 0x20 ADD SWAP1 DUP2 MSTORE PUSH1 0x20 ADD PUSH1 0x0 KECCAK256 PUSH1 0x0 SWAP1 SLOAD SWAP1 PUSH2 0x100 EXP SWAP1 DIV PUSH1 0xFF AND ISZERO JUMPDEST ISZERO PUSH2 0x12E7 JUMPI PUSH1 0x1 PUSH1 0x8 PUSH1 0x0 DUP4 PUSH20 0xFFFFFFFFFFFFFFFFFFFFFFFFFFFFFFFFFFFFFFFF AND PUSH20 0xFFFFFFFFFFFFFFFFFFFFFFFFFFFFFFFFFFFFFFFF AND DUP2 MSTORE PUSH1 0x20 ADD SWAP1 DUP2 MSTORE PUSH1 0x20 ADD PUSH1 0x0 KECCAK256 PUSH1 0x0 DUP3 DUP3 SLOAD ADD SWAP3 POP POP DUP2 SWAP1 SSTORE POP PUSH2 0x1367 JUMP JUMPDEST DUP2 ISZERO DUP1 ISZERO PUSH2 0x1312 JUMPI POP PUSH1 0x6 PUSH1 0x0 DUP5 DUP2 MSTORE PUSH1 0x20 ADD SWAP1 DUP2 MSTORE PUSH1 0x20 ADD PUSH1 0x0 KECCAK256 PUSH1 0x0 SWAP1 SLOAD SWAP1 PUSH2 0x100 EXP SWAP1 DIV PUSH1 0xFF AND JUMPDEST ISZERO PUSH2 0x1366 JUMPI PUSH1 0x1 PUSH1 0x8 PUSH1 0x0 DUP4 PUSH20 0xFFFFFFFFFFFFFFFFFFFFFFFFFFFFFFFFFFFFFFFF AND PUSH20 0xFFFFFFFFFFFFFFFFFFFFFFFFFFFFFFFFFFFFFFFF AND DUP2 MSTORE PUSH1 0x20 ADD SWAP1 DUP2 MSTORE PUSH1 0x20 ADD PUSH1 0x0 KECCAK256 PUSH1 0x0 DUP3 DUP3 SLOAD SUB SWAP3 POP POP DUP2 SWAP1 SSTORE POP JUMPDEST JUMPDEST DUP2 PUSH1 0x6 PUSH1 0x0 DUP6 DUP2 MSTORE PUSH1 0x20 ADD SWAP1 DUP2 MSTORE PUSH1 0x20 ADD PUSH1 0x0 KECCAK256 PUSH1 0x0 PUSH2 0x100 EXP DUP2 SLOAD DUP2 PUSH1 0xFF MUL NOT AND SWAP1 DUP4 ISZERO ISZERO MUL OR SWAP1 SSTORE POP PUSH2 0x139B DUP4 PUSH2 0x9AF JUMP JUMPDEST PUSH20 0xFFFFFFFFFFFFFFFFFFFFFFFFFFFFFFFFFFFFFFFF AND PUSH32 0xB5AAF11176F7B5020892B8A131E119463931075DB10E5E370C7D63292206EC63 DUP5 DUP5 PUSH1 0x40 MLOAD PUSH2 0x13E2 SWAP3 SWAP2 SWAP1 PUSH2 0x26F8 JUMP JUMPDEST PUSH1 0x40 MLOAD DUP1 SWAP2 SUB SWAP1 LOG2 POP POP POP JUMP JUMPDEST PUSH1 0x0 PUSH1 0x2 PUSH1 0x0 DUP4 DUP2 MSTORE PUSH1 0x20 ADD SWAP1 DUP2 MSTORE PUSH1 0x20 ADD PUSH1 0x0 KECCAK256 PUSH1 0x0 SWAP1 SLOAD SWAP1 PUSH2 0x100 EXP SWAP1 DIV PUSH20 0xFFFFFFFFFFFFFFFFFFFFFFFFFFFFFFFFFFFFFFFF AND SWAP1 POP SWAP2 SWAP1 POP JUMP JUMPDEST DUP2 PUSH20 0xFFFFFFFFFFFFFFFFFFFFFFFFFFFFFFFFFFFFFFFF AND DUP4 PUSH20 0xFFFFFFFFFFFFFFFFFFFFFFFFFFFFFFFFFFFFFFFF AND SUB PUSH2 0x149A JUMPI PUSH1 0x40 MLOAD PUSH32 0x8C379A000000000000000000000000000000000000000000000000000000000 DUP2 MSTORE PUSH1 0x4 ADD PUSH2 0x1491 SWAP1 PUSH2 0x276D JUMP JUMPDEST PUSH1 0x40 MLOAD DUP1 SWAP2 SUB SWAP1 REVERT JUMPDEST PUSH1 0x0 PUSH1 0x8 PUSH1 0x0 DUP6 PUSH20 0xFFFFFFFFFFFFFFFFFFFFFFFFFFFFFFFFFFFFFFFF AND PUSH20 0xFFFFFFFFFFFFFFFFFFFFFFFFFFFFFFFFFFFFFFFF AND DUP2 MSTORE PUSH1 0x20 ADD SWAP1 DUP2 MSTORE PUSH1 0x20 ADD PUSH1 0x0 KECCAK256 SLOAD EQ PUSH2 0x151C JUMPI PUSH1 0x40 MLOAD PUSH32 0x8C379A000000000000000000000000000000000000000000000000000000000 DUP2 MSTORE PUSH1 0x4 ADD PUSH2 0x1513 SWAP1 PUSH2 0x22C6 JUMP JUMPDEST PUSH1 0x40 MLOAD DUP1 SWAP2 SUB SWAP1 REVERT JUMPDEST DUP1 PUSH1 0x5 PUSH1 0x0 DUP6 PUSH20 0xFFFFFFFFFFFFFFFFFFFFFFFFFFFFFFFFFFFFFFFF AND PUSH20 0xFFFFFFFFFFFFFFFFFFFFFFFFFFFFFFFFFFFFFFFF AND DUP2 MSTORE PUSH1 0x20 ADD SWAP1 DUP2 MSTORE PUSH1 0x20 ADD PUSH1 0x0 KECCAK256 PUSH1 0x0 DUP5 PUSH20 0xFFFFFFFFFFFFFFFFFFFFFFFFFFFFFFFFFFFFFFFF AND PUSH20 0xFFFFFFFFFFFFFFFFFFFFFFFFFFFFFFFFFFFFFFFF AND DUP2 MSTORE PUSH1 0x20 ADD SWAP1 DUP2 MSTORE PUSH1 0x20 ADD PUSH1 0x0 KECCAK256 PUSH1 0x0 PUSH2 0x100 EXP DUP2 SLOAD DUP2 PUSH1 0xFF MUL NOT AND SWAP1 DUP4 ISZERO ISZERO MUL OR SWAP1 SSTORE POP DUP1 PUSH1 0x7 PUSH1 0x0 DUP6 PUSH20 0xFFFFFFFFFFFFFFFFFFFFFFFFFFFFFFFFFFFFFFFF AND PUSH20 0xFFFFFFFFFFFFFFFFFFFFFFFFFFFFFFFFFFFFFFFF AND DUP2 MSTORE PUSH1 0x20 ADD SWAP1 DUP2 MSTORE PUSH1 0x20 ADD PUSH1 0x0 KECCAK256 PUSH1 0x0 PUSH2 0x100 EXP DUP2 SLOAD DUP2 PUSH1 0xFF MUL NOT AND SWAP1 DUP4 ISZERO ISZERO MUL OR SWAP1 SSTORE POP DUP2 PUSH20 0xFFFFFFFFFFFFFFFFFFFFFFFFFFFFFFFFFFFFFFFF AND DUP4 PUSH20 0xFFFFFFFFFFFFFFFFFFFFFFFFFFFFFFFFFFFFFFFF AND PUSH32 0x17307EAB39AB6107E8899845AD3D59BD9653F200F220920489CA2B5937696C31 DUP4 PUSH1 0x40 MLOAD PUSH2 0x1664 SWAP2 SWAP1 PUSH2 0x1BB0 JUMP JUMPDEST PUSH1 0x40 MLOAD DUP1 SWAP2 SUB SWAP1 LOG3 POP POP POP JUMP JUMPDEST PUSH2 0x167C DUP5 DUP5 DUP5 PUSH2 0xF5E JUMP JUMPDEST PUSH2 0x1688 DUP5 DUP5 DUP5 DUP5 PUSH2 0x17FF JUMP JUMPDEST PUSH2 0x16C7 JUMPI PUSH1 0x40 MLOAD PUSH32 0x8C379A000000000000000000000000000000000000000000000000000000000 DUP2 MSTORE PUSH1 0x4 ADD PUSH2 0x16BE SWAP1 PUSH2 0x27FF JUMP JUMPDEST PUSH1 0x40 MLOAD DUP1 SWAP2 SUB SWAP1 REVERT JUMPDEST POP POP POP POP JUMP JUMPDEST PUSH1 0x60 PUSH1 0x40 MLOAD DUP1 PUSH1 0x20 ADD PUSH1 0x40 MSTORE DUP1 PUSH1 0x0 DUP2 MSTORE POP SWAP1 POP SWAP1 JUMP JUMPDEST PUSH1 0x60 PUSH1 0x0 PUSH1 0x1 PUSH2 0x16F3 DUP5 PUSH2 0x1986 JUMP JUMPDEST ADD SWAP1 POP PUSH1 0x0 DUP2 PUSH8 0xFFFFFFFFFFFFFFFF DUP2 GT ISZERO PUSH2 0x1712 JUMPI PUSH2 0x1711 PUSH2 0x1F08 JUMP JUMPDEST JUMPDEST PUSH1 0x40 MLOAD SWAP1 DUP1 DUP3 MSTORE DUP1 PUSH1 0x1F ADD PUSH1 0x1F NOT AND PUSH1 0x20 ADD DUP3 ADD PUSH1 0x40 MSTORE DUP1 ISZERO PUSH2 0x1744 JUMPI DUP2 PUSH1 0x20 ADD PUSH1 0x1 DUP3 MUL DUP1 CALLDATASIZE DUP4 CALLDATACOPY DUP1 DUP3 ADD SWAP2 POP POP SWAP1 POP JUMPDEST POP SWAP1 POP PUSH1 0x0 DUP3 PUSH1 0x20 ADD DUP3 ADD SWAP1 POP JUMPDEST PUSH1 0x1 ISZERO PUSH2 0x17A7 JUMPI DUP1 DUP1 PUSH1 0x1 SWAP1 SUB SWAP2 POP POP PUSH32 0x3031323334353637383961626364656600000000000000000000000000000000 PUSH1 0xA DUP7 MOD BYTE DUP2 MSTORE8 PUSH1 0xA DUP6 DUP2 PUSH2 0x179B JUMPI PUSH2 0x179A PUSH2 0x281F JUMP JUMPDEST JUMPDEST DIV SWAP5 POP PUSH1 0x0 DUP6 SUB PUSH2 0x1752 JUMPI JUMPDEST DUP2 SWAP4 POP POP POP POP SWAP2 SWAP1 POP JUMP JUMPDEST PUSH1 0x0 DUP1 PUSH20 0xFFFFFFFFFFFFFFFFFFFFFFFFFFFFFFFFFFFFFFFF AND PUSH2 0x17D4 DUP4 PUSH2 0x13EF JUMP JUMPDEST PUSH20 0xFFFFFFFFFFFFFFFFFFFFFFFFFFFFFFFFFFFFFFFF AND EQ ISZERO SWAP1 POP SWAP2 SWAP1 POP JUMP JUMPDEST POP POP POP POP JUMP JUMPDEST POP POP POP POP JUMP JUMPDEST PUSH1 0x0 PUSH2 0x1820 DUP5 PUSH20 0xFFFFFFFFFFFFFFFFFFFFFFFFFFFFFFFFFFFFFFFF AND PUSH2 0x1AD9 JUMP JUMPDEST ISZERO PUSH2 0x1979 JUMPI DUP4 PUSH20 0xFFFFFFFFFFFFFFFFFFFFFFFFFFFFFFFFFFFFFFFF AND PUSH4 0x150B7A02 PUSH2 0x1849 PUSH2 0xE08 JUMP JUMPDEST DUP8 DUP7 DUP7 PUSH1 0x40 MLOAD DUP6 PUSH4 0xFFFFFFFF AND PUSH1 0xE0 SHL DUP2 MSTORE PUSH1 0x4 ADD PUSH2 0x186B SWAP5 SWAP4 SWAP3 SWAP2 SWAP1 PUSH2 0x28A3 JUMP JUMPDEST PUSH1 0x20 PUSH1 0x40 MLOAD DUP1 DUP4 SUB DUP2 PUSH1 0x0 DUP8 GAS CALL SWAP3 POP POP POP DUP1 ISZERO PUSH2 0x18A7 JUMPI POP PUSH1 0x40 MLOAD RETURNDATASIZE PUSH1 0x1F NOT PUSH1 0x1F DUP3 ADD AND DUP3 ADD DUP1 PUSH1 0x40 MSTORE POP DUP2 ADD SWAP1 PUSH2 0x18A4 SWAP2 SWAP1 PUSH2 0x2904 JUMP JUMPDEST PUSH1 0x1 JUMPDEST PUSH2 0x1929 JUMPI RETURNDATASIZE DUP1 PUSH1 0x0 DUP2 EQ PUSH2 0x18D7 JUMPI PUSH1 0x40 MLOAD SWAP2 POP PUSH1 0x1F NOT PUSH1 0x3F RETURNDATASIZE ADD AND DUP3 ADD PUSH1 0x40 MSTORE RETURNDATASIZE DUP3 MSTORE RETURNDATASIZE PUSH1 0x0 PUSH1 0x20 DUP5 ADD RETURNDATACOPY PUSH2 0x18DC JUMP JUMPDEST PUSH1 0x60 SWAP2 POP JUMPDEST POP PUSH1 0x0 DUP2 MLOAD SUB PUSH2 0x1921 JUMPI PUSH1 0x40 MLOAD PUSH32 0x8C379A000000000000000000000000000000000000000000000000000000000 DUP2 MSTORE PUSH1 0x4 ADD PUSH2 0x1918 SWAP1 PUSH2 0x27FF JUMP JUMPDEST PUSH1 0x40 MLOAD DUP1 SWAP2 SUB SWAP1 REVERT JUMPDEST DUP1 MLOAD DUP2 PUSH1 0x20 ADD REVERT JUMPDEST PUSH4 0x150B7A02 PUSH1 0xE0 SHL PUSH28 0xFFFFFFFFFFFFFFFFFFFFFFFFFFFFFFFFFFFFFFFFFFFFFFFFFFFFFFFF NOT AND DUP2 PUSH28 0xFFFFFFFFFFFFFFFFFFFFFFFFFFFFFFFFFFFFFFFFFFFFFFFFFFFFFFFF NOT AND EQ SWAP2 POP POP PUSH2 0x197E JUMP JUMPDEST PUSH1 0x1 SWAP1 POP JUMPDEST SWAP5 SWAP4 POP POP POP POP JUMP JUMPDEST PUSH1 0x0 DUP1 PUSH1 0x0 SWAP1 POP PUSH27 0x184F03E93FF9F4DAA797ED6E38ED64BF6A1F010000000000000000 DUP4 LT PUSH2 0x19E4 JUMPI PUSH27 0x184F03E93FF9F4DAA797ED6E38ED64BF6A1F010000000000000000 DUP4 DUP2 PUSH2 0x19DA JUMPI PUSH2 0x19D9 PUSH2 0x281F JUMP JUMPDEST JUMPDEST DIV SWAP3 POP PUSH1 0x40 DUP2 ADD SWAP1 POP JUMPDEST PUSH14 0x4EE2D6D415B85ACEF8100000000 DUP4 LT PUSH2 0x1A21 JUMPI PUSH14 0x4EE2D6D415B85ACEF8100000000 DUP4 DUP2 PUSH2 0x1A17 JUMPI PUSH2 0x1A16 PUSH2 0x281F JUMP JUMPDEST JUMPDEST DIV SWAP3 POP PUSH1 0x20 DUP2 ADD SWAP1 POP JUMPDEST PUSH7 0x2386F26FC10000 DUP4 LT PUSH2 0x1A50 JUMPI PUSH7 0x2386F26FC10000 DUP4 DUP2 PUSH2 0x1A46 JUMPI PUSH2 0x1A45 PUSH2 0x281F JUMP JUMPDEST JUMPDEST DIV SWAP3 POP PUSH1 0x10 DUP2 ADD SWAP1 POP JUMPDEST PUSH4 0x5F5E100 DUP4 LT PUSH2 0x1A79 JUMPI PUSH4 0x5F5E100 DUP4 DUP2 PUSH2 0x1A6F JUMPI PUSH2 0x1A6E PUSH2 0x281F JUMP JUMPDEST JUMPDEST DIV SWAP3 POP PUSH1 0x8 DUP2 ADD SWAP1 POP JUMPDEST PUSH2 0x2710 DUP4 LT PUSH2 0x1A9E JUMPI PUSH2 0x2710 DUP4 DUP2 PUSH2 0x1A94 JUMPI PUSH2 0x1A93 PUSH2 0x281F JUMP JUMPDEST JUMPDEST DIV SWAP3 POP PUSH1 0x4 DUP2 ADD SWAP1 POP JUMPDEST PUSH1 0x64 DUP4 LT PUSH2 0x1AC1 JUMPI PUSH1 0x64 DUP4 DUP2 PUSH2 0x1AB7 JUMPI PUSH2 0x1AB6 PUSH2 0x281F JUMP JUMPDEST JUMPDEST DIV SWAP3 POP PUSH1 0x2 DUP2 ADD SWAP1 POP JUMPDEST PUSH1 0xA DUP4 LT PUSH2 0x1AD0 JUMPI PUSH1 0x1 DUP2 ADD SWAP1 POP JUMPDEST DUP1 SWAP2 POP POP SWAP2 SWAP1 POP JUMP JUMPDEST PUSH1 0x0 DUP1 DUP3 PUSH20 0xFFFFFFFFFFFFFFFFFFFFFFFFFFFFFFFFFFFFFFFF AND EXTCODESIZE GT SWAP1 POP SWAP2 SWAP1 POP JUMP JUMPDEST PUSH1 0x0 PUSH1 0x40 MLOAD SWAP1 POP SWAP1 JUMP JUMPDEST PUSH1 0x0 DUP1 REVERT JUMPDEST PUSH1 0x0 DUP1 REVERT JUMPDEST PUSH1 0x0 PUSH32 0xFFFFFFFF00000000000000000000000000000000000000000000000000000000 DUP3 AND SWAP1 POP SWAP2 SWAP1 POP JUMP JUMPDEST PUSH2 0x1B45 DUP2 PUSH2 0x1B10 JUMP JUMPDEST DUP2 EQ PUSH2 0x1B50 JUMPI PUSH1 0x0 DUP1 REVERT JUMPDEST POP JUMP JUMPDEST PUSH1 0x0 DUP2 CALLDATALOAD SWAP1 POP PUSH2 0x1B62 DUP2 PUSH2 0x1B3C JUMP JUMPDEST SWAP3 SWAP2 POP POP JUMP JUMPDEST PUSH1 0x0 PUSH1 0x20 DUP3 DUP5 SUB SLT ISZERO PUSH2 0x1B7E JUMPI PUSH2 0x1B7D PUSH2 0x1B06 JUMP JUMPDEST JUMPDEST PUSH1 0x0 PUSH2 0x1B8C DUP5 DUP3 DUP6 ADD PUSH2 0x1B53 JUMP JUMPDEST SWAP2 POP POP SWAP3 SWAP2 POP POP JUMP JUMPDEST PUSH1 0x0 DUP2 ISZERO ISZERO SWAP1 POP SWAP2 SWAP1 POP JUMP JUMPDEST PUSH2 0x1BAA DUP2 PUSH2 0x1B95 JUMP JUMPDEST DUP3 MSTORE POP POP JUMP JUMPDEST PUSH1 0x0 PUSH1 0x20 DUP3 ADD SWAP1 POP PUSH2 0x1BC5 PUSH1 0x0 DUP4 ADD DUP5 PUSH2 0x1BA1 JUMP JUMPDEST SWAP3 SWAP2 POP POP JUMP JUMPDEST PUSH1 0x0 DUP2 MLOAD SWAP1 POP SWAP2 SWAP1 POP JUMP JUMPDEST PUSH1 0x0 DUP3 DUP3 MSTORE PUSH1 0x20 DUP3 ADD SWAP1 POP SWAP3 SWAP2 POP POP JUMP JUMPDEST PUSH1 0x0 JUMPDEST DUP4 DUP2 LT ISZERO PUSH2 0x1C05 JUMPI DUP1 DUP3 ADD MLOAD DUP2 DUP5 ADD MSTORE PUSH1 0x20 DUP2 ADD SWAP1 POP PUSH2 0x1BEA JUMP JUMPDEST PUSH1 0x0 DUP5 DUP5 ADD MSTORE POP POP POP POP JUMP JUMPDEST PUSH1 0x0 PUSH1 0x1F NOT PUSH1 0x1F DUP4 ADD AND SWAP1 POP SWAP2 SWAP1 POP JUMP JUMPDEST PUSH1 0x0 PUSH2 0x1C2D DUP3 PUSH2 0x1BCB JUMP JUMPDEST PUSH2 0x1C37 DUP2 DUP6 PUSH2 0x1BD6 JUMP JUMPDEST SWAP4 POP PUSH2 0x1C47 DUP2 DUP6 PUSH1 0x20 DUP7 ADD PUSH2 0x1BE7 JUMP JUMPDEST PUSH2 0x1C50 DUP2 PUSH2 0x1C11 JUMP JUMPDEST DUP5 ADD SWAP2 POP POP SWAP3 SWAP2 POP POP JUMP JUMPDEST PUSH1 0x0 PUSH1 0x20 DUP3 ADD SWAP1 POP DUP2 DUP2 SUB PUSH1 0x0 DUP4 ADD MSTORE PUSH2 0x1C75 DUP2 DUP5 PUSH2 0x1C22 JUMP JUMPDEST SWAP1 POP SWAP3 SWAP2 POP POP JUMP JUMPDEST PUSH1 0x0 PUSH20 0xFFFFFFFFFFFFFFFFFFFFFFFFFFFFFFFFFFFFFFFF DUP3 AND SWAP1 POP SWAP2 SWAP1 POP JUMP JUMPDEST PUSH1 0x0 PUSH2 0x1CA8 DUP3 PUSH2 0x1C7D JUMP JUMPDEST SWAP1 POP SWAP2 SWAP1 POP JUMP JUMPDEST PUSH2 0x1CB8 DUP2 PUSH2 0x1C9D JUMP JUMPDEST DUP2 EQ PUSH2 0x1CC3 JUMPI PUSH1 0x0 DUP1 REVERT JUMPDEST POP JUMP JUMPDEST PUSH1 0x0 DUP2 CALLDATALOAD SWAP1 POP PUSH2 0x1CD5 DUP2 PUSH2 0x1CAF JUMP JUMPDEST SWAP3 SWAP2 POP POP JUMP JUMPDEST PUSH1 0x0 PUSH1 0x20 DUP3 DUP5 SUB SLT ISZERO PUSH2 0x1CF1 JUMPI PUSH2 0x1CF0 PUSH2 0x1B06 JUMP JUMPDEST JUMPDEST PUSH1 0x0 PUSH2 0x1CFF DUP5 DUP3 DUP6 ADD PUSH2 0x1CC6 JUMP JUMPDEST SWAP2 POP POP SWAP3 SWAP2 POP POP JUMP JUMPDEST PUSH1 0x0 DUP2 SWAP1 POP SWAP2 SWAP1 POP JUMP JUMPDEST PUSH2 0x1D1B DUP2 PUSH2 0x1D08 JUMP JUMPDEST DUP3 MSTORE POP POP JUMP JUMPDEST PUSH1 0x0 PUSH1 0x20 DUP3 ADD SWAP1 POP PUSH2 0x1D36 PUSH1 0x0 DUP4 ADD DUP5 PUSH2 0x1D12 JUMP JUMPDEST SWAP3 SWAP2 POP POP JUMP JUMPDEST PUSH2 0x1D45 DUP2 PUSH2 0x1D08 JUMP JUMPDEST DUP2 EQ PUSH2 0x1D50 JUMPI PUSH1 0x0 DUP1 REVERT JUMPDEST POP JUMP JUMPDEST PUSH1 0x0 DUP2 CALLDATALOAD SWAP1 POP PUSH2 0x1D62 DUP2 PUSH2 0x1D3C JUMP JUMPDEST SWAP3 SWAP2 POP POP JUMP JUMPDEST PUSH1 0x0 PUSH1 0x20 DUP3 DUP5 SUB SLT ISZERO PUSH2 0x1D7E JUMPI PUSH2 0x1D7D PUSH2 0x1B06 JUMP JUMPDEST JUMPDEST PUSH1 0x0 PUSH2 0x1D8C DUP5 DUP3 DUP6 ADD PUSH2 0x1D53 JUMP JUMPDEST SWAP2 POP POP SWAP3 SWAP2 POP POP JUMP JUMPDEST PUSH2 0x1D9E DUP2 PUSH2 0x1C9D JUMP JUMPDEST DUP3 MSTORE POP POP JUMP JUMPDEST PUSH1 0x0 PUSH1 0x20 DUP3 ADD SWAP1 POP PUSH2 0x1DB9 PUSH1 0x0 DUP4 ADD DUP5 PUSH2 0x1D95 JUMP JUMPDEST SWAP3 SWAP2 POP POP JUMP JUMPDEST PUSH1 0x0 DUP1 PUSH1 0x40 DUP4 DUP6 SUB SLT ISZERO PUSH2 0x1DD6 JUMPI PUSH2 0x1DD5 PUSH2 0x1B06 JUMP JUMPDEST JUMPDEST PUSH1 0x0 PUSH2 0x1DE4 DUP6 DUP3 DUP7 ADD PUSH2 0x1CC6 JUMP JUMPDEST SWAP3 POP POP PUSH1 0x20 PUSH2 0x1DF5 DUP6 DUP3 DUP7 ADD PUSH2 0x1D53 JUMP JUMPDEST SWAP2 POP POP SWAP3 POP SWAP3 SWAP1 POP JUMP JUMPDEST PUSH1 0x0 DUP1 PUSH1 0x0 PUSH1 0x60 DUP5 DUP7 SUB SLT ISZERO PUSH2 0x1E18 JUMPI PUSH2 0x1E17 PUSH2 0x1B06 JUMP JUMPDEST JUMPDEST PUSH1 0x0 PUSH2 0x1E26 DUP7 DUP3 DUP8 ADD PUSH2 0x1CC6 JUMP JUMPDEST SWAP4 POP POP PUSH1 0x20 PUSH2 0x1E37 DUP7 DUP3 DUP8 ADD PUSH2 0x1CC6 JUMP JUMPDEST SWAP3 POP POP PUSH1 0x40 PUSH2 0x1E48 DUP7 DUP3 DUP8 ADD PUSH2 0x1D53 JUMP JUMPDEST SWAP2 POP POP SWAP3 POP SWAP3 POP SWAP3 JUMP JUMPDEST PUSH2 0x1E5B DUP2 PUSH2 0x1B95 JUMP JUMPDEST DUP2 EQ PUSH2 0x1E66 JUMPI PUSH1 0x0 DUP1 REVERT JUMPDEST POP JUMP JUMPDEST PUSH1 0x0 DUP2 CALLDATALOAD SWAP1 POP PUSH2 0x1E78 DUP2 PUSH2 0x1E52 JUMP JUMPDEST SWAP3 SWAP2 POP POP JUMP JUMPDEST PUSH1 0x0 DUP1 PUSH1 0x40 DUP4 DUP6 SUB SLT ISZERO PUSH2 0x1E95 JUMPI PUSH2 0x1E94 PUSH2 0x1B06 JUMP JUMPDEST JUMPDEST PUSH1 0x0 PUSH2 0x1EA3 DUP6 DUP3 DUP7 ADD PUSH2 0x1D53 JUMP JUMPDEST SWAP3 POP POP PUSH1 0x20 PUSH2 0x1EB4 DUP6 DUP3 DUP7 ADD PUSH2 0x1E69 JUMP JUMPDEST SWAP2 POP POP SWAP3 POP SWAP3 SWAP1 POP JUMP JUMPDEST PUSH1 0x0 DUP1 PUSH1 0x40 DUP4 DUP6 SUB SLT ISZERO PUSH2 0x1ED5 JUMPI PUSH2 0x1ED4 PUSH2 0x1B06 JUMP JUMPDEST JUMPDEST PUSH1 0x0 PUSH2 0x1EE3 DUP6 DUP3 DUP7 ADD PUSH2 0x1CC6 JUMP JUMPDEST SWAP3 POP POP PUSH1 0x20 PUSH2 0x1EF4 DUP6 DUP3 DUP7 ADD PUSH2 0x1E69 JUMP JUMPDEST SWAP2 POP POP SWAP3 POP SWAP3 SWAP1 POP JUMP JUMPDEST PUSH1 0x0 DUP1 REVERT JUMPDEST PUSH1 0x0 DUP1 REVERT JUMPDEST PUSH32 0x4E487B7100000000000000000000000000000000000000000000000000000000 PUSH1 0x0 MSTORE PUSH1 0x41 PUSH1 0x4 MSTORE PUSH1 0x24 PUSH1 0x0 REVERT JUMPDEST PUSH2 0x1F40 DUP3 PUSH2 0x1C11 JUMP JUMPDEST DUP2 ADD DUP2 DUP2 LT PUSH8 0xFFFFFFFFFFFFFFFF DUP3 GT OR ISZERO PUSH2 0x1F5F JUMPI PUSH2 0x1F5E PUSH2 0x1F08 JUMP JUMPDEST JUMPDEST DUP1 PUSH1 0x40 MSTORE POP POP POP JUMP JUMPDEST PUSH1 0x0 PUSH2 0x1F72 PUSH2 0x1AFC JUMP JUMPDEST SWAP1 POP PUSH2 0x1F7E DUP3 DUP3 PUSH2 0x1F37 JUMP JUMPDEST SWAP2 SWAP1 POP JUMP JUMPDEST PUSH1 0x0 PUSH8 0xFFFFFFFFFFFFFFFF DUP3 GT ISZERO PUSH2 0x1F9E JUMPI PUSH2 0x1F9D PUSH2 0x1F08 JUMP JUMPDEST JUMPDEST PUSH2 0x1FA7 DUP3 PUSH2 0x1C11 JUMP JUMPDEST SWAP1 POP PUSH1 0x20 DUP2 ADD SWAP1 POP SWAP2 SWAP1 POP JUMP JUMPDEST DUP3 DUP2 DUP4 CALLDATACOPY PUSH1 0x0 DUP4 DUP4 ADD MSTORE POP POP POP JUMP JUMPDEST PUSH1 0x0 PUSH2 0x1FD6 PUSH2 0x1FD1 DUP5 PUSH2 0x1F83 JUMP JUMPDEST PUSH2 0x1F68 JUMP JUMPDEST SWAP1 POP DUP3 DUP2 MSTORE PUSH1 0x20 DUP2 ADD DUP5 DUP5 DUP5 ADD GT ISZERO PUSH2 0x1FF2 JUMPI PUSH2 0x1FF1 PUSH2 0x1F03 JUMP JUMPDEST JUMPDEST PUSH2 0x1FFD DUP5 DUP3 DUP6 PUSH2 0x1FB4 JUMP JUMPDEST POP SWAP4 SWAP3 POP POP POP JUMP JUMPDEST PUSH1 0x0 DUP3 PUSH1 0x1F DUP4 ADD SLT PUSH2 0x201A JUMPI PUSH2 0x2019 PUSH2 0x1EFE JUMP JUMPDEST JUMPDEST DUP2 CALLDATALOAD PUSH2 0x202A DUP5 DUP3 PUSH1 0x20 DUP7 ADD PUSH2 0x1FC3 JUMP JUMPDEST SWAP2 POP POP SWAP3 SWAP2 POP POP JUMP JUMPDEST PUSH1 0x0 DUP1 PUSH1 0x0 DUP1 PUSH1 0x80 DUP6 DUP8 SUB SLT ISZERO PUSH2 0x204D JUMPI PUSH2 0x204C PUSH2 0x1B06 JUMP JUMPDEST JUMPDEST PUSH1 0x0 PUSH2 0x205B DUP8 DUP3 DUP9 ADD PUSH2 0x1CC6 JUMP JUMPDEST SWAP5 POP POP PUSH1 0x20 PUSH2 0x206C DUP8 DUP3 DUP9 ADD PUSH2 0x1CC6 JUMP JUMPDEST SWAP4 POP POP PUSH1 0x40 PUSH2 0x207D DUP8 DUP3 DUP9 ADD PUSH2 0x1D53 JUMP JUMPDEST SWAP3 POP POP PUSH1 0x60 DUP6 ADD CALLDATALOAD PUSH8 0xFFFFFFFFFFFFFFFF DUP2 GT ISZERO PUSH2 0x209E JUMPI PUSH2 0x209D PUSH2 0x1B0B JUMP JUMPDEST JUMPDEST PUSH2 0x20AA DUP8 DUP3 DUP9 ADD PUSH2 0x2005 JUMP JUMPDEST SWAP2 POP POP SWAP3 SWAP6 SWAP2 SWAP5 POP SWAP3 POP JUMP JUMPDEST PUSH1 0x0 DUP1 PUSH1 0x40 DUP4 DUP6 SUB SLT ISZERO PUSH2 0x20CD JUMPI PUSH2 0x20CC PUSH2 0x1B06 JUMP JUMPDEST JUMPDEST PUSH1 0x0 PUSH2 0x20DB DUP6 DUP3 DUP7 ADD PUSH2 0x1CC6 JUMP JUMPDEST SWAP3 POP POP PUSH1 0x20 PUSH2 0x20EC DUP6 DUP3 DUP7 ADD PUSH2 0x1CC6 JUMP JUMPDEST SWAP2 POP POP SWAP3 POP SWAP3 SWAP1 POP JUMP JUMPDEST PUSH32 0x4E487B7100000000000000000000000000000000000000000000000000000000 PUSH1 0x0 MSTORE PUSH1 0x22 PUSH1 0x4 MSTORE PUSH1 0x24 PUSH1 0x0 REVERT JUMPDEST PUSH1 0x0 PUSH1 0x2 DUP3 DIV SWAP1 POP PUSH1 0x1 DUP3 AND DUP1 PUSH2 0x213D JUMPI PUSH1 0x7F DUP3 AND SWAP2 POP JUMPDEST PUSH1 0x20 DUP3 LT DUP2 SUB PUSH2 0x2150 JUMPI PUSH2 0x214F PUSH2 0x20F6 JUMP JUMPDEST JUMPDEST POP SWAP2 SWAP1 POP JUMP JUMPDEST PUSH32 0x4552433732313A20617070726F76616C20746F2063757272656E74206F776E65 PUSH1 0x0 DUP3 ADD MSTORE PUSH32 0x7200000000000000000000000000000000000000000000000000000000000000 PUSH1 0x20 DUP3 ADD MSTORE POP JUMP JUMPDEST PUSH1 0x0 PUSH2 0x21B2 PUSH1 0x21 DUP4 PUSH2 0x1BD6 JUMP JUMPDEST SWAP2 POP PUSH2 0x21BD DUP3 PUSH2 0x2156 JUMP JUMPDEST PUSH1 0x40 DUP3 ADD SWAP1 POP SWAP2 SWAP1 POP JUMP JUMPDEST PUSH1 0x0 PUSH1 0x20 DUP3 ADD SWAP1 POP DUP2 DUP2 SUB PUSH1 0x0 DUP4 ADD MSTORE PUSH2 0x21E1 DUP2 PUSH2 0x21A5 JUMP JUMPDEST SWAP1 POP SWAP2 SWAP1 POP JUMP JUMPDEST PUSH32 0x4552433732313A20617070726F76652063616C6C6572206973206E6F7420746F PUSH1 0x0 DUP3 ADD MSTORE PUSH32 0x6B656E206F776E6572206F7220617070726F76656420666F7220616C6C000000 PUSH1 0x20 DUP3 ADD MSTORE POP JUMP JUMPDEST PUSH1 0x0 PUSH2 0x2244 PUSH1 0x3D DUP4 PUSH2 0x1BD6 JUMP JUMPDEST SWAP2 POP PUSH2 0x224F DUP3 PUSH2 0x21E8 JUMP JUMPDEST PUSH1 0x40 DUP3 ADD SWAP1 POP SWAP2 SWAP1 POP JUMP JUMPDEST PUSH1 0x0 PUSH1 0x20 DUP3 ADD SWAP1 POP DUP2 DUP2 SUB PUSH1 0x0 DUP4 ADD MSTORE PUSH2 0x2273 DUP2 PUSH2 0x2237 JUMP JUMPDEST SWAP1 POP SWAP2 SWAP1 POP JUMP JUMPDEST PUSH32 0x4552433732313A20746F6B656E206C6F636B6564000000000000000000000000 PUSH1 0x0 DUP3 ADD MSTORE POP JUMP JUMPDEST PUSH1 0x0 PUSH2 0x22B0 PUSH1 0x14 DUP4 PUSH2 0x1BD6 JUMP JUMPDEST SWAP2 POP PUSH2 0x22BB DUP3 PUSH2 0x227A JUMP JUMPDEST PUSH1 0x20 DUP3 ADD SWAP1 POP SWAP2 SWAP1 POP JUMP JUMPDEST PUSH1 0x0 PUSH1 0x20 DUP3 ADD SWAP1 POP DUP2 DUP2 SUB PUSH1 0x0 DUP4 ADD MSTORE PUSH2 0x22DF DUP2 PUSH2 0x22A3 JUMP JUMPDEST SWAP1 POP SWAP2 SWAP1 POP JUMP JUMPDEST PUSH32 0x4552433732313A2063616C6C6572206973206E6F7420746F6B656E206F776E65 PUSH1 0x0 DUP3 ADD MSTORE PUSH32 0x72206F7220617070726F76656400000000000000000000000000000000000000 PUSH1 0x20 DUP3 ADD MSTORE POP JUMP JUMPDEST PUSH1 0x0 PUSH2 0x2342 PUSH1 0x2D DUP4 PUSH2 0x1BD6 JUMP JUMPDEST SWAP2 POP PUSH2 0x234D DUP3 PUSH2 0x22E6 JUMP JUMPDEST PUSH1 0x40 DUP3 ADD SWAP1 POP SWAP2 SWAP1 POP JUMP JUMPDEST PUSH1 0x0 PUSH1 0x20 DUP3 ADD SWAP1 POP DUP2 DUP2 SUB PUSH1 0x0 DUP4 ADD MSTORE PUSH2 0x2371 DUP2 PUSH2 0x2335 JUMP JUMPDEST SWAP1 POP SWAP2 SWAP1 POP JUMP JUMPDEST PUSH32 0x4552433732313A206C6F636B2063616C6C6572206973206E6F7420746F6B656E PUSH1 0x0 DUP3 ADD MSTORE PUSH32 0x206F776E6572206F7220617070726F76656420666F7220616C6C000000000000 PUSH1 0x20 DUP3 ADD MSTORE POP JUMP JUMPDEST PUSH1 0x0 PUSH2 0x23D4 PUSH1 0x3A DUP4 PUSH2 0x1BD6 JUMP JUMPDEST SWAP2 POP PUSH2 0x23DF DUP3 PUSH2 0x2378 JUMP JUMPDEST PUSH1 0x40 DUP3 ADD SWAP1 POP SWAP2 SWAP1 POP JUMP JUMPDEST PUSH1 0x0 PUSH1 0x20 DUP3 ADD SWAP1 POP DUP2 DUP2 SUB PUSH1 0x0 DUP4 ADD MSTORE PUSH2 0x2403 DUP2 PUSH2 0x23C7 JUMP JUMPDEST SWAP1 POP SWAP2 SWAP1 POP JUMP JUMPDEST PUSH32 0x4552433732313A20746F6B656E20617070726F76656400000000000000000000 PUSH1 0x0 DUP3 ADD MSTORE POP JUMP JUMPDEST PUSH1 0x0 PUSH2 0x2440 PUSH1 0x16 DUP4 PUSH2 0x1BD6 JUMP JUMPDEST SWAP2 POP PUSH2 0x244B DUP3 PUSH2 0x240A JUMP JUMPDEST PUSH1 0x20 DUP3 ADD SWAP1 POP SWAP2 SWAP1 POP JUMP JUMPDEST PUSH1 0x0 PUSH1 0x20 DUP3 ADD SWAP1 POP DUP2 DUP2 SUB PUSH1 0x0 DUP4 ADD MSTORE PUSH2 0x246F DUP2 PUSH2 0x2433 JUMP JUMPDEST SWAP1 POP SWAP2 SWAP1 POP JUMP JUMPDEST PUSH32 0x4552433732313A20696E76616C696420746F6B656E2049440000000000000000 PUSH1 0x0 DUP3 ADD MSTORE POP JUMP JUMPDEST PUSH1 0x0 PUSH2 0x24AC PUSH1 0x18 DUP4 PUSH2 0x1BD6 JUMP JUMPDEST SWAP2 POP PUSH2 0x24B7 DUP3 PUSH2 0x2476 JUMP JUMPDEST PUSH1 0x20 DUP3 ADD SWAP1 POP SWAP2 SWAP1 POP JUMP JUMPDEST PUSH1 0x0 PUSH1 0x20 DUP3 ADD SWAP1 POP DUP2 DUP2 SUB PUSH1 0x0 DUP4 ADD MSTORE PUSH2 0x24DB DUP2 PUSH2 0x249F JUMP JUMPDEST SWAP1 POP SWAP2 SWAP1 POP JUMP JUMPDEST PUSH32 0x4552433732313A2061646472657373207A65726F206973206E6F742061207661 PUSH1 0x0 DUP3 ADD MSTORE PUSH32 0x6C6964206F776E65720000000000000000000000000000000000000000000000 PUSH1 0x20 DUP3 ADD MSTORE POP JUMP JUMPDEST PUSH1 0x0 PUSH2 0x253E PUSH1 0x29 DUP4 PUSH2 0x1BD6 JUMP JUMPDEST SWAP2 POP PUSH2 0x2549 DUP3 PUSH2 0x24E2 JUMP JUMPDEST PUSH1 0x40 DUP3 ADD SWAP1 POP SWAP2 SWAP1 POP JUMP JUMPDEST PUSH1 0x0 PUSH1 0x20 DUP3 ADD SWAP1 POP DUP2 DUP2 SUB PUSH1 0x0 DUP4 ADD MSTORE PUSH2 0x256D DUP2 PUSH2 0x2531 JUMP JUMPDEST SWAP1 POP SWAP2 SWAP1 POP JUMP JUMPDEST PUSH1 0x0 DUP2 SWAP1 POP SWAP3 SWAP2 POP POP JUMP JUMPDEST PUSH1 0x0 PUSH2 0x258A DUP3 PUSH2 0x1BCB JUMP JUMPDEST PUSH2 0x2594 DUP2 DUP6 PUSH2 0x2574 JUMP JUMPDEST SWAP4 POP PUSH2 0x25A4 DUP2 DUP6 PUSH1 0x20 DUP7 ADD PUSH2 0x1BE7 JUMP JUMPDEST DUP1 DUP5 ADD SWAP2 POP POP SWAP3 SWAP2 POP POP JUMP JUMPDEST PUSH1 0x0 PUSH2 0x25BC DUP3 DUP6 PUSH2 0x257F JUMP JUMPDEST SWAP2 POP PUSH2 0x25C8 DUP3 DUP5 PUSH2 0x257F JUMP JUMPDEST SWAP2 POP DUP2 SWAP1 POP SWAP4 SWAP3 POP POP POP JUMP JUMPDEST PUSH32 0x4552433732313A207472616E736665722066726F6D20696E636F727265637420 PUSH1 0x0 DUP3 ADD MSTORE PUSH32 0x6F776E6572000000000000000000000000000000000000000000000000000000 PUSH1 0x20 DUP3 ADD MSTORE POP JUMP JUMPDEST PUSH1 0x0 PUSH2 0x2630 PUSH1 0x25 DUP4 PUSH2 0x1BD6 JUMP JUMPDEST SWAP2 POP PUSH2 0x263B DUP3 PUSH2 0x25D4 JUMP JUMPDEST PUSH1 0x40 DUP3 ADD SWAP1 POP SWAP2 SWAP1 POP JUMP JUMPDEST PUSH1 0x0 PUSH1 0x20 DUP3 ADD SWAP1 POP DUP2 DUP2 SUB PUSH1 0x0 DUP4 ADD MSTORE PUSH2 0x265F DUP2 PUSH2 0x2623 JUMP JUMPDEST SWAP1 POP SWAP2 SWAP1 POP JUMP JUMPDEST PUSH32 0x4552433732313A207472616E7366657220746F20746865207A65726F20616464 PUSH1 0x0 DUP3 ADD MSTORE PUSH32 0x7265737300000000000000000000000000000000000000000000000000000000 PUSH1 0x20 DUP3 ADD MSTORE POP JUMP JUMPDEST PUSH1 0x0 PUSH2 0x26C2 PUSH1 0x24 DUP4 PUSH2 0x1BD6 JUMP JUMPDEST SWAP2 POP PUSH2 0x26CD DUP3 PUSH2 0x2666 JUMP JUMPDEST PUSH1 0x40 DUP3 ADD SWAP1 POP SWAP2 SWAP1 POP JUMP JUMPDEST PUSH1 0x0 PUSH1 0x20 DUP3 ADD SWAP1 POP DUP2 DUP2 SUB PUSH1 0x0 DUP4 ADD MSTORE PUSH2 0x26F1 DUP2 PUSH2 0x26B5 JUMP JUMPDEST SWAP1 POP SWAP2 SWAP1 POP JUMP JUMPDEST PUSH1 0x0 PUSH1 0x40 DUP3 ADD SWAP1 POP PUSH2 0x270D PUSH1 0x0 DUP4 ADD DUP6 PUSH2 0x1D12 JUMP JUMPDEST PUSH2 0x271A PUSH1 0x20 DUP4 ADD DUP5 PUSH2 0x1BA1 JUMP JUMPDEST SWAP4 SWAP3 POP POP POP JUMP JUMPDEST PUSH32 0x4552433732313A20617070726F766520746F2063616C6C657200000000000000 PUSH1 0x0 DUP3 ADD MSTORE POP JUMP JUMPDEST PUSH1 0x0 PUSH2 0x2757 PUSH1 0x19 DUP4 PUSH2 0x1BD6 JUMP JUMPDEST SWAP2 POP PUSH2 0x2762 DUP3 PUSH2 0x2721 JUMP JUMPDEST PUSH1 0x20 DUP3 ADD SWAP1 POP SWAP2 SWAP1 POP JUMP JUMPDEST PUSH1 0x0 PUSH1 0x20 DUP3 ADD SWAP1 POP DUP2 DUP2 SUB PUSH1 0x0 DUP4 ADD MSTORE PUSH2 0x2786 DUP2 PUSH2 0x274A JUMP JUMPDEST SWAP1 POP SWAP2 SWAP1 POP JUMP JUMPDEST PUSH32 0x4552433732313A207472616E7366657220746F206E6F6E204552433732315265 PUSH1 0x0 DUP3 ADD MSTORE PUSH32 0x63656976657220696D706C656D656E7465720000000000000000000000000000 PUSH1 0x20 DUP3 ADD MSTORE POP JUMP JUMPDEST PUSH1 0x0 PUSH2 0x27E9 PUSH1 0x32 DUP4 PUSH2 0x1BD6 JUMP JUMPDEST SWAP2 POP PUSH2 0x27F4 DUP3 PUSH2 0x278D JUMP JUMPDEST PUSH1 0x40 DUP3 ADD SWAP1 POP SWAP2 SWAP1 POP JUMP JUMPDEST PUSH1 0x0 PUSH1 0x20 DUP3 ADD SWAP1 POP DUP2 DUP2 SUB PUSH1 0x0 DUP4 ADD MSTORE PUSH2 0x2818 DUP2 PUSH2 0x27DC JUMP JUMPDEST SWAP1 POP SWAP2 SWAP1 POP JUMP JUMPDEST PUSH32 0x4E487B7100000000000000000000000000000000000000000000000000000000 PUSH1 0x0 MSTORE PUSH1 0x12 PUSH1 0x4 MSTORE PUSH1 0x24 PUSH1 0x0 REVERT JUMPDEST PUSH1 0x0 DUP2 MLOAD SWAP1 POP SWAP2 SWAP1 POP JUMP JUMPDEST PUSH1 0x0 DUP3 DUP3 MSTORE PUSH1 0x20 DUP3 ADD SWAP1 POP SWAP3 SWAP2 POP POP JUMP JUMPDEST PUSH1 0x0 PUSH2 0x2875 DUP3 PUSH2 0x284E JUMP JUMPDEST PUSH2 0x287F DUP2 DUP6 PUSH2 0x2859 JUMP JUMPDEST SWAP4 POP PUSH2 0x288F DUP2 DUP6 PUSH1 0x20 DUP7 ADD PUSH2 0x1BE7 JUMP JUMPDEST PUSH2 0x2898 DUP2 PUSH2 0x1C11 JUMP JUMPDEST DUP5 ADD SWAP2 POP POP SWAP3 SWAP2 POP POP JUMP JUMPDEST PUSH1 0x0 PUSH1 0x80 DUP3 ADD SWAP1 POP PUSH2 0x28B8 PUSH1 0x0 DUP4 ADD DUP8 PUSH2 0x1D95 JUMP JUMPDEST PUSH2 0x28C5 PUSH1 0x20 DUP4 ADD DUP7 PUSH2 0x1D95 JUMP JUMPDEST PUSH2 0x28D2 PUSH1 0x40 DUP4 ADD DUP6 PUSH2 0x1D12 JUMP JUMPDEST DUP2 DUP2 SUB PUSH1 0x60 DUP4 ADD MSTORE PUSH2 0x28E4 DUP2 DUP5 PUSH2 0x286A JUMP JUMPDEST SWAP1 POP SWAP6 SWAP5 POP POP POP POP POP JUMP JUMPDEST PUSH1 0x0 DUP2 MLOAD SWAP1 POP PUSH2 0x28FE DUP2 PUSH2 0x1B3C JUMP JUMPDEST SWAP3 SWAP2 POP POP JUMP JUMPDEST PUSH1 0x0 PUSH1 0x20 DUP3 DUP5 SUB SLT ISZERO PUSH2 0x291A JUMPI PUSH2 0x2919 PUSH2 0x1B06 JUMP JUMPDEST JUMPDEST PUSH1 0x0 PUSH2 0x2928 DUP5 DUP3 DUP6 ADD PUSH2 0x28EF JUMP JUMPDEST SWAP2 POP POP SWAP3 SWAP2 POP POP JUMP INVALID LOG2 PUSH5 0x6970667358 0x22 SLT KECCAK256 PUSH11 0x6044119B26D3488C450895 0xFB XOR 0xED 0xC AND 0x27 PUSH13 0xB678B68FC1550D84B77F877CAF PUSH5 0x736F6C6343 STOP ADDMOD SLT STOP CALLER "
				},
				"gasEstimates": {
					"creation": {
						"codeDepositCost": "2119800",
						"executionCost": "infinite",
						"totalCost": "infinite"
					},
					"external": {
						"approve(address,uint256)": "infinite",
						"balanceOf(address)": "2943",
						"getApproved(uint256)": "5322",
						"getLocked(uint256)": "2911",
						"getLockedCountByOwner(address)": "2909",
						"isApprovedForAll(address,address)": "infinite",
						"lock(uint256,bool)": "infinite",
						"name()": "infinite",
						"ownerOf(uint256)": "3044",
						"safeTransferFrom(address,address,uint256)": "infinite",
						"safeTransferFrom(address,address,uint256,bytes)": "infinite",
						"setApprovalForAll(address,bool)": "infinite",
						"supportsInterface(bytes4)": "797",
						"symbol()": "infinite",
						"tokenURI(uint256)": "3459",
						"transferFrom(address,address,uint256)": "infinite"
					},
					"internal": {
						"__unsafe_increaseBalance(address,uint256)": "infinite",
						"_afterTokenTransfer(address,address,uint256,uint256)": "17",
						"_approve(address,uint256)": "infinite",
						"_baseURI()": "infinite",
						"_beforeTokenTransfer(address,address,uint256,uint256)": "17",
						"_burn(uint256)": "infinite",
						"_checkOnERC721Received(address,address,uint256,bytes memory)": "infinite",
						"_exists(uint256)": "2312",
						"_isApprovedOrOwner(address,uint256)": "infinite",
						"_lock(uint256,bool)": "infinite",
						"_mint(address,uint256)": "infinite",
						"_ownerOf(uint256)": "2248",
						"_requireMinted(uint256)": "infinite",
						"_safeMint(address,uint256)": "infinite",
						"_safeMint(address,uint256,bytes memory)": "infinite",
						"_safeTransfer(address,address,uint256,bytes memory)": "infinite",
						"_setApprovalForAll(address,address,bool)": "infinite",
						"_transfer(address,address,uint256)": "infinite"
					}
				},
				"methodIdentifiers": {
					"approve(address,uint256)": "095ea7b3",
					"balanceOf(address)": "70a08231",
					"getApproved(uint256)": "081812fc",
					"getLocked(uint256)": "3b035df6",
					"getLockedCountByOwner(address)": "07f0661c",
					"isApprovedForAll(address,address)": "e985e9c5",
					"lock(uint256,bool)": "346c94cf",
					"name()": "06fdde03",
					"ownerOf(uint256)": "6352211e",
					"safeTransferFrom(address,address,uint256)": "42842e0e",
					"safeTransferFrom(address,address,uint256,bytes)": "b88d4fde",
					"setApprovalForAll(address,bool)": "a22cb465",
					"supportsInterface(bytes4)": "01ffc9a7",
					"symbol()": "95d89b41",
					"tokenURI(uint256)": "c87b56dd",
					"transferFrom(address,address,uint256)": "23b872dd"
				}
			},
			"storageLayout": {
				"storage": [
					{
						"astId": 25,
						"contract": "contracts/token/ERC721/ERC721.sol:ERC721",
						"label": "_name",
						"offset": 0,
						"slot": "0",
						"type": "t_string_storage"
					},
					{
						"astId": 27,
						"contract": "contracts/token/ERC721/ERC721.sol:ERC721",
						"label": "_symbol",
						"offset": 0,
						"slot": "1",
						"type": "t_string_storage"
					},
					{
						"astId": 31,
						"contract": "contracts/token/ERC721/ERC721.sol:ERC721",
						"label": "_owners",
						"offset": 0,
						"slot": "2",
						"type": "t_mapping(t_uint256,t_address)"
					},
					{
						"astId": 35,
						"contract": "contracts/token/ERC721/ERC721.sol:ERC721",
						"label": "_balances",
						"offset": 0,
						"slot": "3",
						"type": "t_mapping(t_address,t_uint256)"
					},
					{
						"astId": 39,
						"contract": "contracts/token/ERC721/ERC721.sol:ERC721",
						"label": "_tokenApprovals",
						"offset": 0,
						"slot": "4",
						"type": "t_mapping(t_uint256,t_address)"
					},
					{
						"astId": 45,
						"contract": "contracts/token/ERC721/ERC721.sol:ERC721",
						"label": "_operatorApprovals",
						"offset": 0,
						"slot": "5",
						"type": "t_mapping(t_address,t_mapping(t_address,t_bool))"
					},
					{
						"astId": 49,
						"contract": "contracts/token/ERC721/ERC721.sol:ERC721",
						"label": "_tokenLock",
						"offset": 0,
						"slot": "6",
						"type": "t_mapping(t_uint256,t_bool)"
					},
					{
						"astId": 53,
						"contract": "contracts/token/ERC721/ERC721.sol:ERC721",
						"label": "_isOperatorApprovals",
						"offset": 0,
						"slot": "7",
						"type": "t_mapping(t_address,t_bool)"
					},
					{
						"astId": 57,
						"contract": "contracts/token/ERC721/ERC721.sol:ERC721",
						"label": "_lockedCount",
						"offset": 0,
						"slot": "8",
						"type": "t_mapping(t_address,t_uint256)"
					}
				],
				"types": {
					"t_address": {
						"encoding": "inplace",
						"label": "address",
						"numberOfBytes": "20"
					},
					"t_bool": {
						"encoding": "inplace",
						"label": "bool",
						"numberOfBytes": "1"
					},
					"t_mapping(t_address,t_bool)": {
						"encoding": "mapping",
						"key": "t_address",
						"label": "mapping(address => bool)",
						"numberOfBytes": "32",
						"value": "t_bool"
					},
					"t_mapping(t_address,t_mapping(t_address,t_bool))": {
						"encoding": "mapping",
						"key": "t_address",
						"label": "mapping(address => mapping(address => bool))",
						"numberOfBytes": "32",
						"value": "t_mapping(t_address,t_bool)"
					},
					"t_mapping(t_address,t_uint256)": {
						"encoding": "mapping",
						"key": "t_address",
						"label": "mapping(address => uint256)",
						"numberOfBytes": "32",
						"value": "t_uint256"
					},
					"t_mapping(t_uint256,t_address)": {
						"encoding": "mapping",
						"key": "t_uint256",
						"label": "mapping(uint256 => address)",
						"numberOfBytes": "32",
						"value": "t_address"
					},
					"t_mapping(t_uint256,t_bool)": {
						"encoding": "mapping",
						"key": "t_uint256",
						"label": "mapping(uint256 => bool)",
						"numberOfBytes": "32",
						"value": "t_bool"
					},
					"t_string_storage": {
						"encoding": "bytes",
						"label": "string",
						"numberOfBytes": "32"
					},
					"t_uint256": {
						"encoding": "inplace",
						"label": "uint256",
						"numberOfBytes": "32"
					}
				}
			},
			"userdoc": {
				"kind": "user",
				"methods": {},
				"version": 1
			}
		}
	}
}