{
	"contracts/token/ERC721/ERC721.sol": {
		"ERC721": {
			"abi": [
				{
					"inputs": [
						{
							"internalType": "string",
							"name": "name_",
							"type": "string"
						},
						{
							"internalType": "string",
							"name": "symbol_",
							"type": "string"
						}
					],
					"stateMutability": "nonpayable",
					"type": "constructor"
				},
				{
					"anonymous": false,
					"inputs": [
						{
							"indexed": true,
							"internalType": "address",
							"name": "owner",
							"type": "address"
						},
						{
							"indexed": true,
							"internalType": "address",
							"name": "approved",
							"type": "address"
						},
						{
							"indexed": true,
							"internalType": "uint256",
							"name": "tokenId",
							"type": "uint256"
						}
					],
					"name": "Approval",
					"type": "event"
				},
				{
					"anonymous": false,
					"inputs": [
						{
							"indexed": true,
							"internalType": "address",
							"name": "owner",
							"type": "address"
						},
						{
							"indexed": true,
							"internalType": "address",
							"name": "operator",
							"type": "address"
						},
						{
							"indexed": false,
							"internalType": "bool",
							"name": "approved",
							"type": "bool"
						}
					],
					"name": "ApprovalForAll",
					"type": "event"
				},
				{
					"anonymous": false,
					"inputs": [
						{
							"indexed": true,
							"internalType": "address",
							"name": "from",
							"type": "address"
						},
						{
							"indexed": true,
							"internalType": "address",
							"name": "to",
							"type": "address"
						},
						{
							"indexed": true,
							"internalType": "uint256",
							"name": "tokenId",
							"type": "uint256"
						}
					],
					"name": "Transfer",
					"type": "event"
				},
				{
					"inputs": [
						{
							"internalType": "address",
							"name": "to",
							"type": "address"
						},
						{
							"internalType": "uint256",
							"name": "tokenId",
							"type": "uint256"
						}
					],
					"name": "approve",
					"outputs": [],
					"stateMutability": "nonpayable",
					"type": "function"
				},
				{
					"inputs": [
						{
							"internalType": "address",
							"name": "owner",
							"type": "address"
						}
					],
					"name": "balanceOf",
					"outputs": [
						{
							"internalType": "uint256",
							"name": "",
							"type": "uint256"
						}
					],
					"stateMutability": "view",
					"type": "function"
				},
				{
					"inputs": [
						{
							"internalType": "uint256",
							"name": "tokenId",
							"type": "uint256"
						}
					],
					"name": "getApproved",
					"outputs": [
						{
							"internalType": "address",
							"name": "",
							"type": "address"
						}
					],
					"stateMutability": "view",
					"type": "function"
				},
				{
					"inputs": [
						{
							"internalType": "address",
							"name": "owner",
							"type": "address"
						},
						{
							"internalType": "address",
							"name": "operator",
							"type": "address"
						}
					],
					"name": "isApprovedForAll",
					"outputs": [
						{
							"internalType": "bool",
							"name": "",
							"type": "bool"
						}
					],
					"stateMutability": "view",
					"type": "function"
				},
				{
					"inputs": [
						{
							"internalType": "uint256",
							"name": "tokenId",
							"type": "uint256"
						}
					],
					"name": "mint",
					"outputs": [],
					"stateMutability": "nonpayable",
					"type": "function"
				},
				{
					"inputs": [],
					"name": "name",
					"outputs": [
						{
							"internalType": "string",
							"name": "",
							"type": "string"
						}
					],
					"stateMutability": "view",
					"type": "function"
				},
				{
					"inputs": [
						{
							"internalType": "uint256",
							"name": "tokenId",
							"type": "uint256"
						}
					],
					"name": "ownerOf",
					"outputs": [
						{
							"internalType": "address",
							"name": "",
							"type": "address"
						}
					],
					"stateMutability": "view",
					"type": "function"
				},
				{
					"inputs": [
						{
							"internalType": "address",
							"name": "from",
							"type": "address"
						},
						{
							"internalType": "address",
							"name": "to",
							"type": "address"
						},
						{
							"internalType": "uint256",
							"name": "tokenId",
							"type": "uint256"
						}
					],
					"name": "safeTransferFrom",
					"outputs": [],
					"stateMutability": "nonpayable",
					"type": "function"
				},
				{
					"inputs": [
						{
							"internalType": "address",
							"name": "from",
							"type": "address"
						},
						{
							"internalType": "address",
							"name": "to",
							"type": "address"
						},
						{
							"internalType": "uint256",
							"name": "tokenId",
							"type": "uint256"
						},
						{
							"internalType": "bytes",
							"name": "data",
							"type": "bytes"
						}
					],
					"name": "safeTransferFrom",
					"outputs": [],
					"stateMutability": "nonpayable",
					"type": "function"
				},
				{
					"inputs": [
						{
							"internalType": "address",
							"name": "operator",
							"type": "address"
						},
						{
							"internalType": "bool",
							"name": "approved",
							"type": "bool"
						}
					],
					"name": "setApprovalForAll",
					"outputs": [],
					"stateMutability": "nonpayable",
					"type": "function"
				},
				{
					"inputs": [
						{
							"internalType": "bytes4",
							"name": "interfaceId",
							"type": "bytes4"
						}
					],
					"name": "supportsInterface",
					"outputs": [
						{
							"internalType": "bool",
							"name": "",
							"type": "bool"
						}
					],
					"stateMutability": "view",
					"type": "function"
				},
				{
					"inputs": [],
					"name": "symbol",
					"outputs": [
						{
							"internalType": "string",
							"name": "",
							"type": "string"
						}
					],
					"stateMutability": "view",
					"type": "function"
				},
				{
					"inputs": [
						{
							"internalType": "uint256",
							"name": "tokenId",
							"type": "uint256"
						}
					],
					"name": "tokenURI",
					"outputs": [
						{
							"internalType": "string",
							"name": "",
							"type": "string"
						}
					],
					"stateMutability": "view",
					"type": "function"
				},
				{
					"inputs": [
						{
							"internalType": "address",
							"name": "from",
							"type": "address"
						},
						{
							"internalType": "address",
							"name": "to",
							"type": "address"
						},
						{
							"internalType": "uint256",
							"name": "tokenId",
							"type": "uint256"
						}
					],
					"name": "transferFrom",
					"outputs": [],
					"stateMutability": "nonpayable",
					"type": "function"
				}
			],
			"devdoc": {
				"details": "Implementation of https://eips.ethereum.org/EIPS/eip-721[ERC721] Non-Fungible Token Standard, including the Metadata extension, but not including the Enumerable extension, which is available separately as {ERC721Enumerable}.",
				"events": {
					"Approval(address,address,uint256)": {
						"details": "Emitted when `owner` enables `approved` to manage the `tokenId` token."
					},
					"ApprovalForAll(address,address,bool)": {
						"details": "Emitted when `owner` enables or disables (`approved`) `operator` to manage all of its assets."
					},
					"Transfer(address,address,uint256)": {
						"details": "Emitted when `tokenId` token is transferred from `from` to `to`."
					}
				},
				"kind": "dev",
				"methods": {
					"approve(address,uint256)": {
						"details": "See {IERC721-approve}."
					},
					"balanceOf(address)": {
						"details": "See {IERC721-balanceOf}."
					},
					"constructor": {
						"details": "Initializes the contract by setting a `name` and a `symbol` to the token collection."
					},
					"getApproved(uint256)": {
						"details": "See {IERC721-getApproved}."
					},
					"isApprovedForAll(address,address)": {
						"details": "See {IERC721-isApprovedForAll}."
					},
					"name()": {
						"details": "See {IERC721Metadata-name}."
					},
					"ownerOf(uint256)": {
						"details": "See {IERC721-ownerOf}."
					},
					"safeTransferFrom(address,address,uint256)": {
						"details": "See {IERC721-safeTransferFrom}."
					},
					"safeTransferFrom(address,address,uint256,bytes)": {
						"details": "See {IERC721-safeTransferFrom}."
					},
					"setApprovalForAll(address,bool)": {
						"details": "See {IERC721-setApprovalForAll}."
					},
					"supportsInterface(bytes4)": {
						"details": "See {IERC165-supportsInterface}."
					},
					"symbol()": {
						"details": "See {IERC721Metadata-symbol}."
					},
					"tokenURI(uint256)": {
						"details": "See {IERC721Metadata-tokenURI}."
					},
					"transferFrom(address,address,uint256)": {
						"details": "See {IERC721-transferFrom}."
					}
				},
				"version": 1
			},
			"evm": {
				"assembly": "    /* \"contracts/token/ERC721/ERC721.sol\":646:17581  contract ERC721 is Context, ERC165, IERC721, IERC721Metadata {... */\n  mstore(0x40, 0x80)\n    /* \"contracts/token/ERC721/ERC721.sol\":1433:1549  constructor(string memory name_, string memory symbol_) {... */\n  callvalue\n  dup1\n  iszero\n  tag_1\n  jumpi\n  0x00\n  dup1\n  revert\ntag_1:\n  pop\n  mload(0x40)\n  sub(codesize, bytecodeSize)\n  dup1\n  bytecodeSize\n  dup4\n  codecopy\n  dup2\n  dup2\n  add\n  0x40\n  mstore\n  dup2\n  add\n  swap1\n  tag_2\n  swap2\n  swap1\n  tag_3\n  jump\t// in\ntag_2:\n    /* \"contracts/token/ERC721/ERC721.sol\":1508:1513  name_ */\n  dup2\n    /* \"contracts/token/ERC721/ERC721.sol\":1500:1505  _name */\n  0x00\n    /* \"contracts/token/ERC721/ERC721.sol\":1500:1513  _name = name_ */\n  swap1\n  dup2\n  tag_6\n  swap2\n  swap1\n  tag_7\n  jump\t// in\ntag_6:\n  pop\n    /* \"contracts/token/ERC721/ERC721.sol\":1534:1541  symbol_ */\n  dup1\n    /* \"contracts/token/ERC721/ERC721.sol\":1524:1531  _symbol */\n  0x01\n    /* \"contracts/token/ERC721/ERC721.sol\":1524:1541  _symbol = symbol_ */\n  swap1\n  dup2\n  tag_8\n  swap2\n  swap1\n  tag_7\n  jump\t// in\ntag_8:\n  pop\n    /* \"contracts/token/ERC721/ERC721.sol\":1433:1549  constructor(string memory name_, string memory symbol_) {... */\n  pop\n  pop\n    /* \"contracts/token/ERC721/ERC721.sol\":646:17581  contract ERC721 is Context, ERC165, IERC721, IERC721Metadata {... */\n  jump(tag_9)\n    /* \"#utility.yul\":7:82   */\ntag_10:\n    /* \"#utility.yul\":40:46   */\n  0x00\n    /* \"#utility.yul\":73:75   */\n  0x40\n    /* \"#utility.yul\":67:76   */\n  mload\n    /* \"#utility.yul\":57:76   */\n  swap1\n  pop\n    /* \"#utility.yul\":7:82   */\n  swap1\n  jump\t// out\n    /* \"#utility.yul\":88:205   */\ntag_11:\n    /* \"#utility.yul\":197:198   */\n  0x00\n    /* \"#utility.yul\":194:195   */\n  dup1\n    /* \"#utility.yul\":187:199   */\n  revert\n    /* \"#utility.yul\":211:328   */\ntag_12:\n    /* \"#utility.yul\":320:321   */\n  0x00\n    /* \"#utility.yul\":317:318   */\n  dup1\n    /* \"#utility.yul\":310:322   */\n  revert\n    /* \"#utility.yul\":334:451   */\ntag_13:\n    /* \"#utility.yul\":443:444   */\n  0x00\n    /* \"#utility.yul\":440:441   */\n  dup1\n    /* \"#utility.yul\":433:445   */\n  revert\n    /* \"#utility.yul\":457:574   */\ntag_14:\n    /* \"#utility.yul\":566:567   */\n  0x00\n    /* \"#utility.yul\":563:564   */\n  dup1\n    /* \"#utility.yul\":556:568   */\n  revert\n    /* \"#utility.yul\":580:682   */\ntag_15:\n    /* \"#utility.yul\":621:627   */\n  0x00\n    /* \"#utility.yul\":672:674   */\n  0x1f\n    /* \"#utility.yul\":668:675   */\n  not\n    /* \"#utility.yul\":663:665   */\n  0x1f\n    /* \"#utility.yul\":656:661   */\n  dup4\n    /* \"#utility.yul\":652:666   */\n  add\n    /* \"#utility.yul\":648:676   */\n  and\n    /* \"#utility.yul\":638:676   */\n  swap1\n  pop\n    /* \"#utility.yul\":580:682   */\n  swap2\n  swap1\n  pop\n  jump\t// out\n    /* \"#utility.yul\":688:868   */\ntag_16:\n    /* \"#utility.yul\":736:813   */\n  0x4e487b7100000000000000000000000000000000000000000000000000000000\n    /* \"#utility.yul\":733:734   */\n  0x00\n    /* \"#utility.yul\":726:814   */\n  mstore\n    /* \"#utility.yul\":833:837   */\n  0x41\n    /* \"#utility.yul\":830:831   */\n  0x04\n    /* \"#utility.yul\":823:838   */\n  mstore\n    /* \"#utility.yul\":857:861   */\n  0x24\n    /* \"#utility.yul\":854:855   */\n  0x00\n    /* \"#utility.yul\":847:862   */\n  revert\n    /* \"#utility.yul\":874:1155   */\ntag_17:\n    /* \"#utility.yul\":957:984   */\n  tag_51\n    /* \"#utility.yul\":979:983   */\n  dup3\n    /* \"#utility.yul\":957:984   */\n  tag_15\n  jump\t// in\ntag_51:\n    /* \"#utility.yul\":949:955   */\n  dup2\n    /* \"#utility.yul\":945:985   */\n  add\n    /* \"#utility.yul\":1087:1093   */\n  dup2\n    /* \"#utility.yul\":1075:1085   */\n  dup2\n    /* \"#utility.yul\":1072:1094   */\n  lt\n    /* \"#utility.yul\":1051:1069   */\n  0xffffffffffffffff\n    /* \"#utility.yul\":1039:1049   */\n  dup3\n    /* \"#utility.yul\":1036:1070   */\n  gt\n    /* \"#utility.yul\":1033:1095   */\n  or\n    /* \"#utility.yul\":1030:1118   */\n  iszero\n  tag_52\n  jumpi\n    /* \"#utility.yul\":1098:1116   */\n  tag_53\n  tag_16\n  jump\t// in\ntag_53:\n    /* \"#utility.yul\":1030:1118   */\ntag_52:\n    /* \"#utility.yul\":1138:1148   */\n  dup1\n    /* \"#utility.yul\":1134:1136   */\n  0x40\n    /* \"#utility.yul\":1127:1149   */\n  mstore\n    /* \"#utility.yul\":917:1155   */\n  pop\n    /* \"#utility.yul\":874:1155   */\n  pop\n  pop\n  jump\t// out\n    /* \"#utility.yul\":1161:1290   */\ntag_18:\n    /* \"#utility.yul\":1195:1201   */\n  0x00\n    /* \"#utility.yul\":1222:1242   */\n  tag_55\n  tag_10\n  jump\t// in\ntag_55:\n    /* \"#utility.yul\":1212:1242   */\n  swap1\n  pop\n    /* \"#utility.yul\":1251:1284   */\n  tag_56\n    /* \"#utility.yul\":1279:1283   */\n  dup3\n    /* \"#utility.yul\":1271:1277   */\n  dup3\n    /* \"#utility.yul\":1251:1284   */\n  tag_17\n  jump\t// in\ntag_56:\n    /* \"#utility.yul\":1161:1290   */\n  swap2\n  swap1\n  pop\n  jump\t// out\n    /* \"#utility.yul\":1296:1604   */\ntag_19:\n    /* \"#utility.yul\":1358:1362   */\n  0x00\n    /* \"#utility.yul\":1448:1466   */\n  0xffffffffffffffff\n    /* \"#utility.yul\":1440:1446   */\n  dup3\n    /* \"#utility.yul\":1437:1467   */\n  gt\n    /* \"#utility.yul\":1434:1490   */\n  iszero\n  tag_58\n  jumpi\n    /* \"#utility.yul\":1470:1488   */\n  tag_59\n  tag_16\n  jump\t// in\ntag_59:\n    /* \"#utility.yul\":1434:1490   */\ntag_58:\n    /* \"#utility.yul\":1508:1537   */\n  tag_60\n    /* \"#utility.yul\":1530:1536   */\n  dup3\n    /* \"#utility.yul\":1508:1537   */\n  tag_15\n  jump\t// in\ntag_60:\n    /* \"#utility.yul\":1500:1537   */\n  swap1\n  pop\n    /* \"#utility.yul\":1592:1596   */\n  0x20\n    /* \"#utility.yul\":1586:1590   */\n  dup2\n    /* \"#utility.yul\":1582:1597   */\n  add\n    /* \"#utility.yul\":1574:1597   */\n  swap1\n  pop\n    /* \"#utility.yul\":1296:1604   */\n  swap2\n  swap1\n  pop\n  jump\t// out\n    /* \"#utility.yul\":1610:1856   */\ntag_20:\n    /* \"#utility.yul\":1691:1692   */\n  0x00\n    /* \"#utility.yul\":1701:1814   */\ntag_62:\n    /* \"#utility.yul\":1715:1721   */\n  dup4\n    /* \"#utility.yul\":1712:1713   */\n  dup2\n    /* \"#utility.yul\":1709:1722   */\n  lt\n    /* \"#utility.yul\":1701:1814   */\n  iszero\n  tag_64\n  jumpi\n    /* \"#utility.yul\":1800:1801   */\n  dup1\n    /* \"#utility.yul\":1795:1798   */\n  dup3\n    /* \"#utility.yul\":1791:1802   */\n  add\n    /* \"#utility.yul\":1785:1803   */\n  mload\n    /* \"#utility.yul\":1781:1782   */\n  dup2\n    /* \"#utility.yul\":1776:1779   */\n  dup5\n    /* \"#utility.yul\":1772:1783   */\n  add\n    /* \"#utility.yul\":1765:1804   */\n  mstore\n    /* \"#utility.yul\":1737:1739   */\n  0x20\n    /* \"#utility.yul\":1734:1735   */\n  dup2\n    /* \"#utility.yul\":1730:1740   */\n  add\n    /* \"#utility.yul\":1725:1740   */\n  swap1\n  pop\n    /* \"#utility.yul\":1701:1814   */\n  jump(tag_62)\ntag_64:\n    /* \"#utility.yul\":1848:1849   */\n  0x00\n    /* \"#utility.yul\":1839:1845   */\n  dup5\n    /* \"#utility.yul\":1834:1837   */\n  dup5\n    /* \"#utility.yul\":1830:1846   */\n  add\n    /* \"#utility.yul\":1823:1850   */\n  mstore\n    /* \"#utility.yul\":1672:1856   */\n  pop\n    /* \"#utility.yul\":1610:1856   */\n  pop\n  pop\n  pop\n  jump\t// out\n    /* \"#utility.yul\":1862:2296   */\ntag_21:\n    /* \"#utility.yul\":1951:1956   */\n  0x00\n    /* \"#utility.yul\":1976:2042   */\n  tag_66\n    /* \"#utility.yul\":1992:2041   */\n  tag_67\n    /* \"#utility.yul\":2034:2040   */\n  dup5\n    /* \"#utility.yul\":1992:2041   */\n  tag_19\n  jump\t// in\ntag_67:\n    /* \"#utility.yul\":1976:2042   */\n  tag_18\n  jump\t// in\ntag_66:\n    /* \"#utility.yul\":1967:2042   */\n  swap1\n  pop\n    /* \"#utility.yul\":2065:2071   */\n  dup3\n    /* \"#utility.yul\":2058:2063   */\n  dup2\n    /* \"#utility.yul\":2051:2072   */\n  mstore\n    /* \"#utility.yul\":2103:2107   */\n  0x20\n    /* \"#utility.yul\":2096:2101   */\n  dup2\n    /* \"#utility.yul\":2092:2108   */\n  add\n    /* \"#utility.yul\":2141:2144   */\n  dup5\n    /* \"#utility.yul\":2132:2138   */\n  dup5\n    /* \"#utility.yul\":2127:2130   */\n  dup5\n    /* \"#utility.yul\":2123:2139   */\n  add\n    /* \"#utility.yul\":2120:2145   */\n  gt\n    /* \"#utility.yul\":2117:2229   */\n  iszero\n  tag_68\n  jumpi\n    /* \"#utility.yul\":2148:2227   */\n  tag_69\n  tag_14\n  jump\t// in\ntag_69:\n    /* \"#utility.yul\":2117:2229   */\ntag_68:\n    /* \"#utility.yul\":2238:2290   */\n  tag_70\n    /* \"#utility.yul\":2283:2289   */\n  dup5\n    /* \"#utility.yul\":2278:2281   */\n  dup3\n    /* \"#utility.yul\":2273:2276   */\n  dup6\n    /* \"#utility.yul\":2238:2290   */\n  tag_20\n  jump\t// in\ntag_70:\n    /* \"#utility.yul\":1957:2296   */\n  pop\n    /* \"#utility.yul\":1862:2296   */\n  swap4\n  swap3\n  pop\n  pop\n  pop\n  jump\t// out\n    /* \"#utility.yul\":2316:2671   */\ntag_22:\n    /* \"#utility.yul\":2383:2388   */\n  0x00\n    /* \"#utility.yul\":2432:2435   */\n  dup3\n    /* \"#utility.yul\":2425:2429   */\n  0x1f\n    /* \"#utility.yul\":2417:2423   */\n  dup4\n    /* \"#utility.yul\":2413:2430   */\n  add\n    /* \"#utility.yul\":2409:2436   */\n  slt\n    /* \"#utility.yul\":2399:2521   */\n  tag_72\n  jumpi\n    /* \"#utility.yul\":2440:2519   */\n  tag_73\n  tag_13\n  jump\t// in\ntag_73:\n    /* \"#utility.yul\":2399:2521   */\ntag_72:\n    /* \"#utility.yul\":2550:2556   */\n  dup2\n    /* \"#utility.yul\":2544:2557   */\n  mload\n    /* \"#utility.yul\":2575:2665   */\n  tag_74\n    /* \"#utility.yul\":2661:2664   */\n  dup5\n    /* \"#utility.yul\":2653:2659   */\n  dup3\n    /* \"#utility.yul\":2646:2650   */\n  0x20\n    /* \"#utility.yul\":2638:2644   */\n  dup7\n    /* \"#utility.yul\":2634:2651   */\n  add\n    /* \"#utility.yul\":2575:2665   */\n  tag_21\n  jump\t// in\ntag_74:\n    /* \"#utility.yul\":2566:2665   */\n  swap2\n  pop\n    /* \"#utility.yul\":2389:2671   */\n  pop\n    /* \"#utility.yul\":2316:2671   */\n  swap3\n  swap2\n  pop\n  pop\n  jump\t// out\n    /* \"#utility.yul\":2677:3530   */\ntag_3:\n    /* \"#utility.yul\":2776:2782   */\n  0x00\n    /* \"#utility.yul\":2784:2790   */\n  dup1\n    /* \"#utility.yul\":2833:2835   */\n  0x40\n    /* \"#utility.yul\":2821:2830   */\n  dup4\n    /* \"#utility.yul\":2812:2819   */\n  dup6\n    /* \"#utility.yul\":2808:2831   */\n  sub\n    /* \"#utility.yul\":2804:2836   */\n  slt\n    /* \"#utility.yul\":2801:2920   */\n  iszero\n  tag_76\n  jumpi\n    /* \"#utility.yul\":2839:2918   */\n  tag_77\n  tag_11\n  jump\t// in\ntag_77:\n    /* \"#utility.yul\":2801:2920   */\ntag_76:\n    /* \"#utility.yul\":2980:2981   */\n  0x00\n    /* \"#utility.yul\":2969:2978   */\n  dup4\n    /* \"#utility.yul\":2965:2982   */\n  add\n    /* \"#utility.yul\":2959:2983   */\n  mload\n    /* \"#utility.yul\":3010:3028   */\n  0xffffffffffffffff\n    /* \"#utility.yul\":3002:3008   */\n  dup2\n    /* \"#utility.yul\":2999:3029   */\n  gt\n    /* \"#utility.yul\":2996:3113   */\n  iszero\n  tag_78\n  jumpi\n    /* \"#utility.yul\":3032:3111   */\n  tag_79\n  tag_12\n  jump\t// in\ntag_79:\n    /* \"#utility.yul\":2996:3113   */\ntag_78:\n    /* \"#utility.yul\":3137:3211   */\n  tag_80\n    /* \"#utility.yul\":3203:3210   */\n  dup6\n    /* \"#utility.yul\":3194:3200   */\n  dup3\n    /* \"#utility.yul\":3183:3192   */\n  dup7\n    /* \"#utility.yul\":3179:3201   */\n  add\n    /* \"#utility.yul\":3137:3211   */\n  tag_22\n  jump\t// in\ntag_80:\n    /* \"#utility.yul\":3127:3211   */\n  swap3\n  pop\n    /* \"#utility.yul\":2930:3221   */\n  pop\n    /* \"#utility.yul\":3281:3283   */\n  0x20\n    /* \"#utility.yul\":3270:3279   */\n  dup4\n    /* \"#utility.yul\":3266:3284   */\n  add\n    /* \"#utility.yul\":3260:3285   */\n  mload\n    /* \"#utility.yul\":3312:3330   */\n  0xffffffffffffffff\n    /* \"#utility.yul\":3304:3310   */\n  dup2\n    /* \"#utility.yul\":3301:3331   */\n  gt\n    /* \"#utility.yul\":3298:3415   */\n  iszero\n  tag_81\n  jumpi\n    /* \"#utility.yul\":3334:3413   */\n  tag_82\n  tag_12\n  jump\t// in\ntag_82:\n    /* \"#utility.yul\":3298:3415   */\ntag_81:\n    /* \"#utility.yul\":3439:3513   */\n  tag_83\n    /* \"#utility.yul\":3505:3512   */\n  dup6\n    /* \"#utility.yul\":3496:3502   */\n  dup3\n    /* \"#utility.yul\":3485:3494   */\n  dup7\n    /* \"#utility.yul\":3481:3503   */\n  add\n    /* \"#utility.yul\":3439:3513   */\n  tag_22\n  jump\t// in\ntag_83:\n    /* \"#utility.yul\":3429:3513   */\n  swap2\n  pop\n    /* \"#utility.yul\":3231:3523   */\n  pop\n    /* \"#utility.yul\":2677:3530   */\n  swap3\n  pop\n  swap3\n  swap1\n  pop\n  jump\t// out\n    /* \"#utility.yul\":3536:3635   */\ntag_23:\n    /* \"#utility.yul\":3588:3594   */\n  0x00\n    /* \"#utility.yul\":3622:3627   */\n  dup2\n    /* \"#utility.yul\":3616:3628   */\n  mload\n    /* \"#utility.yul\":3606:3628   */\n  swap1\n  pop\n    /* \"#utility.yul\":3536:3635   */\n  swap2\n  swap1\n  pop\n  jump\t// out\n    /* \"#utility.yul\":3641:3821   */\ntag_24:\n    /* \"#utility.yul\":3689:3766   */\n  0x4e487b7100000000000000000000000000000000000000000000000000000000\n    /* \"#utility.yul\":3686:3687   */\n  0x00\n    /* \"#utility.yul\":3679:3767   */\n  mstore\n    /* \"#utility.yul\":3786:3790   */\n  0x22\n    /* \"#utility.yul\":3783:3784   */\n  0x04\n    /* \"#utility.yul\":3776:3791   */\n  mstore\n    /* \"#utility.yul\":3810:3814   */\n  0x24\n    /* \"#utility.yul\":3807:3808   */\n  0x00\n    /* \"#utility.yul\":3800:3815   */\n  revert\n    /* \"#utility.yul\":3827:4147   */\ntag_25:\n    /* \"#utility.yul\":3871:3877   */\n  0x00\n    /* \"#utility.yul\":3908:3909   */\n  0x02\n    /* \"#utility.yul\":3902:3906   */\n  dup3\n    /* \"#utility.yul\":3898:3910   */\n  div\n    /* \"#utility.yul\":3888:3910   */\n  swap1\n  pop\n    /* \"#utility.yul\":3955:3956   */\n  0x01\n    /* \"#utility.yul\":3949:3953   */\n  dup3\n    /* \"#utility.yul\":3945:3957   */\n  and\n    /* \"#utility.yul\":3976:3994   */\n  dup1\n    /* \"#utility.yul\":3966:4047   */\n  tag_87\n  jumpi\n    /* \"#utility.yul\":4032:4036   */\n  0x7f\n    /* \"#utility.yul\":4024:4030   */\n  dup3\n    /* \"#utility.yul\":4020:4037   */\n  and\n    /* \"#utility.yul\":4010:4037   */\n  swap2\n  pop\n    /* \"#utility.yul\":3966:4047   */\ntag_87:\n    /* \"#utility.yul\":4094:4096   */\n  0x20\n    /* \"#utility.yul\":4086:4092   */\n  dup3\n    /* \"#utility.yul\":4083:4097   */\n  lt\n    /* \"#utility.yul\":4063:4081   */\n  dup2\n    /* \"#utility.yul\":4060:4098   */\n  sub\n    /* \"#utility.yul\":4057:4141   */\n  tag_88\n  jumpi\n    /* \"#utility.yul\":4113:4131   */\n  tag_89\n  tag_24\n  jump\t// in\ntag_89:\n    /* \"#utility.yul\":4057:4141   */\ntag_88:\n    /* \"#utility.yul\":3878:4147   */\n  pop\n    /* \"#utility.yul\":3827:4147   */\n  swap2\n  swap1\n  pop\n  jump\t// out\n    /* \"#utility.yul\":4153:4294   */\ntag_26:\n    /* \"#utility.yul\":4202:4206   */\n  0x00\n    /* \"#utility.yul\":4225:4228   */\n  dup2\n    /* \"#utility.yul\":4217:4228   */\n  swap1\n  pop\n    /* \"#utility.yul\":4248:4251   */\n  dup2\n    /* \"#utility.yul\":4245:4246   */\n  0x00\n    /* \"#utility.yul\":4238:4252   */\n  mstore\n    /* \"#utility.yul\":4282:4286   */\n  0x20\n    /* \"#utility.yul\":4279:4280   */\n  0x00\n    /* \"#utility.yul\":4269:4287   */\n  keccak256\n    /* \"#utility.yul\":4261:4287   */\n  swap1\n  pop\n    /* \"#utility.yul\":4153:4294   */\n  swap2\n  swap1\n  pop\n  jump\t// out\n    /* \"#utility.yul\":4300:4393   */\ntag_27:\n    /* \"#utility.yul\":4337:4343   */\n  0x00\n    /* \"#utility.yul\":4384:4386   */\n  0x20\n    /* \"#utility.yul\":4379:4381   */\n  0x1f\n    /* \"#utility.yul\":4372:4377   */\n  dup4\n    /* \"#utility.yul\":4368:4382   */\n  add\n    /* \"#utility.yul\":4364:4387   */\n  div\n    /* \"#utility.yul\":4354:4387   */\n  swap1\n  pop\n    /* \"#utility.yul\":4300:4393   */\n  swap2\n  swap1\n  pop\n  jump\t// out\n    /* \"#utility.yul\":4399:4506   */\ntag_28:\n    /* \"#utility.yul\":4443:4451   */\n  0x00\n    /* \"#utility.yul\":4493:4498   */\n  dup3\n    /* \"#utility.yul\":4487:4491   */\n  dup3\n    /* \"#utility.yul\":4483:4499   */\n  shl\n    /* \"#utility.yul\":4462:4499   */\n  swap1\n  pop\n    /* \"#utility.yul\":4399:4506   */\n  swap3\n  swap2\n  pop\n  pop\n  jump\t// out\n    /* \"#utility.yul\":4512:4905   */\ntag_29:\n    /* \"#utility.yul\":4581:4587   */\n  0x00\n    /* \"#utility.yul\":4631:4632   */\n  0x08\n    /* \"#utility.yul\":4619:4629   */\n  dup4\n    /* \"#utility.yul\":4615:4633   */\n  mul\n    /* \"#utility.yul\":4654:4751   */\n  tag_94\n    /* \"#utility.yul\":4684:4750   */\n  0xffffffffffffffffffffffffffffffffffffffffffffffffffffffffffffffff\n    /* \"#utility.yul\":4673:4682   */\n  dup3\n    /* \"#utility.yul\":4654:4751   */\n  tag_28\n  jump\t// in\ntag_94:\n    /* \"#utility.yul\":4772:4811   */\n  tag_95\n    /* \"#utility.yul\":4802:4810   */\n  dup7\n    /* \"#utility.yul\":4791:4800   */\n  dup4\n    /* \"#utility.yul\":4772:4811   */\n  tag_28\n  jump\t// in\ntag_95:\n    /* \"#utility.yul\":4760:4811   */\n  swap6\n  pop\n    /* \"#utility.yul\":4844:4848   */\n  dup1\n    /* \"#utility.yul\":4840:4849   */\n  not\n    /* \"#utility.yul\":4833:4838   */\n  dup5\n    /* \"#utility.yul\":4829:4850   */\n  and\n    /* \"#utility.yul\":4820:4850   */\n  swap4\n  pop\n    /* \"#utility.yul\":4893:4897   */\n  dup1\n    /* \"#utility.yul\":4883:4891   */\n  dup7\n    /* \"#utility.yul\":4879:4898   */\n  and\n    /* \"#utility.yul\":4872:4877   */\n  dup5\n    /* \"#utility.yul\":4869:4899   */\n  or\n    /* \"#utility.yul\":4859:4899   */\n  swap3\n  pop\n    /* \"#utility.yul\":4588:4905   */\n  pop\n  pop\n    /* \"#utility.yul\":4512:4905   */\n  swap4\n  swap3\n  pop\n  pop\n  pop\n  jump\t// out\n    /* \"#utility.yul\":4911:4988   */\ntag_30:\n    /* \"#utility.yul\":4948:4955   */\n  0x00\n    /* \"#utility.yul\":4977:4982   */\n  dup2\n    /* \"#utility.yul\":4966:4982   */\n  swap1\n  pop\n    /* \"#utility.yul\":4911:4988   */\n  swap2\n  swap1\n  pop\n  jump\t// out\n    /* \"#utility.yul\":4994:5054   */\ntag_31:\n    /* \"#utility.yul\":5022:5025   */\n  0x00\n    /* \"#utility.yul\":5043:5048   */\n  dup2\n    /* \"#utility.yul\":5036:5048   */\n  swap1\n  pop\n    /* \"#utility.yul\":4994:5054   */\n  swap2\n  swap1\n  pop\n  jump\t// out\n    /* \"#utility.yul\":5060:5202   */\ntag_32:\n    /* \"#utility.yul\":5110:5119   */\n  0x00\n    /* \"#utility.yul\":5143:5196   */\n  tag_99\n    /* \"#utility.yul\":5161:5195   */\n  tag_100\n    /* \"#utility.yul\":5170:5194   */\n  tag_101\n    /* \"#utility.yul\":5188:5193   */\n  dup5\n    /* \"#utility.yul\":5170:5194   */\n  tag_30\n  jump\t// in\ntag_101:\n    /* \"#utility.yul\":5161:5195   */\n  tag_31\n  jump\t// in\ntag_100:\n    /* \"#utility.yul\":5143:5196   */\n  tag_30\n  jump\t// in\ntag_99:\n    /* \"#utility.yul\":5130:5196   */\n  swap1\n  pop\n    /* \"#utility.yul\":5060:5202   */\n  swap2\n  swap1\n  pop\n  jump\t// out\n    /* \"#utility.yul\":5208:5283   */\ntag_33:\n    /* \"#utility.yul\":5251:5254   */\n  0x00\n    /* \"#utility.yul\":5272:5277   */\n  dup2\n    /* \"#utility.yul\":5265:5277   */\n  swap1\n  pop\n    /* \"#utility.yul\":5208:5283   */\n  swap2\n  swap1\n  pop\n  jump\t// out\n    /* \"#utility.yul\":5289:5558   */\ntag_34:\n    /* \"#utility.yul\":5399:5438   */\n  tag_104\n    /* \"#utility.yul\":5430:5437   */\n  dup4\n    /* \"#utility.yul\":5399:5438   */\n  tag_32\n  jump\t// in\ntag_104:\n    /* \"#utility.yul\":5460:5551   */\n  tag_105\n    /* \"#utility.yul\":5509:5550   */\n  tag_106\n    /* \"#utility.yul\":5533:5549   */\n  dup3\n    /* \"#utility.yul\":5509:5550   */\n  tag_33\n  jump\t// in\ntag_106:\n    /* \"#utility.yul\":5501:5507   */\n  dup5\n    /* \"#utility.yul\":5494:5498   */\n  dup5\n    /* \"#utility.yul\":5488:5499   */\n  sload\n    /* \"#utility.yul\":5460:5551   */\n  tag_29\n  jump\t// in\ntag_105:\n    /* \"#utility.yul\":5454:5458   */\n  dup3\n    /* \"#utility.yul\":5447:5552   */\n  sstore\n    /* \"#utility.yul\":5365:5558   */\n  pop\n    /* \"#utility.yul\":5289:5558   */\n  pop\n  pop\n  pop\n  jump\t// out\n    /* \"#utility.yul\":5564:5637   */\ntag_35:\n    /* \"#utility.yul\":5609:5612   */\n  0x00\n    /* \"#utility.yul\":5564:5637   */\n  swap1\n  jump\t// out\n    /* \"#utility.yul\":5643:5832   */\ntag_36:\n    /* \"#utility.yul\":5720:5752   */\n  tag_109\n  tag_35\n  jump\t// in\ntag_109:\n    /* \"#utility.yul\":5761:5826   */\n  tag_110\n    /* \"#utility.yul\":5819:5825   */\n  dup2\n    /* \"#utility.yul\":5811:5817   */\n  dup5\n    /* \"#utility.yul\":5805:5809   */\n  dup5\n    /* \"#utility.yul\":5761:5826   */\n  tag_34\n  jump\t// in\ntag_110:\n    /* \"#utility.yul\":5696:5832   */\n  pop\n    /* \"#utility.yul\":5643:5832   */\n  pop\n  pop\n  jump\t// out\n    /* \"#utility.yul\":5838:6024   */\ntag_37:\n    /* \"#utility.yul\":5898:6018   */\ntag_112:\n    /* \"#utility.yul\":5915:5918   */\n  dup2\n    /* \"#utility.yul\":5908:5913   */\n  dup2\n    /* \"#utility.yul\":5905:5919   */\n  lt\n    /* \"#utility.yul\":5898:6018   */\n  iszero\n  tag_114\n  jumpi\n    /* \"#utility.yul\":5969:6008   */\n  tag_115\n    /* \"#utility.yul\":6006:6007   */\n  0x00\n    /* \"#utility.yul\":5999:6004   */\n  dup3\n    /* \"#utility.yul\":5969:6008   */\n  tag_36\n  jump\t// in\ntag_115:\n    /* \"#utility.yul\":5942:5943   */\n  0x01\n    /* \"#utility.yul\":5935:5940   */\n  dup2\n    /* \"#utility.yul\":5931:5944   */\n  add\n    /* \"#utility.yul\":5922:5944   */\n  swap1\n  pop\n    /* \"#utility.yul\":5898:6018   */\n  jump(tag_112)\ntag_114:\n    /* \"#utility.yul\":5838:6024   */\n  pop\n  pop\n  jump\t// out\n    /* \"#utility.yul\":6030:6573   */\ntag_38:\n    /* \"#utility.yul\":6131:6133   */\n  0x1f\n    /* \"#utility.yul\":6126:6129   */\n  dup3\n    /* \"#utility.yul\":6123:6134   */\n  gt\n    /* \"#utility.yul\":6120:6566   */\n  iszero\n  tag_117\n  jumpi\n    /* \"#utility.yul\":6165:6203   */\n  tag_118\n    /* \"#utility.yul\":6197:6202   */\n  dup2\n    /* \"#utility.yul\":6165:6203   */\n  tag_26\n  jump\t// in\ntag_118:\n    /* \"#utility.yul\":6249:6278   */\n  tag_119\n    /* \"#utility.yul\":6267:6277   */\n  dup5\n    /* \"#utility.yul\":6249:6278   */\n  tag_27\n  jump\t// in\ntag_119:\n    /* \"#utility.yul\":6239:6247   */\n  dup2\n    /* \"#utility.yul\":6235:6279   */\n  add\n    /* \"#utility.yul\":6432:6434   */\n  0x20\n    /* \"#utility.yul\":6420:6430   */\n  dup6\n    /* \"#utility.yul\":6417:6435   */\n  lt\n    /* \"#utility.yul\":6414:6463   */\n  iszero\n  tag_120\n  jumpi\n    /* \"#utility.yul\":6453:6461   */\n  dup2\n    /* \"#utility.yul\":6438:6461   */\n  swap1\n  pop\n    /* \"#utility.yul\":6414:6463   */\ntag_120:\n    /* \"#utility.yul\":6476:6556   */\n  tag_121\n    /* \"#utility.yul\":6532:6554   */\n  tag_122\n    /* \"#utility.yul\":6550:6553   */\n  dup6\n    /* \"#utility.yul\":6532:6554   */\n  tag_27\n  jump\t// in\ntag_122:\n    /* \"#utility.yul\":6522:6530   */\n  dup4\n    /* \"#utility.yul\":6518:6555   */\n  add\n    /* \"#utility.yul\":6505:6516   */\n  dup3\n    /* \"#utility.yul\":6476:6556   */\n  tag_37\n  jump\t// in\ntag_121:\n    /* \"#utility.yul\":6135:6566   */\n  pop\n  pop\n    /* \"#utility.yul\":6120:6566   */\ntag_117:\n    /* \"#utility.yul\":6030:6573   */\n  pop\n  pop\n  pop\n  jump\t// out\n    /* \"#utility.yul\":6579:6696   */\ntag_39:\n    /* \"#utility.yul\":6633:6641   */\n  0x00\n    /* \"#utility.yul\":6683:6688   */\n  dup3\n    /* \"#utility.yul\":6677:6681   */\n  dup3\n    /* \"#utility.yul\":6673:6689   */\n  shr\n    /* \"#utility.yul\":6652:6689   */\n  swap1\n  pop\n    /* \"#utility.yul\":6579:6696   */\n  swap3\n  swap2\n  pop\n  pop\n  jump\t// out\n    /* \"#utility.yul\":6702:6871   */\ntag_40:\n    /* \"#utility.yul\":6746:6752   */\n  0x00\n    /* \"#utility.yul\":6779:6830   */\n  tag_125\n    /* \"#utility.yul\":6827:6828   */\n  0x00\n    /* \"#utility.yul\":6823:6829   */\n  not\n    /* \"#utility.yul\":6815:6820   */\n  dup5\n    /* \"#utility.yul\":6812:6813   */\n  0x08\n    /* \"#utility.yul\":6808:6821   */\n  mul\n    /* \"#utility.yul\":6779:6830   */\n  tag_39\n  jump\t// in\ntag_125:\n    /* \"#utility.yul\":6775:6831   */\n  not\n    /* \"#utility.yul\":6860:6864   */\n  dup1\n    /* \"#utility.yul\":6854:6858   */\n  dup4\n    /* \"#utility.yul\":6850:6865   */\n  and\n    /* \"#utility.yul\":6840:6865   */\n  swap2\n  pop\n    /* \"#utility.yul\":6753:6871   */\n  pop\n    /* \"#utility.yul\":6702:6871   */\n  swap3\n  swap2\n  pop\n  pop\n  jump\t// out\n    /* \"#utility.yul\":6876:7171   */\ntag_41:\n    /* \"#utility.yul\":6952:6956   */\n  0x00\n    /* \"#utility.yul\":7098:7127   */\n  tag_127\n    /* \"#utility.yul\":7123:7126   */\n  dup4\n    /* \"#utility.yul\":7117:7121   */\n  dup4\n    /* \"#utility.yul\":7098:7127   */\n  tag_40\n  jump\t// in\ntag_127:\n    /* \"#utility.yul\":7090:7127   */\n  swap2\n  pop\n    /* \"#utility.yul\":7160:7163   */\n  dup3\n    /* \"#utility.yul\":7157:7158   */\n  0x02\n    /* \"#utility.yul\":7153:7164   */\n  mul\n    /* \"#utility.yul\":7147:7151   */\n  dup3\n    /* \"#utility.yul\":7144:7165   */\n  or\n    /* \"#utility.yul\":7136:7165   */\n  swap1\n  pop\n    /* \"#utility.yul\":6876:7171   */\n  swap3\n  swap2\n  pop\n  pop\n  jump\t// out\n    /* \"#utility.yul\":7176:8571   */\ntag_7:\n    /* \"#utility.yul\":7293:7330   */\n  tag_129\n    /* \"#utility.yul\":7326:7329   */\n  dup3\n    /* \"#utility.yul\":7293:7330   */\n  tag_23\n  jump\t// in\ntag_129:\n    /* \"#utility.yul\":7395:7413   */\n  0xffffffffffffffff\n    /* \"#utility.yul\":7387:7393   */\n  dup2\n    /* \"#utility.yul\":7384:7414   */\n  gt\n    /* \"#utility.yul\":7381:7437   */\n  iszero\n  tag_130\n  jumpi\n    /* \"#utility.yul\":7417:7435   */\n  tag_131\n  tag_16\n  jump\t// in\ntag_131:\n    /* \"#utility.yul\":7381:7437   */\ntag_130:\n    /* \"#utility.yul\":7461:7499   */\n  tag_132\n    /* \"#utility.yul\":7493:7497   */\n  dup3\n    /* \"#utility.yul\":7487:7498   */\n  sload\n    /* \"#utility.yul\":7461:7499   */\n  tag_25\n  jump\t// in\ntag_132:\n    /* \"#utility.yul\":7546:7613   */\n  tag_133\n    /* \"#utility.yul\":7606:7612   */\n  dup3\n    /* \"#utility.yul\":7598:7604   */\n  dup3\n    /* \"#utility.yul\":7592:7596   */\n  dup6\n    /* \"#utility.yul\":7546:7613   */\n  tag_38\n  jump\t// in\ntag_133:\n    /* \"#utility.yul\":7640:7641   */\n  0x00\n    /* \"#utility.yul\":7664:7668   */\n  0x20\n    /* \"#utility.yul\":7651:7668   */\n  swap1\n  pop\n    /* \"#utility.yul\":7696:7698   */\n  0x1f\n    /* \"#utility.yul\":7688:7694   */\n  dup4\n    /* \"#utility.yul\":7685:7699   */\n  gt\n    /* \"#utility.yul\":7713:7714   */\n  0x01\n    /* \"#utility.yul\":7708:8326   */\n  dup2\n  eq\n  tag_135\n  jumpi\n    /* \"#utility.yul\":8370:8371   */\n  0x00\n    /* \"#utility.yul\":8387:8393   */\n  dup5\n    /* \"#utility.yul\":8384:8461   */\n  iszero\n  tag_136\n  jumpi\n    /* \"#utility.yul\":8436:8445   */\n  dup3\n    /* \"#utility.yul\":8431:8434   */\n  dup8\n    /* \"#utility.yul\":8427:8446   */\n  add\n    /* \"#utility.yul\":8421:8447   */\n  mload\n    /* \"#utility.yul\":8412:8447   */\n  swap1\n  pop\n    /* \"#utility.yul\":8384:8461   */\ntag_136:\n    /* \"#utility.yul\":8487:8554   */\n  tag_137\n    /* \"#utility.yul\":8547:8553   */\n  dup6\n    /* \"#utility.yul\":8540:8545   */\n  dup3\n    /* \"#utility.yul\":8487:8554   */\n  tag_41\n  jump\t// in\ntag_137:\n    /* \"#utility.yul\":8481:8485   */\n  dup7\n    /* \"#utility.yul\":8474:8555   */\n  sstore\n    /* \"#utility.yul\":8343:8565   */\n  pop\n    /* \"#utility.yul\":7678:8565   */\n  jump(tag_134)\n    /* \"#utility.yul\":7708:8326   */\ntag_135:\n    /* \"#utility.yul\":7760:7764   */\n  0x1f\n    /* \"#utility.yul\":7756:7765   */\n  not\n    /* \"#utility.yul\":7748:7754   */\n  dup5\n    /* \"#utility.yul\":7744:7766   */\n  and\n    /* \"#utility.yul\":7794:7831   */\n  tag_138\n    /* \"#utility.yul\":7826:7830   */\n  dup7\n    /* \"#utility.yul\":7794:7831   */\n  tag_26\n  jump\t// in\ntag_138:\n    /* \"#utility.yul\":7853:7854   */\n  0x00\n    /* \"#utility.yul\":7867:8075   */\ntag_139:\n    /* \"#utility.yul\":7881:7888   */\n  dup3\n    /* \"#utility.yul\":7878:7879   */\n  dup2\n    /* \"#utility.yul\":7875:7889   */\n  lt\n    /* \"#utility.yul\":7867:8075   */\n  iszero\n  tag_141\n  jumpi\n    /* \"#utility.yul\":7960:7969   */\n  dup5\n    /* \"#utility.yul\":7955:7958   */\n  dup10\n    /* \"#utility.yul\":7951:7970   */\n  add\n    /* \"#utility.yul\":7945:7971   */\n  mload\n    /* \"#utility.yul\":7937:7943   */\n  dup3\n    /* \"#utility.yul\":7930:7972   */\n  sstore\n    /* \"#utility.yul\":8011:8012   */\n  0x01\n    /* \"#utility.yul\":8003:8009   */\n  dup3\n    /* \"#utility.yul\":7999:8013   */\n  add\n    /* \"#utility.yul\":7989:8013   */\n  swap2\n  pop\n    /* \"#utility.yul\":8058:8060   */\n  0x20\n    /* \"#utility.yul\":8047:8056   */\n  dup6\n    /* \"#utility.yul\":8043:8061   */\n  add\n    /* \"#utility.yul\":8030:8061   */\n  swap5\n  pop\n    /* \"#utility.yul\":7904:7908   */\n  0x20\n    /* \"#utility.yul\":7901:7902   */\n  dup2\n    /* \"#utility.yul\":7897:7909   */\n  add\n    /* \"#utility.yul\":7892:7909   */\n  swap1\n  pop\n    /* \"#utility.yul\":7867:8075   */\n  jump(tag_139)\ntag_141:\n    /* \"#utility.yul\":8103:8109   */\n  dup7\n    /* \"#utility.yul\":8094:8101   */\n  dup4\n    /* \"#utility.yul\":8091:8110   */\n  lt\n    /* \"#utility.yul\":8088:8267   */\n  iszero\n  tag_142\n  jumpi\n    /* \"#utility.yul\":8161:8170   */\n  dup5\n    /* \"#utility.yul\":8156:8159   */\n  dup10\n    /* \"#utility.yul\":8152:8171   */\n  add\n    /* \"#utility.yul\":8146:8172   */\n  mload\n    /* \"#utility.yul\":8204:8252   */\n  tag_143\n    /* \"#utility.yul\":8246:8250   */\n  0x1f\n    /* \"#utility.yul\":8238:8244   */\n  dup10\n    /* \"#utility.yul\":8234:8251   */\n  and\n    /* \"#utility.yul\":8223:8232   */\n  dup3\n    /* \"#utility.yul\":8204:8252   */\n  tag_40\n  jump\t// in\ntag_143:\n    /* \"#utility.yul\":8196:8202   */\n  dup4\n    /* \"#utility.yul\":8189:8253   */\n  sstore\n    /* \"#utility.yul\":8111:8267   */\n  pop\n    /* \"#utility.yul\":8088:8267   */\ntag_142:\n    /* \"#utility.yul\":8313:8314   */\n  0x01\n    /* \"#utility.yul\":8309:8310   */\n  0x02\n    /* \"#utility.yul\":8301:8307   */\n  dup9\n    /* \"#utility.yul\":8297:8311   */\n  mul\n    /* \"#utility.yul\":8293:8315   */\n  add\n    /* \"#utility.yul\":8287:8291   */\n  dup9\n    /* \"#utility.yul\":8280:8316   */\n  sstore\n    /* \"#utility.yul\":7715:8326   */\n  pop\n  pop\n  pop\n    /* \"#utility.yul\":7678:8565   */\ntag_134:\n  pop\n    /* \"#utility.yul\":7268:8571   */\n  pop\n  pop\n  pop\n    /* \"#utility.yul\":7176:8571   */\n  pop\n  pop\n  jump\t// out\n    /* \"contracts/token/ERC721/ERC721.sol\":646:17581  contract ERC721 is Context, ERC165, IERC721, IERC721Metadata {... */\ntag_9:\n  dataSize(sub_0)\n  dup1\n  dataOffset(sub_0)\n  0x00\n  codecopy\n  0x00\n  return\nstop\n\nsub_0: assembly {\n        /* \"contracts/token/ERC721/ERC721.sol\":646:17581  contract ERC721 is Context, ERC165, IERC721, IERC721Metadata {... */\n      mstore(0x40, 0x80)\n      callvalue\n      dup1\n      iszero\n      tag_1\n      jumpi\n      0x00\n      dup1\n      revert\n    tag_1:\n      pop\n      jumpi(tag_2, lt(calldatasize, 0x04))\n      shr(0xe0, calldataload(0x00))\n      dup1\n      0x70a08231\n      gt\n      tag_17\n      jumpi\n      dup1\n      0xa22cb465\n      gt\n      tag_18\n      jumpi\n      dup1\n      0xa22cb465\n      eq\n      tag_13\n      jumpi\n      dup1\n      0xb88d4fde\n      eq\n      tag_14\n      jumpi\n      dup1\n      0xc87b56dd\n      eq\n      tag_15\n      jumpi\n      dup1\n      0xe985e9c5\n      eq\n      tag_16\n      jumpi\n      jump(tag_2)\n    tag_18:\n      dup1\n      0x70a08231\n      eq\n      tag_10\n      jumpi\n      dup1\n      0x95d89b41\n      eq\n      tag_11\n      jumpi\n      dup1\n      0xa0712d68\n      eq\n      tag_12\n      jumpi\n      jump(tag_2)\n    tag_17:\n      dup1\n      0x095ea7b3\n      gt\n      tag_19\n      jumpi\n      dup1\n      0x095ea7b3\n      eq\n      tag_6\n      jumpi\n      dup1\n      0x23b872dd\n      eq\n      tag_7\n      jumpi\n      dup1\n      0x42842e0e\n      eq\n      tag_8\n      jumpi\n      dup1\n      0x6352211e\n      eq\n      tag_9\n      jumpi\n      jump(tag_2)\n    tag_19:\n      dup1\n      0x01ffc9a7\n      eq\n      tag_3\n      jumpi\n      dup1\n      0x06fdde03\n      eq\n      tag_4\n      jumpi\n      dup1\n      0x081812fc\n      eq\n      tag_5\n      jumpi\n    tag_2:\n      0x00\n      dup1\n      revert\n        /* \"contracts/token/ERC721/ERC721.sol\":1621:1926  function supportsInterface(bytes4 interfaceId) public view virtual override(ERC165, IERC165) returns (bool) {... */\n    tag_3:\n      tag_20\n      0x04\n      dup1\n      calldatasize\n      sub\n      dup2\n      add\n      swap1\n      tag_21\n      swap2\n      swap1\n      tag_22\n      jump\t// in\n    tag_21:\n      tag_23\n      jump\t// in\n    tag_20:\n      mload(0x40)\n      tag_24\n      swap2\n      swap1\n      tag_25\n      jump\t// in\n    tag_24:\n      mload(0x40)\n      dup1\n      swap2\n      sub\n      swap1\n      return\n        /* \"contracts/token/ERC721/ERC721.sol\":2549:2649  function name() public view virtual override returns (string memory) {... */\n    tag_4:\n      tag_26\n      tag_27\n      jump\t// in\n    tag_26:\n      mload(0x40)\n      tag_28\n      swap2\n      swap1\n      tag_29\n      jump\t// in\n    tag_28:\n      mload(0x40)\n      dup1\n      swap2\n      sub\n      swap1\n      return\n        /* \"contracts/token/ERC721/ERC721.sol\":4172:4343  function getApproved(uint256 tokenId) public view virtual override returns (address) {... */\n    tag_5:\n      tag_30\n      0x04\n      dup1\n      calldatasize\n      sub\n      dup2\n      add\n      swap1\n      tag_31\n      swap2\n      swap1\n      tag_32\n      jump\t// in\n    tag_31:\n      tag_33\n      jump\t// in\n    tag_30:\n      mload(0x40)\n      tag_34\n      swap2\n      swap1\n      tag_35\n      jump\t// in\n    tag_34:\n      mload(0x40)\n      dup1\n      swap2\n      sub\n      swap1\n      return\n        /* \"contracts/token/ERC721/ERC721.sol\":3579:3995  function approve(address to, uint256 tokenId) public virtual override {... */\n    tag_6:\n      tag_36\n      0x04\n      dup1\n      calldatasize\n      sub\n      dup2\n      add\n      swap1\n      tag_37\n      swap2\n      swap1\n      tag_38\n      jump\t// in\n    tag_37:\n      tag_39\n      jump\t// in\n    tag_36:\n      stop\n        /* \"contracts/token/ERC721/ERC721.sol\":4872:5173  function transferFrom(address from, address to, uint256 tokenId) public virtual override {... */\n    tag_7:\n      tag_40\n      0x04\n      dup1\n      calldatasize\n      sub\n      dup2\n      add\n      swap1\n      tag_41\n      swap2\n      swap1\n      tag_42\n      jump\t// in\n    tag_41:\n      tag_43\n      jump\t// in\n    tag_40:\n      stop\n        /* \"contracts/token/ERC721/ERC721.sol\":5244:5395  function safeTransferFrom(address from, address to, uint256 tokenId) public virtual override {... */\n    tag_8:\n      tag_44\n      0x04\n      dup1\n      calldatasize\n      sub\n      dup2\n      add\n      swap1\n      tag_45\n      swap2\n      swap1\n      tag_42\n      jump\t// in\n    tag_45:\n      tag_46\n      jump\t// in\n    tag_44:\n      stop\n        /* \"contracts/token/ERC721/ERC721.sol\":2259:2482  function ownerOf(uint256 tokenId) public view virtual override returns (address) {... */\n    tag_9:\n      tag_47\n      0x04\n      dup1\n      calldatasize\n      sub\n      dup2\n      add\n      swap1\n      tag_48\n      swap2\n      swap1\n      tag_32\n      jump\t// in\n    tag_48:\n      tag_49\n      jump\t// in\n    tag_47:\n      mload(0x40)\n      tag_50\n      swap2\n      swap1\n      tag_35\n      jump\t// in\n    tag_50:\n      mload(0x40)\n      dup1\n      swap2\n      sub\n      swap1\n      return\n        /* \"contracts/token/ERC721/ERC721.sol\":1990:2197  function balanceOf(address owner) public view virtual override returns (uint256) {... */\n    tag_10:\n      tag_51\n      0x04\n      dup1\n      calldatasize\n      sub\n      dup2\n      add\n      swap1\n      tag_52\n      swap2\n      swap1\n      tag_53\n      jump\t// in\n    tag_52:\n      tag_54\n      jump\t// in\n    tag_51:\n      mload(0x40)\n      tag_55\n      swap2\n      swap1\n      tag_56\n      jump\t// in\n    tag_55:\n      mload(0x40)\n      dup1\n      swap2\n      sub\n      swap1\n      return\n        /* \"contracts/token/ERC721/ERC721.sol\":2718:2822  function symbol() public view virtual override returns (string memory) {... */\n    tag_11:\n      tag_57\n      tag_58\n      jump\t// in\n    tag_57:\n      mload(0x40)\n      tag_59\n      swap2\n      swap1\n      tag_29\n      jump\t// in\n    tag_59:\n      mload(0x40)\n      dup1\n      swap2\n      sub\n      swap1\n      return\n        /* \"contracts/token/ERC721/ERC721.sol\":4003:4106  function mint(uint256 tokenId) public virtual override {... */\n    tag_12:\n      tag_60\n      0x04\n      dup1\n      calldatasize\n      sub\n      dup2\n      add\n      swap1\n      tag_61\n      swap2\n      swap1\n      tag_32\n      jump\t// in\n    tag_61:\n      tag_62\n      jump\t// in\n    tag_60:\n      stop\n        /* \"contracts/token/ERC721/ERC721.sol\":4415:4570  function setApprovalForAll(address operator, bool approved) public virtual override {... */\n    tag_13:\n      tag_63\n      0x04\n      dup1\n      calldatasize\n      sub\n      dup2\n      add\n      swap1\n      tag_64\n      swap2\n      swap1\n      tag_65\n      jump\t// in\n    tag_64:\n      tag_66\n      jump\t// in\n    tag_63:\n      stop\n        /* \"contracts/token/ERC721/ERC721.sol\":5466:5745  function safeTransferFrom(address from, address to, uint256 tokenId, bytes memory data) public virtual override {... */\n    tag_14:\n      tag_67\n      0x04\n      dup1\n      calldatasize\n      sub\n      dup2\n      add\n      swap1\n      tag_68\n      swap2\n      swap1\n      tag_69\n      jump\t// in\n    tag_68:\n      tag_70\n      jump\t// in\n    tag_67:\n      stop\n        /* \"contracts/token/ERC721/ERC721.sol\":2893:3174  function tokenURI(uint256 tokenId) public view virtual override returns (string memory) {... */\n    tag_15:\n      tag_71\n      0x04\n      dup1\n      calldatasize\n      sub\n      dup2\n      add\n      swap1\n      tag_72\n      swap2\n      swap1\n      tag_32\n      jump\t// in\n    tag_72:\n      tag_73\n      jump\t// in\n    tag_71:\n      mload(0x40)\n      tag_74\n      swap2\n      swap1\n      tag_29\n      jump\t// in\n    tag_74:\n      mload(0x40)\n      dup1\n      swap2\n      sub\n      swap1\n      return\n        /* \"contracts/token/ERC721/ERC721.sol\":4641:4805  function isApprovedForAll(address owner, address operator) public view virtual override returns (bool) {... */\n    tag_16:\n      tag_75\n      0x04\n      dup1\n      calldatasize\n      sub\n      dup2\n      add\n      swap1\n      tag_76\n      swap2\n      swap1\n      tag_77\n      jump\t// in\n    tag_76:\n      tag_78\n      jump\t// in\n    tag_75:\n      mload(0x40)\n      tag_79\n      swap2\n      swap1\n      tag_25\n      jump\t// in\n    tag_79:\n      mload(0x40)\n      dup1\n      swap2\n      sub\n      swap1\n      return\n        /* \"contracts/token/ERC721/ERC721.sol\":1621:1926  function supportsInterface(bytes4 interfaceId) public view virtual override(ERC165, IERC165) returns (bool) {... */\n    tag_23:\n        /* \"contracts/token/ERC721/ERC721.sol\":1723:1727  bool */\n      0x00\n        /* \"contracts/token/ERC721/ERC721.sol\":1775:1800  type(IERC721).interfaceId */\n      0x20dd75a500000000000000000000000000000000000000000000000000000000\n        /* \"contracts/token/ERC721/ERC721.sol\":1760:1800  interfaceId == type(IERC721).interfaceId */\n      not(0xffffffffffffffffffffffffffffffffffffffffffffffffffffffff)\n      and\n        /* \"contracts/token/ERC721/ERC721.sol\":1760:1771  interfaceId */\n      dup3\n        /* \"contracts/token/ERC721/ERC721.sol\":1760:1800  interfaceId == type(IERC721).interfaceId */\n      not(0xffffffffffffffffffffffffffffffffffffffffffffffffffffffff)\n      and\n      eq\n        /* \"contracts/token/ERC721/ERC721.sol\":1760:1865  interfaceId == type(IERC721).interfaceId ||... */\n      dup1\n      tag_81\n      jumpi\n      pop\n        /* \"contracts/token/ERC721/ERC721.sol\":1832:1865  type(IERC721Metadata).interfaceId */\n      0x5b5e139f00000000000000000000000000000000000000000000000000000000\n        /* \"contracts/token/ERC721/ERC721.sol\":1817:1865  interfaceId == type(IERC721Metadata).interfaceId */\n      not(0xffffffffffffffffffffffffffffffffffffffffffffffffffffffff)\n      and\n        /* \"contracts/token/ERC721/ERC721.sol\":1817:1828  interfaceId */\n      dup3\n        /* \"contracts/token/ERC721/ERC721.sol\":1817:1865  interfaceId == type(IERC721Metadata).interfaceId */\n      not(0xffffffffffffffffffffffffffffffffffffffffffffffffffffffff)\n      and\n      eq\n        /* \"contracts/token/ERC721/ERC721.sol\":1760:1865  interfaceId == type(IERC721).interfaceId ||... */\n    tag_81:\n        /* \"contracts/token/ERC721/ERC721.sol\":1760:1918  interfaceId == type(IERC721).interfaceId ||... */\n      dup1\n      tag_82\n      jumpi\n      pop\n        /* \"contracts/token/ERC721/ERC721.sol\":1882:1918  super.supportsInterface(interfaceId) */\n      tag_83\n        /* \"contracts/token/ERC721/ERC721.sol\":1906:1917  interfaceId */\n      dup3\n        /* \"contracts/token/ERC721/ERC721.sol\":1882:1905  super.supportsInterface */\n      tag_84\n        /* \"contracts/token/ERC721/ERC721.sol\":1882:1918  super.supportsInterface(interfaceId) */\n      jump\t// in\n    tag_83:\n        /* \"contracts/token/ERC721/ERC721.sol\":1760:1918  interfaceId == type(IERC721).interfaceId ||... */\n    tag_82:\n        /* \"contracts/token/ERC721/ERC721.sol\":1740:1918  return... */\n      swap1\n      pop\n        /* \"contracts/token/ERC721/ERC721.sol\":1621:1926  function supportsInterface(bytes4 interfaceId) public view virtual override(ERC165, IERC165) returns (bool) {... */\n      swap2\n      swap1\n      pop\n      jump\t// out\n        /* \"contracts/token/ERC721/ERC721.sol\":2549:2649  function name() public view virtual override returns (string memory) {... */\n    tag_27:\n        /* \"contracts/token/ERC721/ERC721.sol\":2603:2616  string memory */\n      0x60\n        /* \"contracts/token/ERC721/ERC721.sol\":2636:2641  _name */\n      0x00\n        /* \"contracts/token/ERC721/ERC721.sol\":2629:2641  return _name */\n      dup1\n      sload\n      tag_86\n      swap1\n      tag_87\n      jump\t// in\n    tag_86:\n      dup1\n      0x1f\n      add\n      0x20\n      dup1\n      swap2\n      div\n      mul\n      0x20\n      add\n      mload(0x40)\n      swap1\n      dup2\n      add\n      0x40\n      mstore\n      dup1\n      swap3\n      swap2\n      swap1\n      dup2\n      dup2\n      mstore\n      0x20\n      add\n      dup3\n      dup1\n      sload\n      tag_88\n      swap1\n      tag_87\n      jump\t// in\n    tag_88:\n      dup1\n      iszero\n      tag_89\n      jumpi\n      dup1\n      0x1f\n      lt\n      tag_90\n      jumpi\n      0x0100\n      dup1\n      dup4\n      sload\n      div\n      mul\n      dup4\n      mstore\n      swap2\n      0x20\n      add\n      swap2\n      jump(tag_89)\n    tag_90:\n      dup3\n      add\n      swap2\n      swap1\n      0x00\n      mstore\n      keccak256(0x00, 0x20)\n      swap1\n    tag_91:\n      dup2\n      sload\n      dup2\n      mstore\n      swap1\n      0x01\n      add\n      swap1\n      0x20\n      add\n      dup1\n      dup4\n      gt\n      tag_91\n      jumpi\n      dup3\n      swap1\n      sub\n      0x1f\n      and\n      dup3\n      add\n      swap2\n    tag_89:\n      pop\n      pop\n      pop\n      pop\n      pop\n      swap1\n      pop\n        /* \"contracts/token/ERC721/ERC721.sol\":2549:2649  function name() public view virtual override returns (string memory) {... */\n      swap1\n      jump\t// out\n        /* \"contracts/token/ERC721/ERC721.sol\":4172:4343  function getApproved(uint256 tokenId) public view virtual override returns (address) {... */\n    tag_33:\n        /* \"contracts/token/ERC721/ERC721.sol\":4248:4255  address */\n      0x00\n        /* \"contracts/token/ERC721/ERC721.sol\":4268:4291  _requireMinted(tokenId) */\n      tag_93\n        /* \"contracts/token/ERC721/ERC721.sol\":4283:4290  tokenId */\n      dup3\n        /* \"contracts/token/ERC721/ERC721.sol\":4268:4282  _requireMinted */\n      tag_94\n        /* \"contracts/token/ERC721/ERC721.sol\":4268:4291  _requireMinted(tokenId) */\n      jump\t// in\n    tag_93:\n        /* \"contracts/token/ERC721/ERC721.sol\":4311:4326  _tokenApprovals */\n      0x04\n        /* \"contracts/token/ERC721/ERC721.sol\":4311:4335  _tokenApprovals[tokenId] */\n      0x00\n        /* \"contracts/token/ERC721/ERC721.sol\":4327:4334  tokenId */\n      dup4\n        /* \"contracts/token/ERC721/ERC721.sol\":4311:4335  _tokenApprovals[tokenId] */\n      dup2\n      mstore\n      0x20\n      add\n      swap1\n      dup2\n      mstore\n      0x20\n      add\n      0x00\n      keccak256\n      0x00\n      swap1\n      sload\n      swap1\n      0x0100\n      exp\n      swap1\n      div\n      0xffffffffffffffffffffffffffffffffffffffff\n      and\n        /* \"contracts/token/ERC721/ERC721.sol\":4304:4335  return _tokenApprovals[tokenId] */\n      swap1\n      pop\n        /* \"contracts/token/ERC721/ERC721.sol\":4172:4343  function getApproved(uint256 tokenId) public view virtual override returns (address) {... */\n      swap2\n      swap1\n      pop\n      jump\t// out\n        /* \"contracts/token/ERC721/ERC721.sol\":3579:3995  function approve(address to, uint256 tokenId) public virtual override {... */\n    tag_39:\n        /* \"contracts/token/ERC721/ERC721.sol\":3660:3673  address owner */\n      0x00\n        /* \"contracts/token/ERC721/ERC721.sol\":3676:3699  ERC721.ownerOf(tokenId) */\n      tag_96\n        /* \"contracts/token/ERC721/ERC721.sol\":3691:3698  tokenId */\n      dup3\n        /* \"contracts/token/ERC721/ERC721.sol\":3676:3690  ERC721.ownerOf */\n      tag_49\n        /* \"contracts/token/ERC721/ERC721.sol\":3676:3699  ERC721.ownerOf(tokenId) */\n      jump\t// in\n    tag_96:\n        /* \"contracts/token/ERC721/ERC721.sol\":3660:3699  address owner = ERC721.ownerOf(tokenId) */\n      swap1\n      pop\n        /* \"contracts/token/ERC721/ERC721.sol\":3724:3729  owner */\n      dup1\n        /* \"contracts/token/ERC721/ERC721.sol\":3718:3729  to != owner */\n      0xffffffffffffffffffffffffffffffffffffffff\n      and\n        /* \"contracts/token/ERC721/ERC721.sol\":3718:3720  to */\n      dup4\n        /* \"contracts/token/ERC721/ERC721.sol\":3718:3729  to != owner */\n      0xffffffffffffffffffffffffffffffffffffffff\n      and\n      sub\n        /* \"contracts/token/ERC721/ERC721.sol\":3710:3767  require(to != owner, \"ERC721: approval to current owner\") */\n      tag_97\n      jumpi\n      mload(0x40)\n      0x08c379a000000000000000000000000000000000000000000000000000000000\n      dup2\n      mstore\n      0x04\n      add\n      tag_98\n      swap1\n      tag_99\n      jump\t// in\n    tag_98:\n      mload(0x40)\n      dup1\n      swap2\n      sub\n      swap1\n      revert\n    tag_97:\n        /* \"contracts/token/ERC721/ERC721.sol\":3818:3823  owner */\n      dup1\n        /* \"contracts/token/ERC721/ERC721.sol\":3802:3823  _msgSender() == owner */\n      0xffffffffffffffffffffffffffffffffffffffff\n      and\n        /* \"contracts/token/ERC721/ERC721.sol\":3802:3814  _msgSender() */\n      tag_100\n        /* \"contracts/token/ERC721/ERC721.sol\":3802:3812  _msgSender */\n      tag_101\n        /* \"contracts/token/ERC721/ERC721.sol\":3802:3814  _msgSender() */\n      jump\t// in\n    tag_100:\n        /* \"contracts/token/ERC721/ERC721.sol\":3802:3823  _msgSender() == owner */\n      0xffffffffffffffffffffffffffffffffffffffff\n      and\n      eq\n        /* \"contracts/token/ERC721/ERC721.sol\":3802:3864  _msgSender() == owner || isApprovedForAll(owner, _msgSender()) */\n      dup1\n      tag_102\n      jumpi\n      pop\n        /* \"contracts/token/ERC721/ERC721.sol\":3827:3864  isApprovedForAll(owner, _msgSender()) */\n      tag_103\n        /* \"contracts/token/ERC721/ERC721.sol\":3844:3849  owner */\n      dup2\n        /* \"contracts/token/ERC721/ERC721.sol\":3851:3863  _msgSender() */\n      tag_104\n        /* \"contracts/token/ERC721/ERC721.sol\":3851:3861  _msgSender */\n      tag_101\n        /* \"contracts/token/ERC721/ERC721.sol\":3851:3863  _msgSender() */\n      jump\t// in\n    tag_104:\n        /* \"contracts/token/ERC721/ERC721.sol\":3827:3843  isApprovedForAll */\n      tag_78\n        /* \"contracts/token/ERC721/ERC721.sol\":3827:3864  isApprovedForAll(owner, _msgSender()) */\n      jump\t// in\n    tag_103:\n        /* \"contracts/token/ERC721/ERC721.sol\":3802:3864  _msgSender() == owner || isApprovedForAll(owner, _msgSender()) */\n    tag_102:\n        /* \"contracts/token/ERC721/ERC721.sol\":3780:3953  require(... */\n      tag_105\n      jumpi\n      mload(0x40)\n      0x08c379a000000000000000000000000000000000000000000000000000000000\n      dup2\n      mstore\n      0x04\n      add\n      tag_106\n      swap1\n      tag_107\n      jump\t// in\n    tag_106:\n      mload(0x40)\n      dup1\n      swap2\n      sub\n      swap1\n      revert\n    tag_105:\n        /* \"contracts/token/ERC721/ERC721.sol\":3966:3987  _approve(to, tokenId) */\n      tag_108\n        /* \"contracts/token/ERC721/ERC721.sol\":3975:3977  to */\n      dup4\n        /* \"contracts/token/ERC721/ERC721.sol\":3979:3986  tokenId */\n      dup4\n        /* \"contracts/token/ERC721/ERC721.sol\":3966:3974  _approve */\n      tag_109\n        /* \"contracts/token/ERC721/ERC721.sol\":3966:3987  _approve(to, tokenId) */\n      jump\t// in\n    tag_108:\n        /* \"contracts/token/ERC721/ERC721.sol\":3649:3995  {... */\n      pop\n        /* \"contracts/token/ERC721/ERC721.sol\":3579:3995  function approve(address to, uint256 tokenId) public virtual override {... */\n      pop\n      pop\n      jump\t// out\n        /* \"contracts/token/ERC721/ERC721.sol\":4872:5173  function transferFrom(address from, address to, uint256 tokenId) public virtual override {... */\n    tag_43:\n        /* \"contracts/token/ERC721/ERC721.sol\":5033:5074  _isApprovedOrOwner(_msgSender(), tokenId) */\n      tag_111\n        /* \"contracts/token/ERC721/ERC721.sol\":5052:5064  _msgSender() */\n      tag_112\n        /* \"contracts/token/ERC721/ERC721.sol\":5052:5062  _msgSender */\n      tag_101\n        /* \"contracts/token/ERC721/ERC721.sol\":5052:5064  _msgSender() */\n      jump\t// in\n    tag_112:\n        /* \"contracts/token/ERC721/ERC721.sol\":5066:5073  tokenId */\n      dup3\n        /* \"contracts/token/ERC721/ERC721.sol\":5033:5051  _isApprovedOrOwner */\n      tag_113\n        /* \"contracts/token/ERC721/ERC721.sol\":5033:5074  _isApprovedOrOwner(_msgSender(), tokenId) */\n      jump\t// in\n    tag_111:\n        /* \"contracts/token/ERC721/ERC721.sol\":5025:5124  require(_isApprovedOrOwner(_msgSender(), tokenId), \"ERC721: caller is not token owner or approved\") */\n      tag_114\n      jumpi\n      mload(0x40)\n      0x08c379a000000000000000000000000000000000000000000000000000000000\n      dup2\n      mstore\n      0x04\n      add\n      tag_115\n      swap1\n      tag_116\n      jump\t// in\n    tag_115:\n      mload(0x40)\n      dup1\n      swap2\n      sub\n      swap1\n      revert\n    tag_114:\n        /* \"contracts/token/ERC721/ERC721.sol\":5137:5165  _transfer(from, to, tokenId) */\n      tag_117\n        /* \"contracts/token/ERC721/ERC721.sol\":5147:5151  from */\n      dup4\n        /* \"contracts/token/ERC721/ERC721.sol\":5153:5155  to */\n      dup4\n        /* \"contracts/token/ERC721/ERC721.sol\":5157:5164  tokenId */\n      dup4\n        /* \"contracts/token/ERC721/ERC721.sol\":5137:5146  _transfer */\n      tag_118\n        /* \"contracts/token/ERC721/ERC721.sol\":5137:5165  _transfer(from, to, tokenId) */\n      jump\t// in\n    tag_117:\n        /* \"contracts/token/ERC721/ERC721.sol\":4872:5173  function transferFrom(address from, address to, uint256 tokenId) public virtual override {... */\n      pop\n      pop\n      pop\n      jump\t// out\n        /* \"contracts/token/ERC721/ERC721.sol\":5244:5395  function safeTransferFrom(address from, address to, uint256 tokenId) public virtual override {... */\n    tag_46:\n        /* \"contracts/token/ERC721/ERC721.sol\":5348:5387  safeTransferFrom(from, to, tokenId, \"\") */\n      tag_120\n        /* \"contracts/token/ERC721/ERC721.sol\":5365:5369  from */\n      dup4\n        /* \"contracts/token/ERC721/ERC721.sol\":5371:5373  to */\n      dup4\n        /* \"contracts/token/ERC721/ERC721.sol\":5375:5382  tokenId */\n      dup4\n        /* \"contracts/token/ERC721/ERC721.sol\":5348:5387  safeTransferFrom(from, to, tokenId, \"\") */\n      mload(0x40)\n      dup1\n      0x20\n      add\n      0x40\n      mstore\n      dup1\n      0x00\n      dup2\n      mstore\n      pop\n        /* \"contracts/token/ERC721/ERC721.sol\":5348:5364  safeTransferFrom */\n      tag_70\n        /* \"contracts/token/ERC721/ERC721.sol\":5348:5387  safeTransferFrom(from, to, tokenId, \"\") */\n      jump\t// in\n    tag_120:\n        /* \"contracts/token/ERC721/ERC721.sol\":5244:5395  function safeTransferFrom(address from, address to, uint256 tokenId) public virtual override {... */\n      pop\n      pop\n      pop\n      jump\t// out\n        /* \"contracts/token/ERC721/ERC721.sol\":2259:2482  function ownerOf(uint256 tokenId) public view virtual override returns (address) {... */\n    tag_49:\n        /* \"contracts/token/ERC721/ERC721.sol\":2331:2338  address */\n      0x00\n        /* \"contracts/token/ERC721/ERC721.sol\":2351:2364  address owner */\n      dup1\n        /* \"contracts/token/ERC721/ERC721.sol\":2367:2384  _ownerOf(tokenId) */\n      tag_122\n        /* \"contracts/token/ERC721/ERC721.sol\":2376:2383  tokenId */\n      dup4\n        /* \"contracts/token/ERC721/ERC721.sol\":2367:2375  _ownerOf */\n      tag_123\n        /* \"contracts/token/ERC721/ERC721.sol\":2367:2384  _ownerOf(tokenId) */\n      jump\t// in\n    tag_122:\n        /* \"contracts/token/ERC721/ERC721.sol\":2351:2384  address owner = _ownerOf(tokenId) */\n      swap1\n      pop\n        /* \"contracts/token/ERC721/ERC721.sol\":2420:2421  0 */\n      0x00\n        /* \"contracts/token/ERC721/ERC721.sol\":2403:2422  owner != address(0) */\n      0xffffffffffffffffffffffffffffffffffffffff\n      and\n        /* \"contracts/token/ERC721/ERC721.sol\":2403:2408  owner */\n      dup2\n        /* \"contracts/token/ERC721/ERC721.sol\":2403:2422  owner != address(0) */\n      0xffffffffffffffffffffffffffffffffffffffff\n      and\n      sub\n        /* \"contracts/token/ERC721/ERC721.sol\":2395:2451  require(owner != address(0), \"ERC721: invalid token ID\") */\n      tag_124\n      jumpi\n      mload(0x40)\n      0x08c379a000000000000000000000000000000000000000000000000000000000\n      dup2\n      mstore\n      0x04\n      add\n      tag_125\n      swap1\n      tag_126\n      jump\t// in\n    tag_125:\n      mload(0x40)\n      dup1\n      swap2\n      sub\n      swap1\n      revert\n    tag_124:\n        /* \"contracts/token/ERC721/ERC721.sol\":2469:2474  owner */\n      dup1\n        /* \"contracts/token/ERC721/ERC721.sol\":2462:2474  return owner */\n      swap2\n      pop\n      pop\n        /* \"contracts/token/ERC721/ERC721.sol\":2259:2482  function ownerOf(uint256 tokenId) public view virtual override returns (address) {... */\n      swap2\n      swap1\n      pop\n      jump\t// out\n        /* \"contracts/token/ERC721/ERC721.sol\":1990:2197  function balanceOf(address owner) public view virtual override returns (uint256) {... */\n    tag_54:\n        /* \"contracts/token/ERC721/ERC721.sol\":2062:2069  uint256 */\n      0x00\n        /* \"contracts/token/ERC721/ERC721.sol\":2107:2108  0 */\n      dup1\n        /* \"contracts/token/ERC721/ERC721.sol\":2090:2109  owner != address(0) */\n      0xffffffffffffffffffffffffffffffffffffffff\n      and\n        /* \"contracts/token/ERC721/ERC721.sol\":2090:2095  owner */\n      dup3\n        /* \"contracts/token/ERC721/ERC721.sol\":2090:2109  owner != address(0) */\n      0xffffffffffffffffffffffffffffffffffffffff\n      and\n      sub\n        /* \"contracts/token/ERC721/ERC721.sol\":2082:2155  require(owner != address(0), \"ERC721: address zero is not a valid owner\") */\n      tag_128\n      jumpi\n      mload(0x40)\n      0x08c379a000000000000000000000000000000000000000000000000000000000\n      dup2\n      mstore\n      0x04\n      add\n      tag_129\n      swap1\n      tag_130\n      jump\t// in\n    tag_129:\n      mload(0x40)\n      dup1\n      swap2\n      sub\n      swap1\n      revert\n    tag_128:\n        /* \"contracts/token/ERC721/ERC721.sol\":2173:2182  _balances */\n      0x03\n        /* \"contracts/token/ERC721/ERC721.sol\":2173:2189  _balances[owner] */\n      0x00\n        /* \"contracts/token/ERC721/ERC721.sol\":2183:2188  owner */\n      dup4\n        /* \"contracts/token/ERC721/ERC721.sol\":2173:2189  _balances[owner] */\n      0xffffffffffffffffffffffffffffffffffffffff\n      and\n      0xffffffffffffffffffffffffffffffffffffffff\n      and\n      dup2\n      mstore\n      0x20\n      add\n      swap1\n      dup2\n      mstore\n      0x20\n      add\n      0x00\n      keccak256\n      sload\n        /* \"contracts/token/ERC721/ERC721.sol\":2166:2189  return _balances[owner] */\n      swap1\n      pop\n        /* \"contracts/token/ERC721/ERC721.sol\":1990:2197  function balanceOf(address owner) public view virtual override returns (uint256) {... */\n      swap2\n      swap1\n      pop\n      jump\t// out\n        /* \"contracts/token/ERC721/ERC721.sol\":2718:2822  function symbol() public view virtual override returns (string memory) {... */\n    tag_58:\n        /* \"contracts/token/ERC721/ERC721.sol\":2774:2787  string memory */\n      0x60\n        /* \"contracts/token/ERC721/ERC721.sol\":2807:2814  _symbol */\n      0x01\n        /* \"contracts/token/ERC721/ERC721.sol\":2800:2814  return _symbol */\n      dup1\n      sload\n      tag_132\n      swap1\n      tag_87\n      jump\t// in\n    tag_132:\n      dup1\n      0x1f\n      add\n      0x20\n      dup1\n      swap2\n      div\n      mul\n      0x20\n      add\n      mload(0x40)\n      swap1\n      dup2\n      add\n      0x40\n      mstore\n      dup1\n      swap3\n      swap2\n      swap1\n      dup2\n      dup2\n      mstore\n      0x20\n      add\n      dup3\n      dup1\n      sload\n      tag_133\n      swap1\n      tag_87\n      jump\t// in\n    tag_133:\n      dup1\n      iszero\n      tag_134\n      jumpi\n      dup1\n      0x1f\n      lt\n      tag_135\n      jumpi\n      0x0100\n      dup1\n      dup4\n      sload\n      div\n      mul\n      dup4\n      mstore\n      swap2\n      0x20\n      add\n      swap2\n      jump(tag_134)\n    tag_135:\n      dup3\n      add\n      swap2\n      swap1\n      0x00\n      mstore\n      keccak256(0x00, 0x20)\n      swap1\n    tag_136:\n      dup2\n      sload\n      dup2\n      mstore\n      swap1\n      0x01\n      add\n      swap1\n      0x20\n      add\n      dup1\n      dup4\n      gt\n      tag_136\n      jumpi\n      dup3\n      swap1\n      sub\n      0x1f\n      and\n      dup3\n      add\n      swap2\n    tag_134:\n      pop\n      pop\n      pop\n      pop\n      pop\n      swap1\n      pop\n        /* \"contracts/token/ERC721/ERC721.sol\":2718:2822  function symbol() public view virtual override returns (string memory) {... */\n      swap1\n      jump\t// out\n        /* \"contracts/token/ERC721/ERC721.sol\":4003:4106  function mint(uint256 tokenId) public virtual override {... */\n    tag_62:\n        /* \"contracts/token/ERC721/ERC721.sol\":4069:4098  _safeMint(msg.sender,tokenId) */\n      tag_138\n        /* \"contracts/token/ERC721/ERC721.sol\":4079:4089  msg.sender */\n      caller\n        /* \"contracts/token/ERC721/ERC721.sol\":4090:4097  tokenId */\n      dup3\n        /* \"contracts/token/ERC721/ERC721.sol\":4069:4078  _safeMint */\n      tag_139\n        /* \"contracts/token/ERC721/ERC721.sol\":4069:4098  _safeMint(msg.sender,tokenId) */\n      jump\t// in\n    tag_138:\n        /* \"contracts/token/ERC721/ERC721.sol\":4003:4106  function mint(uint256 tokenId) public virtual override {... */\n      pop\n      jump\t// out\n        /* \"contracts/token/ERC721/ERC721.sol\":4415:4570  function setApprovalForAll(address operator, bool approved) public virtual override {... */\n    tag_66:\n        /* \"contracts/token/ERC721/ERC721.sol\":4510:4562  _setApprovalForAll(_msgSender(), operator, approved) */\n      tag_141\n        /* \"contracts/token/ERC721/ERC721.sol\":4529:4541  _msgSender() */\n      tag_142\n        /* \"contracts/token/ERC721/ERC721.sol\":4529:4539  _msgSender */\n      tag_101\n        /* \"contracts/token/ERC721/ERC721.sol\":4529:4541  _msgSender() */\n      jump\t// in\n    tag_142:\n        /* \"contracts/token/ERC721/ERC721.sol\":4543:4551  operator */\n      dup4\n        /* \"contracts/token/ERC721/ERC721.sol\":4553:4561  approved */\n      dup4\n        /* \"contracts/token/ERC721/ERC721.sol\":4510:4528  _setApprovalForAll */\n      tag_143\n        /* \"contracts/token/ERC721/ERC721.sol\":4510:4562  _setApprovalForAll(_msgSender(), operator, approved) */\n      jump\t// in\n    tag_141:\n        /* \"contracts/token/ERC721/ERC721.sol\":4415:4570  function setApprovalForAll(address operator, bool approved) public virtual override {... */\n      pop\n      pop\n      jump\t// out\n        /* \"contracts/token/ERC721/ERC721.sol\":5466:5745  function safeTransferFrom(address from, address to, uint256 tokenId, bytes memory data) public virtual override {... */\n    tag_70:\n        /* \"contracts/token/ERC721/ERC721.sol\":5597:5638  _isApprovedOrOwner(_msgSender(), tokenId) */\n      tag_145\n        /* \"contracts/token/ERC721/ERC721.sol\":5616:5628  _msgSender() */\n      tag_146\n        /* \"contracts/token/ERC721/ERC721.sol\":5616:5626  _msgSender */\n      tag_101\n        /* \"contracts/token/ERC721/ERC721.sol\":5616:5628  _msgSender() */\n      jump\t// in\n    tag_146:\n        /* \"contracts/token/ERC721/ERC721.sol\":5630:5637  tokenId */\n      dup4\n        /* \"contracts/token/ERC721/ERC721.sol\":5597:5615  _isApprovedOrOwner */\n      tag_113\n        /* \"contracts/token/ERC721/ERC721.sol\":5597:5638  _isApprovedOrOwner(_msgSender(), tokenId) */\n      jump\t// in\n    tag_145:\n        /* \"contracts/token/ERC721/ERC721.sol\":5589:5688  require(_isApprovedOrOwner(_msgSender(), tokenId), \"ERC721: caller is not token owner or approved\") */\n      tag_147\n      jumpi\n      mload(0x40)\n      0x08c379a000000000000000000000000000000000000000000000000000000000\n      dup2\n      mstore\n      0x04\n      add\n      tag_148\n      swap1\n      tag_116\n      jump\t// in\n    tag_148:\n      mload(0x40)\n      dup1\n      swap2\n      sub\n      swap1\n      revert\n    tag_147:\n        /* \"contracts/token/ERC721/ERC721.sol\":5699:5737  _safeTransfer(from, to, tokenId, data) */\n      tag_149\n        /* \"contracts/token/ERC721/ERC721.sol\":5713:5717  from */\n      dup5\n        /* \"contracts/token/ERC721/ERC721.sol\":5719:5721  to */\n      dup5\n        /* \"contracts/token/ERC721/ERC721.sol\":5723:5730  tokenId */\n      dup5\n        /* \"contracts/token/ERC721/ERC721.sol\":5732:5736  data */\n      dup5\n        /* \"contracts/token/ERC721/ERC721.sol\":5699:5712  _safeTransfer */\n      tag_150\n        /* \"contracts/token/ERC721/ERC721.sol\":5699:5737  _safeTransfer(from, to, tokenId, data) */\n      jump\t// in\n    tag_149:\n        /* \"contracts/token/ERC721/ERC721.sol\":5466:5745  function safeTransferFrom(address from, address to, uint256 tokenId, bytes memory data) public virtual override {... */\n      pop\n      pop\n      pop\n      pop\n      jump\t// out\n        /* \"contracts/token/ERC721/ERC721.sol\":2893:3174  function tokenURI(uint256 tokenId) public view virtual override returns (string memory) {... */\n    tag_73:\n        /* \"contracts/token/ERC721/ERC721.sol\":2966:2979  string memory */\n      0x60\n        /* \"contracts/token/ERC721/ERC721.sol\":2992:3015  _requireMinted(tokenId) */\n      tag_152\n        /* \"contracts/token/ERC721/ERC721.sol\":3007:3014  tokenId */\n      dup3\n        /* \"contracts/token/ERC721/ERC721.sol\":2992:3006  _requireMinted */\n      tag_94\n        /* \"contracts/token/ERC721/ERC721.sol\":2992:3015  _requireMinted(tokenId) */\n      jump\t// in\n    tag_152:\n        /* \"contracts/token/ERC721/ERC721.sol\":3028:3049  string memory baseURI */\n      0x00\n        /* \"contracts/token/ERC721/ERC721.sol\":3052:3062  _baseURI() */\n      tag_153\n        /* \"contracts/token/ERC721/ERC721.sol\":3052:3060  _baseURI */\n      tag_154\n        /* \"contracts/token/ERC721/ERC721.sol\":3052:3062  _baseURI() */\n      jump\t// in\n    tag_153:\n        /* \"contracts/token/ERC721/ERC721.sol\":3028:3062  string memory baseURI = _baseURI() */\n      swap1\n      pop\n        /* \"contracts/token/ERC721/ERC721.sol\":3104:3105  0 */\n      0x00\n        /* \"contracts/token/ERC721/ERC721.sol\":3086:3093  baseURI */\n      dup2\n        /* \"contracts/token/ERC721/ERC721.sol\":3080:3101  bytes(baseURI).length */\n      mload\n        /* \"contracts/token/ERC721/ERC721.sol\":3080:3105  bytes(baseURI).length > 0 */\n      gt\n        /* \"contracts/token/ERC721/ERC721.sol\":3080:3166  bytes(baseURI).length > 0 ? string(abi.encodePacked(baseURI, tokenId.toString())) : \"\" */\n      tag_155\n      jumpi\n      mload(0x40)\n      dup1\n      0x20\n      add\n      0x40\n      mstore\n      dup1\n      0x00\n      dup2\n      mstore\n      pop\n      jump(tag_156)\n    tag_155:\n        /* \"contracts/token/ERC721/ERC721.sol\":3132:3139  baseURI */\n      dup1\n        /* \"contracts/token/ERC721/ERC721.sol\":3141:3159  tokenId.toString() */\n      tag_157\n        /* \"contracts/token/ERC721/ERC721.sol\":3141:3148  tokenId */\n      dup5\n        /* \"contracts/token/ERC721/ERC721.sol\":3141:3157  tokenId.toString */\n      tag_158\n        /* \"contracts/token/ERC721/ERC721.sol\":3141:3159  tokenId.toString() */\n      jump\t// in\n    tag_157:\n        /* \"contracts/token/ERC721/ERC721.sol\":3115:3160  abi.encodePacked(baseURI, tokenId.toString()) */\n      add(0x20, mload(0x40))\n      tag_159\n      swap3\n      swap2\n      swap1\n      tag_160\n      jump\t// in\n    tag_159:\n      mload(0x40)\n      0x20\n      dup2\n      dup4\n      sub\n      sub\n      dup2\n      mstore\n      swap1\n      0x40\n      mstore\n        /* \"contracts/token/ERC721/ERC721.sol\":3080:3166  bytes(baseURI).length > 0 ? string(abi.encodePacked(baseURI, tokenId.toString())) : \"\" */\n    tag_156:\n        /* \"contracts/token/ERC721/ERC721.sol\":3073:3166  return bytes(baseURI).length > 0 ? string(abi.encodePacked(baseURI, tokenId.toString())) : \"\" */\n      swap2\n      pop\n      pop\n        /* \"contracts/token/ERC721/ERC721.sol\":2893:3174  function tokenURI(uint256 tokenId) public view virtual override returns (string memory) {... */\n      swap2\n      swap1\n      pop\n      jump\t// out\n        /* \"contracts/token/ERC721/ERC721.sol\":4641:4805  function isApprovedForAll(address owner, address operator) public view virtual override returns (bool) {... */\n    tag_78:\n        /* \"contracts/token/ERC721/ERC721.sol\":4738:4742  bool */\n      0x00\n        /* \"contracts/token/ERC721/ERC721.sol\":4762:4780  _operatorApprovals */\n      0x05\n        /* \"contracts/token/ERC721/ERC721.sol\":4762:4787  _operatorApprovals[owner] */\n      0x00\n        /* \"contracts/token/ERC721/ERC721.sol\":4781:4786  owner */\n      dup5\n        /* \"contracts/token/ERC721/ERC721.sol\":4762:4787  _operatorApprovals[owner] */\n      0xffffffffffffffffffffffffffffffffffffffff\n      and\n      0xffffffffffffffffffffffffffffffffffffffff\n      and\n      dup2\n      mstore\n      0x20\n      add\n      swap1\n      dup2\n      mstore\n      0x20\n      add\n      0x00\n      keccak256\n        /* \"contracts/token/ERC721/ERC721.sol\":4762:4797  _operatorApprovals[owner][operator] */\n      0x00\n        /* \"contracts/token/ERC721/ERC721.sol\":4788:4796  operator */\n      dup4\n        /* \"contracts/token/ERC721/ERC721.sol\":4762:4797  _operatorApprovals[owner][operator] */\n      0xffffffffffffffffffffffffffffffffffffffff\n      and\n      0xffffffffffffffffffffffffffffffffffffffff\n      and\n      dup2\n      mstore\n      0x20\n      add\n      swap1\n      dup2\n      mstore\n      0x20\n      add\n      0x00\n      keccak256\n      0x00\n      swap1\n      sload\n      swap1\n      0x0100\n      exp\n      swap1\n      div\n      0xff\n      and\n        /* \"contracts/token/ERC721/ERC721.sol\":4755:4797  return _operatorApprovals[owner][operator] */\n      swap1\n      pop\n        /* \"contracts/token/ERC721/ERC721.sol\":4641:4805  function isApprovedForAll(address owner, address operator) public view virtual override returns (bool) {... */\n      swap3\n      swap2\n      pop\n      pop\n      jump\t// out\n        /* \"contracts/utils/introspection/ERC165.sol\":854:1011  function supportsInterface(bytes4 interfaceId) public view virtual override returns (bool) {... */\n    tag_84:\n        /* \"contracts/utils/introspection/ERC165.sol\":939:943  bool */\n      0x00\n        /* \"contracts/utils/introspection/ERC165.sol\":978:1003  type(IERC165).interfaceId */\n      0x01ffc9a700000000000000000000000000000000000000000000000000000000\n        /* \"contracts/utils/introspection/ERC165.sol\":963:1003  interfaceId == type(IERC165).interfaceId */\n      not(0xffffffffffffffffffffffffffffffffffffffffffffffffffffffff)\n      and\n        /* \"contracts/utils/introspection/ERC165.sol\":963:974  interfaceId */\n      dup3\n        /* \"contracts/utils/introspection/ERC165.sol\":963:1003  interfaceId == type(IERC165).interfaceId */\n      not(0xffffffffffffffffffffffffffffffffffffffffffffffffffffffff)\n      and\n      eq\n        /* \"contracts/utils/introspection/ERC165.sol\":956:1003  return interfaceId == type(IERC165).interfaceId */\n      swap1\n      pop\n        /* \"contracts/utils/introspection/ERC165.sol\":854:1011  function supportsInterface(bytes4 interfaceId) public view virtual override returns (bool) {... */\n      swap2\n      swap1\n      pop\n      jump\t// out\n        /* \"contracts/token/ERC721/ERC721.sol\":13735:13870  function _requireMinted(uint256 tokenId) internal view virtual {... */\n    tag_94:\n        /* \"contracts/token/ERC721/ERC721.sol\":13817:13833  _exists(tokenId) */\n      tag_164\n        /* \"contracts/token/ERC721/ERC721.sol\":13825:13832  tokenId */\n      dup2\n        /* \"contracts/token/ERC721/ERC721.sol\":13817:13824  _exists */\n      tag_165\n        /* \"contracts/token/ERC721/ERC721.sol\":13817:13833  _exists(tokenId) */\n      jump\t// in\n    tag_164:\n        /* \"contracts/token/ERC721/ERC721.sol\":13809:13862  require(_exists(tokenId), \"ERC721: invalid token ID\") */\n      tag_166\n      jumpi\n      mload(0x40)\n      0x08c379a000000000000000000000000000000000000000000000000000000000\n      dup2\n      mstore\n      0x04\n      add\n      tag_167\n      swap1\n      tag_126\n      jump\t// in\n    tag_167:\n      mload(0x40)\n      dup1\n      swap2\n      sub\n      swap1\n      revert\n    tag_166:\n        /* \"contracts/token/ERC721/ERC721.sol\":13735:13870  function _requireMinted(uint256 tokenId) internal view virtual {... */\n      pop\n      jump\t// out\n        /* \"contracts/utils/Context.sol\":656:754  function _msgSender() internal view virtual returns (address) {... */\n    tag_101:\n        /* \"contracts/utils/Context.sol\":709:716  address */\n      0x00\n        /* \"contracts/utils/Context.sol\":736:746  msg.sender */\n      caller\n        /* \"contracts/utils/Context.sol\":729:746  return msg.sender */\n      swap1\n      pop\n        /* \"contracts/utils/Context.sol\":656:754  function _msgSender() internal view virtual returns (address) {... */\n      swap1\n      jump\t// out\n        /* \"contracts/token/ERC721/ERC721.sol\":13048:13222  function _approve(address to, uint256 tokenId) internal virtual {... */\n    tag_109:\n        /* \"contracts/token/ERC721/ERC721.sol\":13150:13152  to */\n      dup2\n        /* \"contracts/token/ERC721/ERC721.sol\":13123:13138  _tokenApprovals */\n      0x04\n        /* \"contracts/token/ERC721/ERC721.sol\":13123:13147  _tokenApprovals[tokenId] */\n      0x00\n        /* \"contracts/token/ERC721/ERC721.sol\":13139:13146  tokenId */\n      dup4\n        /* \"contracts/token/ERC721/ERC721.sol\":13123:13147  _tokenApprovals[tokenId] */\n      dup2\n      mstore\n      0x20\n      add\n      swap1\n      dup2\n      mstore\n      0x20\n      add\n      0x00\n      keccak256\n      0x00\n        /* \"contracts/token/ERC721/ERC721.sol\":13123:13152  _tokenApprovals[tokenId] = to */\n      0x0100\n      exp\n      dup2\n      sload\n      dup2\n      0xffffffffffffffffffffffffffffffffffffffff\n      mul\n      not\n      and\n      swap1\n      dup4\n      0xffffffffffffffffffffffffffffffffffffffff\n      and\n      mul\n      or\n      swap1\n      sstore\n      pop\n        /* \"contracts/token/ERC721/ERC721.sol\":13206:13213  tokenId */\n      dup1\n        /* \"contracts/token/ERC721/ERC721.sol\":13202:13204  to */\n      dup3\n        /* \"contracts/token/ERC721/ERC721.sol\":13168:13214  Approval(ERC721.ownerOf(tokenId), to, tokenId) */\n      0xffffffffffffffffffffffffffffffffffffffff\n      and\n        /* \"contracts/token/ERC721/ERC721.sol\":13177:13200  ERC721.ownerOf(tokenId) */\n      tag_170\n        /* \"contracts/token/ERC721/ERC721.sol\":13192:13199  tokenId */\n      dup4\n        /* \"contracts/token/ERC721/ERC721.sol\":13177:13191  ERC721.ownerOf */\n      tag_49\n        /* \"contracts/token/ERC721/ERC721.sol\":13177:13200  ERC721.ownerOf(tokenId) */\n      jump\t// in\n    tag_170:\n        /* \"contracts/token/ERC721/ERC721.sol\":13168:13214  Approval(ERC721.ownerOf(tokenId), to, tokenId) */\n      0xffffffffffffffffffffffffffffffffffffffff\n      and\n      0x8c5be1e5ebec7d5bd14f71427d1e84f3dd0314c0f7b2291e5b200ac8c7c3b925\n      mload(0x40)\n      mload(0x40)\n      dup1\n      swap2\n      sub\n      swap1\n      log4\n        /* \"contracts/token/ERC721/ERC721.sol\":13048:13222  function _approve(address to, uint256 tokenId) internal virtual {... */\n      pop\n      pop\n      jump\t// out\n        /* \"contracts/token/ERC721/ERC721.sol\":7735:7999  function _isApprovedOrOwner(address spender, uint256 tokenId) internal view virtual returns (bool) {... */\n    tag_113:\n        /* \"contracts/token/ERC721/ERC721.sol\":7828:7832  bool */\n      0x00\n        /* \"contracts/token/ERC721/ERC721.sol\":7845:7858  address owner */\n      dup1\n        /* \"contracts/token/ERC721/ERC721.sol\":7861:7884  ERC721.ownerOf(tokenId) */\n      tag_172\n        /* \"contracts/token/ERC721/ERC721.sol\":7876:7883  tokenId */\n      dup4\n        /* \"contracts/token/ERC721/ERC721.sol\":7861:7875  ERC721.ownerOf */\n      tag_49\n        /* \"contracts/token/ERC721/ERC721.sol\":7861:7884  ERC721.ownerOf(tokenId) */\n      jump\t// in\n    tag_172:\n        /* \"contracts/token/ERC721/ERC721.sol\":7845:7884  address owner = ERC721.ownerOf(tokenId) */\n      swap1\n      pop\n        /* \"contracts/token/ERC721/ERC721.sol\":7914:7919  owner */\n      dup1\n        /* \"contracts/token/ERC721/ERC721.sol\":7903:7919  spender == owner */\n      0xffffffffffffffffffffffffffffffffffffffff\n      and\n        /* \"contracts/token/ERC721/ERC721.sol\":7903:7910  spender */\n      dup5\n        /* \"contracts/token/ERC721/ERC721.sol\":7903:7919  spender == owner */\n      0xffffffffffffffffffffffffffffffffffffffff\n      and\n      eq\n        /* \"contracts/token/ERC721/ERC721.sol\":7903:7955  spender == owner || isApprovedForAll(owner, spender) */\n      dup1\n      tag_173\n      jumpi\n      pop\n        /* \"contracts/token/ERC721/ERC721.sol\":7923:7955  isApprovedForAll(owner, spender) */\n      tag_174\n        /* \"contracts/token/ERC721/ERC721.sol\":7940:7945  owner */\n      dup2\n        /* \"contracts/token/ERC721/ERC721.sol\":7947:7954  spender */\n      dup6\n        /* \"contracts/token/ERC721/ERC721.sol\":7923:7939  isApprovedForAll */\n      tag_78\n        /* \"contracts/token/ERC721/ERC721.sol\":7923:7955  isApprovedForAll(owner, spender) */\n      jump\t// in\n    tag_174:\n        /* \"contracts/token/ERC721/ERC721.sol\":7903:7955  spender == owner || isApprovedForAll(owner, spender) */\n    tag_173:\n        /* \"contracts/token/ERC721/ERC721.sol\":7903:7990  spender == owner || isApprovedForAll(owner, spender) || getApproved(tokenId) == spender */\n      dup1\n      tag_175\n      jumpi\n      pop\n        /* \"contracts/token/ERC721/ERC721.sol\":7983:7990  spender */\n      dup4\n        /* \"contracts/token/ERC721/ERC721.sol\":7959:7990  getApproved(tokenId) == spender */\n      0xffffffffffffffffffffffffffffffffffffffff\n      and\n        /* \"contracts/token/ERC721/ERC721.sol\":7959:7979  getApproved(tokenId) */\n      tag_176\n        /* \"contracts/token/ERC721/ERC721.sol\":7971:7978  tokenId */\n      dup5\n        /* \"contracts/token/ERC721/ERC721.sol\":7959:7970  getApproved */\n      tag_33\n        /* \"contracts/token/ERC721/ERC721.sol\":7959:7979  getApproved(tokenId) */\n      jump\t// in\n    tag_176:\n        /* \"contracts/token/ERC721/ERC721.sol\":7959:7990  getApproved(tokenId) == spender */\n      0xffffffffffffffffffffffffffffffffffffffff\n      and\n      eq\n        /* \"contracts/token/ERC721/ERC721.sol\":7903:7990  spender == owner || isApprovedForAll(owner, spender) || getApproved(tokenId) == spender */\n    tag_175:\n        /* \"contracts/token/ERC721/ERC721.sol\":7895:7991  return (spender == owner || isApprovedForAll(owner, spender) || getApproved(tokenId) == spender) */\n      swap2\n      pop\n      pop\n        /* \"contracts/token/ERC721/ERC721.sol\":7735:7999  function _isApprovedOrOwner(address spender, uint256 tokenId) internal view virtual returns (bool) {... */\n      swap3\n      swap2\n      pop\n      pop\n      jump\t// out\n        /* \"contracts/token/ERC721/ERC721.sol\":11700:12929  function _transfer(address from, address to, uint256 tokenId) internal virtual {... */\n    tag_118:\n        /* \"contracts/token/ERC721/ERC721.sol\":11825:11829  from */\n      dup3\n        /* \"contracts/token/ERC721/ERC721.sol\":11798:11829  ERC721.ownerOf(tokenId) == from */\n      0xffffffffffffffffffffffffffffffffffffffff\n      and\n        /* \"contracts/token/ERC721/ERC721.sol\":11798:11821  ERC721.ownerOf(tokenId) */\n      tag_178\n        /* \"contracts/token/ERC721/ERC721.sol\":11813:11820  tokenId */\n      dup3\n        /* \"contracts/token/ERC721/ERC721.sol\":11798:11812  ERC721.ownerOf */\n      tag_49\n        /* \"contracts/token/ERC721/ERC721.sol\":11798:11821  ERC721.ownerOf(tokenId) */\n      jump\t// in\n    tag_178:\n        /* \"contracts/token/ERC721/ERC721.sol\":11798:11829  ERC721.ownerOf(tokenId) == from */\n      0xffffffffffffffffffffffffffffffffffffffff\n      and\n      eq\n        /* \"contracts/token/ERC721/ERC721.sol\":11790:11871  require(ERC721.ownerOf(tokenId) == from, \"ERC721: transfer from incorrect owner\") */\n      tag_179\n      jumpi\n      mload(0x40)\n      0x08c379a000000000000000000000000000000000000000000000000000000000\n      dup2\n      mstore\n      0x04\n      add\n      tag_180\n      swap1\n      tag_181\n      jump\t// in\n    tag_180:\n      mload(0x40)\n      dup1\n      swap2\n      sub\n      swap1\n      revert\n    tag_179:\n        /* \"contracts/token/ERC721/ERC721.sol\":11904:11905  0 */\n      0x00\n        /* \"contracts/token/ERC721/ERC721.sol\":11890:11906  to != address(0) */\n      0xffffffffffffffffffffffffffffffffffffffff\n      and\n        /* \"contracts/token/ERC721/ERC721.sol\":11890:11892  to */\n      dup3\n        /* \"contracts/token/ERC721/ERC721.sol\":11890:11906  to != address(0) */\n      0xffffffffffffffffffffffffffffffffffffffff\n      and\n      sub\n        /* \"contracts/token/ERC721/ERC721.sol\":11882:11947  require(to != address(0), \"ERC721: transfer to the zero address\") */\n      tag_182\n      jumpi\n      mload(0x40)\n      0x08c379a000000000000000000000000000000000000000000000000000000000\n      dup2\n      mstore\n      0x04\n      add\n      tag_183\n      swap1\n      tag_184\n      jump\t// in\n    tag_183:\n      mload(0x40)\n      dup1\n      swap2\n      sub\n      swap1\n      revert\n    tag_182:\n        /* \"contracts/token/ERC721/ERC721.sol\":11960:12002  _beforeTokenTransfer(from, to, tokenId, 1) */\n      tag_185\n        /* \"contracts/token/ERC721/ERC721.sol\":11981:11985  from */\n      dup4\n        /* \"contracts/token/ERC721/ERC721.sol\":11987:11989  to */\n      dup4\n        /* \"contracts/token/ERC721/ERC721.sol\":11991:11998  tokenId */\n      dup4\n        /* \"contracts/token/ERC721/ERC721.sol\":12000:12001  1 */\n      0x01\n        /* \"contracts/token/ERC721/ERC721.sol\":11960:11980  _beforeTokenTransfer */\n      tag_186\n        /* \"contracts/token/ERC721/ERC721.sol\":11960:12002  _beforeTokenTransfer(from, to, tokenId, 1) */\n      jump\t// in\n    tag_185:\n        /* \"contracts/token/ERC721/ERC721.sol\":12132:12136  from */\n      dup3\n        /* \"contracts/token/ERC721/ERC721.sol\":12105:12136  ERC721.ownerOf(tokenId) == from */\n      0xffffffffffffffffffffffffffffffffffffffff\n      and\n        /* \"contracts/token/ERC721/ERC721.sol\":12105:12128  ERC721.ownerOf(tokenId) */\n      tag_187\n        /* \"contracts/token/ERC721/ERC721.sol\":12120:12127  tokenId */\n      dup3\n        /* \"contracts/token/ERC721/ERC721.sol\":12105:12119  ERC721.ownerOf */\n      tag_49\n        /* \"contracts/token/ERC721/ERC721.sol\":12105:12128  ERC721.ownerOf(tokenId) */\n      jump\t// in\n    tag_187:\n        /* \"contracts/token/ERC721/ERC721.sol\":12105:12136  ERC721.ownerOf(tokenId) == from */\n      0xffffffffffffffffffffffffffffffffffffffff\n      and\n      eq\n        /* \"contracts/token/ERC721/ERC721.sol\":12097:12178  require(ERC721.ownerOf(tokenId) == from, \"ERC721: transfer from incorrect owner\") */\n      tag_188\n      jumpi\n      mload(0x40)\n      0x08c379a000000000000000000000000000000000000000000000000000000000\n      dup2\n      mstore\n      0x04\n      add\n      tag_189\n      swap1\n      tag_181\n      jump\t// in\n    tag_189:\n      mload(0x40)\n      dup1\n      swap2\n      sub\n      swap1\n      revert\n    tag_188:\n        /* \"contracts/token/ERC721/ERC721.sol\":12250:12265  _tokenApprovals */\n      0x04\n        /* \"contracts/token/ERC721/ERC721.sol\":12250:12274  _tokenApprovals[tokenId] */\n      0x00\n        /* \"contracts/token/ERC721/ERC721.sol\":12266:12273  tokenId */\n      dup3\n        /* \"contracts/token/ERC721/ERC721.sol\":12250:12274  _tokenApprovals[tokenId] */\n      dup2\n      mstore\n      0x20\n      add\n      swap1\n      dup2\n      mstore\n      0x20\n      add\n      0x00\n      keccak256\n      0x00\n        /* \"contracts/token/ERC721/ERC721.sol\":12243:12274  delete _tokenApprovals[tokenId] */\n      0x0100\n      exp\n      dup2\n      sload\n      swap1\n      0xffffffffffffffffffffffffffffffffffffffff\n      mul\n      not\n      and\n      swap1\n      sstore\n        /* \"contracts/token/ERC721/ERC721.sol\":12745:12746  1 */\n      0x01\n        /* \"contracts/token/ERC721/ERC721.sol\":12726:12735  _balances */\n      0x03\n        /* \"contracts/token/ERC721/ERC721.sol\":12726:12741  _balances[from] */\n      0x00\n        /* \"contracts/token/ERC721/ERC721.sol\":12736:12740  from */\n      dup6\n        /* \"contracts/token/ERC721/ERC721.sol\":12726:12741  _balances[from] */\n      0xffffffffffffffffffffffffffffffffffffffff\n      and\n      0xffffffffffffffffffffffffffffffffffffffff\n      and\n      dup2\n      mstore\n      0x20\n      add\n      swap1\n      dup2\n      mstore\n      0x20\n      add\n      0x00\n      keccak256\n      0x00\n        /* \"contracts/token/ERC721/ERC721.sol\":12726:12746  _balances[from] -= 1 */\n      dup3\n      dup3\n      sload\n      sub\n      swap3\n      pop\n      pop\n      dup2\n      swap1\n      sstore\n      pop\n        /* \"contracts/token/ERC721/ERC721.sol\":12778:12779  1 */\n      0x01\n        /* \"contracts/token/ERC721/ERC721.sol\":12761:12770  _balances */\n      0x03\n        /* \"contracts/token/ERC721/ERC721.sol\":12761:12774  _balances[to] */\n      0x00\n        /* \"contracts/token/ERC721/ERC721.sol\":12771:12773  to */\n      dup5\n        /* \"contracts/token/ERC721/ERC721.sol\":12761:12774  _balances[to] */\n      0xffffffffffffffffffffffffffffffffffffffff\n      and\n      0xffffffffffffffffffffffffffffffffffffffff\n      and\n      dup2\n      mstore\n      0x20\n      add\n      swap1\n      dup2\n      mstore\n      0x20\n      add\n      0x00\n      keccak256\n      0x00\n        /* \"contracts/token/ERC721/ERC721.sol\":12761:12779  _balances[to] += 1 */\n      dup3\n      dup3\n      sload\n      add\n      swap3\n      pop\n      pop\n      dup2\n      swap1\n      sstore\n      pop\n        /* \"contracts/token/ERC721/ERC721.sol\":12820:12822  to */\n      dup2\n        /* \"contracts/token/ERC721/ERC721.sol\":12801:12808  _owners */\n      0x02\n        /* \"contracts/token/ERC721/ERC721.sol\":12801:12817  _owners[tokenId] */\n      0x00\n        /* \"contracts/token/ERC721/ERC721.sol\":12809:12816  tokenId */\n      dup4\n        /* \"contracts/token/ERC721/ERC721.sol\":12801:12817  _owners[tokenId] */\n      dup2\n      mstore\n      0x20\n      add\n      swap1\n      dup2\n      mstore\n      0x20\n      add\n      0x00\n      keccak256\n      0x00\n        /* \"contracts/token/ERC721/ERC721.sol\":12801:12822  _owners[tokenId] = to */\n      0x0100\n      exp\n      dup2\n      sload\n      dup2\n      0xffffffffffffffffffffffffffffffffffffffff\n      mul\n      not\n      and\n      swap1\n      dup4\n      0xffffffffffffffffffffffffffffffffffffffff\n      and\n      mul\n      or\n      swap1\n      sstore\n      pop\n        /* \"contracts/token/ERC721/ERC721.sol\":12859:12866  tokenId */\n      dup1\n        /* \"contracts/token/ERC721/ERC721.sol\":12855:12857  to */\n      dup3\n        /* \"contracts/token/ERC721/ERC721.sol\":12840:12867  Transfer(from, to, tokenId) */\n      0xffffffffffffffffffffffffffffffffffffffff\n      and\n        /* \"contracts/token/ERC721/ERC721.sol\":12849:12853  from */\n      dup5\n        /* \"contracts/token/ERC721/ERC721.sol\":12840:12867  Transfer(from, to, tokenId) */\n      0xffffffffffffffffffffffffffffffffffffffff\n      and\n      0xddf252ad1be2c89b69c2b068fc378daa952ba7f163c4a11628f55a4df523b3ef\n      mload(0x40)\n      mload(0x40)\n      dup1\n      swap2\n      sub\n      swap1\n      log4\n        /* \"contracts/token/ERC721/ERC721.sol\":12880:12921  _afterTokenTransfer(from, to, tokenId, 1) */\n      tag_190\n        /* \"contracts/token/ERC721/ERC721.sol\":12900:12904  from */\n      dup4\n        /* \"contracts/token/ERC721/ERC721.sol\":12906:12908  to */\n      dup4\n        /* \"contracts/token/ERC721/ERC721.sol\":12910:12917  tokenId */\n      dup4\n        /* \"contracts/token/ERC721/ERC721.sol\":12919:12920  1 */\n      0x01\n        /* \"contracts/token/ERC721/ERC721.sol\":12880:12899  _afterTokenTransfer */\n      tag_191\n        /* \"contracts/token/ERC721/ERC721.sol\":12880:12921  _afterTokenTransfer(from, to, tokenId, 1) */\n      jump\t// in\n    tag_190:\n        /* \"contracts/token/ERC721/ERC721.sol\":11700:12929  function _transfer(address from, address to, uint256 tokenId) internal virtual {... */\n      pop\n      pop\n      pop\n      jump\t// out\n        /* \"contracts/token/ERC721/ERC721.sol\":7010:7127  function _ownerOf(uint256 tokenId) internal view virtual returns (address) {... */\n    tag_123:\n        /* \"contracts/token/ERC721/ERC721.sol\":7076:7083  address */\n      0x00\n        /* \"contracts/token/ERC721/ERC721.sol\":7103:7110  _owners */\n      0x02\n        /* \"contracts/token/ERC721/ERC721.sol\":7103:7119  _owners[tokenId] */\n      0x00\n        /* \"contracts/token/ERC721/ERC721.sol\":7111:7118  tokenId */\n      dup4\n        /* \"contracts/token/ERC721/ERC721.sol\":7103:7119  _owners[tokenId] */\n      dup2\n      mstore\n      0x20\n      add\n      swap1\n      dup2\n      mstore\n      0x20\n      add\n      0x00\n      keccak256\n      0x00\n      swap1\n      sload\n      swap1\n      0x0100\n      exp\n      swap1\n      div\n      0xffffffffffffffffffffffffffffffffffffffff\n      and\n        /* \"contracts/token/ERC721/ERC721.sol\":7096:7119  return _owners[tokenId] */\n      swap1\n      pop\n        /* \"contracts/token/ERC721/ERC721.sol\":7010:7127  function _ownerOf(uint256 tokenId) internal view virtual returns (address) {... */\n      swap2\n      swap1\n      pop\n      jump\t// out\n        /* \"contracts/token/ERC721/ERC721.sol\":8341:8451  function _safeMint(address to, uint256 tokenId) internal virtual {... */\n    tag_139:\n        /* \"contracts/token/ERC721/ERC721.sol\":8417:8443  _safeMint(to, tokenId, \"\") */\n      tag_194\n        /* \"contracts/token/ERC721/ERC721.sol\":8427:8429  to */\n      dup3\n        /* \"contracts/token/ERC721/ERC721.sol\":8431:8438  tokenId */\n      dup3\n        /* \"contracts/token/ERC721/ERC721.sol\":8417:8443  _safeMint(to, tokenId, \"\") */\n      mload(0x40)\n      dup1\n      0x20\n      add\n      0x40\n      mstore\n      dup1\n      0x00\n      dup2\n      mstore\n      pop\n        /* \"contracts/token/ERC721/ERC721.sol\":8417:8426  _safeMint */\n      tag_195\n        /* \"contracts/token/ERC721/ERC721.sol\":8417:8443  _safeMint(to, tokenId, \"\") */\n      jump\t// in\n    tag_194:\n        /* \"contracts/token/ERC721/ERC721.sol\":8341:8451  function _safeMint(address to, uint256 tokenId) internal virtual {... */\n      pop\n      pop\n      jump\t// out\n        /* \"contracts/token/ERC721/ERC721.sol\":13365:13646  function _setApprovalForAll(address owner, address operator, bool approved) internal virtual {... */\n    tag_143:\n        /* \"contracts/token/ERC721/ERC721.sol\":13486:13494  operator */\n      dup2\n        /* \"contracts/token/ERC721/ERC721.sol\":13477:13494  owner != operator */\n      0xffffffffffffffffffffffffffffffffffffffff\n      and\n        /* \"contracts/token/ERC721/ERC721.sol\":13477:13482  owner */\n      dup4\n        /* \"contracts/token/ERC721/ERC721.sol\":13477:13494  owner != operator */\n      0xffffffffffffffffffffffffffffffffffffffff\n      and\n      sub\n        /* \"contracts/token/ERC721/ERC721.sol\":13469:13524  require(owner != operator, \"ERC721: approve to caller\") */\n      tag_197\n      jumpi\n      mload(0x40)\n      0x08c379a000000000000000000000000000000000000000000000000000000000\n      dup2\n      mstore\n      0x04\n      add\n      tag_198\n      swap1\n      tag_199\n      jump\t// in\n    tag_198:\n      mload(0x40)\n      dup1\n      swap2\n      sub\n      swap1\n      revert\n    tag_197:\n        /* \"contracts/token/ERC721/ERC721.sol\":13573:13581  approved */\n      dup1\n        /* \"contracts/token/ERC721/ERC721.sol\":13535:13553  _operatorApprovals */\n      0x05\n        /* \"contracts/token/ERC721/ERC721.sol\":13535:13560  _operatorApprovals[owner] */\n      0x00\n        /* \"contracts/token/ERC721/ERC721.sol\":13554:13559  owner */\n      dup6\n        /* \"contracts/token/ERC721/ERC721.sol\":13535:13560  _operatorApprovals[owner] */\n      0xffffffffffffffffffffffffffffffffffffffff\n      and\n      0xffffffffffffffffffffffffffffffffffffffff\n      and\n      dup2\n      mstore\n      0x20\n      add\n      swap1\n      dup2\n      mstore\n      0x20\n      add\n      0x00\n      keccak256\n        /* \"contracts/token/ERC721/ERC721.sol\":13535:13570  _operatorApprovals[owner][operator] */\n      0x00\n        /* \"contracts/token/ERC721/ERC721.sol\":13561:13569  operator */\n      dup5\n        /* \"contracts/token/ERC721/ERC721.sol\":13535:13570  _operatorApprovals[owner][operator] */\n      0xffffffffffffffffffffffffffffffffffffffff\n      and\n      0xffffffffffffffffffffffffffffffffffffffff\n      and\n      dup2\n      mstore\n      0x20\n      add\n      swap1\n      dup2\n      mstore\n      0x20\n      add\n      0x00\n      keccak256\n      0x00\n        /* \"contracts/token/ERC721/ERC721.sol\":13535:13581  _operatorApprovals[owner][operator] = approved */\n      0x0100\n      exp\n      dup2\n      sload\n      dup2\n      0xff\n      mul\n      not\n      and\n      swap1\n      dup4\n      iszero\n      iszero\n      mul\n      or\n      swap1\n      sstore\n      pop\n        /* \"contracts/token/ERC721/ERC721.sol\":13619:13627  operator */\n      dup2\n        /* \"contracts/token/ERC721/ERC721.sol\":13597:13638  ApprovalForAll(owner, operator, approved) */\n      0xffffffffffffffffffffffffffffffffffffffff\n      and\n        /* \"contracts/token/ERC721/ERC721.sol\":13612:13617  owner */\n      dup4\n        /* \"contracts/token/ERC721/ERC721.sol\":13597:13638  ApprovalForAll(owner, operator, approved) */\n      0xffffffffffffffffffffffffffffffffffffffff\n      and\n      0x17307eab39ab6107e8899845ad3d59bd9653f200f220920489ca2b5937696c31\n        /* \"contracts/token/ERC721/ERC721.sol\":13629:13637  approved */\n      dup4\n        /* \"contracts/token/ERC721/ERC721.sol\":13597:13638  ApprovalForAll(owner, operator, approved) */\n      mload(0x40)\n      tag_200\n      swap2\n      swap1\n      tag_25\n      jump\t// in\n    tag_200:\n      mload(0x40)\n      dup1\n      swap2\n      sub\n      swap1\n      log3\n        /* \"contracts/token/ERC721/ERC721.sol\":13365:13646  function _setApprovalForAll(address owner, address operator, bool approved) internal virtual {... */\n      pop\n      pop\n      pop\n      jump\t// out\n        /* \"contracts/token/ERC721/ERC721.sol\":6626:6896  function _safeTransfer(address from, address to, uint256 tokenId, bytes memory data) internal virtual {... */\n    tag_150:\n        /* \"contracts/token/ERC721/ERC721.sol\":6739:6767  _transfer(from, to, tokenId) */\n      tag_202\n        /* \"contracts/token/ERC721/ERC721.sol\":6749:6753  from */\n      dup5\n        /* \"contracts/token/ERC721/ERC721.sol\":6755:6757  to */\n      dup5\n        /* \"contracts/token/ERC721/ERC721.sol\":6759:6766  tokenId */\n      dup5\n        /* \"contracts/token/ERC721/ERC721.sol\":6739:6748  _transfer */\n      tag_118\n        /* \"contracts/token/ERC721/ERC721.sol\":6739:6767  _transfer(from, to, tokenId) */\n      jump\t// in\n    tag_202:\n        /* \"contracts/token/ERC721/ERC721.sol\":6786:6833  _checkOnERC721Received(from, to, tokenId, data) */\n      tag_203\n        /* \"contracts/token/ERC721/ERC721.sol\":6809:6813  from */\n      dup5\n        /* \"contracts/token/ERC721/ERC721.sol\":6815:6817  to */\n      dup5\n        /* \"contracts/token/ERC721/ERC721.sol\":6819:6826  tokenId */\n      dup5\n        /* \"contracts/token/ERC721/ERC721.sol\":6828:6832  data */\n      dup5\n        /* \"contracts/token/ERC721/ERC721.sol\":6786:6808  _checkOnERC721Received */\n      tag_204\n        /* \"contracts/token/ERC721/ERC721.sol\":6786:6833  _checkOnERC721Received(from, to, tokenId, data) */\n      jump\t// in\n    tag_203:\n        /* \"contracts/token/ERC721/ERC721.sol\":6778:6888  require(_checkOnERC721Received(from, to, tokenId, data), \"ERC721: transfer to non ERC721Receiver implementer\") */\n      tag_205\n      jumpi\n      mload(0x40)\n      0x08c379a000000000000000000000000000000000000000000000000000000000\n      dup2\n      mstore\n      0x04\n      add\n      tag_206\n      swap1\n      tag_207\n      jump\t// in\n    tag_206:\n      mload(0x40)\n      dup1\n      swap2\n      sub\n      swap1\n      revert\n    tag_205:\n        /* \"contracts/token/ERC721/ERC721.sol\":6626:6896  function _safeTransfer(address from, address to, uint256 tokenId, bytes memory data) internal virtual {... */\n      pop\n      pop\n      pop\n      pop\n      jump\t// out\n        /* \"contracts/token/ERC721/ERC721.sol\":3423:3517  function _baseURI() internal view virtual returns (string memory) {... */\n    tag_154:\n        /* \"contracts/token/ERC721/ERC721.sol\":3474:3487  string memory */\n      0x60\n        /* \"contracts/token/ERC721/ERC721.sol\":3500:3509  return \"\" */\n      mload(0x40)\n      dup1\n      0x20\n      add\n      0x40\n      mstore\n      dup1\n      0x00\n      dup2\n      mstore\n      pop\n      swap1\n      pop\n        /* \"contracts/token/ERC721/ERC721.sol\":3423:3517  function _baseURI() internal view virtual returns (string memory) {... */\n      swap1\n      jump\t// out\n        /* \"contracts/utils/Strings.sol\":465:1181  function toString(uint256 value) internal pure returns (string memory) {... */\n    tag_158:\n        /* \"contracts/utils/Strings.sol\":521:534  string memory */\n      0x60\n        /* \"contracts/utils/Strings.sol\":572:586  uint256 length */\n      0x00\n        /* \"contracts/utils/Strings.sol\":609:610  1 */\n      0x01\n        /* \"contracts/utils/Strings.sol\":589:606  Math.log10(value) */\n      tag_210\n        /* \"contracts/utils/Strings.sol\":600:605  value */\n      dup5\n        /* \"contracts/utils/Strings.sol\":589:599  Math.log10 */\n      tag_211\n        /* \"contracts/utils/Strings.sol\":589:606  Math.log10(value) */\n      jump\t// in\n    tag_210:\n        /* \"contracts/utils/Strings.sol\":589:610  Math.log10(value) + 1 */\n      add\n        /* \"contracts/utils/Strings.sol\":572:610  uint256 length = Math.log10(value) + 1 */\n      swap1\n      pop\n        /* \"contracts/utils/Strings.sol\":625:645  string memory buffer */\n      0x00\n        /* \"contracts/utils/Strings.sol\":659:665  length */\n      dup2\n        /* \"contracts/utils/Strings.sol\":648:666  new string(length) */\n      0xffffffffffffffff\n      dup2\n      gt\n      iszero\n      tag_212\n      jumpi\n      tag_213\n      tag_214\n      jump\t// in\n    tag_213:\n    tag_212:\n      mload(0x40)\n      swap1\n      dup1\n      dup3\n      mstore\n      dup1\n      0x1f\n      add\n      not(0x1f)\n      and\n      0x20\n      add\n      dup3\n      add\n      0x40\n      mstore\n      dup1\n      iszero\n      tag_215\n      jumpi\n      dup2\n      0x20\n      add\n      0x01\n      dup3\n      mul\n      dup1\n      calldatasize\n      dup4\n      calldatacopy\n      dup1\n      dup3\n      add\n      swap2\n      pop\n      pop\n      swap1\n      pop\n    tag_215:\n      pop\n        /* \"contracts/utils/Strings.sol\":625:666  string memory buffer = new string(length) */\n      swap1\n      pop\n        /* \"contracts/utils/Strings.sol\":681:692  uint256 ptr */\n      0x00\n        /* \"contracts/utils/Strings.sol\":810:816  length */\n      dup3\n        /* \"contracts/utils/Strings.sol\":806:808  32 */\n      0x20\n        /* \"contracts/utils/Strings.sol\":802:817  add(32, length) */\n      add\n        /* \"contracts/utils/Strings.sol\":794:800  buffer */\n      dup3\n        /* \"contracts/utils/Strings.sol\":790:818  add(buffer, add(32, length)) */\n      add\n        /* \"contracts/utils/Strings.sol\":783:818  ptr := add(buffer, add(32, length)) */\n      swap1\n      pop\n        /* \"contracts/utils/Strings.sol\":847:1135  while (true) {... */\n    tag_216:\n        /* \"contracts/utils/Strings.sol\":854:858  true */\n      0x01\n        /* \"contracts/utils/Strings.sol\":847:1135  while (true) {... */\n      iszero\n      tag_217\n      jumpi\n        /* \"contracts/utils/Strings.sol\":879:884  ptr-- */\n      dup1\n      dup1\n      0x01\n      swap1\n      sub\n      swap2\n      pop\n      pop\n        /* \"contracts/utils/Strings.sol\":1021:1029  _SYMBOLS */\n      0x3031323334353637383961626364656600000000000000000000000000000000\n        /* \"contracts/utils/Strings.sol\":1016:1018  10 */\n      0x0a\n        /* \"contracts/utils/Strings.sol\":1009:1014  value */\n      dup7\n        /* \"contracts/utils/Strings.sol\":1005:1019  mod(value, 10) */\n      mod\n        /* \"contracts/utils/Strings.sol\":1000:1030  byte(mod(value, 10), _SYMBOLS) */\n      byte\n        /* \"contracts/utils/Strings.sol\":995:998  ptr */\n      dup2\n        /* \"contracts/utils/Strings.sol\":987:1031  mstore8(ptr, byte(mod(value, 10), _SYMBOLS)) */\n      mstore8\n        /* \"contracts/utils/Strings.sol\":1077:1079  10 */\n      0x0a\n        /* \"contracts/utils/Strings.sol\":1068:1079  value /= 10 */\n      dup6\n      dup2\n      tag_218\n      jumpi\n      tag_219\n      tag_220\n      jump\t// in\n    tag_219:\n    tag_218:\n      div\n      swap5\n      pop\n        /* \"contracts/utils/Strings.sol\":1111:1112  0 */\n      0x00\n        /* \"contracts/utils/Strings.sol\":1102:1107  value */\n      dup6\n        /* \"contracts/utils/Strings.sol\":1102:1112  value == 0 */\n      sub\n        /* \"contracts/utils/Strings.sol\":847:1135  while (true) {... */\n      tag_216\n        /* \"contracts/utils/Strings.sol\":1098:1119  if (value == 0) break */\n      jumpi\n        /* \"contracts/utils/Strings.sol\":847:1135  while (true) {... */\n    tag_217:\n        /* \"contracts/utils/Strings.sol\":1156:1162  buffer */\n      dup2\n        /* \"contracts/utils/Strings.sol\":1149:1162  return buffer */\n      swap4\n      pop\n      pop\n      pop\n      pop\n        /* \"contracts/utils/Strings.sol\":465:1181  function toString(uint256 value) internal pure returns (string memory) {... */\n      swap2\n      swap1\n      pop\n      jump\t// out\n        /* \"contracts/token/ERC721/ERC721.sol\":7440:7568  function _exists(uint256 tokenId) internal view virtual returns (bool) {... */\n    tag_165:\n        /* \"contracts/token/ERC721/ERC721.sol\":7505:7509  bool */\n      0x00\n        /* \"contracts/token/ERC721/ERC721.sol\":7558:7559  0 */\n      dup1\n        /* \"contracts/token/ERC721/ERC721.sol\":7529:7560  _ownerOf(tokenId) != address(0) */\n      0xffffffffffffffffffffffffffffffffffffffff\n      and\n        /* \"contracts/token/ERC721/ERC721.sol\":7529:7546  _ownerOf(tokenId) */\n      tag_223\n        /* \"contracts/token/ERC721/ERC721.sol\":7538:7545  tokenId */\n      dup4\n        /* \"contracts/token/ERC721/ERC721.sol\":7529:7537  _ownerOf */\n      tag_123\n        /* \"contracts/token/ERC721/ERC721.sol\":7529:7546  _ownerOf(tokenId) */\n      jump\t// in\n    tag_223:\n        /* \"contracts/token/ERC721/ERC721.sol\":7529:7560  _ownerOf(tokenId) != address(0) */\n      0xffffffffffffffffffffffffffffffffffffffff\n      and\n      eq\n      iszero\n        /* \"contracts/token/ERC721/ERC721.sol\":7522:7560  return _ownerOf(tokenId) != address(0) */\n      swap1\n      pop\n        /* \"contracts/token/ERC721/ERC721.sol\":7440:7568  function _exists(uint256 tokenId) internal view virtual returns (bool) {... */\n      swap2\n      swap1\n      pop\n      jump\t// out\n        /* \"contracts/token/ERC721/ERC721.sol\":16019:16135  function _beforeTokenTransfer(address from, address to, uint256 firstTokenId, uint256 batchSize) internal virtual {} */\n    tag_186:\n      pop\n      pop\n      pop\n      pop\n      jump\t// out\n        /* \"contracts/token/ERC721/ERC721.sol\":16857:16972  function _afterTokenTransfer(address from, address to, uint256 firstTokenId, uint256 batchSize) internal virtual {} */\n    tag_191:\n      pop\n      pop\n      pop\n      pop\n      jump\t// out\n        /* \"contracts/token/ERC721/ERC721.sol\":8678:8963  function _safeMint(address to, uint256 tokenId, bytes memory data) internal virtual {... */\n    tag_195:\n        /* \"contracts/token/ERC721/ERC721.sol\":8773:8791  _mint(to, tokenId) */\n      tag_227\n        /* \"contracts/token/ERC721/ERC721.sol\":8779:8781  to */\n      dup4\n        /* \"contracts/token/ERC721/ERC721.sol\":8783:8790  tokenId */\n      dup4\n        /* \"contracts/token/ERC721/ERC721.sol\":8773:8778  _mint */\n      tag_228\n        /* \"contracts/token/ERC721/ERC721.sol\":8773:8791  _mint(to, tokenId) */\n      jump\t// in\n    tag_227:\n        /* \"contracts/token/ERC721/ERC721.sol\":8824:8877  _checkOnERC721Received(address(0), to, tokenId, data) */\n      tag_229\n        /* \"contracts/token/ERC721/ERC721.sol\":8855:8856  0 */\n      0x00\n        /* \"contracts/token/ERC721/ERC721.sol\":8859:8861  to */\n      dup5\n        /* \"contracts/token/ERC721/ERC721.sol\":8863:8870  tokenId */\n      dup5\n        /* \"contracts/token/ERC721/ERC721.sol\":8872:8876  data */\n      dup5\n        /* \"contracts/token/ERC721/ERC721.sol\":8824:8846  _checkOnERC721Received */\n      tag_204\n        /* \"contracts/token/ERC721/ERC721.sol\":8824:8877  _checkOnERC721Received(address(0), to, tokenId, data) */\n      jump\t// in\n    tag_229:\n        /* \"contracts/token/ERC721/ERC721.sol\":8802:8955  require(... */\n      tag_230\n      jumpi\n      mload(0x40)\n      0x08c379a000000000000000000000000000000000000000000000000000000000\n      dup2\n      mstore\n      0x04\n      add\n      tag_231\n      swap1\n      tag_207\n      jump\t// in\n    tag_231:\n      mload(0x40)\n      dup1\n      swap2\n      sub\n      swap1\n      revert\n    tag_230:\n        /* \"contracts/token/ERC721/ERC721.sol\":8678:8963  function _safeMint(address to, uint256 tokenId, bytes memory data) internal virtual {... */\n      pop\n      pop\n      pop\n      jump\t// out\n        /* \"contracts/token/ERC721/ERC721.sol\":14434:15287  function _checkOnERC721Received(... */\n    tag_204:\n        /* \"contracts/token/ERC721/ERC721.sol\":14588:14592  bool */\n      0x00\n        /* \"contracts/token/ERC721/ERC721.sol\":14609:14624  to.isContract() */\n      tag_233\n        /* \"contracts/token/ERC721/ERC721.sol\":14609:14611  to */\n      dup5\n        /* \"contracts/token/ERC721/ERC721.sol\":14609:14622  to.isContract */\n      0xffffffffffffffffffffffffffffffffffffffff\n      and\n      tag_234\n        /* \"contracts/token/ERC721/ERC721.sol\":14609:14624  to.isContract() */\n      jump\t// in\n    tag_233:\n        /* \"contracts/token/ERC721/ERC721.sol\":14605:15280  if (to.isContract()) {... */\n      iszero\n      tag_235\n      jumpi\n        /* \"contracts/token/ERC721/ERC721.sol\":14661:14663  to */\n      dup4\n        /* \"contracts/token/ERC721/ERC721.sol\":14645:14681  IERC721Receiver(to).onERC721Received */\n      0xffffffffffffffffffffffffffffffffffffffff\n      and\n      0x150b7a02\n        /* \"contracts/token/ERC721/ERC721.sol\":14682:14694  _msgSender() */\n      tag_236\n        /* \"contracts/token/ERC721/ERC721.sol\":14682:14692  _msgSender */\n      tag_101\n        /* \"contracts/token/ERC721/ERC721.sol\":14682:14694  _msgSender() */\n      jump\t// in\n    tag_236:\n        /* \"contracts/token/ERC721/ERC721.sol\":14696:14700  from */\n      dup8\n        /* \"contracts/token/ERC721/ERC721.sol\":14702:14709  tokenId */\n      dup7\n        /* \"contracts/token/ERC721/ERC721.sol\":14711:14715  data */\n      dup7\n        /* \"contracts/token/ERC721/ERC721.sol\":14645:14716  IERC721Receiver(to).onERC721Received(_msgSender(), from, tokenId, data) */\n      mload(0x40)\n      dup6\n      0xffffffff\n      and\n      0xe0\n      shl\n      dup2\n      mstore\n      0x04\n      add\n      tag_237\n      swap5\n      swap4\n      swap3\n      swap2\n      swap1\n      tag_238\n      jump\t// in\n    tag_237:\n      0x20\n      mload(0x40)\n      dup1\n      dup4\n      sub\n      dup2\n      0x00\n      dup8\n      gas\n      call\n      swap3\n      pop\n      pop\n      pop\n      dup1\n      iszero\n      tag_239\n      jumpi\n      pop\n      mload(0x40)\n      returndatasize\n      not(0x1f)\n      0x1f\n      dup3\n      add\n      and\n      dup3\n      add\n      dup1\n      0x40\n      mstore\n      pop\n      dup2\n      add\n      swap1\n      tag_240\n      swap2\n      swap1\n      tag_241\n      jump\t// in\n    tag_240:\n      0x01\n    tag_239:\n        /* \"contracts/token/ERC721/ERC721.sol\":14641:15225  try IERC721Receiver(to).onERC721Received(_msgSender(), from, tokenId, data) returns (bytes4 retval) {... */\n      tag_242\n      jumpi\n      returndatasize\n      dup1\n      0x00\n      dup2\n      eq\n      tag_247\n      jumpi\n      mload(0x40)\n      swap2\n      pop\n      and(add(returndatasize, 0x3f), not(0x1f))\n      dup3\n      add\n      0x40\n      mstore\n      returndatasize\n      dup3\n      mstore\n      returndatasize\n      0x00\n      0x20\n      dup5\n      add\n      returndatacopy\n      jump(tag_246)\n    tag_247:\n      0x60\n      swap2\n      pop\n    tag_246:\n      pop\n        /* \"contracts/token/ERC721/ERC721.sol\":14903:14904  0 */\n      0x00\n        /* \"contracts/token/ERC721/ERC721.sol\":14886:14892  reason */\n      dup2\n        /* \"contracts/token/ERC721/ERC721.sol\":14886:14899  reason.length */\n      mload\n        /* \"contracts/token/ERC721/ERC721.sol\":14886:14904  reason.length == 0 */\n      sub\n        /* \"contracts/token/ERC721/ERC721.sol\":14882:15210  if (reason.length == 0) {... */\n      tag_248\n      jumpi\n        /* \"contracts/token/ERC721/ERC721.sol\":14929:14989  revert(\"ERC721: transfer to non ERC721Receiver implementer\") */\n      mload(0x40)\n      0x08c379a000000000000000000000000000000000000000000000000000000000\n      dup2\n      mstore\n      0x04\n      add\n      tag_249\n      swap1\n      tag_207\n      jump\t// in\n    tag_249:\n      mload(0x40)\n      dup1\n      swap2\n      sub\n      swap1\n      revert\n        /* \"contracts/token/ERC721/ERC721.sol\":14882:15210  if (reason.length == 0) {... */\n    tag_248:\n        /* \"contracts/token/ERC721/ERC721.sol\":15160:15166  reason */\n      dup1\n        /* \"contracts/token/ERC721/ERC721.sol\":15154:15167  mload(reason) */\n      mload\n        /* \"contracts/token/ERC721/ERC721.sol\":15145:15151  reason */\n      dup2\n        /* \"contracts/token/ERC721/ERC721.sol\":15141:15143  32 */\n      0x20\n        /* \"contracts/token/ERC721/ERC721.sol\":15137:15152  add(32, reason) */\n      add\n        /* \"contracts/token/ERC721/ERC721.sol\":15130:15168  revert(add(32, reason), mload(reason)) */\n      revert\n        /* \"contracts/token/ERC721/ERC721.sol\":14641:15225  try IERC721Receiver(to).onERC721Received(_msgSender(), from, tokenId, data) returns (bytes4 retval) {... */\n    tag_242:\n        /* \"contracts/token/ERC721/ERC721.sol\":14777:14818  IERC721Receiver.onERC721Received.selector */\n      shl(0xe0, 0x150b7a02)\n        /* \"contracts/token/ERC721/ERC721.sol\":14767:14818  retval == IERC721Receiver.onERC721Received.selector */\n      not(0xffffffffffffffffffffffffffffffffffffffffffffffffffffffff)\n      and\n        /* \"contracts/token/ERC721/ERC721.sol\":14767:14773  retval */\n      dup2\n        /* \"contracts/token/ERC721/ERC721.sol\":14767:14818  retval == IERC721Receiver.onERC721Received.selector */\n      not(0xffffffffffffffffffffffffffffffffffffffffffffffffffffffff)\n      and\n      eq\n        /* \"contracts/token/ERC721/ERC721.sol\":14760:14818  return retval == IERC721Receiver.onERC721Received.selector */\n      swap2\n      pop\n      pop\n      jump(tag_232)\n        /* \"contracts/token/ERC721/ERC721.sol\":14605:15280  if (to.isContract()) {... */\n    tag_235:\n        /* \"contracts/token/ERC721/ERC721.sol\":15264:15268  true */\n      0x01\n        /* \"contracts/token/ERC721/ERC721.sol\":15257:15268  return true */\n      swap1\n      pop\n        /* \"contracts/token/ERC721/ERC721.sol\":14434:15287  function _checkOnERC721Received(... */\n    tag_232:\n      swap5\n      swap4\n      pop\n      pop\n      pop\n      pop\n      jump\t// out\n        /* \"contracts/utils/math/Math.sol\":10390:11338  function log10(uint256 value) internal pure returns (uint256) {... */\n    tag_211:\n        /* \"contracts/utils/math/Math.sol\":10443:10450  uint256 */\n      0x00\n        /* \"contracts/utils/math/Math.sol\":10463:10477  uint256 result */\n      dup1\n        /* \"contracts/utils/math/Math.sol\":10480:10481  0 */\n      0x00\n        /* \"contracts/utils/math/Math.sol\":10463:10481  uint256 result = 0 */\n      swap1\n      pop\n        /* \"contracts/utils/math/Math.sol\":10530:10538  10 ** 64 */\n      0x184f03e93ff9f4daa797ed6e38ed64bf6a1f010000000000000000\n        /* \"contracts/utils/math/Math.sol\":10521:10526  value */\n      dup4\n        /* \"contracts/utils/math/Math.sol\":10521:10538  value >= 10 ** 64 */\n      lt\n        /* \"contracts/utils/math/Math.sol\":10517:10623  if (value >= 10 ** 64) {... */\n      tag_254\n      jumpi\n        /* \"contracts/utils/math/Math.sol\":10568:10576  10 ** 64 */\n      0x184f03e93ff9f4daa797ed6e38ed64bf6a1f010000000000000000\n        /* \"contracts/utils/math/Math.sol\":10559:10576  value /= 10 ** 64 */\n      dup4\n      dup2\n      tag_255\n      jumpi\n      tag_256\n      tag_220\n      jump\t// in\n    tag_256:\n    tag_255:\n      div\n      swap3\n      pop\n        /* \"contracts/utils/math/Math.sol\":10605:10607  64 */\n      0x40\n        /* \"contracts/utils/math/Math.sol\":10595:10607  result += 64 */\n      dup2\n      add\n      swap1\n      pop\n        /* \"contracts/utils/math/Math.sol\":10517:10623  if (value >= 10 ** 64) {... */\n    tag_254:\n        /* \"contracts/utils/math/Math.sol\":10650:10658  10 ** 32 */\n      0x04ee2d6d415b85acef8100000000\n        /* \"contracts/utils/math/Math.sol\":10641:10646  value */\n      dup4\n        /* \"contracts/utils/math/Math.sol\":10641:10658  value >= 10 ** 32 */\n      lt\n        /* \"contracts/utils/math/Math.sol\":10637:10743  if (value >= 10 ** 32) {... */\n      tag_257\n      jumpi\n        /* \"contracts/utils/math/Math.sol\":10688:10696  10 ** 32 */\n      0x04ee2d6d415b85acef8100000000\n        /* \"contracts/utils/math/Math.sol\":10679:10696  value /= 10 ** 32 */\n      dup4\n      dup2\n      tag_258\n      jumpi\n      tag_259\n      tag_220\n      jump\t// in\n    tag_259:\n    tag_258:\n      div\n      swap3\n      pop\n        /* \"contracts/utils/math/Math.sol\":10725:10727  32 */\n      0x20\n        /* \"contracts/utils/math/Math.sol\":10715:10727  result += 32 */\n      dup2\n      add\n      swap1\n      pop\n        /* \"contracts/utils/math/Math.sol\":10637:10743  if (value >= 10 ** 32) {... */\n    tag_257:\n        /* \"contracts/utils/math/Math.sol\":10770:10778  10 ** 16 */\n      0x2386f26fc10000\n        /* \"contracts/utils/math/Math.sol\":10761:10766  value */\n      dup4\n        /* \"contracts/utils/math/Math.sol\":10761:10778  value >= 10 ** 16 */\n      lt\n        /* \"contracts/utils/math/Math.sol\":10757:10863  if (value >= 10 ** 16) {... */\n      tag_260\n      jumpi\n        /* \"contracts/utils/math/Math.sol\":10808:10816  10 ** 16 */\n      0x2386f26fc10000\n        /* \"contracts/utils/math/Math.sol\":10799:10816  value /= 10 ** 16 */\n      dup4\n      dup2\n      tag_261\n      jumpi\n      tag_262\n      tag_220\n      jump\t// in\n    tag_262:\n    tag_261:\n      div\n      swap3\n      pop\n        /* \"contracts/utils/math/Math.sol\":10845:10847  16 */\n      0x10\n        /* \"contracts/utils/math/Math.sol\":10835:10847  result += 16 */\n      dup2\n      add\n      swap1\n      pop\n        /* \"contracts/utils/math/Math.sol\":10757:10863  if (value >= 10 ** 16) {... */\n    tag_260:\n        /* \"contracts/utils/math/Math.sol\":10890:10897  10 ** 8 */\n      0x05f5e100\n        /* \"contracts/utils/math/Math.sol\":10881:10886  value */\n      dup4\n        /* \"contracts/utils/math/Math.sol\":10881:10897  value >= 10 ** 8 */\n      lt\n        /* \"contracts/utils/math/Math.sol\":10877:10980  if (value >= 10 ** 8) {... */\n      tag_263\n      jumpi\n        /* \"contracts/utils/math/Math.sol\":10927:10934  10 ** 8 */\n      0x05f5e100\n        /* \"contracts/utils/math/Math.sol\":10918:10934  value /= 10 ** 8 */\n      dup4\n      dup2\n      tag_264\n      jumpi\n      tag_265\n      tag_220\n      jump\t// in\n    tag_265:\n    tag_264:\n      div\n      swap3\n      pop\n        /* \"contracts/utils/math/Math.sol\":10963:10964  8 */\n      0x08\n        /* \"contracts/utils/math/Math.sol\":10953:10964  result += 8 */\n      dup2\n      add\n      swap1\n      pop\n        /* \"contracts/utils/math/Math.sol\":10877:10980  if (value >= 10 ** 8) {... */\n    tag_263:\n        /* \"contracts/utils/math/Math.sol\":11007:11014  10 ** 4 */\n      0x2710\n        /* \"contracts/utils/math/Math.sol\":10998:11003  value */\n      dup4\n        /* \"contracts/utils/math/Math.sol\":10998:11014  value >= 10 ** 4 */\n      lt\n        /* \"contracts/utils/math/Math.sol\":10994:11097  if (value >= 10 ** 4) {... */\n      tag_266\n      jumpi\n        /* \"contracts/utils/math/Math.sol\":11044:11051  10 ** 4 */\n      0x2710\n        /* \"contracts/utils/math/Math.sol\":11035:11051  value /= 10 ** 4 */\n      dup4\n      dup2\n      tag_267\n      jumpi\n      tag_268\n      tag_220\n      jump\t// in\n    tag_268:\n    tag_267:\n      div\n      swap3\n      pop\n        /* \"contracts/utils/math/Math.sol\":11080:11081  4 */\n      0x04\n        /* \"contracts/utils/math/Math.sol\":11070:11081  result += 4 */\n      dup2\n      add\n      swap1\n      pop\n        /* \"contracts/utils/math/Math.sol\":10994:11097  if (value >= 10 ** 4) {... */\n    tag_266:\n        /* \"contracts/utils/math/Math.sol\":11124:11131  10 ** 2 */\n      0x64\n        /* \"contracts/utils/math/Math.sol\":11115:11120  value */\n      dup4\n        /* \"contracts/utils/math/Math.sol\":11115:11131  value >= 10 ** 2 */\n      lt\n        /* \"contracts/utils/math/Math.sol\":11111:11214  if (value >= 10 ** 2) {... */\n      tag_269\n      jumpi\n        /* \"contracts/utils/math/Math.sol\":11161:11168  10 ** 2 */\n      0x64\n        /* \"contracts/utils/math/Math.sol\":11152:11168  value /= 10 ** 2 */\n      dup4\n      dup2\n      tag_270\n      jumpi\n      tag_271\n      tag_220\n      jump\t// in\n    tag_271:\n    tag_270:\n      div\n      swap3\n      pop\n        /* \"contracts/utils/math/Math.sol\":11197:11198  2 */\n      0x02\n        /* \"contracts/utils/math/Math.sol\":11187:11198  result += 2 */\n      dup2\n      add\n      swap1\n      pop\n        /* \"contracts/utils/math/Math.sol\":11111:11214  if (value >= 10 ** 2) {... */\n    tag_269:\n        /* \"contracts/utils/math/Math.sol\":11241:11248  10 ** 1 */\n      0x0a\n        /* \"contracts/utils/math/Math.sol\":11232:11237  value */\n      dup4\n        /* \"contracts/utils/math/Math.sol\":11232:11248  value >= 10 ** 1 */\n      lt\n        /* \"contracts/utils/math/Math.sol\":11228:11296  if (value >= 10 ** 1) {... */\n      tag_272\n      jumpi\n        /* \"contracts/utils/math/Math.sol\":11279:11280  1 */\n      0x01\n        /* \"contracts/utils/math/Math.sol\":11269:11280  result += 1 */\n      dup2\n      add\n      swap1\n      pop\n        /* \"contracts/utils/math/Math.sol\":11228:11296  if (value >= 10 ** 1) {... */\n    tag_272:\n        /* \"contracts/utils/math/Math.sol\":11324:11330  result */\n      dup1\n        /* \"contracts/utils/math/Math.sol\":11317:11330  return result */\n      swap2\n      pop\n      pop\n        /* \"contracts/utils/math/Math.sol\":10390:11338  function log10(uint256 value) internal pure returns (uint256) {... */\n      swap2\n      swap1\n      pop\n      jump\t// out\n        /* \"contracts/token/ERC721/ERC721.sol\":9299:10241  function _mint(address to, uint256 tokenId) internal virtual {... */\n    tag_228:\n        /* \"contracts/token/ERC721/ERC721.sol\":9393:9394  0 */\n      0x00\n        /* \"contracts/token/ERC721/ERC721.sol\":9379:9395  to != address(0) */\n      0xffffffffffffffffffffffffffffffffffffffff\n      and\n        /* \"contracts/token/ERC721/ERC721.sol\":9379:9381  to */\n      dup3\n        /* \"contracts/token/ERC721/ERC721.sol\":9379:9395  to != address(0) */\n      0xffffffffffffffffffffffffffffffffffffffff\n      and\n      sub\n        /* \"contracts/token/ERC721/ERC721.sol\":9371:9432  require(to != address(0), \"ERC721: mint to the zero address\") */\n      tag_274\n      jumpi\n      mload(0x40)\n      0x08c379a000000000000000000000000000000000000000000000000000000000\n      dup2\n      mstore\n      0x04\n      add\n      tag_275\n      swap1\n      tag_276\n      jump\t// in\n    tag_275:\n      mload(0x40)\n      dup1\n      swap2\n      sub\n      swap1\n      revert\n    tag_274:\n        /* \"contracts/token/ERC721/ERC721.sol\":9452:9468  _exists(tokenId) */\n      tag_277\n        /* \"contracts/token/ERC721/ERC721.sol\":9460:9467  tokenId */\n      dup2\n        /* \"contracts/token/ERC721/ERC721.sol\":9452:9459  _exists */\n      tag_165\n        /* \"contracts/token/ERC721/ERC721.sol\":9452:9468  _exists(tokenId) */\n      jump\t// in\n    tag_277:\n        /* \"contracts/token/ERC721/ERC721.sol\":9451:9468  !_exists(tokenId) */\n      iszero\n        /* \"contracts/token/ERC721/ERC721.sol\":9443:9501  require(!_exists(tokenId), \"ERC721: token already minted\") */\n      tag_278\n      jumpi\n      mload(0x40)\n      0x08c379a000000000000000000000000000000000000000000000000000000000\n      dup2\n      mstore\n      0x04\n      add\n      tag_279\n      swap1\n      tag_280\n      jump\t// in\n    tag_279:\n      mload(0x40)\n      dup1\n      swap2\n      sub\n      swap1\n      revert\n    tag_278:\n        /* \"contracts/token/ERC721/ERC721.sol\":9514:9562  _beforeTokenTransfer(address(0), to, tokenId, 1) */\n      tag_281\n        /* \"contracts/token/ERC721/ERC721.sol\":9543:9544  0 */\n      0x00\n        /* \"contracts/token/ERC721/ERC721.sol\":9547:9549  to */\n      dup4\n        /* \"contracts/token/ERC721/ERC721.sol\":9551:9558  tokenId */\n      dup4\n        /* \"contracts/token/ERC721/ERC721.sol\":9560:9561  1 */\n      0x01\n        /* \"contracts/token/ERC721/ERC721.sol\":9514:9534  _beforeTokenTransfer */\n      tag_186\n        /* \"contracts/token/ERC721/ERC721.sol\":9514:9562  _beforeTokenTransfer(address(0), to, tokenId, 1) */\n      jump\t// in\n    tag_281:\n        /* \"contracts/token/ERC721/ERC721.sol\":9661:9677  _exists(tokenId) */\n      tag_282\n        /* \"contracts/token/ERC721/ERC721.sol\":9669:9676  tokenId */\n      dup2\n        /* \"contracts/token/ERC721/ERC721.sol\":9661:9668  _exists */\n      tag_165\n        /* \"contracts/token/ERC721/ERC721.sol\":9661:9677  _exists(tokenId) */\n      jump\t// in\n    tag_282:\n        /* \"contracts/token/ERC721/ERC721.sol\":9660:9677  !_exists(tokenId) */\n      iszero\n        /* \"contracts/token/ERC721/ERC721.sol\":9652:9710  require(!_exists(tokenId), \"ERC721: token already minted\") */\n      tag_283\n      jumpi\n      mload(0x40)\n      0x08c379a000000000000000000000000000000000000000000000000000000000\n      dup2\n      mstore\n      0x04\n      add\n      tag_284\n      swap1\n      tag_280\n      jump\t// in\n    tag_284:\n      mload(0x40)\n      dup1\n      swap2\n      sub\n      swap1\n      revert\n    tag_283:\n        /* \"contracts/token/ERC721/ERC721.sol\":10076:10077  1 */\n      0x01\n        /* \"contracts/token/ERC721/ERC721.sol\":10059:10068  _balances */\n      0x03\n        /* \"contracts/token/ERC721/ERC721.sol\":10059:10072  _balances[to] */\n      0x00\n        /* \"contracts/token/ERC721/ERC721.sol\":10069:10071  to */\n      dup5\n        /* \"contracts/token/ERC721/ERC721.sol\":10059:10072  _balances[to] */\n      0xffffffffffffffffffffffffffffffffffffffff\n      and\n      0xffffffffffffffffffffffffffffffffffffffff\n      and\n      dup2\n      mstore\n      0x20\n      add\n      swap1\n      dup2\n      mstore\n      0x20\n      add\n      0x00\n      keccak256\n      0x00\n        /* \"contracts/token/ERC721/ERC721.sol\":10059:10077  _balances[to] += 1 */\n      dup3\n      dup3\n      sload\n      add\n      swap3\n      pop\n      pop\n      dup2\n      swap1\n      sstore\n      pop\n        /* \"contracts/token/ERC721/ERC721.sol\":10120:10122  to */\n      dup2\n        /* \"contracts/token/ERC721/ERC721.sol\":10101:10108  _owners */\n      0x02\n        /* \"contracts/token/ERC721/ERC721.sol\":10101:10117  _owners[tokenId] */\n      0x00\n        /* \"contracts/token/ERC721/ERC721.sol\":10109:10116  tokenId */\n      dup4\n        /* \"contracts/token/ERC721/ERC721.sol\":10101:10117  _owners[tokenId] */\n      dup2\n      mstore\n      0x20\n      add\n      swap1\n      dup2\n      mstore\n      0x20\n      add\n      0x00\n      keccak256\n      0x00\n        /* \"contracts/token/ERC721/ERC721.sol\":10101:10122  _owners[tokenId] = to */\n      0x0100\n      exp\n      dup2\n      sload\n      dup2\n      0xffffffffffffffffffffffffffffffffffffffff\n      mul\n      not\n      and\n      swap1\n      dup4\n      0xffffffffffffffffffffffffffffffffffffffff\n      and\n      mul\n      or\n      swap1\n      sstore\n      pop\n        /* \"contracts/token/ERC721/ERC721.sol\":10165:10172  tokenId */\n      dup1\n        /* \"contracts/token/ERC721/ERC721.sol\":10161:10163  to */\n      dup3\n        /* \"contracts/token/ERC721/ERC721.sol\":10140:10173  Transfer(address(0), to, tokenId) */\n      0xffffffffffffffffffffffffffffffffffffffff\n      and\n        /* \"contracts/token/ERC721/ERC721.sol\":10157:10158  0 */\n      0x00\n        /* \"contracts/token/ERC721/ERC721.sol\":10140:10173  Transfer(address(0), to, tokenId) */\n      0xffffffffffffffffffffffffffffffffffffffff\n      and\n      0xddf252ad1be2c89b69c2b068fc378daa952ba7f163c4a11628f55a4df523b3ef\n      mload(0x40)\n      mload(0x40)\n      dup1\n      swap2\n      sub\n      swap1\n      log4\n        /* \"contracts/token/ERC721/ERC721.sol\":10186:10233  _afterTokenTransfer(address(0), to, tokenId, 1) */\n      tag_285\n        /* \"contracts/token/ERC721/ERC721.sol\":10214:10215  0 */\n      0x00\n        /* \"contracts/token/ERC721/ERC721.sol\":10218:10220  to */\n      dup4\n        /* \"contracts/token/ERC721/ERC721.sol\":10222:10229  tokenId */\n      dup4\n        /* \"contracts/token/ERC721/ERC721.sol\":10231:10232  1 */\n      0x01\n        /* \"contracts/token/ERC721/ERC721.sol\":10186:10205  _afterTokenTransfer */\n      tag_191\n        /* \"contracts/token/ERC721/ERC721.sol\":10186:10233  _afterTokenTransfer(address(0), to, tokenId, 1) */\n      jump\t// in\n    tag_285:\n        /* \"contracts/token/ERC721/ERC721.sol\":9299:10241  function _mint(address to, uint256 tokenId) internal virtual {... */\n      pop\n      pop\n      jump\t// out\n        /* \"contracts/utils/Address.sol\":1451:1777  function isContract(address account) internal view returns (bool) {... */\n    tag_234:\n        /* \"contracts/utils/Address.sol\":1511:1515  bool */\n      0x00\n        /* \"contracts/utils/Address.sol\":1768:1769  0 */\n      dup1\n        /* \"contracts/utils/Address.sol\":1746:1753  account */\n      dup3\n        /* \"contracts/utils/Address.sol\":1746:1765  account.code.length */\n      0xffffffffffffffffffffffffffffffffffffffff\n      and\n      extcodesize\n        /* \"contracts/utils/Address.sol\":1746:1769  account.code.length > 0 */\n      gt\n        /* \"contracts/utils/Address.sol\":1739:1769  return account.code.length > 0 */\n      swap1\n      pop\n        /* \"contracts/utils/Address.sol\":1451:1777  function isContract(address account) internal view returns (bool) {... */\n      swap2\n      swap1\n      pop\n      jump\t// out\n        /* \"#utility.yul\":7:82   */\n    tag_287:\n        /* \"#utility.yul\":40:46   */\n      0x00\n        /* \"#utility.yul\":73:75   */\n      0x40\n        /* \"#utility.yul\":67:76   */\n      mload\n        /* \"#utility.yul\":57:76   */\n      swap1\n      pop\n        /* \"#utility.yul\":7:82   */\n      swap1\n      jump\t// out\n        /* \"#utility.yul\":88:205   */\n    tag_288:\n        /* \"#utility.yul\":197:198   */\n      0x00\n        /* \"#utility.yul\":194:195   */\n      dup1\n        /* \"#utility.yul\":187:199   */\n      revert\n        /* \"#utility.yul\":211:328   */\n    tag_289:\n        /* \"#utility.yul\":320:321   */\n      0x00\n        /* \"#utility.yul\":317:318   */\n      dup1\n        /* \"#utility.yul\":310:322   */\n      revert\n        /* \"#utility.yul\":334:483   */\n    tag_290:\n        /* \"#utility.yul\":370:377   */\n      0x00\n        /* \"#utility.yul\":410:476   */\n      0xffffffff00000000000000000000000000000000000000000000000000000000\n        /* \"#utility.yul\":403:408   */\n      dup3\n        /* \"#utility.yul\":399:477   */\n      and\n        /* \"#utility.yul\":388:477   */\n      swap1\n      pop\n        /* \"#utility.yul\":334:483   */\n      swap2\n      swap1\n      pop\n      jump\t// out\n        /* \"#utility.yul\":489:609   */\n    tag_291:\n        /* \"#utility.yul\":561:584   */\n      tag_354\n        /* \"#utility.yul\":578:583   */\n      dup2\n        /* \"#utility.yul\":561:584   */\n      tag_290\n      jump\t// in\n    tag_354:\n        /* \"#utility.yul\":554:559   */\n      dup2\n        /* \"#utility.yul\":551:585   */\n      eq\n        /* \"#utility.yul\":541:603   */\n      tag_355\n      jumpi\n        /* \"#utility.yul\":599:600   */\n      0x00\n        /* \"#utility.yul\":596:597   */\n      dup1\n        /* \"#utility.yul\":589:601   */\n      revert\n        /* \"#utility.yul\":541:603   */\n    tag_355:\n        /* \"#utility.yul\":489:609   */\n      pop\n      jump\t// out\n        /* \"#utility.yul\":615:752   */\n    tag_292:\n        /* \"#utility.yul\":660:665   */\n      0x00\n        /* \"#utility.yul\":698:704   */\n      dup2\n        /* \"#utility.yul\":685:705   */\n      calldataload\n        /* \"#utility.yul\":676:705   */\n      swap1\n      pop\n        /* \"#utility.yul\":714:746   */\n      tag_357\n        /* \"#utility.yul\":740:745   */\n      dup2\n        /* \"#utility.yul\":714:746   */\n      tag_291\n      jump\t// in\n    tag_357:\n        /* \"#utility.yul\":615:752   */\n      swap3\n      swap2\n      pop\n      pop\n      jump\t// out\n        /* \"#utility.yul\":758:1085   */\n    tag_22:\n        /* \"#utility.yul\":816:822   */\n      0x00\n        /* \"#utility.yul\":865:867   */\n      0x20\n        /* \"#utility.yul\":853:862   */\n      dup3\n        /* \"#utility.yul\":844:851   */\n      dup5\n        /* \"#utility.yul\":840:863   */\n      sub\n        /* \"#utility.yul\":836:868   */\n      slt\n        /* \"#utility.yul\":833:952   */\n      iszero\n      tag_359\n      jumpi\n        /* \"#utility.yul\":871:950   */\n      tag_360\n      tag_288\n      jump\t// in\n    tag_360:\n        /* \"#utility.yul\":833:952   */\n    tag_359:\n        /* \"#utility.yul\":991:992   */\n      0x00\n        /* \"#utility.yul\":1016:1068   */\n      tag_361\n        /* \"#utility.yul\":1060:1067   */\n      dup5\n        /* \"#utility.yul\":1051:1057   */\n      dup3\n        /* \"#utility.yul\":1040:1049   */\n      dup6\n        /* \"#utility.yul\":1036:1058   */\n      add\n        /* \"#utility.yul\":1016:1068   */\n      tag_292\n      jump\t// in\n    tag_361:\n        /* \"#utility.yul\":1006:1068   */\n      swap2\n      pop\n        /* \"#utility.yul\":962:1078   */\n      pop\n        /* \"#utility.yul\":758:1085   */\n      swap3\n      swap2\n      pop\n      pop\n      jump\t// out\n        /* \"#utility.yul\":1091:1181   */\n    tag_293:\n        /* \"#utility.yul\":1125:1132   */\n      0x00\n        /* \"#utility.yul\":1168:1173   */\n      dup2\n        /* \"#utility.yul\":1161:1174   */\n      iszero\n        /* \"#utility.yul\":1154:1175   */\n      iszero\n        /* \"#utility.yul\":1143:1175   */\n      swap1\n      pop\n        /* \"#utility.yul\":1091:1181   */\n      swap2\n      swap1\n      pop\n      jump\t// out\n        /* \"#utility.yul\":1187:1296   */\n    tag_294:\n        /* \"#utility.yul\":1268:1289   */\n      tag_364\n        /* \"#utility.yul\":1283:1288   */\n      dup2\n        /* \"#utility.yul\":1268:1289   */\n      tag_293\n      jump\t// in\n    tag_364:\n        /* \"#utility.yul\":1263:1266   */\n      dup3\n        /* \"#utility.yul\":1256:1290   */\n      mstore\n        /* \"#utility.yul\":1187:1296   */\n      pop\n      pop\n      jump\t// out\n        /* \"#utility.yul\":1302:1512   */\n    tag_25:\n        /* \"#utility.yul\":1389:1393   */\n      0x00\n        /* \"#utility.yul\":1427:1429   */\n      0x20\n        /* \"#utility.yul\":1416:1425   */\n      dup3\n        /* \"#utility.yul\":1412:1430   */\n      add\n        /* \"#utility.yul\":1404:1430   */\n      swap1\n      pop\n        /* \"#utility.yul\":1440:1505   */\n      tag_366\n        /* \"#utility.yul\":1502:1503   */\n      0x00\n        /* \"#utility.yul\":1491:1500   */\n      dup4\n        /* \"#utility.yul\":1487:1504   */\n      add\n        /* \"#utility.yul\":1478:1484   */\n      dup5\n        /* \"#utility.yul\":1440:1505   */\n      tag_294\n      jump\t// in\n    tag_366:\n        /* \"#utility.yul\":1302:1512   */\n      swap3\n      swap2\n      pop\n      pop\n      jump\t// out\n        /* \"#utility.yul\":1518:1617   */\n    tag_295:\n        /* \"#utility.yul\":1570:1576   */\n      0x00\n        /* \"#utility.yul\":1604:1609   */\n      dup2\n        /* \"#utility.yul\":1598:1610   */\n      mload\n        /* \"#utility.yul\":1588:1610   */\n      swap1\n      pop\n        /* \"#utility.yul\":1518:1617   */\n      swap2\n      swap1\n      pop\n      jump\t// out\n        /* \"#utility.yul\":1623:1792   */\n    tag_296:\n        /* \"#utility.yul\":1707:1718   */\n      0x00\n        /* \"#utility.yul\":1741:1747   */\n      dup3\n        /* \"#utility.yul\":1736:1739   */\n      dup3\n        /* \"#utility.yul\":1729:1748   */\n      mstore\n        /* \"#utility.yul\":1781:1785   */\n      0x20\n        /* \"#utility.yul\":1776:1779   */\n      dup3\n        /* \"#utility.yul\":1772:1786   */\n      add\n        /* \"#utility.yul\":1757:1786   */\n      swap1\n      pop\n        /* \"#utility.yul\":1623:1792   */\n      swap3\n      swap2\n      pop\n      pop\n      jump\t// out\n        /* \"#utility.yul\":1798:2044   */\n    tag_297:\n        /* \"#utility.yul\":1879:1880   */\n      0x00\n        /* \"#utility.yul\":1889:2002   */\n    tag_370:\n        /* \"#utility.yul\":1903:1909   */\n      dup4\n        /* \"#utility.yul\":1900:1901   */\n      dup2\n        /* \"#utility.yul\":1897:1910   */\n      lt\n        /* \"#utility.yul\":1889:2002   */\n      iszero\n      tag_372\n      jumpi\n        /* \"#utility.yul\":1988:1989   */\n      dup1\n        /* \"#utility.yul\":1983:1986   */\n      dup3\n        /* \"#utility.yul\":1979:1990   */\n      add\n        /* \"#utility.yul\":1973:1991   */\n      mload\n        /* \"#utility.yul\":1969:1970   */\n      dup2\n        /* \"#utility.yul\":1964:1967   */\n      dup5\n        /* \"#utility.yul\":1960:1971   */\n      add\n        /* \"#utility.yul\":1953:1992   */\n      mstore\n        /* \"#utility.yul\":1925:1927   */\n      0x20\n        /* \"#utility.yul\":1922:1923   */\n      dup2\n        /* \"#utility.yul\":1918:1928   */\n      add\n        /* \"#utility.yul\":1913:1928   */\n      swap1\n      pop\n        /* \"#utility.yul\":1889:2002   */\n      jump(tag_370)\n    tag_372:\n        /* \"#utility.yul\":2036:2037   */\n      0x00\n        /* \"#utility.yul\":2027:2033   */\n      dup5\n        /* \"#utility.yul\":2022:2025   */\n      dup5\n        /* \"#utility.yul\":2018:2034   */\n      add\n        /* \"#utility.yul\":2011:2038   */\n      mstore\n        /* \"#utility.yul\":1860:2044   */\n      pop\n        /* \"#utility.yul\":1798:2044   */\n      pop\n      pop\n      pop\n      jump\t// out\n        /* \"#utility.yul\":2050:2152   */\n    tag_298:\n        /* \"#utility.yul\":2091:2097   */\n      0x00\n        /* \"#utility.yul\":2142:2144   */\n      0x1f\n        /* \"#utility.yul\":2138:2145   */\n      not\n        /* \"#utility.yul\":2133:2135   */\n      0x1f\n        /* \"#utility.yul\":2126:2131   */\n      dup4\n        /* \"#utility.yul\":2122:2136   */\n      add\n        /* \"#utility.yul\":2118:2146   */\n      and\n        /* \"#utility.yul\":2108:2146   */\n      swap1\n      pop\n        /* \"#utility.yul\":2050:2152   */\n      swap2\n      swap1\n      pop\n      jump\t// out\n        /* \"#utility.yul\":2158:2535   */\n    tag_299:\n        /* \"#utility.yul\":2246:2249   */\n      0x00\n        /* \"#utility.yul\":2274:2313   */\n      tag_375\n        /* \"#utility.yul\":2307:2312   */\n      dup3\n        /* \"#utility.yul\":2274:2313   */\n      tag_295\n      jump\t// in\n    tag_375:\n        /* \"#utility.yul\":2329:2400   */\n      tag_376\n        /* \"#utility.yul\":2393:2399   */\n      dup2\n        /* \"#utility.yul\":2388:2391   */\n      dup6\n        /* \"#utility.yul\":2329:2400   */\n      tag_296\n      jump\t// in\n    tag_376:\n        /* \"#utility.yul\":2322:2400   */\n      swap4\n      pop\n        /* \"#utility.yul\":2409:2474   */\n      tag_377\n        /* \"#utility.yul\":2467:2473   */\n      dup2\n        /* \"#utility.yul\":2462:2465   */\n      dup6\n        /* \"#utility.yul\":2455:2459   */\n      0x20\n        /* \"#utility.yul\":2448:2453   */\n      dup7\n        /* \"#utility.yul\":2444:2460   */\n      add\n        /* \"#utility.yul\":2409:2474   */\n      tag_297\n      jump\t// in\n    tag_377:\n        /* \"#utility.yul\":2499:2528   */\n      tag_378\n        /* \"#utility.yul\":2521:2527   */\n      dup2\n        /* \"#utility.yul\":2499:2528   */\n      tag_298\n      jump\t// in\n    tag_378:\n        /* \"#utility.yul\":2494:2497   */\n      dup5\n        /* \"#utility.yul\":2490:2529   */\n      add\n        /* \"#utility.yul\":2483:2529   */\n      swap2\n      pop\n        /* \"#utility.yul\":2250:2535   */\n      pop\n        /* \"#utility.yul\":2158:2535   */\n      swap3\n      swap2\n      pop\n      pop\n      jump\t// out\n        /* \"#utility.yul\":2541:2854   */\n    tag_29:\n        /* \"#utility.yul\":2654:2658   */\n      0x00\n        /* \"#utility.yul\":2692:2694   */\n      0x20\n        /* \"#utility.yul\":2681:2690   */\n      dup3\n        /* \"#utility.yul\":2677:2695   */\n      add\n        /* \"#utility.yul\":2669:2695   */\n      swap1\n      pop\n        /* \"#utility.yul\":2741:2750   */\n      dup2\n        /* \"#utility.yul\":2735:2739   */\n      dup2\n        /* \"#utility.yul\":2731:2751   */\n      sub\n        /* \"#utility.yul\":2727:2728   */\n      0x00\n        /* \"#utility.yul\":2716:2725   */\n      dup4\n        /* \"#utility.yul\":2712:2729   */\n      add\n        /* \"#utility.yul\":2705:2752   */\n      mstore\n        /* \"#utility.yul\":2769:2847   */\n      tag_380\n        /* \"#utility.yul\":2842:2846   */\n      dup2\n        /* \"#utility.yul\":2833:2839   */\n      dup5\n        /* \"#utility.yul\":2769:2847   */\n      tag_299\n      jump\t// in\n    tag_380:\n        /* \"#utility.yul\":2761:2847   */\n      swap1\n      pop\n        /* \"#utility.yul\":2541:2854   */\n      swap3\n      swap2\n      pop\n      pop\n      jump\t// out\n        /* \"#utility.yul\":2860:2937   */\n    tag_300:\n        /* \"#utility.yul\":2897:2904   */\n      0x00\n        /* \"#utility.yul\":2926:2931   */\n      dup2\n        /* \"#utility.yul\":2915:2931   */\n      swap1\n      pop\n        /* \"#utility.yul\":2860:2937   */\n      swap2\n      swap1\n      pop\n      jump\t// out\n        /* \"#utility.yul\":2943:3065   */\n    tag_301:\n        /* \"#utility.yul\":3016:3040   */\n      tag_383\n        /* \"#utility.yul\":3034:3039   */\n      dup2\n        /* \"#utility.yul\":3016:3040   */\n      tag_300\n      jump\t// in\n    tag_383:\n        /* \"#utility.yul\":3009:3014   */\n      dup2\n        /* \"#utility.yul\":3006:3041   */\n      eq\n        /* \"#utility.yul\":2996:3059   */\n      tag_384\n      jumpi\n        /* \"#utility.yul\":3055:3056   */\n      0x00\n        /* \"#utility.yul\":3052:3053   */\n      dup1\n        /* \"#utility.yul\":3045:3057   */\n      revert\n        /* \"#utility.yul\":2996:3059   */\n    tag_384:\n        /* \"#utility.yul\":2943:3065   */\n      pop\n      jump\t// out\n        /* \"#utility.yul\":3071:3210   */\n    tag_302:\n        /* \"#utility.yul\":3117:3122   */\n      0x00\n        /* \"#utility.yul\":3155:3161   */\n      dup2\n        /* \"#utility.yul\":3142:3162   */\n      calldataload\n        /* \"#utility.yul\":3133:3162   */\n      swap1\n      pop\n        /* \"#utility.yul\":3171:3204   */\n      tag_386\n        /* \"#utility.yul\":3198:3203   */\n      dup2\n        /* \"#utility.yul\":3171:3204   */\n      tag_301\n      jump\t// in\n    tag_386:\n        /* \"#utility.yul\":3071:3210   */\n      swap3\n      swap2\n      pop\n      pop\n      jump\t// out\n        /* \"#utility.yul\":3216:3545   */\n    tag_32:\n        /* \"#utility.yul\":3275:3281   */\n      0x00\n        /* \"#utility.yul\":3324:3326   */\n      0x20\n        /* \"#utility.yul\":3312:3321   */\n      dup3\n        /* \"#utility.yul\":3303:3310   */\n      dup5\n        /* \"#utility.yul\":3299:3322   */\n      sub\n        /* \"#utility.yul\":3295:3327   */\n      slt\n        /* \"#utility.yul\":3292:3411   */\n      iszero\n      tag_388\n      jumpi\n        /* \"#utility.yul\":3330:3409   */\n      tag_389\n      tag_288\n      jump\t// in\n    tag_389:\n        /* \"#utility.yul\":3292:3411   */\n    tag_388:\n        /* \"#utility.yul\":3450:3451   */\n      0x00\n        /* \"#utility.yul\":3475:3528   */\n      tag_390\n        /* \"#utility.yul\":3520:3527   */\n      dup5\n        /* \"#utility.yul\":3511:3517   */\n      dup3\n        /* \"#utility.yul\":3500:3509   */\n      dup6\n        /* \"#utility.yul\":3496:3518   */\n      add\n        /* \"#utility.yul\":3475:3528   */\n      tag_302\n      jump\t// in\n    tag_390:\n        /* \"#utility.yul\":3465:3528   */\n      swap2\n      pop\n        /* \"#utility.yul\":3421:3538   */\n      pop\n        /* \"#utility.yul\":3216:3545   */\n      swap3\n      swap2\n      pop\n      pop\n      jump\t// out\n        /* \"#utility.yul\":3551:3677   */\n    tag_303:\n        /* \"#utility.yul\":3588:3595   */\n      0x00\n        /* \"#utility.yul\":3628:3670   */\n      0xffffffffffffffffffffffffffffffffffffffff\n        /* \"#utility.yul\":3621:3626   */\n      dup3\n        /* \"#utility.yul\":3617:3671   */\n      and\n        /* \"#utility.yul\":3606:3671   */\n      swap1\n      pop\n        /* \"#utility.yul\":3551:3677   */\n      swap2\n      swap1\n      pop\n      jump\t// out\n        /* \"#utility.yul\":3683:3779   */\n    tag_304:\n        /* \"#utility.yul\":3720:3727   */\n      0x00\n        /* \"#utility.yul\":3749:3773   */\n      tag_393\n        /* \"#utility.yul\":3767:3772   */\n      dup3\n        /* \"#utility.yul\":3749:3773   */\n      tag_303\n      jump\t// in\n    tag_393:\n        /* \"#utility.yul\":3738:3773   */\n      swap1\n      pop\n        /* \"#utility.yul\":3683:3779   */\n      swap2\n      swap1\n      pop\n      jump\t// out\n        /* \"#utility.yul\":3785:3903   */\n    tag_305:\n        /* \"#utility.yul\":3872:3896   */\n      tag_395\n        /* \"#utility.yul\":3890:3895   */\n      dup2\n        /* \"#utility.yul\":3872:3896   */\n      tag_304\n      jump\t// in\n    tag_395:\n        /* \"#utility.yul\":3867:3870   */\n      dup3\n        /* \"#utility.yul\":3860:3897   */\n      mstore\n        /* \"#utility.yul\":3785:3903   */\n      pop\n      pop\n      jump\t// out\n        /* \"#utility.yul\":3909:4131   */\n    tag_35:\n        /* \"#utility.yul\":4002:4006   */\n      0x00\n        /* \"#utility.yul\":4040:4042   */\n      0x20\n        /* \"#utility.yul\":4029:4038   */\n      dup3\n        /* \"#utility.yul\":4025:4043   */\n      add\n        /* \"#utility.yul\":4017:4043   */\n      swap1\n      pop\n        /* \"#utility.yul\":4053:4124   */\n      tag_397\n        /* \"#utility.yul\":4121:4122   */\n      0x00\n        /* \"#utility.yul\":4110:4119   */\n      dup4\n        /* \"#utility.yul\":4106:4123   */\n      add\n        /* \"#utility.yul\":4097:4103   */\n      dup5\n        /* \"#utility.yul\":4053:4124   */\n      tag_305\n      jump\t// in\n    tag_397:\n        /* \"#utility.yul\":3909:4131   */\n      swap3\n      swap2\n      pop\n      pop\n      jump\t// out\n        /* \"#utility.yul\":4137:4259   */\n    tag_306:\n        /* \"#utility.yul\":4210:4234   */\n      tag_399\n        /* \"#utility.yul\":4228:4233   */\n      dup2\n        /* \"#utility.yul\":4210:4234   */\n      tag_304\n      jump\t// in\n    tag_399:\n        /* \"#utility.yul\":4203:4208   */\n      dup2\n        /* \"#utility.yul\":4200:4235   */\n      eq\n        /* \"#utility.yul\":4190:4253   */\n      tag_400\n      jumpi\n        /* \"#utility.yul\":4249:4250   */\n      0x00\n        /* \"#utility.yul\":4246:4247   */\n      dup1\n        /* \"#utility.yul\":4239:4251   */\n      revert\n        /* \"#utility.yul\":4190:4253   */\n    tag_400:\n        /* \"#utility.yul\":4137:4259   */\n      pop\n      jump\t// out\n        /* \"#utility.yul\":4265:4404   */\n    tag_307:\n        /* \"#utility.yul\":4311:4316   */\n      0x00\n        /* \"#utility.yul\":4349:4355   */\n      dup2\n        /* \"#utility.yul\":4336:4356   */\n      calldataload\n        /* \"#utility.yul\":4327:4356   */\n      swap1\n      pop\n        /* \"#utility.yul\":4365:4398   */\n      tag_402\n        /* \"#utility.yul\":4392:4397   */\n      dup2\n        /* \"#utility.yul\":4365:4398   */\n      tag_306\n      jump\t// in\n    tag_402:\n        /* \"#utility.yul\":4265:4404   */\n      swap3\n      swap2\n      pop\n      pop\n      jump\t// out\n        /* \"#utility.yul\":4410:4884   */\n    tag_38:\n        /* \"#utility.yul\":4478:4484   */\n      0x00\n        /* \"#utility.yul\":4486:4492   */\n      dup1\n        /* \"#utility.yul\":4535:4537   */\n      0x40\n        /* \"#utility.yul\":4523:4532   */\n      dup4\n        /* \"#utility.yul\":4514:4521   */\n      dup6\n        /* \"#utility.yul\":4510:4533   */\n      sub\n        /* \"#utility.yul\":4506:4538   */\n      slt\n        /* \"#utility.yul\":4503:4622   */\n      iszero\n      tag_404\n      jumpi\n        /* \"#utility.yul\":4541:4620   */\n      tag_405\n      tag_288\n      jump\t// in\n    tag_405:\n        /* \"#utility.yul\":4503:4622   */\n    tag_404:\n        /* \"#utility.yul\":4661:4662   */\n      0x00\n        /* \"#utility.yul\":4686:4739   */\n      tag_406\n        /* \"#utility.yul\":4731:4738   */\n      dup6\n        /* \"#utility.yul\":4722:4728   */\n      dup3\n        /* \"#utility.yul\":4711:4720   */\n      dup7\n        /* \"#utility.yul\":4707:4729   */\n      add\n        /* \"#utility.yul\":4686:4739   */\n      tag_307\n      jump\t// in\n    tag_406:\n        /* \"#utility.yul\":4676:4739   */\n      swap3\n      pop\n        /* \"#utility.yul\":4632:4749   */\n      pop\n        /* \"#utility.yul\":4788:4790   */\n      0x20\n        /* \"#utility.yul\":4814:4867   */\n      tag_407\n        /* \"#utility.yul\":4859:4866   */\n      dup6\n        /* \"#utility.yul\":4850:4856   */\n      dup3\n        /* \"#utility.yul\":4839:4848   */\n      dup7\n        /* \"#utility.yul\":4835:4857   */\n      add\n        /* \"#utility.yul\":4814:4867   */\n      tag_302\n      jump\t// in\n    tag_407:\n        /* \"#utility.yul\":4804:4867   */\n      swap2\n      pop\n        /* \"#utility.yul\":4759:4877   */\n      pop\n        /* \"#utility.yul\":4410:4884   */\n      swap3\n      pop\n      swap3\n      swap1\n      pop\n      jump\t// out\n        /* \"#utility.yul\":4890:5509   */\n    tag_42:\n        /* \"#utility.yul\":4967:4973   */\n      0x00\n        /* \"#utility.yul\":4975:4981   */\n      dup1\n        /* \"#utility.yul\":4983:4989   */\n      0x00\n        /* \"#utility.yul\":5032:5034   */\n      0x60\n        /* \"#utility.yul\":5020:5029   */\n      dup5\n        /* \"#utility.yul\":5011:5018   */\n      dup7\n        /* \"#utility.yul\":5007:5030   */\n      sub\n        /* \"#utility.yul\":5003:5035   */\n      slt\n        /* \"#utility.yul\":5000:5119   */\n      iszero\n      tag_409\n      jumpi\n        /* \"#utility.yul\":5038:5117   */\n      tag_410\n      tag_288\n      jump\t// in\n    tag_410:\n        /* \"#utility.yul\":5000:5119   */\n    tag_409:\n        /* \"#utility.yul\":5158:5159   */\n      0x00\n        /* \"#utility.yul\":5183:5236   */\n      tag_411\n        /* \"#utility.yul\":5228:5235   */\n      dup7\n        /* \"#utility.yul\":5219:5225   */\n      dup3\n        /* \"#utility.yul\":5208:5217   */\n      dup8\n        /* \"#utility.yul\":5204:5226   */\n      add\n        /* \"#utility.yul\":5183:5236   */\n      tag_307\n      jump\t// in\n    tag_411:\n        /* \"#utility.yul\":5173:5236   */\n      swap4\n      pop\n        /* \"#utility.yul\":5129:5246   */\n      pop\n        /* \"#utility.yul\":5285:5287   */\n      0x20\n        /* \"#utility.yul\":5311:5364   */\n      tag_412\n        /* \"#utility.yul\":5356:5363   */\n      dup7\n        /* \"#utility.yul\":5347:5353   */\n      dup3\n        /* \"#utility.yul\":5336:5345   */\n      dup8\n        /* \"#utility.yul\":5332:5354   */\n      add\n        /* \"#utility.yul\":5311:5364   */\n      tag_307\n      jump\t// in\n    tag_412:\n        /* \"#utility.yul\":5301:5364   */\n      swap3\n      pop\n        /* \"#utility.yul\":5256:5374   */\n      pop\n        /* \"#utility.yul\":5413:5415   */\n      0x40\n        /* \"#utility.yul\":5439:5492   */\n      tag_413\n        /* \"#utility.yul\":5484:5491   */\n      dup7\n        /* \"#utility.yul\":5475:5481   */\n      dup3\n        /* \"#utility.yul\":5464:5473   */\n      dup8\n        /* \"#utility.yul\":5460:5482   */\n      add\n        /* \"#utility.yul\":5439:5492   */\n      tag_302\n      jump\t// in\n    tag_413:\n        /* \"#utility.yul\":5429:5492   */\n      swap2\n      pop\n        /* \"#utility.yul\":5384:5502   */\n      pop\n        /* \"#utility.yul\":4890:5509   */\n      swap3\n      pop\n      swap3\n      pop\n      swap3\n      jump\t// out\n        /* \"#utility.yul\":5515:5844   */\n    tag_53:\n        /* \"#utility.yul\":5574:5580   */\n      0x00\n        /* \"#utility.yul\":5623:5625   */\n      0x20\n        /* \"#utility.yul\":5611:5620   */\n      dup3\n        /* \"#utility.yul\":5602:5609   */\n      dup5\n        /* \"#utility.yul\":5598:5621   */\n      sub\n        /* \"#utility.yul\":5594:5626   */\n      slt\n        /* \"#utility.yul\":5591:5710   */\n      iszero\n      tag_415\n      jumpi\n        /* \"#utility.yul\":5629:5708   */\n      tag_416\n      tag_288\n      jump\t// in\n    tag_416:\n        /* \"#utility.yul\":5591:5710   */\n    tag_415:\n        /* \"#utility.yul\":5749:5750   */\n      0x00\n        /* \"#utility.yul\":5774:5827   */\n      tag_417\n        /* \"#utility.yul\":5819:5826   */\n      dup5\n        /* \"#utility.yul\":5810:5816   */\n      dup3\n        /* \"#utility.yul\":5799:5808   */\n      dup6\n        /* \"#utility.yul\":5795:5817   */\n      add\n        /* \"#utility.yul\":5774:5827   */\n      tag_307\n      jump\t// in\n    tag_417:\n        /* \"#utility.yul\":5764:5827   */\n      swap2\n      pop\n        /* \"#utility.yul\":5720:5837   */\n      pop\n        /* \"#utility.yul\":5515:5844   */\n      swap3\n      swap2\n      pop\n      pop\n      jump\t// out\n        /* \"#utility.yul\":5850:5968   */\n    tag_308:\n        /* \"#utility.yul\":5937:5961   */\n      tag_419\n        /* \"#utility.yul\":5955:5960   */\n      dup2\n        /* \"#utility.yul\":5937:5961   */\n      tag_300\n      jump\t// in\n    tag_419:\n        /* \"#utility.yul\":5932:5935   */\n      dup3\n        /* \"#utility.yul\":5925:5962   */\n      mstore\n        /* \"#utility.yul\":5850:5968   */\n      pop\n      pop\n      jump\t// out\n        /* \"#utility.yul\":5974:6196   */\n    tag_56:\n        /* \"#utility.yul\":6067:6071   */\n      0x00\n        /* \"#utility.yul\":6105:6107   */\n      0x20\n        /* \"#utility.yul\":6094:6103   */\n      dup3\n        /* \"#utility.yul\":6090:6108   */\n      add\n        /* \"#utility.yul\":6082:6108   */\n      swap1\n      pop\n        /* \"#utility.yul\":6118:6189   */\n      tag_421\n        /* \"#utility.yul\":6186:6187   */\n      0x00\n        /* \"#utility.yul\":6175:6184   */\n      dup4\n        /* \"#utility.yul\":6171:6188   */\n      add\n        /* \"#utility.yul\":6162:6168   */\n      dup5\n        /* \"#utility.yul\":6118:6189   */\n      tag_308\n      jump\t// in\n    tag_421:\n        /* \"#utility.yul\":5974:6196   */\n      swap3\n      swap2\n      pop\n      pop\n      jump\t// out\n        /* \"#utility.yul\":6202:6318   */\n    tag_309:\n        /* \"#utility.yul\":6272:6293   */\n      tag_423\n        /* \"#utility.yul\":6287:6292   */\n      dup2\n        /* \"#utility.yul\":6272:6293   */\n      tag_293\n      jump\t// in\n    tag_423:\n        /* \"#utility.yul\":6265:6270   */\n      dup2\n        /* \"#utility.yul\":6262:6294   */\n      eq\n        /* \"#utility.yul\":6252:6312   */\n      tag_424\n      jumpi\n        /* \"#utility.yul\":6308:6309   */\n      0x00\n        /* \"#utility.yul\":6305:6306   */\n      dup1\n        /* \"#utility.yul\":6298:6310   */\n      revert\n        /* \"#utility.yul\":6252:6312   */\n    tag_424:\n        /* \"#utility.yul\":6202:6318   */\n      pop\n      jump\t// out\n        /* \"#utility.yul\":6324:6457   */\n    tag_310:\n        /* \"#utility.yul\":6367:6372   */\n      0x00\n        /* \"#utility.yul\":6405:6411   */\n      dup2\n        /* \"#utility.yul\":6392:6412   */\n      calldataload\n        /* \"#utility.yul\":6383:6412   */\n      swap1\n      pop\n        /* \"#utility.yul\":6421:6451   */\n      tag_426\n        /* \"#utility.yul\":6445:6450   */\n      dup2\n        /* \"#utility.yul\":6421:6451   */\n      tag_309\n      jump\t// in\n    tag_426:\n        /* \"#utility.yul\":6324:6457   */\n      swap3\n      swap2\n      pop\n      pop\n      jump\t// out\n        /* \"#utility.yul\":6463:6931   */\n    tag_65:\n        /* \"#utility.yul\":6528:6534   */\n      0x00\n        /* \"#utility.yul\":6536:6542   */\n      dup1\n        /* \"#utility.yul\":6585:6587   */\n      0x40\n        /* \"#utility.yul\":6573:6582   */\n      dup4\n        /* \"#utility.yul\":6564:6571   */\n      dup6\n        /* \"#utility.yul\":6560:6583   */\n      sub\n        /* \"#utility.yul\":6556:6588   */\n      slt\n        /* \"#utility.yul\":6553:6672   */\n      iszero\n      tag_428\n      jumpi\n        /* \"#utility.yul\":6591:6670   */\n      tag_429\n      tag_288\n      jump\t// in\n    tag_429:\n        /* \"#utility.yul\":6553:6672   */\n    tag_428:\n        /* \"#utility.yul\":6711:6712   */\n      0x00\n        /* \"#utility.yul\":6736:6789   */\n      tag_430\n        /* \"#utility.yul\":6781:6788   */\n      dup6\n        /* \"#utility.yul\":6772:6778   */\n      dup3\n        /* \"#utility.yul\":6761:6770   */\n      dup7\n        /* \"#utility.yul\":6757:6779   */\n      add\n        /* \"#utility.yul\":6736:6789   */\n      tag_307\n      jump\t// in\n    tag_430:\n        /* \"#utility.yul\":6726:6789   */\n      swap3\n      pop\n        /* \"#utility.yul\":6682:6799   */\n      pop\n        /* \"#utility.yul\":6838:6840   */\n      0x20\n        /* \"#utility.yul\":6864:6914   */\n      tag_431\n        /* \"#utility.yul\":6906:6913   */\n      dup6\n        /* \"#utility.yul\":6897:6903   */\n      dup3\n        /* \"#utility.yul\":6886:6895   */\n      dup7\n        /* \"#utility.yul\":6882:6904   */\n      add\n        /* \"#utility.yul\":6864:6914   */\n      tag_310\n      jump\t// in\n    tag_431:\n        /* \"#utility.yul\":6854:6914   */\n      swap2\n      pop\n        /* \"#utility.yul\":6809:6924   */\n      pop\n        /* \"#utility.yul\":6463:6931   */\n      swap3\n      pop\n      swap3\n      swap1\n      pop\n      jump\t// out\n        /* \"#utility.yul\":6937:7054   */\n    tag_311:\n        /* \"#utility.yul\":7046:7047   */\n      0x00\n        /* \"#utility.yul\":7043:7044   */\n      dup1\n        /* \"#utility.yul\":7036:7048   */\n      revert\n        /* \"#utility.yul\":7060:7177   */\n    tag_312:\n        /* \"#utility.yul\":7169:7170   */\n      0x00\n        /* \"#utility.yul\":7166:7167   */\n      dup1\n        /* \"#utility.yul\":7159:7171   */\n      revert\n        /* \"#utility.yul\":7183:7363   */\n    tag_214:\n        /* \"#utility.yul\":7231:7308   */\n      0x4e487b7100000000000000000000000000000000000000000000000000000000\n        /* \"#utility.yul\":7228:7229   */\n      0x00\n        /* \"#utility.yul\":7221:7309   */\n      mstore\n        /* \"#utility.yul\":7328:7332   */\n      0x41\n        /* \"#utility.yul\":7325:7326   */\n      0x04\n        /* \"#utility.yul\":7318:7333   */\n      mstore\n        /* \"#utility.yul\":7352:7356   */\n      0x24\n        /* \"#utility.yul\":7349:7350   */\n      0x00\n        /* \"#utility.yul\":7342:7357   */\n      revert\n        /* \"#utility.yul\":7369:7650   */\n    tag_313:\n        /* \"#utility.yul\":7452:7479   */\n      tag_436\n        /* \"#utility.yul\":7474:7478   */\n      dup3\n        /* \"#utility.yul\":7452:7479   */\n      tag_298\n      jump\t// in\n    tag_436:\n        /* \"#utility.yul\":7444:7450   */\n      dup2\n        /* \"#utility.yul\":7440:7480   */\n      add\n        /* \"#utility.yul\":7582:7588   */\n      dup2\n        /* \"#utility.yul\":7570:7580   */\n      dup2\n        /* \"#utility.yul\":7567:7589   */\n      lt\n        /* \"#utility.yul\":7546:7564   */\n      0xffffffffffffffff\n        /* \"#utility.yul\":7534:7544   */\n      dup3\n        /* \"#utility.yul\":7531:7565   */\n      gt\n        /* \"#utility.yul\":7528:7590   */\n      or\n        /* \"#utility.yul\":7525:7613   */\n      iszero\n      tag_437\n      jumpi\n        /* \"#utility.yul\":7593:7611   */\n      tag_438\n      tag_214\n      jump\t// in\n    tag_438:\n        /* \"#utility.yul\":7525:7613   */\n    tag_437:\n        /* \"#utility.yul\":7633:7643   */\n      dup1\n        /* \"#utility.yul\":7629:7631   */\n      0x40\n        /* \"#utility.yul\":7622:7644   */\n      mstore\n        /* \"#utility.yul\":7412:7650   */\n      pop\n        /* \"#utility.yul\":7369:7650   */\n      pop\n      pop\n      jump\t// out\n        /* \"#utility.yul\":7656:7785   */\n    tag_314:\n        /* \"#utility.yul\":7690:7696   */\n      0x00\n        /* \"#utility.yul\":7717:7737   */\n      tag_440\n      tag_287\n      jump\t// in\n    tag_440:\n        /* \"#utility.yul\":7707:7737   */\n      swap1\n      pop\n        /* \"#utility.yul\":7746:7779   */\n      tag_441\n        /* \"#utility.yul\":7774:7778   */\n      dup3\n        /* \"#utility.yul\":7766:7772   */\n      dup3\n        /* \"#utility.yul\":7746:7779   */\n      tag_313\n      jump\t// in\n    tag_441:\n        /* \"#utility.yul\":7656:7785   */\n      swap2\n      swap1\n      pop\n      jump\t// out\n        /* \"#utility.yul\":7791:8098   */\n    tag_315:\n        /* \"#utility.yul\":7852:7856   */\n      0x00\n        /* \"#utility.yul\":7942:7960   */\n      0xffffffffffffffff\n        /* \"#utility.yul\":7934:7940   */\n      dup3\n        /* \"#utility.yul\":7931:7961   */\n      gt\n        /* \"#utility.yul\":7928:7984   */\n      iszero\n      tag_443\n      jumpi\n        /* \"#utility.yul\":7964:7982   */\n      tag_444\n      tag_214\n      jump\t// in\n    tag_444:\n        /* \"#utility.yul\":7928:7984   */\n    tag_443:\n        /* \"#utility.yul\":8002:8031   */\n      tag_445\n        /* \"#utility.yul\":8024:8030   */\n      dup3\n        /* \"#utility.yul\":8002:8031   */\n      tag_298\n      jump\t// in\n    tag_445:\n        /* \"#utility.yul\":7994:8031   */\n      swap1\n      pop\n        /* \"#utility.yul\":8086:8090   */\n      0x20\n        /* \"#utility.yul\":8080:8084   */\n      dup2\n        /* \"#utility.yul\":8076:8091   */\n      add\n        /* \"#utility.yul\":8068:8091   */\n      swap1\n      pop\n        /* \"#utility.yul\":7791:8098   */\n      swap2\n      swap1\n      pop\n      jump\t// out\n        /* \"#utility.yul\":8104:8250   */\n    tag_316:\n        /* \"#utility.yul\":8201:8207   */\n      dup3\n        /* \"#utility.yul\":8196:8199   */\n      dup2\n        /* \"#utility.yul\":8191:8194   */\n      dup4\n        /* \"#utility.yul\":8178:8208   */\n      calldatacopy\n        /* \"#utility.yul\":8242:8243   */\n      0x00\n        /* \"#utility.yul\":8233:8239   */\n      dup4\n        /* \"#utility.yul\":8228:8231   */\n      dup4\n        /* \"#utility.yul\":8224:8240   */\n      add\n        /* \"#utility.yul\":8217:8244   */\n      mstore\n        /* \"#utility.yul\":8104:8250   */\n      pop\n      pop\n      pop\n      jump\t// out\n        /* \"#utility.yul\":8256:8679   */\n    tag_317:\n        /* \"#utility.yul\":8333:8338   */\n      0x00\n        /* \"#utility.yul\":8358:8423   */\n      tag_448\n        /* \"#utility.yul\":8374:8422   */\n      tag_449\n        /* \"#utility.yul\":8415:8421   */\n      dup5\n        /* \"#utility.yul\":8374:8422   */\n      tag_315\n      jump\t// in\n    tag_449:\n        /* \"#utility.yul\":8358:8423   */\n      tag_314\n      jump\t// in\n    tag_448:\n        /* \"#utility.yul\":8349:8423   */\n      swap1\n      pop\n        /* \"#utility.yul\":8446:8452   */\n      dup3\n        /* \"#utility.yul\":8439:8444   */\n      dup2\n        /* \"#utility.yul\":8432:8453   */\n      mstore\n        /* \"#utility.yul\":8484:8488   */\n      0x20\n        /* \"#utility.yul\":8477:8482   */\n      dup2\n        /* \"#utility.yul\":8473:8489   */\n      add\n        /* \"#utility.yul\":8522:8525   */\n      dup5\n        /* \"#utility.yul\":8513:8519   */\n      dup5\n        /* \"#utility.yul\":8508:8511   */\n      dup5\n        /* \"#utility.yul\":8504:8520   */\n      add\n        /* \"#utility.yul\":8501:8526   */\n      gt\n        /* \"#utility.yul\":8498:8610   */\n      iszero\n      tag_450\n      jumpi\n        /* \"#utility.yul\":8529:8608   */\n      tag_451\n      tag_312\n      jump\t// in\n    tag_451:\n        /* \"#utility.yul\":8498:8610   */\n    tag_450:\n        /* \"#utility.yul\":8619:8673   */\n      tag_452\n        /* \"#utility.yul\":8666:8672   */\n      dup5\n        /* \"#utility.yul\":8661:8664   */\n      dup3\n        /* \"#utility.yul\":8656:8659   */\n      dup6\n        /* \"#utility.yul\":8619:8673   */\n      tag_316\n      jump\t// in\n    tag_452:\n        /* \"#utility.yul\":8339:8679   */\n      pop\n        /* \"#utility.yul\":8256:8679   */\n      swap4\n      swap3\n      pop\n      pop\n      pop\n      jump\t// out\n        /* \"#utility.yul\":8698:9036   */\n    tag_318:\n        /* \"#utility.yul\":8753:8758   */\n      0x00\n        /* \"#utility.yul\":8802:8805   */\n      dup3\n        /* \"#utility.yul\":8795:8799   */\n      0x1f\n        /* \"#utility.yul\":8787:8793   */\n      dup4\n        /* \"#utility.yul\":8783:8800   */\n      add\n        /* \"#utility.yul\":8779:8806   */\n      slt\n        /* \"#utility.yul\":8769:8891   */\n      tag_454\n      jumpi\n        /* \"#utility.yul\":8810:8889   */\n      tag_455\n      tag_311\n      jump\t// in\n    tag_455:\n        /* \"#utility.yul\":8769:8891   */\n    tag_454:\n        /* \"#utility.yul\":8927:8933   */\n      dup2\n        /* \"#utility.yul\":8914:8934   */\n      calldataload\n        /* \"#utility.yul\":8952:9030   */\n      tag_456\n        /* \"#utility.yul\":9026:9029   */\n      dup5\n        /* \"#utility.yul\":9018:9024   */\n      dup3\n        /* \"#utility.yul\":9011:9015   */\n      0x20\n        /* \"#utility.yul\":9003:9009   */\n      dup7\n        /* \"#utility.yul\":8999:9016   */\n      add\n        /* \"#utility.yul\":8952:9030   */\n      tag_317\n      jump\t// in\n    tag_456:\n        /* \"#utility.yul\":8943:9030   */\n      swap2\n      pop\n        /* \"#utility.yul\":8759:9036   */\n      pop\n        /* \"#utility.yul\":8698:9036   */\n      swap3\n      swap2\n      pop\n      pop\n      jump\t// out\n        /* \"#utility.yul\":9042:9985   */\n    tag_69:\n        /* \"#utility.yul\":9137:9143   */\n      0x00\n        /* \"#utility.yul\":9145:9151   */\n      dup1\n        /* \"#utility.yul\":9153:9159   */\n      0x00\n        /* \"#utility.yul\":9161:9167   */\n      dup1\n        /* \"#utility.yul\":9210:9213   */\n      0x80\n        /* \"#utility.yul\":9198:9207   */\n      dup6\n        /* \"#utility.yul\":9189:9196   */\n      dup8\n        /* \"#utility.yul\":9185:9208   */\n      sub\n        /* \"#utility.yul\":9181:9214   */\n      slt\n        /* \"#utility.yul\":9178:9298   */\n      iszero\n      tag_458\n      jumpi\n        /* \"#utility.yul\":9217:9296   */\n      tag_459\n      tag_288\n      jump\t// in\n    tag_459:\n        /* \"#utility.yul\":9178:9298   */\n    tag_458:\n        /* \"#utility.yul\":9337:9338   */\n      0x00\n        /* \"#utility.yul\":9362:9415   */\n      tag_460\n        /* \"#utility.yul\":9407:9414   */\n      dup8\n        /* \"#utility.yul\":9398:9404   */\n      dup3\n        /* \"#utility.yul\":9387:9396   */\n      dup9\n        /* \"#utility.yul\":9383:9405   */\n      add\n        /* \"#utility.yul\":9362:9415   */\n      tag_307\n      jump\t// in\n    tag_460:\n        /* \"#utility.yul\":9352:9415   */\n      swap5\n      pop\n        /* \"#utility.yul\":9308:9425   */\n      pop\n        /* \"#utility.yul\":9464:9466   */\n      0x20\n        /* \"#utility.yul\":9490:9543   */\n      tag_461\n        /* \"#utility.yul\":9535:9542   */\n      dup8\n        /* \"#utility.yul\":9526:9532   */\n      dup3\n        /* \"#utility.yul\":9515:9524   */\n      dup9\n        /* \"#utility.yul\":9511:9533   */\n      add\n        /* \"#utility.yul\":9490:9543   */\n      tag_307\n      jump\t// in\n    tag_461:\n        /* \"#utility.yul\":9480:9543   */\n      swap4\n      pop\n        /* \"#utility.yul\":9435:9553   */\n      pop\n        /* \"#utility.yul\":9592:9594   */\n      0x40\n        /* \"#utility.yul\":9618:9671   */\n      tag_462\n        /* \"#utility.yul\":9663:9670   */\n      dup8\n        /* \"#utility.yul\":9654:9660   */\n      dup3\n        /* \"#utility.yul\":9643:9652   */\n      dup9\n        /* \"#utility.yul\":9639:9661   */\n      add\n        /* \"#utility.yul\":9618:9671   */\n      tag_302\n      jump\t// in\n    tag_462:\n        /* \"#utility.yul\":9608:9671   */\n      swap3\n      pop\n        /* \"#utility.yul\":9563:9681   */\n      pop\n        /* \"#utility.yul\":9748:9750   */\n      0x60\n        /* \"#utility.yul\":9737:9746   */\n      dup6\n        /* \"#utility.yul\":9733:9751   */\n      add\n        /* \"#utility.yul\":9720:9752   */\n      calldataload\n        /* \"#utility.yul\":9779:9797   */\n      0xffffffffffffffff\n        /* \"#utility.yul\":9771:9777   */\n      dup2\n        /* \"#utility.yul\":9768:9798   */\n      gt\n        /* \"#utility.yul\":9765:9882   */\n      iszero\n      tag_463\n      jumpi\n        /* \"#utility.yul\":9801:9880   */\n      tag_464\n      tag_289\n      jump\t// in\n    tag_464:\n        /* \"#utility.yul\":9765:9882   */\n    tag_463:\n        /* \"#utility.yul\":9906:9968   */\n      tag_465\n        /* \"#utility.yul\":9960:9967   */\n      dup8\n        /* \"#utility.yul\":9951:9957   */\n      dup3\n        /* \"#utility.yul\":9940:9949   */\n      dup9\n        /* \"#utility.yul\":9936:9958   */\n      add\n        /* \"#utility.yul\":9906:9968   */\n      tag_318\n      jump\t// in\n    tag_465:\n        /* \"#utility.yul\":9896:9968   */\n      swap2\n      pop\n        /* \"#utility.yul\":9691:9978   */\n      pop\n        /* \"#utility.yul\":9042:9985   */\n      swap3\n      swap6\n      swap2\n      swap5\n      pop\n      swap3\n      pop\n      jump\t// out\n        /* \"#utility.yul\":9991:10465   */\n    tag_77:\n        /* \"#utility.yul\":10059:10065   */\n      0x00\n        /* \"#utility.yul\":10067:10073   */\n      dup1\n        /* \"#utility.yul\":10116:10118   */\n      0x40\n        /* \"#utility.yul\":10104:10113   */\n      dup4\n        /* \"#utility.yul\":10095:10102   */\n      dup6\n        /* \"#utility.yul\":10091:10114   */\n      sub\n        /* \"#utility.yul\":10087:10119   */\n      slt\n        /* \"#utility.yul\":10084:10203   */\n      iszero\n      tag_467\n      jumpi\n        /* \"#utility.yul\":10122:10201   */\n      tag_468\n      tag_288\n      jump\t// in\n    tag_468:\n        /* \"#utility.yul\":10084:10203   */\n    tag_467:\n        /* \"#utility.yul\":10242:10243   */\n      0x00\n        /* \"#utility.yul\":10267:10320   */\n      tag_469\n        /* \"#utility.yul\":10312:10319   */\n      dup6\n        /* \"#utility.yul\":10303:10309   */\n      dup3\n        /* \"#utility.yul\":10292:10301   */\n      dup7\n        /* \"#utility.yul\":10288:10310   */\n      add\n        /* \"#utility.yul\":10267:10320   */\n      tag_307\n      jump\t// in\n    tag_469:\n        /* \"#utility.yul\":10257:10320   */\n      swap3\n      pop\n        /* \"#utility.yul\":10213:10330   */\n      pop\n        /* \"#utility.yul\":10369:10371   */\n      0x20\n        /* \"#utility.yul\":10395:10448   */\n      tag_470\n        /* \"#utility.yul\":10440:10447   */\n      dup6\n        /* \"#utility.yul\":10431:10437   */\n      dup3\n        /* \"#utility.yul\":10420:10429   */\n      dup7\n        /* \"#utility.yul\":10416:10438   */\n      add\n        /* \"#utility.yul\":10395:10448   */\n      tag_307\n      jump\t// in\n    tag_470:\n        /* \"#utility.yul\":10385:10448   */\n      swap2\n      pop\n        /* \"#utility.yul\":10340:10458   */\n      pop\n        /* \"#utility.yul\":9991:10465   */\n      swap3\n      pop\n      swap3\n      swap1\n      pop\n      jump\t// out\n        /* \"#utility.yul\":10471:10651   */\n    tag_319:\n        /* \"#utility.yul\":10519:10596   */\n      0x4e487b7100000000000000000000000000000000000000000000000000000000\n        /* \"#utility.yul\":10516:10517   */\n      0x00\n        /* \"#utility.yul\":10509:10597   */\n      mstore\n        /* \"#utility.yul\":10616:10620   */\n      0x22\n        /* \"#utility.yul\":10613:10614   */\n      0x04\n        /* \"#utility.yul\":10606:10621   */\n      mstore\n        /* \"#utility.yul\":10640:10644   */\n      0x24\n        /* \"#utility.yul\":10637:10638   */\n      0x00\n        /* \"#utility.yul\":10630:10645   */\n      revert\n        /* \"#utility.yul\":10657:10977   */\n    tag_87:\n        /* \"#utility.yul\":10701:10707   */\n      0x00\n        /* \"#utility.yul\":10738:10739   */\n      0x02\n        /* \"#utility.yul\":10732:10736   */\n      dup3\n        /* \"#utility.yul\":10728:10740   */\n      div\n        /* \"#utility.yul\":10718:10740   */\n      swap1\n      pop\n        /* \"#utility.yul\":10785:10786   */\n      0x01\n        /* \"#utility.yul\":10779:10783   */\n      dup3\n        /* \"#utility.yul\":10775:10787   */\n      and\n        /* \"#utility.yul\":10806:10824   */\n      dup1\n        /* \"#utility.yul\":10796:10877   */\n      tag_473\n      jumpi\n        /* \"#utility.yul\":10862:10866   */\n      0x7f\n        /* \"#utility.yul\":10854:10860   */\n      dup3\n        /* \"#utility.yul\":10850:10867   */\n      and\n        /* \"#utility.yul\":10840:10867   */\n      swap2\n      pop\n        /* \"#utility.yul\":10796:10877   */\n    tag_473:\n        /* \"#utility.yul\":10924:10926   */\n      0x20\n        /* \"#utility.yul\":10916:10922   */\n      dup3\n        /* \"#utility.yul\":10913:10927   */\n      lt\n        /* \"#utility.yul\":10893:10911   */\n      dup2\n        /* \"#utility.yul\":10890:10928   */\n      sub\n        /* \"#utility.yul\":10887:10971   */\n      tag_474\n      jumpi\n        /* \"#utility.yul\":10943:10961   */\n      tag_475\n      tag_319\n      jump\t// in\n    tag_475:\n        /* \"#utility.yul\":10887:10971   */\n    tag_474:\n        /* \"#utility.yul\":10708:10977   */\n      pop\n        /* \"#utility.yul\":10657:10977   */\n      swap2\n      swap1\n      pop\n      jump\t// out\n        /* \"#utility.yul\":10983:11203   */\n    tag_320:\n        /* \"#utility.yul\":11123:11157   */\n      0x4552433732313a20617070726f76616c20746f2063757272656e74206f776e65\n        /* \"#utility.yul\":11119:11120   */\n      0x00\n        /* \"#utility.yul\":11111:11117   */\n      dup3\n        /* \"#utility.yul\":11107:11121   */\n      add\n        /* \"#utility.yul\":11100:11158   */\n      mstore\n        /* \"#utility.yul\":11192:11195   */\n      0x7200000000000000000000000000000000000000000000000000000000000000\n        /* \"#utility.yul\":11187:11189   */\n      0x20\n        /* \"#utility.yul\":11179:11185   */\n      dup3\n        /* \"#utility.yul\":11175:11190   */\n      add\n        /* \"#utility.yul\":11168:11196   */\n      mstore\n        /* \"#utility.yul\":10983:11203   */\n      pop\n      jump\t// out\n        /* \"#utility.yul\":11209:11575   */\n    tag_321:\n        /* \"#utility.yul\":11351:11354   */\n      0x00\n        /* \"#utility.yul\":11372:11439   */\n      tag_478\n        /* \"#utility.yul\":11436:11438   */\n      0x21\n        /* \"#utility.yul\":11431:11434   */\n      dup4\n        /* \"#utility.yul\":11372:11439   */\n      tag_296\n      jump\t// in\n    tag_478:\n        /* \"#utility.yul\":11365:11439   */\n      swap2\n      pop\n        /* \"#utility.yul\":11448:11541   */\n      tag_479\n        /* \"#utility.yul\":11537:11540   */\n      dup3\n        /* \"#utility.yul\":11448:11541   */\n      tag_320\n      jump\t// in\n    tag_479:\n        /* \"#utility.yul\":11566:11568   */\n      0x40\n        /* \"#utility.yul\":11561:11564   */\n      dup3\n        /* \"#utility.yul\":11557:11569   */\n      add\n        /* \"#utility.yul\":11550:11569   */\n      swap1\n      pop\n        /* \"#utility.yul\":11209:11575   */\n      swap2\n      swap1\n      pop\n      jump\t// out\n        /* \"#utility.yul\":11581:12000   */\n    tag_99:\n        /* \"#utility.yul\":11747:11751   */\n      0x00\n        /* \"#utility.yul\":11785:11787   */\n      0x20\n        /* \"#utility.yul\":11774:11783   */\n      dup3\n        /* \"#utility.yul\":11770:11788   */\n      add\n        /* \"#utility.yul\":11762:11788   */\n      swap1\n      pop\n        /* \"#utility.yul\":11834:11843   */\n      dup2\n        /* \"#utility.yul\":11828:11832   */\n      dup2\n        /* \"#utility.yul\":11824:11844   */\n      sub\n        /* \"#utility.yul\":11820:11821   */\n      0x00\n        /* \"#utility.yul\":11809:11818   */\n      dup4\n        /* \"#utility.yul\":11805:11822   */\n      add\n        /* \"#utility.yul\":11798:11845   */\n      mstore\n        /* \"#utility.yul\":11862:11993   */\n      tag_481\n        /* \"#utility.yul\":11988:11992   */\n      dup2\n        /* \"#utility.yul\":11862:11993   */\n      tag_321\n      jump\t// in\n    tag_481:\n        /* \"#utility.yul\":11854:11993   */\n      swap1\n      pop\n        /* \"#utility.yul\":11581:12000   */\n      swap2\n      swap1\n      pop\n      jump\t// out\n        /* \"#utility.yul\":12006:12254   */\n    tag_322:\n        /* \"#utility.yul\":12146:12180   */\n      0x4552433732313a20617070726f76652063616c6c6572206973206e6f7420746f\n        /* \"#utility.yul\":12142:12143   */\n      0x00\n        /* \"#utility.yul\":12134:12140   */\n      dup3\n        /* \"#utility.yul\":12130:12144   */\n      add\n        /* \"#utility.yul\":12123:12181   */\n      mstore\n        /* \"#utility.yul\":12215:12246   */\n      0x6b656e206f776e6572206f7220617070726f76656420666f7220616c6c000000\n        /* \"#utility.yul\":12210:12212   */\n      0x20\n        /* \"#utility.yul\":12202:12208   */\n      dup3\n        /* \"#utility.yul\":12198:12213   */\n      add\n        /* \"#utility.yul\":12191:12247   */\n      mstore\n        /* \"#utility.yul\":12006:12254   */\n      pop\n      jump\t// out\n        /* \"#utility.yul\":12260:12626   */\n    tag_323:\n        /* \"#utility.yul\":12402:12405   */\n      0x00\n        /* \"#utility.yul\":12423:12490   */\n      tag_484\n        /* \"#utility.yul\":12487:12489   */\n      0x3d\n        /* \"#utility.yul\":12482:12485   */\n      dup4\n        /* \"#utility.yul\":12423:12490   */\n      tag_296\n      jump\t// in\n    tag_484:\n        /* \"#utility.yul\":12416:12490   */\n      swap2\n      pop\n        /* \"#utility.yul\":12499:12592   */\n      tag_485\n        /* \"#utility.yul\":12588:12591   */\n      dup3\n        /* \"#utility.yul\":12499:12592   */\n      tag_322\n      jump\t// in\n    tag_485:\n        /* \"#utility.yul\":12617:12619   */\n      0x40\n        /* \"#utility.yul\":12612:12615   */\n      dup3\n        /* \"#utility.yul\":12608:12620   */\n      add\n        /* \"#utility.yul\":12601:12620   */\n      swap1\n      pop\n        /* \"#utility.yul\":12260:12626   */\n      swap2\n      swap1\n      pop\n      jump\t// out\n        /* \"#utility.yul\":12632:13051   */\n    tag_107:\n        /* \"#utility.yul\":12798:12802   */\n      0x00\n        /* \"#utility.yul\":12836:12838   */\n      0x20\n        /* \"#utility.yul\":12825:12834   */\n      dup3\n        /* \"#utility.yul\":12821:12839   */\n      add\n        /* \"#utility.yul\":12813:12839   */\n      swap1\n      pop\n        /* \"#utility.yul\":12885:12894   */\n      dup2\n        /* \"#utility.yul\":12879:12883   */\n      dup2\n        /* \"#utility.yul\":12875:12895   */\n      sub\n        /* \"#utility.yul\":12871:12872   */\n      0x00\n        /* \"#utility.yul\":12860:12869   */\n      dup4\n        /* \"#utility.yul\":12856:12873   */\n      add\n        /* \"#utility.yul\":12849:12896   */\n      mstore\n        /* \"#utility.yul\":12913:13044   */\n      tag_487\n        /* \"#utility.yul\":13039:13043   */\n      dup2\n        /* \"#utility.yul\":12913:13044   */\n      tag_323\n      jump\t// in\n    tag_487:\n        /* \"#utility.yul\":12905:13044   */\n      swap1\n      pop\n        /* \"#utility.yul\":12632:13051   */\n      swap2\n      swap1\n      pop\n      jump\t// out\n        /* \"#utility.yul\":13057:13289   */\n    tag_324:\n        /* \"#utility.yul\":13197:13231   */\n      0x4552433732313a2063616c6c6572206973206e6f7420746f6b656e206f776e65\n        /* \"#utility.yul\":13193:13194   */\n      0x00\n        /* \"#utility.yul\":13185:13191   */\n      dup3\n        /* \"#utility.yul\":13181:13195   */\n      add\n        /* \"#utility.yul\":13174:13232   */\n      mstore\n        /* \"#utility.yul\":13266:13281   */\n      0x72206f7220617070726f76656400000000000000000000000000000000000000\n        /* \"#utility.yul\":13261:13263   */\n      0x20\n        /* \"#utility.yul\":13253:13259   */\n      dup3\n        /* \"#utility.yul\":13249:13264   */\n      add\n        /* \"#utility.yul\":13242:13282   */\n      mstore\n        /* \"#utility.yul\":13057:13289   */\n      pop\n      jump\t// out\n        /* \"#utility.yul\":13295:13661   */\n    tag_325:\n        /* \"#utility.yul\":13437:13440   */\n      0x00\n        /* \"#utility.yul\":13458:13525   */\n      tag_490\n        /* \"#utility.yul\":13522:13524   */\n      0x2d\n        /* \"#utility.yul\":13517:13520   */\n      dup4\n        /* \"#utility.yul\":13458:13525   */\n      tag_296\n      jump\t// in\n    tag_490:\n        /* \"#utility.yul\":13451:13525   */\n      swap2\n      pop\n        /* \"#utility.yul\":13534:13627   */\n      tag_491\n        /* \"#utility.yul\":13623:13626   */\n      dup3\n        /* \"#utility.yul\":13534:13627   */\n      tag_324\n      jump\t// in\n    tag_491:\n        /* \"#utility.yul\":13652:13654   */\n      0x40\n        /* \"#utility.yul\":13647:13650   */\n      dup3\n        /* \"#utility.yul\":13643:13655   */\n      add\n        /* \"#utility.yul\":13636:13655   */\n      swap1\n      pop\n        /* \"#utility.yul\":13295:13661   */\n      swap2\n      swap1\n      pop\n      jump\t// out\n        /* \"#utility.yul\":13667:14086   */\n    tag_116:\n        /* \"#utility.yul\":13833:13837   */\n      0x00\n        /* \"#utility.yul\":13871:13873   */\n      0x20\n        /* \"#utility.yul\":13860:13869   */\n      dup3\n        /* \"#utility.yul\":13856:13874   */\n      add\n        /* \"#utility.yul\":13848:13874   */\n      swap1\n      pop\n        /* \"#utility.yul\":13920:13929   */\n      dup2\n        /* \"#utility.yul\":13914:13918   */\n      dup2\n        /* \"#utility.yul\":13910:13930   */\n      sub\n        /* \"#utility.yul\":13906:13907   */\n      0x00\n        /* \"#utility.yul\":13895:13904   */\n      dup4\n        /* \"#utility.yul\":13891:13908   */\n      add\n        /* \"#utility.yul\":13884:13931   */\n      mstore\n        /* \"#utility.yul\":13948:14079   */\n      tag_493\n        /* \"#utility.yul\":14074:14078   */\n      dup2\n        /* \"#utility.yul\":13948:14079   */\n      tag_325\n      jump\t// in\n    tag_493:\n        /* \"#utility.yul\":13940:14079   */\n      swap1\n      pop\n        /* \"#utility.yul\":13667:14086   */\n      swap2\n      swap1\n      pop\n      jump\t// out\n        /* \"#utility.yul\":14092:14266   */\n    tag_326:\n        /* \"#utility.yul\":14232:14258   */\n      0x4552433732313a20696e76616c696420746f6b656e2049440000000000000000\n        /* \"#utility.yul\":14228:14229   */\n      0x00\n        /* \"#utility.yul\":14220:14226   */\n      dup3\n        /* \"#utility.yul\":14216:14230   */\n      add\n        /* \"#utility.yul\":14209:14259   */\n      mstore\n        /* \"#utility.yul\":14092:14266   */\n      pop\n      jump\t// out\n        /* \"#utility.yul\":14272:14638   */\n    tag_327:\n        /* \"#utility.yul\":14414:14417   */\n      0x00\n        /* \"#utility.yul\":14435:14502   */\n      tag_496\n        /* \"#utility.yul\":14499:14501   */\n      0x18\n        /* \"#utility.yul\":14494:14497   */\n      dup4\n        /* \"#utility.yul\":14435:14502   */\n      tag_296\n      jump\t// in\n    tag_496:\n        /* \"#utility.yul\":14428:14502   */\n      swap2\n      pop\n        /* \"#utility.yul\":14511:14604   */\n      tag_497\n        /* \"#utility.yul\":14600:14603   */\n      dup3\n        /* \"#utility.yul\":14511:14604   */\n      tag_326\n      jump\t// in\n    tag_497:\n        /* \"#utility.yul\":14629:14631   */\n      0x20\n        /* \"#utility.yul\":14624:14627   */\n      dup3\n        /* \"#utility.yul\":14620:14632   */\n      add\n        /* \"#utility.yul\":14613:14632   */\n      swap1\n      pop\n        /* \"#utility.yul\":14272:14638   */\n      swap2\n      swap1\n      pop\n      jump\t// out\n        /* \"#utility.yul\":14644:15063   */\n    tag_126:\n        /* \"#utility.yul\":14810:14814   */\n      0x00\n        /* \"#utility.yul\":14848:14850   */\n      0x20\n        /* \"#utility.yul\":14837:14846   */\n      dup3\n        /* \"#utility.yul\":14833:14851   */\n      add\n        /* \"#utility.yul\":14825:14851   */\n      swap1\n      pop\n        /* \"#utility.yul\":14897:14906   */\n      dup2\n        /* \"#utility.yul\":14891:14895   */\n      dup2\n        /* \"#utility.yul\":14887:14907   */\n      sub\n        /* \"#utility.yul\":14883:14884   */\n      0x00\n        /* \"#utility.yul\":14872:14881   */\n      dup4\n        /* \"#utility.yul\":14868:14885   */\n      add\n        /* \"#utility.yul\":14861:14908   */\n      mstore\n        /* \"#utility.yul\":14925:15056   */\n      tag_499\n        /* \"#utility.yul\":15051:15055   */\n      dup2\n        /* \"#utility.yul\":14925:15056   */\n      tag_327\n      jump\t// in\n    tag_499:\n        /* \"#utility.yul\":14917:15056   */\n      swap1\n      pop\n        /* \"#utility.yul\":14644:15063   */\n      swap2\n      swap1\n      pop\n      jump\t// out\n        /* \"#utility.yul\":15069:15297   */\n    tag_328:\n        /* \"#utility.yul\":15209:15243   */\n      0x4552433732313a2061646472657373207a65726f206973206e6f742061207661\n        /* \"#utility.yul\":15205:15206   */\n      0x00\n        /* \"#utility.yul\":15197:15203   */\n      dup3\n        /* \"#utility.yul\":15193:15207   */\n      add\n        /* \"#utility.yul\":15186:15244   */\n      mstore\n        /* \"#utility.yul\":15278:15289   */\n      0x6c6964206f776e65720000000000000000000000000000000000000000000000\n        /* \"#utility.yul\":15273:15275   */\n      0x20\n        /* \"#utility.yul\":15265:15271   */\n      dup3\n        /* \"#utility.yul\":15261:15276   */\n      add\n        /* \"#utility.yul\":15254:15290   */\n      mstore\n        /* \"#utility.yul\":15069:15297   */\n      pop\n      jump\t// out\n        /* \"#utility.yul\":15303:15669   */\n    tag_329:\n        /* \"#utility.yul\":15445:15448   */\n      0x00\n        /* \"#utility.yul\":15466:15533   */\n      tag_502\n        /* \"#utility.yul\":15530:15532   */\n      0x29\n        /* \"#utility.yul\":15525:15528   */\n      dup4\n        /* \"#utility.yul\":15466:15533   */\n      tag_296\n      jump\t// in\n    tag_502:\n        /* \"#utility.yul\":15459:15533   */\n      swap2\n      pop\n        /* \"#utility.yul\":15542:15635   */\n      tag_503\n        /* \"#utility.yul\":15631:15634   */\n      dup3\n        /* \"#utility.yul\":15542:15635   */\n      tag_328\n      jump\t// in\n    tag_503:\n        /* \"#utility.yul\":15660:15662   */\n      0x40\n        /* \"#utility.yul\":15655:15658   */\n      dup3\n        /* \"#utility.yul\":15651:15663   */\n      add\n        /* \"#utility.yul\":15644:15663   */\n      swap1\n      pop\n        /* \"#utility.yul\":15303:15669   */\n      swap2\n      swap1\n      pop\n      jump\t// out\n        /* \"#utility.yul\":15675:16094   */\n    tag_130:\n        /* \"#utility.yul\":15841:15845   */\n      0x00\n        /* \"#utility.yul\":15879:15881   */\n      0x20\n        /* \"#utility.yul\":15868:15877   */\n      dup3\n        /* \"#utility.yul\":15864:15882   */\n      add\n        /* \"#utility.yul\":15856:15882   */\n      swap1\n      pop\n        /* \"#utility.yul\":15928:15937   */\n      dup2\n        /* \"#utility.yul\":15922:15926   */\n      dup2\n        /* \"#utility.yul\":15918:15938   */\n      sub\n        /* \"#utility.yul\":15914:15915   */\n      0x00\n        /* \"#utility.yul\":15903:15912   */\n      dup4\n        /* \"#utility.yul\":15899:15916   */\n      add\n        /* \"#utility.yul\":15892:15939   */\n      mstore\n        /* \"#utility.yul\":15956:16087   */\n      tag_505\n        /* \"#utility.yul\":16082:16086   */\n      dup2\n        /* \"#utility.yul\":15956:16087   */\n      tag_329\n      jump\t// in\n    tag_505:\n        /* \"#utility.yul\":15948:16087   */\n      swap1\n      pop\n        /* \"#utility.yul\":15675:16094   */\n      swap2\n      swap1\n      pop\n      jump\t// out\n        /* \"#utility.yul\":16100:16248   */\n    tag_330:\n        /* \"#utility.yul\":16202:16213   */\n      0x00\n        /* \"#utility.yul\":16239:16242   */\n      dup2\n        /* \"#utility.yul\":16224:16242   */\n      swap1\n      pop\n        /* \"#utility.yul\":16100:16248   */\n      swap3\n      swap2\n      pop\n      pop\n      jump\t// out\n        /* \"#utility.yul\":16254:16644   */\n    tag_331:\n        /* \"#utility.yul\":16360:16363   */\n      0x00\n        /* \"#utility.yul\":16388:16427   */\n      tag_508\n        /* \"#utility.yul\":16421:16426   */\n      dup3\n        /* \"#utility.yul\":16388:16427   */\n      tag_295\n      jump\t// in\n    tag_508:\n        /* \"#utility.yul\":16443:16532   */\n      tag_509\n        /* \"#utility.yul\":16525:16531   */\n      dup2\n        /* \"#utility.yul\":16520:16523   */\n      dup6\n        /* \"#utility.yul\":16443:16532   */\n      tag_330\n      jump\t// in\n    tag_509:\n        /* \"#utility.yul\":16436:16532   */\n      swap4\n      pop\n        /* \"#utility.yul\":16541:16606   */\n      tag_510\n        /* \"#utility.yul\":16599:16605   */\n      dup2\n        /* \"#utility.yul\":16594:16597   */\n      dup6\n        /* \"#utility.yul\":16587:16591   */\n      0x20\n        /* \"#utility.yul\":16580:16585   */\n      dup7\n        /* \"#utility.yul\":16576:16592   */\n      add\n        /* \"#utility.yul\":16541:16606   */\n      tag_297\n      jump\t// in\n    tag_510:\n        /* \"#utility.yul\":16631:16637   */\n      dup1\n        /* \"#utility.yul\":16626:16629   */\n      dup5\n        /* \"#utility.yul\":16622:16638   */\n      add\n        /* \"#utility.yul\":16615:16638   */\n      swap2\n      pop\n        /* \"#utility.yul\":16364:16644   */\n      pop\n        /* \"#utility.yul\":16254:16644   */\n      swap3\n      swap2\n      pop\n      pop\n      jump\t// out\n        /* \"#utility.yul\":16650:17085   */\n    tag_160:\n        /* \"#utility.yul\":16830:16833   */\n      0x00\n        /* \"#utility.yul\":16852:16947   */\n      tag_512\n        /* \"#utility.yul\":16943:16946   */\n      dup3\n        /* \"#utility.yul\":16934:16940   */\n      dup6\n        /* \"#utility.yul\":16852:16947   */\n      tag_331\n      jump\t// in\n    tag_512:\n        /* \"#utility.yul\":16845:16947   */\n      swap2\n      pop\n        /* \"#utility.yul\":16964:17059   */\n      tag_513\n        /* \"#utility.yul\":17055:17058   */\n      dup3\n        /* \"#utility.yul\":17046:17052   */\n      dup5\n        /* \"#utility.yul\":16964:17059   */\n      tag_331\n      jump\t// in\n    tag_513:\n        /* \"#utility.yul\":16957:17059   */\n      swap2\n      pop\n        /* \"#utility.yul\":17076:17079   */\n      dup2\n        /* \"#utility.yul\":17069:17079   */\n      swap1\n      pop\n        /* \"#utility.yul\":16650:17085   */\n      swap4\n      swap3\n      pop\n      pop\n      pop\n      jump\t// out\n        /* \"#utility.yul\":17091:17315   */\n    tag_332:\n        /* \"#utility.yul\":17231:17265   */\n      0x4552433732313a207472616e736665722066726f6d20696e636f727265637420\n        /* \"#utility.yul\":17227:17228   */\n      0x00\n        /* \"#utility.yul\":17219:17225   */\n      dup3\n        /* \"#utility.yul\":17215:17229   */\n      add\n        /* \"#utility.yul\":17208:17266   */\n      mstore\n        /* \"#utility.yul\":17300:17307   */\n      0x6f776e6572000000000000000000000000000000000000000000000000000000\n        /* \"#utility.yul\":17295:17297   */\n      0x20\n        /* \"#utility.yul\":17287:17293   */\n      dup3\n        /* \"#utility.yul\":17283:17298   */\n      add\n        /* \"#utility.yul\":17276:17308   */\n      mstore\n        /* \"#utility.yul\":17091:17315   */\n      pop\n      jump\t// out\n        /* \"#utility.yul\":17321:17687   */\n    tag_333:\n        /* \"#utility.yul\":17463:17466   */\n      0x00\n        /* \"#utility.yul\":17484:17551   */\n      tag_516\n        /* \"#utility.yul\":17548:17550   */\n      0x25\n        /* \"#utility.yul\":17543:17546   */\n      dup4\n        /* \"#utility.yul\":17484:17551   */\n      tag_296\n      jump\t// in\n    tag_516:\n        /* \"#utility.yul\":17477:17551   */\n      swap2\n      pop\n        /* \"#utility.yul\":17560:17653   */\n      tag_517\n        /* \"#utility.yul\":17649:17652   */\n      dup3\n        /* \"#utility.yul\":17560:17653   */\n      tag_332\n      jump\t// in\n    tag_517:\n        /* \"#utility.yul\":17678:17680   */\n      0x40\n        /* \"#utility.yul\":17673:17676   */\n      dup3\n        /* \"#utility.yul\":17669:17681   */\n      add\n        /* \"#utility.yul\":17662:17681   */\n      swap1\n      pop\n        /* \"#utility.yul\":17321:17687   */\n      swap2\n      swap1\n      pop\n      jump\t// out\n        /* \"#utility.yul\":17693:18112   */\n    tag_181:\n        /* \"#utility.yul\":17859:17863   */\n      0x00\n        /* \"#utility.yul\":17897:17899   */\n      0x20\n        /* \"#utility.yul\":17886:17895   */\n      dup3\n        /* \"#utility.yul\":17882:17900   */\n      add\n        /* \"#utility.yul\":17874:17900   */\n      swap1\n      pop\n        /* \"#utility.yul\":17946:17955   */\n      dup2\n        /* \"#utility.yul\":17940:17944   */\n      dup2\n        /* \"#utility.yul\":17936:17956   */\n      sub\n        /* \"#utility.yul\":17932:17933   */\n      0x00\n        /* \"#utility.yul\":17921:17930   */\n      dup4\n        /* \"#utility.yul\":17917:17934   */\n      add\n        /* \"#utility.yul\":17910:17957   */\n      mstore\n        /* \"#utility.yul\":17974:18105   */\n      tag_519\n        /* \"#utility.yul\":18100:18104   */\n      dup2\n        /* \"#utility.yul\":17974:18105   */\n      tag_333\n      jump\t// in\n    tag_519:\n        /* \"#utility.yul\":17966:18105   */\n      swap1\n      pop\n        /* \"#utility.yul\":17693:18112   */\n      swap2\n      swap1\n      pop\n      jump\t// out\n        /* \"#utility.yul\":18118:18341   */\n    tag_334:\n        /* \"#utility.yul\":18258:18292   */\n      0x4552433732313a207472616e7366657220746f20746865207a65726f20616464\n        /* \"#utility.yul\":18254:18255   */\n      0x00\n        /* \"#utility.yul\":18246:18252   */\n      dup3\n        /* \"#utility.yul\":18242:18256   */\n      add\n        /* \"#utility.yul\":18235:18293   */\n      mstore\n        /* \"#utility.yul\":18327:18333   */\n      0x7265737300000000000000000000000000000000000000000000000000000000\n        /* \"#utility.yul\":18322:18324   */\n      0x20\n        /* \"#utility.yul\":18314:18320   */\n      dup3\n        /* \"#utility.yul\":18310:18325   */\n      add\n        /* \"#utility.yul\":18303:18334   */\n      mstore\n        /* \"#utility.yul\":18118:18341   */\n      pop\n      jump\t// out\n        /* \"#utility.yul\":18347:18713   */\n    tag_335:\n        /* \"#utility.yul\":18489:18492   */\n      0x00\n        /* \"#utility.yul\":18510:18577   */\n      tag_522\n        /* \"#utility.yul\":18574:18576   */\n      0x24\n        /* \"#utility.yul\":18569:18572   */\n      dup4\n        /* \"#utility.yul\":18510:18577   */\n      tag_296\n      jump\t// in\n    tag_522:\n        /* \"#utility.yul\":18503:18577   */\n      swap2\n      pop\n        /* \"#utility.yul\":18586:18679   */\n      tag_523\n        /* \"#utility.yul\":18675:18678   */\n      dup3\n        /* \"#utility.yul\":18586:18679   */\n      tag_334\n      jump\t// in\n    tag_523:\n        /* \"#utility.yul\":18704:18706   */\n      0x40\n        /* \"#utility.yul\":18699:18702   */\n      dup3\n        /* \"#utility.yul\":18695:18707   */\n      add\n        /* \"#utility.yul\":18688:18707   */\n      swap1\n      pop\n        /* \"#utility.yul\":18347:18713   */\n      swap2\n      swap1\n      pop\n      jump\t// out\n        /* \"#utility.yul\":18719:19138   */\n    tag_184:\n        /* \"#utility.yul\":18885:18889   */\n      0x00\n        /* \"#utility.yul\":18923:18925   */\n      0x20\n        /* \"#utility.yul\":18912:18921   */\n      dup3\n        /* \"#utility.yul\":18908:18926   */\n      add\n        /* \"#utility.yul\":18900:18926   */\n      swap1\n      pop\n        /* \"#utility.yul\":18972:18981   */\n      dup2\n        /* \"#utility.yul\":18966:18970   */\n      dup2\n        /* \"#utility.yul\":18962:18982   */\n      sub\n        /* \"#utility.yul\":18958:18959   */\n      0x00\n        /* \"#utility.yul\":18947:18956   */\n      dup4\n        /* \"#utility.yul\":18943:18960   */\n      add\n        /* \"#utility.yul\":18936:18983   */\n      mstore\n        /* \"#utility.yul\":19000:19131   */\n      tag_525\n        /* \"#utility.yul\":19126:19130   */\n      dup2\n        /* \"#utility.yul\":19000:19131   */\n      tag_335\n      jump\t// in\n    tag_525:\n        /* \"#utility.yul\":18992:19131   */\n      swap1\n      pop\n        /* \"#utility.yul\":18719:19138   */\n      swap2\n      swap1\n      pop\n      jump\t// out\n        /* \"#utility.yul\":19144:19319   */\n    tag_336:\n        /* \"#utility.yul\":19284:19311   */\n      0x4552433732313a20617070726f766520746f2063616c6c657200000000000000\n        /* \"#utility.yul\":19280:19281   */\n      0x00\n        /* \"#utility.yul\":19272:19278   */\n      dup3\n        /* \"#utility.yul\":19268:19282   */\n      add\n        /* \"#utility.yul\":19261:19312   */\n      mstore\n        /* \"#utility.yul\":19144:19319   */\n      pop\n      jump\t// out\n        /* \"#utility.yul\":19325:19691   */\n    tag_337:\n        /* \"#utility.yul\":19467:19470   */\n      0x00\n        /* \"#utility.yul\":19488:19555   */\n      tag_528\n        /* \"#utility.yul\":19552:19554   */\n      0x19\n        /* \"#utility.yul\":19547:19550   */\n      dup4\n        /* \"#utility.yul\":19488:19555   */\n      tag_296\n      jump\t// in\n    tag_528:\n        /* \"#utility.yul\":19481:19555   */\n      swap2\n      pop\n        /* \"#utility.yul\":19564:19657   */\n      tag_529\n        /* \"#utility.yul\":19653:19656   */\n      dup3\n        /* \"#utility.yul\":19564:19657   */\n      tag_336\n      jump\t// in\n    tag_529:\n        /* \"#utility.yul\":19682:19684   */\n      0x20\n        /* \"#utility.yul\":19677:19680   */\n      dup3\n        /* \"#utility.yul\":19673:19685   */\n      add\n        /* \"#utility.yul\":19666:19685   */\n      swap1\n      pop\n        /* \"#utility.yul\":19325:19691   */\n      swap2\n      swap1\n      pop\n      jump\t// out\n        /* \"#utility.yul\":19697:20116   */\n    tag_199:\n        /* \"#utility.yul\":19863:19867   */\n      0x00\n        /* \"#utility.yul\":19901:19903   */\n      0x20\n        /* \"#utility.yul\":19890:19899   */\n      dup3\n        /* \"#utility.yul\":19886:19904   */\n      add\n        /* \"#utility.yul\":19878:19904   */\n      swap1\n      pop\n        /* \"#utility.yul\":19950:19959   */\n      dup2\n        /* \"#utility.yul\":19944:19948   */\n      dup2\n        /* \"#utility.yul\":19940:19960   */\n      sub\n        /* \"#utility.yul\":19936:19937   */\n      0x00\n        /* \"#utility.yul\":19925:19934   */\n      dup4\n        /* \"#utility.yul\":19921:19938   */\n      add\n        /* \"#utility.yul\":19914:19961   */\n      mstore\n        /* \"#utility.yul\":19978:20109   */\n      tag_531\n        /* \"#utility.yul\":20104:20108   */\n      dup2\n        /* \"#utility.yul\":19978:20109   */\n      tag_337\n      jump\t// in\n    tag_531:\n        /* \"#utility.yul\":19970:20109   */\n      swap1\n      pop\n        /* \"#utility.yul\":19697:20116   */\n      swap2\n      swap1\n      pop\n      jump\t// out\n        /* \"#utility.yul\":20122:20359   */\n    tag_338:\n        /* \"#utility.yul\":20262:20296   */\n      0x4552433732313a207472616e7366657220746f206e6f6e204552433732315265\n        /* \"#utility.yul\":20258:20259   */\n      0x00\n        /* \"#utility.yul\":20250:20256   */\n      dup3\n        /* \"#utility.yul\":20246:20260   */\n      add\n        /* \"#utility.yul\":20239:20297   */\n      mstore\n        /* \"#utility.yul\":20331:20351   */\n      0x63656976657220696d706c656d656e7465720000000000000000000000000000\n        /* \"#utility.yul\":20326:20328   */\n      0x20\n        /* \"#utility.yul\":20318:20324   */\n      dup3\n        /* \"#utility.yul\":20314:20329   */\n      add\n        /* \"#utility.yul\":20307:20352   */\n      mstore\n        /* \"#utility.yul\":20122:20359   */\n      pop\n      jump\t// out\n        /* \"#utility.yul\":20365:20731   */\n    tag_339:\n        /* \"#utility.yul\":20507:20510   */\n      0x00\n        /* \"#utility.yul\":20528:20595   */\n      tag_534\n        /* \"#utility.yul\":20592:20594   */\n      0x32\n        /* \"#utility.yul\":20587:20590   */\n      dup4\n        /* \"#utility.yul\":20528:20595   */\n      tag_296\n      jump\t// in\n    tag_534:\n        /* \"#utility.yul\":20521:20595   */\n      swap2\n      pop\n        /* \"#utility.yul\":20604:20697   */\n      tag_535\n        /* \"#utility.yul\":20693:20696   */\n      dup3\n        /* \"#utility.yul\":20604:20697   */\n      tag_338\n      jump\t// in\n    tag_535:\n        /* \"#utility.yul\":20722:20724   */\n      0x40\n        /* \"#utility.yul\":20717:20720   */\n      dup3\n        /* \"#utility.yul\":20713:20725   */\n      add\n        /* \"#utility.yul\":20706:20725   */\n      swap1\n      pop\n        /* \"#utility.yul\":20365:20731   */\n      swap2\n      swap1\n      pop\n      jump\t// out\n        /* \"#utility.yul\":20737:21156   */\n    tag_207:\n        /* \"#utility.yul\":20903:20907   */\n      0x00\n        /* \"#utility.yul\":20941:20943   */\n      0x20\n        /* \"#utility.yul\":20930:20939   */\n      dup3\n        /* \"#utility.yul\":20926:20944   */\n      add\n        /* \"#utility.yul\":20918:20944   */\n      swap1\n      pop\n        /* \"#utility.yul\":20990:20999   */\n      dup2\n        /* \"#utility.yul\":20984:20988   */\n      dup2\n        /* \"#utility.yul\":20980:21000   */\n      sub\n        /* \"#utility.yul\":20976:20977   */\n      0x00\n        /* \"#utility.yul\":20965:20974   */\n      dup4\n        /* \"#utility.yul\":20961:20978   */\n      add\n        /* \"#utility.yul\":20954:21001   */\n      mstore\n        /* \"#utility.yul\":21018:21149   */\n      tag_537\n        /* \"#utility.yul\":21144:21148   */\n      dup2\n        /* \"#utility.yul\":21018:21149   */\n      tag_339\n      jump\t// in\n    tag_537:\n        /* \"#utility.yul\":21010:21149   */\n      swap1\n      pop\n        /* \"#utility.yul\":20737:21156   */\n      swap2\n      swap1\n      pop\n      jump\t// out\n        /* \"#utility.yul\":21162:21342   */\n    tag_220:\n        /* \"#utility.yul\":21210:21287   */\n      0x4e487b7100000000000000000000000000000000000000000000000000000000\n        /* \"#utility.yul\":21207:21208   */\n      0x00\n        /* \"#utility.yul\":21200:21288   */\n      mstore\n        /* \"#utility.yul\":21307:21311   */\n      0x12\n        /* \"#utility.yul\":21304:21305   */\n      0x04\n        /* \"#utility.yul\":21297:21312   */\n      mstore\n        /* \"#utility.yul\":21331:21335   */\n      0x24\n        /* \"#utility.yul\":21328:21329   */\n      0x00\n        /* \"#utility.yul\":21321:21336   */\n      revert\n        /* \"#utility.yul\":21348:21446   */\n    tag_340:\n        /* \"#utility.yul\":21399:21405   */\n      0x00\n        /* \"#utility.yul\":21433:21438   */\n      dup2\n        /* \"#utility.yul\":21427:21439   */\n      mload\n        /* \"#utility.yul\":21417:21439   */\n      swap1\n      pop\n        /* \"#utility.yul\":21348:21446   */\n      swap2\n      swap1\n      pop\n      jump\t// out\n        /* \"#utility.yul\":21452:21620   */\n    tag_341:\n        /* \"#utility.yul\":21535:21546   */\n      0x00\n        /* \"#utility.yul\":21569:21575   */\n      dup3\n        /* \"#utility.yul\":21564:21567   */\n      dup3\n        /* \"#utility.yul\":21557:21576   */\n      mstore\n        /* \"#utility.yul\":21609:21613   */\n      0x20\n        /* \"#utility.yul\":21604:21607   */\n      dup3\n        /* \"#utility.yul\":21600:21614   */\n      add\n        /* \"#utility.yul\":21585:21614   */\n      swap1\n      pop\n        /* \"#utility.yul\":21452:21620   */\n      swap3\n      swap2\n      pop\n      pop\n      jump\t// out\n        /* \"#utility.yul\":21626:21999   */\n    tag_342:\n        /* \"#utility.yul\":21712:21715   */\n      0x00\n        /* \"#utility.yul\":21740:21778   */\n      tag_542\n        /* \"#utility.yul\":21772:21777   */\n      dup3\n        /* \"#utility.yul\":21740:21778   */\n      tag_340\n      jump\t// in\n    tag_542:\n        /* \"#utility.yul\":21794:21864   */\n      tag_543\n        /* \"#utility.yul\":21857:21863   */\n      dup2\n        /* \"#utility.yul\":21852:21855   */\n      dup6\n        /* \"#utility.yul\":21794:21864   */\n      tag_341\n      jump\t// in\n    tag_543:\n        /* \"#utility.yul\":21787:21864   */\n      swap4\n      pop\n        /* \"#utility.yul\":21873:21938   */\n      tag_544\n        /* \"#utility.yul\":21931:21937   */\n      dup2\n        /* \"#utility.yul\":21926:21929   */\n      dup6\n        /* \"#utility.yul\":21919:21923   */\n      0x20\n        /* \"#utility.yul\":21912:21917   */\n      dup7\n        /* \"#utility.yul\":21908:21924   */\n      add\n        /* \"#utility.yul\":21873:21938   */\n      tag_297\n      jump\t// in\n    tag_544:\n        /* \"#utility.yul\":21963:21992   */\n      tag_545\n        /* \"#utility.yul\":21985:21991   */\n      dup2\n        /* \"#utility.yul\":21963:21992   */\n      tag_298\n      jump\t// in\n    tag_545:\n        /* \"#utility.yul\":21958:21961   */\n      dup5\n        /* \"#utility.yul\":21954:21993   */\n      add\n        /* \"#utility.yul\":21947:21993   */\n      swap2\n      pop\n        /* \"#utility.yul\":21716:21999   */\n      pop\n        /* \"#utility.yul\":21626:21999   */\n      swap3\n      swap2\n      pop\n      pop\n      jump\t// out\n        /* \"#utility.yul\":22005:22645   */\n    tag_238:\n        /* \"#utility.yul\":22200:22204   */\n      0x00\n        /* \"#utility.yul\":22238:22241   */\n      0x80\n        /* \"#utility.yul\":22227:22236   */\n      dup3\n        /* \"#utility.yul\":22223:22242   */\n      add\n        /* \"#utility.yul\":22215:22242   */\n      swap1\n      pop\n        /* \"#utility.yul\":22252:22323   */\n      tag_547\n        /* \"#utility.yul\":22320:22321   */\n      0x00\n        /* \"#utility.yul\":22309:22318   */\n      dup4\n        /* \"#utility.yul\":22305:22322   */\n      add\n        /* \"#utility.yul\":22296:22302   */\n      dup8\n        /* \"#utility.yul\":22252:22323   */\n      tag_305\n      jump\t// in\n    tag_547:\n        /* \"#utility.yul\":22333:22405   */\n      tag_548\n        /* \"#utility.yul\":22401:22403   */\n      0x20\n        /* \"#utility.yul\":22390:22399   */\n      dup4\n        /* \"#utility.yul\":22386:22404   */\n      add\n        /* \"#utility.yul\":22377:22383   */\n      dup7\n        /* \"#utility.yul\":22333:22405   */\n      tag_305\n      jump\t// in\n    tag_548:\n        /* \"#utility.yul\":22415:22487   */\n      tag_549\n        /* \"#utility.yul\":22483:22485   */\n      0x40\n        /* \"#utility.yul\":22472:22481   */\n      dup4\n        /* \"#utility.yul\":22468:22486   */\n      add\n        /* \"#utility.yul\":22459:22465   */\n      dup6\n        /* \"#utility.yul\":22415:22487   */\n      tag_308\n      jump\t// in\n    tag_549:\n        /* \"#utility.yul\":22534:22543   */\n      dup2\n        /* \"#utility.yul\":22528:22532   */\n      dup2\n        /* \"#utility.yul\":22524:22544   */\n      sub\n        /* \"#utility.yul\":22519:22521   */\n      0x60\n        /* \"#utility.yul\":22508:22517   */\n      dup4\n        /* \"#utility.yul\":22504:22522   */\n      add\n        /* \"#utility.yul\":22497:22545   */\n      mstore\n        /* \"#utility.yul\":22562:22638   */\n      tag_550\n        /* \"#utility.yul\":22633:22637   */\n      dup2\n        /* \"#utility.yul\":22624:22630   */\n      dup5\n        /* \"#utility.yul\":22562:22638   */\n      tag_342\n      jump\t// in\n    tag_550:\n        /* \"#utility.yul\":22554:22638   */\n      swap1\n      pop\n        /* \"#utility.yul\":22005:22645   */\n      swap6\n      swap5\n      pop\n      pop\n      pop\n      pop\n      pop\n      jump\t// out\n        /* \"#utility.yul\":22651:22792   */\n    tag_343:\n        /* \"#utility.yul\":22707:22712   */\n      0x00\n        /* \"#utility.yul\":22738:22744   */\n      dup2\n        /* \"#utility.yul\":22732:22745   */\n      mload\n        /* \"#utility.yul\":22723:22745   */\n      swap1\n      pop\n        /* \"#utility.yul\":22754:22786   */\n      tag_552\n        /* \"#utility.yul\":22780:22785   */\n      dup2\n        /* \"#utility.yul\":22754:22786   */\n      tag_291\n      jump\t// in\n    tag_552:\n        /* \"#utility.yul\":22651:22792   */\n      swap3\n      swap2\n      pop\n      pop\n      jump\t// out\n        /* \"#utility.yul\":22798:23147   */\n    tag_241:\n        /* \"#utility.yul\":22867:22873   */\n      0x00\n        /* \"#utility.yul\":22916:22918   */\n      0x20\n        /* \"#utility.yul\":22904:22913   */\n      dup3\n        /* \"#utility.yul\":22895:22902   */\n      dup5\n        /* \"#utility.yul\":22891:22914   */\n      sub\n        /* \"#utility.yul\":22887:22919   */\n      slt\n        /* \"#utility.yul\":22884:23003   */\n      iszero\n      tag_554\n      jumpi\n        /* \"#utility.yul\":22922:23001   */\n      tag_555\n      tag_288\n      jump\t// in\n    tag_555:\n        /* \"#utility.yul\":22884:23003   */\n    tag_554:\n        /* \"#utility.yul\":23042:23043   */\n      0x00\n        /* \"#utility.yul\":23067:23130   */\n      tag_556\n        /* \"#utility.yul\":23122:23129   */\n      dup5\n        /* \"#utility.yul\":23113:23119   */\n      dup3\n        /* \"#utility.yul\":23102:23111   */\n      dup6\n        /* \"#utility.yul\":23098:23120   */\n      add\n        /* \"#utility.yul\":23067:23130   */\n      tag_343\n      jump\t// in\n    tag_556:\n        /* \"#utility.yul\":23057:23130   */\n      swap2\n      pop\n        /* \"#utility.yul\":23013:23140   */\n      pop\n        /* \"#utility.yul\":22798:23147   */\n      swap3\n      swap2\n      pop\n      pop\n      jump\t// out\n        /* \"#utility.yul\":23153:23335   */\n    tag_344:\n        /* \"#utility.yul\":23293:23327   */\n      0x4552433732313a206d696e7420746f20746865207a65726f2061646472657373\n        /* \"#utility.yul\":23289:23290   */\n      0x00\n        /* \"#utility.yul\":23281:23287   */\n      dup3\n        /* \"#utility.yul\":23277:23291   */\n      add\n        /* \"#utility.yul\":23270:23328   */\n      mstore\n        /* \"#utility.yul\":23153:23335   */\n      pop\n      jump\t// out\n        /* \"#utility.yul\":23341:23707   */\n    tag_345:\n        /* \"#utility.yul\":23483:23486   */\n      0x00\n        /* \"#utility.yul\":23504:23571   */\n      tag_559\n        /* \"#utility.yul\":23568:23570   */\n      0x20\n        /* \"#utility.yul\":23563:23566   */\n      dup4\n        /* \"#utility.yul\":23504:23571   */\n      tag_296\n      jump\t// in\n    tag_559:\n        /* \"#utility.yul\":23497:23571   */\n      swap2\n      pop\n        /* \"#utility.yul\":23580:23673   */\n      tag_560\n        /* \"#utility.yul\":23669:23672   */\n      dup3\n        /* \"#utility.yul\":23580:23673   */\n      tag_344\n      jump\t// in\n    tag_560:\n        /* \"#utility.yul\":23698:23700   */\n      0x20\n        /* \"#utility.yul\":23693:23696   */\n      dup3\n        /* \"#utility.yul\":23689:23701   */\n      add\n        /* \"#utility.yul\":23682:23701   */\n      swap1\n      pop\n        /* \"#utility.yul\":23341:23707   */\n      swap2\n      swap1\n      pop\n      jump\t// out\n        /* \"#utility.yul\":23713:24132   */\n    tag_276:\n        /* \"#utility.yul\":23879:23883   */\n      0x00\n        /* \"#utility.yul\":23917:23919   */\n      0x20\n        /* \"#utility.yul\":23906:23915   */\n      dup3\n        /* \"#utility.yul\":23902:23920   */\n      add\n        /* \"#utility.yul\":23894:23920   */\n      swap1\n      pop\n        /* \"#utility.yul\":23966:23975   */\n      dup2\n        /* \"#utility.yul\":23960:23964   */\n      dup2\n        /* \"#utility.yul\":23956:23976   */\n      sub\n        /* \"#utility.yul\":23952:23953   */\n      0x00\n        /* \"#utility.yul\":23941:23950   */\n      dup4\n        /* \"#utility.yul\":23937:23954   */\n      add\n        /* \"#utility.yul\":23930:23977   */\n      mstore\n        /* \"#utility.yul\":23994:24125   */\n      tag_562\n        /* \"#utility.yul\":24120:24124   */\n      dup2\n        /* \"#utility.yul\":23994:24125   */\n      tag_345\n      jump\t// in\n    tag_562:\n        /* \"#utility.yul\":23986:24125   */\n      swap1\n      pop\n        /* \"#utility.yul\":23713:24132   */\n      swap2\n      swap1\n      pop\n      jump\t// out\n        /* \"#utility.yul\":24138:24316   */\n    tag_346:\n        /* \"#utility.yul\":24278:24308   */\n      0x4552433732313a20746f6b656e20616c7265616479206d696e74656400000000\n        /* \"#utility.yul\":24274:24275   */\n      0x00\n        /* \"#utility.yul\":24266:24272   */\n      dup3\n        /* \"#utility.yul\":24262:24276   */\n      add\n        /* \"#utility.yul\":24255:24309   */\n      mstore\n        /* \"#utility.yul\":24138:24316   */\n      pop\n      jump\t// out\n        /* \"#utility.yul\":24322:24688   */\n    tag_347:\n        /* \"#utility.yul\":24464:24467   */\n      0x00\n        /* \"#utility.yul\":24485:24552   */\n      tag_565\n        /* \"#utility.yul\":24549:24551   */\n      0x1c\n        /* \"#utility.yul\":24544:24547   */\n      dup4\n        /* \"#utility.yul\":24485:24552   */\n      tag_296\n      jump\t// in\n    tag_565:\n        /* \"#utility.yul\":24478:24552   */\n      swap2\n      pop\n        /* \"#utility.yul\":24561:24654   */\n      tag_566\n        /* \"#utility.yul\":24650:24653   */\n      dup3\n        /* \"#utility.yul\":24561:24654   */\n      tag_346\n      jump\t// in\n    tag_566:\n        /* \"#utility.yul\":24679:24681   */\n      0x20\n        /* \"#utility.yul\":24674:24677   */\n      dup3\n        /* \"#utility.yul\":24670:24682   */\n      add\n        /* \"#utility.yul\":24663:24682   */\n      swap1\n      pop\n        /* \"#utility.yul\":24322:24688   */\n      swap2\n      swap1\n      pop\n      jump\t// out\n        /* \"#utility.yul\":24694:25113   */\n    tag_280:\n        /* \"#utility.yul\":24860:24864   */\n      0x00\n        /* \"#utility.yul\":24898:24900   */\n      0x20\n        /* \"#utility.yul\":24887:24896   */\n      dup3\n        /* \"#utility.yul\":24883:24901   */\n      add\n        /* \"#utility.yul\":24875:24901   */\n      swap1\n      pop\n        /* \"#utility.yul\":24947:24956   */\n      dup2\n        /* \"#utility.yul\":24941:24945   */\n      dup2\n        /* \"#utility.yul\":24937:24957   */\n      sub\n        /* \"#utility.yul\":24933:24934   */\n      0x00\n        /* \"#utility.yul\":24922:24931   */\n      dup4\n        /* \"#utility.yul\":24918:24935   */\n      add\n        /* \"#utility.yul\":24911:24958   */\n      mstore\n        /* \"#utility.yul\":24975:25106   */\n      tag_568\n        /* \"#utility.yul\":25101:25105   */\n      dup2\n        /* \"#utility.yul\":24975:25106   */\n      tag_347\n      jump\t// in\n    tag_568:\n        /* \"#utility.yul\":24967:25106   */\n      swap1\n      pop\n        /* \"#utility.yul\":24694:25113   */\n      swap2\n      swap1\n      pop\n      jump\t// out\n\n    auxdata: 0xa26469706673582212202e5102cb28b8b082e5ef7ca6ff1f18eed490122416856184696a0277b48ed26d64736f6c63430008120033\n}\n",
				"bytecode": {
					"linkReferences": {},
					"object": "60806040523480156200001157600080fd5b5060405162002a8f38038062002a8f8339818101604052810190620000379190620001f6565b8160009081620000489190620004c6565b5080600190816200005a9190620004c6565b505050620005ad565b6000604051905090565b600080fd5b600080fd5b600080fd5b600080fd5b6000601f19601f8301169050919050565b7f4e487b7100000000000000000000000000000000000000000000000000000000600052604160045260246000fd5b620000cc8262000081565b810181811067ffffffffffffffff82111715620000ee57620000ed62000092565b5b80604052505050565b60006200010362000063565b9050620001118282620000c1565b919050565b600067ffffffffffffffff82111562000134576200013362000092565b5b6200013f8262000081565b9050602081019050919050565b60005b838110156200016c5780820151818401526020810190506200014f565b60008484015250505050565b60006200018f620001898462000116565b620000f7565b905082815260208101848484011115620001ae57620001ad6200007c565b5b620001bb8482856200014c565b509392505050565b600082601f830112620001db57620001da62000077565b5b8151620001ed84826020860162000178565b91505092915050565b6000806040838503121562000210576200020f6200006d565b5b600083015167ffffffffffffffff81111562000231576200023062000072565b5b6200023f85828601620001c3565b925050602083015167ffffffffffffffff81111562000263576200026262000072565b5b6200027185828601620001c3565b9150509250929050565b600081519050919050565b7f4e487b7100000000000000000000000000000000000000000000000000000000600052602260045260246000fd5b60006002820490506001821680620002ce57607f821691505b602082108103620002e457620002e362000286565b5b50919050565b60008190508160005260206000209050919050565b60006020601f8301049050919050565b600082821b905092915050565b6000600883026200034e7fffffffffffffffffffffffffffffffffffffffffffffffffffffffffffffffff826200030f565b6200035a86836200030f565b95508019841693508086168417925050509392505050565b6000819050919050565b6000819050919050565b6000620003a7620003a16200039b8462000372565b6200037c565b62000372565b9050919050565b6000819050919050565b620003c38362000386565b620003db620003d282620003ae565b8484546200031c565b825550505050565b600090565b620003f2620003e3565b620003ff818484620003b8565b505050565b5b8181101562000427576200041b600082620003e8565b60018101905062000405565b5050565b601f82111562000476576200044081620002ea565b6200044b84620002ff565b810160208510156200045b578190505b620004736200046a85620002ff565b83018262000404565b50505b505050565b600082821c905092915050565b60006200049b600019846008026200047b565b1980831691505092915050565b6000620004b6838362000488565b9150826002028217905092915050565b620004d1826200027b565b67ffffffffffffffff811115620004ed57620004ec62000092565b5b620004f98254620002b5565b620005068282856200042b565b600060209050601f8311600181146200053e576000841562000529578287015190505b620005358582620004a8565b865550620005a5565b601f1984166200054e86620002ea565b60005b82811015620005785784890151825560018201915060208501945060208101905062000551565b8683101562000598578489015162000594601f89168262000488565b8355505b6001600288020188555050505b505050505050565b6124d280620005bd6000396000f3fe608060405234801561001057600080fd5b50600436106100ea5760003560e01c806370a082311161008c578063a22cb46511610066578063a22cb4651461025b578063b88d4fde14610277578063c87b56dd14610293578063e985e9c5146102c3576100ea565b806370a08231146101f157806395d89b4114610221578063a0712d681461023f576100ea565b8063095ea7b3116100c8578063095ea7b31461016d57806323b872dd1461018957806342842e0e146101a55780636352211e146101c1576100ea565b806301ffc9a7146100ef57806306fdde031461011f578063081812fc1461013d575b600080fd5b610109600480360381019061010491906117ce565b6102f3565b6040516101169190611816565b60405180910390f35b6101276103d5565b60405161013491906118c1565b60405180910390f35b61015760048036038101906101529190611919565b610467565b6040516101649190611987565b60405180910390f35b610187600480360381019061018291906119ce565b6104ad565b005b6101a3600480360381019061019e9190611a0e565b6105c4565b005b6101bf60048036038101906101ba9190611a0e565b610624565b005b6101db60048036038101906101d69190611919565b610644565b6040516101e89190611987565b60405180910390f35b61020b60048036038101906102069190611a61565b6106ca565b6040516102189190611a9d565b60405180910390f35b610229610781565b60405161023691906118c1565b60405180910390f35b61025960048036038101906102549190611919565b610813565b005b61027560048036038101906102709190611ae4565b610820565b005b610291600480360381019061028c9190611c59565b610836565b005b6102ad60048036038101906102a89190611919565b610898565b6040516102ba91906118c1565b60405180910390f35b6102dd60048036038101906102d89190611cdc565b610900565b6040516102ea9190611816565b60405180910390f35b60007f20dd75a5000000000000000000000000000000000000000000000000000000007bffffffffffffffffffffffffffffffffffffffffffffffffffffffff1916827bffffffffffffffffffffffffffffffffffffffffffffffffffffffff191614806103be57507f5b5e139f000000000000000000000000000000000000000000000000000000007bffffffffffffffffffffffffffffffffffffffffffffffffffffffff1916827bffffffffffffffffffffffffffffffffffffffffffffffffffffffff1916145b806103ce57506103cd82610994565b5b9050919050565b6060600080546103e490611d4b565b80601f016020809104026020016040519081016040528092919081815260200182805461041090611d4b565b801561045d5780601f106104325761010080835404028352916020019161045d565b820191906000526020600020905b81548152906001019060200180831161044057829003601f168201915b5050505050905090565b6000610472826109fe565b6004600083815260200190815260200160002060009054906101000a900473ffffffffffffffffffffffffffffffffffffffff169050919050565b60006104b882610644565b90508073ffffffffffffffffffffffffffffffffffffffff168373ffffffffffffffffffffffffffffffffffffffff1603610528576040517f08c379a000000000000000000000000000000000000000000000000000000000815260040161051f90611dee565b60405180910390fd5b8073ffffffffffffffffffffffffffffffffffffffff16610547610a49565b73ffffffffffffffffffffffffffffffffffffffff161480610576575061057581610570610a49565b610900565b5b6105b5576040517f08c379a00000000000000000000000000000000000000000000000000000000081526004016105ac90611e80565b60405180910390fd5b6105bf8383610a51565b505050565b6105d56105cf610a49565b82610b0a565b610614576040517f08c379a000000000000000000000000000000000000000000000000000000000815260040161060b90611f12565b60405180910390fd5b61061f838383610b9f565b505050565b61063f83838360405180602001604052806000815250610836565b505050565b60008061065083610e98565b9050600073ffffffffffffffffffffffffffffffffffffffff168173ffffffffffffffffffffffffffffffffffffffff16036106c1576040517f08c379a00000000000000000000000000000000000000000000000000000000081526004016106b890611f7e565b60405180910390fd5b80915050919050565b60008073ffffffffffffffffffffffffffffffffffffffff168273ffffffffffffffffffffffffffffffffffffffff160361073a576040517f08c379a000000000000000000000000000000000000000000000000000000000815260040161073190612010565b60405180910390fd5b600360008373ffffffffffffffffffffffffffffffffffffffff1673ffffffffffffffffffffffffffffffffffffffff168152602001908152602001600020549050919050565b60606001805461079090611d4b565b80601f01602080910402602001604051908101604052809291908181526020018280546107bc90611d4b565b80156108095780601f106107de57610100808354040283529160200191610809565b820191906000526020600020905b8154815290600101906020018083116107ec57829003601f168201915b5050505050905090565b61081d3382610ed5565b50565b61083261082b610a49565b8383610ef3565b5050565b610847610841610a49565b83610b0a565b610886576040517f08c379a000000000000000000000000000000000000000000000000000000000815260040161087d90611f12565b60405180910390fd5b6108928484848461105f565b50505050565b60606108a3826109fe565b60006108ad6110bb565b905060008151116108cd57604051806020016040528060008152506108f8565b806108d7846110d2565b6040516020016108e892919061206c565b6040516020818303038152906040525b915050919050565b6000600560008473ffffffffffffffffffffffffffffffffffffffff1673ffffffffffffffffffffffffffffffffffffffff16815260200190815260200160002060008373ffffffffffffffffffffffffffffffffffffffff1673ffffffffffffffffffffffffffffffffffffffff16815260200190815260200160002060009054906101000a900460ff16905092915050565b60007f01ffc9a7000000000000000000000000000000000000000000000000000000007bffffffffffffffffffffffffffffffffffffffffffffffffffffffff1916827bffffffffffffffffffffffffffffffffffffffffffffffffffffffff1916149050919050565b610a07816111a0565b610a46576040517f08c379a0000000000000000000000000000000000000000000000000000000008152600401610a3d90611f7e565b60405180910390fd5b50565b600033905090565b816004600083815260200190815260200160002060006101000a81548173ffffffffffffffffffffffffffffffffffffffff021916908373ffffffffffffffffffffffffffffffffffffffff160217905550808273ffffffffffffffffffffffffffffffffffffffff16610ac483610644565b73ffffffffffffffffffffffffffffffffffffffff167f8c5be1e5ebec7d5bd14f71427d1e84f3dd0314c0f7b2291e5b200ac8c7c3b92560405160405180910390a45050565b600080610b1683610644565b90508073ffffffffffffffffffffffffffffffffffffffff168473ffffffffffffffffffffffffffffffffffffffff161480610b585750610b578185610900565b5b80610b9657508373ffffffffffffffffffffffffffffffffffffffff16610b7e84610467565b73ffffffffffffffffffffffffffffffffffffffff16145b91505092915050565b8273ffffffffffffffffffffffffffffffffffffffff16610bbf82610644565b73ffffffffffffffffffffffffffffffffffffffff1614610c15576040517f08c379a0000000000000000000000000000000000000000000000000000000008152600401610c0c90612102565b60405180910390fd5b600073ffffffffffffffffffffffffffffffffffffffff168273ffffffffffffffffffffffffffffffffffffffff1603610c84576040517f08c379a0000000000000000000000000000000000000000000000000000000008152600401610c7b90612194565b60405180910390fd5b610c9183838360016111e1565b8273ffffffffffffffffffffffffffffffffffffffff16610cb182610644565b73ffffffffffffffffffffffffffffffffffffffff1614610d07576040517f08c379a0000000000000000000000000000000000000000000000000000000008152600401610cfe90612102565b60405180910390fd5b6004600082815260200190815260200160002060006101000a81549073ffffffffffffffffffffffffffffffffffffffff02191690556001600360008573ffffffffffffffffffffffffffffffffffffffff1673ffffffffffffffffffffffffffffffffffffffff168152602001908152602001600020600082825403925050819055506001600360008473ffffffffffffffffffffffffffffffffffffffff1673ffffffffffffffffffffffffffffffffffffffff16815260200190815260200160002060008282540192505081905550816002600083815260200190815260200160002060006101000a81548173ffffffffffffffffffffffffffffffffffffffff021916908373ffffffffffffffffffffffffffffffffffffffff160217905550808273ffffffffffffffffffffffffffffffffffffffff168473ffffffffffffffffffffffffffffffffffffffff167fddf252ad1be2c89b69c2b068fc378daa952ba7f163c4a11628f55a4df523b3ef60405160405180910390a4610e9383838360016111e7565b505050565b60006002600083815260200190815260200160002060009054906101000a900473ffffffffffffffffffffffffffffffffffffffff169050919050565b610eef8282604051806020016040528060008152506111ed565b5050565b8173ffffffffffffffffffffffffffffffffffffffff168373ffffffffffffffffffffffffffffffffffffffff1603610f61576040517f08c379a0000000000000000000000000000000000000000000000000000000008152600401610f5890612200565b60405180910390fd5b80600560008573ffffffffffffffffffffffffffffffffffffffff1673ffffffffffffffffffffffffffffffffffffffff16815260200190815260200160002060008473ffffffffffffffffffffffffffffffffffffffff1673ffffffffffffffffffffffffffffffffffffffff16815260200190815260200160002060006101000a81548160ff0219169083151502179055508173ffffffffffffffffffffffffffffffffffffffff168373ffffffffffffffffffffffffffffffffffffffff167f17307eab39ab6107e8899845ad3d59bd9653f200f220920489ca2b5937696c31836040516110529190611816565b60405180910390a3505050565b61106a848484610b9f565b61107684848484611248565b6110b5576040517f08c379a00000000000000000000000000000000000000000000000000000000081526004016110ac90612292565b60405180910390fd5b50505050565b606060405180602001604052806000815250905090565b6060600060016110e1846113cf565b01905060008167ffffffffffffffff811115611100576110ff611b2e565b5b6040519080825280601f01601f1916602001820160405280156111325781602001600182028036833780820191505090505b509050600082602001820190505b600115611195578080600190039150507f3031323334353637383961626364656600000000000000000000000000000000600a86061a8153600a8581611189576111886122b2565b5b04945060008503611140575b819350505050919050565b60008073ffffffffffffffffffffffffffffffffffffffff166111c283610e98565b73ffffffffffffffffffffffffffffffffffffffff1614159050919050565b50505050565b50505050565b6111f78383611522565b6112046000848484611248565b611243576040517f08c379a000000000000000000000000000000000000000000000000000000000815260040161123a90612292565b60405180910390fd5b505050565b60006112698473ffffffffffffffffffffffffffffffffffffffff1661173f565b156113c2578373ffffffffffffffffffffffffffffffffffffffff1663150b7a02611292610a49565b8786866040518563ffffffff1660e01b81526004016112b49493929190612336565b6020604051808303816000875af19250505080156112f057506040513d601f19601f820116820180604052508101906112ed9190612397565b60015b611372573d8060008114611320576040519150601f19603f3d011682016040523d82523d6000602084013e611325565b606091505b50600081510361136a576040517f08c379a000000000000000000000000000000000000000000000000000000000815260040161136190612292565b60405180910390fd5b805181602001fd5b63150b7a0260e01b7bffffffffffffffffffffffffffffffffffffffffffffffffffffffff1916817bffffffffffffffffffffffffffffffffffffffffffffffffffffffff1916149150506113c7565b600190505b949350505050565b600080600090507a184f03e93ff9f4daa797ed6e38ed64bf6a1f010000000000000000831061142d577a184f03e93ff9f4daa797ed6e38ed64bf6a1f0100000000000000008381611423576114226122b2565b5b0492506040810190505b6d04ee2d6d415b85acef8100000000831061146a576d04ee2d6d415b85acef810000000083816114605761145f6122b2565b5b0492506020810190505b662386f26fc10000831061149957662386f26fc10000838161148f5761148e6122b2565b5b0492506010810190505b6305f5e10083106114c2576305f5e10083816114b8576114b76122b2565b5b0492506008810190505b61271083106114e75761271083816114dd576114dc6122b2565b5b0492506004810190505b6064831061150a5760648381611500576114ff6122b2565b5b0492506002810190505b600a8310611519576001810190505b80915050919050565b600073ffffffffffffffffffffffffffffffffffffffff168273ffffffffffffffffffffffffffffffffffffffff1603611591576040517f08c379a000000000000000000000000000000000000000000000000000000000815260040161158890612410565b60405180910390fd5b61159a816111a0565b156115da576040517f08c379a00000000000000000000000000000000000000000000000000000000081526004016115d19061247c565b60405180910390fd5b6115e86000838360016111e1565b6115f1816111a0565b15611631576040517f08c379a00000000000000000000000000000000000000000000000000000000081526004016116289061247c565b60405180910390fd5b6001600360008473ffffffffffffffffffffffffffffffffffffffff1673ffffffffffffffffffffffffffffffffffffffff16815260200190815260200160002060008282540192505081905550816002600083815260200190815260200160002060006101000a81548173ffffffffffffffffffffffffffffffffffffffff021916908373ffffffffffffffffffffffffffffffffffffffff160217905550808273ffffffffffffffffffffffffffffffffffffffff16600073ffffffffffffffffffffffffffffffffffffffff167fddf252ad1be2c89b69c2b068fc378daa952ba7f163c4a11628f55a4df523b3ef60405160405180910390a461173b6000838360016111e7565b5050565b6000808273ffffffffffffffffffffffffffffffffffffffff163b119050919050565b6000604051905090565b600080fd5b600080fd5b60007fffffffff0000000000000000000000000000000000000000000000000000000082169050919050565b6117ab81611776565b81146117b657600080fd5b50565b6000813590506117c8816117a2565b92915050565b6000602082840312156117e4576117e361176c565b5b60006117f2848285016117b9565b91505092915050565b60008115159050919050565b611810816117fb565b82525050565b600060208201905061182b6000830184611807565b92915050565b600081519050919050565b600082825260208201905092915050565b60005b8381101561186b578082015181840152602081019050611850565b60008484015250505050565b6000601f19601f8301169050919050565b600061189382611831565b61189d818561183c565b93506118ad81856020860161184d565b6118b681611877565b840191505092915050565b600060208201905081810360008301526118db8184611888565b905092915050565b6000819050919050565b6118f6816118e3565b811461190157600080fd5b50565b600081359050611913816118ed565b92915050565b60006020828403121561192f5761192e61176c565b5b600061193d84828501611904565b91505092915050565b600073ffffffffffffffffffffffffffffffffffffffff82169050919050565b600061197182611946565b9050919050565b61198181611966565b82525050565b600060208201905061199c6000830184611978565b92915050565b6119ab81611966565b81146119b657600080fd5b50565b6000813590506119c8816119a2565b92915050565b600080604083850312156119e5576119e461176c565b5b60006119f3858286016119b9565b9250506020611a0485828601611904565b9150509250929050565b600080600060608486031215611a2757611a2661176c565b5b6000611a35868287016119b9565b9350506020611a46868287016119b9565b9250506040611a5786828701611904565b9150509250925092565b600060208284031215611a7757611a7661176c565b5b6000611a85848285016119b9565b91505092915050565b611a97816118e3565b82525050565b6000602082019050611ab26000830184611a8e565b92915050565b611ac1816117fb565b8114611acc57600080fd5b50565b600081359050611ade81611ab8565b92915050565b60008060408385031215611afb57611afa61176c565b5b6000611b09858286016119b9565b9250506020611b1a85828601611acf565b9150509250929050565b600080fd5b600080fd5b7f4e487b7100000000000000000000000000000000000000000000000000000000600052604160045260246000fd5b611b6682611877565b810181811067ffffffffffffffff82111715611b8557611b84611b2e565b5b80604052505050565b6000611b98611762565b9050611ba48282611b5d565b919050565b600067ffffffffffffffff821115611bc457611bc3611b2e565b5b611bcd82611877565b9050602081019050919050565b82818337600083830152505050565b6000611bfc611bf784611ba9565b611b8e565b905082815260208101848484011115611c1857611c17611b29565b5b611c23848285611bda565b509392505050565b600082601f830112611c4057611c3f611b24565b5b8135611c50848260208601611be9565b91505092915050565b60008060008060808587031215611c7357611c7261176c565b5b6000611c81878288016119b9565b9450506020611c92878288016119b9565b9350506040611ca387828801611904565b925050606085013567ffffffffffffffff811115611cc457611cc3611771565b5b611cd087828801611c2b565b91505092959194509250565b60008060408385031215611cf357611cf261176c565b5b6000611d01858286016119b9565b9250506020611d12858286016119b9565b9150509250929050565b7f4e487b7100000000000000000000000000000000000000000000000000000000600052602260045260246000fd5b60006002820490506001821680611d6357607f821691505b602082108103611d7657611d75611d1c565b5b50919050565b7f4552433732313a20617070726f76616c20746f2063757272656e74206f776e6560008201527f7200000000000000000000000000000000000000000000000000000000000000602082015250565b6000611dd860218361183c565b9150611de382611d7c565b604082019050919050565b60006020820190508181036000830152611e0781611dcb565b9050919050565b7f4552433732313a20617070726f76652063616c6c6572206973206e6f7420746f60008201527f6b656e206f776e6572206f7220617070726f76656420666f7220616c6c000000602082015250565b6000611e6a603d8361183c565b9150611e7582611e0e565b604082019050919050565b60006020820190508181036000830152611e9981611e5d565b9050919050565b7f4552433732313a2063616c6c6572206973206e6f7420746f6b656e206f776e6560008201527f72206f7220617070726f76656400000000000000000000000000000000000000602082015250565b6000611efc602d8361183c565b9150611f0782611ea0565b604082019050919050565b60006020820190508181036000830152611f2b81611eef565b9050919050565b7f4552433732313a20696e76616c696420746f6b656e2049440000000000000000600082015250565b6000611f6860188361183c565b9150611f7382611f32565b602082019050919050565b60006020820190508181036000830152611f9781611f5b565b9050919050565b7f4552433732313a2061646472657373207a65726f206973206e6f74206120766160008201527f6c6964206f776e65720000000000000000000000000000000000000000000000602082015250565b6000611ffa60298361183c565b915061200582611f9e565b604082019050919050565b6000602082019050818103600083015261202981611fed565b9050919050565b600081905092915050565b600061204682611831565b6120508185612030565b935061206081856020860161184d565b80840191505092915050565b6000612078828561203b565b9150612084828461203b565b91508190509392505050565b7f4552433732313a207472616e736665722066726f6d20696e636f72726563742060008201527f6f776e6572000000000000000000000000000000000000000000000000000000602082015250565b60006120ec60258361183c565b91506120f782612090565b604082019050919050565b6000602082019050818103600083015261211b816120df565b9050919050565b7f4552433732313a207472616e7366657220746f20746865207a65726f2061646460008201527f7265737300000000000000000000000000000000000000000000000000000000602082015250565b600061217e60248361183c565b915061218982612122565b604082019050919050565b600060208201905081810360008301526121ad81612171565b9050919050565b7f4552433732313a20617070726f766520746f2063616c6c657200000000000000600082015250565b60006121ea60198361183c565b91506121f5826121b4565b602082019050919050565b60006020820190508181036000830152612219816121dd565b9050919050565b7f4552433732313a207472616e7366657220746f206e6f6e20455243373231526560008201527f63656976657220696d706c656d656e7465720000000000000000000000000000602082015250565b600061227c60328361183c565b915061228782612220565b604082019050919050565b600060208201905081810360008301526122ab8161226f565b9050919050565b7f4e487b7100000000000000000000000000000000000000000000000000000000600052601260045260246000fd5b600081519050919050565b600082825260208201905092915050565b6000612308826122e1565b61231281856122ec565b935061232281856020860161184d565b61232b81611877565b840191505092915050565b600060808201905061234b6000830187611978565b6123586020830186611978565b6123656040830185611a8e565b818103606083015261237781846122fd565b905095945050505050565b600081519050612391816117a2565b92915050565b6000602082840312156123ad576123ac61176c565b5b60006123bb84828501612382565b91505092915050565b7f4552433732313a206d696e7420746f20746865207a65726f2061646472657373600082015250565b60006123fa60208361183c565b9150612405826123c4565b602082019050919050565b60006020820190508181036000830152612429816123ed565b9050919050565b7f4552433732313a20746f6b656e20616c7265616479206d696e74656400000000600082015250565b6000612466601c8361183c565b915061247182612430565b602082019050919050565b6000602082019050818103600083015261249581612459565b905091905056fea26469706673582212202e5102cb28b8b082e5ef7ca6ff1f18eed490122416856184696a0277b48ed26d64736f6c63430008120033",
					"opcodes": "PUSH1 0x80 PUSH1 0x40 MSTORE CALLVALUE DUP1 ISZERO PUSH3 0x11 JUMPI PUSH1 0x0 DUP1 REVERT JUMPDEST POP PUSH1 0x40 MLOAD PUSH3 0x2A8F CODESIZE SUB DUP1 PUSH3 0x2A8F DUP4 CODECOPY DUP2 DUP2 ADD PUSH1 0x40 MSTORE DUP2 ADD SWAP1 PUSH3 0x37 SWAP2 SWAP1 PUSH3 0x1F6 JUMP JUMPDEST DUP2 PUSH1 0x0 SWAP1 DUP2 PUSH3 0x48 SWAP2 SWAP1 PUSH3 0x4C6 JUMP JUMPDEST POP DUP1 PUSH1 0x1 SWAP1 DUP2 PUSH3 0x5A SWAP2 SWAP1 PUSH3 0x4C6 JUMP JUMPDEST POP POP POP PUSH3 0x5AD JUMP JUMPDEST PUSH1 0x0 PUSH1 0x40 MLOAD SWAP1 POP SWAP1 JUMP JUMPDEST PUSH1 0x0 DUP1 REVERT JUMPDEST PUSH1 0x0 DUP1 REVERT JUMPDEST PUSH1 0x0 DUP1 REVERT JUMPDEST PUSH1 0x0 DUP1 REVERT JUMPDEST PUSH1 0x0 PUSH1 0x1F NOT PUSH1 0x1F DUP4 ADD AND SWAP1 POP SWAP2 SWAP1 POP JUMP JUMPDEST PUSH32 0x4E487B7100000000000000000000000000000000000000000000000000000000 PUSH1 0x0 MSTORE PUSH1 0x41 PUSH1 0x4 MSTORE PUSH1 0x24 PUSH1 0x0 REVERT JUMPDEST PUSH3 0xCC DUP3 PUSH3 0x81 JUMP JUMPDEST DUP2 ADD DUP2 DUP2 LT PUSH8 0xFFFFFFFFFFFFFFFF DUP3 GT OR ISZERO PUSH3 0xEE JUMPI PUSH3 0xED PUSH3 0x92 JUMP JUMPDEST JUMPDEST DUP1 PUSH1 0x40 MSTORE POP POP POP JUMP JUMPDEST PUSH1 0x0 PUSH3 0x103 PUSH3 0x63 JUMP JUMPDEST SWAP1 POP PUSH3 0x111 DUP3 DUP3 PUSH3 0xC1 JUMP JUMPDEST SWAP2 SWAP1 POP JUMP JUMPDEST PUSH1 0x0 PUSH8 0xFFFFFFFFFFFFFFFF DUP3 GT ISZERO PUSH3 0x134 JUMPI PUSH3 0x133 PUSH3 0x92 JUMP JUMPDEST JUMPDEST PUSH3 0x13F DUP3 PUSH3 0x81 JUMP JUMPDEST SWAP1 POP PUSH1 0x20 DUP2 ADD SWAP1 POP SWAP2 SWAP1 POP JUMP JUMPDEST PUSH1 0x0 JUMPDEST DUP4 DUP2 LT ISZERO PUSH3 0x16C JUMPI DUP1 DUP3 ADD MLOAD DUP2 DUP5 ADD MSTORE PUSH1 0x20 DUP2 ADD SWAP1 POP PUSH3 0x14F JUMP JUMPDEST PUSH1 0x0 DUP5 DUP5 ADD MSTORE POP POP POP POP JUMP JUMPDEST PUSH1 0x0 PUSH3 0x18F PUSH3 0x189 DUP5 PUSH3 0x116 JUMP JUMPDEST PUSH3 0xF7 JUMP JUMPDEST SWAP1 POP DUP3 DUP2 MSTORE PUSH1 0x20 DUP2 ADD DUP5 DUP5 DUP5 ADD GT ISZERO PUSH3 0x1AE JUMPI PUSH3 0x1AD PUSH3 0x7C JUMP JUMPDEST JUMPDEST PUSH3 0x1BB DUP5 DUP3 DUP6 PUSH3 0x14C JUMP JUMPDEST POP SWAP4 SWAP3 POP POP POP JUMP JUMPDEST PUSH1 0x0 DUP3 PUSH1 0x1F DUP4 ADD SLT PUSH3 0x1DB JUMPI PUSH3 0x1DA PUSH3 0x77 JUMP JUMPDEST JUMPDEST DUP2 MLOAD PUSH3 0x1ED DUP5 DUP3 PUSH1 0x20 DUP7 ADD PUSH3 0x178 JUMP JUMPDEST SWAP2 POP POP SWAP3 SWAP2 POP POP JUMP JUMPDEST PUSH1 0x0 DUP1 PUSH1 0x40 DUP4 DUP6 SUB SLT ISZERO PUSH3 0x210 JUMPI PUSH3 0x20F PUSH3 0x6D JUMP JUMPDEST JUMPDEST PUSH1 0x0 DUP4 ADD MLOAD PUSH8 0xFFFFFFFFFFFFFFFF DUP2 GT ISZERO PUSH3 0x231 JUMPI PUSH3 0x230 PUSH3 0x72 JUMP JUMPDEST JUMPDEST PUSH3 0x23F DUP6 DUP3 DUP7 ADD PUSH3 0x1C3 JUMP JUMPDEST SWAP3 POP POP PUSH1 0x20 DUP4 ADD MLOAD PUSH8 0xFFFFFFFFFFFFFFFF DUP2 GT ISZERO PUSH3 0x263 JUMPI PUSH3 0x262 PUSH3 0x72 JUMP JUMPDEST JUMPDEST PUSH3 0x271 DUP6 DUP3 DUP7 ADD PUSH3 0x1C3 JUMP JUMPDEST SWAP2 POP POP SWAP3 POP SWAP3 SWAP1 POP JUMP JUMPDEST PUSH1 0x0 DUP2 MLOAD SWAP1 POP SWAP2 SWAP1 POP JUMP JUMPDEST PUSH32 0x4E487B7100000000000000000000000000000000000000000000000000000000 PUSH1 0x0 MSTORE PUSH1 0x22 PUSH1 0x4 MSTORE PUSH1 0x24 PUSH1 0x0 REVERT JUMPDEST PUSH1 0x0 PUSH1 0x2 DUP3 DIV SWAP1 POP PUSH1 0x1 DUP3 AND DUP1 PUSH3 0x2CE JUMPI PUSH1 0x7F DUP3 AND SWAP2 POP JUMPDEST PUSH1 0x20 DUP3 LT DUP2 SUB PUSH3 0x2E4 JUMPI PUSH3 0x2E3 PUSH3 0x286 JUMP JUMPDEST JUMPDEST POP SWAP2 SWAP1 POP JUMP JUMPDEST PUSH1 0x0 DUP2 SWAP1 POP DUP2 PUSH1 0x0 MSTORE PUSH1 0x20 PUSH1 0x0 KECCAK256 SWAP1 POP SWAP2 SWAP1 POP JUMP JUMPDEST PUSH1 0x0 PUSH1 0x20 PUSH1 0x1F DUP4 ADD DIV SWAP1 POP SWAP2 SWAP1 POP JUMP JUMPDEST PUSH1 0x0 DUP3 DUP3 SHL SWAP1 POP SWAP3 SWAP2 POP POP JUMP JUMPDEST PUSH1 0x0 PUSH1 0x8 DUP4 MUL PUSH3 0x34E PUSH32 0xFFFFFFFFFFFFFFFFFFFFFFFFFFFFFFFFFFFFFFFFFFFFFFFFFFFFFFFFFFFFFFFF DUP3 PUSH3 0x30F JUMP JUMPDEST PUSH3 0x35A DUP7 DUP4 PUSH3 0x30F JUMP JUMPDEST SWAP6 POP DUP1 NOT DUP5 AND SWAP4 POP DUP1 DUP7 AND DUP5 OR SWAP3 POP POP POP SWAP4 SWAP3 POP POP POP JUMP JUMPDEST PUSH1 0x0 DUP2 SWAP1 POP SWAP2 SWAP1 POP JUMP JUMPDEST PUSH1 0x0 DUP2 SWAP1 POP SWAP2 SWAP1 POP JUMP JUMPDEST PUSH1 0x0 PUSH3 0x3A7 PUSH3 0x3A1 PUSH3 0x39B DUP5 PUSH3 0x372 JUMP JUMPDEST PUSH3 0x37C JUMP JUMPDEST PUSH3 0x372 JUMP JUMPDEST SWAP1 POP SWAP2 SWAP1 POP JUMP JUMPDEST PUSH1 0x0 DUP2 SWAP1 POP SWAP2 SWAP1 POP JUMP JUMPDEST PUSH3 0x3C3 DUP4 PUSH3 0x386 JUMP JUMPDEST PUSH3 0x3DB PUSH3 0x3D2 DUP3 PUSH3 0x3AE JUMP JUMPDEST DUP5 DUP5 SLOAD PUSH3 0x31C JUMP JUMPDEST DUP3 SSTORE POP POP POP POP JUMP JUMPDEST PUSH1 0x0 SWAP1 JUMP JUMPDEST PUSH3 0x3F2 PUSH3 0x3E3 JUMP JUMPDEST PUSH3 0x3FF DUP2 DUP5 DUP5 PUSH3 0x3B8 JUMP JUMPDEST POP POP POP JUMP JUMPDEST JUMPDEST DUP2 DUP2 LT ISZERO PUSH3 0x427 JUMPI PUSH3 0x41B PUSH1 0x0 DUP3 PUSH3 0x3E8 JUMP JUMPDEST PUSH1 0x1 DUP2 ADD SWAP1 POP PUSH3 0x405 JUMP JUMPDEST POP POP JUMP JUMPDEST PUSH1 0x1F DUP3 GT ISZERO PUSH3 0x476 JUMPI PUSH3 0x440 DUP2 PUSH3 0x2EA JUMP JUMPDEST PUSH3 0x44B DUP5 PUSH3 0x2FF JUMP JUMPDEST DUP2 ADD PUSH1 0x20 DUP6 LT ISZERO PUSH3 0x45B JUMPI DUP2 SWAP1 POP JUMPDEST PUSH3 0x473 PUSH3 0x46A DUP6 PUSH3 0x2FF JUMP JUMPDEST DUP4 ADD DUP3 PUSH3 0x404 JUMP JUMPDEST POP POP JUMPDEST POP POP POP JUMP JUMPDEST PUSH1 0x0 DUP3 DUP3 SHR SWAP1 POP SWAP3 SWAP2 POP POP JUMP JUMPDEST PUSH1 0x0 PUSH3 0x49B PUSH1 0x0 NOT DUP5 PUSH1 0x8 MUL PUSH3 0x47B JUMP JUMPDEST NOT DUP1 DUP4 AND SWAP2 POP POP SWAP3 SWAP2 POP POP JUMP JUMPDEST PUSH1 0x0 PUSH3 0x4B6 DUP4 DUP4 PUSH3 0x488 JUMP JUMPDEST SWAP2 POP DUP3 PUSH1 0x2 MUL DUP3 OR SWAP1 POP SWAP3 SWAP2 POP POP JUMP JUMPDEST PUSH3 0x4D1 DUP3 PUSH3 0x27B JUMP JUMPDEST PUSH8 0xFFFFFFFFFFFFFFFF DUP2 GT ISZERO PUSH3 0x4ED JUMPI PUSH3 0x4EC PUSH3 0x92 JUMP JUMPDEST JUMPDEST PUSH3 0x4F9 DUP3 SLOAD PUSH3 0x2B5 JUMP JUMPDEST PUSH3 0x506 DUP3 DUP3 DUP6 PUSH3 0x42B JUMP JUMPDEST PUSH1 0x0 PUSH1 0x20 SWAP1 POP PUSH1 0x1F DUP4 GT PUSH1 0x1 DUP2 EQ PUSH3 0x53E JUMPI PUSH1 0x0 DUP5 ISZERO PUSH3 0x529 JUMPI DUP3 DUP8 ADD MLOAD SWAP1 POP JUMPDEST PUSH3 0x535 DUP6 DUP3 PUSH3 0x4A8 JUMP JUMPDEST DUP7 SSTORE POP PUSH3 0x5A5 JUMP JUMPDEST PUSH1 0x1F NOT DUP5 AND PUSH3 0x54E DUP7 PUSH3 0x2EA JUMP JUMPDEST PUSH1 0x0 JUMPDEST DUP3 DUP2 LT ISZERO PUSH3 0x578 JUMPI DUP5 DUP10 ADD MLOAD DUP3 SSTORE PUSH1 0x1 DUP3 ADD SWAP2 POP PUSH1 0x20 DUP6 ADD SWAP5 POP PUSH1 0x20 DUP2 ADD SWAP1 POP PUSH3 0x551 JUMP JUMPDEST DUP7 DUP4 LT ISZERO PUSH3 0x598 JUMPI DUP5 DUP10 ADD MLOAD PUSH3 0x594 PUSH1 0x1F DUP10 AND DUP3 PUSH3 0x488 JUMP JUMPDEST DUP4 SSTORE POP JUMPDEST PUSH1 0x1 PUSH1 0x2 DUP9 MUL ADD DUP9 SSTORE POP POP POP JUMPDEST POP POP POP POP POP POP JUMP JUMPDEST PUSH2 0x24D2 DUP1 PUSH3 0x5BD PUSH1 0x0 CODECOPY PUSH1 0x0 RETURN INVALID PUSH1 0x80 PUSH1 0x40 MSTORE CALLVALUE DUP1 ISZERO PUSH2 0x10 JUMPI PUSH1 0x0 DUP1 REVERT JUMPDEST POP PUSH1 0x4 CALLDATASIZE LT PUSH2 0xEA JUMPI PUSH1 0x0 CALLDATALOAD PUSH1 0xE0 SHR DUP1 PUSH4 0x70A08231 GT PUSH2 0x8C JUMPI DUP1 PUSH4 0xA22CB465 GT PUSH2 0x66 JUMPI DUP1 PUSH4 0xA22CB465 EQ PUSH2 0x25B JUMPI DUP1 PUSH4 0xB88D4FDE EQ PUSH2 0x277 JUMPI DUP1 PUSH4 0xC87B56DD EQ PUSH2 0x293 JUMPI DUP1 PUSH4 0xE985E9C5 EQ PUSH2 0x2C3 JUMPI PUSH2 0xEA JUMP JUMPDEST DUP1 PUSH4 0x70A08231 EQ PUSH2 0x1F1 JUMPI DUP1 PUSH4 0x95D89B41 EQ PUSH2 0x221 JUMPI DUP1 PUSH4 0xA0712D68 EQ PUSH2 0x23F JUMPI PUSH2 0xEA JUMP JUMPDEST DUP1 PUSH4 0x95EA7B3 GT PUSH2 0xC8 JUMPI DUP1 PUSH4 0x95EA7B3 EQ PUSH2 0x16D JUMPI DUP1 PUSH4 0x23B872DD EQ PUSH2 0x189 JUMPI DUP1 PUSH4 0x42842E0E EQ PUSH2 0x1A5 JUMPI DUP1 PUSH4 0x6352211E EQ PUSH2 0x1C1 JUMPI PUSH2 0xEA JUMP JUMPDEST DUP1 PUSH4 0x1FFC9A7 EQ PUSH2 0xEF JUMPI DUP1 PUSH4 0x6FDDE03 EQ PUSH2 0x11F JUMPI DUP1 PUSH4 0x81812FC EQ PUSH2 0x13D JUMPI JUMPDEST PUSH1 0x0 DUP1 REVERT JUMPDEST PUSH2 0x109 PUSH1 0x4 DUP1 CALLDATASIZE SUB DUP2 ADD SWAP1 PUSH2 0x104 SWAP2 SWAP1 PUSH2 0x17CE JUMP JUMPDEST PUSH2 0x2F3 JUMP JUMPDEST PUSH1 0x40 MLOAD PUSH2 0x116 SWAP2 SWAP1 PUSH2 0x1816 JUMP JUMPDEST PUSH1 0x40 MLOAD DUP1 SWAP2 SUB SWAP1 RETURN JUMPDEST PUSH2 0x127 PUSH2 0x3D5 JUMP JUMPDEST PUSH1 0x40 MLOAD PUSH2 0x134 SWAP2 SWAP1 PUSH2 0x18C1 JUMP JUMPDEST PUSH1 0x40 MLOAD DUP1 SWAP2 SUB SWAP1 RETURN JUMPDEST PUSH2 0x157 PUSH1 0x4 DUP1 CALLDATASIZE SUB DUP2 ADD SWAP1 PUSH2 0x152 SWAP2 SWAP1 PUSH2 0x1919 JUMP JUMPDEST PUSH2 0x467 JUMP JUMPDEST PUSH1 0x40 MLOAD PUSH2 0x164 SWAP2 SWAP1 PUSH2 0x1987 JUMP JUMPDEST PUSH1 0x40 MLOAD DUP1 SWAP2 SUB SWAP1 RETURN JUMPDEST PUSH2 0x187 PUSH1 0x4 DUP1 CALLDATASIZE SUB DUP2 ADD SWAP1 PUSH2 0x182 SWAP2 SWAP1 PUSH2 0x19CE JUMP JUMPDEST PUSH2 0x4AD JUMP JUMPDEST STOP JUMPDEST PUSH2 0x1A3 PUSH1 0x4 DUP1 CALLDATASIZE SUB DUP2 ADD SWAP1 PUSH2 0x19E SWAP2 SWAP1 PUSH2 0x1A0E JUMP JUMPDEST PUSH2 0x5C4 JUMP JUMPDEST STOP JUMPDEST PUSH2 0x1BF PUSH1 0x4 DUP1 CALLDATASIZE SUB DUP2 ADD SWAP1 PUSH2 0x1BA SWAP2 SWAP1 PUSH2 0x1A0E JUMP JUMPDEST PUSH2 0x624 JUMP JUMPDEST STOP JUMPDEST PUSH2 0x1DB PUSH1 0x4 DUP1 CALLDATASIZE SUB DUP2 ADD SWAP1 PUSH2 0x1D6 SWAP2 SWAP1 PUSH2 0x1919 JUMP JUMPDEST PUSH2 0x644 JUMP JUMPDEST PUSH1 0x40 MLOAD PUSH2 0x1E8 SWAP2 SWAP1 PUSH2 0x1987 JUMP JUMPDEST PUSH1 0x40 MLOAD DUP1 SWAP2 SUB SWAP1 RETURN JUMPDEST PUSH2 0x20B PUSH1 0x4 DUP1 CALLDATASIZE SUB DUP2 ADD SWAP1 PUSH2 0x206 SWAP2 SWAP1 PUSH2 0x1A61 JUMP JUMPDEST PUSH2 0x6CA JUMP JUMPDEST PUSH1 0x40 MLOAD PUSH2 0x218 SWAP2 SWAP1 PUSH2 0x1A9D JUMP JUMPDEST PUSH1 0x40 MLOAD DUP1 SWAP2 SUB SWAP1 RETURN JUMPDEST PUSH2 0x229 PUSH2 0x781 JUMP JUMPDEST PUSH1 0x40 MLOAD PUSH2 0x236 SWAP2 SWAP1 PUSH2 0x18C1 JUMP JUMPDEST PUSH1 0x40 MLOAD DUP1 SWAP2 SUB SWAP1 RETURN JUMPDEST PUSH2 0x259 PUSH1 0x4 DUP1 CALLDATASIZE SUB DUP2 ADD SWAP1 PUSH2 0x254 SWAP2 SWAP1 PUSH2 0x1919 JUMP JUMPDEST PUSH2 0x813 JUMP JUMPDEST STOP JUMPDEST PUSH2 0x275 PUSH1 0x4 DUP1 CALLDATASIZE SUB DUP2 ADD SWAP1 PUSH2 0x270 SWAP2 SWAP1 PUSH2 0x1AE4 JUMP JUMPDEST PUSH2 0x820 JUMP JUMPDEST STOP JUMPDEST PUSH2 0x291 PUSH1 0x4 DUP1 CALLDATASIZE SUB DUP2 ADD SWAP1 PUSH2 0x28C SWAP2 SWAP1 PUSH2 0x1C59 JUMP JUMPDEST PUSH2 0x836 JUMP JUMPDEST STOP JUMPDEST PUSH2 0x2AD PUSH1 0x4 DUP1 CALLDATASIZE SUB DUP2 ADD SWAP1 PUSH2 0x2A8 SWAP2 SWAP1 PUSH2 0x1919 JUMP JUMPDEST PUSH2 0x898 JUMP JUMPDEST PUSH1 0x40 MLOAD PUSH2 0x2BA SWAP2 SWAP1 PUSH2 0x18C1 JUMP JUMPDEST PUSH1 0x40 MLOAD DUP1 SWAP2 SUB SWAP1 RETURN JUMPDEST PUSH2 0x2DD PUSH1 0x4 DUP1 CALLDATASIZE SUB DUP2 ADD SWAP1 PUSH2 0x2D8 SWAP2 SWAP1 PUSH2 0x1CDC JUMP JUMPDEST PUSH2 0x900 JUMP JUMPDEST PUSH1 0x40 MLOAD PUSH2 0x2EA SWAP2 SWAP1 PUSH2 0x1816 JUMP JUMPDEST PUSH1 0x40 MLOAD DUP1 SWAP2 SUB SWAP1 RETURN JUMPDEST PUSH1 0x0 PUSH32 0x20DD75A500000000000000000000000000000000000000000000000000000000 PUSH28 0xFFFFFFFFFFFFFFFFFFFFFFFFFFFFFFFFFFFFFFFFFFFFFFFFFFFFFFFF NOT AND DUP3 PUSH28 0xFFFFFFFFFFFFFFFFFFFFFFFFFFFFFFFFFFFFFFFFFFFFFFFFFFFFFFFF NOT AND EQ DUP1 PUSH2 0x3BE JUMPI POP PUSH32 0x5B5E139F00000000000000000000000000000000000000000000000000000000 PUSH28 0xFFFFFFFFFFFFFFFFFFFFFFFFFFFFFFFFFFFFFFFFFFFFFFFFFFFFFFFF NOT AND DUP3 PUSH28 0xFFFFFFFFFFFFFFFFFFFFFFFFFFFFFFFFFFFFFFFFFFFFFFFFFFFFFFFF NOT AND EQ JUMPDEST DUP1 PUSH2 0x3CE JUMPI POP PUSH2 0x3CD DUP3 PUSH2 0x994 JUMP JUMPDEST JUMPDEST SWAP1 POP SWAP2 SWAP1 POP JUMP JUMPDEST PUSH1 0x60 PUSH1 0x0 DUP1 SLOAD PUSH2 0x3E4 SWAP1 PUSH2 0x1D4B JUMP JUMPDEST DUP1 PUSH1 0x1F ADD PUSH1 0x20 DUP1 SWAP2 DIV MUL PUSH1 0x20 ADD PUSH1 0x40 MLOAD SWAP1 DUP2 ADD PUSH1 0x40 MSTORE DUP1 SWAP3 SWAP2 SWAP1 DUP2 DUP2 MSTORE PUSH1 0x20 ADD DUP3 DUP1 SLOAD PUSH2 0x410 SWAP1 PUSH2 0x1D4B JUMP JUMPDEST DUP1 ISZERO PUSH2 0x45D JUMPI DUP1 PUSH1 0x1F LT PUSH2 0x432 JUMPI PUSH2 0x100 DUP1 DUP4 SLOAD DIV MUL DUP4 MSTORE SWAP2 PUSH1 0x20 ADD SWAP2 PUSH2 0x45D JUMP JUMPDEST DUP3 ADD SWAP2 SWAP1 PUSH1 0x0 MSTORE PUSH1 0x20 PUSH1 0x0 KECCAK256 SWAP1 JUMPDEST DUP2 SLOAD DUP2 MSTORE SWAP1 PUSH1 0x1 ADD SWAP1 PUSH1 0x20 ADD DUP1 DUP4 GT PUSH2 0x440 JUMPI DUP3 SWAP1 SUB PUSH1 0x1F AND DUP3 ADD SWAP2 JUMPDEST POP POP POP POP POP SWAP1 POP SWAP1 JUMP JUMPDEST PUSH1 0x0 PUSH2 0x472 DUP3 PUSH2 0x9FE JUMP JUMPDEST PUSH1 0x4 PUSH1 0x0 DUP4 DUP2 MSTORE PUSH1 0x20 ADD SWAP1 DUP2 MSTORE PUSH1 0x20 ADD PUSH1 0x0 KECCAK256 PUSH1 0x0 SWAP1 SLOAD SWAP1 PUSH2 0x100 EXP SWAP1 DIV PUSH20 0xFFFFFFFFFFFFFFFFFFFFFFFFFFFFFFFFFFFFFFFF AND SWAP1 POP SWAP2 SWAP1 POP JUMP JUMPDEST PUSH1 0x0 PUSH2 0x4B8 DUP3 PUSH2 0x644 JUMP JUMPDEST SWAP1 POP DUP1 PUSH20 0xFFFFFFFFFFFFFFFFFFFFFFFFFFFFFFFFFFFFFFFF AND DUP4 PUSH20 0xFFFFFFFFFFFFFFFFFFFFFFFFFFFFFFFFFFFFFFFF AND SUB PUSH2 0x528 JUMPI PUSH1 0x40 MLOAD PUSH32 0x8C379A000000000000000000000000000000000000000000000000000000000 DUP2 MSTORE PUSH1 0x4 ADD PUSH2 0x51F SWAP1 PUSH2 0x1DEE JUMP JUMPDEST PUSH1 0x40 MLOAD DUP1 SWAP2 SUB SWAP1 REVERT JUMPDEST DUP1 PUSH20 0xFFFFFFFFFFFFFFFFFFFFFFFFFFFFFFFFFFFFFFFF AND PUSH2 0x547 PUSH2 0xA49 JUMP JUMPDEST PUSH20 0xFFFFFFFFFFFFFFFFFFFFFFFFFFFFFFFFFFFFFFFF AND EQ DUP1 PUSH2 0x576 JUMPI POP PUSH2 0x575 DUP2 PUSH2 0x570 PUSH2 0xA49 JUMP JUMPDEST PUSH2 0x900 JUMP JUMPDEST JUMPDEST PUSH2 0x5B5 JUMPI PUSH1 0x40 MLOAD PUSH32 0x8C379A000000000000000000000000000000000000000000000000000000000 DUP2 MSTORE PUSH1 0x4 ADD PUSH2 0x5AC SWAP1 PUSH2 0x1E80 JUMP JUMPDEST PUSH1 0x40 MLOAD DUP1 SWAP2 SUB SWAP1 REVERT JUMPDEST PUSH2 0x5BF DUP4 DUP4 PUSH2 0xA51 JUMP JUMPDEST POP POP POP JUMP JUMPDEST PUSH2 0x5D5 PUSH2 0x5CF PUSH2 0xA49 JUMP JUMPDEST DUP3 PUSH2 0xB0A JUMP JUMPDEST PUSH2 0x614 JUMPI PUSH1 0x40 MLOAD PUSH32 0x8C379A000000000000000000000000000000000000000000000000000000000 DUP2 MSTORE PUSH1 0x4 ADD PUSH2 0x60B SWAP1 PUSH2 0x1F12 JUMP JUMPDEST PUSH1 0x40 MLOAD DUP1 SWAP2 SUB SWAP1 REVERT JUMPDEST PUSH2 0x61F DUP4 DUP4 DUP4 PUSH2 0xB9F JUMP JUMPDEST POP POP POP JUMP JUMPDEST PUSH2 0x63F DUP4 DUP4 DUP4 PUSH1 0x40 MLOAD DUP1 PUSH1 0x20 ADD PUSH1 0x40 MSTORE DUP1 PUSH1 0x0 DUP2 MSTORE POP PUSH2 0x836 JUMP JUMPDEST POP POP POP JUMP JUMPDEST PUSH1 0x0 DUP1 PUSH2 0x650 DUP4 PUSH2 0xE98 JUMP JUMPDEST SWAP1 POP PUSH1 0x0 PUSH20 0xFFFFFFFFFFFFFFFFFFFFFFFFFFFFFFFFFFFFFFFF AND DUP2 PUSH20 0xFFFFFFFFFFFFFFFFFFFFFFFFFFFFFFFFFFFFFFFF AND SUB PUSH2 0x6C1 JUMPI PUSH1 0x40 MLOAD PUSH32 0x8C379A000000000000000000000000000000000000000000000000000000000 DUP2 MSTORE PUSH1 0x4 ADD PUSH2 0x6B8 SWAP1 PUSH2 0x1F7E JUMP JUMPDEST PUSH1 0x40 MLOAD DUP1 SWAP2 SUB SWAP1 REVERT JUMPDEST DUP1 SWAP2 POP POP SWAP2 SWAP1 POP JUMP JUMPDEST PUSH1 0x0 DUP1 PUSH20 0xFFFFFFFFFFFFFFFFFFFFFFFFFFFFFFFFFFFFFFFF AND DUP3 PUSH20 0xFFFFFFFFFFFFFFFFFFFFFFFFFFFFFFFFFFFFFFFF AND SUB PUSH2 0x73A JUMPI PUSH1 0x40 MLOAD PUSH32 0x8C379A000000000000000000000000000000000000000000000000000000000 DUP2 MSTORE PUSH1 0x4 ADD PUSH2 0x731 SWAP1 PUSH2 0x2010 JUMP JUMPDEST PUSH1 0x40 MLOAD DUP1 SWAP2 SUB SWAP1 REVERT JUMPDEST PUSH1 0x3 PUSH1 0x0 DUP4 PUSH20 0xFFFFFFFFFFFFFFFFFFFFFFFFFFFFFFFFFFFFFFFF AND PUSH20 0xFFFFFFFFFFFFFFFFFFFFFFFFFFFFFFFFFFFFFFFF AND DUP2 MSTORE PUSH1 0x20 ADD SWAP1 DUP2 MSTORE PUSH1 0x20 ADD PUSH1 0x0 KECCAK256 SLOAD SWAP1 POP SWAP2 SWAP1 POP JUMP JUMPDEST PUSH1 0x60 PUSH1 0x1 DUP1 SLOAD PUSH2 0x790 SWAP1 PUSH2 0x1D4B JUMP JUMPDEST DUP1 PUSH1 0x1F ADD PUSH1 0x20 DUP1 SWAP2 DIV MUL PUSH1 0x20 ADD PUSH1 0x40 MLOAD SWAP1 DUP2 ADD PUSH1 0x40 MSTORE DUP1 SWAP3 SWAP2 SWAP1 DUP2 DUP2 MSTORE PUSH1 0x20 ADD DUP3 DUP1 SLOAD PUSH2 0x7BC SWAP1 PUSH2 0x1D4B JUMP JUMPDEST DUP1 ISZERO PUSH2 0x809 JUMPI DUP1 PUSH1 0x1F LT PUSH2 0x7DE JUMPI PUSH2 0x100 DUP1 DUP4 SLOAD DIV MUL DUP4 MSTORE SWAP2 PUSH1 0x20 ADD SWAP2 PUSH2 0x809 JUMP JUMPDEST DUP3 ADD SWAP2 SWAP1 PUSH1 0x0 MSTORE PUSH1 0x20 PUSH1 0x0 KECCAK256 SWAP1 JUMPDEST DUP2 SLOAD DUP2 MSTORE SWAP1 PUSH1 0x1 ADD SWAP1 PUSH1 0x20 ADD DUP1 DUP4 GT PUSH2 0x7EC JUMPI DUP3 SWAP1 SUB PUSH1 0x1F AND DUP3 ADD SWAP2 JUMPDEST POP POP POP POP POP SWAP1 POP SWAP1 JUMP JUMPDEST PUSH2 0x81D CALLER DUP3 PUSH2 0xED5 JUMP JUMPDEST POP JUMP JUMPDEST PUSH2 0x832 PUSH2 0x82B PUSH2 0xA49 JUMP JUMPDEST DUP4 DUP4 PUSH2 0xEF3 JUMP JUMPDEST POP POP JUMP JUMPDEST PUSH2 0x847 PUSH2 0x841 PUSH2 0xA49 JUMP JUMPDEST DUP4 PUSH2 0xB0A JUMP JUMPDEST PUSH2 0x886 JUMPI PUSH1 0x40 MLOAD PUSH32 0x8C379A000000000000000000000000000000000000000000000000000000000 DUP2 MSTORE PUSH1 0x4 ADD PUSH2 0x87D SWAP1 PUSH2 0x1F12 JUMP JUMPDEST PUSH1 0x40 MLOAD DUP1 SWAP2 SUB SWAP1 REVERT JUMPDEST PUSH2 0x892 DUP5 DUP5 DUP5 DUP5 PUSH2 0x105F JUMP JUMPDEST POP POP POP POP JUMP JUMPDEST PUSH1 0x60 PUSH2 0x8A3 DUP3 PUSH2 0x9FE JUMP JUMPDEST PUSH1 0x0 PUSH2 0x8AD PUSH2 0x10BB JUMP JUMPDEST SWAP1 POP PUSH1 0x0 DUP2 MLOAD GT PUSH2 0x8CD JUMPI PUSH1 0x40 MLOAD DUP1 PUSH1 0x20 ADD PUSH1 0x40 MSTORE DUP1 PUSH1 0x0 DUP2 MSTORE POP PUSH2 0x8F8 JUMP JUMPDEST DUP1 PUSH2 0x8D7 DUP5 PUSH2 0x10D2 JUMP JUMPDEST PUSH1 0x40 MLOAD PUSH1 0x20 ADD PUSH2 0x8E8 SWAP3 SWAP2 SWAP1 PUSH2 0x206C JUMP JUMPDEST PUSH1 0x40 MLOAD PUSH1 0x20 DUP2 DUP4 SUB SUB DUP2 MSTORE SWAP1 PUSH1 0x40 MSTORE JUMPDEST SWAP2 POP POP SWAP2 SWAP1 POP JUMP JUMPDEST PUSH1 0x0 PUSH1 0x5 PUSH1 0x0 DUP5 PUSH20 0xFFFFFFFFFFFFFFFFFFFFFFFFFFFFFFFFFFFFFFFF AND PUSH20 0xFFFFFFFFFFFFFFFFFFFFFFFFFFFFFFFFFFFFFFFF AND DUP2 MSTORE PUSH1 0x20 ADD SWAP1 DUP2 MSTORE PUSH1 0x20 ADD PUSH1 0x0 KECCAK256 PUSH1 0x0 DUP4 PUSH20 0xFFFFFFFFFFFFFFFFFFFFFFFFFFFFFFFFFFFFFFFF AND PUSH20 0xFFFFFFFFFFFFFFFFFFFFFFFFFFFFFFFFFFFFFFFF AND DUP2 MSTORE PUSH1 0x20 ADD SWAP1 DUP2 MSTORE PUSH1 0x20 ADD PUSH1 0x0 KECCAK256 PUSH1 0x0 SWAP1 SLOAD SWAP1 PUSH2 0x100 EXP SWAP1 DIV PUSH1 0xFF AND SWAP1 POP SWAP3 SWAP2 POP POP JUMP JUMPDEST PUSH1 0x0 PUSH32 0x1FFC9A700000000000000000000000000000000000000000000000000000000 PUSH28 0xFFFFFFFFFFFFFFFFFFFFFFFFFFFFFFFFFFFFFFFFFFFFFFFFFFFFFFFF NOT AND DUP3 PUSH28 0xFFFFFFFFFFFFFFFFFFFFFFFFFFFFFFFFFFFFFFFFFFFFFFFFFFFFFFFF NOT AND EQ SWAP1 POP SWAP2 SWAP1 POP JUMP JUMPDEST PUSH2 0xA07 DUP2 PUSH2 0x11A0 JUMP JUMPDEST PUSH2 0xA46 JUMPI PUSH1 0x40 MLOAD PUSH32 0x8C379A000000000000000000000000000000000000000000000000000000000 DUP2 MSTORE PUSH1 0x4 ADD PUSH2 0xA3D SWAP1 PUSH2 0x1F7E JUMP JUMPDEST PUSH1 0x40 MLOAD DUP1 SWAP2 SUB SWAP1 REVERT JUMPDEST POP JUMP JUMPDEST PUSH1 0x0 CALLER SWAP1 POP SWAP1 JUMP JUMPDEST DUP2 PUSH1 0x4 PUSH1 0x0 DUP4 DUP2 MSTORE PUSH1 0x20 ADD SWAP1 DUP2 MSTORE PUSH1 0x20 ADD PUSH1 0x0 KECCAK256 PUSH1 0x0 PUSH2 0x100 EXP DUP2 SLOAD DUP2 PUSH20 0xFFFFFFFFFFFFFFFFFFFFFFFFFFFFFFFFFFFFFFFF MUL NOT AND SWAP1 DUP4 PUSH20 0xFFFFFFFFFFFFFFFFFFFFFFFFFFFFFFFFFFFFFFFF AND MUL OR SWAP1 SSTORE POP DUP1 DUP3 PUSH20 0xFFFFFFFFFFFFFFFFFFFFFFFFFFFFFFFFFFFFFFFF AND PUSH2 0xAC4 DUP4 PUSH2 0x644 JUMP JUMPDEST PUSH20 0xFFFFFFFFFFFFFFFFFFFFFFFFFFFFFFFFFFFFFFFF AND PUSH32 0x8C5BE1E5EBEC7D5BD14F71427D1E84F3DD0314C0F7B2291E5B200AC8C7C3B925 PUSH1 0x40 MLOAD PUSH1 0x40 MLOAD DUP1 SWAP2 SUB SWAP1 LOG4 POP POP JUMP JUMPDEST PUSH1 0x0 DUP1 PUSH2 0xB16 DUP4 PUSH2 0x644 JUMP JUMPDEST SWAP1 POP DUP1 PUSH20 0xFFFFFFFFFFFFFFFFFFFFFFFFFFFFFFFFFFFFFFFF AND DUP5 PUSH20 0xFFFFFFFFFFFFFFFFFFFFFFFFFFFFFFFFFFFFFFFF AND EQ DUP1 PUSH2 0xB58 JUMPI POP PUSH2 0xB57 DUP2 DUP6 PUSH2 0x900 JUMP JUMPDEST JUMPDEST DUP1 PUSH2 0xB96 JUMPI POP DUP4 PUSH20 0xFFFFFFFFFFFFFFFFFFFFFFFFFFFFFFFFFFFFFFFF AND PUSH2 0xB7E DUP5 PUSH2 0x467 JUMP JUMPDEST PUSH20 0xFFFFFFFFFFFFFFFFFFFFFFFFFFFFFFFFFFFFFFFF AND EQ JUMPDEST SWAP2 POP POP SWAP3 SWAP2 POP POP JUMP JUMPDEST DUP3 PUSH20 0xFFFFFFFFFFFFFFFFFFFFFFFFFFFFFFFFFFFFFFFF AND PUSH2 0xBBF DUP3 PUSH2 0x644 JUMP JUMPDEST PUSH20 0xFFFFFFFFFFFFFFFFFFFFFFFFFFFFFFFFFFFFFFFF AND EQ PUSH2 0xC15 JUMPI PUSH1 0x40 MLOAD PUSH32 0x8C379A000000000000000000000000000000000000000000000000000000000 DUP2 MSTORE PUSH1 0x4 ADD PUSH2 0xC0C SWAP1 PUSH2 0x2102 JUMP JUMPDEST PUSH1 0x40 MLOAD DUP1 SWAP2 SUB SWAP1 REVERT JUMPDEST PUSH1 0x0 PUSH20 0xFFFFFFFFFFFFFFFFFFFFFFFFFFFFFFFFFFFFFFFF AND DUP3 PUSH20 0xFFFFFFFFFFFFFFFFFFFFFFFFFFFFFFFFFFFFFFFF AND SUB PUSH2 0xC84 JUMPI PUSH1 0x40 MLOAD PUSH32 0x8C379A000000000000000000000000000000000000000000000000000000000 DUP2 MSTORE PUSH1 0x4 ADD PUSH2 0xC7B SWAP1 PUSH2 0x2194 JUMP JUMPDEST PUSH1 0x40 MLOAD DUP1 SWAP2 SUB SWAP1 REVERT JUMPDEST PUSH2 0xC91 DUP4 DUP4 DUP4 PUSH1 0x1 PUSH2 0x11E1 JUMP JUMPDEST DUP3 PUSH20 0xFFFFFFFFFFFFFFFFFFFFFFFFFFFFFFFFFFFFFFFF AND PUSH2 0xCB1 DUP3 PUSH2 0x644 JUMP JUMPDEST PUSH20 0xFFFFFFFFFFFFFFFFFFFFFFFFFFFFFFFFFFFFFFFF AND EQ PUSH2 0xD07 JUMPI PUSH1 0x40 MLOAD PUSH32 0x8C379A000000000000000000000000000000000000000000000000000000000 DUP2 MSTORE PUSH1 0x4 ADD PUSH2 0xCFE SWAP1 PUSH2 0x2102 JUMP JUMPDEST PUSH1 0x40 MLOAD DUP1 SWAP2 SUB SWAP1 REVERT JUMPDEST PUSH1 0x4 PUSH1 0x0 DUP3 DUP2 MSTORE PUSH1 0x20 ADD SWAP1 DUP2 MSTORE PUSH1 0x20 ADD PUSH1 0x0 KECCAK256 PUSH1 0x0 PUSH2 0x100 EXP DUP2 SLOAD SWAP1 PUSH20 0xFFFFFFFFFFFFFFFFFFFFFFFFFFFFFFFFFFFFFFFF MUL NOT AND SWAP1 SSTORE PUSH1 0x1 PUSH1 0x3 PUSH1 0x0 DUP6 PUSH20 0xFFFFFFFFFFFFFFFFFFFFFFFFFFFFFFFFFFFFFFFF AND PUSH20 0xFFFFFFFFFFFFFFFFFFFFFFFFFFFFFFFFFFFFFFFF AND DUP2 MSTORE PUSH1 0x20 ADD SWAP1 DUP2 MSTORE PUSH1 0x20 ADD PUSH1 0x0 KECCAK256 PUSH1 0x0 DUP3 DUP3 SLOAD SUB SWAP3 POP POP DUP2 SWAP1 SSTORE POP PUSH1 0x1 PUSH1 0x3 PUSH1 0x0 DUP5 PUSH20 0xFFFFFFFFFFFFFFFFFFFFFFFFFFFFFFFFFFFFFFFF AND PUSH20 0xFFFFFFFFFFFFFFFFFFFFFFFFFFFFFFFFFFFFFFFF AND DUP2 MSTORE PUSH1 0x20 ADD SWAP1 DUP2 MSTORE PUSH1 0x20 ADD PUSH1 0x0 KECCAK256 PUSH1 0x0 DUP3 DUP3 SLOAD ADD SWAP3 POP POP DUP2 SWAP1 SSTORE POP DUP2 PUSH1 0x2 PUSH1 0x0 DUP4 DUP2 MSTORE PUSH1 0x20 ADD SWAP1 DUP2 MSTORE PUSH1 0x20 ADD PUSH1 0x0 KECCAK256 PUSH1 0x0 PUSH2 0x100 EXP DUP2 SLOAD DUP2 PUSH20 0xFFFFFFFFFFFFFFFFFFFFFFFFFFFFFFFFFFFFFFFF MUL NOT AND SWAP1 DUP4 PUSH20 0xFFFFFFFFFFFFFFFFFFFFFFFFFFFFFFFFFFFFFFFF AND MUL OR SWAP1 SSTORE POP DUP1 DUP3 PUSH20 0xFFFFFFFFFFFFFFFFFFFFFFFFFFFFFFFFFFFFFFFF AND DUP5 PUSH20 0xFFFFFFFFFFFFFFFFFFFFFFFFFFFFFFFFFFFFFFFF AND PUSH32 0xDDF252AD1BE2C89B69C2B068FC378DAA952BA7F163C4A11628F55A4DF523B3EF PUSH1 0x40 MLOAD PUSH1 0x40 MLOAD DUP1 SWAP2 SUB SWAP1 LOG4 PUSH2 0xE93 DUP4 DUP4 DUP4 PUSH1 0x1 PUSH2 0x11E7 JUMP JUMPDEST POP POP POP JUMP JUMPDEST PUSH1 0x0 PUSH1 0x2 PUSH1 0x0 DUP4 DUP2 MSTORE PUSH1 0x20 ADD SWAP1 DUP2 MSTORE PUSH1 0x20 ADD PUSH1 0x0 KECCAK256 PUSH1 0x0 SWAP1 SLOAD SWAP1 PUSH2 0x100 EXP SWAP1 DIV PUSH20 0xFFFFFFFFFFFFFFFFFFFFFFFFFFFFFFFFFFFFFFFF AND SWAP1 POP SWAP2 SWAP1 POP JUMP JUMPDEST PUSH2 0xEEF DUP3 DUP3 PUSH1 0x40 MLOAD DUP1 PUSH1 0x20 ADD PUSH1 0x40 MSTORE DUP1 PUSH1 0x0 DUP2 MSTORE POP PUSH2 0x11ED JUMP JUMPDEST POP POP JUMP JUMPDEST DUP2 PUSH20 0xFFFFFFFFFFFFFFFFFFFFFFFFFFFFFFFFFFFFFFFF AND DUP4 PUSH20 0xFFFFFFFFFFFFFFFFFFFFFFFFFFFFFFFFFFFFFFFF AND SUB PUSH2 0xF61 JUMPI PUSH1 0x40 MLOAD PUSH32 0x8C379A000000000000000000000000000000000000000000000000000000000 DUP2 MSTORE PUSH1 0x4 ADD PUSH2 0xF58 SWAP1 PUSH2 0x2200 JUMP JUMPDEST PUSH1 0x40 MLOAD DUP1 SWAP2 SUB SWAP1 REVERT JUMPDEST DUP1 PUSH1 0x5 PUSH1 0x0 DUP6 PUSH20 0xFFFFFFFFFFFFFFFFFFFFFFFFFFFFFFFFFFFFFFFF AND PUSH20 0xFFFFFFFFFFFFFFFFFFFFFFFFFFFFFFFFFFFFFFFF AND DUP2 MSTORE PUSH1 0x20 ADD SWAP1 DUP2 MSTORE PUSH1 0x20 ADD PUSH1 0x0 KECCAK256 PUSH1 0x0 DUP5 PUSH20 0xFFFFFFFFFFFFFFFFFFFFFFFFFFFFFFFFFFFFFFFF AND PUSH20 0xFFFFFFFFFFFFFFFFFFFFFFFFFFFFFFFFFFFFFFFF AND DUP2 MSTORE PUSH1 0x20 ADD SWAP1 DUP2 MSTORE PUSH1 0x20 ADD PUSH1 0x0 KECCAK256 PUSH1 0x0 PUSH2 0x100 EXP DUP2 SLOAD DUP2 PUSH1 0xFF MUL NOT AND SWAP1 DUP4 ISZERO ISZERO MUL OR SWAP1 SSTORE POP DUP2 PUSH20 0xFFFFFFFFFFFFFFFFFFFFFFFFFFFFFFFFFFFFFFFF AND DUP4 PUSH20 0xFFFFFFFFFFFFFFFFFFFFFFFFFFFFFFFFFFFFFFFF AND PUSH32 0x17307EAB39AB6107E8899845AD3D59BD9653F200F220920489CA2B5937696C31 DUP4 PUSH1 0x40 MLOAD PUSH2 0x1052 SWAP2 SWAP1 PUSH2 0x1816 JUMP JUMPDEST PUSH1 0x40 MLOAD DUP1 SWAP2 SUB SWAP1 LOG3 POP POP POP JUMP JUMPDEST PUSH2 0x106A DUP5 DUP5 DUP5 PUSH2 0xB9F JUMP JUMPDEST PUSH2 0x1076 DUP5 DUP5 DUP5 DUP5 PUSH2 0x1248 JUMP JUMPDEST PUSH2 0x10B5 JUMPI PUSH1 0x40 MLOAD PUSH32 0x8C379A000000000000000000000000000000000000000000000000000000000 DUP2 MSTORE PUSH1 0x4 ADD PUSH2 0x10AC SWAP1 PUSH2 0x2292 JUMP JUMPDEST PUSH1 0x40 MLOAD DUP1 SWAP2 SUB SWAP1 REVERT JUMPDEST POP POP POP POP JUMP JUMPDEST PUSH1 0x60 PUSH1 0x40 MLOAD DUP1 PUSH1 0x20 ADD PUSH1 0x40 MSTORE DUP1 PUSH1 0x0 DUP2 MSTORE POP SWAP1 POP SWAP1 JUMP JUMPDEST PUSH1 0x60 PUSH1 0x0 PUSH1 0x1 PUSH2 0x10E1 DUP5 PUSH2 0x13CF JUMP JUMPDEST ADD SWAP1 POP PUSH1 0x0 DUP2 PUSH8 0xFFFFFFFFFFFFFFFF DUP2 GT ISZERO PUSH2 0x1100 JUMPI PUSH2 0x10FF PUSH2 0x1B2E JUMP JUMPDEST JUMPDEST PUSH1 0x40 MLOAD SWAP1 DUP1 DUP3 MSTORE DUP1 PUSH1 0x1F ADD PUSH1 0x1F NOT AND PUSH1 0x20 ADD DUP3 ADD PUSH1 0x40 MSTORE DUP1 ISZERO PUSH2 0x1132 JUMPI DUP2 PUSH1 0x20 ADD PUSH1 0x1 DUP3 MUL DUP1 CALLDATASIZE DUP4 CALLDATACOPY DUP1 DUP3 ADD SWAP2 POP POP SWAP1 POP JUMPDEST POP SWAP1 POP PUSH1 0x0 DUP3 PUSH1 0x20 ADD DUP3 ADD SWAP1 POP JUMPDEST PUSH1 0x1 ISZERO PUSH2 0x1195 JUMPI DUP1 DUP1 PUSH1 0x1 SWAP1 SUB SWAP2 POP POP PUSH32 0x3031323334353637383961626364656600000000000000000000000000000000 PUSH1 0xA DUP7 MOD BYTE DUP2 MSTORE8 PUSH1 0xA DUP6 DUP2 PUSH2 0x1189 JUMPI PUSH2 0x1188 PUSH2 0x22B2 JUMP JUMPDEST JUMPDEST DIV SWAP5 POP PUSH1 0x0 DUP6 SUB PUSH2 0x1140 JUMPI JUMPDEST DUP2 SWAP4 POP POP POP POP SWAP2 SWAP1 POP JUMP JUMPDEST PUSH1 0x0 DUP1 PUSH20 0xFFFFFFFFFFFFFFFFFFFFFFFFFFFFFFFFFFFFFFFF AND PUSH2 0x11C2 DUP4 PUSH2 0xE98 JUMP JUMPDEST PUSH20 0xFFFFFFFFFFFFFFFFFFFFFFFFFFFFFFFFFFFFFFFF AND EQ ISZERO SWAP1 POP SWAP2 SWAP1 POP JUMP JUMPDEST POP POP POP POP JUMP JUMPDEST POP POP POP POP JUMP JUMPDEST PUSH2 0x11F7 DUP4 DUP4 PUSH2 0x1522 JUMP JUMPDEST PUSH2 0x1204 PUSH1 0x0 DUP5 DUP5 DUP5 PUSH2 0x1248 JUMP JUMPDEST PUSH2 0x1243 JUMPI PUSH1 0x40 MLOAD PUSH32 0x8C379A000000000000000000000000000000000000000000000000000000000 DUP2 MSTORE PUSH1 0x4 ADD PUSH2 0x123A SWAP1 PUSH2 0x2292 JUMP JUMPDEST PUSH1 0x40 MLOAD DUP1 SWAP2 SUB SWAP1 REVERT JUMPDEST POP POP POP JUMP JUMPDEST PUSH1 0x0 PUSH2 0x1269 DUP5 PUSH20 0xFFFFFFFFFFFFFFFFFFFFFFFFFFFFFFFFFFFFFFFF AND PUSH2 0x173F JUMP JUMPDEST ISZERO PUSH2 0x13C2 JUMPI DUP4 PUSH20 0xFFFFFFFFFFFFFFFFFFFFFFFFFFFFFFFFFFFFFFFF AND PUSH4 0x150B7A02 PUSH2 0x1292 PUSH2 0xA49 JUMP JUMPDEST DUP8 DUP7 DUP7 PUSH1 0x40 MLOAD DUP6 PUSH4 0xFFFFFFFF AND PUSH1 0xE0 SHL DUP2 MSTORE PUSH1 0x4 ADD PUSH2 0x12B4 SWAP5 SWAP4 SWAP3 SWAP2 SWAP1 PUSH2 0x2336 JUMP JUMPDEST PUSH1 0x20 PUSH1 0x40 MLOAD DUP1 DUP4 SUB DUP2 PUSH1 0x0 DUP8 GAS CALL SWAP3 POP POP POP DUP1 ISZERO PUSH2 0x12F0 JUMPI POP PUSH1 0x40 MLOAD RETURNDATASIZE PUSH1 0x1F NOT PUSH1 0x1F DUP3 ADD AND DUP3 ADD DUP1 PUSH1 0x40 MSTORE POP DUP2 ADD SWAP1 PUSH2 0x12ED SWAP2 SWAP1 PUSH2 0x2397 JUMP JUMPDEST PUSH1 0x1 JUMPDEST PUSH2 0x1372 JUMPI RETURNDATASIZE DUP1 PUSH1 0x0 DUP2 EQ PUSH2 0x1320 JUMPI PUSH1 0x40 MLOAD SWAP2 POP PUSH1 0x1F NOT PUSH1 0x3F RETURNDATASIZE ADD AND DUP3 ADD PUSH1 0x40 MSTORE RETURNDATASIZE DUP3 MSTORE RETURNDATASIZE PUSH1 0x0 PUSH1 0x20 DUP5 ADD RETURNDATACOPY PUSH2 0x1325 JUMP JUMPDEST PUSH1 0x60 SWAP2 POP JUMPDEST POP PUSH1 0x0 DUP2 MLOAD SUB PUSH2 0x136A JUMPI PUSH1 0x40 MLOAD PUSH32 0x8C379A000000000000000000000000000000000000000000000000000000000 DUP2 MSTORE PUSH1 0x4 ADD PUSH2 0x1361 SWAP1 PUSH2 0x2292 JUMP JUMPDEST PUSH1 0x40 MLOAD DUP1 SWAP2 SUB SWAP1 REVERT JUMPDEST DUP1 MLOAD DUP2 PUSH1 0x20 ADD REVERT JUMPDEST PUSH4 0x150B7A02 PUSH1 0xE0 SHL PUSH28 0xFFFFFFFFFFFFFFFFFFFFFFFFFFFFFFFFFFFFFFFFFFFFFFFFFFFFFFFF NOT AND DUP2 PUSH28 0xFFFFFFFFFFFFFFFFFFFFFFFFFFFFFFFFFFFFFFFFFFFFFFFFFFFFFFFF NOT AND EQ SWAP2 POP POP PUSH2 0x13C7 JUMP JUMPDEST PUSH1 0x1 SWAP1 POP JUMPDEST SWAP5 SWAP4 POP POP POP POP JUMP JUMPDEST PUSH1 0x0 DUP1 PUSH1 0x0 SWAP1 POP PUSH27 0x184F03E93FF9F4DAA797ED6E38ED64BF6A1F010000000000000000 DUP4 LT PUSH2 0x142D JUMPI PUSH27 0x184F03E93FF9F4DAA797ED6E38ED64BF6A1F010000000000000000 DUP4 DUP2 PUSH2 0x1423 JUMPI PUSH2 0x1422 PUSH2 0x22B2 JUMP JUMPDEST JUMPDEST DIV SWAP3 POP PUSH1 0x40 DUP2 ADD SWAP1 POP JUMPDEST PUSH14 0x4EE2D6D415B85ACEF8100000000 DUP4 LT PUSH2 0x146A JUMPI PUSH14 0x4EE2D6D415B85ACEF8100000000 DUP4 DUP2 PUSH2 0x1460 JUMPI PUSH2 0x145F PUSH2 0x22B2 JUMP JUMPDEST JUMPDEST DIV SWAP3 POP PUSH1 0x20 DUP2 ADD SWAP1 POP JUMPDEST PUSH7 0x2386F26FC10000 DUP4 LT PUSH2 0x1499 JUMPI PUSH7 0x2386F26FC10000 DUP4 DUP2 PUSH2 0x148F JUMPI PUSH2 0x148E PUSH2 0x22B2 JUMP JUMPDEST JUMPDEST DIV SWAP3 POP PUSH1 0x10 DUP2 ADD SWAP1 POP JUMPDEST PUSH4 0x5F5E100 DUP4 LT PUSH2 0x14C2 JUMPI PUSH4 0x5F5E100 DUP4 DUP2 PUSH2 0x14B8 JUMPI PUSH2 0x14B7 PUSH2 0x22B2 JUMP JUMPDEST JUMPDEST DIV SWAP3 POP PUSH1 0x8 DUP2 ADD SWAP1 POP JUMPDEST PUSH2 0x2710 DUP4 LT PUSH2 0x14E7 JUMPI PUSH2 0x2710 DUP4 DUP2 PUSH2 0x14DD JUMPI PUSH2 0x14DC PUSH2 0x22B2 JUMP JUMPDEST JUMPDEST DIV SWAP3 POP PUSH1 0x4 DUP2 ADD SWAP1 POP JUMPDEST PUSH1 0x64 DUP4 LT PUSH2 0x150A JUMPI PUSH1 0x64 DUP4 DUP2 PUSH2 0x1500 JUMPI PUSH2 0x14FF PUSH2 0x22B2 JUMP JUMPDEST JUMPDEST DIV SWAP3 POP PUSH1 0x2 DUP2 ADD SWAP1 POP JUMPDEST PUSH1 0xA DUP4 LT PUSH2 0x1519 JUMPI PUSH1 0x1 DUP2 ADD SWAP1 POP JUMPDEST DUP1 SWAP2 POP POP SWAP2 SWAP1 POP JUMP JUMPDEST PUSH1 0x0 PUSH20 0xFFFFFFFFFFFFFFFFFFFFFFFFFFFFFFFFFFFFFFFF AND DUP3 PUSH20 0xFFFFFFFFFFFFFFFFFFFFFFFFFFFFFFFFFFFFFFFF AND SUB PUSH2 0x1591 JUMPI PUSH1 0x40 MLOAD PUSH32 0x8C379A000000000000000000000000000000000000000000000000000000000 DUP2 MSTORE PUSH1 0x4 ADD PUSH2 0x1588 SWAP1 PUSH2 0x2410 JUMP JUMPDEST PUSH1 0x40 MLOAD DUP1 SWAP2 SUB SWAP1 REVERT JUMPDEST PUSH2 0x159A DUP2 PUSH2 0x11A0 JUMP JUMPDEST ISZERO PUSH2 0x15DA JUMPI PUSH1 0x40 MLOAD PUSH32 0x8C379A000000000000000000000000000000000000000000000000000000000 DUP2 MSTORE PUSH1 0x4 ADD PUSH2 0x15D1 SWAP1 PUSH2 0x247C JUMP JUMPDEST PUSH1 0x40 MLOAD DUP1 SWAP2 SUB SWAP1 REVERT JUMPDEST PUSH2 0x15E8 PUSH1 0x0 DUP4 DUP4 PUSH1 0x1 PUSH2 0x11E1 JUMP JUMPDEST PUSH2 0x15F1 DUP2 PUSH2 0x11A0 JUMP JUMPDEST ISZERO PUSH2 0x1631 JUMPI PUSH1 0x40 MLOAD PUSH32 0x8C379A000000000000000000000000000000000000000000000000000000000 DUP2 MSTORE PUSH1 0x4 ADD PUSH2 0x1628 SWAP1 PUSH2 0x247C JUMP JUMPDEST PUSH1 0x40 MLOAD DUP1 SWAP2 SUB SWAP1 REVERT JUMPDEST PUSH1 0x1 PUSH1 0x3 PUSH1 0x0 DUP5 PUSH20 0xFFFFFFFFFFFFFFFFFFFFFFFFFFFFFFFFFFFFFFFF AND PUSH20 0xFFFFFFFFFFFFFFFFFFFFFFFFFFFFFFFFFFFFFFFF AND DUP2 MSTORE PUSH1 0x20 ADD SWAP1 DUP2 MSTORE PUSH1 0x20 ADD PUSH1 0x0 KECCAK256 PUSH1 0x0 DUP3 DUP3 SLOAD ADD SWAP3 POP POP DUP2 SWAP1 SSTORE POP DUP2 PUSH1 0x2 PUSH1 0x0 DUP4 DUP2 MSTORE PUSH1 0x20 ADD SWAP1 DUP2 MSTORE PUSH1 0x20 ADD PUSH1 0x0 KECCAK256 PUSH1 0x0 PUSH2 0x100 EXP DUP2 SLOAD DUP2 PUSH20 0xFFFFFFFFFFFFFFFFFFFFFFFFFFFFFFFFFFFFFFFF MUL NOT AND SWAP1 DUP4 PUSH20 0xFFFFFFFFFFFFFFFFFFFFFFFFFFFFFFFFFFFFFFFF AND MUL OR SWAP1 SSTORE POP DUP1 DUP3 PUSH20 0xFFFFFFFFFFFFFFFFFFFFFFFFFFFFFFFFFFFFFFFF AND PUSH1 0x0 PUSH20 0xFFFFFFFFFFFFFFFFFFFFFFFFFFFFFFFFFFFFFFFF AND PUSH32 0xDDF252AD1BE2C89B69C2B068FC378DAA952BA7F163C4A11628F55A4DF523B3EF PUSH1 0x40 MLOAD PUSH1 0x40 MLOAD DUP1 SWAP2 SUB SWAP1 LOG4 PUSH2 0x173B PUSH1 0x0 DUP4 DUP4 PUSH1 0x1 PUSH2 0x11E7 JUMP JUMPDEST POP POP JUMP JUMPDEST PUSH1 0x0 DUP1 DUP3 PUSH20 0xFFFFFFFFFFFFFFFFFFFFFFFFFFFFFFFFFFFFFFFF AND EXTCODESIZE GT SWAP1 POP SWAP2 SWAP1 POP JUMP JUMPDEST PUSH1 0x0 PUSH1 0x40 MLOAD SWAP1 POP SWAP1 JUMP JUMPDEST PUSH1 0x0 DUP1 REVERT JUMPDEST PUSH1 0x0 DUP1 REVERT JUMPDEST PUSH1 0x0 PUSH32 0xFFFFFFFF00000000000000000000000000000000000000000000000000000000 DUP3 AND SWAP1 POP SWAP2 SWAP1 POP JUMP JUMPDEST PUSH2 0x17AB DUP2 PUSH2 0x1776 JUMP JUMPDEST DUP2 EQ PUSH2 0x17B6 JUMPI PUSH1 0x0 DUP1 REVERT JUMPDEST POP JUMP JUMPDEST PUSH1 0x0 DUP2 CALLDATALOAD SWAP1 POP PUSH2 0x17C8 DUP2 PUSH2 0x17A2 JUMP JUMPDEST SWAP3 SWAP2 POP POP JUMP JUMPDEST PUSH1 0x0 PUSH1 0x20 DUP3 DUP5 SUB SLT ISZERO PUSH2 0x17E4 JUMPI PUSH2 0x17E3 PUSH2 0x176C JUMP JUMPDEST JUMPDEST PUSH1 0x0 PUSH2 0x17F2 DUP5 DUP3 DUP6 ADD PUSH2 0x17B9 JUMP JUMPDEST SWAP2 POP POP SWAP3 SWAP2 POP POP JUMP JUMPDEST PUSH1 0x0 DUP2 ISZERO ISZERO SWAP1 POP SWAP2 SWAP1 POP JUMP JUMPDEST PUSH2 0x1810 DUP2 PUSH2 0x17FB JUMP JUMPDEST DUP3 MSTORE POP POP JUMP JUMPDEST PUSH1 0x0 PUSH1 0x20 DUP3 ADD SWAP1 POP PUSH2 0x182B PUSH1 0x0 DUP4 ADD DUP5 PUSH2 0x1807 JUMP JUMPDEST SWAP3 SWAP2 POP POP JUMP JUMPDEST PUSH1 0x0 DUP2 MLOAD SWAP1 POP SWAP2 SWAP1 POP JUMP JUMPDEST PUSH1 0x0 DUP3 DUP3 MSTORE PUSH1 0x20 DUP3 ADD SWAP1 POP SWAP3 SWAP2 POP POP JUMP JUMPDEST PUSH1 0x0 JUMPDEST DUP4 DUP2 LT ISZERO PUSH2 0x186B JUMPI DUP1 DUP3 ADD MLOAD DUP2 DUP5 ADD MSTORE PUSH1 0x20 DUP2 ADD SWAP1 POP PUSH2 0x1850 JUMP JUMPDEST PUSH1 0x0 DUP5 DUP5 ADD MSTORE POP POP POP POP JUMP JUMPDEST PUSH1 0x0 PUSH1 0x1F NOT PUSH1 0x1F DUP4 ADD AND SWAP1 POP SWAP2 SWAP1 POP JUMP JUMPDEST PUSH1 0x0 PUSH2 0x1893 DUP3 PUSH2 0x1831 JUMP JUMPDEST PUSH2 0x189D DUP2 DUP6 PUSH2 0x183C JUMP JUMPDEST SWAP4 POP PUSH2 0x18AD DUP2 DUP6 PUSH1 0x20 DUP7 ADD PUSH2 0x184D JUMP JUMPDEST PUSH2 0x18B6 DUP2 PUSH2 0x1877 JUMP JUMPDEST DUP5 ADD SWAP2 POP POP SWAP3 SWAP2 POP POP JUMP JUMPDEST PUSH1 0x0 PUSH1 0x20 DUP3 ADD SWAP1 POP DUP2 DUP2 SUB PUSH1 0x0 DUP4 ADD MSTORE PUSH2 0x18DB DUP2 DUP5 PUSH2 0x1888 JUMP JUMPDEST SWAP1 POP SWAP3 SWAP2 POP POP JUMP JUMPDEST PUSH1 0x0 DUP2 SWAP1 POP SWAP2 SWAP1 POP JUMP JUMPDEST PUSH2 0x18F6 DUP2 PUSH2 0x18E3 JUMP JUMPDEST DUP2 EQ PUSH2 0x1901 JUMPI PUSH1 0x0 DUP1 REVERT JUMPDEST POP JUMP JUMPDEST PUSH1 0x0 DUP2 CALLDATALOAD SWAP1 POP PUSH2 0x1913 DUP2 PUSH2 0x18ED JUMP JUMPDEST SWAP3 SWAP2 POP POP JUMP JUMPDEST PUSH1 0x0 PUSH1 0x20 DUP3 DUP5 SUB SLT ISZERO PUSH2 0x192F JUMPI PUSH2 0x192E PUSH2 0x176C JUMP JUMPDEST JUMPDEST PUSH1 0x0 PUSH2 0x193D DUP5 DUP3 DUP6 ADD PUSH2 0x1904 JUMP JUMPDEST SWAP2 POP POP SWAP3 SWAP2 POP POP JUMP JUMPDEST PUSH1 0x0 PUSH20 0xFFFFFFFFFFFFFFFFFFFFFFFFFFFFFFFFFFFFFFFF DUP3 AND SWAP1 POP SWAP2 SWAP1 POP JUMP JUMPDEST PUSH1 0x0 PUSH2 0x1971 DUP3 PUSH2 0x1946 JUMP JUMPDEST SWAP1 POP SWAP2 SWAP1 POP JUMP JUMPDEST PUSH2 0x1981 DUP2 PUSH2 0x1966 JUMP JUMPDEST DUP3 MSTORE POP POP JUMP JUMPDEST PUSH1 0x0 PUSH1 0x20 DUP3 ADD SWAP1 POP PUSH2 0x199C PUSH1 0x0 DUP4 ADD DUP5 PUSH2 0x1978 JUMP JUMPDEST SWAP3 SWAP2 POP POP JUMP JUMPDEST PUSH2 0x19AB DUP2 PUSH2 0x1966 JUMP JUMPDEST DUP2 EQ PUSH2 0x19B6 JUMPI PUSH1 0x0 DUP1 REVERT JUMPDEST POP JUMP JUMPDEST PUSH1 0x0 DUP2 CALLDATALOAD SWAP1 POP PUSH2 0x19C8 DUP2 PUSH2 0x19A2 JUMP JUMPDEST SWAP3 SWAP2 POP POP JUMP JUMPDEST PUSH1 0x0 DUP1 PUSH1 0x40 DUP4 DUP6 SUB SLT ISZERO PUSH2 0x19E5 JUMPI PUSH2 0x19E4 PUSH2 0x176C JUMP JUMPDEST JUMPDEST PUSH1 0x0 PUSH2 0x19F3 DUP6 DUP3 DUP7 ADD PUSH2 0x19B9 JUMP JUMPDEST SWAP3 POP POP PUSH1 0x20 PUSH2 0x1A04 DUP6 DUP3 DUP7 ADD PUSH2 0x1904 JUMP JUMPDEST SWAP2 POP POP SWAP3 POP SWAP3 SWAP1 POP JUMP JUMPDEST PUSH1 0x0 DUP1 PUSH1 0x0 PUSH1 0x60 DUP5 DUP7 SUB SLT ISZERO PUSH2 0x1A27 JUMPI PUSH2 0x1A26 PUSH2 0x176C JUMP JUMPDEST JUMPDEST PUSH1 0x0 PUSH2 0x1A35 DUP7 DUP3 DUP8 ADD PUSH2 0x19B9 JUMP JUMPDEST SWAP4 POP POP PUSH1 0x20 PUSH2 0x1A46 DUP7 DUP3 DUP8 ADD PUSH2 0x19B9 JUMP JUMPDEST SWAP3 POP POP PUSH1 0x40 PUSH2 0x1A57 DUP7 DUP3 DUP8 ADD PUSH2 0x1904 JUMP JUMPDEST SWAP2 POP POP SWAP3 POP SWAP3 POP SWAP3 JUMP JUMPDEST PUSH1 0x0 PUSH1 0x20 DUP3 DUP5 SUB SLT ISZERO PUSH2 0x1A77 JUMPI PUSH2 0x1A76 PUSH2 0x176C JUMP JUMPDEST JUMPDEST PUSH1 0x0 PUSH2 0x1A85 DUP5 DUP3 DUP6 ADD PUSH2 0x19B9 JUMP JUMPDEST SWAP2 POP POP SWAP3 SWAP2 POP POP JUMP JUMPDEST PUSH2 0x1A97 DUP2 PUSH2 0x18E3 JUMP JUMPDEST DUP3 MSTORE POP POP JUMP JUMPDEST PUSH1 0x0 PUSH1 0x20 DUP3 ADD SWAP1 POP PUSH2 0x1AB2 PUSH1 0x0 DUP4 ADD DUP5 PUSH2 0x1A8E JUMP JUMPDEST SWAP3 SWAP2 POP POP JUMP JUMPDEST PUSH2 0x1AC1 DUP2 PUSH2 0x17FB JUMP JUMPDEST DUP2 EQ PUSH2 0x1ACC JUMPI PUSH1 0x0 DUP1 REVERT JUMPDEST POP JUMP JUMPDEST PUSH1 0x0 DUP2 CALLDATALOAD SWAP1 POP PUSH2 0x1ADE DUP2 PUSH2 0x1AB8 JUMP JUMPDEST SWAP3 SWAP2 POP POP JUMP JUMPDEST PUSH1 0x0 DUP1 PUSH1 0x40 DUP4 DUP6 SUB SLT ISZERO PUSH2 0x1AFB JUMPI PUSH2 0x1AFA PUSH2 0x176C JUMP JUMPDEST JUMPDEST PUSH1 0x0 PUSH2 0x1B09 DUP6 DUP3 DUP7 ADD PUSH2 0x19B9 JUMP JUMPDEST SWAP3 POP POP PUSH1 0x20 PUSH2 0x1B1A DUP6 DUP3 DUP7 ADD PUSH2 0x1ACF JUMP JUMPDEST SWAP2 POP POP SWAP3 POP SWAP3 SWAP1 POP JUMP JUMPDEST PUSH1 0x0 DUP1 REVERT JUMPDEST PUSH1 0x0 DUP1 REVERT JUMPDEST PUSH32 0x4E487B7100000000000000000000000000000000000000000000000000000000 PUSH1 0x0 MSTORE PUSH1 0x41 PUSH1 0x4 MSTORE PUSH1 0x24 PUSH1 0x0 REVERT JUMPDEST PUSH2 0x1B66 DUP3 PUSH2 0x1877 JUMP JUMPDEST DUP2 ADD DUP2 DUP2 LT PUSH8 0xFFFFFFFFFFFFFFFF DUP3 GT OR ISZERO PUSH2 0x1B85 JUMPI PUSH2 0x1B84 PUSH2 0x1B2E JUMP JUMPDEST JUMPDEST DUP1 PUSH1 0x40 MSTORE POP POP POP JUMP JUMPDEST PUSH1 0x0 PUSH2 0x1B98 PUSH2 0x1762 JUMP JUMPDEST SWAP1 POP PUSH2 0x1BA4 DUP3 DUP3 PUSH2 0x1B5D JUMP JUMPDEST SWAP2 SWAP1 POP JUMP JUMPDEST PUSH1 0x0 PUSH8 0xFFFFFFFFFFFFFFFF DUP3 GT ISZERO PUSH2 0x1BC4 JUMPI PUSH2 0x1BC3 PUSH2 0x1B2E JUMP JUMPDEST JUMPDEST PUSH2 0x1BCD DUP3 PUSH2 0x1877 JUMP JUMPDEST SWAP1 POP PUSH1 0x20 DUP2 ADD SWAP1 POP SWAP2 SWAP1 POP JUMP JUMPDEST DUP3 DUP2 DUP4 CALLDATACOPY PUSH1 0x0 DUP4 DUP4 ADD MSTORE POP POP POP JUMP JUMPDEST PUSH1 0x0 PUSH2 0x1BFC PUSH2 0x1BF7 DUP5 PUSH2 0x1BA9 JUMP JUMPDEST PUSH2 0x1B8E JUMP JUMPDEST SWAP1 POP DUP3 DUP2 MSTORE PUSH1 0x20 DUP2 ADD DUP5 DUP5 DUP5 ADD GT ISZERO PUSH2 0x1C18 JUMPI PUSH2 0x1C17 PUSH2 0x1B29 JUMP JUMPDEST JUMPDEST PUSH2 0x1C23 DUP5 DUP3 DUP6 PUSH2 0x1BDA JUMP JUMPDEST POP SWAP4 SWAP3 POP POP POP JUMP JUMPDEST PUSH1 0x0 DUP3 PUSH1 0x1F DUP4 ADD SLT PUSH2 0x1C40 JUMPI PUSH2 0x1C3F PUSH2 0x1B24 JUMP JUMPDEST JUMPDEST DUP2 CALLDATALOAD PUSH2 0x1C50 DUP5 DUP3 PUSH1 0x20 DUP7 ADD PUSH2 0x1BE9 JUMP JUMPDEST SWAP2 POP POP SWAP3 SWAP2 POP POP JUMP JUMPDEST PUSH1 0x0 DUP1 PUSH1 0x0 DUP1 PUSH1 0x80 DUP6 DUP8 SUB SLT ISZERO PUSH2 0x1C73 JUMPI PUSH2 0x1C72 PUSH2 0x176C JUMP JUMPDEST JUMPDEST PUSH1 0x0 PUSH2 0x1C81 DUP8 DUP3 DUP9 ADD PUSH2 0x19B9 JUMP JUMPDEST SWAP5 POP POP PUSH1 0x20 PUSH2 0x1C92 DUP8 DUP3 DUP9 ADD PUSH2 0x19B9 JUMP JUMPDEST SWAP4 POP POP PUSH1 0x40 PUSH2 0x1CA3 DUP8 DUP3 DUP9 ADD PUSH2 0x1904 JUMP JUMPDEST SWAP3 POP POP PUSH1 0x60 DUP6 ADD CALLDATALOAD PUSH8 0xFFFFFFFFFFFFFFFF DUP2 GT ISZERO PUSH2 0x1CC4 JUMPI PUSH2 0x1CC3 PUSH2 0x1771 JUMP JUMPDEST JUMPDEST PUSH2 0x1CD0 DUP8 DUP3 DUP9 ADD PUSH2 0x1C2B JUMP JUMPDEST SWAP2 POP POP SWAP3 SWAP6 SWAP2 SWAP5 POP SWAP3 POP JUMP JUMPDEST PUSH1 0x0 DUP1 PUSH1 0x40 DUP4 DUP6 SUB SLT ISZERO PUSH2 0x1CF3 JUMPI PUSH2 0x1CF2 PUSH2 0x176C JUMP JUMPDEST JUMPDEST PUSH1 0x0 PUSH2 0x1D01 DUP6 DUP3 DUP7 ADD PUSH2 0x19B9 JUMP JUMPDEST SWAP3 POP POP PUSH1 0x20 PUSH2 0x1D12 DUP6 DUP3 DUP7 ADD PUSH2 0x19B9 JUMP JUMPDEST SWAP2 POP POP SWAP3 POP SWAP3 SWAP1 POP JUMP JUMPDEST PUSH32 0x4E487B7100000000000000000000000000000000000000000000000000000000 PUSH1 0x0 MSTORE PUSH1 0x22 PUSH1 0x4 MSTORE PUSH1 0x24 PUSH1 0x0 REVERT JUMPDEST PUSH1 0x0 PUSH1 0x2 DUP3 DIV SWAP1 POP PUSH1 0x1 DUP3 AND DUP1 PUSH2 0x1D63 JUMPI PUSH1 0x7F DUP3 AND SWAP2 POP JUMPDEST PUSH1 0x20 DUP3 LT DUP2 SUB PUSH2 0x1D76 JUMPI PUSH2 0x1D75 PUSH2 0x1D1C JUMP JUMPDEST JUMPDEST POP SWAP2 SWAP1 POP JUMP JUMPDEST PUSH32 0x4552433732313A20617070726F76616C20746F2063757272656E74206F776E65 PUSH1 0x0 DUP3 ADD MSTORE PUSH32 0x7200000000000000000000000000000000000000000000000000000000000000 PUSH1 0x20 DUP3 ADD MSTORE POP JUMP JUMPDEST PUSH1 0x0 PUSH2 0x1DD8 PUSH1 0x21 DUP4 PUSH2 0x183C JUMP JUMPDEST SWAP2 POP PUSH2 0x1DE3 DUP3 PUSH2 0x1D7C JUMP JUMPDEST PUSH1 0x40 DUP3 ADD SWAP1 POP SWAP2 SWAP1 POP JUMP JUMPDEST PUSH1 0x0 PUSH1 0x20 DUP3 ADD SWAP1 POP DUP2 DUP2 SUB PUSH1 0x0 DUP4 ADD MSTORE PUSH2 0x1E07 DUP2 PUSH2 0x1DCB JUMP JUMPDEST SWAP1 POP SWAP2 SWAP1 POP JUMP JUMPDEST PUSH32 0x4552433732313A20617070726F76652063616C6C6572206973206E6F7420746F PUSH1 0x0 DUP3 ADD MSTORE PUSH32 0x6B656E206F776E6572206F7220617070726F76656420666F7220616C6C000000 PUSH1 0x20 DUP3 ADD MSTORE POP JUMP JUMPDEST PUSH1 0x0 PUSH2 0x1E6A PUSH1 0x3D DUP4 PUSH2 0x183C JUMP JUMPDEST SWAP2 POP PUSH2 0x1E75 DUP3 PUSH2 0x1E0E JUMP JUMPDEST PUSH1 0x40 DUP3 ADD SWAP1 POP SWAP2 SWAP1 POP JUMP JUMPDEST PUSH1 0x0 PUSH1 0x20 DUP3 ADD SWAP1 POP DUP2 DUP2 SUB PUSH1 0x0 DUP4 ADD MSTORE PUSH2 0x1E99 DUP2 PUSH2 0x1E5D JUMP JUMPDEST SWAP1 POP SWAP2 SWAP1 POP JUMP JUMPDEST PUSH32 0x4552433732313A2063616C6C6572206973206E6F7420746F6B656E206F776E65 PUSH1 0x0 DUP3 ADD MSTORE PUSH32 0x72206F7220617070726F76656400000000000000000000000000000000000000 PUSH1 0x20 DUP3 ADD MSTORE POP JUMP JUMPDEST PUSH1 0x0 PUSH2 0x1EFC PUSH1 0x2D DUP4 PUSH2 0x183C JUMP JUMPDEST SWAP2 POP PUSH2 0x1F07 DUP3 PUSH2 0x1EA0 JUMP JUMPDEST PUSH1 0x40 DUP3 ADD SWAP1 POP SWAP2 SWAP1 POP JUMP JUMPDEST PUSH1 0x0 PUSH1 0x20 DUP3 ADD SWAP1 POP DUP2 DUP2 SUB PUSH1 0x0 DUP4 ADD MSTORE PUSH2 0x1F2B DUP2 PUSH2 0x1EEF JUMP JUMPDEST SWAP1 POP SWAP2 SWAP1 POP JUMP JUMPDEST PUSH32 0x4552433732313A20696E76616C696420746F6B656E2049440000000000000000 PUSH1 0x0 DUP3 ADD MSTORE POP JUMP JUMPDEST PUSH1 0x0 PUSH2 0x1F68 PUSH1 0x18 DUP4 PUSH2 0x183C JUMP JUMPDEST SWAP2 POP PUSH2 0x1F73 DUP3 PUSH2 0x1F32 JUMP JUMPDEST PUSH1 0x20 DUP3 ADD SWAP1 POP SWAP2 SWAP1 POP JUMP JUMPDEST PUSH1 0x0 PUSH1 0x20 DUP3 ADD SWAP1 POP DUP2 DUP2 SUB PUSH1 0x0 DUP4 ADD MSTORE PUSH2 0x1F97 DUP2 PUSH2 0x1F5B JUMP JUMPDEST SWAP1 POP SWAP2 SWAP1 POP JUMP JUMPDEST PUSH32 0x4552433732313A2061646472657373207A65726F206973206E6F742061207661 PUSH1 0x0 DUP3 ADD MSTORE PUSH32 0x6C6964206F776E65720000000000000000000000000000000000000000000000 PUSH1 0x20 DUP3 ADD MSTORE POP JUMP JUMPDEST PUSH1 0x0 PUSH2 0x1FFA PUSH1 0x29 DUP4 PUSH2 0x183C JUMP JUMPDEST SWAP2 POP PUSH2 0x2005 DUP3 PUSH2 0x1F9E JUMP JUMPDEST PUSH1 0x40 DUP3 ADD SWAP1 POP SWAP2 SWAP1 POP JUMP JUMPDEST PUSH1 0x0 PUSH1 0x20 DUP3 ADD SWAP1 POP DUP2 DUP2 SUB PUSH1 0x0 DUP4 ADD MSTORE PUSH2 0x2029 DUP2 PUSH2 0x1FED JUMP JUMPDEST SWAP1 POP SWAP2 SWAP1 POP JUMP JUMPDEST PUSH1 0x0 DUP2 SWAP1 POP SWAP3 SWAP2 POP POP JUMP JUMPDEST PUSH1 0x0 PUSH2 0x2046 DUP3 PUSH2 0x1831 JUMP JUMPDEST PUSH2 0x2050 DUP2 DUP6 PUSH2 0x2030 JUMP JUMPDEST SWAP4 POP PUSH2 0x2060 DUP2 DUP6 PUSH1 0x20 DUP7 ADD PUSH2 0x184D JUMP JUMPDEST DUP1 DUP5 ADD SWAP2 POP POP SWAP3 SWAP2 POP POP JUMP JUMPDEST PUSH1 0x0 PUSH2 0x2078 DUP3 DUP6 PUSH2 0x203B JUMP JUMPDEST SWAP2 POP PUSH2 0x2084 DUP3 DUP5 PUSH2 0x203B JUMP JUMPDEST SWAP2 POP DUP2 SWAP1 POP SWAP4 SWAP3 POP POP POP JUMP JUMPDEST PUSH32 0x4552433732313A207472616E736665722066726F6D20696E636F727265637420 PUSH1 0x0 DUP3 ADD MSTORE PUSH32 0x6F776E6572000000000000000000000000000000000000000000000000000000 PUSH1 0x20 DUP3 ADD MSTORE POP JUMP JUMPDEST PUSH1 0x0 PUSH2 0x20EC PUSH1 0x25 DUP4 PUSH2 0x183C JUMP JUMPDEST SWAP2 POP PUSH2 0x20F7 DUP3 PUSH2 0x2090 JUMP JUMPDEST PUSH1 0x40 DUP3 ADD SWAP1 POP SWAP2 SWAP1 POP JUMP JUMPDEST PUSH1 0x0 PUSH1 0x20 DUP3 ADD SWAP1 POP DUP2 DUP2 SUB PUSH1 0x0 DUP4 ADD MSTORE PUSH2 0x211B DUP2 PUSH2 0x20DF JUMP JUMPDEST SWAP1 POP SWAP2 SWAP1 POP JUMP JUMPDEST PUSH32 0x4552433732313A207472616E7366657220746F20746865207A65726F20616464 PUSH1 0x0 DUP3 ADD MSTORE PUSH32 0x7265737300000000000000000000000000000000000000000000000000000000 PUSH1 0x20 DUP3 ADD MSTORE POP JUMP JUMPDEST PUSH1 0x0 PUSH2 0x217E PUSH1 0x24 DUP4 PUSH2 0x183C JUMP JUMPDEST SWAP2 POP PUSH2 0x2189 DUP3 PUSH2 0x2122 JUMP JUMPDEST PUSH1 0x40 DUP3 ADD SWAP1 POP SWAP2 SWAP1 POP JUMP JUMPDEST PUSH1 0x0 PUSH1 0x20 DUP3 ADD SWAP1 POP DUP2 DUP2 SUB PUSH1 0x0 DUP4 ADD MSTORE PUSH2 0x21AD DUP2 PUSH2 0x2171 JUMP JUMPDEST SWAP1 POP SWAP2 SWAP1 POP JUMP JUMPDEST PUSH32 0x4552433732313A20617070726F766520746F2063616C6C657200000000000000 PUSH1 0x0 DUP3 ADD MSTORE POP JUMP JUMPDEST PUSH1 0x0 PUSH2 0x21EA PUSH1 0x19 DUP4 PUSH2 0x183C JUMP JUMPDEST SWAP2 POP PUSH2 0x21F5 DUP3 PUSH2 0x21B4 JUMP JUMPDEST PUSH1 0x20 DUP3 ADD SWAP1 POP SWAP2 SWAP1 POP JUMP JUMPDEST PUSH1 0x0 PUSH1 0x20 DUP3 ADD SWAP1 POP DUP2 DUP2 SUB PUSH1 0x0 DUP4 ADD MSTORE PUSH2 0x2219 DUP2 PUSH2 0x21DD JUMP JUMPDEST SWAP1 POP SWAP2 SWAP1 POP JUMP JUMPDEST PUSH32 0x4552433732313A207472616E7366657220746F206E6F6E204552433732315265 PUSH1 0x0 DUP3 ADD MSTORE PUSH32 0x63656976657220696D706C656D656E7465720000000000000000000000000000 PUSH1 0x20 DUP3 ADD MSTORE POP JUMP JUMPDEST PUSH1 0x0 PUSH2 0x227C PUSH1 0x32 DUP4 PUSH2 0x183C JUMP JUMPDEST SWAP2 POP PUSH2 0x2287 DUP3 PUSH2 0x2220 JUMP JUMPDEST PUSH1 0x40 DUP3 ADD SWAP1 POP SWAP2 SWAP1 POP JUMP JUMPDEST PUSH1 0x0 PUSH1 0x20 DUP3 ADD SWAP1 POP DUP2 DUP2 SUB PUSH1 0x0 DUP4 ADD MSTORE PUSH2 0x22AB DUP2 PUSH2 0x226F JUMP JUMPDEST SWAP1 POP SWAP2 SWAP1 POP JUMP JUMPDEST PUSH32 0x4E487B7100000000000000000000000000000000000000000000000000000000 PUSH1 0x0 MSTORE PUSH1 0x12 PUSH1 0x4 MSTORE PUSH1 0x24 PUSH1 0x0 REVERT JUMPDEST PUSH1 0x0 DUP2 MLOAD SWAP1 POP SWAP2 SWAP1 POP JUMP JUMPDEST PUSH1 0x0 DUP3 DUP3 MSTORE PUSH1 0x20 DUP3 ADD SWAP1 POP SWAP3 SWAP2 POP POP JUMP JUMPDEST PUSH1 0x0 PUSH2 0x2308 DUP3 PUSH2 0x22E1 JUMP JUMPDEST PUSH2 0x2312 DUP2 DUP6 PUSH2 0x22EC JUMP JUMPDEST SWAP4 POP PUSH2 0x2322 DUP2 DUP6 PUSH1 0x20 DUP7 ADD PUSH2 0x184D JUMP JUMPDEST PUSH2 0x232B DUP2 PUSH2 0x1877 JUMP JUMPDEST DUP5 ADD SWAP2 POP POP SWAP3 SWAP2 POP POP JUMP JUMPDEST PUSH1 0x0 PUSH1 0x80 DUP3 ADD SWAP1 POP PUSH2 0x234B PUSH1 0x0 DUP4 ADD DUP8 PUSH2 0x1978 JUMP JUMPDEST PUSH2 0x2358 PUSH1 0x20 DUP4 ADD DUP7 PUSH2 0x1978 JUMP JUMPDEST PUSH2 0x2365 PUSH1 0x40 DUP4 ADD DUP6 PUSH2 0x1A8E JUMP JUMPDEST DUP2 DUP2 SUB PUSH1 0x60 DUP4 ADD MSTORE PUSH2 0x2377 DUP2 DUP5 PUSH2 0x22FD JUMP JUMPDEST SWAP1 POP SWAP6 SWAP5 POP POP POP POP POP JUMP JUMPDEST PUSH1 0x0 DUP2 MLOAD SWAP1 POP PUSH2 0x2391 DUP2 PUSH2 0x17A2 JUMP JUMPDEST SWAP3 SWAP2 POP POP JUMP JUMPDEST PUSH1 0x0 PUSH1 0x20 DUP3 DUP5 SUB SLT ISZERO PUSH2 0x23AD JUMPI PUSH2 0x23AC PUSH2 0x176C JUMP JUMPDEST JUMPDEST PUSH1 0x0 PUSH2 0x23BB DUP5 DUP3 DUP6 ADD PUSH2 0x2382 JUMP JUMPDEST SWAP2 POP POP SWAP3 SWAP2 POP POP JUMP JUMPDEST PUSH32 0x4552433732313A206D696E7420746F20746865207A65726F2061646472657373 PUSH1 0x0 DUP3 ADD MSTORE POP JUMP JUMPDEST PUSH1 0x0 PUSH2 0x23FA PUSH1 0x20 DUP4 PUSH2 0x183C JUMP JUMPDEST SWAP2 POP PUSH2 0x2405 DUP3 PUSH2 0x23C4 JUMP JUMPDEST PUSH1 0x20 DUP3 ADD SWAP1 POP SWAP2 SWAP1 POP JUMP JUMPDEST PUSH1 0x0 PUSH1 0x20 DUP3 ADD SWAP1 POP DUP2 DUP2 SUB PUSH1 0x0 DUP4 ADD MSTORE PUSH2 0x2429 DUP2 PUSH2 0x23ED JUMP JUMPDEST SWAP1 POP SWAP2 SWAP1 POP JUMP JUMPDEST PUSH32 0x4552433732313A20746F6B656E20616C7265616479206D696E74656400000000 PUSH1 0x0 DUP3 ADD MSTORE POP JUMP JUMPDEST PUSH1 0x0 PUSH2 0x2466 PUSH1 0x1C DUP4 PUSH2 0x183C JUMP JUMPDEST SWAP2 POP PUSH2 0x2471 DUP3 PUSH2 0x2430 JUMP JUMPDEST PUSH1 0x20 DUP3 ADD SWAP1 POP SWAP2 SWAP1 POP JUMP JUMPDEST PUSH1 0x0 PUSH1 0x20 DUP3 ADD SWAP1 POP DUP2 DUP2 SUB PUSH1 0x0 DUP4 ADD MSTORE PUSH2 0x2495 DUP2 PUSH2 0x2459 JUMP JUMPDEST SWAP1 POP SWAP2 SWAP1 POP JUMP INVALID LOG2 PUSH5 0x6970667358 0x22 SLT KECCAK256 0x2E MLOAD MUL 0xCB 0x28 0xB8 0xB0 DUP3 0xE5 0xEF PUSH29 0xA6FF1F18EED490122416856184696A0277B48ED26D64736F6C63430008 SLT STOP CALLER "
				},
				"gasEstimates": {
					"creation": {
						"codeDepositCost": "1885200",
						"executionCost": "infinite",
						"totalCost": "infinite"
					},
					"external": {
						"approve(address,uint256)": "infinite",
						"balanceOf(address)": "2899",
						"getApproved(uint256)": "5300",
						"isApprovedForAll(address,address)": "infinite",
						"mint(uint256)": "infinite",
						"name()": "infinite",
						"ownerOf(uint256)": "3088",
						"safeTransferFrom(address,address,uint256)": "infinite",
						"safeTransferFrom(address,address,uint256,bytes)": "infinite",
						"setApprovalForAll(address,bool)": "infinite",
						"supportsInterface(bytes4)": "797",
						"symbol()": "infinite",
						"tokenURI(uint256)": "3459",
						"transferFrom(address,address,uint256)": "infinite"
					},
					"internal": {
						"__unsafe_increaseBalance(address,uint256)": "infinite",
						"_afterTokenTransfer(address,address,uint256,uint256)": "17",
						"_approve(address,uint256)": "infinite",
						"_baseURI()": "infinite",
						"_beforeTokenTransfer(address,address,uint256,uint256)": "17",
						"_burn(uint256)": "infinite",
						"_checkOnERC721Received(address,address,uint256,bytes memory)": "infinite",
						"_exists(uint256)": "2312",
						"_isApprovedOrOwner(address,uint256)": "infinite",
						"_mint(address,uint256)": "infinite",
						"_ownerOf(uint256)": "2248",
						"_requireMinted(uint256)": "infinite",
						"_safeMint(address,uint256)": "infinite",
						"_safeMint(address,uint256,bytes memory)": "infinite",
						"_safeTransfer(address,address,uint256,bytes memory)": "infinite",
						"_setApprovalForAll(address,address,bool)": "infinite",
						"_transfer(address,address,uint256)": "infinite"
					}
				},
				"methodIdentifiers": {
					"approve(address,uint256)": "095ea7b3",
					"balanceOf(address)": "70a08231",
					"getApproved(uint256)": "081812fc",
					"isApprovedForAll(address,address)": "e985e9c5",
					"mint(uint256)": "a0712d68",
					"name()": "06fdde03",
					"ownerOf(uint256)": "6352211e",
					"safeTransferFrom(address,address,uint256)": "42842e0e",
					"safeTransferFrom(address,address,uint256,bytes)": "b88d4fde",
					"setApprovalForAll(address,bool)": "a22cb465",
					"supportsInterface(bytes4)": "01ffc9a7",
					"symbol()": "95d89b41",
					"tokenURI(uint256)": "c87b56dd",
					"transferFrom(address,address,uint256)": "23b872dd"
				}
			},
			"storageLayout": {
				"storage": [
					{
						"astId": 25,
						"contract": "contracts/token/ERC721/ERC721.sol:ERC721",
						"label": "_name",
						"offset": 0,
						"slot": "0",
						"type": "t_string_storage"
					},
					{
						"astId": 27,
						"contract": "contracts/token/ERC721/ERC721.sol:ERC721",
						"label": "_symbol",
						"offset": 0,
						"slot": "1",
						"type": "t_string_storage"
					},
					{
						"astId": 31,
						"contract": "contracts/token/ERC721/ERC721.sol:ERC721",
						"label": "_owners",
						"offset": 0,
						"slot": "2",
						"type": "t_mapping(t_uint256,t_address)"
					},
					{
						"astId": 35,
						"contract": "contracts/token/ERC721/ERC721.sol:ERC721",
						"label": "_balances",
						"offset": 0,
						"slot": "3",
						"type": "t_mapping(t_address,t_uint256)"
					},
					{
						"astId": 39,
						"contract": "contracts/token/ERC721/ERC721.sol:ERC721",
						"label": "_tokenApprovals",
						"offset": 0,
						"slot": "4",
						"type": "t_mapping(t_uint256,t_address)"
					},
					{
						"astId": 45,
						"contract": "contracts/token/ERC721/ERC721.sol:ERC721",
						"label": "_operatorApprovals",
						"offset": 0,
						"slot": "5",
						"type": "t_mapping(t_address,t_mapping(t_address,t_bool))"
					}
				],
				"types": {
					"t_address": {
						"encoding": "inplace",
						"label": "address",
						"numberOfBytes": "20"
					},
					"t_bool": {
						"encoding": "inplace",
						"label": "bool",
						"numberOfBytes": "1"
					},
					"t_mapping(t_address,t_bool)": {
						"encoding": "mapping",
						"key": "t_address",
						"label": "mapping(address => bool)",
						"numberOfBytes": "32",
						"value": "t_bool"
					},
					"t_mapping(t_address,t_mapping(t_address,t_bool))": {
						"encoding": "mapping",
						"key": "t_address",
						"label": "mapping(address => mapping(address => bool))",
						"numberOfBytes": "32",
						"value": "t_mapping(t_address,t_bool)"
					},
					"t_mapping(t_address,t_uint256)": {
						"encoding": "mapping",
						"key": "t_address",
						"label": "mapping(address => uint256)",
						"numberOfBytes": "32",
						"value": "t_uint256"
					},
					"t_mapping(t_uint256,t_address)": {
						"encoding": "mapping",
						"key": "t_uint256",
						"label": "mapping(uint256 => address)",
						"numberOfBytes": "32",
						"value": "t_address"
					},
					"t_string_storage": {
						"encoding": "bytes",
						"label": "string",
						"numberOfBytes": "32"
					},
					"t_uint256": {
						"encoding": "inplace",
						"label": "uint256",
						"numberOfBytes": "32"
					}
				}
			},
			"userdoc": {
				"kind": "user",
				"methods": {},
				"version": 1
			}
		}
	}
}