{
	"contracts/token/ERC721/ERC721.sol": {
		"ERC721": {
			"abi": [
				{
					"inputs": [
						{
							"internalType": "string",
							"name": "name_",
							"type": "string"
						},
						{
							"internalType": "string",
							"name": "symbol_",
							"type": "string"
						}
					],
					"stateMutability": "nonpayable",
					"type": "constructor"
				},
				{
					"anonymous": false,
					"inputs": [
						{
							"indexed": true,
							"internalType": "address",
							"name": "owner",
							"type": "address"
						},
						{
							"indexed": true,
							"internalType": "address",
							"name": "approved",
							"type": "address"
						},
						{
							"indexed": true,
							"internalType": "uint256",
							"name": "tokenId",
							"type": "uint256"
						}
					],
					"name": "Approval",
					"type": "event"
				},
				{
					"anonymous": false,
					"inputs": [
						{
							"indexed": true,
							"internalType": "address",
							"name": "owner",
							"type": "address"
						},
						{
							"indexed": true,
							"internalType": "address",
							"name": "operator",
							"type": "address"
						},
						{
							"indexed": false,
							"internalType": "bool",
							"name": "approved",
							"type": "bool"
						}
					],
					"name": "ApprovalForAll",
					"type": "event"
				},
				{
					"anonymous": false,
					"inputs": [
						{
							"indexed": true,
							"internalType": "address",
							"name": "owner",
							"type": "address"
						},
						{
							"indexed": false,
							"internalType": "uint256",
							"name": "tokenId",
							"type": "uint256"
						},
						{
							"indexed": false,
							"internalType": "bool",
							"name": "locked",
							"type": "bool"
						}
					],
					"name": "Lock",
					"type": "event"
				},
				{
					"anonymous": false,
					"inputs": [
						{
							"indexed": true,
							"internalType": "address",
							"name": "from",
							"type": "address"
						},
						{
							"indexed": true,
							"internalType": "address",
							"name": "to",
							"type": "address"
						},
						{
							"indexed": true,
							"internalType": "uint256",
							"name": "tokenId",
							"type": "uint256"
						}
					],
					"name": "Transfer",
					"type": "event"
				},
				{
					"inputs": [
						{
							"internalType": "address",
							"name": "to",
							"type": "address"
						},
						{
							"internalType": "uint256",
							"name": "tokenId",
							"type": "uint256"
						}
					],
					"name": "approve",
					"outputs": [],
					"stateMutability": "nonpayable",
					"type": "function"
				},
				{
					"inputs": [
						{
							"internalType": "address",
							"name": "owner",
							"type": "address"
						}
					],
					"name": "balanceOf",
					"outputs": [
						{
							"internalType": "uint256",
							"name": "",
							"type": "uint256"
						}
					],
					"stateMutability": "view",
					"type": "function"
				},
				{
					"inputs": [
						{
							"internalType": "uint256",
							"name": "tokenId",
							"type": "uint256"
						}
					],
					"name": "getApproved",
					"outputs": [
						{
							"internalType": "address",
							"name": "",
							"type": "address"
						}
					],
					"stateMutability": "view",
					"type": "function"
				},
				{
					"inputs": [
						{
							"internalType": "uint256",
							"name": "tokenId",
							"type": "uint256"
						}
					],
					"name": "getLocked",
					"outputs": [
						{
							"internalType": "bool",
							"name": "",
							"type": "bool"
						}
					],
					"stateMutability": "view",
					"type": "function"
				},
				{
					"inputs": [
						{
							"internalType": "address",
							"name": "owner",
							"type": "address"
						}
					],
					"name": "getLockedCountByOwner",
					"outputs": [
						{
							"internalType": "uint256",
							"name": "",
							"type": "uint256"
						}
					],
					"stateMutability": "view",
					"type": "function"
				},
				{
					"inputs": [
						{
							"internalType": "address",
							"name": "owner",
							"type": "address"
						},
						{
							"internalType": "address",
							"name": "operator",
							"type": "address"
						}
					],
					"name": "isApprovedForAll",
					"outputs": [
						{
							"internalType": "bool",
							"name": "",
							"type": "bool"
						}
					],
					"stateMutability": "view",
					"type": "function"
				},
				{
					"inputs": [
						{
							"internalType": "uint256",
							"name": "tokenId",
							"type": "uint256"
						},
						{
							"internalType": "bool",
							"name": "locked",
							"type": "bool"
						}
					],
					"name": "lock",
					"outputs": [],
					"stateMutability": "nonpayable",
					"type": "function"
				},
				{
					"inputs": [
						{
							"internalType": "uint256",
							"name": "tokenId",
							"type": "uint256"
						}
					],
					"name": "mint",
					"outputs": [],
					"stateMutability": "nonpayable",
					"type": "function"
				},
				{
					"inputs": [],
					"name": "name",
					"outputs": [
						{
							"internalType": "string",
							"name": "",
							"type": "string"
						}
					],
					"stateMutability": "view",
					"type": "function"
				},
				{
					"inputs": [
						{
							"internalType": "uint256",
							"name": "tokenId",
							"type": "uint256"
						}
					],
					"name": "ownerOf",
					"outputs": [
						{
							"internalType": "address",
							"name": "",
							"type": "address"
						}
					],
					"stateMutability": "view",
					"type": "function"
				},
				{
					"inputs": [
						{
							"internalType": "address",
							"name": "from",
							"type": "address"
						},
						{
							"internalType": "address",
							"name": "to",
							"type": "address"
						},
						{
							"internalType": "uint256",
							"name": "tokenId",
							"type": "uint256"
						}
					],
					"name": "safeTransferFrom",
					"outputs": [],
					"stateMutability": "nonpayable",
					"type": "function"
				},
				{
					"inputs": [
						{
							"internalType": "address",
							"name": "from",
							"type": "address"
						},
						{
							"internalType": "address",
							"name": "to",
							"type": "address"
						},
						{
							"internalType": "uint256",
							"name": "tokenId",
							"type": "uint256"
						},
						{
							"internalType": "bytes",
							"name": "data",
							"type": "bytes"
						}
					],
					"name": "safeTransferFrom",
					"outputs": [],
					"stateMutability": "nonpayable",
					"type": "function"
				},
				{
					"inputs": [
						{
							"internalType": "address",
							"name": "operator",
							"type": "address"
						},
						{
							"internalType": "bool",
							"name": "approved",
							"type": "bool"
						}
					],
					"name": "setApprovalForAll",
					"outputs": [],
					"stateMutability": "nonpayable",
					"type": "function"
				},
				{
					"inputs": [
						{
							"internalType": "bytes4",
							"name": "interfaceId",
							"type": "bytes4"
						}
					],
					"name": "supportsInterface",
					"outputs": [
						{
							"internalType": "bool",
							"name": "",
							"type": "bool"
						}
					],
					"stateMutability": "view",
					"type": "function"
				},
				{
					"inputs": [],
					"name": "symbol",
					"outputs": [
						{
							"internalType": "string",
							"name": "",
							"type": "string"
						}
					],
					"stateMutability": "view",
					"type": "function"
				},
				{
					"inputs": [
						{
							"internalType": "uint256",
							"name": "tokenId",
							"type": "uint256"
						}
					],
					"name": "tokenURI",
					"outputs": [
						{
							"internalType": "string",
							"name": "",
							"type": "string"
						}
					],
					"stateMutability": "view",
					"type": "function"
				},
				{
					"inputs": [
						{
							"internalType": "address",
							"name": "from",
							"type": "address"
						},
						{
							"internalType": "address",
							"name": "to",
							"type": "address"
						},
						{
							"internalType": "uint256",
							"name": "tokenId",
							"type": "uint256"
						}
					],
					"name": "transferFrom",
					"outputs": [],
					"stateMutability": "nonpayable",
					"type": "function"
				}
			],
			"devdoc": {
				"details": "Implementation of https://eips.ethereum.org/EIPS/eip-721[ERC721] Non-Fungible Token Standard, including the Metadata extension, but not including the Enumerable extension, which is available separately as {ERC721Enumerable}.",
				"events": {
					"Approval(address,address,uint256)": {
						"details": "Emitted when `owner` enables `approved` to manage the `tokenId` token."
					},
					"ApprovalForAll(address,address,bool)": {
						"details": "Emitted when `owner` enables or disables (`approved`) `operator` to manage all of its assets."
					},
					"Lock(address,uint256,bool)": {
						"details": "Emitted when `owner` enables or disables (`approved`) lock to token."
					},
					"Transfer(address,address,uint256)": {
						"details": "Emitted when `tokenId` token is transferred from `from` to `to`."
					}
				},
				"kind": "dev",
				"methods": {
					"approve(address,uint256)": {
						"details": "See {IERC721-approve}."
					},
					"balanceOf(address)": {
						"details": "See {IERC721-balanceOf}."
					},
					"constructor": {
						"details": "Initializes the contract by setting a `name` and a `symbol` to the token collection."
					},
					"getApproved(uint256)": {
						"details": "See {IERC721-getApproved}."
					},
					"getLocked(uint256)": {
						"details": "See {IERC721-isApprovedForAll}."
					},
					"getLockedCountByOwner(address)": {
						"details": "See {IERC721-isApprovedForAll}."
					},
					"isApprovedForAll(address,address)": {
						"details": "See {IERC721-isApprovedForAll}."
					},
					"lock(uint256,bool)": {
						"details": "See {IERC721-approve}."
					},
					"name()": {
						"details": "See {IERC721Metadata-name}."
					},
					"ownerOf(uint256)": {
						"details": "See {IERC721-ownerOf}."
					},
					"safeTransferFrom(address,address,uint256)": {
						"details": "See {IERC721-safeTransferFrom}."
					},
					"safeTransferFrom(address,address,uint256,bytes)": {
						"details": "See {IERC721-safeTransferFrom}."
					},
					"setApprovalForAll(address,bool)": {
						"details": "See {IERC721-setApprovalForAll}."
					},
					"supportsInterface(bytes4)": {
						"details": "See {IERC165-supportsInterface}."
					},
					"symbol()": {
						"details": "See {IERC721Metadata-symbol}."
					},
					"tokenURI(uint256)": {
						"details": "See {IERC721Metadata-tokenURI}."
					},
					"transferFrom(address,address,uint256)": {
						"details": "See {IERC721-transferFrom}."
					}
				},
				"version": 1
			},
			"evm": {
				"assembly": "    /* \"contracts/token/ERC721/ERC721.sol\":646:19702  contract ERC721 is Context, ERC165, IERC721, IERC721Metadata {... */\n  mstore(0x40, 0x80)\n    /* \"contracts/token/ERC721/ERC721.sol\":1748:1864  constructor(string memory name_, string memory symbol_) {... */\n  callvalue\n  dup1\n  iszero\n  tag_1\n  jumpi\n  0x00\n  dup1\n  revert\ntag_1:\n  pop\n  mload(0x40)\n  sub(codesize, bytecodeSize)\n  dup1\n  bytecodeSize\n  dup4\n  codecopy\n  dup2\n  dup2\n  add\n  0x40\n  mstore\n  dup2\n  add\n  swap1\n  tag_2\n  swap2\n  swap1\n  tag_3\n  jump\t// in\ntag_2:\n    /* \"contracts/token/ERC721/ERC721.sol\":1823:1828  name_ */\n  dup2\n    /* \"contracts/token/ERC721/ERC721.sol\":1815:1820  _name */\n  0x00\n    /* \"contracts/token/ERC721/ERC721.sol\":1815:1828  _name = name_ */\n  swap1\n  dup2\n  tag_6\n  swap2\n  swap1\n  tag_7\n  jump\t// in\ntag_6:\n  pop\n    /* \"contracts/token/ERC721/ERC721.sol\":1849:1856  symbol_ */\n  dup1\n    /* \"contracts/token/ERC721/ERC721.sol\":1839:1846  _symbol */\n  0x01\n    /* \"contracts/token/ERC721/ERC721.sol\":1839:1856  _symbol = symbol_ */\n  swap1\n  dup2\n  tag_8\n  swap2\n  swap1\n  tag_7\n  jump\t// in\ntag_8:\n  pop\n    /* \"contracts/token/ERC721/ERC721.sol\":1748:1864  constructor(string memory name_, string memory symbol_) {... */\n  pop\n  pop\n    /* \"contracts/token/ERC721/ERC721.sol\":646:19702  contract ERC721 is Context, ERC165, IERC721, IERC721Metadata {... */\n  jump(tag_9)\n    /* \"#utility.yul\":7:82   */\ntag_10:\n    /* \"#utility.yul\":40:46   */\n  0x00\n    /* \"#utility.yul\":73:75   */\n  0x40\n    /* \"#utility.yul\":67:76   */\n  mload\n    /* \"#utility.yul\":57:76   */\n  swap1\n  pop\n    /* \"#utility.yul\":7:82   */\n  swap1\n  jump\t// out\n    /* \"#utility.yul\":88:205   */\ntag_11:\n    /* \"#utility.yul\":197:198   */\n  0x00\n    /* \"#utility.yul\":194:195   */\n  dup1\n    /* \"#utility.yul\":187:199   */\n  revert\n    /* \"#utility.yul\":211:328   */\ntag_12:\n    /* \"#utility.yul\":320:321   */\n  0x00\n    /* \"#utility.yul\":317:318   */\n  dup1\n    /* \"#utility.yul\":310:322   */\n  revert\n    /* \"#utility.yul\":334:451   */\ntag_13:\n    /* \"#utility.yul\":443:444   */\n  0x00\n    /* \"#utility.yul\":440:441   */\n  dup1\n    /* \"#utility.yul\":433:445   */\n  revert\n    /* \"#utility.yul\":457:574   */\ntag_14:\n    /* \"#utility.yul\":566:567   */\n  0x00\n    /* \"#utility.yul\":563:564   */\n  dup1\n    /* \"#utility.yul\":556:568   */\n  revert\n    /* \"#utility.yul\":580:682   */\ntag_15:\n    /* \"#utility.yul\":621:627   */\n  0x00\n    /* \"#utility.yul\":672:674   */\n  0x1f\n    /* \"#utility.yul\":668:675   */\n  not\n    /* \"#utility.yul\":663:665   */\n  0x1f\n    /* \"#utility.yul\":656:661   */\n  dup4\n    /* \"#utility.yul\":652:666   */\n  add\n    /* \"#utility.yul\":648:676   */\n  and\n    /* \"#utility.yul\":638:676   */\n  swap1\n  pop\n    /* \"#utility.yul\":580:682   */\n  swap2\n  swap1\n  pop\n  jump\t// out\n    /* \"#utility.yul\":688:868   */\ntag_16:\n    /* \"#utility.yul\":736:813   */\n  0x4e487b7100000000000000000000000000000000000000000000000000000000\n    /* \"#utility.yul\":733:734   */\n  0x00\n    /* \"#utility.yul\":726:814   */\n  mstore\n    /* \"#utility.yul\":833:837   */\n  0x41\n    /* \"#utility.yul\":830:831   */\n  0x04\n    /* \"#utility.yul\":823:838   */\n  mstore\n    /* \"#utility.yul\":857:861   */\n  0x24\n    /* \"#utility.yul\":854:855   */\n  0x00\n    /* \"#utility.yul\":847:862   */\n  revert\n    /* \"#utility.yul\":874:1155   */\ntag_17:\n    /* \"#utility.yul\":957:984   */\n  tag_51\n    /* \"#utility.yul\":979:983   */\n  dup3\n    /* \"#utility.yul\":957:984   */\n  tag_15\n  jump\t// in\ntag_51:\n    /* \"#utility.yul\":949:955   */\n  dup2\n    /* \"#utility.yul\":945:985   */\n  add\n    /* \"#utility.yul\":1087:1093   */\n  dup2\n    /* \"#utility.yul\":1075:1085   */\n  dup2\n    /* \"#utility.yul\":1072:1094   */\n  lt\n    /* \"#utility.yul\":1051:1069   */\n  0xffffffffffffffff\n    /* \"#utility.yul\":1039:1049   */\n  dup3\n    /* \"#utility.yul\":1036:1070   */\n  gt\n    /* \"#utility.yul\":1033:1095   */\n  or\n    /* \"#utility.yul\":1030:1118   */\n  iszero\n  tag_52\n  jumpi\n    /* \"#utility.yul\":1098:1116   */\n  tag_53\n  tag_16\n  jump\t// in\ntag_53:\n    /* \"#utility.yul\":1030:1118   */\ntag_52:\n    /* \"#utility.yul\":1138:1148   */\n  dup1\n    /* \"#utility.yul\":1134:1136   */\n  0x40\n    /* \"#utility.yul\":1127:1149   */\n  mstore\n    /* \"#utility.yul\":917:1155   */\n  pop\n    /* \"#utility.yul\":874:1155   */\n  pop\n  pop\n  jump\t// out\n    /* \"#utility.yul\":1161:1290   */\ntag_18:\n    /* \"#utility.yul\":1195:1201   */\n  0x00\n    /* \"#utility.yul\":1222:1242   */\n  tag_55\n  tag_10\n  jump\t// in\ntag_55:\n    /* \"#utility.yul\":1212:1242   */\n  swap1\n  pop\n    /* \"#utility.yul\":1251:1284   */\n  tag_56\n    /* \"#utility.yul\":1279:1283   */\n  dup3\n    /* \"#utility.yul\":1271:1277   */\n  dup3\n    /* \"#utility.yul\":1251:1284   */\n  tag_17\n  jump\t// in\ntag_56:\n    /* \"#utility.yul\":1161:1290   */\n  swap2\n  swap1\n  pop\n  jump\t// out\n    /* \"#utility.yul\":1296:1604   */\ntag_19:\n    /* \"#utility.yul\":1358:1362   */\n  0x00\n    /* \"#utility.yul\":1448:1466   */\n  0xffffffffffffffff\n    /* \"#utility.yul\":1440:1446   */\n  dup3\n    /* \"#utility.yul\":1437:1467   */\n  gt\n    /* \"#utility.yul\":1434:1490   */\n  iszero\n  tag_58\n  jumpi\n    /* \"#utility.yul\":1470:1488   */\n  tag_59\n  tag_16\n  jump\t// in\ntag_59:\n    /* \"#utility.yul\":1434:1490   */\ntag_58:\n    /* \"#utility.yul\":1508:1537   */\n  tag_60\n    /* \"#utility.yul\":1530:1536   */\n  dup3\n    /* \"#utility.yul\":1508:1537   */\n  tag_15\n  jump\t// in\ntag_60:\n    /* \"#utility.yul\":1500:1537   */\n  swap1\n  pop\n    /* \"#utility.yul\":1592:1596   */\n  0x20\n    /* \"#utility.yul\":1586:1590   */\n  dup2\n    /* \"#utility.yul\":1582:1597   */\n  add\n    /* \"#utility.yul\":1574:1597   */\n  swap1\n  pop\n    /* \"#utility.yul\":1296:1604   */\n  swap2\n  swap1\n  pop\n  jump\t// out\n    /* \"#utility.yul\":1610:1856   */\ntag_20:\n    /* \"#utility.yul\":1691:1692   */\n  0x00\n    /* \"#utility.yul\":1701:1814   */\ntag_62:\n    /* \"#utility.yul\":1715:1721   */\n  dup4\n    /* \"#utility.yul\":1712:1713   */\n  dup2\n    /* \"#utility.yul\":1709:1722   */\n  lt\n    /* \"#utility.yul\":1701:1814   */\n  iszero\n  tag_64\n  jumpi\n    /* \"#utility.yul\":1800:1801   */\n  dup1\n    /* \"#utility.yul\":1795:1798   */\n  dup3\n    /* \"#utility.yul\":1791:1802   */\n  add\n    /* \"#utility.yul\":1785:1803   */\n  mload\n    /* \"#utility.yul\":1781:1782   */\n  dup2\n    /* \"#utility.yul\":1776:1779   */\n  dup5\n    /* \"#utility.yul\":1772:1783   */\n  add\n    /* \"#utility.yul\":1765:1804   */\n  mstore\n    /* \"#utility.yul\":1737:1739   */\n  0x20\n    /* \"#utility.yul\":1734:1735   */\n  dup2\n    /* \"#utility.yul\":1730:1740   */\n  add\n    /* \"#utility.yul\":1725:1740   */\n  swap1\n  pop\n    /* \"#utility.yul\":1701:1814   */\n  jump(tag_62)\ntag_64:\n    /* \"#utility.yul\":1848:1849   */\n  0x00\n    /* \"#utility.yul\":1839:1845   */\n  dup5\n    /* \"#utility.yul\":1834:1837   */\n  dup5\n    /* \"#utility.yul\":1830:1846   */\n  add\n    /* \"#utility.yul\":1823:1850   */\n  mstore\n    /* \"#utility.yul\":1672:1856   */\n  pop\n    /* \"#utility.yul\":1610:1856   */\n  pop\n  pop\n  pop\n  jump\t// out\n    /* \"#utility.yul\":1862:2296   */\ntag_21:\n    /* \"#utility.yul\":1951:1956   */\n  0x00\n    /* \"#utility.yul\":1976:2042   */\n  tag_66\n    /* \"#utility.yul\":1992:2041   */\n  tag_67\n    /* \"#utility.yul\":2034:2040   */\n  dup5\n    /* \"#utility.yul\":1992:2041   */\n  tag_19\n  jump\t// in\ntag_67:\n    /* \"#utility.yul\":1976:2042   */\n  tag_18\n  jump\t// in\ntag_66:\n    /* \"#utility.yul\":1967:2042   */\n  swap1\n  pop\n    /* \"#utility.yul\":2065:2071   */\n  dup3\n    /* \"#utility.yul\":2058:2063   */\n  dup2\n    /* \"#utility.yul\":2051:2072   */\n  mstore\n    /* \"#utility.yul\":2103:2107   */\n  0x20\n    /* \"#utility.yul\":2096:2101   */\n  dup2\n    /* \"#utility.yul\":2092:2108   */\n  add\n    /* \"#utility.yul\":2141:2144   */\n  dup5\n    /* \"#utility.yul\":2132:2138   */\n  dup5\n    /* \"#utility.yul\":2127:2130   */\n  dup5\n    /* \"#utility.yul\":2123:2139   */\n  add\n    /* \"#utility.yul\":2120:2145   */\n  gt\n    /* \"#utility.yul\":2117:2229   */\n  iszero\n  tag_68\n  jumpi\n    /* \"#utility.yul\":2148:2227   */\n  tag_69\n  tag_14\n  jump\t// in\ntag_69:\n    /* \"#utility.yul\":2117:2229   */\ntag_68:\n    /* \"#utility.yul\":2238:2290   */\n  tag_70\n    /* \"#utility.yul\":2283:2289   */\n  dup5\n    /* \"#utility.yul\":2278:2281   */\n  dup3\n    /* \"#utility.yul\":2273:2276   */\n  dup6\n    /* \"#utility.yul\":2238:2290   */\n  tag_20\n  jump\t// in\ntag_70:\n    /* \"#utility.yul\":1957:2296   */\n  pop\n    /* \"#utility.yul\":1862:2296   */\n  swap4\n  swap3\n  pop\n  pop\n  pop\n  jump\t// out\n    /* \"#utility.yul\":2316:2671   */\ntag_22:\n    /* \"#utility.yul\":2383:2388   */\n  0x00\n    /* \"#utility.yul\":2432:2435   */\n  dup3\n    /* \"#utility.yul\":2425:2429   */\n  0x1f\n    /* \"#utility.yul\":2417:2423   */\n  dup4\n    /* \"#utility.yul\":2413:2430   */\n  add\n    /* \"#utility.yul\":2409:2436   */\n  slt\n    /* \"#utility.yul\":2399:2521   */\n  tag_72\n  jumpi\n    /* \"#utility.yul\":2440:2519   */\n  tag_73\n  tag_13\n  jump\t// in\ntag_73:\n    /* \"#utility.yul\":2399:2521   */\ntag_72:\n    /* \"#utility.yul\":2550:2556   */\n  dup2\n    /* \"#utility.yul\":2544:2557   */\n  mload\n    /* \"#utility.yul\":2575:2665   */\n  tag_74\n    /* \"#utility.yul\":2661:2664   */\n  dup5\n    /* \"#utility.yul\":2653:2659   */\n  dup3\n    /* \"#utility.yul\":2646:2650   */\n  0x20\n    /* \"#utility.yul\":2638:2644   */\n  dup7\n    /* \"#utility.yul\":2634:2651   */\n  add\n    /* \"#utility.yul\":2575:2665   */\n  tag_21\n  jump\t// in\ntag_74:\n    /* \"#utility.yul\":2566:2665   */\n  swap2\n  pop\n    /* \"#utility.yul\":2389:2671   */\n  pop\n    /* \"#utility.yul\":2316:2671   */\n  swap3\n  swap2\n  pop\n  pop\n  jump\t// out\n    /* \"#utility.yul\":2677:3530   */\ntag_3:\n    /* \"#utility.yul\":2776:2782   */\n  0x00\n    /* \"#utility.yul\":2784:2790   */\n  dup1\n    /* \"#utility.yul\":2833:2835   */\n  0x40\n    /* \"#utility.yul\":2821:2830   */\n  dup4\n    /* \"#utility.yul\":2812:2819   */\n  dup6\n    /* \"#utility.yul\":2808:2831   */\n  sub\n    /* \"#utility.yul\":2804:2836   */\n  slt\n    /* \"#utility.yul\":2801:2920   */\n  iszero\n  tag_76\n  jumpi\n    /* \"#utility.yul\":2839:2918   */\n  tag_77\n  tag_11\n  jump\t// in\ntag_77:\n    /* \"#utility.yul\":2801:2920   */\ntag_76:\n    /* \"#utility.yul\":2980:2981   */\n  0x00\n    /* \"#utility.yul\":2969:2978   */\n  dup4\n    /* \"#utility.yul\":2965:2982   */\n  add\n    /* \"#utility.yul\":2959:2983   */\n  mload\n    /* \"#utility.yul\":3010:3028   */\n  0xffffffffffffffff\n    /* \"#utility.yul\":3002:3008   */\n  dup2\n    /* \"#utility.yul\":2999:3029   */\n  gt\n    /* \"#utility.yul\":2996:3113   */\n  iszero\n  tag_78\n  jumpi\n    /* \"#utility.yul\":3032:3111   */\n  tag_79\n  tag_12\n  jump\t// in\ntag_79:\n    /* \"#utility.yul\":2996:3113   */\ntag_78:\n    /* \"#utility.yul\":3137:3211   */\n  tag_80\n    /* \"#utility.yul\":3203:3210   */\n  dup6\n    /* \"#utility.yul\":3194:3200   */\n  dup3\n    /* \"#utility.yul\":3183:3192   */\n  dup7\n    /* \"#utility.yul\":3179:3201   */\n  add\n    /* \"#utility.yul\":3137:3211   */\n  tag_22\n  jump\t// in\ntag_80:\n    /* \"#utility.yul\":3127:3211   */\n  swap3\n  pop\n    /* \"#utility.yul\":2930:3221   */\n  pop\n    /* \"#utility.yul\":3281:3283   */\n  0x20\n    /* \"#utility.yul\":3270:3279   */\n  dup4\n    /* \"#utility.yul\":3266:3284   */\n  add\n    /* \"#utility.yul\":3260:3285   */\n  mload\n    /* \"#utility.yul\":3312:3330   */\n  0xffffffffffffffff\n    /* \"#utility.yul\":3304:3310   */\n  dup2\n    /* \"#utility.yul\":3301:3331   */\n  gt\n    /* \"#utility.yul\":3298:3415   */\n  iszero\n  tag_81\n  jumpi\n    /* \"#utility.yul\":3334:3413   */\n  tag_82\n  tag_12\n  jump\t// in\ntag_82:\n    /* \"#utility.yul\":3298:3415   */\ntag_81:\n    /* \"#utility.yul\":3439:3513   */\n  tag_83\n    /* \"#utility.yul\":3505:3512   */\n  dup6\n    /* \"#utility.yul\":3496:3502   */\n  dup3\n    /* \"#utility.yul\":3485:3494   */\n  dup7\n    /* \"#utility.yul\":3481:3503   */\n  add\n    /* \"#utility.yul\":3439:3513   */\n  tag_22\n  jump\t// in\ntag_83:\n    /* \"#utility.yul\":3429:3513   */\n  swap2\n  pop\n    /* \"#utility.yul\":3231:3523   */\n  pop\n    /* \"#utility.yul\":2677:3530   */\n  swap3\n  pop\n  swap3\n  swap1\n  pop\n  jump\t// out\n    /* \"#utility.yul\":3536:3635   */\ntag_23:\n    /* \"#utility.yul\":3588:3594   */\n  0x00\n    /* \"#utility.yul\":3622:3627   */\n  dup2\n    /* \"#utility.yul\":3616:3628   */\n  mload\n    /* \"#utility.yul\":3606:3628   */\n  swap1\n  pop\n    /* \"#utility.yul\":3536:3635   */\n  swap2\n  swap1\n  pop\n  jump\t// out\n    /* \"#utility.yul\":3641:3821   */\ntag_24:\n    /* \"#utility.yul\":3689:3766   */\n  0x4e487b7100000000000000000000000000000000000000000000000000000000\n    /* \"#utility.yul\":3686:3687   */\n  0x00\n    /* \"#utility.yul\":3679:3767   */\n  mstore\n    /* \"#utility.yul\":3786:3790   */\n  0x22\n    /* \"#utility.yul\":3783:3784   */\n  0x04\n    /* \"#utility.yul\":3776:3791   */\n  mstore\n    /* \"#utility.yul\":3810:3814   */\n  0x24\n    /* \"#utility.yul\":3807:3808   */\n  0x00\n    /* \"#utility.yul\":3800:3815   */\n  revert\n    /* \"#utility.yul\":3827:4147   */\ntag_25:\n    /* \"#utility.yul\":3871:3877   */\n  0x00\n    /* \"#utility.yul\":3908:3909   */\n  0x02\n    /* \"#utility.yul\":3902:3906   */\n  dup3\n    /* \"#utility.yul\":3898:3910   */\n  div\n    /* \"#utility.yul\":3888:3910   */\n  swap1\n  pop\n    /* \"#utility.yul\":3955:3956   */\n  0x01\n    /* \"#utility.yul\":3949:3953   */\n  dup3\n    /* \"#utility.yul\":3945:3957   */\n  and\n    /* \"#utility.yul\":3976:3994   */\n  dup1\n    /* \"#utility.yul\":3966:4047   */\n  tag_87\n  jumpi\n    /* \"#utility.yul\":4032:4036   */\n  0x7f\n    /* \"#utility.yul\":4024:4030   */\n  dup3\n    /* \"#utility.yul\":4020:4037   */\n  and\n    /* \"#utility.yul\":4010:4037   */\n  swap2\n  pop\n    /* \"#utility.yul\":3966:4047   */\ntag_87:\n    /* \"#utility.yul\":4094:4096   */\n  0x20\n    /* \"#utility.yul\":4086:4092   */\n  dup3\n    /* \"#utility.yul\":4083:4097   */\n  lt\n    /* \"#utility.yul\":4063:4081   */\n  dup2\n    /* \"#utility.yul\":4060:4098   */\n  sub\n    /* \"#utility.yul\":4057:4141   */\n  tag_88\n  jumpi\n    /* \"#utility.yul\":4113:4131   */\n  tag_89\n  tag_24\n  jump\t// in\ntag_89:\n    /* \"#utility.yul\":4057:4141   */\ntag_88:\n    /* \"#utility.yul\":3878:4147   */\n  pop\n    /* \"#utility.yul\":3827:4147   */\n  swap2\n  swap1\n  pop\n  jump\t// out\n    /* \"#utility.yul\":4153:4294   */\ntag_26:\n    /* \"#utility.yul\":4202:4206   */\n  0x00\n    /* \"#utility.yul\":4225:4228   */\n  dup2\n    /* \"#utility.yul\":4217:4228   */\n  swap1\n  pop\n    /* \"#utility.yul\":4248:4251   */\n  dup2\n    /* \"#utility.yul\":4245:4246   */\n  0x00\n    /* \"#utility.yul\":4238:4252   */\n  mstore\n    /* \"#utility.yul\":4282:4286   */\n  0x20\n    /* \"#utility.yul\":4279:4280   */\n  0x00\n    /* \"#utility.yul\":4269:4287   */\n  keccak256\n    /* \"#utility.yul\":4261:4287   */\n  swap1\n  pop\n    /* \"#utility.yul\":4153:4294   */\n  swap2\n  swap1\n  pop\n  jump\t// out\n    /* \"#utility.yul\":4300:4393   */\ntag_27:\n    /* \"#utility.yul\":4337:4343   */\n  0x00\n    /* \"#utility.yul\":4384:4386   */\n  0x20\n    /* \"#utility.yul\":4379:4381   */\n  0x1f\n    /* \"#utility.yul\":4372:4377   */\n  dup4\n    /* \"#utility.yul\":4368:4382   */\n  add\n    /* \"#utility.yul\":4364:4387   */\n  div\n    /* \"#utility.yul\":4354:4387   */\n  swap1\n  pop\n    /* \"#utility.yul\":4300:4393   */\n  swap2\n  swap1\n  pop\n  jump\t// out\n    /* \"#utility.yul\":4399:4506   */\ntag_28:\n    /* \"#utility.yul\":4443:4451   */\n  0x00\n    /* \"#utility.yul\":4493:4498   */\n  dup3\n    /* \"#utility.yul\":4487:4491   */\n  dup3\n    /* \"#utility.yul\":4483:4499   */\n  shl\n    /* \"#utility.yul\":4462:4499   */\n  swap1\n  pop\n    /* \"#utility.yul\":4399:4506   */\n  swap3\n  swap2\n  pop\n  pop\n  jump\t// out\n    /* \"#utility.yul\":4512:4905   */\ntag_29:\n    /* \"#utility.yul\":4581:4587   */\n  0x00\n    /* \"#utility.yul\":4631:4632   */\n  0x08\n    /* \"#utility.yul\":4619:4629   */\n  dup4\n    /* \"#utility.yul\":4615:4633   */\n  mul\n    /* \"#utility.yul\":4654:4751   */\n  tag_94\n    /* \"#utility.yul\":4684:4750   */\n  0xffffffffffffffffffffffffffffffffffffffffffffffffffffffffffffffff\n    /* \"#utility.yul\":4673:4682   */\n  dup3\n    /* \"#utility.yul\":4654:4751   */\n  tag_28\n  jump\t// in\ntag_94:\n    /* \"#utility.yul\":4772:4811   */\n  tag_95\n    /* \"#utility.yul\":4802:4810   */\n  dup7\n    /* \"#utility.yul\":4791:4800   */\n  dup4\n    /* \"#utility.yul\":4772:4811   */\n  tag_28\n  jump\t// in\ntag_95:\n    /* \"#utility.yul\":4760:4811   */\n  swap6\n  pop\n    /* \"#utility.yul\":4844:4848   */\n  dup1\n    /* \"#utility.yul\":4840:4849   */\n  not\n    /* \"#utility.yul\":4833:4838   */\n  dup5\n    /* \"#utility.yul\":4829:4850   */\n  and\n    /* \"#utility.yul\":4820:4850   */\n  swap4\n  pop\n    /* \"#utility.yul\":4893:4897   */\n  dup1\n    /* \"#utility.yul\":4883:4891   */\n  dup7\n    /* \"#utility.yul\":4879:4898   */\n  and\n    /* \"#utility.yul\":4872:4877   */\n  dup5\n    /* \"#utility.yul\":4869:4899   */\n  or\n    /* \"#utility.yul\":4859:4899   */\n  swap3\n  pop\n    /* \"#utility.yul\":4588:4905   */\n  pop\n  pop\n    /* \"#utility.yul\":4512:4905   */\n  swap4\n  swap3\n  pop\n  pop\n  pop\n  jump\t// out\n    /* \"#utility.yul\":4911:4988   */\ntag_30:\n    /* \"#utility.yul\":4948:4955   */\n  0x00\n    /* \"#utility.yul\":4977:4982   */\n  dup2\n    /* \"#utility.yul\":4966:4982   */\n  swap1\n  pop\n    /* \"#utility.yul\":4911:4988   */\n  swap2\n  swap1\n  pop\n  jump\t// out\n    /* \"#utility.yul\":4994:5054   */\ntag_31:\n    /* \"#utility.yul\":5022:5025   */\n  0x00\n    /* \"#utility.yul\":5043:5048   */\n  dup2\n    /* \"#utility.yul\":5036:5048   */\n  swap1\n  pop\n    /* \"#utility.yul\":4994:5054   */\n  swap2\n  swap1\n  pop\n  jump\t// out\n    /* \"#utility.yul\":5060:5202   */\ntag_32:\n    /* \"#utility.yul\":5110:5119   */\n  0x00\n    /* \"#utility.yul\":5143:5196   */\n  tag_99\n    /* \"#utility.yul\":5161:5195   */\n  tag_100\n    /* \"#utility.yul\":5170:5194   */\n  tag_101\n    /* \"#utility.yul\":5188:5193   */\n  dup5\n    /* \"#utility.yul\":5170:5194   */\n  tag_30\n  jump\t// in\ntag_101:\n    /* \"#utility.yul\":5161:5195   */\n  tag_31\n  jump\t// in\ntag_100:\n    /* \"#utility.yul\":5143:5196   */\n  tag_30\n  jump\t// in\ntag_99:\n    /* \"#utility.yul\":5130:5196   */\n  swap1\n  pop\n    /* \"#utility.yul\":5060:5202   */\n  swap2\n  swap1\n  pop\n  jump\t// out\n    /* \"#utility.yul\":5208:5283   */\ntag_33:\n    /* \"#utility.yul\":5251:5254   */\n  0x00\n    /* \"#utility.yul\":5272:5277   */\n  dup2\n    /* \"#utility.yul\":5265:5277   */\n  swap1\n  pop\n    /* \"#utility.yul\":5208:5283   */\n  swap2\n  swap1\n  pop\n  jump\t// out\n    /* \"#utility.yul\":5289:5558   */\ntag_34:\n    /* \"#utility.yul\":5399:5438   */\n  tag_104\n    /* \"#utility.yul\":5430:5437   */\n  dup4\n    /* \"#utility.yul\":5399:5438   */\n  tag_32\n  jump\t// in\ntag_104:\n    /* \"#utility.yul\":5460:5551   */\n  tag_105\n    /* \"#utility.yul\":5509:5550   */\n  tag_106\n    /* \"#utility.yul\":5533:5549   */\n  dup3\n    /* \"#utility.yul\":5509:5550   */\n  tag_33\n  jump\t// in\ntag_106:\n    /* \"#utility.yul\":5501:5507   */\n  dup5\n    /* \"#utility.yul\":5494:5498   */\n  dup5\n    /* \"#utility.yul\":5488:5499   */\n  sload\n    /* \"#utility.yul\":5460:5551   */\n  tag_29\n  jump\t// in\ntag_105:\n    /* \"#utility.yul\":5454:5458   */\n  dup3\n    /* \"#utility.yul\":5447:5552   */\n  sstore\n    /* \"#utility.yul\":5365:5558   */\n  pop\n    /* \"#utility.yul\":5289:5558   */\n  pop\n  pop\n  pop\n  jump\t// out\n    /* \"#utility.yul\":5564:5637   */\ntag_35:\n    /* \"#utility.yul\":5609:5612   */\n  0x00\n    /* \"#utility.yul\":5564:5637   */\n  swap1\n  jump\t// out\n    /* \"#utility.yul\":5643:5832   */\ntag_36:\n    /* \"#utility.yul\":5720:5752   */\n  tag_109\n  tag_35\n  jump\t// in\ntag_109:\n    /* \"#utility.yul\":5761:5826   */\n  tag_110\n    /* \"#utility.yul\":5819:5825   */\n  dup2\n    /* \"#utility.yul\":5811:5817   */\n  dup5\n    /* \"#utility.yul\":5805:5809   */\n  dup5\n    /* \"#utility.yul\":5761:5826   */\n  tag_34\n  jump\t// in\ntag_110:\n    /* \"#utility.yul\":5696:5832   */\n  pop\n    /* \"#utility.yul\":5643:5832   */\n  pop\n  pop\n  jump\t// out\n    /* \"#utility.yul\":5838:6024   */\ntag_37:\n    /* \"#utility.yul\":5898:6018   */\ntag_112:\n    /* \"#utility.yul\":5915:5918   */\n  dup2\n    /* \"#utility.yul\":5908:5913   */\n  dup2\n    /* \"#utility.yul\":5905:5919   */\n  lt\n    /* \"#utility.yul\":5898:6018   */\n  iszero\n  tag_114\n  jumpi\n    /* \"#utility.yul\":5969:6008   */\n  tag_115\n    /* \"#utility.yul\":6006:6007   */\n  0x00\n    /* \"#utility.yul\":5999:6004   */\n  dup3\n    /* \"#utility.yul\":5969:6008   */\n  tag_36\n  jump\t// in\ntag_115:\n    /* \"#utility.yul\":5942:5943   */\n  0x01\n    /* \"#utility.yul\":5935:5940   */\n  dup2\n    /* \"#utility.yul\":5931:5944   */\n  add\n    /* \"#utility.yul\":5922:5944   */\n  swap1\n  pop\n    /* \"#utility.yul\":5898:6018   */\n  jump(tag_112)\ntag_114:\n    /* \"#utility.yul\":5838:6024   */\n  pop\n  pop\n  jump\t// out\n    /* \"#utility.yul\":6030:6573   */\ntag_38:\n    /* \"#utility.yul\":6131:6133   */\n  0x1f\n    /* \"#utility.yul\":6126:6129   */\n  dup3\n    /* \"#utility.yul\":6123:6134   */\n  gt\n    /* \"#utility.yul\":6120:6566   */\n  iszero\n  tag_117\n  jumpi\n    /* \"#utility.yul\":6165:6203   */\n  tag_118\n    /* \"#utility.yul\":6197:6202   */\n  dup2\n    /* \"#utility.yul\":6165:6203   */\n  tag_26\n  jump\t// in\ntag_118:\n    /* \"#utility.yul\":6249:6278   */\n  tag_119\n    /* \"#utility.yul\":6267:6277   */\n  dup5\n    /* \"#utility.yul\":6249:6278   */\n  tag_27\n  jump\t// in\ntag_119:\n    /* \"#utility.yul\":6239:6247   */\n  dup2\n    /* \"#utility.yul\":6235:6279   */\n  add\n    /* \"#utility.yul\":6432:6434   */\n  0x20\n    /* \"#utility.yul\":6420:6430   */\n  dup6\n    /* \"#utility.yul\":6417:6435   */\n  lt\n    /* \"#utility.yul\":6414:6463   */\n  iszero\n  tag_120\n  jumpi\n    /* \"#utility.yul\":6453:6461   */\n  dup2\n    /* \"#utility.yul\":6438:6461   */\n  swap1\n  pop\n    /* \"#utility.yul\":6414:6463   */\ntag_120:\n    /* \"#utility.yul\":6476:6556   */\n  tag_121\n    /* \"#utility.yul\":6532:6554   */\n  tag_122\n    /* \"#utility.yul\":6550:6553   */\n  dup6\n    /* \"#utility.yul\":6532:6554   */\n  tag_27\n  jump\t// in\ntag_122:\n    /* \"#utility.yul\":6522:6530   */\n  dup4\n    /* \"#utility.yul\":6518:6555   */\n  add\n    /* \"#utility.yul\":6505:6516   */\n  dup3\n    /* \"#utility.yul\":6476:6556   */\n  tag_37\n  jump\t// in\ntag_121:\n    /* \"#utility.yul\":6135:6566   */\n  pop\n  pop\n    /* \"#utility.yul\":6120:6566   */\ntag_117:\n    /* \"#utility.yul\":6030:6573   */\n  pop\n  pop\n  pop\n  jump\t// out\n    /* \"#utility.yul\":6579:6696   */\ntag_39:\n    /* \"#utility.yul\":6633:6641   */\n  0x00\n    /* \"#utility.yul\":6683:6688   */\n  dup3\n    /* \"#utility.yul\":6677:6681   */\n  dup3\n    /* \"#utility.yul\":6673:6689   */\n  shr\n    /* \"#utility.yul\":6652:6689   */\n  swap1\n  pop\n    /* \"#utility.yul\":6579:6696   */\n  swap3\n  swap2\n  pop\n  pop\n  jump\t// out\n    /* \"#utility.yul\":6702:6871   */\ntag_40:\n    /* \"#utility.yul\":6746:6752   */\n  0x00\n    /* \"#utility.yul\":6779:6830   */\n  tag_125\n    /* \"#utility.yul\":6827:6828   */\n  0x00\n    /* \"#utility.yul\":6823:6829   */\n  not\n    /* \"#utility.yul\":6815:6820   */\n  dup5\n    /* \"#utility.yul\":6812:6813   */\n  0x08\n    /* \"#utility.yul\":6808:6821   */\n  mul\n    /* \"#utility.yul\":6779:6830   */\n  tag_39\n  jump\t// in\ntag_125:\n    /* \"#utility.yul\":6775:6831   */\n  not\n    /* \"#utility.yul\":6860:6864   */\n  dup1\n    /* \"#utility.yul\":6854:6858   */\n  dup4\n    /* \"#utility.yul\":6850:6865   */\n  and\n    /* \"#utility.yul\":6840:6865   */\n  swap2\n  pop\n    /* \"#utility.yul\":6753:6871   */\n  pop\n    /* \"#utility.yul\":6702:6871   */\n  swap3\n  swap2\n  pop\n  pop\n  jump\t// out\n    /* \"#utility.yul\":6876:7171   */\ntag_41:\n    /* \"#utility.yul\":6952:6956   */\n  0x00\n    /* \"#utility.yul\":7098:7127   */\n  tag_127\n    /* \"#utility.yul\":7123:7126   */\n  dup4\n    /* \"#utility.yul\":7117:7121   */\n  dup4\n    /* \"#utility.yul\":7098:7127   */\n  tag_40\n  jump\t// in\ntag_127:\n    /* \"#utility.yul\":7090:7127   */\n  swap2\n  pop\n    /* \"#utility.yul\":7160:7163   */\n  dup3\n    /* \"#utility.yul\":7157:7158   */\n  0x02\n    /* \"#utility.yul\":7153:7164   */\n  mul\n    /* \"#utility.yul\":7147:7151   */\n  dup3\n    /* \"#utility.yul\":7144:7165   */\n  or\n    /* \"#utility.yul\":7136:7165   */\n  swap1\n  pop\n    /* \"#utility.yul\":6876:7171   */\n  swap3\n  swap2\n  pop\n  pop\n  jump\t// out\n    /* \"#utility.yul\":7176:8571   */\ntag_7:\n    /* \"#utility.yul\":7293:7330   */\n  tag_129\n    /* \"#utility.yul\":7326:7329   */\n  dup3\n    /* \"#utility.yul\":7293:7330   */\n  tag_23\n  jump\t// in\ntag_129:\n    /* \"#utility.yul\":7395:7413   */\n  0xffffffffffffffff\n    /* \"#utility.yul\":7387:7393   */\n  dup2\n    /* \"#utility.yul\":7384:7414   */\n  gt\n    /* \"#utility.yul\":7381:7437   */\n  iszero\n  tag_130\n  jumpi\n    /* \"#utility.yul\":7417:7435   */\n  tag_131\n  tag_16\n  jump\t// in\ntag_131:\n    /* \"#utility.yul\":7381:7437   */\ntag_130:\n    /* \"#utility.yul\":7461:7499   */\n  tag_132\n    /* \"#utility.yul\":7493:7497   */\n  dup3\n    /* \"#utility.yul\":7487:7498   */\n  sload\n    /* \"#utility.yul\":7461:7499   */\n  tag_25\n  jump\t// in\ntag_132:\n    /* \"#utility.yul\":7546:7613   */\n  tag_133\n    /* \"#utility.yul\":7606:7612   */\n  dup3\n    /* \"#utility.yul\":7598:7604   */\n  dup3\n    /* \"#utility.yul\":7592:7596   */\n  dup6\n    /* \"#utility.yul\":7546:7613   */\n  tag_38\n  jump\t// in\ntag_133:\n    /* \"#utility.yul\":7640:7641   */\n  0x00\n    /* \"#utility.yul\":7664:7668   */\n  0x20\n    /* \"#utility.yul\":7651:7668   */\n  swap1\n  pop\n    /* \"#utility.yul\":7696:7698   */\n  0x1f\n    /* \"#utility.yul\":7688:7694   */\n  dup4\n    /* \"#utility.yul\":7685:7699   */\n  gt\n    /* \"#utility.yul\":7713:7714   */\n  0x01\n    /* \"#utility.yul\":7708:8326   */\n  dup2\n  eq\n  tag_135\n  jumpi\n    /* \"#utility.yul\":8370:8371   */\n  0x00\n    /* \"#utility.yul\":8387:8393   */\n  dup5\n    /* \"#utility.yul\":8384:8461   */\n  iszero\n  tag_136\n  jumpi\n    /* \"#utility.yul\":8436:8445   */\n  dup3\n    /* \"#utility.yul\":8431:8434   */\n  dup8\n    /* \"#utility.yul\":8427:8446   */\n  add\n    /* \"#utility.yul\":8421:8447   */\n  mload\n    /* \"#utility.yul\":8412:8447   */\n  swap1\n  pop\n    /* \"#utility.yul\":8384:8461   */\ntag_136:\n    /* \"#utility.yul\":8487:8554   */\n  tag_137\n    /* \"#utility.yul\":8547:8553   */\n  dup6\n    /* \"#utility.yul\":8540:8545   */\n  dup3\n    /* \"#utility.yul\":8487:8554   */\n  tag_41\n  jump\t// in\ntag_137:\n    /* \"#utility.yul\":8481:8485   */\n  dup7\n    /* \"#utility.yul\":8474:8555   */\n  sstore\n    /* \"#utility.yul\":8343:8565   */\n  pop\n    /* \"#utility.yul\":7678:8565   */\n  jump(tag_134)\n    /* \"#utility.yul\":7708:8326   */\ntag_135:\n    /* \"#utility.yul\":7760:7764   */\n  0x1f\n    /* \"#utility.yul\":7756:7765   */\n  not\n    /* \"#utility.yul\":7748:7754   */\n  dup5\n    /* \"#utility.yul\":7744:7766   */\n  and\n    /* \"#utility.yul\":7794:7831   */\n  tag_138\n    /* \"#utility.yul\":7826:7830   */\n  dup7\n    /* \"#utility.yul\":7794:7831   */\n  tag_26\n  jump\t// in\ntag_138:\n    /* \"#utility.yul\":7853:7854   */\n  0x00\n    /* \"#utility.yul\":7867:8075   */\ntag_139:\n    /* \"#utility.yul\":7881:7888   */\n  dup3\n    /* \"#utility.yul\":7878:7879   */\n  dup2\n    /* \"#utility.yul\":7875:7889   */\n  lt\n    /* \"#utility.yul\":7867:8075   */\n  iszero\n  tag_141\n  jumpi\n    /* \"#utility.yul\":7960:7969   */\n  dup5\n    /* \"#utility.yul\":7955:7958   */\n  dup10\n    /* \"#utility.yul\":7951:7970   */\n  add\n    /* \"#utility.yul\":7945:7971   */\n  mload\n    /* \"#utility.yul\":7937:7943   */\n  dup3\n    /* \"#utility.yul\":7930:7972   */\n  sstore\n    /* \"#utility.yul\":8011:8012   */\n  0x01\n    /* \"#utility.yul\":8003:8009   */\n  dup3\n    /* \"#utility.yul\":7999:8013   */\n  add\n    /* \"#utility.yul\":7989:8013   */\n  swap2\n  pop\n    /* \"#utility.yul\":8058:8060   */\n  0x20\n    /* \"#utility.yul\":8047:8056   */\n  dup6\n    /* \"#utility.yul\":8043:8061   */\n  add\n    /* \"#utility.yul\":8030:8061   */\n  swap5\n  pop\n    /* \"#utility.yul\":7904:7908   */\n  0x20\n    /* \"#utility.yul\":7901:7902   */\n  dup2\n    /* \"#utility.yul\":7897:7909   */\n  add\n    /* \"#utility.yul\":7892:7909   */\n  swap1\n  pop\n    /* \"#utility.yul\":7867:8075   */\n  jump(tag_139)\ntag_141:\n    /* \"#utility.yul\":8103:8109   */\n  dup7\n    /* \"#utility.yul\":8094:8101   */\n  dup4\n    /* \"#utility.yul\":8091:8110   */\n  lt\n    /* \"#utility.yul\":8088:8267   */\n  iszero\n  tag_142\n  jumpi\n    /* \"#utility.yul\":8161:8170   */\n  dup5\n    /* \"#utility.yul\":8156:8159   */\n  dup10\n    /* \"#utility.yul\":8152:8171   */\n  add\n    /* \"#utility.yul\":8146:8172   */\n  mload\n    /* \"#utility.yul\":8204:8252   */\n  tag_143\n    /* \"#utility.yul\":8246:8250   */\n  0x1f\n    /* \"#utility.yul\":8238:8244   */\n  dup10\n    /* \"#utility.yul\":8234:8251   */\n  and\n    /* \"#utility.yul\":8223:8232   */\n  dup3\n    /* \"#utility.yul\":8204:8252   */\n  tag_40\n  jump\t// in\ntag_143:\n    /* \"#utility.yul\":8196:8202   */\n  dup4\n    /* \"#utility.yul\":8189:8253   */\n  sstore\n    /* \"#utility.yul\":8111:8267   */\n  pop\n    /* \"#utility.yul\":8088:8267   */\ntag_142:\n    /* \"#utility.yul\":8313:8314   */\n  0x01\n    /* \"#utility.yul\":8309:8310   */\n  0x02\n    /* \"#utility.yul\":8301:8307   */\n  dup9\n    /* \"#utility.yul\":8297:8311   */\n  mul\n    /* \"#utility.yul\":8293:8315   */\n  add\n    /* \"#utility.yul\":8287:8291   */\n  dup9\n    /* \"#utility.yul\":8280:8316   */\n  sstore\n    /* \"#utility.yul\":7715:8326   */\n  pop\n  pop\n  pop\n    /* \"#utility.yul\":7678:8565   */\ntag_134:\n  pop\n    /* \"#utility.yul\":7268:8571   */\n  pop\n  pop\n  pop\n    /* \"#utility.yul\":7176:8571   */\n  pop\n  pop\n  jump\t// out\n    /* \"contracts/token/ERC721/ERC721.sol\":646:19702  contract ERC721 is Context, ERC165, IERC721, IERC721Metadata {... */\ntag_9:\n  dataSize(sub_0)\n  dup1\n  dataOffset(sub_0)\n  0x00\n  codecopy\n  0x00\n  return\nstop\n\nsub_0: assembly {\n        /* \"contracts/token/ERC721/ERC721.sol\":646:19702  contract ERC721 is Context, ERC165, IERC721, IERC721Metadata {... */\n      mstore(0x40, 0x80)\n      callvalue\n      dup1\n      iszero\n      tag_1\n      jumpi\n      0x00\n      dup1\n      revert\n    tag_1:\n      pop\n      jumpi(tag_2, lt(calldatasize, 0x04))\n      shr(0xe0, calldataload(0x00))\n      dup1\n      0x42842e0e\n      gt\n      tag_20\n      jumpi\n      dup1\n      0xa0712d68\n      gt\n      tag_21\n      jumpi\n      dup1\n      0xa0712d68\n      eq\n      tag_15\n      jumpi\n      dup1\n      0xa22cb465\n      eq\n      tag_16\n      jumpi\n      dup1\n      0xb88d4fde\n      eq\n      tag_17\n      jumpi\n      dup1\n      0xc87b56dd\n      eq\n      tag_18\n      jumpi\n      dup1\n      0xe985e9c5\n      eq\n      tag_19\n      jumpi\n      jump(tag_2)\n    tag_21:\n      dup1\n      0x42842e0e\n      eq\n      tag_11\n      jumpi\n      dup1\n      0x6352211e\n      eq\n      tag_12\n      jumpi\n      dup1\n      0x70a08231\n      eq\n      tag_13\n      jumpi\n      dup1\n      0x95d89b41\n      eq\n      tag_14\n      jumpi\n      jump(tag_2)\n    tag_20:\n      dup1\n      0x095ea7b3\n      gt\n      tag_22\n      jumpi\n      dup1\n      0x095ea7b3\n      eq\n      tag_7\n      jumpi\n      dup1\n      0x23b872dd\n      eq\n      tag_8\n      jumpi\n      dup1\n      0x346c94cf\n      eq\n      tag_9\n      jumpi\n      dup1\n      0x3b035df6\n      eq\n      tag_10\n      jumpi\n      jump(tag_2)\n    tag_22:\n      dup1\n      0x01ffc9a7\n      eq\n      tag_3\n      jumpi\n      dup1\n      0x06fdde03\n      eq\n      tag_4\n      jumpi\n      dup1\n      0x07f0661c\n      eq\n      tag_5\n      jumpi\n      dup1\n      0x081812fc\n      eq\n      tag_6\n      jumpi\n    tag_2:\n      0x00\n      dup1\n      revert\n        /* \"contracts/token/ERC721/ERC721.sol\":1936:2241  function supportsInterface(bytes4 interfaceId) public view virtual override(ERC165, IERC165) returns (bool) {... */\n    tag_3:\n      tag_23\n      0x04\n      dup1\n      calldatasize\n      sub\n      dup2\n      add\n      swap1\n      tag_24\n      swap2\n      swap1\n      tag_25\n      jump\t// in\n    tag_24:\n      tag_26\n      jump\t// in\n    tag_23:\n      mload(0x40)\n      tag_27\n      swap2\n      swap1\n      tag_28\n      jump\t// in\n    tag_27:\n      mload(0x40)\n      dup1\n      swap2\n      sub\n      swap1\n      return\n        /* \"contracts/token/ERC721/ERC721.sol\":2864:2964  function name() public view virtual override returns (string memory) {... */\n    tag_4:\n      tag_29\n      tag_30\n      jump\t// in\n    tag_29:\n      mload(0x40)\n      tag_31\n      swap2\n      swap1\n      tag_32\n      jump\t// in\n    tag_31:\n      mload(0x40)\n      dup1\n      swap2\n      sub\n      swap1\n      return\n        /* \"contracts/token/ERC721/ERC721.sol\":7030:7168  function getLockedCountByOwner(address owner) public view virtual override returns (uint256) {... */\n    tag_5:\n      tag_33\n      0x04\n      dup1\n      calldatasize\n      sub\n      dup2\n      add\n      swap1\n      tag_34\n      swap2\n      swap1\n      tag_35\n      jump\t// in\n    tag_34:\n      tag_36\n      jump\t// in\n    tag_33:\n      mload(0x40)\n      tag_37\n      swap2\n      swap1\n      tag_38\n      jump\t// in\n    tag_37:\n      mload(0x40)\n      dup1\n      swap2\n      sub\n      swap1\n      return\n        /* \"contracts/token/ERC721/ERC721.sol\":4552:4723  function getApproved(uint256 tokenId) public view virtual override returns (address) {... */\n    tag_6:\n      tag_39\n      0x04\n      dup1\n      calldatasize\n      sub\n      dup2\n      add\n      swap1\n      tag_40\n      swap2\n      swap1\n      tag_41\n      jump\t// in\n    tag_40:\n      tag_42\n      jump\t// in\n    tag_39:\n      mload(0x40)\n      tag_43\n      swap2\n      swap1\n      tag_44\n      jump\t// in\n    tag_43:\n      mload(0x40)\n      dup1\n      swap2\n      sub\n      swap1\n      return\n        /* \"contracts/token/ERC721/ERC721.sol\":3894:4375  function approve(address to, uint256 tokenId) public virtual override {... */\n    tag_7:\n      tag_45\n      0x04\n      dup1\n      calldatasize\n      sub\n      dup2\n      add\n      swap1\n      tag_46\n      swap2\n      swap1\n      tag_47\n      jump\t// in\n    tag_46:\n      tag_48\n      jump\t// in\n    tag_45:\n      stop\n        /* \"contracts/token/ERC721/ERC721.sol\":5252:5616  function transferFrom(address from, address to, uint256 tokenId) public virtual override {... */\n    tag_8:\n      tag_49\n      0x04\n      dup1\n      calldatasize\n      sub\n      dup2\n      add\n      swap1\n      tag_50\n      swap2\n      swap1\n      tag_51\n      jump\t// in\n    tag_50:\n      tag_52\n      jump\t// in\n    tag_49:\n      stop\n        /* \"contracts/token/ERC721/ERC721.sol\":6315:6761  function lock(uint256 tokenId,bool locked) public virtual override {... */\n    tag_9:\n      tag_53\n      0x04\n      dup1\n      calldatasize\n      sub\n      dup2\n      add\n      swap1\n      tag_54\n      swap2\n      swap1\n      tag_55\n      jump\t// in\n    tag_54:\n      tag_56\n      jump\t// in\n    tag_53:\n      stop\n        /* \"contracts/token/ERC721/ERC721.sol\":6833:6958  function getLocked(uint256 tokenId) public view virtual override returns (bool) {... */\n    tag_10:\n      tag_57\n      0x04\n      dup1\n      calldatasize\n      sub\n      dup2\n      add\n      swap1\n      tag_58\n      swap2\n      swap1\n      tag_41\n      jump\t// in\n    tag_58:\n      tag_59\n      jump\t// in\n    tag_57:\n      mload(0x40)\n      tag_60\n      swap2\n      swap1\n      tag_28\n      jump\t// in\n    tag_60:\n      mload(0x40)\n      dup1\n      swap2\n      sub\n      swap1\n      return\n        /* \"contracts/token/ERC721/ERC721.sol\":5687:5838  function safeTransferFrom(address from, address to, uint256 tokenId) public virtual override {... */\n    tag_11:\n      tag_61\n      0x04\n      dup1\n      calldatasize\n      sub\n      dup2\n      add\n      swap1\n      tag_62\n      swap2\n      swap1\n      tag_51\n      jump\t// in\n    tag_62:\n      tag_63\n      jump\t// in\n    tag_61:\n      stop\n        /* \"contracts/token/ERC721/ERC721.sol\":2574:2797  function ownerOf(uint256 tokenId) public view virtual override returns (address) {... */\n    tag_12:\n      tag_64\n      0x04\n      dup1\n      calldatasize\n      sub\n      dup2\n      add\n      swap1\n      tag_65\n      swap2\n      swap1\n      tag_41\n      jump\t// in\n    tag_65:\n      tag_66\n      jump\t// in\n    tag_64:\n      mload(0x40)\n      tag_67\n      swap2\n      swap1\n      tag_44\n      jump\t// in\n    tag_67:\n      mload(0x40)\n      dup1\n      swap2\n      sub\n      swap1\n      return\n        /* \"contracts/token/ERC721/ERC721.sol\":2305:2512  function balanceOf(address owner) public view virtual override returns (uint256) {... */\n    tag_13:\n      tag_68\n      0x04\n      dup1\n      calldatasize\n      sub\n      dup2\n      add\n      swap1\n      tag_69\n      swap2\n      swap1\n      tag_35\n      jump\t// in\n    tag_69:\n      tag_70\n      jump\t// in\n    tag_68:\n      mload(0x40)\n      tag_71\n      swap2\n      swap1\n      tag_38\n      jump\t// in\n    tag_71:\n      mload(0x40)\n      dup1\n      swap2\n      sub\n      swap1\n      return\n        /* \"contracts/token/ERC721/ERC721.sol\":3033:3137  function symbol() public view virtual override returns (string memory) {... */\n    tag_14:\n      tag_72\n      tag_73\n      jump\t// in\n    tag_72:\n      mload(0x40)\n      tag_74\n      swap2\n      swap1\n      tag_32\n      jump\t// in\n    tag_74:\n      mload(0x40)\n      dup1\n      swap2\n      sub\n      swap1\n      return\n        /* \"contracts/token/ERC721/ERC721.sol\":4383:4486  function mint(uint256 tokenId) public virtual override {... */\n    tag_15:\n      tag_75\n      0x04\n      dup1\n      calldatasize\n      sub\n      dup2\n      add\n      swap1\n      tag_76\n      swap2\n      swap1\n      tag_41\n      jump\t// in\n    tag_76:\n      tag_77\n      jump\t// in\n    tag_75:\n      stop\n        /* \"contracts/token/ERC721/ERC721.sol\":4795:4950  function setApprovalForAll(address operator, bool approved) public virtual override {... */\n    tag_16:\n      tag_78\n      0x04\n      dup1\n      calldatasize\n      sub\n      dup2\n      add\n      swap1\n      tag_79\n      swap2\n      swap1\n      tag_80\n      jump\t// in\n    tag_79:\n      tag_81\n      jump\t// in\n    tag_78:\n      stop\n        /* \"contracts/token/ERC721/ERC721.sol\":5909:6253  function safeTransferFrom(address from, address to, uint256 tokenId, bytes memory data) public virtual override {... */\n    tag_17:\n      tag_82\n      0x04\n      dup1\n      calldatasize\n      sub\n      dup2\n      add\n      swap1\n      tag_83\n      swap2\n      swap1\n      tag_84\n      jump\t// in\n    tag_83:\n      tag_85\n      jump\t// in\n    tag_82:\n      stop\n        /* \"contracts/token/ERC721/ERC721.sol\":3208:3489  function tokenURI(uint256 tokenId) public view virtual override returns (string memory) {... */\n    tag_18:\n      tag_86\n      0x04\n      dup1\n      calldatasize\n      sub\n      dup2\n      add\n      swap1\n      tag_87\n      swap2\n      swap1\n      tag_41\n      jump\t// in\n    tag_87:\n      tag_88\n      jump\t// in\n    tag_86:\n      mload(0x40)\n      tag_89\n      swap2\n      swap1\n      tag_32\n      jump\t// in\n    tag_89:\n      mload(0x40)\n      dup1\n      swap2\n      sub\n      swap1\n      return\n        /* \"contracts/token/ERC721/ERC721.sol\":5021:5185  function isApprovedForAll(address owner, address operator) public view virtual override returns (bool) {... */\n    tag_19:\n      tag_90\n      0x04\n      dup1\n      calldatasize\n      sub\n      dup2\n      add\n      swap1\n      tag_91\n      swap2\n      swap1\n      tag_92\n      jump\t// in\n    tag_91:\n      tag_93\n      jump\t// in\n    tag_90:\n      mload(0x40)\n      tag_94\n      swap2\n      swap1\n      tag_28\n      jump\t// in\n    tag_94:\n      mload(0x40)\n      dup1\n      swap2\n      sub\n      swap1\n      return\n        /* \"contracts/token/ERC721/ERC721.sol\":1936:2241  function supportsInterface(bytes4 interfaceId) public view virtual override(ERC165, IERC165) returns (bool) {... */\n    tag_26:\n        /* \"contracts/token/ERC721/ERC721.sol\":2038:2042  bool */\n      0x00\n        /* \"contracts/token/ERC721/ERC721.sol\":2090:2115  type(IERC721).interfaceId */\n      0x2842da8000000000000000000000000000000000000000000000000000000000\n        /* \"contracts/token/ERC721/ERC721.sol\":2075:2115  interfaceId == type(IERC721).interfaceId */\n      not(0xffffffffffffffffffffffffffffffffffffffffffffffffffffffff)\n      and\n        /* \"contracts/token/ERC721/ERC721.sol\":2075:2086  interfaceId */\n      dup3\n        /* \"contracts/token/ERC721/ERC721.sol\":2075:2115  interfaceId == type(IERC721).interfaceId */\n      not(0xffffffffffffffffffffffffffffffffffffffffffffffffffffffff)\n      and\n      eq\n        /* \"contracts/token/ERC721/ERC721.sol\":2075:2180  interfaceId == type(IERC721).interfaceId ||... */\n      dup1\n      tag_96\n      jumpi\n      pop\n        /* \"contracts/token/ERC721/ERC721.sol\":2147:2180  type(IERC721Metadata).interfaceId */\n      0x5b5e139f00000000000000000000000000000000000000000000000000000000\n        /* \"contracts/token/ERC721/ERC721.sol\":2132:2180  interfaceId == type(IERC721Metadata).interfaceId */\n      not(0xffffffffffffffffffffffffffffffffffffffffffffffffffffffff)\n      and\n        /* \"contracts/token/ERC721/ERC721.sol\":2132:2143  interfaceId */\n      dup3\n        /* \"contracts/token/ERC721/ERC721.sol\":2132:2180  interfaceId == type(IERC721Metadata).interfaceId */\n      not(0xffffffffffffffffffffffffffffffffffffffffffffffffffffffff)\n      and\n      eq\n        /* \"contracts/token/ERC721/ERC721.sol\":2075:2180  interfaceId == type(IERC721).interfaceId ||... */\n    tag_96:\n        /* \"contracts/token/ERC721/ERC721.sol\":2075:2233  interfaceId == type(IERC721).interfaceId ||... */\n      dup1\n      tag_97\n      jumpi\n      pop\n        /* \"contracts/token/ERC721/ERC721.sol\":2197:2233  super.supportsInterface(interfaceId) */\n      tag_98\n        /* \"contracts/token/ERC721/ERC721.sol\":2221:2232  interfaceId */\n      dup3\n        /* \"contracts/token/ERC721/ERC721.sol\":2197:2220  super.supportsInterface */\n      tag_99\n        /* \"contracts/token/ERC721/ERC721.sol\":2197:2233  super.supportsInterface(interfaceId) */\n      jump\t// in\n    tag_98:\n        /* \"contracts/token/ERC721/ERC721.sol\":2075:2233  interfaceId == type(IERC721).interfaceId ||... */\n    tag_97:\n        /* \"contracts/token/ERC721/ERC721.sol\":2055:2233  return... */\n      swap1\n      pop\n        /* \"contracts/token/ERC721/ERC721.sol\":1936:2241  function supportsInterface(bytes4 interfaceId) public view virtual override(ERC165, IERC165) returns (bool) {... */\n      swap2\n      swap1\n      pop\n      jump\t// out\n        /* \"contracts/token/ERC721/ERC721.sol\":2864:2964  function name() public view virtual override returns (string memory) {... */\n    tag_30:\n        /* \"contracts/token/ERC721/ERC721.sol\":2918:2931  string memory */\n      0x60\n        /* \"contracts/token/ERC721/ERC721.sol\":2951:2956  _name */\n      0x00\n        /* \"contracts/token/ERC721/ERC721.sol\":2944:2956  return _name */\n      dup1\n      sload\n      tag_101\n      swap1\n      tag_102\n      jump\t// in\n    tag_101:\n      dup1\n      0x1f\n      add\n      0x20\n      dup1\n      swap2\n      div\n      mul\n      0x20\n      add\n      mload(0x40)\n      swap1\n      dup2\n      add\n      0x40\n      mstore\n      dup1\n      swap3\n      swap2\n      swap1\n      dup2\n      dup2\n      mstore\n      0x20\n      add\n      dup3\n      dup1\n      sload\n      tag_103\n      swap1\n      tag_102\n      jump\t// in\n    tag_103:\n      dup1\n      iszero\n      tag_104\n      jumpi\n      dup1\n      0x1f\n      lt\n      tag_105\n      jumpi\n      0x0100\n      dup1\n      dup4\n      sload\n      div\n      mul\n      dup4\n      mstore\n      swap2\n      0x20\n      add\n      swap2\n      jump(tag_104)\n    tag_105:\n      dup3\n      add\n      swap2\n      swap1\n      0x00\n      mstore\n      keccak256(0x00, 0x20)\n      swap1\n    tag_106:\n      dup2\n      sload\n      dup2\n      mstore\n      swap1\n      0x01\n      add\n      swap1\n      0x20\n      add\n      dup1\n      dup4\n      gt\n      tag_106\n      jumpi\n      dup3\n      swap1\n      sub\n      0x1f\n      and\n      dup3\n      add\n      swap2\n    tag_104:\n      pop\n      pop\n      pop\n      pop\n      pop\n      swap1\n      pop\n        /* \"contracts/token/ERC721/ERC721.sol\":2864:2964  function name() public view virtual override returns (string memory) {... */\n      swap1\n      jump\t// out\n        /* \"contracts/token/ERC721/ERC721.sol\":7030:7168  function getLockedCountByOwner(address owner) public view virtual override returns (uint256) {... */\n    tag_36:\n        /* \"contracts/token/ERC721/ERC721.sol\":7114:7121  uint256 */\n      0x00\n        /* \"contracts/token/ERC721/ERC721.sol\":7141:7153  _lockedCount */\n      0x08\n        /* \"contracts/token/ERC721/ERC721.sol\":7141:7160  _lockedCount[owner] */\n      0x00\n        /* \"contracts/token/ERC721/ERC721.sol\":7154:7159  owner */\n      dup4\n        /* \"contracts/token/ERC721/ERC721.sol\":7141:7160  _lockedCount[owner] */\n      0xffffffffffffffffffffffffffffffffffffffff\n      and\n      0xffffffffffffffffffffffffffffffffffffffff\n      and\n      dup2\n      mstore\n      0x20\n      add\n      swap1\n      dup2\n      mstore\n      0x20\n      add\n      0x00\n      keccak256\n      sload\n        /* \"contracts/token/ERC721/ERC721.sol\":7134:7160  return _lockedCount[owner] */\n      swap1\n      pop\n        /* \"contracts/token/ERC721/ERC721.sol\":7030:7168  function getLockedCountByOwner(address owner) public view virtual override returns (uint256) {... */\n      swap2\n      swap1\n      pop\n      jump\t// out\n        /* \"contracts/token/ERC721/ERC721.sol\":4552:4723  function getApproved(uint256 tokenId) public view virtual override returns (address) {... */\n    tag_42:\n        /* \"contracts/token/ERC721/ERC721.sol\":4628:4635  address */\n      0x00\n        /* \"contracts/token/ERC721/ERC721.sol\":4648:4671  _requireMinted(tokenId) */\n      tag_109\n        /* \"contracts/token/ERC721/ERC721.sol\":4663:4670  tokenId */\n      dup3\n        /* \"contracts/token/ERC721/ERC721.sol\":4648:4662  _requireMinted */\n      tag_110\n        /* \"contracts/token/ERC721/ERC721.sol\":4648:4671  _requireMinted(tokenId) */\n      jump\t// in\n    tag_109:\n        /* \"contracts/token/ERC721/ERC721.sol\":4691:4706  _tokenApprovals */\n      0x04\n        /* \"contracts/token/ERC721/ERC721.sol\":4691:4715  _tokenApprovals[tokenId] */\n      0x00\n        /* \"contracts/token/ERC721/ERC721.sol\":4707:4714  tokenId */\n      dup4\n        /* \"contracts/token/ERC721/ERC721.sol\":4691:4715  _tokenApprovals[tokenId] */\n      dup2\n      mstore\n      0x20\n      add\n      swap1\n      dup2\n      mstore\n      0x20\n      add\n      0x00\n      keccak256\n      0x00\n      swap1\n      sload\n      swap1\n      0x0100\n      exp\n      swap1\n      div\n      0xffffffffffffffffffffffffffffffffffffffff\n      and\n        /* \"contracts/token/ERC721/ERC721.sol\":4684:4715  return _tokenApprovals[tokenId] */\n      swap1\n      pop\n        /* \"contracts/token/ERC721/ERC721.sol\":4552:4723  function getApproved(uint256 tokenId) public view virtual override returns (address) {... */\n      swap2\n      swap1\n      pop\n      jump\t// out\n        /* \"contracts/token/ERC721/ERC721.sol\":3894:4375  function approve(address to, uint256 tokenId) public virtual override {... */\n    tag_48:\n        /* \"contracts/token/ERC721/ERC721.sol\":3975:3988  address owner */\n      0x00\n        /* \"contracts/token/ERC721/ERC721.sol\":3991:4014  ERC721.ownerOf(tokenId) */\n      tag_112\n        /* \"contracts/token/ERC721/ERC721.sol\":4006:4013  tokenId */\n      dup3\n        /* \"contracts/token/ERC721/ERC721.sol\":3991:4005  ERC721.ownerOf */\n      tag_66\n        /* \"contracts/token/ERC721/ERC721.sol\":3991:4014  ERC721.ownerOf(tokenId) */\n      jump\t// in\n    tag_112:\n        /* \"contracts/token/ERC721/ERC721.sol\":3975:4014  address owner = ERC721.ownerOf(tokenId) */\n      swap1\n      pop\n        /* \"contracts/token/ERC721/ERC721.sol\":4039:4044  owner */\n      dup1\n        /* \"contracts/token/ERC721/ERC721.sol\":4033:4044  to != owner */\n      0xffffffffffffffffffffffffffffffffffffffff\n      and\n        /* \"contracts/token/ERC721/ERC721.sol\":4033:4035  to */\n      dup4\n        /* \"contracts/token/ERC721/ERC721.sol\":4033:4044  to != owner */\n      0xffffffffffffffffffffffffffffffffffffffff\n      and\n      sub\n        /* \"contracts/token/ERC721/ERC721.sol\":4025:4082  require(to != owner, \"ERC721: approval to current owner\") */\n      tag_113\n      jumpi\n      mload(0x40)\n      0x08c379a000000000000000000000000000000000000000000000000000000000\n      dup2\n      mstore\n      0x04\n      add\n      tag_114\n      swap1\n      tag_115\n      jump\t// in\n    tag_114:\n      mload(0x40)\n      dup1\n      swap2\n      sub\n      swap1\n      revert\n    tag_113:\n        /* \"contracts/token/ERC721/ERC721.sol\":4133:4138  owner */\n      dup1\n        /* \"contracts/token/ERC721/ERC721.sol\":4117:4138  _msgSender() == owner */\n      0xffffffffffffffffffffffffffffffffffffffff\n      and\n        /* \"contracts/token/ERC721/ERC721.sol\":4117:4129  _msgSender() */\n      tag_116\n        /* \"contracts/token/ERC721/ERC721.sol\":4117:4127  _msgSender */\n      tag_117\n        /* \"contracts/token/ERC721/ERC721.sol\":4117:4129  _msgSender() */\n      jump\t// in\n    tag_116:\n        /* \"contracts/token/ERC721/ERC721.sol\":4117:4138  _msgSender() == owner */\n      0xffffffffffffffffffffffffffffffffffffffff\n      and\n      eq\n        /* \"contracts/token/ERC721/ERC721.sol\":4117:4179  _msgSender() == owner || isApprovedForAll(owner, _msgSender()) */\n      dup1\n      tag_118\n      jumpi\n      pop\n        /* \"contracts/token/ERC721/ERC721.sol\":4142:4179  isApprovedForAll(owner, _msgSender()) */\n      tag_119\n        /* \"contracts/token/ERC721/ERC721.sol\":4159:4164  owner */\n      dup2\n        /* \"contracts/token/ERC721/ERC721.sol\":4166:4178  _msgSender() */\n      tag_120\n        /* \"contracts/token/ERC721/ERC721.sol\":4166:4176  _msgSender */\n      tag_117\n        /* \"contracts/token/ERC721/ERC721.sol\":4166:4178  _msgSender() */\n      jump\t// in\n    tag_120:\n        /* \"contracts/token/ERC721/ERC721.sol\":4142:4158  isApprovedForAll */\n      tag_93\n        /* \"contracts/token/ERC721/ERC721.sol\":4142:4179  isApprovedForAll(owner, _msgSender()) */\n      jump\t// in\n    tag_119:\n        /* \"contracts/token/ERC721/ERC721.sol\":4117:4179  _msgSender() == owner || isApprovedForAll(owner, _msgSender()) */\n    tag_118:\n        /* \"contracts/token/ERC721/ERC721.sol\":4095:4268  require(... */\n      tag_121\n      jumpi\n      mload(0x40)\n      0x08c379a000000000000000000000000000000000000000000000000000000000\n      dup2\n      mstore\n      0x04\n      add\n      tag_122\n      swap1\n      tag_123\n      jump\t// in\n    tag_122:\n      mload(0x40)\n      dup1\n      swap2\n      sub\n      swap1\n      revert\n    tag_121:\n        /* \"contracts/token/ERC721/ERC721.sol\":4290:4300  _tokenLock */\n      0x06\n        /* \"contracts/token/ERC721/ERC721.sol\":4290:4309  _tokenLock[tokenId] */\n      0x00\n        /* \"contracts/token/ERC721/ERC721.sol\":4301:4308  tokenId */\n      dup4\n        /* \"contracts/token/ERC721/ERC721.sol\":4290:4309  _tokenLock[tokenId] */\n      dup2\n      mstore\n      0x20\n      add\n      swap1\n      dup2\n      mstore\n      0x20\n      add\n      0x00\n      keccak256\n      0x00\n      swap1\n      sload\n      swap1\n      0x0100\n      exp\n      swap1\n      div\n      0xff\n      and\n        /* \"contracts/token/ERC721/ERC721.sol\":4289:4309  !_tokenLock[tokenId] */\n      iszero\n        /* \"contracts/token/ERC721/ERC721.sol\":4281:4333  require(!_tokenLock[tokenId],\"ERC721: token locked\") */\n      tag_124\n      jumpi\n      mload(0x40)\n      0x08c379a000000000000000000000000000000000000000000000000000000000\n      dup2\n      mstore\n      0x04\n      add\n      tag_125\n      swap1\n      tag_126\n      jump\t// in\n    tag_125:\n      mload(0x40)\n      dup1\n      swap2\n      sub\n      swap1\n      revert\n    tag_124:\n        /* \"contracts/token/ERC721/ERC721.sol\":4346:4367  _approve(to, tokenId) */\n      tag_127\n        /* \"contracts/token/ERC721/ERC721.sol\":4355:4357  to */\n      dup4\n        /* \"contracts/token/ERC721/ERC721.sol\":4359:4366  tokenId */\n      dup4\n        /* \"contracts/token/ERC721/ERC721.sol\":4346:4354  _approve */\n      tag_128\n        /* \"contracts/token/ERC721/ERC721.sol\":4346:4367  _approve(to, tokenId) */\n      jump\t// in\n    tag_127:\n        /* \"contracts/token/ERC721/ERC721.sol\":3964:4375  {... */\n      pop\n        /* \"contracts/token/ERC721/ERC721.sol\":3894:4375  function approve(address to, uint256 tokenId) public virtual override {... */\n      pop\n      pop\n      jump\t// out\n        /* \"contracts/token/ERC721/ERC721.sol\":5252:5616  function transferFrom(address from, address to, uint256 tokenId) public virtual override {... */\n    tag_52:\n        /* \"contracts/token/ERC721/ERC721.sol\":5413:5454  _isApprovedOrOwner(_msgSender(), tokenId) */\n      tag_130\n        /* \"contracts/token/ERC721/ERC721.sol\":5432:5444  _msgSender() */\n      tag_131\n        /* \"contracts/token/ERC721/ERC721.sol\":5432:5442  _msgSender */\n      tag_117\n        /* \"contracts/token/ERC721/ERC721.sol\":5432:5444  _msgSender() */\n      jump\t// in\n    tag_131:\n        /* \"contracts/token/ERC721/ERC721.sol\":5446:5453  tokenId */\n      dup3\n        /* \"contracts/token/ERC721/ERC721.sol\":5413:5431  _isApprovedOrOwner */\n      tag_132\n        /* \"contracts/token/ERC721/ERC721.sol\":5413:5454  _isApprovedOrOwner(_msgSender(), tokenId) */\n      jump\t// in\n    tag_130:\n        /* \"contracts/token/ERC721/ERC721.sol\":5405:5504  require(_isApprovedOrOwner(_msgSender(), tokenId), \"ERC721: caller is not token owner or approved\") */\n      tag_133\n      jumpi\n      mload(0x40)\n      0x08c379a000000000000000000000000000000000000000000000000000000000\n      dup2\n      mstore\n      0x04\n      add\n      tag_134\n      swap1\n      tag_135\n      jump\t// in\n    tag_134:\n      mload(0x40)\n      dup1\n      swap2\n      sub\n      swap1\n      revert\n    tag_133:\n        /* \"contracts/token/ERC721/ERC721.sol\":5524:5534  _tokenLock */\n      0x06\n        /* \"contracts/token/ERC721/ERC721.sol\":5524:5543  _tokenLock[tokenId] */\n      0x00\n        /* \"contracts/token/ERC721/ERC721.sol\":5535:5542  tokenId */\n      dup3\n        /* \"contracts/token/ERC721/ERC721.sol\":5524:5543  _tokenLock[tokenId] */\n      dup2\n      mstore\n      0x20\n      add\n      swap1\n      dup2\n      mstore\n      0x20\n      add\n      0x00\n      keccak256\n      0x00\n      swap1\n      sload\n      swap1\n      0x0100\n      exp\n      swap1\n      div\n      0xff\n      and\n        /* \"contracts/token/ERC721/ERC721.sol\":5523:5543  !_tokenLock[tokenId] */\n      iszero\n        /* \"contracts/token/ERC721/ERC721.sol\":5515:5567  require(!_tokenLock[tokenId],\"ERC721: token locked\") */\n      tag_136\n      jumpi\n      mload(0x40)\n      0x08c379a000000000000000000000000000000000000000000000000000000000\n      dup2\n      mstore\n      0x04\n      add\n      tag_137\n      swap1\n      tag_126\n      jump\t// in\n    tag_137:\n      mload(0x40)\n      dup1\n      swap2\n      sub\n      swap1\n      revert\n    tag_136:\n        /* \"contracts/token/ERC721/ERC721.sol\":5580:5608  _transfer(from, to, tokenId) */\n      tag_138\n        /* \"contracts/token/ERC721/ERC721.sol\":5590:5594  from */\n      dup4\n        /* \"contracts/token/ERC721/ERC721.sol\":5596:5598  to */\n      dup4\n        /* \"contracts/token/ERC721/ERC721.sol\":5600:5607  tokenId */\n      dup4\n        /* \"contracts/token/ERC721/ERC721.sol\":5580:5589  _transfer */\n      tag_139\n        /* \"contracts/token/ERC721/ERC721.sol\":5580:5608  _transfer(from, to, tokenId) */\n      jump\t// in\n    tag_138:\n        /* \"contracts/token/ERC721/ERC721.sol\":5252:5616  function transferFrom(address from, address to, uint256 tokenId) public virtual override {... */\n      pop\n      pop\n      pop\n      jump\t// out\n        /* \"contracts/token/ERC721/ERC721.sol\":6315:6761  function lock(uint256 tokenId,bool locked) public virtual override {... */\n    tag_56:\n        /* \"contracts/token/ERC721/ERC721.sol\":6393:6406  address owner */\n      0x00\n        /* \"contracts/token/ERC721/ERC721.sol\":6409:6432  ERC721.ownerOf(tokenId) */\n      tag_141\n        /* \"contracts/token/ERC721/ERC721.sol\":6424:6431  tokenId */\n      dup4\n        /* \"contracts/token/ERC721/ERC721.sol\":6409:6423  ERC721.ownerOf */\n      tag_66\n        /* \"contracts/token/ERC721/ERC721.sol\":6409:6432  ERC721.ownerOf(tokenId) */\n      jump\t// in\n    tag_141:\n        /* \"contracts/token/ERC721/ERC721.sol\":6393:6432  address owner = ERC721.ownerOf(tokenId) */\n      swap1\n      pop\n        /* \"contracts/token/ERC721/ERC721.sol\":6469:6474  owner */\n      dup1\n        /* \"contracts/token/ERC721/ERC721.sol\":6453:6474  _msgSender() == owner */\n      0xffffffffffffffffffffffffffffffffffffffff\n      and\n        /* \"contracts/token/ERC721/ERC721.sol\":6453:6465  _msgSender() */\n      tag_142\n        /* \"contracts/token/ERC721/ERC721.sol\":6453:6463  _msgSender */\n      tag_117\n        /* \"contracts/token/ERC721/ERC721.sol\":6453:6465  _msgSender() */\n      jump\t// in\n    tag_142:\n        /* \"contracts/token/ERC721/ERC721.sol\":6453:6474  _msgSender() == owner */\n      0xffffffffffffffffffffffffffffffffffffffff\n      and\n      eq\n        /* \"contracts/token/ERC721/ERC721.sol\":6445:6560  require(_msgSender() == owner,... */\n      tag_143\n      jumpi\n      mload(0x40)\n      0x08c379a000000000000000000000000000000000000000000000000000000000\n      dup2\n      mstore\n      0x04\n      add\n      tag_144\n      swap1\n      tag_145\n      jump\t// in\n    tag_144:\n      mload(0x40)\n      dup1\n      swap2\n      sub\n      swap1\n      revert\n    tag_143:\n        /* \"contracts/token/ERC721/ERC721.sol\":6616:6617  0 */\n      0x00\n        /* \"contracts/token/ERC721/ERC721.sol\":6581:6618  _tokenApprovals[tokenId] ==address(0) */\n      0xffffffffffffffffffffffffffffffffffffffff\n      and\n        /* \"contracts/token/ERC721/ERC721.sol\":6581:6596  _tokenApprovals */\n      0x04\n        /* \"contracts/token/ERC721/ERC721.sol\":6581:6605  _tokenApprovals[tokenId] */\n      0x00\n        /* \"contracts/token/ERC721/ERC721.sol\":6597:6604  tokenId */\n      dup6\n        /* \"contracts/token/ERC721/ERC721.sol\":6581:6605  _tokenApprovals[tokenId] */\n      dup2\n      mstore\n      0x20\n      add\n      swap1\n      dup2\n      mstore\n      0x20\n      add\n      0x00\n      keccak256\n      0x00\n      swap1\n      sload\n      swap1\n      0x0100\n      exp\n      swap1\n      div\n      0xffffffffffffffffffffffffffffffffffffffff\n      and\n        /* \"contracts/token/ERC721/ERC721.sol\":6581:6618  _tokenApprovals[tokenId] ==address(0) */\n      0xffffffffffffffffffffffffffffffffffffffff\n      and\n      eq\n        /* \"contracts/token/ERC721/ERC721.sol\":6573:6645  require(_tokenApprovals[tokenId] ==address(0), \"ERC721: token approved\") */\n      tag_146\n      jumpi\n      mload(0x40)\n      0x08c379a000000000000000000000000000000000000000000000000000000000\n      dup2\n      mstore\n      0x04\n      add\n      tag_147\n      swap1\n      tag_148\n      jump\t// in\n    tag_147:\n      mload(0x40)\n      dup1\n      swap2\n      sub\n      swap1\n      revert\n    tag_146:\n        /* \"contracts/token/ERC721/ERC721.sol\":6665:6685  _isOperatorApprovals */\n      0x07\n        /* \"contracts/token/ERC721/ERC721.sol\":6665:6692  _isOperatorApprovals[owner] */\n      0x00\n        /* \"contracts/token/ERC721/ERC721.sol\":6686:6691  owner */\n      dup3\n        /* \"contracts/token/ERC721/ERC721.sol\":6665:6692  _isOperatorApprovals[owner] */\n      0xffffffffffffffffffffffffffffffffffffffff\n      and\n      0xffffffffffffffffffffffffffffffffffffffff\n      and\n      dup2\n      mstore\n      0x20\n      add\n      swap1\n      dup2\n      mstore\n      0x20\n      add\n      0x00\n      keccak256\n      0x00\n      swap1\n      sload\n      swap1\n      0x0100\n      exp\n      swap1\n      div\n      0xff\n      and\n        /* \"contracts/token/ERC721/ERC721.sol\":6664:6692  !_isOperatorApprovals[owner] */\n      iszero\n        /* \"contracts/token/ERC721/ERC721.sol\":6656:6718  require(!_isOperatorApprovals[owner],\"ERC721: token approved\") */\n      tag_149\n      jumpi\n      mload(0x40)\n      0x08c379a000000000000000000000000000000000000000000000000000000000\n      dup2\n      mstore\n      0x04\n      add\n      tag_150\n      swap1\n      tag_148\n      jump\t// in\n    tag_150:\n      mload(0x40)\n      dup1\n      swap2\n      sub\n      swap1\n      revert\n    tag_149:\n        /* \"contracts/token/ERC721/ERC721.sol\":6731:6753  _lock(tokenId, locked) */\n      tag_151\n        /* \"contracts/token/ERC721/ERC721.sol\":6737:6744  tokenId */\n      dup4\n        /* \"contracts/token/ERC721/ERC721.sol\":6746:6752  locked */\n      dup4\n        /* \"contracts/token/ERC721/ERC721.sol\":6731:6736  _lock */\n      tag_152\n        /* \"contracts/token/ERC721/ERC721.sol\":6731:6753  _lock(tokenId, locked) */\n      jump\t// in\n    tag_151:\n        /* \"contracts/token/ERC721/ERC721.sol\":6382:6761  {... */\n      pop\n        /* \"contracts/token/ERC721/ERC721.sol\":6315:6761  function lock(uint256 tokenId,bool locked) public virtual override {... */\n      pop\n      pop\n      jump\t// out\n        /* \"contracts/token/ERC721/ERC721.sol\":6833:6958  function getLocked(uint256 tokenId) public view virtual override returns (bool) {... */\n    tag_59:\n        /* \"contracts/token/ERC721/ERC721.sol\":6907:6911  bool */\n      0x00\n        /* \"contracts/token/ERC721/ERC721.sol\":6931:6941  _tokenLock */\n      0x06\n        /* \"contracts/token/ERC721/ERC721.sol\":6931:6950  _tokenLock[tokenId] */\n      0x00\n        /* \"contracts/token/ERC721/ERC721.sol\":6942:6949  tokenId */\n      dup4\n        /* \"contracts/token/ERC721/ERC721.sol\":6931:6950  _tokenLock[tokenId] */\n      dup2\n      mstore\n      0x20\n      add\n      swap1\n      dup2\n      mstore\n      0x20\n      add\n      0x00\n      keccak256\n      0x00\n      swap1\n      sload\n      swap1\n      0x0100\n      exp\n      swap1\n      div\n      0xff\n      and\n        /* \"contracts/token/ERC721/ERC721.sol\":6924:6950  return _tokenLock[tokenId] */\n      swap1\n      pop\n        /* \"contracts/token/ERC721/ERC721.sol\":6833:6958  function getLocked(uint256 tokenId) public view virtual override returns (bool) {... */\n      swap2\n      swap1\n      pop\n      jump\t// out\n        /* \"contracts/token/ERC721/ERC721.sol\":5687:5838  function safeTransferFrom(address from, address to, uint256 tokenId) public virtual override {... */\n    tag_63:\n        /* \"contracts/token/ERC721/ERC721.sol\":5791:5830  safeTransferFrom(from, to, tokenId, \"\") */\n      tag_155\n        /* \"contracts/token/ERC721/ERC721.sol\":5808:5812  from */\n      dup4\n        /* \"contracts/token/ERC721/ERC721.sol\":5814:5816  to */\n      dup4\n        /* \"contracts/token/ERC721/ERC721.sol\":5818:5825  tokenId */\n      dup4\n        /* \"contracts/token/ERC721/ERC721.sol\":5791:5830  safeTransferFrom(from, to, tokenId, \"\") */\n      mload(0x40)\n      dup1\n      0x20\n      add\n      0x40\n      mstore\n      dup1\n      0x00\n      dup2\n      mstore\n      pop\n        /* \"contracts/token/ERC721/ERC721.sol\":5791:5807  safeTransferFrom */\n      tag_85\n        /* \"contracts/token/ERC721/ERC721.sol\":5791:5830  safeTransferFrom(from, to, tokenId, \"\") */\n      jump\t// in\n    tag_155:\n        /* \"contracts/token/ERC721/ERC721.sol\":5687:5838  function safeTransferFrom(address from, address to, uint256 tokenId) public virtual override {... */\n      pop\n      pop\n      pop\n      jump\t// out\n        /* \"contracts/token/ERC721/ERC721.sol\":2574:2797  function ownerOf(uint256 tokenId) public view virtual override returns (address) {... */\n    tag_66:\n        /* \"contracts/token/ERC721/ERC721.sol\":2646:2653  address */\n      0x00\n        /* \"contracts/token/ERC721/ERC721.sol\":2666:2679  address owner */\n      dup1\n        /* \"contracts/token/ERC721/ERC721.sol\":2682:2699  _ownerOf(tokenId) */\n      tag_157\n        /* \"contracts/token/ERC721/ERC721.sol\":2691:2698  tokenId */\n      dup4\n        /* \"contracts/token/ERC721/ERC721.sol\":2682:2690  _ownerOf */\n      tag_158\n        /* \"contracts/token/ERC721/ERC721.sol\":2682:2699  _ownerOf(tokenId) */\n      jump\t// in\n    tag_157:\n        /* \"contracts/token/ERC721/ERC721.sol\":2666:2699  address owner = _ownerOf(tokenId) */\n      swap1\n      pop\n        /* \"contracts/token/ERC721/ERC721.sol\":2735:2736  0 */\n      0x00\n        /* \"contracts/token/ERC721/ERC721.sol\":2718:2737  owner != address(0) */\n      0xffffffffffffffffffffffffffffffffffffffff\n      and\n        /* \"contracts/token/ERC721/ERC721.sol\":2718:2723  owner */\n      dup2\n        /* \"contracts/token/ERC721/ERC721.sol\":2718:2737  owner != address(0) */\n      0xffffffffffffffffffffffffffffffffffffffff\n      and\n      sub\n        /* \"contracts/token/ERC721/ERC721.sol\":2710:2766  require(owner != address(0), \"ERC721: invalid token ID\") */\n      tag_159\n      jumpi\n      mload(0x40)\n      0x08c379a000000000000000000000000000000000000000000000000000000000\n      dup2\n      mstore\n      0x04\n      add\n      tag_160\n      swap1\n      tag_161\n      jump\t// in\n    tag_160:\n      mload(0x40)\n      dup1\n      swap2\n      sub\n      swap1\n      revert\n    tag_159:\n        /* \"contracts/token/ERC721/ERC721.sol\":2784:2789  owner */\n      dup1\n        /* \"contracts/token/ERC721/ERC721.sol\":2777:2789  return owner */\n      swap2\n      pop\n      pop\n        /* \"contracts/token/ERC721/ERC721.sol\":2574:2797  function ownerOf(uint256 tokenId) public view virtual override returns (address) {... */\n      swap2\n      swap1\n      pop\n      jump\t// out\n        /* \"contracts/token/ERC721/ERC721.sol\":2305:2512  function balanceOf(address owner) public view virtual override returns (uint256) {... */\n    tag_70:\n        /* \"contracts/token/ERC721/ERC721.sol\":2377:2384  uint256 */\n      0x00\n        /* \"contracts/token/ERC721/ERC721.sol\":2422:2423  0 */\n      dup1\n        /* \"contracts/token/ERC721/ERC721.sol\":2405:2424  owner != address(0) */\n      0xffffffffffffffffffffffffffffffffffffffff\n      and\n        /* \"contracts/token/ERC721/ERC721.sol\":2405:2410  owner */\n      dup3\n        /* \"contracts/token/ERC721/ERC721.sol\":2405:2424  owner != address(0) */\n      0xffffffffffffffffffffffffffffffffffffffff\n      and\n      sub\n        /* \"contracts/token/ERC721/ERC721.sol\":2397:2470  require(owner != address(0), \"ERC721: address zero is not a valid owner\") */\n      tag_163\n      jumpi\n      mload(0x40)\n      0x08c379a000000000000000000000000000000000000000000000000000000000\n      dup2\n      mstore\n      0x04\n      add\n      tag_164\n      swap1\n      tag_165\n      jump\t// in\n    tag_164:\n      mload(0x40)\n      dup1\n      swap2\n      sub\n      swap1\n      revert\n    tag_163:\n        /* \"contracts/token/ERC721/ERC721.sol\":2488:2497  _balances */\n      0x03\n        /* \"contracts/token/ERC721/ERC721.sol\":2488:2504  _balances[owner] */\n      0x00\n        /* \"contracts/token/ERC721/ERC721.sol\":2498:2503  owner */\n      dup4\n        /* \"contracts/token/ERC721/ERC721.sol\":2488:2504  _balances[owner] */\n      0xffffffffffffffffffffffffffffffffffffffff\n      and\n      0xffffffffffffffffffffffffffffffffffffffff\n      and\n      dup2\n      mstore\n      0x20\n      add\n      swap1\n      dup2\n      mstore\n      0x20\n      add\n      0x00\n      keccak256\n      sload\n        /* \"contracts/token/ERC721/ERC721.sol\":2481:2504  return _balances[owner] */\n      swap1\n      pop\n        /* \"contracts/token/ERC721/ERC721.sol\":2305:2512  function balanceOf(address owner) public view virtual override returns (uint256) {... */\n      swap2\n      swap1\n      pop\n      jump\t// out\n        /* \"contracts/token/ERC721/ERC721.sol\":3033:3137  function symbol() public view virtual override returns (string memory) {... */\n    tag_73:\n        /* \"contracts/token/ERC721/ERC721.sol\":3089:3102  string memory */\n      0x60\n        /* \"contracts/token/ERC721/ERC721.sol\":3122:3129  _symbol */\n      0x01\n        /* \"contracts/token/ERC721/ERC721.sol\":3115:3129  return _symbol */\n      dup1\n      sload\n      tag_167\n      swap1\n      tag_102\n      jump\t// in\n    tag_167:\n      dup1\n      0x1f\n      add\n      0x20\n      dup1\n      swap2\n      div\n      mul\n      0x20\n      add\n      mload(0x40)\n      swap1\n      dup2\n      add\n      0x40\n      mstore\n      dup1\n      swap3\n      swap2\n      swap1\n      dup2\n      dup2\n      mstore\n      0x20\n      add\n      dup3\n      dup1\n      sload\n      tag_168\n      swap1\n      tag_102\n      jump\t// in\n    tag_168:\n      dup1\n      iszero\n      tag_169\n      jumpi\n      dup1\n      0x1f\n      lt\n      tag_170\n      jumpi\n      0x0100\n      dup1\n      dup4\n      sload\n      div\n      mul\n      dup4\n      mstore\n      swap2\n      0x20\n      add\n      swap2\n      jump(tag_169)\n    tag_170:\n      dup3\n      add\n      swap2\n      swap1\n      0x00\n      mstore\n      keccak256(0x00, 0x20)\n      swap1\n    tag_171:\n      dup2\n      sload\n      dup2\n      mstore\n      swap1\n      0x01\n      add\n      swap1\n      0x20\n      add\n      dup1\n      dup4\n      gt\n      tag_171\n      jumpi\n      dup3\n      swap1\n      sub\n      0x1f\n      and\n      dup3\n      add\n      swap2\n    tag_169:\n      pop\n      pop\n      pop\n      pop\n      pop\n      swap1\n      pop\n        /* \"contracts/token/ERC721/ERC721.sol\":3033:3137  function symbol() public view virtual override returns (string memory) {... */\n      swap1\n      jump\t// out\n        /* \"contracts/token/ERC721/ERC721.sol\":4383:4486  function mint(uint256 tokenId) public virtual override {... */\n    tag_77:\n        /* \"contracts/token/ERC721/ERC721.sol\":4449:4478  _safeMint(msg.sender,tokenId) */\n      tag_173\n        /* \"contracts/token/ERC721/ERC721.sol\":4459:4469  msg.sender */\n      caller\n        /* \"contracts/token/ERC721/ERC721.sol\":4470:4477  tokenId */\n      dup3\n        /* \"contracts/token/ERC721/ERC721.sol\":4449:4458  _safeMint */\n      tag_174\n        /* \"contracts/token/ERC721/ERC721.sol\":4449:4478  _safeMint(msg.sender,tokenId) */\n      jump\t// in\n    tag_173:\n        /* \"contracts/token/ERC721/ERC721.sol\":4383:4486  function mint(uint256 tokenId) public virtual override {... */\n      pop\n      jump\t// out\n        /* \"contracts/token/ERC721/ERC721.sol\":4795:4950  function setApprovalForAll(address operator, bool approved) public virtual override {... */\n    tag_81:\n        /* \"contracts/token/ERC721/ERC721.sol\":4890:4942  _setApprovalForAll(_msgSender(), operator, approved) */\n      tag_176\n        /* \"contracts/token/ERC721/ERC721.sol\":4909:4921  _msgSender() */\n      tag_177\n        /* \"contracts/token/ERC721/ERC721.sol\":4909:4919  _msgSender */\n      tag_117\n        /* \"contracts/token/ERC721/ERC721.sol\":4909:4921  _msgSender() */\n      jump\t// in\n    tag_177:\n        /* \"contracts/token/ERC721/ERC721.sol\":4923:4931  operator */\n      dup4\n        /* \"contracts/token/ERC721/ERC721.sol\":4933:4941  approved */\n      dup4\n        /* \"contracts/token/ERC721/ERC721.sol\":4890:4908  _setApprovalForAll */\n      tag_178\n        /* \"contracts/token/ERC721/ERC721.sol\":4890:4942  _setApprovalForAll(_msgSender(), operator, approved) */\n      jump\t// in\n    tag_176:\n        /* \"contracts/token/ERC721/ERC721.sol\":4795:4950  function setApprovalForAll(address operator, bool approved) public virtual override {... */\n      pop\n      pop\n      jump\t// out\n        /* \"contracts/token/ERC721/ERC721.sol\":5909:6253  function safeTransferFrom(address from, address to, uint256 tokenId, bytes memory data) public virtual override {... */\n    tag_85:\n        /* \"contracts/token/ERC721/ERC721.sol\":6040:6081  _isApprovedOrOwner(_msgSender(), tokenId) */\n      tag_180\n        /* \"contracts/token/ERC721/ERC721.sol\":6059:6071  _msgSender() */\n      tag_181\n        /* \"contracts/token/ERC721/ERC721.sol\":6059:6069  _msgSender */\n      tag_117\n        /* \"contracts/token/ERC721/ERC721.sol\":6059:6071  _msgSender() */\n      jump\t// in\n    tag_181:\n        /* \"contracts/token/ERC721/ERC721.sol\":6073:6080  tokenId */\n      dup4\n        /* \"contracts/token/ERC721/ERC721.sol\":6040:6058  _isApprovedOrOwner */\n      tag_132\n        /* \"contracts/token/ERC721/ERC721.sol\":6040:6081  _isApprovedOrOwner(_msgSender(), tokenId) */\n      jump\t// in\n    tag_180:\n        /* \"contracts/token/ERC721/ERC721.sol\":6032:6131  require(_isApprovedOrOwner(_msgSender(), tokenId), \"ERC721: caller is not token owner or approved\") */\n      tag_182\n      jumpi\n      mload(0x40)\n      0x08c379a000000000000000000000000000000000000000000000000000000000\n      dup2\n      mstore\n      0x04\n      add\n      tag_183\n      swap1\n      tag_135\n      jump\t// in\n    tag_183:\n      mload(0x40)\n      dup1\n      swap2\n      sub\n      swap1\n      revert\n    tag_182:\n        /* \"contracts/token/ERC721/ERC721.sol\":6151:6161  _tokenLock */\n      0x06\n        /* \"contracts/token/ERC721/ERC721.sol\":6151:6170  _tokenLock[tokenId] */\n      0x00\n        /* \"contracts/token/ERC721/ERC721.sol\":6162:6169  tokenId */\n      dup4\n        /* \"contracts/token/ERC721/ERC721.sol\":6151:6170  _tokenLock[tokenId] */\n      dup2\n      mstore\n      0x20\n      add\n      swap1\n      dup2\n      mstore\n      0x20\n      add\n      0x00\n      keccak256\n      0x00\n      swap1\n      sload\n      swap1\n      0x0100\n      exp\n      swap1\n      div\n      0xff\n      and\n        /* \"contracts/token/ERC721/ERC721.sol\":6150:6170  !_tokenLock[tokenId] */\n      iszero\n        /* \"contracts/token/ERC721/ERC721.sol\":6142:6194  require(!_tokenLock[tokenId],\"ERC721: token locked\") */\n      tag_184\n      jumpi\n      mload(0x40)\n      0x08c379a000000000000000000000000000000000000000000000000000000000\n      dup2\n      mstore\n      0x04\n      add\n      tag_185\n      swap1\n      tag_126\n      jump\t// in\n    tag_185:\n      mload(0x40)\n      dup1\n      swap2\n      sub\n      swap1\n      revert\n    tag_184:\n        /* \"contracts/token/ERC721/ERC721.sol\":6207:6245  _safeTransfer(from, to, tokenId, data) */\n      tag_186\n        /* \"contracts/token/ERC721/ERC721.sol\":6221:6225  from */\n      dup5\n        /* \"contracts/token/ERC721/ERC721.sol\":6227:6229  to */\n      dup5\n        /* \"contracts/token/ERC721/ERC721.sol\":6231:6238  tokenId */\n      dup5\n        /* \"contracts/token/ERC721/ERC721.sol\":6240:6244  data */\n      dup5\n        /* \"contracts/token/ERC721/ERC721.sol\":6207:6220  _safeTransfer */\n      tag_187\n        /* \"contracts/token/ERC721/ERC721.sol\":6207:6245  _safeTransfer(from, to, tokenId, data) */\n      jump\t// in\n    tag_186:\n        /* \"contracts/token/ERC721/ERC721.sol\":5909:6253  function safeTransferFrom(address from, address to, uint256 tokenId, bytes memory data) public virtual override {... */\n      pop\n      pop\n      pop\n      pop\n      jump\t// out\n        /* \"contracts/token/ERC721/ERC721.sol\":3208:3489  function tokenURI(uint256 tokenId) public view virtual override returns (string memory) {... */\n    tag_88:\n        /* \"contracts/token/ERC721/ERC721.sol\":3281:3294  string memory */\n      0x60\n        /* \"contracts/token/ERC721/ERC721.sol\":3307:3330  _requireMinted(tokenId) */\n      tag_189\n        /* \"contracts/token/ERC721/ERC721.sol\":3322:3329  tokenId */\n      dup3\n        /* \"contracts/token/ERC721/ERC721.sol\":3307:3321  _requireMinted */\n      tag_110\n        /* \"contracts/token/ERC721/ERC721.sol\":3307:3330  _requireMinted(tokenId) */\n      jump\t// in\n    tag_189:\n        /* \"contracts/token/ERC721/ERC721.sol\":3343:3364  string memory baseURI */\n      0x00\n        /* \"contracts/token/ERC721/ERC721.sol\":3367:3377  _baseURI() */\n      tag_190\n        /* \"contracts/token/ERC721/ERC721.sol\":3367:3375  _baseURI */\n      tag_191\n        /* \"contracts/token/ERC721/ERC721.sol\":3367:3377  _baseURI() */\n      jump\t// in\n    tag_190:\n        /* \"contracts/token/ERC721/ERC721.sol\":3343:3377  string memory baseURI = _baseURI() */\n      swap1\n      pop\n        /* \"contracts/token/ERC721/ERC721.sol\":3419:3420  0 */\n      0x00\n        /* \"contracts/token/ERC721/ERC721.sol\":3401:3408  baseURI */\n      dup2\n        /* \"contracts/token/ERC721/ERC721.sol\":3395:3416  bytes(baseURI).length */\n      mload\n        /* \"contracts/token/ERC721/ERC721.sol\":3395:3420  bytes(baseURI).length > 0 */\n      gt\n        /* \"contracts/token/ERC721/ERC721.sol\":3395:3481  bytes(baseURI).length > 0 ? string(abi.encodePacked(baseURI, tokenId.toString())) : \"\" */\n      tag_192\n      jumpi\n      mload(0x40)\n      dup1\n      0x20\n      add\n      0x40\n      mstore\n      dup1\n      0x00\n      dup2\n      mstore\n      pop\n      jump(tag_193)\n    tag_192:\n        /* \"contracts/token/ERC721/ERC721.sol\":3447:3454  baseURI */\n      dup1\n        /* \"contracts/token/ERC721/ERC721.sol\":3456:3474  tokenId.toString() */\n      tag_194\n        /* \"contracts/token/ERC721/ERC721.sol\":3456:3463  tokenId */\n      dup5\n        /* \"contracts/token/ERC721/ERC721.sol\":3456:3472  tokenId.toString */\n      tag_195\n        /* \"contracts/token/ERC721/ERC721.sol\":3456:3474  tokenId.toString() */\n      jump\t// in\n    tag_194:\n        /* \"contracts/token/ERC721/ERC721.sol\":3430:3475  abi.encodePacked(baseURI, tokenId.toString()) */\n      add(0x20, mload(0x40))\n      tag_196\n      swap3\n      swap2\n      swap1\n      tag_197\n      jump\t// in\n    tag_196:\n      mload(0x40)\n      0x20\n      dup2\n      dup4\n      sub\n      sub\n      dup2\n      mstore\n      swap1\n      0x40\n      mstore\n        /* \"contracts/token/ERC721/ERC721.sol\":3395:3481  bytes(baseURI).length > 0 ? string(abi.encodePacked(baseURI, tokenId.toString())) : \"\" */\n    tag_193:\n        /* \"contracts/token/ERC721/ERC721.sol\":3388:3481  return bytes(baseURI).length > 0 ? string(abi.encodePacked(baseURI, tokenId.toString())) : \"\" */\n      swap2\n      pop\n      pop\n        /* \"contracts/token/ERC721/ERC721.sol\":3208:3489  function tokenURI(uint256 tokenId) public view virtual override returns (string memory) {... */\n      swap2\n      swap1\n      pop\n      jump\t// out\n        /* \"contracts/token/ERC721/ERC721.sol\":5021:5185  function isApprovedForAll(address owner, address operator) public view virtual override returns (bool) {... */\n    tag_93:\n        /* \"contracts/token/ERC721/ERC721.sol\":5118:5122  bool */\n      0x00\n        /* \"contracts/token/ERC721/ERC721.sol\":5142:5160  _operatorApprovals */\n      0x05\n        /* \"contracts/token/ERC721/ERC721.sol\":5142:5167  _operatorApprovals[owner] */\n      0x00\n        /* \"contracts/token/ERC721/ERC721.sol\":5161:5166  owner */\n      dup5\n        /* \"contracts/token/ERC721/ERC721.sol\":5142:5167  _operatorApprovals[owner] */\n      0xffffffffffffffffffffffffffffffffffffffff\n      and\n      0xffffffffffffffffffffffffffffffffffffffff\n      and\n      dup2\n      mstore\n      0x20\n      add\n      swap1\n      dup2\n      mstore\n      0x20\n      add\n      0x00\n      keccak256\n        /* \"contracts/token/ERC721/ERC721.sol\":5142:5177  _operatorApprovals[owner][operator] */\n      0x00\n        /* \"contracts/token/ERC721/ERC721.sol\":5168:5176  operator */\n      dup4\n        /* \"contracts/token/ERC721/ERC721.sol\":5142:5177  _operatorApprovals[owner][operator] */\n      0xffffffffffffffffffffffffffffffffffffffff\n      and\n      0xffffffffffffffffffffffffffffffffffffffff\n      and\n      dup2\n      mstore\n      0x20\n      add\n      swap1\n      dup2\n      mstore\n      0x20\n      add\n      0x00\n      keccak256\n      0x00\n      swap1\n      sload\n      swap1\n      0x0100\n      exp\n      swap1\n      div\n      0xff\n      and\n        /* \"contracts/token/ERC721/ERC721.sol\":5135:5177  return _operatorApprovals[owner][operator] */\n      swap1\n      pop\n        /* \"contracts/token/ERC721/ERC721.sol\":5021:5185  function isApprovedForAll(address owner, address operator) public view virtual override returns (bool) {... */\n      swap3\n      swap2\n      pop\n      pop\n      jump\t// out\n        /* \"contracts/utils/introspection/ERC165.sol\":854:1011  function supportsInterface(bytes4 interfaceId) public view virtual override returns (bool) {... */\n    tag_99:\n        /* \"contracts/utils/introspection/ERC165.sol\":939:943  bool */\n      0x00\n        /* \"contracts/utils/introspection/ERC165.sol\":978:1003  type(IERC165).interfaceId */\n      0x01ffc9a700000000000000000000000000000000000000000000000000000000\n        /* \"contracts/utils/introspection/ERC165.sol\":963:1003  interfaceId == type(IERC165).interfaceId */\n      not(0xffffffffffffffffffffffffffffffffffffffffffffffffffffffff)\n      and\n        /* \"contracts/utils/introspection/ERC165.sol\":963:974  interfaceId */\n      dup3\n        /* \"contracts/utils/introspection/ERC165.sol\":963:1003  interfaceId == type(IERC165).interfaceId */\n      not(0xffffffffffffffffffffffffffffffffffffffffffffffffffffffff)\n      and\n      eq\n        /* \"contracts/utils/introspection/ERC165.sol\":956:1003  return interfaceId == type(IERC165).interfaceId */\n      swap1\n      pop\n        /* \"contracts/utils/introspection/ERC165.sol\":854:1011  function supportsInterface(bytes4 interfaceId) public view virtual override returns (bool) {... */\n      swap2\n      swap1\n      pop\n      jump\t// out\n        /* \"contracts/token/ERC721/ERC721.sol\":15348:15483  function _requireMinted(uint256 tokenId) internal view virtual {... */\n    tag_110:\n        /* \"contracts/token/ERC721/ERC721.sol\":15430:15446  _exists(tokenId) */\n      tag_201\n        /* \"contracts/token/ERC721/ERC721.sol\":15438:15445  tokenId */\n      dup2\n        /* \"contracts/token/ERC721/ERC721.sol\":15430:15437  _exists */\n      tag_202\n        /* \"contracts/token/ERC721/ERC721.sol\":15430:15446  _exists(tokenId) */\n      jump\t// in\n    tag_201:\n        /* \"contracts/token/ERC721/ERC721.sol\":15422:15475  require(_exists(tokenId), \"ERC721: invalid token ID\") */\n      tag_203\n      jumpi\n      mload(0x40)\n      0x08c379a000000000000000000000000000000000000000000000000000000000\n      dup2\n      mstore\n      0x04\n      add\n      tag_204\n      swap1\n      tag_161\n      jump\t// in\n    tag_204:\n      mload(0x40)\n      dup1\n      swap2\n      sub\n      swap1\n      revert\n    tag_203:\n        /* \"contracts/token/ERC721/ERC721.sol\":15348:15483  function _requireMinted(uint256 tokenId) internal view virtual {... */\n      pop\n      jump\t// out\n        /* \"contracts/utils/Context.sol\":656:754  function _msgSender() internal view virtual returns (address) {... */\n    tag_117:\n        /* \"contracts/utils/Context.sol\":709:716  address */\n      0x00\n        /* \"contracts/utils/Context.sol\":736:746  msg.sender */\n      caller\n        /* \"contracts/utils/Context.sol\":729:746  return msg.sender */\n      swap1\n      pop\n        /* \"contracts/utils/Context.sol\":656:754  function _msgSender() internal view virtual returns (address) {... */\n      swap1\n      jump\t// out\n        /* \"contracts/token/ERC721/ERC721.sol\":14538:14712  function _approve(address to, uint256 tokenId) internal virtual {... */\n    tag_128:\n        /* \"contracts/token/ERC721/ERC721.sol\":14640:14642  to */\n      dup2\n        /* \"contracts/token/ERC721/ERC721.sol\":14613:14628  _tokenApprovals */\n      0x04\n        /* \"contracts/token/ERC721/ERC721.sol\":14613:14637  _tokenApprovals[tokenId] */\n      0x00\n        /* \"contracts/token/ERC721/ERC721.sol\":14629:14636  tokenId */\n      dup4\n        /* \"contracts/token/ERC721/ERC721.sol\":14613:14637  _tokenApprovals[tokenId] */\n      dup2\n      mstore\n      0x20\n      add\n      swap1\n      dup2\n      mstore\n      0x20\n      add\n      0x00\n      keccak256\n      0x00\n        /* \"contracts/token/ERC721/ERC721.sol\":14613:14642  _tokenApprovals[tokenId] = to */\n      0x0100\n      exp\n      dup2\n      sload\n      dup2\n      0xffffffffffffffffffffffffffffffffffffffff\n      mul\n      not\n      and\n      swap1\n      dup4\n      0xffffffffffffffffffffffffffffffffffffffff\n      and\n      mul\n      or\n      swap1\n      sstore\n      pop\n        /* \"contracts/token/ERC721/ERC721.sol\":14696:14703  tokenId */\n      dup1\n        /* \"contracts/token/ERC721/ERC721.sol\":14692:14694  to */\n      dup3\n        /* \"contracts/token/ERC721/ERC721.sol\":14658:14704  Approval(ERC721.ownerOf(tokenId), to, tokenId) */\n      0xffffffffffffffffffffffffffffffffffffffff\n      and\n        /* \"contracts/token/ERC721/ERC721.sol\":14667:14690  ERC721.ownerOf(tokenId) */\n      tag_207\n        /* \"contracts/token/ERC721/ERC721.sol\":14682:14689  tokenId */\n      dup4\n        /* \"contracts/token/ERC721/ERC721.sol\":14667:14681  ERC721.ownerOf */\n      tag_66\n        /* \"contracts/token/ERC721/ERC721.sol\":14667:14690  ERC721.ownerOf(tokenId) */\n      jump\t// in\n    tag_207:\n        /* \"contracts/token/ERC721/ERC721.sol\":14658:14704  Approval(ERC721.ownerOf(tokenId), to, tokenId) */\n      0xffffffffffffffffffffffffffffffffffffffff\n      and\n      0x8c5be1e5ebec7d5bd14f71427d1e84f3dd0314c0f7b2291e5b200ac8c7c3b925\n      mload(0x40)\n      mload(0x40)\n      dup1\n      swap2\n      sub\n      swap1\n      log4\n        /* \"contracts/token/ERC721/ERC721.sol\":14538:14712  function _approve(address to, uint256 tokenId) internal virtual {... */\n      pop\n      pop\n      jump\t// out\n        /* \"contracts/token/ERC721/ERC721.sol\":9160:9424  function _isApprovedOrOwner(address spender, uint256 tokenId) internal view virtual returns (bool) {... */\n    tag_132:\n        /* \"contracts/token/ERC721/ERC721.sol\":9253:9257  bool */\n      0x00\n        /* \"contracts/token/ERC721/ERC721.sol\":9270:9283  address owner */\n      dup1\n        /* \"contracts/token/ERC721/ERC721.sol\":9286:9309  ERC721.ownerOf(tokenId) */\n      tag_209\n        /* \"contracts/token/ERC721/ERC721.sol\":9301:9308  tokenId */\n      dup4\n        /* \"contracts/token/ERC721/ERC721.sol\":9286:9300  ERC721.ownerOf */\n      tag_66\n        /* \"contracts/token/ERC721/ERC721.sol\":9286:9309  ERC721.ownerOf(tokenId) */\n      jump\t// in\n    tag_209:\n        /* \"contracts/token/ERC721/ERC721.sol\":9270:9309  address owner = ERC721.ownerOf(tokenId) */\n      swap1\n      pop\n        /* \"contracts/token/ERC721/ERC721.sol\":9339:9344  owner */\n      dup1\n        /* \"contracts/token/ERC721/ERC721.sol\":9328:9344  spender == owner */\n      0xffffffffffffffffffffffffffffffffffffffff\n      and\n        /* \"contracts/token/ERC721/ERC721.sol\":9328:9335  spender */\n      dup5\n        /* \"contracts/token/ERC721/ERC721.sol\":9328:9344  spender == owner */\n      0xffffffffffffffffffffffffffffffffffffffff\n      and\n      eq\n        /* \"contracts/token/ERC721/ERC721.sol\":9328:9380  spender == owner || isApprovedForAll(owner, spender) */\n      dup1\n      tag_210\n      jumpi\n      pop\n        /* \"contracts/token/ERC721/ERC721.sol\":9348:9380  isApprovedForAll(owner, spender) */\n      tag_211\n        /* \"contracts/token/ERC721/ERC721.sol\":9365:9370  owner */\n      dup2\n        /* \"contracts/token/ERC721/ERC721.sol\":9372:9379  spender */\n      dup6\n        /* \"contracts/token/ERC721/ERC721.sol\":9348:9364  isApprovedForAll */\n      tag_93\n        /* \"contracts/token/ERC721/ERC721.sol\":9348:9380  isApprovedForAll(owner, spender) */\n      jump\t// in\n    tag_211:\n        /* \"contracts/token/ERC721/ERC721.sol\":9328:9380  spender == owner || isApprovedForAll(owner, spender) */\n    tag_210:\n        /* \"contracts/token/ERC721/ERC721.sol\":9328:9415  spender == owner || isApprovedForAll(owner, spender) || getApproved(tokenId) == spender */\n      dup1\n      tag_212\n      jumpi\n      pop\n        /* \"contracts/token/ERC721/ERC721.sol\":9408:9415  spender */\n      dup4\n        /* \"contracts/token/ERC721/ERC721.sol\":9384:9415  getApproved(tokenId) == spender */\n      0xffffffffffffffffffffffffffffffffffffffff\n      and\n        /* \"contracts/token/ERC721/ERC721.sol\":9384:9404  getApproved(tokenId) */\n      tag_213\n        /* \"contracts/token/ERC721/ERC721.sol\":9396:9403  tokenId */\n      dup5\n        /* \"contracts/token/ERC721/ERC721.sol\":9384:9395  getApproved */\n      tag_42\n        /* \"contracts/token/ERC721/ERC721.sol\":9384:9404  getApproved(tokenId) */\n      jump\t// in\n    tag_213:\n        /* \"contracts/token/ERC721/ERC721.sol\":9384:9415  getApproved(tokenId) == spender */\n      0xffffffffffffffffffffffffffffffffffffffff\n      and\n      eq\n        /* \"contracts/token/ERC721/ERC721.sol\":9328:9415  spender == owner || isApprovedForAll(owner, spender) || getApproved(tokenId) == spender */\n    tag_212:\n        /* \"contracts/token/ERC721/ERC721.sol\":9320:9416  return (spender == owner || isApprovedForAll(owner, spender) || getApproved(tokenId) == spender) */\n      swap2\n      pop\n      pop\n        /* \"contracts/token/ERC721/ERC721.sol\":9160:9424  function _isApprovedOrOwner(address spender, uint256 tokenId) internal view virtual returns (bool) {... */\n      swap3\n      swap2\n      pop\n      pop\n      jump\t// out\n        /* \"contracts/token/ERC721/ERC721.sol\":13190:14419  function _transfer(address from, address to, uint256 tokenId) internal virtual {... */\n    tag_139:\n        /* \"contracts/token/ERC721/ERC721.sol\":13315:13319  from */\n      dup3\n        /* \"contracts/token/ERC721/ERC721.sol\":13288:13319  ERC721.ownerOf(tokenId) == from */\n      0xffffffffffffffffffffffffffffffffffffffff\n      and\n        /* \"contracts/token/ERC721/ERC721.sol\":13288:13311  ERC721.ownerOf(tokenId) */\n      tag_215\n        /* \"contracts/token/ERC721/ERC721.sol\":13303:13310  tokenId */\n      dup3\n        /* \"contracts/token/ERC721/ERC721.sol\":13288:13302  ERC721.ownerOf */\n      tag_66\n        /* \"contracts/token/ERC721/ERC721.sol\":13288:13311  ERC721.ownerOf(tokenId) */\n      jump\t// in\n    tag_215:\n        /* \"contracts/token/ERC721/ERC721.sol\":13288:13319  ERC721.ownerOf(tokenId) == from */\n      0xffffffffffffffffffffffffffffffffffffffff\n      and\n      eq\n        /* \"contracts/token/ERC721/ERC721.sol\":13280:13361  require(ERC721.ownerOf(tokenId) == from, \"ERC721: transfer from incorrect owner\") */\n      tag_216\n      jumpi\n      mload(0x40)\n      0x08c379a000000000000000000000000000000000000000000000000000000000\n      dup2\n      mstore\n      0x04\n      add\n      tag_217\n      swap1\n      tag_218\n      jump\t// in\n    tag_217:\n      mload(0x40)\n      dup1\n      swap2\n      sub\n      swap1\n      revert\n    tag_216:\n        /* \"contracts/token/ERC721/ERC721.sol\":13394:13395  0 */\n      0x00\n        /* \"contracts/token/ERC721/ERC721.sol\":13380:13396  to != address(0) */\n      0xffffffffffffffffffffffffffffffffffffffff\n      and\n        /* \"contracts/token/ERC721/ERC721.sol\":13380:13382  to */\n      dup3\n        /* \"contracts/token/ERC721/ERC721.sol\":13380:13396  to != address(0) */\n      0xffffffffffffffffffffffffffffffffffffffff\n      and\n      sub\n        /* \"contracts/token/ERC721/ERC721.sol\":13372:13437  require(to != address(0), \"ERC721: transfer to the zero address\") */\n      tag_219\n      jumpi\n      mload(0x40)\n      0x08c379a000000000000000000000000000000000000000000000000000000000\n      dup2\n      mstore\n      0x04\n      add\n      tag_220\n      swap1\n      tag_221\n      jump\t// in\n    tag_220:\n      mload(0x40)\n      dup1\n      swap2\n      sub\n      swap1\n      revert\n    tag_219:\n        /* \"contracts/token/ERC721/ERC721.sol\":13450:13492  _beforeTokenTransfer(from, to, tokenId, 1) */\n      tag_222\n        /* \"contracts/token/ERC721/ERC721.sol\":13471:13475  from */\n      dup4\n        /* \"contracts/token/ERC721/ERC721.sol\":13477:13479  to */\n      dup4\n        /* \"contracts/token/ERC721/ERC721.sol\":13481:13488  tokenId */\n      dup4\n        /* \"contracts/token/ERC721/ERC721.sol\":13490:13491  1 */\n      0x01\n        /* \"contracts/token/ERC721/ERC721.sol\":13450:13470  _beforeTokenTransfer */\n      tag_223\n        /* \"contracts/token/ERC721/ERC721.sol\":13450:13492  _beforeTokenTransfer(from, to, tokenId, 1) */\n      jump\t// in\n    tag_222:\n        /* \"contracts/token/ERC721/ERC721.sol\":13622:13626  from */\n      dup3\n        /* \"contracts/token/ERC721/ERC721.sol\":13595:13626  ERC721.ownerOf(tokenId) == from */\n      0xffffffffffffffffffffffffffffffffffffffff\n      and\n        /* \"contracts/token/ERC721/ERC721.sol\":13595:13618  ERC721.ownerOf(tokenId) */\n      tag_224\n        /* \"contracts/token/ERC721/ERC721.sol\":13610:13617  tokenId */\n      dup3\n        /* \"contracts/token/ERC721/ERC721.sol\":13595:13609  ERC721.ownerOf */\n      tag_66\n        /* \"contracts/token/ERC721/ERC721.sol\":13595:13618  ERC721.ownerOf(tokenId) */\n      jump\t// in\n    tag_224:\n        /* \"contracts/token/ERC721/ERC721.sol\":13595:13626  ERC721.ownerOf(tokenId) == from */\n      0xffffffffffffffffffffffffffffffffffffffff\n      and\n      eq\n        /* \"contracts/token/ERC721/ERC721.sol\":13587:13668  require(ERC721.ownerOf(tokenId) == from, \"ERC721: transfer from incorrect owner\") */\n      tag_225\n      jumpi\n      mload(0x40)\n      0x08c379a000000000000000000000000000000000000000000000000000000000\n      dup2\n      mstore\n      0x04\n      add\n      tag_226\n      swap1\n      tag_218\n      jump\t// in\n    tag_226:\n      mload(0x40)\n      dup1\n      swap2\n      sub\n      swap1\n      revert\n    tag_225:\n        /* \"contracts/token/ERC721/ERC721.sol\":13740:13755  _tokenApprovals */\n      0x04\n        /* \"contracts/token/ERC721/ERC721.sol\":13740:13764  _tokenApprovals[tokenId] */\n      0x00\n        /* \"contracts/token/ERC721/ERC721.sol\":13756:13763  tokenId */\n      dup3\n        /* \"contracts/token/ERC721/ERC721.sol\":13740:13764  _tokenApprovals[tokenId] */\n      dup2\n      mstore\n      0x20\n      add\n      swap1\n      dup2\n      mstore\n      0x20\n      add\n      0x00\n      keccak256\n      0x00\n        /* \"contracts/token/ERC721/ERC721.sol\":13733:13764  delete _tokenApprovals[tokenId] */\n      0x0100\n      exp\n      dup2\n      sload\n      swap1\n      0xffffffffffffffffffffffffffffffffffffffff\n      mul\n      not\n      and\n      swap1\n      sstore\n        /* \"contracts/token/ERC721/ERC721.sol\":14235:14236  1 */\n      0x01\n        /* \"contracts/token/ERC721/ERC721.sol\":14216:14225  _balances */\n      0x03\n        /* \"contracts/token/ERC721/ERC721.sol\":14216:14231  _balances[from] */\n      0x00\n        /* \"contracts/token/ERC721/ERC721.sol\":14226:14230  from */\n      dup6\n        /* \"contracts/token/ERC721/ERC721.sol\":14216:14231  _balances[from] */\n      0xffffffffffffffffffffffffffffffffffffffff\n      and\n      0xffffffffffffffffffffffffffffffffffffffff\n      and\n      dup2\n      mstore\n      0x20\n      add\n      swap1\n      dup2\n      mstore\n      0x20\n      add\n      0x00\n      keccak256\n      0x00\n        /* \"contracts/token/ERC721/ERC721.sol\":14216:14236  _balances[from] -= 1 */\n      dup3\n      dup3\n      sload\n      sub\n      swap3\n      pop\n      pop\n      dup2\n      swap1\n      sstore\n      pop\n        /* \"contracts/token/ERC721/ERC721.sol\":14268:14269  1 */\n      0x01\n        /* \"contracts/token/ERC721/ERC721.sol\":14251:14260  _balances */\n      0x03\n        /* \"contracts/token/ERC721/ERC721.sol\":14251:14264  _balances[to] */\n      0x00\n        /* \"contracts/token/ERC721/ERC721.sol\":14261:14263  to */\n      dup5\n        /* \"contracts/token/ERC721/ERC721.sol\":14251:14264  _balances[to] */\n      0xffffffffffffffffffffffffffffffffffffffff\n      and\n      0xffffffffffffffffffffffffffffffffffffffff\n      and\n      dup2\n      mstore\n      0x20\n      add\n      swap1\n      dup2\n      mstore\n      0x20\n      add\n      0x00\n      keccak256\n      0x00\n        /* \"contracts/token/ERC721/ERC721.sol\":14251:14269  _balances[to] += 1 */\n      dup3\n      dup3\n      sload\n      add\n      swap3\n      pop\n      pop\n      dup2\n      swap1\n      sstore\n      pop\n        /* \"contracts/token/ERC721/ERC721.sol\":14310:14312  to */\n      dup2\n        /* \"contracts/token/ERC721/ERC721.sol\":14291:14298  _owners */\n      0x02\n        /* \"contracts/token/ERC721/ERC721.sol\":14291:14307  _owners[tokenId] */\n      0x00\n        /* \"contracts/token/ERC721/ERC721.sol\":14299:14306  tokenId */\n      dup4\n        /* \"contracts/token/ERC721/ERC721.sol\":14291:14307  _owners[tokenId] */\n      dup2\n      mstore\n      0x20\n      add\n      swap1\n      dup2\n      mstore\n      0x20\n      add\n      0x00\n      keccak256\n      0x00\n        /* \"contracts/token/ERC721/ERC721.sol\":14291:14312  _owners[tokenId] = to */\n      0x0100\n      exp\n      dup2\n      sload\n      dup2\n      0xffffffffffffffffffffffffffffffffffffffff\n      mul\n      not\n      and\n      swap1\n      dup4\n      0xffffffffffffffffffffffffffffffffffffffff\n      and\n      mul\n      or\n      swap1\n      sstore\n      pop\n        /* \"contracts/token/ERC721/ERC721.sol\":14349:14356  tokenId */\n      dup1\n        /* \"contracts/token/ERC721/ERC721.sol\":14345:14347  to */\n      dup3\n        /* \"contracts/token/ERC721/ERC721.sol\":14330:14357  Transfer(from, to, tokenId) */\n      0xffffffffffffffffffffffffffffffffffffffff\n      and\n        /* \"contracts/token/ERC721/ERC721.sol\":14339:14343  from */\n      dup5\n        /* \"contracts/token/ERC721/ERC721.sol\":14330:14357  Transfer(from, to, tokenId) */\n      0xffffffffffffffffffffffffffffffffffffffff\n      and\n      0xddf252ad1be2c89b69c2b068fc378daa952ba7f163c4a11628f55a4df523b3ef\n      mload(0x40)\n      mload(0x40)\n      dup1\n      swap2\n      sub\n      swap1\n      log4\n        /* \"contracts/token/ERC721/ERC721.sol\":14370:14411  _afterTokenTransfer(from, to, tokenId, 1) */\n      tag_227\n        /* \"contracts/token/ERC721/ERC721.sol\":14390:14394  from */\n      dup4\n        /* \"contracts/token/ERC721/ERC721.sol\":14396:14398  to */\n      dup4\n        /* \"contracts/token/ERC721/ERC721.sol\":14400:14407  tokenId */\n      dup4\n        /* \"contracts/token/ERC721/ERC721.sol\":14409:14410  1 */\n      0x01\n        /* \"contracts/token/ERC721/ERC721.sol\":14370:14389  _afterTokenTransfer */\n      tag_228\n        /* \"contracts/token/ERC721/ERC721.sol\":14370:14411  _afterTokenTransfer(from, to, tokenId, 1) */\n      jump\t// in\n    tag_227:\n        /* \"contracts/token/ERC721/ERC721.sol\":13190:14419  function _transfer(address from, address to, uint256 tokenId) internal virtual {... */\n      pop\n      pop\n      pop\n      jump\t// out\n        /* \"contracts/token/ERC721/ERC721.sol\":19284:19697  function _lock(uint256 tokenId,bool locked) internal virtual {... */\n    tag_152:\n        /* \"contracts/token/ERC721/ERC721.sol\":19356:19369  address owner */\n      0x00\n        /* \"contracts/token/ERC721/ERC721.sol\":19372:19395  ERC721.ownerOf(tokenId) */\n      tag_230\n        /* \"contracts/token/ERC721/ERC721.sol\":19387:19394  tokenId */\n      dup4\n        /* \"contracts/token/ERC721/ERC721.sol\":19372:19386  ERC721.ownerOf */\n      tag_66\n        /* \"contracts/token/ERC721/ERC721.sol\":19372:19395  ERC721.ownerOf(tokenId) */\n      jump\t// in\n    tag_230:\n        /* \"contracts/token/ERC721/ERC721.sol\":19356:19395  address owner = ERC721.ownerOf(tokenId) */\n      swap1\n      pop\n        /* \"contracts/token/ERC721/ERC721.sol\":19444:19450  locked */\n      dup2\n        /* \"contracts/token/ERC721/ERC721.sol\":19444:19474  locked && !_tokenLock[tokenId] */\n      dup1\n      iszero\n      tag_231\n      jumpi\n      pop\n        /* \"contracts/token/ERC721/ERC721.sol\":19455:19465  _tokenLock */\n      0x06\n        /* \"contracts/token/ERC721/ERC721.sol\":19455:19474  _tokenLock[tokenId] */\n      0x00\n        /* \"contracts/token/ERC721/ERC721.sol\":19466:19473  tokenId */\n      dup5\n        /* \"contracts/token/ERC721/ERC721.sol\":19455:19474  _tokenLock[tokenId] */\n      dup2\n      mstore\n      0x20\n      add\n      swap1\n      dup2\n      mstore\n      0x20\n      add\n      0x00\n      keccak256\n      0x00\n      swap1\n      sload\n      swap1\n      0x0100\n      exp\n      swap1\n      div\n      0xff\n      and\n        /* \"contracts/token/ERC721/ERC721.sol\":19454:19474  !_tokenLock[tokenId] */\n      iszero\n        /* \"contracts/token/ERC721/ERC721.sol\":19444:19474  locked && !_tokenLock[tokenId] */\n    tag_231:\n        /* \"contracts/token/ERC721/ERC721.sol\":19441:19577  if(locked && !_tokenLock[tokenId]) _lockedCount[owner] += 1;... */\n      iszero\n      tag_232\n      jumpi\n        /* \"contracts/token/ERC721/ERC721.sol\":19499:19500  1 */\n      0x01\n        /* \"contracts/token/ERC721/ERC721.sol\":19476:19488  _lockedCount */\n      0x08\n        /* \"contracts/token/ERC721/ERC721.sol\":19476:19495  _lockedCount[owner] */\n      0x00\n        /* \"contracts/token/ERC721/ERC721.sol\":19489:19494  owner */\n      dup4\n        /* \"contracts/token/ERC721/ERC721.sol\":19476:19495  _lockedCount[owner] */\n      0xffffffffffffffffffffffffffffffffffffffff\n      and\n      0xffffffffffffffffffffffffffffffffffffffff\n      and\n      dup2\n      mstore\n      0x20\n      add\n      swap1\n      dup2\n      mstore\n      0x20\n      add\n      0x00\n      keccak256\n      0x00\n        /* \"contracts/token/ERC721/ERC721.sol\":19476:19500  _lockedCount[owner] += 1 */\n      dup3\n      dup3\n      sload\n      add\n      swap3\n      pop\n      pop\n      dup2\n      swap1\n      sstore\n      pop\n        /* \"contracts/token/ERC721/ERC721.sol\":19441:19577  if(locked && !_tokenLock[tokenId]) _lockedCount[owner] += 1;... */\n      jump(tag_233)\n    tag_232:\n        /* \"contracts/token/ERC721/ERC721.sol\":19524:19530  locked */\n      dup2\n        /* \"contracts/token/ERC721/ERC721.sol\":19523:19530  !locked */\n      iszero\n        /* \"contracts/token/ERC721/ERC721.sol\":19523:19553  !locked && _tokenLock[tokenId] */\n      dup1\n      iszero\n      tag_234\n      jumpi\n      pop\n        /* \"contracts/token/ERC721/ERC721.sol\":19534:19544  _tokenLock */\n      0x06\n        /* \"contracts/token/ERC721/ERC721.sol\":19534:19553  _tokenLock[tokenId] */\n      0x00\n        /* \"contracts/token/ERC721/ERC721.sol\":19545:19552  tokenId */\n      dup5\n        /* \"contracts/token/ERC721/ERC721.sol\":19534:19553  _tokenLock[tokenId] */\n      dup2\n      mstore\n      0x20\n      add\n      swap1\n      dup2\n      mstore\n      0x20\n      add\n      0x00\n      keccak256\n      0x00\n      swap1\n      sload\n      swap1\n      0x0100\n      exp\n      swap1\n      div\n      0xff\n      and\n        /* \"contracts/token/ERC721/ERC721.sol\":19523:19553  !locked && _tokenLock[tokenId] */\n    tag_234:\n        /* \"contracts/token/ERC721/ERC721.sol\":19520:19577  if(!locked && _tokenLock[tokenId]) _lockedCount[owner]-=1 */\n      iszero\n      tag_235\n      jumpi\n        /* \"contracts/token/ERC721/ERC721.sol\":19576:19577  1 */\n      0x01\n        /* \"contracts/token/ERC721/ERC721.sol\":19555:19567  _lockedCount */\n      0x08\n        /* \"contracts/token/ERC721/ERC721.sol\":19555:19574  _lockedCount[owner] */\n      0x00\n        /* \"contracts/token/ERC721/ERC721.sol\":19568:19573  owner */\n      dup4\n        /* \"contracts/token/ERC721/ERC721.sol\":19555:19574  _lockedCount[owner] */\n      0xffffffffffffffffffffffffffffffffffffffff\n      and\n      0xffffffffffffffffffffffffffffffffffffffff\n      and\n      dup2\n      mstore\n      0x20\n      add\n      swap1\n      dup2\n      mstore\n      0x20\n      add\n      0x00\n      keccak256\n      0x00\n        /* \"contracts/token/ERC721/ERC721.sol\":19555:19577  _lockedCount[owner]-=1 */\n      dup3\n      dup3\n      sload\n      sub\n      swap3\n      pop\n      pop\n      dup2\n      swap1\n      sstore\n      pop\n        /* \"contracts/token/ERC721/ERC721.sol\":19520:19577  if(!locked && _tokenLock[tokenId]) _lockedCount[owner]-=1 */\n    tag_235:\n        /* \"contracts/token/ERC721/ERC721.sol\":19441:19577  if(locked && !_tokenLock[tokenId]) _lockedCount[owner] += 1;... */\n    tag_233:\n        /* \"contracts/token/ERC721/ERC721.sol\":19621:19627  locked */\n      dup2\n        /* \"contracts/token/ERC721/ERC721.sol\":19599:19609  _tokenLock */\n      0x06\n        /* \"contracts/token/ERC721/ERC721.sol\":19599:19618  _tokenLock[tokenId] */\n      0x00\n        /* \"contracts/token/ERC721/ERC721.sol\":19610:19617  tokenId */\n      dup6\n        /* \"contracts/token/ERC721/ERC721.sol\":19599:19618  _tokenLock[tokenId] */\n      dup2\n      mstore\n      0x20\n      add\n      swap1\n      dup2\n      mstore\n      0x20\n      add\n      0x00\n      keccak256\n      0x00\n        /* \"contracts/token/ERC721/ERC721.sol\":19599:19627  _tokenLock[tokenId] = locked */\n      0x0100\n      exp\n      dup2\n      sload\n      dup2\n      0xff\n      mul\n      not\n      and\n      swap1\n      dup4\n      iszero\n      iszero\n      mul\n      or\n      swap1\n      sstore\n      pop\n        /* \"contracts/token/ERC721/ERC721.sol\":19648:19671  ERC721.ownerOf(tokenId) */\n      tag_236\n        /* \"contracts/token/ERC721/ERC721.sol\":19663:19670  tokenId */\n      dup4\n        /* \"contracts/token/ERC721/ERC721.sol\":19648:19662  ERC721.ownerOf */\n      tag_66\n        /* \"contracts/token/ERC721/ERC721.sol\":19648:19671  ERC721.ownerOf(tokenId) */\n      jump\t// in\n    tag_236:\n        /* \"contracts/token/ERC721/ERC721.sol\":19643:19689  Lock(ERC721.ownerOf(tokenId), tokenId, locked) */\n      0xffffffffffffffffffffffffffffffffffffffff\n      and\n      0xb5aaf11176f7b5020892b8a131e119463931075db10e5e370c7d63292206ec63\n        /* \"contracts/token/ERC721/ERC721.sol\":19673:19680  tokenId */\n      dup5\n        /* \"contracts/token/ERC721/ERC721.sol\":19682:19688  locked */\n      dup5\n        /* \"contracts/token/ERC721/ERC721.sol\":19643:19689  Lock(ERC721.ownerOf(tokenId), tokenId, locked) */\n      mload(0x40)\n      tag_237\n      swap3\n      swap2\n      swap1\n      tag_238\n      jump\t// in\n    tag_237:\n      mload(0x40)\n      dup1\n      swap2\n      sub\n      swap1\n      log2\n        /* \"contracts/token/ERC721/ERC721.sol\":19345:19697  {... */\n      pop\n        /* \"contracts/token/ERC721/ERC721.sol\":19284:19697  function _lock(uint256 tokenId,bool locked) internal virtual {... */\n      pop\n      pop\n      jump\t// out\n        /* \"contracts/token/ERC721/ERC721.sol\":8435:8552  function _ownerOf(uint256 tokenId) internal view virtual returns (address) {... */\n    tag_158:\n        /* \"contracts/token/ERC721/ERC721.sol\":8501:8508  address */\n      0x00\n        /* \"contracts/token/ERC721/ERC721.sol\":8528:8535  _owners */\n      0x02\n        /* \"contracts/token/ERC721/ERC721.sol\":8528:8544  _owners[tokenId] */\n      0x00\n        /* \"contracts/token/ERC721/ERC721.sol\":8536:8543  tokenId */\n      dup4\n        /* \"contracts/token/ERC721/ERC721.sol\":8528:8544  _owners[tokenId] */\n      dup2\n      mstore\n      0x20\n      add\n      swap1\n      dup2\n      mstore\n      0x20\n      add\n      0x00\n      keccak256\n      0x00\n      swap1\n      sload\n      swap1\n      0x0100\n      exp\n      swap1\n      div\n      0xffffffffffffffffffffffffffffffffffffffff\n      and\n        /* \"contracts/token/ERC721/ERC721.sol\":8521:8544  return _owners[tokenId] */\n      swap1\n      pop\n        /* \"contracts/token/ERC721/ERC721.sol\":8435:8552  function _ownerOf(uint256 tokenId) internal view virtual returns (address) {... */\n      swap2\n      swap1\n      pop\n      jump\t// out\n        /* \"contracts/token/ERC721/ERC721.sol\":9766:9876  function _safeMint(address to, uint256 tokenId) internal virtual {... */\n    tag_174:\n        /* \"contracts/token/ERC721/ERC721.sol\":9842:9868  _safeMint(to, tokenId, \"\") */\n      tag_241\n        /* \"contracts/token/ERC721/ERC721.sol\":9852:9854  to */\n      dup3\n        /* \"contracts/token/ERC721/ERC721.sol\":9856:9863  tokenId */\n      dup3\n        /* \"contracts/token/ERC721/ERC721.sol\":9842:9868  _safeMint(to, tokenId, \"\") */\n      mload(0x40)\n      dup1\n      0x20\n      add\n      0x40\n      mstore\n      dup1\n      0x00\n      dup2\n      mstore\n      pop\n        /* \"contracts/token/ERC721/ERC721.sol\":9842:9851  _safeMint */\n      tag_242\n        /* \"contracts/token/ERC721/ERC721.sol\":9842:9868  _safeMint(to, tokenId, \"\") */\n      jump\t// in\n    tag_241:\n        /* \"contracts/token/ERC721/ERC721.sol\":9766:9876  function _safeMint(address to, uint256 tokenId) internal virtual {... */\n      pop\n      pop\n      jump\t// out\n        /* \"contracts/token/ERC721/ERC721.sol\":14855:15259  function _setApprovalForAll(address owner, address operator, bool approved) internal virtual {... */\n    tag_178:\n        /* \"contracts/token/ERC721/ERC721.sol\":14976:14984  operator */\n      dup2\n        /* \"contracts/token/ERC721/ERC721.sol\":14967:14984  owner != operator */\n      0xffffffffffffffffffffffffffffffffffffffff\n      and\n        /* \"contracts/token/ERC721/ERC721.sol\":14967:14972  owner */\n      dup4\n        /* \"contracts/token/ERC721/ERC721.sol\":14967:14984  owner != operator */\n      0xffffffffffffffffffffffffffffffffffffffff\n      and\n      sub\n        /* \"contracts/token/ERC721/ERC721.sol\":14959:15014  require(owner != operator, \"ERC721: approve to caller\") */\n      tag_244\n      jumpi\n      mload(0x40)\n      0x08c379a000000000000000000000000000000000000000000000000000000000\n      dup2\n      mstore\n      0x04\n      add\n      tag_245\n      swap1\n      tag_246\n      jump\t// in\n    tag_245:\n      mload(0x40)\n      dup1\n      swap2\n      sub\n      swap1\n      revert\n    tag_244:\n        /* \"contracts/token/ERC721/ERC721.sol\":15054:15055  0 */\n      0x00\n        /* \"contracts/token/ERC721/ERC721.sol\":15033:15045  _lockedCount */\n      0x08\n        /* \"contracts/token/ERC721/ERC721.sol\":15033:15052  _lockedCount[owner] */\n      0x00\n        /* \"contracts/token/ERC721/ERC721.sol\":15046:15051  owner */\n      dup6\n        /* \"contracts/token/ERC721/ERC721.sol\":15033:15052  _lockedCount[owner] */\n      0xffffffffffffffffffffffffffffffffffffffff\n      and\n      0xffffffffffffffffffffffffffffffffffffffff\n      and\n      dup2\n      mstore\n      0x20\n      add\n      swap1\n      dup2\n      mstore\n      0x20\n      add\n      0x00\n      keccak256\n      sload\n        /* \"contracts/token/ERC721/ERC721.sol\":15033:15055  _lockedCount[owner]==0 */\n      eq\n        /* \"contracts/token/ERC721/ERC721.sol\":15025:15080  require(_lockedCount[owner]==0, \"ERC721: token locked\") */\n      tag_247\n      jumpi\n      mload(0x40)\n      0x08c379a000000000000000000000000000000000000000000000000000000000\n      dup2\n      mstore\n      0x04\n      add\n      tag_248\n      swap1\n      tag_126\n      jump\t// in\n    tag_248:\n      mload(0x40)\n      dup1\n      swap2\n      sub\n      swap1\n      revert\n    tag_247:\n        /* \"contracts/token/ERC721/ERC721.sol\":15139:15147  approved */\n      dup1\n        /* \"contracts/token/ERC721/ERC721.sol\":15101:15119  _operatorApprovals */\n      0x05\n        /* \"contracts/token/ERC721/ERC721.sol\":15101:15126  _operatorApprovals[owner] */\n      0x00\n        /* \"contracts/token/ERC721/ERC721.sol\":15120:15125  owner */\n      dup6\n        /* \"contracts/token/ERC721/ERC721.sol\":15101:15126  _operatorApprovals[owner] */\n      0xffffffffffffffffffffffffffffffffffffffff\n      and\n      0xffffffffffffffffffffffffffffffffffffffff\n      and\n      dup2\n      mstore\n      0x20\n      add\n      swap1\n      dup2\n      mstore\n      0x20\n      add\n      0x00\n      keccak256\n        /* \"contracts/token/ERC721/ERC721.sol\":15101:15136  _operatorApprovals[owner][operator] */\n      0x00\n        /* \"contracts/token/ERC721/ERC721.sol\":15127:15135  operator */\n      dup5\n        /* \"contracts/token/ERC721/ERC721.sol\":15101:15136  _operatorApprovals[owner][operator] */\n      0xffffffffffffffffffffffffffffffffffffffff\n      and\n      0xffffffffffffffffffffffffffffffffffffffff\n      and\n      dup2\n      mstore\n      0x20\n      add\n      swap1\n      dup2\n      mstore\n      0x20\n      add\n      0x00\n      keccak256\n      0x00\n        /* \"contracts/token/ERC721/ERC721.sol\":15101:15147  _operatorApprovals[owner][operator] = approved */\n      0x0100\n      exp\n      dup2\n      sload\n      dup2\n      0xff\n      mul\n      not\n      and\n      swap1\n      dup4\n      iszero\n      iszero\n      mul\n      or\n      swap1\n      sstore\n      pop\n        /* \"contracts/token/ERC721/ERC721.sol\":15186:15194  approved */\n      dup1\n        /* \"contracts/token/ERC721/ERC721.sol\":15158:15178  _isOperatorApprovals */\n      0x07\n        /* \"contracts/token/ERC721/ERC721.sol\":15158:15185  _isOperatorApprovals[owner] */\n      0x00\n        /* \"contracts/token/ERC721/ERC721.sol\":15179:15184  owner */\n      dup6\n        /* \"contracts/token/ERC721/ERC721.sol\":15158:15185  _isOperatorApprovals[owner] */\n      0xffffffffffffffffffffffffffffffffffffffff\n      and\n      0xffffffffffffffffffffffffffffffffffffffff\n      and\n      dup2\n      mstore\n      0x20\n      add\n      swap1\n      dup2\n      mstore\n      0x20\n      add\n      0x00\n      keccak256\n      0x00\n        /* \"contracts/token/ERC721/ERC721.sol\":15158:15194  _isOperatorApprovals[owner]=approved */\n      0x0100\n      exp\n      dup2\n      sload\n      dup2\n      0xff\n      mul\n      not\n      and\n      swap1\n      dup4\n      iszero\n      iszero\n      mul\n      or\n      swap1\n      sstore\n      pop\n        /* \"contracts/token/ERC721/ERC721.sol\":15232:15240  operator */\n      dup2\n        /* \"contracts/token/ERC721/ERC721.sol\":15210:15251  ApprovalForAll(owner, operator, approved) */\n      0xffffffffffffffffffffffffffffffffffffffff\n      and\n        /* \"contracts/token/ERC721/ERC721.sol\":15225:15230  owner */\n      dup4\n        /* \"contracts/token/ERC721/ERC721.sol\":15210:15251  ApprovalForAll(owner, operator, approved) */\n      0xffffffffffffffffffffffffffffffffffffffff\n      and\n      0x17307eab39ab6107e8899845ad3d59bd9653f200f220920489ca2b5937696c31\n        /* \"contracts/token/ERC721/ERC721.sol\":15242:15250  approved */\n      dup4\n        /* \"contracts/token/ERC721/ERC721.sol\":15210:15251  ApprovalForAll(owner, operator, approved) */\n      mload(0x40)\n      tag_249\n      swap2\n      swap1\n      tag_28\n      jump\t// in\n    tag_249:\n      mload(0x40)\n      dup1\n      swap2\n      sub\n      swap1\n      log3\n        /* \"contracts/token/ERC721/ERC721.sol\":14855:15259  function _setApprovalForAll(address owner, address operator, bool approved) internal virtual {... */\n      pop\n      pop\n      pop\n      jump\t// out\n        /* \"contracts/token/ERC721/ERC721.sol\":8051:8321  function _safeTransfer(address from, address to, uint256 tokenId, bytes memory data) internal virtual {... */\n    tag_187:\n        /* \"contracts/token/ERC721/ERC721.sol\":8164:8192  _transfer(from, to, tokenId) */\n      tag_251\n        /* \"contracts/token/ERC721/ERC721.sol\":8174:8178  from */\n      dup5\n        /* \"contracts/token/ERC721/ERC721.sol\":8180:8182  to */\n      dup5\n        /* \"contracts/token/ERC721/ERC721.sol\":8184:8191  tokenId */\n      dup5\n        /* \"contracts/token/ERC721/ERC721.sol\":8164:8173  _transfer */\n      tag_139\n        /* \"contracts/token/ERC721/ERC721.sol\":8164:8192  _transfer(from, to, tokenId) */\n      jump\t// in\n    tag_251:\n        /* \"contracts/token/ERC721/ERC721.sol\":8211:8258  _checkOnERC721Received(from, to, tokenId, data) */\n      tag_252\n        /* \"contracts/token/ERC721/ERC721.sol\":8234:8238  from */\n      dup5\n        /* \"contracts/token/ERC721/ERC721.sol\":8240:8242  to */\n      dup5\n        /* \"contracts/token/ERC721/ERC721.sol\":8244:8251  tokenId */\n      dup5\n        /* \"contracts/token/ERC721/ERC721.sol\":8253:8257  data */\n      dup5\n        /* \"contracts/token/ERC721/ERC721.sol\":8211:8233  _checkOnERC721Received */\n      tag_253\n        /* \"contracts/token/ERC721/ERC721.sol\":8211:8258  _checkOnERC721Received(from, to, tokenId, data) */\n      jump\t// in\n    tag_252:\n        /* \"contracts/token/ERC721/ERC721.sol\":8203:8313  require(_checkOnERC721Received(from, to, tokenId, data), \"ERC721: transfer to non ERC721Receiver implementer\") */\n      tag_254\n      jumpi\n      mload(0x40)\n      0x08c379a000000000000000000000000000000000000000000000000000000000\n      dup2\n      mstore\n      0x04\n      add\n      tag_255\n      swap1\n      tag_256\n      jump\t// in\n    tag_255:\n      mload(0x40)\n      dup1\n      swap2\n      sub\n      swap1\n      revert\n    tag_254:\n        /* \"contracts/token/ERC721/ERC721.sol\":8051:8321  function _safeTransfer(address from, address to, uint256 tokenId, bytes memory data) internal virtual {... */\n      pop\n      pop\n      pop\n      pop\n      jump\t// out\n        /* \"contracts/token/ERC721/ERC721.sol\":3738:3832  function _baseURI() internal view virtual returns (string memory) {... */\n    tag_191:\n        /* \"contracts/token/ERC721/ERC721.sol\":3789:3802  string memory */\n      0x60\n        /* \"contracts/token/ERC721/ERC721.sol\":3815:3824  return \"\" */\n      mload(0x40)\n      dup1\n      0x20\n      add\n      0x40\n      mstore\n      dup1\n      0x00\n      dup2\n      mstore\n      pop\n      swap1\n      pop\n        /* \"contracts/token/ERC721/ERC721.sol\":3738:3832  function _baseURI() internal view virtual returns (string memory) {... */\n      swap1\n      jump\t// out\n        /* \"contracts/utils/Strings.sol\":465:1181  function toString(uint256 value) internal pure returns (string memory) {... */\n    tag_195:\n        /* \"contracts/utils/Strings.sol\":521:534  string memory */\n      0x60\n        /* \"contracts/utils/Strings.sol\":572:586  uint256 length */\n      0x00\n        /* \"contracts/utils/Strings.sol\":609:610  1 */\n      0x01\n        /* \"contracts/utils/Strings.sol\":589:606  Math.log10(value) */\n      tag_259\n        /* \"contracts/utils/Strings.sol\":600:605  value */\n      dup5\n        /* \"contracts/utils/Strings.sol\":589:599  Math.log10 */\n      tag_260\n        /* \"contracts/utils/Strings.sol\":589:606  Math.log10(value) */\n      jump\t// in\n    tag_259:\n        /* \"contracts/utils/Strings.sol\":589:610  Math.log10(value) + 1 */\n      add\n        /* \"contracts/utils/Strings.sol\":572:610  uint256 length = Math.log10(value) + 1 */\n      swap1\n      pop\n        /* \"contracts/utils/Strings.sol\":625:645  string memory buffer */\n      0x00\n        /* \"contracts/utils/Strings.sol\":659:665  length */\n      dup2\n        /* \"contracts/utils/Strings.sol\":648:666  new string(length) */\n      0xffffffffffffffff\n      dup2\n      gt\n      iszero\n      tag_261\n      jumpi\n      tag_262\n      tag_263\n      jump\t// in\n    tag_262:\n    tag_261:\n      mload(0x40)\n      swap1\n      dup1\n      dup3\n      mstore\n      dup1\n      0x1f\n      add\n      not(0x1f)\n      and\n      0x20\n      add\n      dup3\n      add\n      0x40\n      mstore\n      dup1\n      iszero\n      tag_264\n      jumpi\n      dup2\n      0x20\n      add\n      0x01\n      dup3\n      mul\n      dup1\n      calldatasize\n      dup4\n      calldatacopy\n      dup1\n      dup3\n      add\n      swap2\n      pop\n      pop\n      swap1\n      pop\n    tag_264:\n      pop\n        /* \"contracts/utils/Strings.sol\":625:666  string memory buffer = new string(length) */\n      swap1\n      pop\n        /* \"contracts/utils/Strings.sol\":681:692  uint256 ptr */\n      0x00\n        /* \"contracts/utils/Strings.sol\":810:816  length */\n      dup3\n        /* \"contracts/utils/Strings.sol\":806:808  32 */\n      0x20\n        /* \"contracts/utils/Strings.sol\":802:817  add(32, length) */\n      add\n        /* \"contracts/utils/Strings.sol\":794:800  buffer */\n      dup3\n        /* \"contracts/utils/Strings.sol\":790:818  add(buffer, add(32, length)) */\n      add\n        /* \"contracts/utils/Strings.sol\":783:818  ptr := add(buffer, add(32, length)) */\n      swap1\n      pop\n        /* \"contracts/utils/Strings.sol\":847:1135  while (true) {... */\n    tag_265:\n        /* \"contracts/utils/Strings.sol\":854:858  true */\n      0x01\n        /* \"contracts/utils/Strings.sol\":847:1135  while (true) {... */\n      iszero\n      tag_266\n      jumpi\n        /* \"contracts/utils/Strings.sol\":879:884  ptr-- */\n      dup1\n      dup1\n      0x01\n      swap1\n      sub\n      swap2\n      pop\n      pop\n        /* \"contracts/utils/Strings.sol\":1021:1029  _SYMBOLS */\n      0x3031323334353637383961626364656600000000000000000000000000000000\n        /* \"contracts/utils/Strings.sol\":1016:1018  10 */\n      0x0a\n        /* \"contracts/utils/Strings.sol\":1009:1014  value */\n      dup7\n        /* \"contracts/utils/Strings.sol\":1005:1019  mod(value, 10) */\n      mod\n        /* \"contracts/utils/Strings.sol\":1000:1030  byte(mod(value, 10), _SYMBOLS) */\n      byte\n        /* \"contracts/utils/Strings.sol\":995:998  ptr */\n      dup2\n        /* \"contracts/utils/Strings.sol\":987:1031  mstore8(ptr, byte(mod(value, 10), _SYMBOLS)) */\n      mstore8\n        /* \"contracts/utils/Strings.sol\":1077:1079  10 */\n      0x0a\n        /* \"contracts/utils/Strings.sol\":1068:1079  value /= 10 */\n      dup6\n      dup2\n      tag_267\n      jumpi\n      tag_268\n      tag_269\n      jump\t// in\n    tag_268:\n    tag_267:\n      div\n      swap5\n      pop\n        /* \"contracts/utils/Strings.sol\":1111:1112  0 */\n      0x00\n        /* \"contracts/utils/Strings.sol\":1102:1107  value */\n      dup6\n        /* \"contracts/utils/Strings.sol\":1102:1112  value == 0 */\n      sub\n        /* \"contracts/utils/Strings.sol\":847:1135  while (true) {... */\n      tag_265\n        /* \"contracts/utils/Strings.sol\":1098:1119  if (value == 0) break */\n      jumpi\n        /* \"contracts/utils/Strings.sol\":847:1135  while (true) {... */\n    tag_266:\n        /* \"contracts/utils/Strings.sol\":1156:1162  buffer */\n      dup2\n        /* \"contracts/utils/Strings.sol\":1149:1162  return buffer */\n      swap4\n      pop\n      pop\n      pop\n      pop\n        /* \"contracts/utils/Strings.sol\":465:1181  function toString(uint256 value) internal pure returns (string memory) {... */\n      swap2\n      swap1\n      pop\n      jump\t// out\n        /* \"contracts/token/ERC721/ERC721.sol\":8865:8993  function _exists(uint256 tokenId) internal view virtual returns (bool) {... */\n    tag_202:\n        /* \"contracts/token/ERC721/ERC721.sol\":8930:8934  bool */\n      0x00\n        /* \"contracts/token/ERC721/ERC721.sol\":8983:8984  0 */\n      dup1\n        /* \"contracts/token/ERC721/ERC721.sol\":8954:8985  _ownerOf(tokenId) != address(0) */\n      0xffffffffffffffffffffffffffffffffffffffff\n      and\n        /* \"contracts/token/ERC721/ERC721.sol\":8954:8971  _ownerOf(tokenId) */\n      tag_272\n        /* \"contracts/token/ERC721/ERC721.sol\":8963:8970  tokenId */\n      dup4\n        /* \"contracts/token/ERC721/ERC721.sol\":8954:8962  _ownerOf */\n      tag_158\n        /* \"contracts/token/ERC721/ERC721.sol\":8954:8971  _ownerOf(tokenId) */\n      jump\t// in\n    tag_272:\n        /* \"contracts/token/ERC721/ERC721.sol\":8954:8985  _ownerOf(tokenId) != address(0) */\n      0xffffffffffffffffffffffffffffffffffffffff\n      and\n      eq\n      iszero\n        /* \"contracts/token/ERC721/ERC721.sol\":8947:8985  return _ownerOf(tokenId) != address(0) */\n      swap1\n      pop\n        /* \"contracts/token/ERC721/ERC721.sol\":8865:8993  function _exists(uint256 tokenId) internal view virtual returns (bool) {... */\n      swap2\n      swap1\n      pop\n      jump\t// out\n        /* \"contracts/token/ERC721/ERC721.sol\":17632:17748  function _beforeTokenTransfer(address from, address to, uint256 firstTokenId, uint256 batchSize) internal virtual {} */\n    tag_223:\n      pop\n      pop\n      pop\n      pop\n      jump\t// out\n        /* \"contracts/token/ERC721/ERC721.sol\":18470:18585  function _afterTokenTransfer(address from, address to, uint256 firstTokenId, uint256 batchSize) internal virtual {} */\n    tag_228:\n      pop\n      pop\n      pop\n      pop\n      jump\t// out\n        /* \"contracts/token/ERC721/ERC721.sol\":10103:10388  function _safeMint(address to, uint256 tokenId, bytes memory data) internal virtual {... */\n    tag_242:\n        /* \"contracts/token/ERC721/ERC721.sol\":10198:10216  _mint(to, tokenId) */\n      tag_276\n        /* \"contracts/token/ERC721/ERC721.sol\":10204:10206  to */\n      dup4\n        /* \"contracts/token/ERC721/ERC721.sol\":10208:10215  tokenId */\n      dup4\n        /* \"contracts/token/ERC721/ERC721.sol\":10198:10203  _mint */\n      tag_277\n        /* \"contracts/token/ERC721/ERC721.sol\":10198:10216  _mint(to, tokenId) */\n      jump\t// in\n    tag_276:\n        /* \"contracts/token/ERC721/ERC721.sol\":10249:10302  _checkOnERC721Received(address(0), to, tokenId, data) */\n      tag_278\n        /* \"contracts/token/ERC721/ERC721.sol\":10280:10281  0 */\n      0x00\n        /* \"contracts/token/ERC721/ERC721.sol\":10284:10286  to */\n      dup5\n        /* \"contracts/token/ERC721/ERC721.sol\":10288:10295  tokenId */\n      dup5\n        /* \"contracts/token/ERC721/ERC721.sol\":10297:10301  data */\n      dup5\n        /* \"contracts/token/ERC721/ERC721.sol\":10249:10271  _checkOnERC721Received */\n      tag_253\n        /* \"contracts/token/ERC721/ERC721.sol\":10249:10302  _checkOnERC721Received(address(0), to, tokenId, data) */\n      jump\t// in\n    tag_278:\n        /* \"contracts/token/ERC721/ERC721.sol\":10227:10380  require(... */\n      tag_279\n      jumpi\n      mload(0x40)\n      0x08c379a000000000000000000000000000000000000000000000000000000000\n      dup2\n      mstore\n      0x04\n      add\n      tag_280\n      swap1\n      tag_256\n      jump\t// in\n    tag_280:\n      mload(0x40)\n      dup1\n      swap2\n      sub\n      swap1\n      revert\n    tag_279:\n        /* \"contracts/token/ERC721/ERC721.sol\":10103:10388  function _safeMint(address to, uint256 tokenId, bytes memory data) internal virtual {... */\n      pop\n      pop\n      pop\n      jump\t// out\n        /* \"contracts/token/ERC721/ERC721.sol\":16047:16900  function _checkOnERC721Received(... */\n    tag_253:\n        /* \"contracts/token/ERC721/ERC721.sol\":16201:16205  bool */\n      0x00\n        /* \"contracts/token/ERC721/ERC721.sol\":16222:16237  to.isContract() */\n      tag_282\n        /* \"contracts/token/ERC721/ERC721.sol\":16222:16224  to */\n      dup5\n        /* \"contracts/token/ERC721/ERC721.sol\":16222:16235  to.isContract */\n      0xffffffffffffffffffffffffffffffffffffffff\n      and\n      tag_283\n        /* \"contracts/token/ERC721/ERC721.sol\":16222:16237  to.isContract() */\n      jump\t// in\n    tag_282:\n        /* \"contracts/token/ERC721/ERC721.sol\":16218:16893  if (to.isContract()) {... */\n      iszero\n      tag_284\n      jumpi\n        /* \"contracts/token/ERC721/ERC721.sol\":16274:16276  to */\n      dup4\n        /* \"contracts/token/ERC721/ERC721.sol\":16258:16294  IERC721Receiver(to).onERC721Received */\n      0xffffffffffffffffffffffffffffffffffffffff\n      and\n      0x150b7a02\n        /* \"contracts/token/ERC721/ERC721.sol\":16295:16307  _msgSender() */\n      tag_285\n        /* \"contracts/token/ERC721/ERC721.sol\":16295:16305  _msgSender */\n      tag_117\n        /* \"contracts/token/ERC721/ERC721.sol\":16295:16307  _msgSender() */\n      jump\t// in\n    tag_285:\n        /* \"contracts/token/ERC721/ERC721.sol\":16309:16313  from */\n      dup8\n        /* \"contracts/token/ERC721/ERC721.sol\":16315:16322  tokenId */\n      dup7\n        /* \"contracts/token/ERC721/ERC721.sol\":16324:16328  data */\n      dup7\n        /* \"contracts/token/ERC721/ERC721.sol\":16258:16329  IERC721Receiver(to).onERC721Received(_msgSender(), from, tokenId, data) */\n      mload(0x40)\n      dup6\n      0xffffffff\n      and\n      0xe0\n      shl\n      dup2\n      mstore\n      0x04\n      add\n      tag_286\n      swap5\n      swap4\n      swap3\n      swap2\n      swap1\n      tag_287\n      jump\t// in\n    tag_286:\n      0x20\n      mload(0x40)\n      dup1\n      dup4\n      sub\n      dup2\n      0x00\n      dup8\n      gas\n      call\n      swap3\n      pop\n      pop\n      pop\n      dup1\n      iszero\n      tag_288\n      jumpi\n      pop\n      mload(0x40)\n      returndatasize\n      not(0x1f)\n      0x1f\n      dup3\n      add\n      and\n      dup3\n      add\n      dup1\n      0x40\n      mstore\n      pop\n      dup2\n      add\n      swap1\n      tag_289\n      swap2\n      swap1\n      tag_290\n      jump\t// in\n    tag_289:\n      0x01\n    tag_288:\n        /* \"contracts/token/ERC721/ERC721.sol\":16254:16838  try IERC721Receiver(to).onERC721Received(_msgSender(), from, tokenId, data) returns (bytes4 retval) {... */\n      tag_291\n      jumpi\n      returndatasize\n      dup1\n      0x00\n      dup2\n      eq\n      tag_296\n      jumpi\n      mload(0x40)\n      swap2\n      pop\n      and(add(returndatasize, 0x3f), not(0x1f))\n      dup3\n      add\n      0x40\n      mstore\n      returndatasize\n      dup3\n      mstore\n      returndatasize\n      0x00\n      0x20\n      dup5\n      add\n      returndatacopy\n      jump(tag_295)\n    tag_296:\n      0x60\n      swap2\n      pop\n    tag_295:\n      pop\n        /* \"contracts/token/ERC721/ERC721.sol\":16516:16517  0 */\n      0x00\n        /* \"contracts/token/ERC721/ERC721.sol\":16499:16505  reason */\n      dup2\n        /* \"contracts/token/ERC721/ERC721.sol\":16499:16512  reason.length */\n      mload\n        /* \"contracts/token/ERC721/ERC721.sol\":16499:16517  reason.length == 0 */\n      sub\n        /* \"contracts/token/ERC721/ERC721.sol\":16495:16823  if (reason.length == 0) {... */\n      tag_297\n      jumpi\n        /* \"contracts/token/ERC721/ERC721.sol\":16542:16602  revert(\"ERC721: transfer to non ERC721Receiver implementer\") */\n      mload(0x40)\n      0x08c379a000000000000000000000000000000000000000000000000000000000\n      dup2\n      mstore\n      0x04\n      add\n      tag_298\n      swap1\n      tag_256\n      jump\t// in\n    tag_298:\n      mload(0x40)\n      dup1\n      swap2\n      sub\n      swap1\n      revert\n        /* \"contracts/token/ERC721/ERC721.sol\":16495:16823  if (reason.length == 0) {... */\n    tag_297:\n        /* \"contracts/token/ERC721/ERC721.sol\":16773:16779  reason */\n      dup1\n        /* \"contracts/token/ERC721/ERC721.sol\":16767:16780  mload(reason) */\n      mload\n        /* \"contracts/token/ERC721/ERC721.sol\":16758:16764  reason */\n      dup2\n        /* \"contracts/token/ERC721/ERC721.sol\":16754:16756  32 */\n      0x20\n        /* \"contracts/token/ERC721/ERC721.sol\":16750:16765  add(32, reason) */\n      add\n        /* \"contracts/token/ERC721/ERC721.sol\":16743:16781  revert(add(32, reason), mload(reason)) */\n      revert\n        /* \"contracts/token/ERC721/ERC721.sol\":16254:16838  try IERC721Receiver(to).onERC721Received(_msgSender(), from, tokenId, data) returns (bytes4 retval) {... */\n    tag_291:\n        /* \"contracts/token/ERC721/ERC721.sol\":16390:16431  IERC721Receiver.onERC721Received.selector */\n      shl(0xe0, 0x150b7a02)\n        /* \"contracts/token/ERC721/ERC721.sol\":16380:16431  retval == IERC721Receiver.onERC721Received.selector */\n      not(0xffffffffffffffffffffffffffffffffffffffffffffffffffffffff)\n      and\n        /* \"contracts/token/ERC721/ERC721.sol\":16380:16386  retval */\n      dup2\n        /* \"contracts/token/ERC721/ERC721.sol\":16380:16431  retval == IERC721Receiver.onERC721Received.selector */\n      not(0xffffffffffffffffffffffffffffffffffffffffffffffffffffffff)\n      and\n      eq\n        /* \"contracts/token/ERC721/ERC721.sol\":16373:16431  return retval == IERC721Receiver.onERC721Received.selector */\n      swap2\n      pop\n      pop\n      jump(tag_281)\n        /* \"contracts/token/ERC721/ERC721.sol\":16218:16893  if (to.isContract()) {... */\n    tag_284:\n        /* \"contracts/token/ERC721/ERC721.sol\":16877:16881  true */\n      0x01\n        /* \"contracts/token/ERC721/ERC721.sol\":16870:16881  return true */\n      swap1\n      pop\n        /* \"contracts/token/ERC721/ERC721.sol\":16047:16900  function _checkOnERC721Received(... */\n    tag_281:\n      swap5\n      swap4\n      pop\n      pop\n      pop\n      pop\n      jump\t// out\n        /* \"contracts/utils/math/Math.sol\":10390:11338  function log10(uint256 value) internal pure returns (uint256) {... */\n    tag_260:\n        /* \"contracts/utils/math/Math.sol\":10443:10450  uint256 */\n      0x00\n        /* \"contracts/utils/math/Math.sol\":10463:10477  uint256 result */\n      dup1\n        /* \"contracts/utils/math/Math.sol\":10480:10481  0 */\n      0x00\n        /* \"contracts/utils/math/Math.sol\":10463:10481  uint256 result = 0 */\n      swap1\n      pop\n        /* \"contracts/utils/math/Math.sol\":10530:10538  10 ** 64 */\n      0x184f03e93ff9f4daa797ed6e38ed64bf6a1f010000000000000000\n        /* \"contracts/utils/math/Math.sol\":10521:10526  value */\n      dup4\n        /* \"contracts/utils/math/Math.sol\":10521:10538  value >= 10 ** 64 */\n      lt\n        /* \"contracts/utils/math/Math.sol\":10517:10623  if (value >= 10 ** 64) {... */\n      tag_303\n      jumpi\n        /* \"contracts/utils/math/Math.sol\":10568:10576  10 ** 64 */\n      0x184f03e93ff9f4daa797ed6e38ed64bf6a1f010000000000000000\n        /* \"contracts/utils/math/Math.sol\":10559:10576  value /= 10 ** 64 */\n      dup4\n      dup2\n      tag_304\n      jumpi\n      tag_305\n      tag_269\n      jump\t// in\n    tag_305:\n    tag_304:\n      div\n      swap3\n      pop\n        /* \"contracts/utils/math/Math.sol\":10605:10607  64 */\n      0x40\n        /* \"contracts/utils/math/Math.sol\":10595:10607  result += 64 */\n      dup2\n      add\n      swap1\n      pop\n        /* \"contracts/utils/math/Math.sol\":10517:10623  if (value >= 10 ** 64) {... */\n    tag_303:\n        /* \"contracts/utils/math/Math.sol\":10650:10658  10 ** 32 */\n      0x04ee2d6d415b85acef8100000000\n        /* \"contracts/utils/math/Math.sol\":10641:10646  value */\n      dup4\n        /* \"contracts/utils/math/Math.sol\":10641:10658  value >= 10 ** 32 */\n      lt\n        /* \"contracts/utils/math/Math.sol\":10637:10743  if (value >= 10 ** 32) {... */\n      tag_306\n      jumpi\n        /* \"contracts/utils/math/Math.sol\":10688:10696  10 ** 32 */\n      0x04ee2d6d415b85acef8100000000\n        /* \"contracts/utils/math/Math.sol\":10679:10696  value /= 10 ** 32 */\n      dup4\n      dup2\n      tag_307\n      jumpi\n      tag_308\n      tag_269\n      jump\t// in\n    tag_308:\n    tag_307:\n      div\n      swap3\n      pop\n        /* \"contracts/utils/math/Math.sol\":10725:10727  32 */\n      0x20\n        /* \"contracts/utils/math/Math.sol\":10715:10727  result += 32 */\n      dup2\n      add\n      swap1\n      pop\n        /* \"contracts/utils/math/Math.sol\":10637:10743  if (value >= 10 ** 32) {... */\n    tag_306:\n        /* \"contracts/utils/math/Math.sol\":10770:10778  10 ** 16 */\n      0x2386f26fc10000\n        /* \"contracts/utils/math/Math.sol\":10761:10766  value */\n      dup4\n        /* \"contracts/utils/math/Math.sol\":10761:10778  value >= 10 ** 16 */\n      lt\n        /* \"contracts/utils/math/Math.sol\":10757:10863  if (value >= 10 ** 16) {... */\n      tag_309\n      jumpi\n        /* \"contracts/utils/math/Math.sol\":10808:10816  10 ** 16 */\n      0x2386f26fc10000\n        /* \"contracts/utils/math/Math.sol\":10799:10816  value /= 10 ** 16 */\n      dup4\n      dup2\n      tag_310\n      jumpi\n      tag_311\n      tag_269\n      jump\t// in\n    tag_311:\n    tag_310:\n      div\n      swap3\n      pop\n        /* \"contracts/utils/math/Math.sol\":10845:10847  16 */\n      0x10\n        /* \"contracts/utils/math/Math.sol\":10835:10847  result += 16 */\n      dup2\n      add\n      swap1\n      pop\n        /* \"contracts/utils/math/Math.sol\":10757:10863  if (value >= 10 ** 16) {... */\n    tag_309:\n        /* \"contracts/utils/math/Math.sol\":10890:10897  10 ** 8 */\n      0x05f5e100\n        /* \"contracts/utils/math/Math.sol\":10881:10886  value */\n      dup4\n        /* \"contracts/utils/math/Math.sol\":10881:10897  value >= 10 ** 8 */\n      lt\n        /* \"contracts/utils/math/Math.sol\":10877:10980  if (value >= 10 ** 8) {... */\n      tag_312\n      jumpi\n        /* \"contracts/utils/math/Math.sol\":10927:10934  10 ** 8 */\n      0x05f5e100\n        /* \"contracts/utils/math/Math.sol\":10918:10934  value /= 10 ** 8 */\n      dup4\n      dup2\n      tag_313\n      jumpi\n      tag_314\n      tag_269\n      jump\t// in\n    tag_314:\n    tag_313:\n      div\n      swap3\n      pop\n        /* \"contracts/utils/math/Math.sol\":10963:10964  8 */\n      0x08\n        /* \"contracts/utils/math/Math.sol\":10953:10964  result += 8 */\n      dup2\n      add\n      swap1\n      pop\n        /* \"contracts/utils/math/Math.sol\":10877:10980  if (value >= 10 ** 8) {... */\n    tag_312:\n        /* \"contracts/utils/math/Math.sol\":11007:11014  10 ** 4 */\n      0x2710\n        /* \"contracts/utils/math/Math.sol\":10998:11003  value */\n      dup4\n        /* \"contracts/utils/math/Math.sol\":10998:11014  value >= 10 ** 4 */\n      lt\n        /* \"contracts/utils/math/Math.sol\":10994:11097  if (value >= 10 ** 4) {... */\n      tag_315\n      jumpi\n        /* \"contracts/utils/math/Math.sol\":11044:11051  10 ** 4 */\n      0x2710\n        /* \"contracts/utils/math/Math.sol\":11035:11051  value /= 10 ** 4 */\n      dup4\n      dup2\n      tag_316\n      jumpi\n      tag_317\n      tag_269\n      jump\t// in\n    tag_317:\n    tag_316:\n      div\n      swap3\n      pop\n        /* \"contracts/utils/math/Math.sol\":11080:11081  4 */\n      0x04\n        /* \"contracts/utils/math/Math.sol\":11070:11081  result += 4 */\n      dup2\n      add\n      swap1\n      pop\n        /* \"contracts/utils/math/Math.sol\":10994:11097  if (value >= 10 ** 4) {... */\n    tag_315:\n        /* \"contracts/utils/math/Math.sol\":11124:11131  10 ** 2 */\n      0x64\n        /* \"contracts/utils/math/Math.sol\":11115:11120  value */\n      dup4\n        /* \"contracts/utils/math/Math.sol\":11115:11131  value >= 10 ** 2 */\n      lt\n        /* \"contracts/utils/math/Math.sol\":11111:11214  if (value >= 10 ** 2) {... */\n      tag_318\n      jumpi\n        /* \"contracts/utils/math/Math.sol\":11161:11168  10 ** 2 */\n      0x64\n        /* \"contracts/utils/math/Math.sol\":11152:11168  value /= 10 ** 2 */\n      dup4\n      dup2\n      tag_319\n      jumpi\n      tag_320\n      tag_269\n      jump\t// in\n    tag_320:\n    tag_319:\n      div\n      swap3\n      pop\n        /* \"contracts/utils/math/Math.sol\":11197:11198  2 */\n      0x02\n        /* \"contracts/utils/math/Math.sol\":11187:11198  result += 2 */\n      dup2\n      add\n      swap1\n      pop\n        /* \"contracts/utils/math/Math.sol\":11111:11214  if (value >= 10 ** 2) {... */\n    tag_318:\n        /* \"contracts/utils/math/Math.sol\":11241:11248  10 ** 1 */\n      0x0a\n        /* \"contracts/utils/math/Math.sol\":11232:11237  value */\n      dup4\n        /* \"contracts/utils/math/Math.sol\":11232:11248  value >= 10 ** 1 */\n      lt\n        /* \"contracts/utils/math/Math.sol\":11228:11296  if (value >= 10 ** 1) {... */\n      tag_321\n      jumpi\n        /* \"contracts/utils/math/Math.sol\":11279:11280  1 */\n      0x01\n        /* \"contracts/utils/math/Math.sol\":11269:11280  result += 1 */\n      dup2\n      add\n      swap1\n      pop\n        /* \"contracts/utils/math/Math.sol\":11228:11296  if (value >= 10 ** 1) {... */\n    tag_321:\n        /* \"contracts/utils/math/Math.sol\":11324:11330  result */\n      dup1\n        /* \"contracts/utils/math/Math.sol\":11317:11330  return result */\n      swap2\n      pop\n      pop\n        /* \"contracts/utils/math/Math.sol\":10390:11338  function log10(uint256 value) internal pure returns (uint256) {... */\n      swap2\n      swap1\n      pop\n      jump\t// out\n        /* \"contracts/token/ERC721/ERC721.sol\":10724:11666  function _mint(address to, uint256 tokenId) internal virtual {... */\n    tag_277:\n        /* \"contracts/token/ERC721/ERC721.sol\":10818:10819  0 */\n      0x00\n        /* \"contracts/token/ERC721/ERC721.sol\":10804:10820  to != address(0) */\n      0xffffffffffffffffffffffffffffffffffffffff\n      and\n        /* \"contracts/token/ERC721/ERC721.sol\":10804:10806  to */\n      dup3\n        /* \"contracts/token/ERC721/ERC721.sol\":10804:10820  to != address(0) */\n      0xffffffffffffffffffffffffffffffffffffffff\n      and\n      sub\n        /* \"contracts/token/ERC721/ERC721.sol\":10796:10857  require(to != address(0), \"ERC721: mint to the zero address\") */\n      tag_323\n      jumpi\n      mload(0x40)\n      0x08c379a000000000000000000000000000000000000000000000000000000000\n      dup2\n      mstore\n      0x04\n      add\n      tag_324\n      swap1\n      tag_325\n      jump\t// in\n    tag_324:\n      mload(0x40)\n      dup1\n      swap2\n      sub\n      swap1\n      revert\n    tag_323:\n        /* \"contracts/token/ERC721/ERC721.sol\":10877:10893  _exists(tokenId) */\n      tag_326\n        /* \"contracts/token/ERC721/ERC721.sol\":10885:10892  tokenId */\n      dup2\n        /* \"contracts/token/ERC721/ERC721.sol\":10877:10884  _exists */\n      tag_202\n        /* \"contracts/token/ERC721/ERC721.sol\":10877:10893  _exists(tokenId) */\n      jump\t// in\n    tag_326:\n        /* \"contracts/token/ERC721/ERC721.sol\":10876:10893  !_exists(tokenId) */\n      iszero\n        /* \"contracts/token/ERC721/ERC721.sol\":10868:10926  require(!_exists(tokenId), \"ERC721: token already minted\") */\n      tag_327\n      jumpi\n      mload(0x40)\n      0x08c379a000000000000000000000000000000000000000000000000000000000\n      dup2\n      mstore\n      0x04\n      add\n      tag_328\n      swap1\n      tag_329\n      jump\t// in\n    tag_328:\n      mload(0x40)\n      dup1\n      swap2\n      sub\n      swap1\n      revert\n    tag_327:\n        /* \"contracts/token/ERC721/ERC721.sol\":10939:10987  _beforeTokenTransfer(address(0), to, tokenId, 1) */\n      tag_330\n        /* \"contracts/token/ERC721/ERC721.sol\":10968:10969  0 */\n      0x00\n        /* \"contracts/token/ERC721/ERC721.sol\":10972:10974  to */\n      dup4\n        /* \"contracts/token/ERC721/ERC721.sol\":10976:10983  tokenId */\n      dup4\n        /* \"contracts/token/ERC721/ERC721.sol\":10985:10986  1 */\n      0x01\n        /* \"contracts/token/ERC721/ERC721.sol\":10939:10959  _beforeTokenTransfer */\n      tag_223\n        /* \"contracts/token/ERC721/ERC721.sol\":10939:10987  _beforeTokenTransfer(address(0), to, tokenId, 1) */\n      jump\t// in\n    tag_330:\n        /* \"contracts/token/ERC721/ERC721.sol\":11086:11102  _exists(tokenId) */\n      tag_331\n        /* \"contracts/token/ERC721/ERC721.sol\":11094:11101  tokenId */\n      dup2\n        /* \"contracts/token/ERC721/ERC721.sol\":11086:11093  _exists */\n      tag_202\n        /* \"contracts/token/ERC721/ERC721.sol\":11086:11102  _exists(tokenId) */\n      jump\t// in\n    tag_331:\n        /* \"contracts/token/ERC721/ERC721.sol\":11085:11102  !_exists(tokenId) */\n      iszero\n        /* \"contracts/token/ERC721/ERC721.sol\":11077:11135  require(!_exists(tokenId), \"ERC721: token already minted\") */\n      tag_332\n      jumpi\n      mload(0x40)\n      0x08c379a000000000000000000000000000000000000000000000000000000000\n      dup2\n      mstore\n      0x04\n      add\n      tag_333\n      swap1\n      tag_329\n      jump\t// in\n    tag_333:\n      mload(0x40)\n      dup1\n      swap2\n      sub\n      swap1\n      revert\n    tag_332:\n        /* \"contracts/token/ERC721/ERC721.sol\":11501:11502  1 */\n      0x01\n        /* \"contracts/token/ERC721/ERC721.sol\":11484:11493  _balances */\n      0x03\n        /* \"contracts/token/ERC721/ERC721.sol\":11484:11497  _balances[to] */\n      0x00\n        /* \"contracts/token/ERC721/ERC721.sol\":11494:11496  to */\n      dup5\n        /* \"contracts/token/ERC721/ERC721.sol\":11484:11497  _balances[to] */\n      0xffffffffffffffffffffffffffffffffffffffff\n      and\n      0xffffffffffffffffffffffffffffffffffffffff\n      and\n      dup2\n      mstore\n      0x20\n      add\n      swap1\n      dup2\n      mstore\n      0x20\n      add\n      0x00\n      keccak256\n      0x00\n        /* \"contracts/token/ERC721/ERC721.sol\":11484:11502  _balances[to] += 1 */\n      dup3\n      dup3\n      sload\n      add\n      swap3\n      pop\n      pop\n      dup2\n      swap1\n      sstore\n      pop\n        /* \"contracts/token/ERC721/ERC721.sol\":11545:11547  to */\n      dup2\n        /* \"contracts/token/ERC721/ERC721.sol\":11526:11533  _owners */\n      0x02\n        /* \"contracts/token/ERC721/ERC721.sol\":11526:11542  _owners[tokenId] */\n      0x00\n        /* \"contracts/token/ERC721/ERC721.sol\":11534:11541  tokenId */\n      dup4\n        /* \"contracts/token/ERC721/ERC721.sol\":11526:11542  _owners[tokenId] */\n      dup2\n      mstore\n      0x20\n      add\n      swap1\n      dup2\n      mstore\n      0x20\n      add\n      0x00\n      keccak256\n      0x00\n        /* \"contracts/token/ERC721/ERC721.sol\":11526:11547  _owners[tokenId] = to */\n      0x0100\n      exp\n      dup2\n      sload\n      dup2\n      0xffffffffffffffffffffffffffffffffffffffff\n      mul\n      not\n      and\n      swap1\n      dup4\n      0xffffffffffffffffffffffffffffffffffffffff\n      and\n      mul\n      or\n      swap1\n      sstore\n      pop\n        /* \"contracts/token/ERC721/ERC721.sol\":11590:11597  tokenId */\n      dup1\n        /* \"contracts/token/ERC721/ERC721.sol\":11586:11588  to */\n      dup3\n        /* \"contracts/token/ERC721/ERC721.sol\":11565:11598  Transfer(address(0), to, tokenId) */\n      0xffffffffffffffffffffffffffffffffffffffff\n      and\n        /* \"contracts/token/ERC721/ERC721.sol\":11582:11583  0 */\n      0x00\n        /* \"contracts/token/ERC721/ERC721.sol\":11565:11598  Transfer(address(0), to, tokenId) */\n      0xffffffffffffffffffffffffffffffffffffffff\n      and\n      0xddf252ad1be2c89b69c2b068fc378daa952ba7f163c4a11628f55a4df523b3ef\n      mload(0x40)\n      mload(0x40)\n      dup1\n      swap2\n      sub\n      swap1\n      log4\n        /* \"contracts/token/ERC721/ERC721.sol\":11611:11658  _afterTokenTransfer(address(0), to, tokenId, 1) */\n      tag_334\n        /* \"contracts/token/ERC721/ERC721.sol\":11639:11640  0 */\n      0x00\n        /* \"contracts/token/ERC721/ERC721.sol\":11643:11645  to */\n      dup4\n        /* \"contracts/token/ERC721/ERC721.sol\":11647:11654  tokenId */\n      dup4\n        /* \"contracts/token/ERC721/ERC721.sol\":11656:11657  1 */\n      0x01\n        /* \"contracts/token/ERC721/ERC721.sol\":11611:11630  _afterTokenTransfer */\n      tag_228\n        /* \"contracts/token/ERC721/ERC721.sol\":11611:11658  _afterTokenTransfer(address(0), to, tokenId, 1) */\n      jump\t// in\n    tag_334:\n        /* \"contracts/token/ERC721/ERC721.sol\":10724:11666  function _mint(address to, uint256 tokenId) internal virtual {... */\n      pop\n      pop\n      jump\t// out\n        /* \"contracts/utils/Address.sol\":1451:1777  function isContract(address account) internal view returns (bool) {... */\n    tag_283:\n        /* \"contracts/utils/Address.sol\":1511:1515  bool */\n      0x00\n        /* \"contracts/utils/Address.sol\":1768:1769  0 */\n      dup1\n        /* \"contracts/utils/Address.sol\":1746:1753  account */\n      dup3\n        /* \"contracts/utils/Address.sol\":1746:1765  account.code.length */\n      0xffffffffffffffffffffffffffffffffffffffff\n      and\n      extcodesize\n        /* \"contracts/utils/Address.sol\":1746:1769  account.code.length > 0 */\n      gt\n        /* \"contracts/utils/Address.sol\":1739:1769  return account.code.length > 0 */\n      swap1\n      pop\n        /* \"contracts/utils/Address.sol\":1451:1777  function isContract(address account) internal view returns (bool) {... */\n      swap2\n      swap1\n      pop\n      jump\t// out\n        /* \"#utility.yul\":7:82   */\n    tag_336:\n        /* \"#utility.yul\":40:46   */\n      0x00\n        /* \"#utility.yul\":73:75   */\n      0x40\n        /* \"#utility.yul\":67:76   */\n      mload\n        /* \"#utility.yul\":57:76   */\n      swap1\n      pop\n        /* \"#utility.yul\":7:82   */\n      swap1\n      jump\t// out\n        /* \"#utility.yul\":88:205   */\n    tag_337:\n        /* \"#utility.yul\":197:198   */\n      0x00\n        /* \"#utility.yul\":194:195   */\n      dup1\n        /* \"#utility.yul\":187:199   */\n      revert\n        /* \"#utility.yul\":211:328   */\n    tag_338:\n        /* \"#utility.yul\":320:321   */\n      0x00\n        /* \"#utility.yul\":317:318   */\n      dup1\n        /* \"#utility.yul\":310:322   */\n      revert\n        /* \"#utility.yul\":334:483   */\n    tag_339:\n        /* \"#utility.yul\":370:377   */\n      0x00\n        /* \"#utility.yul\":410:476   */\n      0xffffffff00000000000000000000000000000000000000000000000000000000\n        /* \"#utility.yul\":403:408   */\n      dup3\n        /* \"#utility.yul\":399:477   */\n      and\n        /* \"#utility.yul\":388:477   */\n      swap1\n      pop\n        /* \"#utility.yul\":334:483   */\n      swap2\n      swap1\n      pop\n      jump\t// out\n        /* \"#utility.yul\":489:609   */\n    tag_340:\n        /* \"#utility.yul\":561:584   */\n      tag_409\n        /* \"#utility.yul\":578:583   */\n      dup2\n        /* \"#utility.yul\":561:584   */\n      tag_339\n      jump\t// in\n    tag_409:\n        /* \"#utility.yul\":554:559   */\n      dup2\n        /* \"#utility.yul\":551:585   */\n      eq\n        /* \"#utility.yul\":541:603   */\n      tag_410\n      jumpi\n        /* \"#utility.yul\":599:600   */\n      0x00\n        /* \"#utility.yul\":596:597   */\n      dup1\n        /* \"#utility.yul\":589:601   */\n      revert\n        /* \"#utility.yul\":541:603   */\n    tag_410:\n        /* \"#utility.yul\":489:609   */\n      pop\n      jump\t// out\n        /* \"#utility.yul\":615:752   */\n    tag_341:\n        /* \"#utility.yul\":660:665   */\n      0x00\n        /* \"#utility.yul\":698:704   */\n      dup2\n        /* \"#utility.yul\":685:705   */\n      calldataload\n        /* \"#utility.yul\":676:705   */\n      swap1\n      pop\n        /* \"#utility.yul\":714:746   */\n      tag_412\n        /* \"#utility.yul\":740:745   */\n      dup2\n        /* \"#utility.yul\":714:746   */\n      tag_340\n      jump\t// in\n    tag_412:\n        /* \"#utility.yul\":615:752   */\n      swap3\n      swap2\n      pop\n      pop\n      jump\t// out\n        /* \"#utility.yul\":758:1085   */\n    tag_25:\n        /* \"#utility.yul\":816:822   */\n      0x00\n        /* \"#utility.yul\":865:867   */\n      0x20\n        /* \"#utility.yul\":853:862   */\n      dup3\n        /* \"#utility.yul\":844:851   */\n      dup5\n        /* \"#utility.yul\":840:863   */\n      sub\n        /* \"#utility.yul\":836:868   */\n      slt\n        /* \"#utility.yul\":833:952   */\n      iszero\n      tag_414\n      jumpi\n        /* \"#utility.yul\":871:950   */\n      tag_415\n      tag_337\n      jump\t// in\n    tag_415:\n        /* \"#utility.yul\":833:952   */\n    tag_414:\n        /* \"#utility.yul\":991:992   */\n      0x00\n        /* \"#utility.yul\":1016:1068   */\n      tag_416\n        /* \"#utility.yul\":1060:1067   */\n      dup5\n        /* \"#utility.yul\":1051:1057   */\n      dup3\n        /* \"#utility.yul\":1040:1049   */\n      dup6\n        /* \"#utility.yul\":1036:1058   */\n      add\n        /* \"#utility.yul\":1016:1068   */\n      tag_341\n      jump\t// in\n    tag_416:\n        /* \"#utility.yul\":1006:1068   */\n      swap2\n      pop\n        /* \"#utility.yul\":962:1078   */\n      pop\n        /* \"#utility.yul\":758:1085   */\n      swap3\n      swap2\n      pop\n      pop\n      jump\t// out\n        /* \"#utility.yul\":1091:1181   */\n    tag_342:\n        /* \"#utility.yul\":1125:1132   */\n      0x00\n        /* \"#utility.yul\":1168:1173   */\n      dup2\n        /* \"#utility.yul\":1161:1174   */\n      iszero\n        /* \"#utility.yul\":1154:1175   */\n      iszero\n        /* \"#utility.yul\":1143:1175   */\n      swap1\n      pop\n        /* \"#utility.yul\":1091:1181   */\n      swap2\n      swap1\n      pop\n      jump\t// out\n        /* \"#utility.yul\":1187:1296   */\n    tag_343:\n        /* \"#utility.yul\":1268:1289   */\n      tag_419\n        /* \"#utility.yul\":1283:1288   */\n      dup2\n        /* \"#utility.yul\":1268:1289   */\n      tag_342\n      jump\t// in\n    tag_419:\n        /* \"#utility.yul\":1263:1266   */\n      dup3\n        /* \"#utility.yul\":1256:1290   */\n      mstore\n        /* \"#utility.yul\":1187:1296   */\n      pop\n      pop\n      jump\t// out\n        /* \"#utility.yul\":1302:1512   */\n    tag_28:\n        /* \"#utility.yul\":1389:1393   */\n      0x00\n        /* \"#utility.yul\":1427:1429   */\n      0x20\n        /* \"#utility.yul\":1416:1425   */\n      dup3\n        /* \"#utility.yul\":1412:1430   */\n      add\n        /* \"#utility.yul\":1404:1430   */\n      swap1\n      pop\n        /* \"#utility.yul\":1440:1505   */\n      tag_421\n        /* \"#utility.yul\":1502:1503   */\n      0x00\n        /* \"#utility.yul\":1491:1500   */\n      dup4\n        /* \"#utility.yul\":1487:1504   */\n      add\n        /* \"#utility.yul\":1478:1484   */\n      dup5\n        /* \"#utility.yul\":1440:1505   */\n      tag_343\n      jump\t// in\n    tag_421:\n        /* \"#utility.yul\":1302:1512   */\n      swap3\n      swap2\n      pop\n      pop\n      jump\t// out\n        /* \"#utility.yul\":1518:1617   */\n    tag_344:\n        /* \"#utility.yul\":1570:1576   */\n      0x00\n        /* \"#utility.yul\":1604:1609   */\n      dup2\n        /* \"#utility.yul\":1598:1610   */\n      mload\n        /* \"#utility.yul\":1588:1610   */\n      swap1\n      pop\n        /* \"#utility.yul\":1518:1617   */\n      swap2\n      swap1\n      pop\n      jump\t// out\n        /* \"#utility.yul\":1623:1792   */\n    tag_345:\n        /* \"#utility.yul\":1707:1718   */\n      0x00\n        /* \"#utility.yul\":1741:1747   */\n      dup3\n        /* \"#utility.yul\":1736:1739   */\n      dup3\n        /* \"#utility.yul\":1729:1748   */\n      mstore\n        /* \"#utility.yul\":1781:1785   */\n      0x20\n        /* \"#utility.yul\":1776:1779   */\n      dup3\n        /* \"#utility.yul\":1772:1786   */\n      add\n        /* \"#utility.yul\":1757:1786   */\n      swap1\n      pop\n        /* \"#utility.yul\":1623:1792   */\n      swap3\n      swap2\n      pop\n      pop\n      jump\t// out\n        /* \"#utility.yul\":1798:2044   */\n    tag_346:\n        /* \"#utility.yul\":1879:1880   */\n      0x00\n        /* \"#utility.yul\":1889:2002   */\n    tag_425:\n        /* \"#utility.yul\":1903:1909   */\n      dup4\n        /* \"#utility.yul\":1900:1901   */\n      dup2\n        /* \"#utility.yul\":1897:1910   */\n      lt\n        /* \"#utility.yul\":1889:2002   */\n      iszero\n      tag_427\n      jumpi\n        /* \"#utility.yul\":1988:1989   */\n      dup1\n        /* \"#utility.yul\":1983:1986   */\n      dup3\n        /* \"#utility.yul\":1979:1990   */\n      add\n        /* \"#utility.yul\":1973:1991   */\n      mload\n        /* \"#utility.yul\":1969:1970   */\n      dup2\n        /* \"#utility.yul\":1964:1967   */\n      dup5\n        /* \"#utility.yul\":1960:1971   */\n      add\n        /* \"#utility.yul\":1953:1992   */\n      mstore\n        /* \"#utility.yul\":1925:1927   */\n      0x20\n        /* \"#utility.yul\":1922:1923   */\n      dup2\n        /* \"#utility.yul\":1918:1928   */\n      add\n        /* \"#utility.yul\":1913:1928   */\n      swap1\n      pop\n        /* \"#utility.yul\":1889:2002   */\n      jump(tag_425)\n    tag_427:\n        /* \"#utility.yul\":2036:2037   */\n      0x00\n        /* \"#utility.yul\":2027:2033   */\n      dup5\n        /* \"#utility.yul\":2022:2025   */\n      dup5\n        /* \"#utility.yul\":2018:2034   */\n      add\n        /* \"#utility.yul\":2011:2038   */\n      mstore\n        /* \"#utility.yul\":1860:2044   */\n      pop\n        /* \"#utility.yul\":1798:2044   */\n      pop\n      pop\n      pop\n      jump\t// out\n        /* \"#utility.yul\":2050:2152   */\n    tag_347:\n        /* \"#utility.yul\":2091:2097   */\n      0x00\n        /* \"#utility.yul\":2142:2144   */\n      0x1f\n        /* \"#utility.yul\":2138:2145   */\n      not\n        /* \"#utility.yul\":2133:2135   */\n      0x1f\n        /* \"#utility.yul\":2126:2131   */\n      dup4\n        /* \"#utility.yul\":2122:2136   */\n      add\n        /* \"#utility.yul\":2118:2146   */\n      and\n        /* \"#utility.yul\":2108:2146   */\n      swap1\n      pop\n        /* \"#utility.yul\":2050:2152   */\n      swap2\n      swap1\n      pop\n      jump\t// out\n        /* \"#utility.yul\":2158:2535   */\n    tag_348:\n        /* \"#utility.yul\":2246:2249   */\n      0x00\n        /* \"#utility.yul\":2274:2313   */\n      tag_430\n        /* \"#utility.yul\":2307:2312   */\n      dup3\n        /* \"#utility.yul\":2274:2313   */\n      tag_344\n      jump\t// in\n    tag_430:\n        /* \"#utility.yul\":2329:2400   */\n      tag_431\n        /* \"#utility.yul\":2393:2399   */\n      dup2\n        /* \"#utility.yul\":2388:2391   */\n      dup6\n        /* \"#utility.yul\":2329:2400   */\n      tag_345\n      jump\t// in\n    tag_431:\n        /* \"#utility.yul\":2322:2400   */\n      swap4\n      pop\n        /* \"#utility.yul\":2409:2474   */\n      tag_432\n        /* \"#utility.yul\":2467:2473   */\n      dup2\n        /* \"#utility.yul\":2462:2465   */\n      dup6\n        /* \"#utility.yul\":2455:2459   */\n      0x20\n        /* \"#utility.yul\":2448:2453   */\n      dup7\n        /* \"#utility.yul\":2444:2460   */\n      add\n        /* \"#utility.yul\":2409:2474   */\n      tag_346\n      jump\t// in\n    tag_432:\n        /* \"#utility.yul\":2499:2528   */\n      tag_433\n        /* \"#utility.yul\":2521:2527   */\n      dup2\n        /* \"#utility.yul\":2499:2528   */\n      tag_347\n      jump\t// in\n    tag_433:\n        /* \"#utility.yul\":2494:2497   */\n      dup5\n        /* \"#utility.yul\":2490:2529   */\n      add\n        /* \"#utility.yul\":2483:2529   */\n      swap2\n      pop\n        /* \"#utility.yul\":2250:2535   */\n      pop\n        /* \"#utility.yul\":2158:2535   */\n      swap3\n      swap2\n      pop\n      pop\n      jump\t// out\n        /* \"#utility.yul\":2541:2854   */\n    tag_32:\n        /* \"#utility.yul\":2654:2658   */\n      0x00\n        /* \"#utility.yul\":2692:2694   */\n      0x20\n        /* \"#utility.yul\":2681:2690   */\n      dup3\n        /* \"#utility.yul\":2677:2695   */\n      add\n        /* \"#utility.yul\":2669:2695   */\n      swap1\n      pop\n        /* \"#utility.yul\":2741:2750   */\n      dup2\n        /* \"#utility.yul\":2735:2739   */\n      dup2\n        /* \"#utility.yul\":2731:2751   */\n      sub\n        /* \"#utility.yul\":2727:2728   */\n      0x00\n        /* \"#utility.yul\":2716:2725   */\n      dup4\n        /* \"#utility.yul\":2712:2729   */\n      add\n        /* \"#utility.yul\":2705:2752   */\n      mstore\n        /* \"#utility.yul\":2769:2847   */\n      tag_435\n        /* \"#utility.yul\":2842:2846   */\n      dup2\n        /* \"#utility.yul\":2833:2839   */\n      dup5\n        /* \"#utility.yul\":2769:2847   */\n      tag_348\n      jump\t// in\n    tag_435:\n        /* \"#utility.yul\":2761:2847   */\n      swap1\n      pop\n        /* \"#utility.yul\":2541:2854   */\n      swap3\n      swap2\n      pop\n      pop\n      jump\t// out\n        /* \"#utility.yul\":2860:2986   */\n    tag_349:\n        /* \"#utility.yul\":2897:2904   */\n      0x00\n        /* \"#utility.yul\":2937:2979   */\n      0xffffffffffffffffffffffffffffffffffffffff\n        /* \"#utility.yul\":2930:2935   */\n      dup3\n        /* \"#utility.yul\":2926:2980   */\n      and\n        /* \"#utility.yul\":2915:2980   */\n      swap1\n      pop\n        /* \"#utility.yul\":2860:2986   */\n      swap2\n      swap1\n      pop\n      jump\t// out\n        /* \"#utility.yul\":2992:3088   */\n    tag_350:\n        /* \"#utility.yul\":3029:3036   */\n      0x00\n        /* \"#utility.yul\":3058:3082   */\n      tag_438\n        /* \"#utility.yul\":3076:3081   */\n      dup3\n        /* \"#utility.yul\":3058:3082   */\n      tag_349\n      jump\t// in\n    tag_438:\n        /* \"#utility.yul\":3047:3082   */\n      swap1\n      pop\n        /* \"#utility.yul\":2992:3088   */\n      swap2\n      swap1\n      pop\n      jump\t// out\n        /* \"#utility.yul\":3094:3216   */\n    tag_351:\n        /* \"#utility.yul\":3167:3191   */\n      tag_440\n        /* \"#utility.yul\":3185:3190   */\n      dup2\n        /* \"#utility.yul\":3167:3191   */\n      tag_350\n      jump\t// in\n    tag_440:\n        /* \"#utility.yul\":3160:3165   */\n      dup2\n        /* \"#utility.yul\":3157:3192   */\n      eq\n        /* \"#utility.yul\":3147:3210   */\n      tag_441\n      jumpi\n        /* \"#utility.yul\":3206:3207   */\n      0x00\n        /* \"#utility.yul\":3203:3204   */\n      dup1\n        /* \"#utility.yul\":3196:3208   */\n      revert\n        /* \"#utility.yul\":3147:3210   */\n    tag_441:\n        /* \"#utility.yul\":3094:3216   */\n      pop\n      jump\t// out\n        /* \"#utility.yul\":3222:3361   */\n    tag_352:\n        /* \"#utility.yul\":3268:3273   */\n      0x00\n        /* \"#utility.yul\":3306:3312   */\n      dup2\n        /* \"#utility.yul\":3293:3313   */\n      calldataload\n        /* \"#utility.yul\":3284:3313   */\n      swap1\n      pop\n        /* \"#utility.yul\":3322:3355   */\n      tag_443\n        /* \"#utility.yul\":3349:3354   */\n      dup2\n        /* \"#utility.yul\":3322:3355   */\n      tag_351\n      jump\t// in\n    tag_443:\n        /* \"#utility.yul\":3222:3361   */\n      swap3\n      swap2\n      pop\n      pop\n      jump\t// out\n        /* \"#utility.yul\":3367:3696   */\n    tag_35:\n        /* \"#utility.yul\":3426:3432   */\n      0x00\n        /* \"#utility.yul\":3475:3477   */\n      0x20\n        /* \"#utility.yul\":3463:3472   */\n      dup3\n        /* \"#utility.yul\":3454:3461   */\n      dup5\n        /* \"#utility.yul\":3450:3473   */\n      sub\n        /* \"#utility.yul\":3446:3478   */\n      slt\n        /* \"#utility.yul\":3443:3562   */\n      iszero\n      tag_445\n      jumpi\n        /* \"#utility.yul\":3481:3560   */\n      tag_446\n      tag_337\n      jump\t// in\n    tag_446:\n        /* \"#utility.yul\":3443:3562   */\n    tag_445:\n        /* \"#utility.yul\":3601:3602   */\n      0x00\n        /* \"#utility.yul\":3626:3679   */\n      tag_447\n        /* \"#utility.yul\":3671:3678   */\n      dup5\n        /* \"#utility.yul\":3662:3668   */\n      dup3\n        /* \"#utility.yul\":3651:3660   */\n      dup6\n        /* \"#utility.yul\":3647:3669   */\n      add\n        /* \"#utility.yul\":3626:3679   */\n      tag_352\n      jump\t// in\n    tag_447:\n        /* \"#utility.yul\":3616:3679   */\n      swap2\n      pop\n        /* \"#utility.yul\":3572:3689   */\n      pop\n        /* \"#utility.yul\":3367:3696   */\n      swap3\n      swap2\n      pop\n      pop\n      jump\t// out\n        /* \"#utility.yul\":3702:3779   */\n    tag_353:\n        /* \"#utility.yul\":3739:3746   */\n      0x00\n        /* \"#utility.yul\":3768:3773   */\n      dup2\n        /* \"#utility.yul\":3757:3773   */\n      swap1\n      pop\n        /* \"#utility.yul\":3702:3779   */\n      swap2\n      swap1\n      pop\n      jump\t// out\n        /* \"#utility.yul\":3785:3903   */\n    tag_354:\n        /* \"#utility.yul\":3872:3896   */\n      tag_450\n        /* \"#utility.yul\":3890:3895   */\n      dup2\n        /* \"#utility.yul\":3872:3896   */\n      tag_353\n      jump\t// in\n    tag_450:\n        /* \"#utility.yul\":3867:3870   */\n      dup3\n        /* \"#utility.yul\":3860:3897   */\n      mstore\n        /* \"#utility.yul\":3785:3903   */\n      pop\n      pop\n      jump\t// out\n        /* \"#utility.yul\":3909:4131   */\n    tag_38:\n        /* \"#utility.yul\":4002:4006   */\n      0x00\n        /* \"#utility.yul\":4040:4042   */\n      0x20\n        /* \"#utility.yul\":4029:4038   */\n      dup3\n        /* \"#utility.yul\":4025:4043   */\n      add\n        /* \"#utility.yul\":4017:4043   */\n      swap1\n      pop\n        /* \"#utility.yul\":4053:4124   */\n      tag_452\n        /* \"#utility.yul\":4121:4122   */\n      0x00\n        /* \"#utility.yul\":4110:4119   */\n      dup4\n        /* \"#utility.yul\":4106:4123   */\n      add\n        /* \"#utility.yul\":4097:4103   */\n      dup5\n        /* \"#utility.yul\":4053:4124   */\n      tag_354\n      jump\t// in\n    tag_452:\n        /* \"#utility.yul\":3909:4131   */\n      swap3\n      swap2\n      pop\n      pop\n      jump\t// out\n        /* \"#utility.yul\":4137:4259   */\n    tag_355:\n        /* \"#utility.yul\":4210:4234   */\n      tag_454\n        /* \"#utility.yul\":4228:4233   */\n      dup2\n        /* \"#utility.yul\":4210:4234   */\n      tag_353\n      jump\t// in\n    tag_454:\n        /* \"#utility.yul\":4203:4208   */\n      dup2\n        /* \"#utility.yul\":4200:4235   */\n      eq\n        /* \"#utility.yul\":4190:4253   */\n      tag_455\n      jumpi\n        /* \"#utility.yul\":4249:4250   */\n      0x00\n        /* \"#utility.yul\":4246:4247   */\n      dup1\n        /* \"#utility.yul\":4239:4251   */\n      revert\n        /* \"#utility.yul\":4190:4253   */\n    tag_455:\n        /* \"#utility.yul\":4137:4259   */\n      pop\n      jump\t// out\n        /* \"#utility.yul\":4265:4404   */\n    tag_356:\n        /* \"#utility.yul\":4311:4316   */\n      0x00\n        /* \"#utility.yul\":4349:4355   */\n      dup2\n        /* \"#utility.yul\":4336:4356   */\n      calldataload\n        /* \"#utility.yul\":4327:4356   */\n      swap1\n      pop\n        /* \"#utility.yul\":4365:4398   */\n      tag_457\n        /* \"#utility.yul\":4392:4397   */\n      dup2\n        /* \"#utility.yul\":4365:4398   */\n      tag_355\n      jump\t// in\n    tag_457:\n        /* \"#utility.yul\":4265:4404   */\n      swap3\n      swap2\n      pop\n      pop\n      jump\t// out\n        /* \"#utility.yul\":4410:4739   */\n    tag_41:\n        /* \"#utility.yul\":4469:4475   */\n      0x00\n        /* \"#utility.yul\":4518:4520   */\n      0x20\n        /* \"#utility.yul\":4506:4515   */\n      dup3\n        /* \"#utility.yul\":4497:4504   */\n      dup5\n        /* \"#utility.yul\":4493:4516   */\n      sub\n        /* \"#utility.yul\":4489:4521   */\n      slt\n        /* \"#utility.yul\":4486:4605   */\n      iszero\n      tag_459\n      jumpi\n        /* \"#utility.yul\":4524:4603   */\n      tag_460\n      tag_337\n      jump\t// in\n    tag_460:\n        /* \"#utility.yul\":4486:4605   */\n    tag_459:\n        /* \"#utility.yul\":4644:4645   */\n      0x00\n        /* \"#utility.yul\":4669:4722   */\n      tag_461\n        /* \"#utility.yul\":4714:4721   */\n      dup5\n        /* \"#utility.yul\":4705:4711   */\n      dup3\n        /* \"#utility.yul\":4694:4703   */\n      dup6\n        /* \"#utility.yul\":4690:4712   */\n      add\n        /* \"#utility.yul\":4669:4722   */\n      tag_356\n      jump\t// in\n    tag_461:\n        /* \"#utility.yul\":4659:4722   */\n      swap2\n      pop\n        /* \"#utility.yul\":4615:4732   */\n      pop\n        /* \"#utility.yul\":4410:4739   */\n      swap3\n      swap2\n      pop\n      pop\n      jump\t// out\n        /* \"#utility.yul\":4745:4863   */\n    tag_357:\n        /* \"#utility.yul\":4832:4856   */\n      tag_463\n        /* \"#utility.yul\":4850:4855   */\n      dup2\n        /* \"#utility.yul\":4832:4856   */\n      tag_350\n      jump\t// in\n    tag_463:\n        /* \"#utility.yul\":4827:4830   */\n      dup3\n        /* \"#utility.yul\":4820:4857   */\n      mstore\n        /* \"#utility.yul\":4745:4863   */\n      pop\n      pop\n      jump\t// out\n        /* \"#utility.yul\":4869:5091   */\n    tag_44:\n        /* \"#utility.yul\":4962:4966   */\n      0x00\n        /* \"#utility.yul\":5000:5002   */\n      0x20\n        /* \"#utility.yul\":4989:4998   */\n      dup3\n        /* \"#utility.yul\":4985:5003   */\n      add\n        /* \"#utility.yul\":4977:5003   */\n      swap1\n      pop\n        /* \"#utility.yul\":5013:5084   */\n      tag_465\n        /* \"#utility.yul\":5081:5082   */\n      0x00\n        /* \"#utility.yul\":5070:5079   */\n      dup4\n        /* \"#utility.yul\":5066:5083   */\n      add\n        /* \"#utility.yul\":5057:5063   */\n      dup5\n        /* \"#utility.yul\":5013:5084   */\n      tag_357\n      jump\t// in\n    tag_465:\n        /* \"#utility.yul\":4869:5091   */\n      swap3\n      swap2\n      pop\n      pop\n      jump\t// out\n        /* \"#utility.yul\":5097:5571   */\n    tag_47:\n        /* \"#utility.yul\":5165:5171   */\n      0x00\n        /* \"#utility.yul\":5173:5179   */\n      dup1\n        /* \"#utility.yul\":5222:5224   */\n      0x40\n        /* \"#utility.yul\":5210:5219   */\n      dup4\n        /* \"#utility.yul\":5201:5208   */\n      dup6\n        /* \"#utility.yul\":5197:5220   */\n      sub\n        /* \"#utility.yul\":5193:5225   */\n      slt\n        /* \"#utility.yul\":5190:5309   */\n      iszero\n      tag_467\n      jumpi\n        /* \"#utility.yul\":5228:5307   */\n      tag_468\n      tag_337\n      jump\t// in\n    tag_468:\n        /* \"#utility.yul\":5190:5309   */\n    tag_467:\n        /* \"#utility.yul\":5348:5349   */\n      0x00\n        /* \"#utility.yul\":5373:5426   */\n      tag_469\n        /* \"#utility.yul\":5418:5425   */\n      dup6\n        /* \"#utility.yul\":5409:5415   */\n      dup3\n        /* \"#utility.yul\":5398:5407   */\n      dup7\n        /* \"#utility.yul\":5394:5416   */\n      add\n        /* \"#utility.yul\":5373:5426   */\n      tag_352\n      jump\t// in\n    tag_469:\n        /* \"#utility.yul\":5363:5426   */\n      swap3\n      pop\n        /* \"#utility.yul\":5319:5436   */\n      pop\n        /* \"#utility.yul\":5475:5477   */\n      0x20\n        /* \"#utility.yul\":5501:5554   */\n      tag_470\n        /* \"#utility.yul\":5546:5553   */\n      dup6\n        /* \"#utility.yul\":5537:5543   */\n      dup3\n        /* \"#utility.yul\":5526:5535   */\n      dup7\n        /* \"#utility.yul\":5522:5544   */\n      add\n        /* \"#utility.yul\":5501:5554   */\n      tag_356\n      jump\t// in\n    tag_470:\n        /* \"#utility.yul\":5491:5554   */\n      swap2\n      pop\n        /* \"#utility.yul\":5446:5564   */\n      pop\n        /* \"#utility.yul\":5097:5571   */\n      swap3\n      pop\n      swap3\n      swap1\n      pop\n      jump\t// out\n        /* \"#utility.yul\":5577:6196   */\n    tag_51:\n        /* \"#utility.yul\":5654:5660   */\n      0x00\n        /* \"#utility.yul\":5662:5668   */\n      dup1\n        /* \"#utility.yul\":5670:5676   */\n      0x00\n        /* \"#utility.yul\":5719:5721   */\n      0x60\n        /* \"#utility.yul\":5707:5716   */\n      dup5\n        /* \"#utility.yul\":5698:5705   */\n      dup7\n        /* \"#utility.yul\":5694:5717   */\n      sub\n        /* \"#utility.yul\":5690:5722   */\n      slt\n        /* \"#utility.yul\":5687:5806   */\n      iszero\n      tag_472\n      jumpi\n        /* \"#utility.yul\":5725:5804   */\n      tag_473\n      tag_337\n      jump\t// in\n    tag_473:\n        /* \"#utility.yul\":5687:5806   */\n    tag_472:\n        /* \"#utility.yul\":5845:5846   */\n      0x00\n        /* \"#utility.yul\":5870:5923   */\n      tag_474\n        /* \"#utility.yul\":5915:5922   */\n      dup7\n        /* \"#utility.yul\":5906:5912   */\n      dup3\n        /* \"#utility.yul\":5895:5904   */\n      dup8\n        /* \"#utility.yul\":5891:5913   */\n      add\n        /* \"#utility.yul\":5870:5923   */\n      tag_352\n      jump\t// in\n    tag_474:\n        /* \"#utility.yul\":5860:5923   */\n      swap4\n      pop\n        /* \"#utility.yul\":5816:5933   */\n      pop\n        /* \"#utility.yul\":5972:5974   */\n      0x20\n        /* \"#utility.yul\":5998:6051   */\n      tag_475\n        /* \"#utility.yul\":6043:6050   */\n      dup7\n        /* \"#utility.yul\":6034:6040   */\n      dup3\n        /* \"#utility.yul\":6023:6032   */\n      dup8\n        /* \"#utility.yul\":6019:6041   */\n      add\n        /* \"#utility.yul\":5998:6051   */\n      tag_352\n      jump\t// in\n    tag_475:\n        /* \"#utility.yul\":5988:6051   */\n      swap3\n      pop\n        /* \"#utility.yul\":5943:6061   */\n      pop\n        /* \"#utility.yul\":6100:6102   */\n      0x40\n        /* \"#utility.yul\":6126:6179   */\n      tag_476\n        /* \"#utility.yul\":6171:6178   */\n      dup7\n        /* \"#utility.yul\":6162:6168   */\n      dup3\n        /* \"#utility.yul\":6151:6160   */\n      dup8\n        /* \"#utility.yul\":6147:6169   */\n      add\n        /* \"#utility.yul\":6126:6179   */\n      tag_356\n      jump\t// in\n    tag_476:\n        /* \"#utility.yul\":6116:6179   */\n      swap2\n      pop\n        /* \"#utility.yul\":6071:6189   */\n      pop\n        /* \"#utility.yul\":5577:6196   */\n      swap3\n      pop\n      swap3\n      pop\n      swap3\n      jump\t// out\n        /* \"#utility.yul\":6202:6318   */\n    tag_358:\n        /* \"#utility.yul\":6272:6293   */\n      tag_478\n        /* \"#utility.yul\":6287:6292   */\n      dup2\n        /* \"#utility.yul\":6272:6293   */\n      tag_342\n      jump\t// in\n    tag_478:\n        /* \"#utility.yul\":6265:6270   */\n      dup2\n        /* \"#utility.yul\":6262:6294   */\n      eq\n        /* \"#utility.yul\":6252:6312   */\n      tag_479\n      jumpi\n        /* \"#utility.yul\":6308:6309   */\n      0x00\n        /* \"#utility.yul\":6305:6306   */\n      dup1\n        /* \"#utility.yul\":6298:6310   */\n      revert\n        /* \"#utility.yul\":6252:6312   */\n    tag_479:\n        /* \"#utility.yul\":6202:6318   */\n      pop\n      jump\t// out\n        /* \"#utility.yul\":6324:6457   */\n    tag_359:\n        /* \"#utility.yul\":6367:6372   */\n      0x00\n        /* \"#utility.yul\":6405:6411   */\n      dup2\n        /* \"#utility.yul\":6392:6412   */\n      calldataload\n        /* \"#utility.yul\":6383:6412   */\n      swap1\n      pop\n        /* \"#utility.yul\":6421:6451   */\n      tag_481\n        /* \"#utility.yul\":6445:6450   */\n      dup2\n        /* \"#utility.yul\":6421:6451   */\n      tag_358\n      jump\t// in\n    tag_481:\n        /* \"#utility.yul\":6324:6457   */\n      swap3\n      swap2\n      pop\n      pop\n      jump\t// out\n        /* \"#utility.yul\":6463:6931   */\n    tag_55:\n        /* \"#utility.yul\":6528:6534   */\n      0x00\n        /* \"#utility.yul\":6536:6542   */\n      dup1\n        /* \"#utility.yul\":6585:6587   */\n      0x40\n        /* \"#utility.yul\":6573:6582   */\n      dup4\n        /* \"#utility.yul\":6564:6571   */\n      dup6\n        /* \"#utility.yul\":6560:6583   */\n      sub\n        /* \"#utility.yul\":6556:6588   */\n      slt\n        /* \"#utility.yul\":6553:6672   */\n      iszero\n      tag_483\n      jumpi\n        /* \"#utility.yul\":6591:6670   */\n      tag_484\n      tag_337\n      jump\t// in\n    tag_484:\n        /* \"#utility.yul\":6553:6672   */\n    tag_483:\n        /* \"#utility.yul\":6711:6712   */\n      0x00\n        /* \"#utility.yul\":6736:6789   */\n      tag_485\n        /* \"#utility.yul\":6781:6788   */\n      dup6\n        /* \"#utility.yul\":6772:6778   */\n      dup3\n        /* \"#utility.yul\":6761:6770   */\n      dup7\n        /* \"#utility.yul\":6757:6779   */\n      add\n        /* \"#utility.yul\":6736:6789   */\n      tag_356\n      jump\t// in\n    tag_485:\n        /* \"#utility.yul\":6726:6789   */\n      swap3\n      pop\n        /* \"#utility.yul\":6682:6799   */\n      pop\n        /* \"#utility.yul\":6838:6840   */\n      0x20\n        /* \"#utility.yul\":6864:6914   */\n      tag_486\n        /* \"#utility.yul\":6906:6913   */\n      dup6\n        /* \"#utility.yul\":6897:6903   */\n      dup3\n        /* \"#utility.yul\":6886:6895   */\n      dup7\n        /* \"#utility.yul\":6882:6904   */\n      add\n        /* \"#utility.yul\":6864:6914   */\n      tag_359\n      jump\t// in\n    tag_486:\n        /* \"#utility.yul\":6854:6914   */\n      swap2\n      pop\n        /* \"#utility.yul\":6809:6924   */\n      pop\n        /* \"#utility.yul\":6463:6931   */\n      swap3\n      pop\n      swap3\n      swap1\n      pop\n      jump\t// out\n        /* \"#utility.yul\":6937:7405   */\n    tag_80:\n        /* \"#utility.yul\":7002:7008   */\n      0x00\n        /* \"#utility.yul\":7010:7016   */\n      dup1\n        /* \"#utility.yul\":7059:7061   */\n      0x40\n        /* \"#utility.yul\":7047:7056   */\n      dup4\n        /* \"#utility.yul\":7038:7045   */\n      dup6\n        /* \"#utility.yul\":7034:7057   */\n      sub\n        /* \"#utility.yul\":7030:7062   */\n      slt\n        /* \"#utility.yul\":7027:7146   */\n      iszero\n      tag_488\n      jumpi\n        /* \"#utility.yul\":7065:7144   */\n      tag_489\n      tag_337\n      jump\t// in\n    tag_489:\n        /* \"#utility.yul\":7027:7146   */\n    tag_488:\n        /* \"#utility.yul\":7185:7186   */\n      0x00\n        /* \"#utility.yul\":7210:7263   */\n      tag_490\n        /* \"#utility.yul\":7255:7262   */\n      dup6\n        /* \"#utility.yul\":7246:7252   */\n      dup3\n        /* \"#utility.yul\":7235:7244   */\n      dup7\n        /* \"#utility.yul\":7231:7253   */\n      add\n        /* \"#utility.yul\":7210:7263   */\n      tag_352\n      jump\t// in\n    tag_490:\n        /* \"#utility.yul\":7200:7263   */\n      swap3\n      pop\n        /* \"#utility.yul\":7156:7273   */\n      pop\n        /* \"#utility.yul\":7312:7314   */\n      0x20\n        /* \"#utility.yul\":7338:7388   */\n      tag_491\n        /* \"#utility.yul\":7380:7387   */\n      dup6\n        /* \"#utility.yul\":7371:7377   */\n      dup3\n        /* \"#utility.yul\":7360:7369   */\n      dup7\n        /* \"#utility.yul\":7356:7378   */\n      add\n        /* \"#utility.yul\":7338:7388   */\n      tag_359\n      jump\t// in\n    tag_491:\n        /* \"#utility.yul\":7328:7388   */\n      swap2\n      pop\n        /* \"#utility.yul\":7283:7398   */\n      pop\n        /* \"#utility.yul\":6937:7405   */\n      swap3\n      pop\n      swap3\n      swap1\n      pop\n      jump\t// out\n        /* \"#utility.yul\":7411:7528   */\n    tag_360:\n        /* \"#utility.yul\":7520:7521   */\n      0x00\n        /* \"#utility.yul\":7517:7518   */\n      dup1\n        /* \"#utility.yul\":7510:7522   */\n      revert\n        /* \"#utility.yul\":7534:7651   */\n    tag_361:\n        /* \"#utility.yul\":7643:7644   */\n      0x00\n        /* \"#utility.yul\":7640:7641   */\n      dup1\n        /* \"#utility.yul\":7633:7645   */\n      revert\n        /* \"#utility.yul\":7657:7837   */\n    tag_263:\n        /* \"#utility.yul\":7705:7782   */\n      0x4e487b7100000000000000000000000000000000000000000000000000000000\n        /* \"#utility.yul\":7702:7703   */\n      0x00\n        /* \"#utility.yul\":7695:7783   */\n      mstore\n        /* \"#utility.yul\":7802:7806   */\n      0x41\n        /* \"#utility.yul\":7799:7800   */\n      0x04\n        /* \"#utility.yul\":7792:7807   */\n      mstore\n        /* \"#utility.yul\":7826:7830   */\n      0x24\n        /* \"#utility.yul\":7823:7824   */\n      0x00\n        /* \"#utility.yul\":7816:7831   */\n      revert\n        /* \"#utility.yul\":7843:8124   */\n    tag_362:\n        /* \"#utility.yul\":7926:7953   */\n      tag_496\n        /* \"#utility.yul\":7948:7952   */\n      dup3\n        /* \"#utility.yul\":7926:7953   */\n      tag_347\n      jump\t// in\n    tag_496:\n        /* \"#utility.yul\":7918:7924   */\n      dup2\n        /* \"#utility.yul\":7914:7954   */\n      add\n        /* \"#utility.yul\":8056:8062   */\n      dup2\n        /* \"#utility.yul\":8044:8054   */\n      dup2\n        /* \"#utility.yul\":8041:8063   */\n      lt\n        /* \"#utility.yul\":8020:8038   */\n      0xffffffffffffffff\n        /* \"#utility.yul\":8008:8018   */\n      dup3\n        /* \"#utility.yul\":8005:8039   */\n      gt\n        /* \"#utility.yul\":8002:8064   */\n      or\n        /* \"#utility.yul\":7999:8087   */\n      iszero\n      tag_497\n      jumpi\n        /* \"#utility.yul\":8067:8085   */\n      tag_498\n      tag_263\n      jump\t// in\n    tag_498:\n        /* \"#utility.yul\":7999:8087   */\n    tag_497:\n        /* \"#utility.yul\":8107:8117   */\n      dup1\n        /* \"#utility.yul\":8103:8105   */\n      0x40\n        /* \"#utility.yul\":8096:8118   */\n      mstore\n        /* \"#utility.yul\":7886:8124   */\n      pop\n        /* \"#utility.yul\":7843:8124   */\n      pop\n      pop\n      jump\t// out\n        /* \"#utility.yul\":8130:8259   */\n    tag_363:\n        /* \"#utility.yul\":8164:8170   */\n      0x00\n        /* \"#utility.yul\":8191:8211   */\n      tag_500\n      tag_336\n      jump\t// in\n    tag_500:\n        /* \"#utility.yul\":8181:8211   */\n      swap1\n      pop\n        /* \"#utility.yul\":8220:8253   */\n      tag_501\n        /* \"#utility.yul\":8248:8252   */\n      dup3\n        /* \"#utility.yul\":8240:8246   */\n      dup3\n        /* \"#utility.yul\":8220:8253   */\n      tag_362\n      jump\t// in\n    tag_501:\n        /* \"#utility.yul\":8130:8259   */\n      swap2\n      swap1\n      pop\n      jump\t// out\n        /* \"#utility.yul\":8265:8572   */\n    tag_364:\n        /* \"#utility.yul\":8326:8330   */\n      0x00\n        /* \"#utility.yul\":8416:8434   */\n      0xffffffffffffffff\n        /* \"#utility.yul\":8408:8414   */\n      dup3\n        /* \"#utility.yul\":8405:8435   */\n      gt\n        /* \"#utility.yul\":8402:8458   */\n      iszero\n      tag_503\n      jumpi\n        /* \"#utility.yul\":8438:8456   */\n      tag_504\n      tag_263\n      jump\t// in\n    tag_504:\n        /* \"#utility.yul\":8402:8458   */\n    tag_503:\n        /* \"#utility.yul\":8476:8505   */\n      tag_505\n        /* \"#utility.yul\":8498:8504   */\n      dup3\n        /* \"#utility.yul\":8476:8505   */\n      tag_347\n      jump\t// in\n    tag_505:\n        /* \"#utility.yul\":8468:8505   */\n      swap1\n      pop\n        /* \"#utility.yul\":8560:8564   */\n      0x20\n        /* \"#utility.yul\":8554:8558   */\n      dup2\n        /* \"#utility.yul\":8550:8565   */\n      add\n        /* \"#utility.yul\":8542:8565   */\n      swap1\n      pop\n        /* \"#utility.yul\":8265:8572   */\n      swap2\n      swap1\n      pop\n      jump\t// out\n        /* \"#utility.yul\":8578:8724   */\n    tag_365:\n        /* \"#utility.yul\":8675:8681   */\n      dup3\n        /* \"#utility.yul\":8670:8673   */\n      dup2\n        /* \"#utility.yul\":8665:8668   */\n      dup4\n        /* \"#utility.yul\":8652:8682   */\n      calldatacopy\n        /* \"#utility.yul\":8716:8717   */\n      0x00\n        /* \"#utility.yul\":8707:8713   */\n      dup4\n        /* \"#utility.yul\":8702:8705   */\n      dup4\n        /* \"#utility.yul\":8698:8714   */\n      add\n        /* \"#utility.yul\":8691:8718   */\n      mstore\n        /* \"#utility.yul\":8578:8724   */\n      pop\n      pop\n      pop\n      jump\t// out\n        /* \"#utility.yul\":8730:9153   */\n    tag_366:\n        /* \"#utility.yul\":8807:8812   */\n      0x00\n        /* \"#utility.yul\":8832:8897   */\n      tag_508\n        /* \"#utility.yul\":8848:8896   */\n      tag_509\n        /* \"#utility.yul\":8889:8895   */\n      dup5\n        /* \"#utility.yul\":8848:8896   */\n      tag_364\n      jump\t// in\n    tag_509:\n        /* \"#utility.yul\":8832:8897   */\n      tag_363\n      jump\t// in\n    tag_508:\n        /* \"#utility.yul\":8823:8897   */\n      swap1\n      pop\n        /* \"#utility.yul\":8920:8926   */\n      dup3\n        /* \"#utility.yul\":8913:8918   */\n      dup2\n        /* \"#utility.yul\":8906:8927   */\n      mstore\n        /* \"#utility.yul\":8958:8962   */\n      0x20\n        /* \"#utility.yul\":8951:8956   */\n      dup2\n        /* \"#utility.yul\":8947:8963   */\n      add\n        /* \"#utility.yul\":8996:8999   */\n      dup5\n        /* \"#utility.yul\":8987:8993   */\n      dup5\n        /* \"#utility.yul\":8982:8985   */\n      dup5\n        /* \"#utility.yul\":8978:8994   */\n      add\n        /* \"#utility.yul\":8975:9000   */\n      gt\n        /* \"#utility.yul\":8972:9084   */\n      iszero\n      tag_510\n      jumpi\n        /* \"#utility.yul\":9003:9082   */\n      tag_511\n      tag_361\n      jump\t// in\n    tag_511:\n        /* \"#utility.yul\":8972:9084   */\n    tag_510:\n        /* \"#utility.yul\":9093:9147   */\n      tag_512\n        /* \"#utility.yul\":9140:9146   */\n      dup5\n        /* \"#utility.yul\":9135:9138   */\n      dup3\n        /* \"#utility.yul\":9130:9133   */\n      dup6\n        /* \"#utility.yul\":9093:9147   */\n      tag_365\n      jump\t// in\n    tag_512:\n        /* \"#utility.yul\":8813:9153   */\n      pop\n        /* \"#utility.yul\":8730:9153   */\n      swap4\n      swap3\n      pop\n      pop\n      pop\n      jump\t// out\n        /* \"#utility.yul\":9172:9510   */\n    tag_367:\n        /* \"#utility.yul\":9227:9232   */\n      0x00\n        /* \"#utility.yul\":9276:9279   */\n      dup3\n        /* \"#utility.yul\":9269:9273   */\n      0x1f\n        /* \"#utility.yul\":9261:9267   */\n      dup4\n        /* \"#utility.yul\":9257:9274   */\n      add\n        /* \"#utility.yul\":9253:9280   */\n      slt\n        /* \"#utility.yul\":9243:9365   */\n      tag_514\n      jumpi\n        /* \"#utility.yul\":9284:9363   */\n      tag_515\n      tag_360\n      jump\t// in\n    tag_515:\n        /* \"#utility.yul\":9243:9365   */\n    tag_514:\n        /* \"#utility.yul\":9401:9407   */\n      dup2\n        /* \"#utility.yul\":9388:9408   */\n      calldataload\n        /* \"#utility.yul\":9426:9504   */\n      tag_516\n        /* \"#utility.yul\":9500:9503   */\n      dup5\n        /* \"#utility.yul\":9492:9498   */\n      dup3\n        /* \"#utility.yul\":9485:9489   */\n      0x20\n        /* \"#utility.yul\":9477:9483   */\n      dup7\n        /* \"#utility.yul\":9473:9490   */\n      add\n        /* \"#utility.yul\":9426:9504   */\n      tag_366\n      jump\t// in\n    tag_516:\n        /* \"#utility.yul\":9417:9504   */\n      swap2\n      pop\n        /* \"#utility.yul\":9233:9510   */\n      pop\n        /* \"#utility.yul\":9172:9510   */\n      swap3\n      swap2\n      pop\n      pop\n      jump\t// out\n        /* \"#utility.yul\":9516:10459   */\n    tag_84:\n        /* \"#utility.yul\":9611:9617   */\n      0x00\n        /* \"#utility.yul\":9619:9625   */\n      dup1\n        /* \"#utility.yul\":9627:9633   */\n      0x00\n        /* \"#utility.yul\":9635:9641   */\n      dup1\n        /* \"#utility.yul\":9684:9687   */\n      0x80\n        /* \"#utility.yul\":9672:9681   */\n      dup6\n        /* \"#utility.yul\":9663:9670   */\n      dup8\n        /* \"#utility.yul\":9659:9682   */\n      sub\n        /* \"#utility.yul\":9655:9688   */\n      slt\n        /* \"#utility.yul\":9652:9772   */\n      iszero\n      tag_518\n      jumpi\n        /* \"#utility.yul\":9691:9770   */\n      tag_519\n      tag_337\n      jump\t// in\n    tag_519:\n        /* \"#utility.yul\":9652:9772   */\n    tag_518:\n        /* \"#utility.yul\":9811:9812   */\n      0x00\n        /* \"#utility.yul\":9836:9889   */\n      tag_520\n        /* \"#utility.yul\":9881:9888   */\n      dup8\n        /* \"#utility.yul\":9872:9878   */\n      dup3\n        /* \"#utility.yul\":9861:9870   */\n      dup9\n        /* \"#utility.yul\":9857:9879   */\n      add\n        /* \"#utility.yul\":9836:9889   */\n      tag_352\n      jump\t// in\n    tag_520:\n        /* \"#utility.yul\":9826:9889   */\n      swap5\n      pop\n        /* \"#utility.yul\":9782:9899   */\n      pop\n        /* \"#utility.yul\":9938:9940   */\n      0x20\n        /* \"#utility.yul\":9964:10017   */\n      tag_521\n        /* \"#utility.yul\":10009:10016   */\n      dup8\n        /* \"#utility.yul\":10000:10006   */\n      dup3\n        /* \"#utility.yul\":9989:9998   */\n      dup9\n        /* \"#utility.yul\":9985:10007   */\n      add\n        /* \"#utility.yul\":9964:10017   */\n      tag_352\n      jump\t// in\n    tag_521:\n        /* \"#utility.yul\":9954:10017   */\n      swap4\n      pop\n        /* \"#utility.yul\":9909:10027   */\n      pop\n        /* \"#utility.yul\":10066:10068   */\n      0x40\n        /* \"#utility.yul\":10092:10145   */\n      tag_522\n        /* \"#utility.yul\":10137:10144   */\n      dup8\n        /* \"#utility.yul\":10128:10134   */\n      dup3\n        /* \"#utility.yul\":10117:10126   */\n      dup9\n        /* \"#utility.yul\":10113:10135   */\n      add\n        /* \"#utility.yul\":10092:10145   */\n      tag_356\n      jump\t// in\n    tag_522:\n        /* \"#utility.yul\":10082:10145   */\n      swap3\n      pop\n        /* \"#utility.yul\":10037:10155   */\n      pop\n        /* \"#utility.yul\":10222:10224   */\n      0x60\n        /* \"#utility.yul\":10211:10220   */\n      dup6\n        /* \"#utility.yul\":10207:10225   */\n      add\n        /* \"#utility.yul\":10194:10226   */\n      calldataload\n        /* \"#utility.yul\":10253:10271   */\n      0xffffffffffffffff\n        /* \"#utility.yul\":10245:10251   */\n      dup2\n        /* \"#utility.yul\":10242:10272   */\n      gt\n        /* \"#utility.yul\":10239:10356   */\n      iszero\n      tag_523\n      jumpi\n        /* \"#utility.yul\":10275:10354   */\n      tag_524\n      tag_338\n      jump\t// in\n    tag_524:\n        /* \"#utility.yul\":10239:10356   */\n    tag_523:\n        /* \"#utility.yul\":10380:10442   */\n      tag_525\n        /* \"#utility.yul\":10434:10441   */\n      dup8\n        /* \"#utility.yul\":10425:10431   */\n      dup3\n        /* \"#utility.yul\":10414:10423   */\n      dup9\n        /* \"#utility.yul\":10410:10432   */\n      add\n        /* \"#utility.yul\":10380:10442   */\n      tag_367\n      jump\t// in\n    tag_525:\n        /* \"#utility.yul\":10370:10442   */\n      swap2\n      pop\n        /* \"#utility.yul\":10165:10452   */\n      pop\n        /* \"#utility.yul\":9516:10459   */\n      swap3\n      swap6\n      swap2\n      swap5\n      pop\n      swap3\n      pop\n      jump\t// out\n        /* \"#utility.yul\":10465:10939   */\n    tag_92:\n        /* \"#utility.yul\":10533:10539   */\n      0x00\n        /* \"#utility.yul\":10541:10547   */\n      dup1\n        /* \"#utility.yul\":10590:10592   */\n      0x40\n        /* \"#utility.yul\":10578:10587   */\n      dup4\n        /* \"#utility.yul\":10569:10576   */\n      dup6\n        /* \"#utility.yul\":10565:10588   */\n      sub\n        /* \"#utility.yul\":10561:10593   */\n      slt\n        /* \"#utility.yul\":10558:10677   */\n      iszero\n      tag_527\n      jumpi\n        /* \"#utility.yul\":10596:10675   */\n      tag_528\n      tag_337\n      jump\t// in\n    tag_528:\n        /* \"#utility.yul\":10558:10677   */\n    tag_527:\n        /* \"#utility.yul\":10716:10717   */\n      0x00\n        /* \"#utility.yul\":10741:10794   */\n      tag_529\n        /* \"#utility.yul\":10786:10793   */\n      dup6\n        /* \"#utility.yul\":10777:10783   */\n      dup3\n        /* \"#utility.yul\":10766:10775   */\n      dup7\n        /* \"#utility.yul\":10762:10784   */\n      add\n        /* \"#utility.yul\":10741:10794   */\n      tag_352\n      jump\t// in\n    tag_529:\n        /* \"#utility.yul\":10731:10794   */\n      swap3\n      pop\n        /* \"#utility.yul\":10687:10804   */\n      pop\n        /* \"#utility.yul\":10843:10845   */\n      0x20\n        /* \"#utility.yul\":10869:10922   */\n      tag_530\n        /* \"#utility.yul\":10914:10921   */\n      dup6\n        /* \"#utility.yul\":10905:10911   */\n      dup3\n        /* \"#utility.yul\":10894:10903   */\n      dup7\n        /* \"#utility.yul\":10890:10912   */\n      add\n        /* \"#utility.yul\":10869:10922   */\n      tag_352\n      jump\t// in\n    tag_530:\n        /* \"#utility.yul\":10859:10922   */\n      swap2\n      pop\n        /* \"#utility.yul\":10814:10932   */\n      pop\n        /* \"#utility.yul\":10465:10939   */\n      swap3\n      pop\n      swap3\n      swap1\n      pop\n      jump\t// out\n        /* \"#utility.yul\":10945:11125   */\n    tag_368:\n        /* \"#utility.yul\":10993:11070   */\n      0x4e487b7100000000000000000000000000000000000000000000000000000000\n        /* \"#utility.yul\":10990:10991   */\n      0x00\n        /* \"#utility.yul\":10983:11071   */\n      mstore\n        /* \"#utility.yul\":11090:11094   */\n      0x22\n        /* \"#utility.yul\":11087:11088   */\n      0x04\n        /* \"#utility.yul\":11080:11095   */\n      mstore\n        /* \"#utility.yul\":11114:11118   */\n      0x24\n        /* \"#utility.yul\":11111:11112   */\n      0x00\n        /* \"#utility.yul\":11104:11119   */\n      revert\n        /* \"#utility.yul\":11131:11451   */\n    tag_102:\n        /* \"#utility.yul\":11175:11181   */\n      0x00\n        /* \"#utility.yul\":11212:11213   */\n      0x02\n        /* \"#utility.yul\":11206:11210   */\n      dup3\n        /* \"#utility.yul\":11202:11214   */\n      div\n        /* \"#utility.yul\":11192:11214   */\n      swap1\n      pop\n        /* \"#utility.yul\":11259:11260   */\n      0x01\n        /* \"#utility.yul\":11253:11257   */\n      dup3\n        /* \"#utility.yul\":11249:11261   */\n      and\n        /* \"#utility.yul\":11280:11298   */\n      dup1\n        /* \"#utility.yul\":11270:11351   */\n      tag_533\n      jumpi\n        /* \"#utility.yul\":11336:11340   */\n      0x7f\n        /* \"#utility.yul\":11328:11334   */\n      dup3\n        /* \"#utility.yul\":11324:11341   */\n      and\n        /* \"#utility.yul\":11314:11341   */\n      swap2\n      pop\n        /* \"#utility.yul\":11270:11351   */\n    tag_533:\n        /* \"#utility.yul\":11398:11400   */\n      0x20\n        /* \"#utility.yul\":11390:11396   */\n      dup3\n        /* \"#utility.yul\":11387:11401   */\n      lt\n        /* \"#utility.yul\":11367:11385   */\n      dup2\n        /* \"#utility.yul\":11364:11402   */\n      sub\n        /* \"#utility.yul\":11361:11445   */\n      tag_534\n      jumpi\n        /* \"#utility.yul\":11417:11435   */\n      tag_535\n      tag_368\n      jump\t// in\n    tag_535:\n        /* \"#utility.yul\":11361:11445   */\n    tag_534:\n        /* \"#utility.yul\":11182:11451   */\n      pop\n        /* \"#utility.yul\":11131:11451   */\n      swap2\n      swap1\n      pop\n      jump\t// out\n        /* \"#utility.yul\":11457:11677   */\n    tag_369:\n        /* \"#utility.yul\":11597:11631   */\n      0x4552433732313a20617070726f76616c20746f2063757272656e74206f776e65\n        /* \"#utility.yul\":11593:11594   */\n      0x00\n        /* \"#utility.yul\":11585:11591   */\n      dup3\n        /* \"#utility.yul\":11581:11595   */\n      add\n        /* \"#utility.yul\":11574:11632   */\n      mstore\n        /* \"#utility.yul\":11666:11669   */\n      0x7200000000000000000000000000000000000000000000000000000000000000\n        /* \"#utility.yul\":11661:11663   */\n      0x20\n        /* \"#utility.yul\":11653:11659   */\n      dup3\n        /* \"#utility.yul\":11649:11664   */\n      add\n        /* \"#utility.yul\":11642:11670   */\n      mstore\n        /* \"#utility.yul\":11457:11677   */\n      pop\n      jump\t// out\n        /* \"#utility.yul\":11683:12049   */\n    tag_370:\n        /* \"#utility.yul\":11825:11828   */\n      0x00\n        /* \"#utility.yul\":11846:11913   */\n      tag_538\n        /* \"#utility.yul\":11910:11912   */\n      0x21\n        /* \"#utility.yul\":11905:11908   */\n      dup4\n        /* \"#utility.yul\":11846:11913   */\n      tag_345\n      jump\t// in\n    tag_538:\n        /* \"#utility.yul\":11839:11913   */\n      swap2\n      pop\n        /* \"#utility.yul\":11922:12015   */\n      tag_539\n        /* \"#utility.yul\":12011:12014   */\n      dup3\n        /* \"#utility.yul\":11922:12015   */\n      tag_369\n      jump\t// in\n    tag_539:\n        /* \"#utility.yul\":12040:12042   */\n      0x40\n        /* \"#utility.yul\":12035:12038   */\n      dup3\n        /* \"#utility.yul\":12031:12043   */\n      add\n        /* \"#utility.yul\":12024:12043   */\n      swap1\n      pop\n        /* \"#utility.yul\":11683:12049   */\n      swap2\n      swap1\n      pop\n      jump\t// out\n        /* \"#utility.yul\":12055:12474   */\n    tag_115:\n        /* \"#utility.yul\":12221:12225   */\n      0x00\n        /* \"#utility.yul\":12259:12261   */\n      0x20\n        /* \"#utility.yul\":12248:12257   */\n      dup3\n        /* \"#utility.yul\":12244:12262   */\n      add\n        /* \"#utility.yul\":12236:12262   */\n      swap1\n      pop\n        /* \"#utility.yul\":12308:12317   */\n      dup2\n        /* \"#utility.yul\":12302:12306   */\n      dup2\n        /* \"#utility.yul\":12298:12318   */\n      sub\n        /* \"#utility.yul\":12294:12295   */\n      0x00\n        /* \"#utility.yul\":12283:12292   */\n      dup4\n        /* \"#utility.yul\":12279:12296   */\n      add\n        /* \"#utility.yul\":12272:12319   */\n      mstore\n        /* \"#utility.yul\":12336:12467   */\n      tag_541\n        /* \"#utility.yul\":12462:12466   */\n      dup2\n        /* \"#utility.yul\":12336:12467   */\n      tag_370\n      jump\t// in\n    tag_541:\n        /* \"#utility.yul\":12328:12467   */\n      swap1\n      pop\n        /* \"#utility.yul\":12055:12474   */\n      swap2\n      swap1\n      pop\n      jump\t// out\n        /* \"#utility.yul\":12480:12728   */\n    tag_371:\n        /* \"#utility.yul\":12620:12654   */\n      0x4552433732313a20617070726f76652063616c6c6572206973206e6f7420746f\n        /* \"#utility.yul\":12616:12617   */\n      0x00\n        /* \"#utility.yul\":12608:12614   */\n      dup3\n        /* \"#utility.yul\":12604:12618   */\n      add\n        /* \"#utility.yul\":12597:12655   */\n      mstore\n        /* \"#utility.yul\":12689:12720   */\n      0x6b656e206f776e6572206f7220617070726f76656420666f7220616c6c000000\n        /* \"#utility.yul\":12684:12686   */\n      0x20\n        /* \"#utility.yul\":12676:12682   */\n      dup3\n        /* \"#utility.yul\":12672:12687   */\n      add\n        /* \"#utility.yul\":12665:12721   */\n      mstore\n        /* \"#utility.yul\":12480:12728   */\n      pop\n      jump\t// out\n        /* \"#utility.yul\":12734:13100   */\n    tag_372:\n        /* \"#utility.yul\":12876:12879   */\n      0x00\n        /* \"#utility.yul\":12897:12964   */\n      tag_544\n        /* \"#utility.yul\":12961:12963   */\n      0x3d\n        /* \"#utility.yul\":12956:12959   */\n      dup4\n        /* \"#utility.yul\":12897:12964   */\n      tag_345\n      jump\t// in\n    tag_544:\n        /* \"#utility.yul\":12890:12964   */\n      swap2\n      pop\n        /* \"#utility.yul\":12973:13066   */\n      tag_545\n        /* \"#utility.yul\":13062:13065   */\n      dup3\n        /* \"#utility.yul\":12973:13066   */\n      tag_371\n      jump\t// in\n    tag_545:\n        /* \"#utility.yul\":13091:13093   */\n      0x40\n        /* \"#utility.yul\":13086:13089   */\n      dup3\n        /* \"#utility.yul\":13082:13094   */\n      add\n        /* \"#utility.yul\":13075:13094   */\n      swap1\n      pop\n        /* \"#utility.yul\":12734:13100   */\n      swap2\n      swap1\n      pop\n      jump\t// out\n        /* \"#utility.yul\":13106:13525   */\n    tag_123:\n        /* \"#utility.yul\":13272:13276   */\n      0x00\n        /* \"#utility.yul\":13310:13312   */\n      0x20\n        /* \"#utility.yul\":13299:13308   */\n      dup3\n        /* \"#utility.yul\":13295:13313   */\n      add\n        /* \"#utility.yul\":13287:13313   */\n      swap1\n      pop\n        /* \"#utility.yul\":13359:13368   */\n      dup2\n        /* \"#utility.yul\":13353:13357   */\n      dup2\n        /* \"#utility.yul\":13349:13369   */\n      sub\n        /* \"#utility.yul\":13345:13346   */\n      0x00\n        /* \"#utility.yul\":13334:13343   */\n      dup4\n        /* \"#utility.yul\":13330:13347   */\n      add\n        /* \"#utility.yul\":13323:13370   */\n      mstore\n        /* \"#utility.yul\":13387:13518   */\n      tag_547\n        /* \"#utility.yul\":13513:13517   */\n      dup2\n        /* \"#utility.yul\":13387:13518   */\n      tag_372\n      jump\t// in\n    tag_547:\n        /* \"#utility.yul\":13379:13518   */\n      swap1\n      pop\n        /* \"#utility.yul\":13106:13525   */\n      swap2\n      swap1\n      pop\n      jump\t// out\n        /* \"#utility.yul\":13531:13701   */\n    tag_373:\n        /* \"#utility.yul\":13671:13693   */\n      0x4552433732313a20746f6b656e206c6f636b6564000000000000000000000000\n        /* \"#utility.yul\":13667:13668   */\n      0x00\n        /* \"#utility.yul\":13659:13665   */\n      dup3\n        /* \"#utility.yul\":13655:13669   */\n      add\n        /* \"#utility.yul\":13648:13694   */\n      mstore\n        /* \"#utility.yul\":13531:13701   */\n      pop\n      jump\t// out\n        /* \"#utility.yul\":13707:14073   */\n    tag_374:\n        /* \"#utility.yul\":13849:13852   */\n      0x00\n        /* \"#utility.yul\":13870:13937   */\n      tag_550\n        /* \"#utility.yul\":13934:13936   */\n      0x14\n        /* \"#utility.yul\":13929:13932   */\n      dup4\n        /* \"#utility.yul\":13870:13937   */\n      tag_345\n      jump\t// in\n    tag_550:\n        /* \"#utility.yul\":13863:13937   */\n      swap2\n      pop\n        /* \"#utility.yul\":13946:14039   */\n      tag_551\n        /* \"#utility.yul\":14035:14038   */\n      dup3\n        /* \"#utility.yul\":13946:14039   */\n      tag_373\n      jump\t// in\n    tag_551:\n        /* \"#utility.yul\":14064:14066   */\n      0x20\n        /* \"#utility.yul\":14059:14062   */\n      dup3\n        /* \"#utility.yul\":14055:14067   */\n      add\n        /* \"#utility.yul\":14048:14067   */\n      swap1\n      pop\n        /* \"#utility.yul\":13707:14073   */\n      swap2\n      swap1\n      pop\n      jump\t// out\n        /* \"#utility.yul\":14079:14498   */\n    tag_126:\n        /* \"#utility.yul\":14245:14249   */\n      0x00\n        /* \"#utility.yul\":14283:14285   */\n      0x20\n        /* \"#utility.yul\":14272:14281   */\n      dup3\n        /* \"#utility.yul\":14268:14286   */\n      add\n        /* \"#utility.yul\":14260:14286   */\n      swap1\n      pop\n        /* \"#utility.yul\":14332:14341   */\n      dup2\n        /* \"#utility.yul\":14326:14330   */\n      dup2\n        /* \"#utility.yul\":14322:14342   */\n      sub\n        /* \"#utility.yul\":14318:14319   */\n      0x00\n        /* \"#utility.yul\":14307:14316   */\n      dup4\n        /* \"#utility.yul\":14303:14320   */\n      add\n        /* \"#utility.yul\":14296:14343   */\n      mstore\n        /* \"#utility.yul\":14360:14491   */\n      tag_553\n        /* \"#utility.yul\":14486:14490   */\n      dup2\n        /* \"#utility.yul\":14360:14491   */\n      tag_374\n      jump\t// in\n    tag_553:\n        /* \"#utility.yul\":14352:14491   */\n      swap1\n      pop\n        /* \"#utility.yul\":14079:14498   */\n      swap2\n      swap1\n      pop\n      jump\t// out\n        /* \"#utility.yul\":14504:14736   */\n    tag_375:\n        /* \"#utility.yul\":14644:14678   */\n      0x4552433732313a2063616c6c6572206973206e6f7420746f6b656e206f776e65\n        /* \"#utility.yul\":14640:14641   */\n      0x00\n        /* \"#utility.yul\":14632:14638   */\n      dup3\n        /* \"#utility.yul\":14628:14642   */\n      add\n        /* \"#utility.yul\":14621:14679   */\n      mstore\n        /* \"#utility.yul\":14713:14728   */\n      0x72206f7220617070726f76656400000000000000000000000000000000000000\n        /* \"#utility.yul\":14708:14710   */\n      0x20\n        /* \"#utility.yul\":14700:14706   */\n      dup3\n        /* \"#utility.yul\":14696:14711   */\n      add\n        /* \"#utility.yul\":14689:14729   */\n      mstore\n        /* \"#utility.yul\":14504:14736   */\n      pop\n      jump\t// out\n        /* \"#utility.yul\":14742:15108   */\n    tag_376:\n        /* \"#utility.yul\":14884:14887   */\n      0x00\n        /* \"#utility.yul\":14905:14972   */\n      tag_556\n        /* \"#utility.yul\":14969:14971   */\n      0x2d\n        /* \"#utility.yul\":14964:14967   */\n      dup4\n        /* \"#utility.yul\":14905:14972   */\n      tag_345\n      jump\t// in\n    tag_556:\n        /* \"#utility.yul\":14898:14972   */\n      swap2\n      pop\n        /* \"#utility.yul\":14981:15074   */\n      tag_557\n        /* \"#utility.yul\":15070:15073   */\n      dup3\n        /* \"#utility.yul\":14981:15074   */\n      tag_375\n      jump\t// in\n    tag_557:\n        /* \"#utility.yul\":15099:15101   */\n      0x40\n        /* \"#utility.yul\":15094:15097   */\n      dup3\n        /* \"#utility.yul\":15090:15102   */\n      add\n        /* \"#utility.yul\":15083:15102   */\n      swap1\n      pop\n        /* \"#utility.yul\":14742:15108   */\n      swap2\n      swap1\n      pop\n      jump\t// out\n        /* \"#utility.yul\":15114:15533   */\n    tag_135:\n        /* \"#utility.yul\":15280:15284   */\n      0x00\n        /* \"#utility.yul\":15318:15320   */\n      0x20\n        /* \"#utility.yul\":15307:15316   */\n      dup3\n        /* \"#utility.yul\":15303:15321   */\n      add\n        /* \"#utility.yul\":15295:15321   */\n      swap1\n      pop\n        /* \"#utility.yul\":15367:15376   */\n      dup2\n        /* \"#utility.yul\":15361:15365   */\n      dup2\n        /* \"#utility.yul\":15357:15377   */\n      sub\n        /* \"#utility.yul\":15353:15354   */\n      0x00\n        /* \"#utility.yul\":15342:15351   */\n      dup4\n        /* \"#utility.yul\":15338:15355   */\n      add\n        /* \"#utility.yul\":15331:15378   */\n      mstore\n        /* \"#utility.yul\":15395:15526   */\n      tag_559\n        /* \"#utility.yul\":15521:15525   */\n      dup2\n        /* \"#utility.yul\":15395:15526   */\n      tag_376\n      jump\t// in\n    tag_559:\n        /* \"#utility.yul\":15387:15526   */\n      swap1\n      pop\n        /* \"#utility.yul\":15114:15533   */\n      swap2\n      swap1\n      pop\n      jump\t// out\n        /* \"#utility.yul\":15539:15784   */\n    tag_377:\n        /* \"#utility.yul\":15679:15713   */\n      0x4552433732313a206c6f636b2063616c6c6572206973206e6f7420746f6b656e\n        /* \"#utility.yul\":15675:15676   */\n      0x00\n        /* \"#utility.yul\":15667:15673   */\n      dup3\n        /* \"#utility.yul\":15663:15677   */\n      add\n        /* \"#utility.yul\":15656:15714   */\n      mstore\n        /* \"#utility.yul\":15748:15776   */\n      0x206f776e6572206f7220617070726f76656420666f7220616c6c000000000000\n        /* \"#utility.yul\":15743:15745   */\n      0x20\n        /* \"#utility.yul\":15735:15741   */\n      dup3\n        /* \"#utility.yul\":15731:15746   */\n      add\n        /* \"#utility.yul\":15724:15777   */\n      mstore\n        /* \"#utility.yul\":15539:15784   */\n      pop\n      jump\t// out\n        /* \"#utility.yul\":15790:16156   */\n    tag_378:\n        /* \"#utility.yul\":15932:15935   */\n      0x00\n        /* \"#utility.yul\":15953:16020   */\n      tag_562\n        /* \"#utility.yul\":16017:16019   */\n      0x3a\n        /* \"#utility.yul\":16012:16015   */\n      dup4\n        /* \"#utility.yul\":15953:16020   */\n      tag_345\n      jump\t// in\n    tag_562:\n        /* \"#utility.yul\":15946:16020   */\n      swap2\n      pop\n        /* \"#utility.yul\":16029:16122   */\n      tag_563\n        /* \"#utility.yul\":16118:16121   */\n      dup3\n        /* \"#utility.yul\":16029:16122   */\n      tag_377\n      jump\t// in\n    tag_563:\n        /* \"#utility.yul\":16147:16149   */\n      0x40\n        /* \"#utility.yul\":16142:16145   */\n      dup3\n        /* \"#utility.yul\":16138:16150   */\n      add\n        /* \"#utility.yul\":16131:16150   */\n      swap1\n      pop\n        /* \"#utility.yul\":15790:16156   */\n      swap2\n      swap1\n      pop\n      jump\t// out\n        /* \"#utility.yul\":16162:16581   */\n    tag_145:\n        /* \"#utility.yul\":16328:16332   */\n      0x00\n        /* \"#utility.yul\":16366:16368   */\n      0x20\n        /* \"#utility.yul\":16355:16364   */\n      dup3\n        /* \"#utility.yul\":16351:16369   */\n      add\n        /* \"#utility.yul\":16343:16369   */\n      swap1\n      pop\n        /* \"#utility.yul\":16415:16424   */\n      dup2\n        /* \"#utility.yul\":16409:16413   */\n      dup2\n        /* \"#utility.yul\":16405:16425   */\n      sub\n        /* \"#utility.yul\":16401:16402   */\n      0x00\n        /* \"#utility.yul\":16390:16399   */\n      dup4\n        /* \"#utility.yul\":16386:16403   */\n      add\n        /* \"#utility.yul\":16379:16426   */\n      mstore\n        /* \"#utility.yul\":16443:16574   */\n      tag_565\n        /* \"#utility.yul\":16569:16573   */\n      dup2\n        /* \"#utility.yul\":16443:16574   */\n      tag_378\n      jump\t// in\n    tag_565:\n        /* \"#utility.yul\":16435:16574   */\n      swap1\n      pop\n        /* \"#utility.yul\":16162:16581   */\n      swap2\n      swap1\n      pop\n      jump\t// out\n        /* \"#utility.yul\":16587:16759   */\n    tag_379:\n        /* \"#utility.yul\":16727:16751   */\n      0x4552433732313a20746f6b656e20617070726f76656400000000000000000000\n        /* \"#utility.yul\":16723:16724   */\n      0x00\n        /* \"#utility.yul\":16715:16721   */\n      dup3\n        /* \"#utility.yul\":16711:16725   */\n      add\n        /* \"#utility.yul\":16704:16752   */\n      mstore\n        /* \"#utility.yul\":16587:16759   */\n      pop\n      jump\t// out\n        /* \"#utility.yul\":16765:17131   */\n    tag_380:\n        /* \"#utility.yul\":16907:16910   */\n      0x00\n        /* \"#utility.yul\":16928:16995   */\n      tag_568\n        /* \"#utility.yul\":16992:16994   */\n      0x16\n        /* \"#utility.yul\":16987:16990   */\n      dup4\n        /* \"#utility.yul\":16928:16995   */\n      tag_345\n      jump\t// in\n    tag_568:\n        /* \"#utility.yul\":16921:16995   */\n      swap2\n      pop\n        /* \"#utility.yul\":17004:17097   */\n      tag_569\n        /* \"#utility.yul\":17093:17096   */\n      dup3\n        /* \"#utility.yul\":17004:17097   */\n      tag_379\n      jump\t// in\n    tag_569:\n        /* \"#utility.yul\":17122:17124   */\n      0x20\n        /* \"#utility.yul\":17117:17120   */\n      dup3\n        /* \"#utility.yul\":17113:17125   */\n      add\n        /* \"#utility.yul\":17106:17125   */\n      swap1\n      pop\n        /* \"#utility.yul\":16765:17131   */\n      swap2\n      swap1\n      pop\n      jump\t// out\n        /* \"#utility.yul\":17137:17556   */\n    tag_148:\n        /* \"#utility.yul\":17303:17307   */\n      0x00\n        /* \"#utility.yul\":17341:17343   */\n      0x20\n        /* \"#utility.yul\":17330:17339   */\n      dup3\n        /* \"#utility.yul\":17326:17344   */\n      add\n        /* \"#utility.yul\":17318:17344   */\n      swap1\n      pop\n        /* \"#utility.yul\":17390:17399   */\n      dup2\n        /* \"#utility.yul\":17384:17388   */\n      dup2\n        /* \"#utility.yul\":17380:17400   */\n      sub\n        /* \"#utility.yul\":17376:17377   */\n      0x00\n        /* \"#utility.yul\":17365:17374   */\n      dup4\n        /* \"#utility.yul\":17361:17378   */\n      add\n        /* \"#utility.yul\":17354:17401   */\n      mstore\n        /* \"#utility.yul\":17418:17549   */\n      tag_571\n        /* \"#utility.yul\":17544:17548   */\n      dup2\n        /* \"#utility.yul\":17418:17549   */\n      tag_380\n      jump\t// in\n    tag_571:\n        /* \"#utility.yul\":17410:17549   */\n      swap1\n      pop\n        /* \"#utility.yul\":17137:17556   */\n      swap2\n      swap1\n      pop\n      jump\t// out\n        /* \"#utility.yul\":17562:17736   */\n    tag_381:\n        /* \"#utility.yul\":17702:17728   */\n      0x4552433732313a20696e76616c696420746f6b656e2049440000000000000000\n        /* \"#utility.yul\":17698:17699   */\n      0x00\n        /* \"#utility.yul\":17690:17696   */\n      dup3\n        /* \"#utility.yul\":17686:17700   */\n      add\n        /* \"#utility.yul\":17679:17729   */\n      mstore\n        /* \"#utility.yul\":17562:17736   */\n      pop\n      jump\t// out\n        /* \"#utility.yul\":17742:18108   */\n    tag_382:\n        /* \"#utility.yul\":17884:17887   */\n      0x00\n        /* \"#utility.yul\":17905:17972   */\n      tag_574\n        /* \"#utility.yul\":17969:17971   */\n      0x18\n        /* \"#utility.yul\":17964:17967   */\n      dup4\n        /* \"#utility.yul\":17905:17972   */\n      tag_345\n      jump\t// in\n    tag_574:\n        /* \"#utility.yul\":17898:17972   */\n      swap2\n      pop\n        /* \"#utility.yul\":17981:18074   */\n      tag_575\n        /* \"#utility.yul\":18070:18073   */\n      dup3\n        /* \"#utility.yul\":17981:18074   */\n      tag_381\n      jump\t// in\n    tag_575:\n        /* \"#utility.yul\":18099:18101   */\n      0x20\n        /* \"#utility.yul\":18094:18097   */\n      dup3\n        /* \"#utility.yul\":18090:18102   */\n      add\n        /* \"#utility.yul\":18083:18102   */\n      swap1\n      pop\n        /* \"#utility.yul\":17742:18108   */\n      swap2\n      swap1\n      pop\n      jump\t// out\n        /* \"#utility.yul\":18114:18533   */\n    tag_161:\n        /* \"#utility.yul\":18280:18284   */\n      0x00\n        /* \"#utility.yul\":18318:18320   */\n      0x20\n        /* \"#utility.yul\":18307:18316   */\n      dup3\n        /* \"#utility.yul\":18303:18321   */\n      add\n        /* \"#utility.yul\":18295:18321   */\n      swap1\n      pop\n        /* \"#utility.yul\":18367:18376   */\n      dup2\n        /* \"#utility.yul\":18361:18365   */\n      dup2\n        /* \"#utility.yul\":18357:18377   */\n      sub\n        /* \"#utility.yul\":18353:18354   */\n      0x00\n        /* \"#utility.yul\":18342:18351   */\n      dup4\n        /* \"#utility.yul\":18338:18355   */\n      add\n        /* \"#utility.yul\":18331:18378   */\n      mstore\n        /* \"#utility.yul\":18395:18526   */\n      tag_577\n        /* \"#utility.yul\":18521:18525   */\n      dup2\n        /* \"#utility.yul\":18395:18526   */\n      tag_382\n      jump\t// in\n    tag_577:\n        /* \"#utility.yul\":18387:18526   */\n      swap1\n      pop\n        /* \"#utility.yul\":18114:18533   */\n      swap2\n      swap1\n      pop\n      jump\t// out\n        /* \"#utility.yul\":18539:18767   */\n    tag_383:\n        /* \"#utility.yul\":18679:18713   */\n      0x4552433732313a2061646472657373207a65726f206973206e6f742061207661\n        /* \"#utility.yul\":18675:18676   */\n      0x00\n        /* \"#utility.yul\":18667:18673   */\n      dup3\n        /* \"#utility.yul\":18663:18677   */\n      add\n        /* \"#utility.yul\":18656:18714   */\n      mstore\n        /* \"#utility.yul\":18748:18759   */\n      0x6c6964206f776e65720000000000000000000000000000000000000000000000\n        /* \"#utility.yul\":18743:18745   */\n      0x20\n        /* \"#utility.yul\":18735:18741   */\n      dup3\n        /* \"#utility.yul\":18731:18746   */\n      add\n        /* \"#utility.yul\":18724:18760   */\n      mstore\n        /* \"#utility.yul\":18539:18767   */\n      pop\n      jump\t// out\n        /* \"#utility.yul\":18773:19139   */\n    tag_384:\n        /* \"#utility.yul\":18915:18918   */\n      0x00\n        /* \"#utility.yul\":18936:19003   */\n      tag_580\n        /* \"#utility.yul\":19000:19002   */\n      0x29\n        /* \"#utility.yul\":18995:18998   */\n      dup4\n        /* \"#utility.yul\":18936:19003   */\n      tag_345\n      jump\t// in\n    tag_580:\n        /* \"#utility.yul\":18929:19003   */\n      swap2\n      pop\n        /* \"#utility.yul\":19012:19105   */\n      tag_581\n        /* \"#utility.yul\":19101:19104   */\n      dup3\n        /* \"#utility.yul\":19012:19105   */\n      tag_383\n      jump\t// in\n    tag_581:\n        /* \"#utility.yul\":19130:19132   */\n      0x40\n        /* \"#utility.yul\":19125:19128   */\n      dup3\n        /* \"#utility.yul\":19121:19133   */\n      add\n        /* \"#utility.yul\":19114:19133   */\n      swap1\n      pop\n        /* \"#utility.yul\":18773:19139   */\n      swap2\n      swap1\n      pop\n      jump\t// out\n        /* \"#utility.yul\":19145:19564   */\n    tag_165:\n        /* \"#utility.yul\":19311:19315   */\n      0x00\n        /* \"#utility.yul\":19349:19351   */\n      0x20\n        /* \"#utility.yul\":19338:19347   */\n      dup3\n        /* \"#utility.yul\":19334:19352   */\n      add\n        /* \"#utility.yul\":19326:19352   */\n      swap1\n      pop\n        /* \"#utility.yul\":19398:19407   */\n      dup2\n        /* \"#utility.yul\":19392:19396   */\n      dup2\n        /* \"#utility.yul\":19388:19408   */\n      sub\n        /* \"#utility.yul\":19384:19385   */\n      0x00\n        /* \"#utility.yul\":19373:19382   */\n      dup4\n        /* \"#utility.yul\":19369:19386   */\n      add\n        /* \"#utility.yul\":19362:19409   */\n      mstore\n        /* \"#utility.yul\":19426:19557   */\n      tag_583\n        /* \"#utility.yul\":19552:19556   */\n      dup2\n        /* \"#utility.yul\":19426:19557   */\n      tag_384\n      jump\t// in\n    tag_583:\n        /* \"#utility.yul\":19418:19557   */\n      swap1\n      pop\n        /* \"#utility.yul\":19145:19564   */\n      swap2\n      swap1\n      pop\n      jump\t// out\n        /* \"#utility.yul\":19570:19718   */\n    tag_385:\n        /* \"#utility.yul\":19672:19683   */\n      0x00\n        /* \"#utility.yul\":19709:19712   */\n      dup2\n        /* \"#utility.yul\":19694:19712   */\n      swap1\n      pop\n        /* \"#utility.yul\":19570:19718   */\n      swap3\n      swap2\n      pop\n      pop\n      jump\t// out\n        /* \"#utility.yul\":19724:20114   */\n    tag_386:\n        /* \"#utility.yul\":19830:19833   */\n      0x00\n        /* \"#utility.yul\":19858:19897   */\n      tag_586\n        /* \"#utility.yul\":19891:19896   */\n      dup3\n        /* \"#utility.yul\":19858:19897   */\n      tag_344\n      jump\t// in\n    tag_586:\n        /* \"#utility.yul\":19913:20002   */\n      tag_587\n        /* \"#utility.yul\":19995:20001   */\n      dup2\n        /* \"#utility.yul\":19990:19993   */\n      dup6\n        /* \"#utility.yul\":19913:20002   */\n      tag_385\n      jump\t// in\n    tag_587:\n        /* \"#utility.yul\":19906:20002   */\n      swap4\n      pop\n        /* \"#utility.yul\":20011:20076   */\n      tag_588\n        /* \"#utility.yul\":20069:20075   */\n      dup2\n        /* \"#utility.yul\":20064:20067   */\n      dup6\n        /* \"#utility.yul\":20057:20061   */\n      0x20\n        /* \"#utility.yul\":20050:20055   */\n      dup7\n        /* \"#utility.yul\":20046:20062   */\n      add\n        /* \"#utility.yul\":20011:20076   */\n      tag_346\n      jump\t// in\n    tag_588:\n        /* \"#utility.yul\":20101:20107   */\n      dup1\n        /* \"#utility.yul\":20096:20099   */\n      dup5\n        /* \"#utility.yul\":20092:20108   */\n      add\n        /* \"#utility.yul\":20085:20108   */\n      swap2\n      pop\n        /* \"#utility.yul\":19834:20114   */\n      pop\n        /* \"#utility.yul\":19724:20114   */\n      swap3\n      swap2\n      pop\n      pop\n      jump\t// out\n        /* \"#utility.yul\":20120:20555   */\n    tag_197:\n        /* \"#utility.yul\":20300:20303   */\n      0x00\n        /* \"#utility.yul\":20322:20417   */\n      tag_590\n        /* \"#utility.yul\":20413:20416   */\n      dup3\n        /* \"#utility.yul\":20404:20410   */\n      dup6\n        /* \"#utility.yul\":20322:20417   */\n      tag_386\n      jump\t// in\n    tag_590:\n        /* \"#utility.yul\":20315:20417   */\n      swap2\n      pop\n        /* \"#utility.yul\":20434:20529   */\n      tag_591\n        /* \"#utility.yul\":20525:20528   */\n      dup3\n        /* \"#utility.yul\":20516:20522   */\n      dup5\n        /* \"#utility.yul\":20434:20529   */\n      tag_386\n      jump\t// in\n    tag_591:\n        /* \"#utility.yul\":20427:20529   */\n      swap2\n      pop\n        /* \"#utility.yul\":20546:20549   */\n      dup2\n        /* \"#utility.yul\":20539:20549   */\n      swap1\n      pop\n        /* \"#utility.yul\":20120:20555   */\n      swap4\n      swap3\n      pop\n      pop\n      pop\n      jump\t// out\n        /* \"#utility.yul\":20561:20785   */\n    tag_387:\n        /* \"#utility.yul\":20701:20735   */\n      0x4552433732313a207472616e736665722066726f6d20696e636f727265637420\n        /* \"#utility.yul\":20697:20698   */\n      0x00\n        /* \"#utility.yul\":20689:20695   */\n      dup3\n        /* \"#utility.yul\":20685:20699   */\n      add\n        /* \"#utility.yul\":20678:20736   */\n      mstore\n        /* \"#utility.yul\":20770:20777   */\n      0x6f776e6572000000000000000000000000000000000000000000000000000000\n        /* \"#utility.yul\":20765:20767   */\n      0x20\n        /* \"#utility.yul\":20757:20763   */\n      dup3\n        /* \"#utility.yul\":20753:20768   */\n      add\n        /* \"#utility.yul\":20746:20778   */\n      mstore\n        /* \"#utility.yul\":20561:20785   */\n      pop\n      jump\t// out\n        /* \"#utility.yul\":20791:21157   */\n    tag_388:\n        /* \"#utility.yul\":20933:20936   */\n      0x00\n        /* \"#utility.yul\":20954:21021   */\n      tag_594\n        /* \"#utility.yul\":21018:21020   */\n      0x25\n        /* \"#utility.yul\":21013:21016   */\n      dup4\n        /* \"#utility.yul\":20954:21021   */\n      tag_345\n      jump\t// in\n    tag_594:\n        /* \"#utility.yul\":20947:21021   */\n      swap2\n      pop\n        /* \"#utility.yul\":21030:21123   */\n      tag_595\n        /* \"#utility.yul\":21119:21122   */\n      dup3\n        /* \"#utility.yul\":21030:21123   */\n      tag_387\n      jump\t// in\n    tag_595:\n        /* \"#utility.yul\":21148:21150   */\n      0x40\n        /* \"#utility.yul\":21143:21146   */\n      dup3\n        /* \"#utility.yul\":21139:21151   */\n      add\n        /* \"#utility.yul\":21132:21151   */\n      swap1\n      pop\n        /* \"#utility.yul\":20791:21157   */\n      swap2\n      swap1\n      pop\n      jump\t// out\n        /* \"#utility.yul\":21163:21582   */\n    tag_218:\n        /* \"#utility.yul\":21329:21333   */\n      0x00\n        /* \"#utility.yul\":21367:21369   */\n      0x20\n        /* \"#utility.yul\":21356:21365   */\n      dup3\n        /* \"#utility.yul\":21352:21370   */\n      add\n        /* \"#utility.yul\":21344:21370   */\n      swap1\n      pop\n        /* \"#utility.yul\":21416:21425   */\n      dup2\n        /* \"#utility.yul\":21410:21414   */\n      dup2\n        /* \"#utility.yul\":21406:21426   */\n      sub\n        /* \"#utility.yul\":21402:21403   */\n      0x00\n        /* \"#utility.yul\":21391:21400   */\n      dup4\n        /* \"#utility.yul\":21387:21404   */\n      add\n        /* \"#utility.yul\":21380:21427   */\n      mstore\n        /* \"#utility.yul\":21444:21575   */\n      tag_597\n        /* \"#utility.yul\":21570:21574   */\n      dup2\n        /* \"#utility.yul\":21444:21575   */\n      tag_388\n      jump\t// in\n    tag_597:\n        /* \"#utility.yul\":21436:21575   */\n      swap1\n      pop\n        /* \"#utility.yul\":21163:21582   */\n      swap2\n      swap1\n      pop\n      jump\t// out\n        /* \"#utility.yul\":21588:21811   */\n    tag_389:\n        /* \"#utility.yul\":21728:21762   */\n      0x4552433732313a207472616e7366657220746f20746865207a65726f20616464\n        /* \"#utility.yul\":21724:21725   */\n      0x00\n        /* \"#utility.yul\":21716:21722   */\n      dup3\n        /* \"#utility.yul\":21712:21726   */\n      add\n        /* \"#utility.yul\":21705:21763   */\n      mstore\n        /* \"#utility.yul\":21797:21803   */\n      0x7265737300000000000000000000000000000000000000000000000000000000\n        /* \"#utility.yul\":21792:21794   */\n      0x20\n        /* \"#utility.yul\":21784:21790   */\n      dup3\n        /* \"#utility.yul\":21780:21795   */\n      add\n        /* \"#utility.yul\":21773:21804   */\n      mstore\n        /* \"#utility.yul\":21588:21811   */\n      pop\n      jump\t// out\n        /* \"#utility.yul\":21817:22183   */\n    tag_390:\n        /* \"#utility.yul\":21959:21962   */\n      0x00\n        /* \"#utility.yul\":21980:22047   */\n      tag_600\n        /* \"#utility.yul\":22044:22046   */\n      0x24\n        /* \"#utility.yul\":22039:22042   */\n      dup4\n        /* \"#utility.yul\":21980:22047   */\n      tag_345\n      jump\t// in\n    tag_600:\n        /* \"#utility.yul\":21973:22047   */\n      swap2\n      pop\n        /* \"#utility.yul\":22056:22149   */\n      tag_601\n        /* \"#utility.yul\":22145:22148   */\n      dup3\n        /* \"#utility.yul\":22056:22149   */\n      tag_389\n      jump\t// in\n    tag_601:\n        /* \"#utility.yul\":22174:22176   */\n      0x40\n        /* \"#utility.yul\":22169:22172   */\n      dup3\n        /* \"#utility.yul\":22165:22177   */\n      add\n        /* \"#utility.yul\":22158:22177   */\n      swap1\n      pop\n        /* \"#utility.yul\":21817:22183   */\n      swap2\n      swap1\n      pop\n      jump\t// out\n        /* \"#utility.yul\":22189:22608   */\n    tag_221:\n        /* \"#utility.yul\":22355:22359   */\n      0x00\n        /* \"#utility.yul\":22393:22395   */\n      0x20\n        /* \"#utility.yul\":22382:22391   */\n      dup3\n        /* \"#utility.yul\":22378:22396   */\n      add\n        /* \"#utility.yul\":22370:22396   */\n      swap1\n      pop\n        /* \"#utility.yul\":22442:22451   */\n      dup2\n        /* \"#utility.yul\":22436:22440   */\n      dup2\n        /* \"#utility.yul\":22432:22452   */\n      sub\n        /* \"#utility.yul\":22428:22429   */\n      0x00\n        /* \"#utility.yul\":22417:22426   */\n      dup4\n        /* \"#utility.yul\":22413:22430   */\n      add\n        /* \"#utility.yul\":22406:22453   */\n      mstore\n        /* \"#utility.yul\":22470:22601   */\n      tag_603\n        /* \"#utility.yul\":22596:22600   */\n      dup2\n        /* \"#utility.yul\":22470:22601   */\n      tag_390\n      jump\t// in\n    tag_603:\n        /* \"#utility.yul\":22462:22601   */\n      swap1\n      pop\n        /* \"#utility.yul\":22189:22608   */\n      swap2\n      swap1\n      pop\n      jump\t// out\n        /* \"#utility.yul\":22614:22934   */\n    tag_238:\n        /* \"#utility.yul\":22729:22733   */\n      0x00\n        /* \"#utility.yul\":22767:22769   */\n      0x40\n        /* \"#utility.yul\":22756:22765   */\n      dup3\n        /* \"#utility.yul\":22752:22770   */\n      add\n        /* \"#utility.yul\":22744:22770   */\n      swap1\n      pop\n        /* \"#utility.yul\":22780:22851   */\n      tag_605\n        /* \"#utility.yul\":22848:22849   */\n      0x00\n        /* \"#utility.yul\":22837:22846   */\n      dup4\n        /* \"#utility.yul\":22833:22850   */\n      add\n        /* \"#utility.yul\":22824:22830   */\n      dup6\n        /* \"#utility.yul\":22780:22851   */\n      tag_354\n      jump\t// in\n    tag_605:\n        /* \"#utility.yul\":22861:22927   */\n      tag_606\n        /* \"#utility.yul\":22923:22925   */\n      0x20\n        /* \"#utility.yul\":22912:22921   */\n      dup4\n        /* \"#utility.yul\":22908:22926   */\n      add\n        /* \"#utility.yul\":22899:22905   */\n      dup5\n        /* \"#utility.yul\":22861:22927   */\n      tag_343\n      jump\t// in\n    tag_606:\n        /* \"#utility.yul\":22614:22934   */\n      swap4\n      swap3\n      pop\n      pop\n      pop\n      jump\t// out\n        /* \"#utility.yul\":22940:23115   */\n    tag_391:\n        /* \"#utility.yul\":23080:23107   */\n      0x4552433732313a20617070726f766520746f2063616c6c657200000000000000\n        /* \"#utility.yul\":23076:23077   */\n      0x00\n        /* \"#utility.yul\":23068:23074   */\n      dup3\n        /* \"#utility.yul\":23064:23078   */\n      add\n        /* \"#utility.yul\":23057:23108   */\n      mstore\n        /* \"#utility.yul\":22940:23115   */\n      pop\n      jump\t// out\n        /* \"#utility.yul\":23121:23487   */\n    tag_392:\n        /* \"#utility.yul\":23263:23266   */\n      0x00\n        /* \"#utility.yul\":23284:23351   */\n      tag_609\n        /* \"#utility.yul\":23348:23350   */\n      0x19\n        /* \"#utility.yul\":23343:23346   */\n      dup4\n        /* \"#utility.yul\":23284:23351   */\n      tag_345\n      jump\t// in\n    tag_609:\n        /* \"#utility.yul\":23277:23351   */\n      swap2\n      pop\n        /* \"#utility.yul\":23360:23453   */\n      tag_610\n        /* \"#utility.yul\":23449:23452   */\n      dup3\n        /* \"#utility.yul\":23360:23453   */\n      tag_391\n      jump\t// in\n    tag_610:\n        /* \"#utility.yul\":23478:23480   */\n      0x20\n        /* \"#utility.yul\":23473:23476   */\n      dup3\n        /* \"#utility.yul\":23469:23481   */\n      add\n        /* \"#utility.yul\":23462:23481   */\n      swap1\n      pop\n        /* \"#utility.yul\":23121:23487   */\n      swap2\n      swap1\n      pop\n      jump\t// out\n        /* \"#utility.yul\":23493:23912   */\n    tag_246:\n        /* \"#utility.yul\":23659:23663   */\n      0x00\n        /* \"#utility.yul\":23697:23699   */\n      0x20\n        /* \"#utility.yul\":23686:23695   */\n      dup3\n        /* \"#utility.yul\":23682:23700   */\n      add\n        /* \"#utility.yul\":23674:23700   */\n      swap1\n      pop\n        /* \"#utility.yul\":23746:23755   */\n      dup2\n        /* \"#utility.yul\":23740:23744   */\n      dup2\n        /* \"#utility.yul\":23736:23756   */\n      sub\n        /* \"#utility.yul\":23732:23733   */\n      0x00\n        /* \"#utility.yul\":23721:23730   */\n      dup4\n        /* \"#utility.yul\":23717:23734   */\n      add\n        /* \"#utility.yul\":23710:23757   */\n      mstore\n        /* \"#utility.yul\":23774:23905   */\n      tag_612\n        /* \"#utility.yul\":23900:23904   */\n      dup2\n        /* \"#utility.yul\":23774:23905   */\n      tag_392\n      jump\t// in\n    tag_612:\n        /* \"#utility.yul\":23766:23905   */\n      swap1\n      pop\n        /* \"#utility.yul\":23493:23912   */\n      swap2\n      swap1\n      pop\n      jump\t// out\n        /* \"#utility.yul\":23918:24155   */\n    tag_393:\n        /* \"#utility.yul\":24058:24092   */\n      0x4552433732313a207472616e7366657220746f206e6f6e204552433732315265\n        /* \"#utility.yul\":24054:24055   */\n      0x00\n        /* \"#utility.yul\":24046:24052   */\n      dup3\n        /* \"#utility.yul\":24042:24056   */\n      add\n        /* \"#utility.yul\":24035:24093   */\n      mstore\n        /* \"#utility.yul\":24127:24147   */\n      0x63656976657220696d706c656d656e7465720000000000000000000000000000\n        /* \"#utility.yul\":24122:24124   */\n      0x20\n        /* \"#utility.yul\":24114:24120   */\n      dup3\n        /* \"#utility.yul\":24110:24125   */\n      add\n        /* \"#utility.yul\":24103:24148   */\n      mstore\n        /* \"#utility.yul\":23918:24155   */\n      pop\n      jump\t// out\n        /* \"#utility.yul\":24161:24527   */\n    tag_394:\n        /* \"#utility.yul\":24303:24306   */\n      0x00\n        /* \"#utility.yul\":24324:24391   */\n      tag_615\n        /* \"#utility.yul\":24388:24390   */\n      0x32\n        /* \"#utility.yul\":24383:24386   */\n      dup4\n        /* \"#utility.yul\":24324:24391   */\n      tag_345\n      jump\t// in\n    tag_615:\n        /* \"#utility.yul\":24317:24391   */\n      swap2\n      pop\n        /* \"#utility.yul\":24400:24493   */\n      tag_616\n        /* \"#utility.yul\":24489:24492   */\n      dup3\n        /* \"#utility.yul\":24400:24493   */\n      tag_393\n      jump\t// in\n    tag_616:\n        /* \"#utility.yul\":24518:24520   */\n      0x40\n        /* \"#utility.yul\":24513:24516   */\n      dup3\n        /* \"#utility.yul\":24509:24521   */\n      add\n        /* \"#utility.yul\":24502:24521   */\n      swap1\n      pop\n        /* \"#utility.yul\":24161:24527   */\n      swap2\n      swap1\n      pop\n      jump\t// out\n        /* \"#utility.yul\":24533:24952   */\n    tag_256:\n        /* \"#utility.yul\":24699:24703   */\n      0x00\n        /* \"#utility.yul\":24737:24739   */\n      0x20\n        /* \"#utility.yul\":24726:24735   */\n      dup3\n        /* \"#utility.yul\":24722:24740   */\n      add\n        /* \"#utility.yul\":24714:24740   */\n      swap1\n      pop\n        /* \"#utility.yul\":24786:24795   */\n      dup2\n        /* \"#utility.yul\":24780:24784   */\n      dup2\n        /* \"#utility.yul\":24776:24796   */\n      sub\n        /* \"#utility.yul\":24772:24773   */\n      0x00\n        /* \"#utility.yul\":24761:24770   */\n      dup4\n        /* \"#utility.yul\":24757:24774   */\n      add\n        /* \"#utility.yul\":24750:24797   */\n      mstore\n        /* \"#utility.yul\":24814:24945   */\n      tag_618\n        /* \"#utility.yul\":24940:24944   */\n      dup2\n        /* \"#utility.yul\":24814:24945   */\n      tag_394\n      jump\t// in\n    tag_618:\n        /* \"#utility.yul\":24806:24945   */\n      swap1\n      pop\n        /* \"#utility.yul\":24533:24952   */\n      swap2\n      swap1\n      pop\n      jump\t// out\n        /* \"#utility.yul\":24958:25138   */\n    tag_269:\n        /* \"#utility.yul\":25006:25083   */\n      0x4e487b7100000000000000000000000000000000000000000000000000000000\n        /* \"#utility.yul\":25003:25004   */\n      0x00\n        /* \"#utility.yul\":24996:25084   */\n      mstore\n        /* \"#utility.yul\":25103:25107   */\n      0x12\n        /* \"#utility.yul\":25100:25101   */\n      0x04\n        /* \"#utility.yul\":25093:25108   */\n      mstore\n        /* \"#utility.yul\":25127:25131   */\n      0x24\n        /* \"#utility.yul\":25124:25125   */\n      0x00\n        /* \"#utility.yul\":25117:25132   */\n      revert\n        /* \"#utility.yul\":25144:25242   */\n    tag_395:\n        /* \"#utility.yul\":25195:25201   */\n      0x00\n        /* \"#utility.yul\":25229:25234   */\n      dup2\n        /* \"#utility.yul\":25223:25235   */\n      mload\n        /* \"#utility.yul\":25213:25235   */\n      swap1\n      pop\n        /* \"#utility.yul\":25144:25242   */\n      swap2\n      swap1\n      pop\n      jump\t// out\n        /* \"#utility.yul\":25248:25416   */\n    tag_396:\n        /* \"#utility.yul\":25331:25342   */\n      0x00\n        /* \"#utility.yul\":25365:25371   */\n      dup3\n        /* \"#utility.yul\":25360:25363   */\n      dup3\n        /* \"#utility.yul\":25353:25372   */\n      mstore\n        /* \"#utility.yul\":25405:25409   */\n      0x20\n        /* \"#utility.yul\":25400:25403   */\n      dup3\n        /* \"#utility.yul\":25396:25410   */\n      add\n        /* \"#utility.yul\":25381:25410   */\n      swap1\n      pop\n        /* \"#utility.yul\":25248:25416   */\n      swap3\n      swap2\n      pop\n      pop\n      jump\t// out\n        /* \"#utility.yul\":25422:25795   */\n    tag_397:\n        /* \"#utility.yul\":25508:25511   */\n      0x00\n        /* \"#utility.yul\":25536:25574   */\n      tag_623\n        /* \"#utility.yul\":25568:25573   */\n      dup3\n        /* \"#utility.yul\":25536:25574   */\n      tag_395\n      jump\t// in\n    tag_623:\n        /* \"#utility.yul\":25590:25660   */\n      tag_624\n        /* \"#utility.yul\":25653:25659   */\n      dup2\n        /* \"#utility.yul\":25648:25651   */\n      dup6\n        /* \"#utility.yul\":25590:25660   */\n      tag_396\n      jump\t// in\n    tag_624:\n        /* \"#utility.yul\":25583:25660   */\n      swap4\n      pop\n        /* \"#utility.yul\":25669:25734   */\n      tag_625\n        /* \"#utility.yul\":25727:25733   */\n      dup2\n        /* \"#utility.yul\":25722:25725   */\n      dup6\n        /* \"#utility.yul\":25715:25719   */\n      0x20\n        /* \"#utility.yul\":25708:25713   */\n      dup7\n        /* \"#utility.yul\":25704:25720   */\n      add\n        /* \"#utility.yul\":25669:25734   */\n      tag_346\n      jump\t// in\n    tag_625:\n        /* \"#utility.yul\":25759:25788   */\n      tag_626\n        /* \"#utility.yul\":25781:25787   */\n      dup2\n        /* \"#utility.yul\":25759:25788   */\n      tag_347\n      jump\t// in\n    tag_626:\n        /* \"#utility.yul\":25754:25757   */\n      dup5\n        /* \"#utility.yul\":25750:25789   */\n      add\n        /* \"#utility.yul\":25743:25789   */\n      swap2\n      pop\n        /* \"#utility.yul\":25512:25795   */\n      pop\n        /* \"#utility.yul\":25422:25795   */\n      swap3\n      swap2\n      pop\n      pop\n      jump\t// out\n        /* \"#utility.yul\":25801:26441   */\n    tag_287:\n        /* \"#utility.yul\":25996:26000   */\n      0x00\n        /* \"#utility.yul\":26034:26037   */\n      0x80\n        /* \"#utility.yul\":26023:26032   */\n      dup3\n        /* \"#utility.yul\":26019:26038   */\n      add\n        /* \"#utility.yul\":26011:26038   */\n      swap1\n      pop\n        /* \"#utility.yul\":26048:26119   */\n      tag_628\n        /* \"#utility.yul\":26116:26117   */\n      0x00\n        /* \"#utility.yul\":26105:26114   */\n      dup4\n        /* \"#utility.yul\":26101:26118   */\n      add\n        /* \"#utility.yul\":26092:26098   */\n      dup8\n        /* \"#utility.yul\":26048:26119   */\n      tag_357\n      jump\t// in\n    tag_628:\n        /* \"#utility.yul\":26129:26201   */\n      tag_629\n        /* \"#utility.yul\":26197:26199   */\n      0x20\n        /* \"#utility.yul\":26186:26195   */\n      dup4\n        /* \"#utility.yul\":26182:26200   */\n      add\n        /* \"#utility.yul\":26173:26179   */\n      dup7\n        /* \"#utility.yul\":26129:26201   */\n      tag_357\n      jump\t// in\n    tag_629:\n        /* \"#utility.yul\":26211:26283   */\n      tag_630\n        /* \"#utility.yul\":26279:26281   */\n      0x40\n        /* \"#utility.yul\":26268:26277   */\n      dup4\n        /* \"#utility.yul\":26264:26282   */\n      add\n        /* \"#utility.yul\":26255:26261   */\n      dup6\n        /* \"#utility.yul\":26211:26283   */\n      tag_354\n      jump\t// in\n    tag_630:\n        /* \"#utility.yul\":26330:26339   */\n      dup2\n        /* \"#utility.yul\":26324:26328   */\n      dup2\n        /* \"#utility.yul\":26320:26340   */\n      sub\n        /* \"#utility.yul\":26315:26317   */\n      0x60\n        /* \"#utility.yul\":26304:26313   */\n      dup4\n        /* \"#utility.yul\":26300:26318   */\n      add\n        /* \"#utility.yul\":26293:26341   */\n      mstore\n        /* \"#utility.yul\":26358:26434   */\n      tag_631\n        /* \"#utility.yul\":26429:26433   */\n      dup2\n        /* \"#utility.yul\":26420:26426   */\n      dup5\n        /* \"#utility.yul\":26358:26434   */\n      tag_397\n      jump\t// in\n    tag_631:\n        /* \"#utility.yul\":26350:26434   */\n      swap1\n      pop\n        /* \"#utility.yul\":25801:26441   */\n      swap6\n      swap5\n      pop\n      pop\n      pop\n      pop\n      pop\n      jump\t// out\n        /* \"#utility.yul\":26447:26588   */\n    tag_398:\n        /* \"#utility.yul\":26503:26508   */\n      0x00\n        /* \"#utility.yul\":26534:26540   */\n      dup2\n        /* \"#utility.yul\":26528:26541   */\n      mload\n        /* \"#utility.yul\":26519:26541   */\n      swap1\n      pop\n        /* \"#utility.yul\":26550:26582   */\n      tag_633\n        /* \"#utility.yul\":26576:26581   */\n      dup2\n        /* \"#utility.yul\":26550:26582   */\n      tag_340\n      jump\t// in\n    tag_633:\n        /* \"#utility.yul\":26447:26588   */\n      swap3\n      swap2\n      pop\n      pop\n      jump\t// out\n        /* \"#utility.yul\":26594:26943   */\n    tag_290:\n        /* \"#utility.yul\":26663:26669   */\n      0x00\n        /* \"#utility.yul\":26712:26714   */\n      0x20\n        /* \"#utility.yul\":26700:26709   */\n      dup3\n        /* \"#utility.yul\":26691:26698   */\n      dup5\n        /* \"#utility.yul\":26687:26710   */\n      sub\n        /* \"#utility.yul\":26683:26715   */\n      slt\n        /* \"#utility.yul\":26680:26799   */\n      iszero\n      tag_635\n      jumpi\n        /* \"#utility.yul\":26718:26797   */\n      tag_636\n      tag_337\n      jump\t// in\n    tag_636:\n        /* \"#utility.yul\":26680:26799   */\n    tag_635:\n        /* \"#utility.yul\":26838:26839   */\n      0x00\n        /* \"#utility.yul\":26863:26926   */\n      tag_637\n        /* \"#utility.yul\":26918:26925   */\n      dup5\n        /* \"#utility.yul\":26909:26915   */\n      dup3\n        /* \"#utility.yul\":26898:26907   */\n      dup6\n        /* \"#utility.yul\":26894:26916   */\n      add\n        /* \"#utility.yul\":26863:26926   */\n      tag_398\n      jump\t// in\n    tag_637:\n        /* \"#utility.yul\":26853:26926   */\n      swap2\n      pop\n        /* \"#utility.yul\":26809:26936   */\n      pop\n        /* \"#utility.yul\":26594:26943   */\n      swap3\n      swap2\n      pop\n      pop\n      jump\t// out\n        /* \"#utility.yul\":26949:27131   */\n    tag_399:\n        /* \"#utility.yul\":27089:27123   */\n      0x4552433732313a206d696e7420746f20746865207a65726f2061646472657373\n        /* \"#utility.yul\":27085:27086   */\n      0x00\n        /* \"#utility.yul\":27077:27083   */\n      dup3\n        /* \"#utility.yul\":27073:27087   */\n      add\n        /* \"#utility.yul\":27066:27124   */\n      mstore\n        /* \"#utility.yul\":26949:27131   */\n      pop\n      jump\t// out\n        /* \"#utility.yul\":27137:27503   */\n    tag_400:\n        /* \"#utility.yul\":27279:27282   */\n      0x00\n        /* \"#utility.yul\":27300:27367   */\n      tag_640\n        /* \"#utility.yul\":27364:27366   */\n      0x20\n        /* \"#utility.yul\":27359:27362   */\n      dup4\n        /* \"#utility.yul\":27300:27367   */\n      tag_345\n      jump\t// in\n    tag_640:\n        /* \"#utility.yul\":27293:27367   */\n      swap2\n      pop\n        /* \"#utility.yul\":27376:27469   */\n      tag_641\n        /* \"#utility.yul\":27465:27468   */\n      dup3\n        /* \"#utility.yul\":27376:27469   */\n      tag_399\n      jump\t// in\n    tag_641:\n        /* \"#utility.yul\":27494:27496   */\n      0x20\n        /* \"#utility.yul\":27489:27492   */\n      dup3\n        /* \"#utility.yul\":27485:27497   */\n      add\n        /* \"#utility.yul\":27478:27497   */\n      swap1\n      pop\n        /* \"#utility.yul\":27137:27503   */\n      swap2\n      swap1\n      pop\n      jump\t// out\n        /* \"#utility.yul\":27509:27928   */\n    tag_325:\n        /* \"#utility.yul\":27675:27679   */\n      0x00\n        /* \"#utility.yul\":27713:27715   */\n      0x20\n        /* \"#utility.yul\":27702:27711   */\n      dup3\n        /* \"#utility.yul\":27698:27716   */\n      add\n        /* \"#utility.yul\":27690:27716   */\n      swap1\n      pop\n        /* \"#utility.yul\":27762:27771   */\n      dup2\n        /* \"#utility.yul\":27756:27760   */\n      dup2\n        /* \"#utility.yul\":27752:27772   */\n      sub\n        /* \"#utility.yul\":27748:27749   */\n      0x00\n        /* \"#utility.yul\":27737:27746   */\n      dup4\n        /* \"#utility.yul\":27733:27750   */\n      add\n        /* \"#utility.yul\":27726:27773   */\n      mstore\n        /* \"#utility.yul\":27790:27921   */\n      tag_643\n        /* \"#utility.yul\":27916:27920   */\n      dup2\n        /* \"#utility.yul\":27790:27921   */\n      tag_400\n      jump\t// in\n    tag_643:\n        /* \"#utility.yul\":27782:27921   */\n      swap1\n      pop\n        /* \"#utility.yul\":27509:27928   */\n      swap2\n      swap1\n      pop\n      jump\t// out\n        /* \"#utility.yul\":27934:28112   */\n    tag_401:\n        /* \"#utility.yul\":28074:28104   */\n      0x4552433732313a20746f6b656e20616c7265616479206d696e74656400000000\n        /* \"#utility.yul\":28070:28071   */\n      0x00\n        /* \"#utility.yul\":28062:28068   */\n      dup3\n        /* \"#utility.yul\":28058:28072   */\n      add\n        /* \"#utility.yul\":28051:28105   */\n      mstore\n        /* \"#utility.yul\":27934:28112   */\n      pop\n      jump\t// out\n        /* \"#utility.yul\":28118:28484   */\n    tag_402:\n        /* \"#utility.yul\":28260:28263   */\n      0x00\n        /* \"#utility.yul\":28281:28348   */\n      tag_646\n        /* \"#utility.yul\":28345:28347   */\n      0x1c\n        /* \"#utility.yul\":28340:28343   */\n      dup4\n        /* \"#utility.yul\":28281:28348   */\n      tag_345\n      jump\t// in\n    tag_646:\n        /* \"#utility.yul\":28274:28348   */\n      swap2\n      pop\n        /* \"#utility.yul\":28357:28450   */\n      tag_647\n        /* \"#utility.yul\":28446:28449   */\n      dup3\n        /* \"#utility.yul\":28357:28450   */\n      tag_401\n      jump\t// in\n    tag_647:\n        /* \"#utility.yul\":28475:28477   */\n      0x20\n        /* \"#utility.yul\":28470:28473   */\n      dup3\n        /* \"#utility.yul\":28466:28478   */\n      add\n        /* \"#utility.yul\":28459:28478   */\n      swap1\n      pop\n        /* \"#utility.yul\":28118:28484   */\n      swap2\n      swap1\n      pop\n      jump\t// out\n        /* \"#utility.yul\":28490:28909   */\n    tag_329:\n        /* \"#utility.yul\":28656:28660   */\n      0x00\n        /* \"#utility.yul\":28694:28696   */\n      0x20\n        /* \"#utility.yul\":28683:28692   */\n      dup3\n        /* \"#utility.yul\":28679:28697   */\n      add\n        /* \"#utility.yul\":28671:28697   */\n      swap1\n      pop\n        /* \"#utility.yul\":28743:28752   */\n      dup2\n        /* \"#utility.yul\":28737:28741   */\n      dup2\n        /* \"#utility.yul\":28733:28753   */\n      sub\n        /* \"#utility.yul\":28729:28730   */\n      0x00\n        /* \"#utility.yul\":28718:28727   */\n      dup4\n        /* \"#utility.yul\":28714:28731   */\n      add\n        /* \"#utility.yul\":28707:28754   */\n      mstore\n        /* \"#utility.yul\":28771:28902   */\n      tag_649\n        /* \"#utility.yul\":28897:28901   */\n      dup2\n        /* \"#utility.yul\":28771:28902   */\n      tag_402\n      jump\t// in\n    tag_649:\n        /* \"#utility.yul\":28763:28902   */\n      swap1\n      pop\n        /* \"#utility.yul\":28490:28909   */\n      swap2\n      swap1\n      pop\n      jump\t// out\n\n    auxdata: 0xa2646970667358221220b85985d3d78a20dc6f092cdbb38426ac5299eadcb7f279c37e5fcfdac12d746964736f6c63430008120033\n}\n",
				"bytecode": {
					"linkReferences": {},
					"object": "60806040523480156200001157600080fd5b50604051620032c6380380620032c68339818101604052810190620000379190620001f6565b8160009081620000489190620004c6565b5080600190816200005a9190620004c6565b505050620005ad565b6000604051905090565b600080fd5b600080fd5b600080fd5b600080fd5b6000601f19601f8301169050919050565b7f4e487b7100000000000000000000000000000000000000000000000000000000600052604160045260246000fd5b620000cc8262000081565b810181811067ffffffffffffffff82111715620000ee57620000ed62000092565b5b80604052505050565b60006200010362000063565b9050620001118282620000c1565b919050565b600067ffffffffffffffff82111562000134576200013362000092565b5b6200013f8262000081565b9050602081019050919050565b60005b838110156200016c5780820151818401526020810190506200014f565b60008484015250505050565b60006200018f620001898462000116565b620000f7565b905082815260208101848484011115620001ae57620001ad6200007c565b5b620001bb8482856200014c565b509392505050565b600082601f830112620001db57620001da62000077565b5b8151620001ed84826020860162000178565b91505092915050565b6000806040838503121562000210576200020f6200006d565b5b600083015167ffffffffffffffff81111562000231576200023062000072565b5b6200023f85828601620001c3565b925050602083015167ffffffffffffffff81111562000263576200026262000072565b5b6200027185828601620001c3565b9150509250929050565b600081519050919050565b7f4e487b7100000000000000000000000000000000000000000000000000000000600052602260045260246000fd5b60006002820490506001821680620002ce57607f821691505b602082108103620002e457620002e362000286565b5b50919050565b60008190508160005260206000209050919050565b60006020601f8301049050919050565b600082821b905092915050565b6000600883026200034e7fffffffffffffffffffffffffffffffffffffffffffffffffffffffffffffffff826200030f565b6200035a86836200030f565b95508019841693508086168417925050509392505050565b6000819050919050565b6000819050919050565b6000620003a7620003a16200039b8462000372565b6200037c565b62000372565b9050919050565b6000819050919050565b620003c38362000386565b620003db620003d282620003ae565b8484546200031c565b825550505050565b600090565b620003f2620003e3565b620003ff818484620003b8565b505050565b5b8181101562000427576200041b600082620003e8565b60018101905062000405565b5050565b601f82111562000476576200044081620002ea565b6200044b84620002ff565b810160208510156200045b578190505b620004736200046a85620002ff565b83018262000404565b50505b505050565b600082821c905092915050565b60006200049b600019846008026200047b565b1980831691505092915050565b6000620004b6838362000488565b9150826002028217905092915050565b620004d1826200027b565b67ffffffffffffffff811115620004ed57620004ec62000092565b5b620004f98254620002b5565b620005068282856200042b565b600060209050601f8311600181146200053e576000841562000529578287015190505b620005358582620004a8565b865550620005a5565b601f1984166200054e86620002ea565b60005b82811015620005785784890151825560018201915060208501945060208101905062000551565b8683101562000598578489015162000594601f89168262000488565b8355505b6001600288020188555050505b505050505050565b612d0980620005bd6000396000f3fe608060405234801561001057600080fd5b506004361061010b5760003560e01c806342842e0e116100a2578063a0712d6811610071578063a0712d68146102dc578063a22cb465146102f8578063b88d4fde14610314578063c87b56dd14610330578063e985e9c5146103605761010b565b806342842e0e146102425780636352211e1461025e57806370a082311461028e57806395d89b41146102be5761010b565b8063095ea7b3116100de578063095ea7b3146101be57806323b872dd146101da578063346c94cf146101f65780633b035df6146102125761010b565b806301ffc9a71461011057806306fdde031461014057806307f0661c1461015e578063081812fc1461018e575b600080fd5b61012a60048036038101906101259190611e32565b610390565b6040516101379190611e7a565b60405180910390f35b610148610472565b6040516101559190611f25565b60405180910390f35b61017860048036038101906101739190611fa5565b610504565b6040516101859190611feb565b60405180910390f35b6101a860048036038101906101a39190612032565b61054d565b6040516101b5919061206e565b60405180910390f35b6101d860048036038101906101d39190612089565b610593565b005b6101f460048036038101906101ef91906120c9565b61070b565b005b610210600480360381019061020b9190612148565b6107cc565b005b61022c60048036038101906102279190612032565b61098c565b6040516102399190611e7a565b60405180910390f35b61025c600480360381019061025791906120c9565b6109b6565b005b61027860048036038101906102739190612032565b6109d6565b604051610285919061206e565b60405180910390f35b6102a860048036038101906102a39190611fa5565b610a5c565b6040516102b59190611feb565b60405180910390f35b6102c6610b13565b6040516102d39190611f25565b60405180910390f35b6102f660048036038101906102f19190612032565b610ba5565b005b610312600480360381019061030d9190612188565b610bb2565b005b61032e600480360381019061032991906122fd565b610bc8565b005b61034a60048036038101906103459190612032565b610c8b565b6040516103579190611f25565b60405180910390f35b61037a60048036038101906103759190612380565b610cf3565b6040516103879190611e7a565b60405180910390f35b60007f2842da80000000000000000000000000000000000000000000000000000000007bffffffffffffffffffffffffffffffffffffffffffffffffffffffff1916827bffffffffffffffffffffffffffffffffffffffffffffffffffffffff1916148061045b57507f5b5e139f000000000000000000000000000000000000000000000000000000007bffffffffffffffffffffffffffffffffffffffffffffffffffffffff1916827bffffffffffffffffffffffffffffffffffffffffffffffffffffffff1916145b8061046b575061046a82610d87565b5b9050919050565b606060008054610481906123ef565b80601f01602080910402602001604051908101604052809291908181526020018280546104ad906123ef565b80156104fa5780601f106104cf576101008083540402835291602001916104fa565b820191906000526020600020905b8154815290600101906020018083116104dd57829003601f168201915b5050505050905090565b6000600860008373ffffffffffffffffffffffffffffffffffffffff1673ffffffffffffffffffffffffffffffffffffffff168152602001908152602001600020549050919050565b600061055882610df1565b6004600083815260200190815260200160002060009054906101000a900473ffffffffffffffffffffffffffffffffffffffff169050919050565b600061059e826109d6565b90508073ffffffffffffffffffffffffffffffffffffffff168373ffffffffffffffffffffffffffffffffffffffff160361060e576040517f08c379a000000000000000000000000000000000000000000000000000000000815260040161060590612492565b60405180910390fd5b8073ffffffffffffffffffffffffffffffffffffffff1661062d610e3c565b73ffffffffffffffffffffffffffffffffffffffff16148061065c575061065b81610656610e3c565b610cf3565b5b61069b576040517f08c379a000000000000000000000000000000000000000000000000000000000815260040161069290612524565b60405180910390fd5b6006600083815260200190815260200160002060009054906101000a900460ff16156106fc576040517f08c379a00000000000000000000000000000000000000000000000000000000081526004016106f390612590565b60405180910390fd5b6107068383610e44565b505050565b61071c610716610e3c565b82610efd565b61075b576040517f08c379a000000000000000000000000000000000000000000000000000000000815260040161075290612622565b60405180910390fd5b6006600082815260200190815260200160002060009054906101000a900460ff16156107bc576040517f08c379a00000000000000000000000000000000000000000000000000000000081526004016107b390612590565b60405180910390fd5b6107c7838383610f92565b505050565b60006107d7836109d6565b90508073ffffffffffffffffffffffffffffffffffffffff166107f8610e3c565b73ffffffffffffffffffffffffffffffffffffffff161461084e576040517f08c379a0000000000000000000000000000000000000000000000000000000008152600401610845906126b4565b60405180910390fd5b600073ffffffffffffffffffffffffffffffffffffffff166004600085815260200190815260200160002060009054906101000a900473ffffffffffffffffffffffffffffffffffffffff1673ffffffffffffffffffffffffffffffffffffffff16146108f0576040517f08c379a00000000000000000000000000000000000000000000000000000000081526004016108e790612720565b60405180910390fd5b600760008273ffffffffffffffffffffffffffffffffffffffff1673ffffffffffffffffffffffffffffffffffffffff16815260200190815260200160002060009054906101000a900460ff161561097d576040517f08c379a000000000000000000000000000000000000000000000000000000000815260040161097490612720565b60405180910390fd5b610987838361128b565b505050565b60006006600083815260200190815260200160002060009054906101000a900460ff169050919050565b6109d183838360405180602001604052806000815250610bc8565b505050565b6000806109e283611423565b9050600073ffffffffffffffffffffffffffffffffffffffff168173ffffffffffffffffffffffffffffffffffffffff1603610a53576040517f08c379a0000000000000000000000000000000000000000000000000000000008152600401610a4a9061278c565b60405180910390fd5b80915050919050565b60008073ffffffffffffffffffffffffffffffffffffffff168273ffffffffffffffffffffffffffffffffffffffff1603610acc576040517f08c379a0000000000000000000000000000000000000000000000000000000008152600401610ac39061281e565b60405180910390fd5b600360008373ffffffffffffffffffffffffffffffffffffffff1673ffffffffffffffffffffffffffffffffffffffff168152602001908152602001600020549050919050565b606060018054610b22906123ef565b80601f0160208091040260200160405190810160405280929190818152602001828054610b4e906123ef565b8015610b9b5780601f10610b7057610100808354040283529160200191610b9b565b820191906000526020600020905b815481529060010190602001808311610b7e57829003601f168201915b5050505050905090565b610baf3382611460565b50565b610bc4610bbd610e3c565b838361147e565b5050565b610bd9610bd3610e3c565b83610efd565b610c18576040517f08c379a0000000000000000000000000000000000000000000000000000000008152600401610c0f90612622565b60405180910390fd5b6006600083815260200190815260200160002060009054906101000a900460ff1615610c79576040517f08c379a0000000000000000000000000000000000000000000000000000000008152600401610c7090612590565b60405180910390fd5b610c85848484846116c3565b50505050565b6060610c9682610df1565b6000610ca061171f565b90506000815111610cc05760405180602001604052806000815250610ceb565b80610cca84611736565b604051602001610cdb92919061287a565b6040516020818303038152906040525b915050919050565b6000600560008473ffffffffffffffffffffffffffffffffffffffff1673ffffffffffffffffffffffffffffffffffffffff16815260200190815260200160002060008373ffffffffffffffffffffffffffffffffffffffff1673ffffffffffffffffffffffffffffffffffffffff16815260200190815260200160002060009054906101000a900460ff16905092915050565b60007f01ffc9a7000000000000000000000000000000000000000000000000000000007bffffffffffffffffffffffffffffffffffffffffffffffffffffffff1916827bffffffffffffffffffffffffffffffffffffffffffffffffffffffff1916149050919050565b610dfa81611804565b610e39576040517f08c379a0000000000000000000000000000000000000000000000000000000008152600401610e309061278c565b60405180910390fd5b50565b600033905090565b816004600083815260200190815260200160002060006101000a81548173ffffffffffffffffffffffffffffffffffffffff021916908373ffffffffffffffffffffffffffffffffffffffff160217905550808273ffffffffffffffffffffffffffffffffffffffff16610eb7836109d6565b73ffffffffffffffffffffffffffffffffffffffff167f8c5be1e5ebec7d5bd14f71427d1e84f3dd0314c0f7b2291e5b200ac8c7c3b92560405160405180910390a45050565b600080610f09836109d6565b90508073ffffffffffffffffffffffffffffffffffffffff168473ffffffffffffffffffffffffffffffffffffffff161480610f4b5750610f4a8185610cf3565b5b80610f8957508373ffffffffffffffffffffffffffffffffffffffff16610f718461054d565b73ffffffffffffffffffffffffffffffffffffffff16145b91505092915050565b8273ffffffffffffffffffffffffffffffffffffffff16610fb2826109d6565b73ffffffffffffffffffffffffffffffffffffffff1614611008576040517f08c379a0000000000000000000000000000000000000000000000000000000008152600401610fff90612910565b60405180910390fd5b600073ffffffffffffffffffffffffffffffffffffffff168273ffffffffffffffffffffffffffffffffffffffff1603611077576040517f08c379a000000000000000000000000000000000000000000000000000000000815260040161106e906129a2565b60405180910390fd5b6110848383836001611845565b8273ffffffffffffffffffffffffffffffffffffffff166110a4826109d6565b73ffffffffffffffffffffffffffffffffffffffff16146110fa576040517f08c379a00000000000000000000000000000000000000000000000000000000081526004016110f190612910565b60405180910390fd5b6004600082815260200190815260200160002060006101000a81549073ffffffffffffffffffffffffffffffffffffffff02191690556001600360008573ffffffffffffffffffffffffffffffffffffffff1673ffffffffffffffffffffffffffffffffffffffff168152602001908152602001600020600082825403925050819055506001600360008473ffffffffffffffffffffffffffffffffffffffff1673ffffffffffffffffffffffffffffffffffffffff16815260200190815260200160002060008282540192505081905550816002600083815260200190815260200160002060006101000a81548173ffffffffffffffffffffffffffffffffffffffff021916908373ffffffffffffffffffffffffffffffffffffffff160217905550808273ffffffffffffffffffffffffffffffffffffffff168473ffffffffffffffffffffffffffffffffffffffff167fddf252ad1be2c89b69c2b068fc378daa952ba7f163c4a11628f55a4df523b3ef60405160405180910390a4611286838383600161184b565b505050565b6000611296836109d6565b90508180156112c357506006600084815260200190815260200160002060009054906101000a900460ff16155b1561131b576001600860008373ffffffffffffffffffffffffffffffffffffffff1673ffffffffffffffffffffffffffffffffffffffff1681526020019081526020016000206000828254019250508190555061139b565b8115801561134657506006600084815260200190815260200160002060009054906101000a900460ff165b1561139a576001600860008373ffffffffffffffffffffffffffffffffffffffff1673ffffffffffffffffffffffffffffffffffffffff168152602001908152602001600020600082825403925050819055505b5b816006600085815260200190815260200160002060006101000a81548160ff0219169083151502179055506113cf836109d6565b73ffffffffffffffffffffffffffffffffffffffff167fb5aaf11176f7b5020892b8a131e119463931075db10e5e370c7d63292206ec6384846040516114169291906129c2565b60405180910390a2505050565b60006002600083815260200190815260200160002060009054906101000a900473ffffffffffffffffffffffffffffffffffffffff169050919050565b61147a828260405180602001604052806000815250611851565b5050565b8173ffffffffffffffffffffffffffffffffffffffff168373ffffffffffffffffffffffffffffffffffffffff16036114ec576040517f08c379a00000000000000000000000000000000000000000000000000000000081526004016114e390612a37565b60405180910390fd5b6000600860008573ffffffffffffffffffffffffffffffffffffffff1673ffffffffffffffffffffffffffffffffffffffff168152602001908152602001600020541461156e576040517f08c379a000000000000000000000000000000000000000000000000000000000815260040161156590612590565b60405180910390fd5b80600560008573ffffffffffffffffffffffffffffffffffffffff1673ffffffffffffffffffffffffffffffffffffffff16815260200190815260200160002060008473ffffffffffffffffffffffffffffffffffffffff1673ffffffffffffffffffffffffffffffffffffffff16815260200190815260200160002060006101000a81548160ff02191690831515021790555080600760008573ffffffffffffffffffffffffffffffffffffffff1673ffffffffffffffffffffffffffffffffffffffff16815260200190815260200160002060006101000a81548160ff0219169083151502179055508173ffffffffffffffffffffffffffffffffffffffff168373ffffffffffffffffffffffffffffffffffffffff167f17307eab39ab6107e8899845ad3d59bd9653f200f220920489ca2b5937696c31836040516116b69190611e7a565b60405180910390a3505050565b6116ce848484610f92565b6116da848484846118ac565b611719576040517f08c379a000000000000000000000000000000000000000000000000000000000815260040161171090612ac9565b60405180910390fd5b50505050565b606060405180602001604052806000815250905090565b60606000600161174584611a33565b01905060008167ffffffffffffffff811115611764576117636121d2565b5b6040519080825280601f01601f1916602001820160405280156117965781602001600182028036833780820191505090505b509050600082602001820190505b6001156117f9578080600190039150507f3031323334353637383961626364656600000000000000000000000000000000600a86061a8153600a85816117ed576117ec612ae9565b5b049450600085036117a4575b819350505050919050565b60008073ffffffffffffffffffffffffffffffffffffffff1661182683611423565b73ffffffffffffffffffffffffffffffffffffffff1614159050919050565b50505050565b50505050565b61185b8383611b86565b61186860008484846118ac565b6118a7576040517f08c379a000000000000000000000000000000000000000000000000000000000815260040161189e90612ac9565b60405180910390fd5b505050565b60006118cd8473ffffffffffffffffffffffffffffffffffffffff16611da3565b15611a26578373ffffffffffffffffffffffffffffffffffffffff1663150b7a026118f6610e3c565b8786866040518563ffffffff1660e01b81526004016119189493929190612b6d565b6020604051808303816000875af192505050801561195457506040513d601f19601f820116820180604052508101906119519190612bce565b60015b6119d6573d8060008114611984576040519150601f19603f3d011682016040523d82523d6000602084013e611989565b606091505b5060008151036119ce576040517f08c379a00000000000000000000000000000000000000000000000000000000081526004016119c590612ac9565b60405180910390fd5b805181602001fd5b63150b7a0260e01b7bffffffffffffffffffffffffffffffffffffffffffffffffffffffff1916817bffffffffffffffffffffffffffffffffffffffffffffffffffffffff191614915050611a2b565b600190505b949350505050565b600080600090507a184f03e93ff9f4daa797ed6e38ed64bf6a1f0100000000000000008310611a91577a184f03e93ff9f4daa797ed6e38ed64bf6a1f0100000000000000008381611a8757611a86612ae9565b5b0492506040810190505b6d04ee2d6d415b85acef81000000008310611ace576d04ee2d6d415b85acef81000000008381611ac457611ac3612ae9565b5b0492506020810190505b662386f26fc100008310611afd57662386f26fc100008381611af357611af2612ae9565b5b0492506010810190505b6305f5e1008310611b26576305f5e1008381611b1c57611b1b612ae9565b5b0492506008810190505b6127108310611b4b576127108381611b4157611b40612ae9565b5b0492506004810190505b60648310611b6e5760648381611b6457611b63612ae9565b5b0492506002810190505b600a8310611b7d576001810190505b80915050919050565b600073ffffffffffffffffffffffffffffffffffffffff168273ffffffffffffffffffffffffffffffffffffffff1603611bf5576040517f08c379a0000000000000000000000000000000000000000000000000000000008152600401611bec90612c47565b60405180910390fd5b611bfe81611804565b15611c3e576040517f08c379a0000000000000000000000000000000000000000000000000000000008152600401611c3590612cb3565b60405180910390fd5b611c4c600083836001611845565b611c5581611804565b15611c95576040517f08c379a0000000000000000000000000000000000000000000000000000000008152600401611c8c90612cb3565b60405180910390fd5b6001600360008473ffffffffffffffffffffffffffffffffffffffff1673ffffffffffffffffffffffffffffffffffffffff16815260200190815260200160002060008282540192505081905550816002600083815260200190815260200160002060006101000a81548173ffffffffffffffffffffffffffffffffffffffff021916908373ffffffffffffffffffffffffffffffffffffffff160217905550808273ffffffffffffffffffffffffffffffffffffffff16600073ffffffffffffffffffffffffffffffffffffffff167fddf252ad1be2c89b69c2b068fc378daa952ba7f163c4a11628f55a4df523b3ef60405160405180910390a4611d9f60008383600161184b565b5050565b6000808273ffffffffffffffffffffffffffffffffffffffff163b119050919050565b6000604051905090565b600080fd5b600080fd5b60007fffffffff0000000000000000000000000000000000000000000000000000000082169050919050565b611e0f81611dda565b8114611e1a57600080fd5b50565b600081359050611e2c81611e06565b92915050565b600060208284031215611e4857611e47611dd0565b5b6000611e5684828501611e1d565b91505092915050565b60008115159050919050565b611e7481611e5f565b82525050565b6000602082019050611e8f6000830184611e6b565b92915050565b600081519050919050565b600082825260208201905092915050565b60005b83811015611ecf578082015181840152602081019050611eb4565b60008484015250505050565b6000601f19601f8301169050919050565b6000611ef782611e95565b611f018185611ea0565b9350611f11818560208601611eb1565b611f1a81611edb565b840191505092915050565b60006020820190508181036000830152611f3f8184611eec565b905092915050565b600073ffffffffffffffffffffffffffffffffffffffff82169050919050565b6000611f7282611f47565b9050919050565b611f8281611f67565b8114611f8d57600080fd5b50565b600081359050611f9f81611f79565b92915050565b600060208284031215611fbb57611fba611dd0565b5b6000611fc984828501611f90565b91505092915050565b6000819050919050565b611fe581611fd2565b82525050565b60006020820190506120006000830184611fdc565b92915050565b61200f81611fd2565b811461201a57600080fd5b50565b60008135905061202c81612006565b92915050565b60006020828403121561204857612047611dd0565b5b60006120568482850161201d565b91505092915050565b61206881611f67565b82525050565b6000602082019050612083600083018461205f565b92915050565b600080604083850312156120a05761209f611dd0565b5b60006120ae85828601611f90565b92505060206120bf8582860161201d565b9150509250929050565b6000806000606084860312156120e2576120e1611dd0565b5b60006120f086828701611f90565b935050602061210186828701611f90565b92505060406121128682870161201d565b9150509250925092565b61212581611e5f565b811461213057600080fd5b50565b6000813590506121428161211c565b92915050565b6000806040838503121561215f5761215e611dd0565b5b600061216d8582860161201d565b925050602061217e85828601612133565b9150509250929050565b6000806040838503121561219f5761219e611dd0565b5b60006121ad85828601611f90565b92505060206121be85828601612133565b9150509250929050565b600080fd5b600080fd5b7f4e487b7100000000000000000000000000000000000000000000000000000000600052604160045260246000fd5b61220a82611edb565b810181811067ffffffffffffffff82111715612229576122286121d2565b5b80604052505050565b600061223c611dc6565b90506122488282612201565b919050565b600067ffffffffffffffff821115612268576122676121d2565b5b61227182611edb565b9050602081019050919050565b82818337600083830152505050565b60006122a061229b8461224d565b612232565b9050828152602081018484840111156122bc576122bb6121cd565b5b6122c784828561227e565b509392505050565b600082601f8301126122e4576122e36121c8565b5b81356122f484826020860161228d565b91505092915050565b6000806000806080858703121561231757612316611dd0565b5b600061232587828801611f90565b945050602061233687828801611f90565b93505060406123478782880161201d565b925050606085013567ffffffffffffffff81111561236857612367611dd5565b5b612374878288016122cf565b91505092959194509250565b6000806040838503121561239757612396611dd0565b5b60006123a585828601611f90565b92505060206123b685828601611f90565b9150509250929050565b7f4e487b7100000000000000000000000000000000000000000000000000000000600052602260045260246000fd5b6000600282049050600182168061240757607f821691505b60208210810361241a576124196123c0565b5b50919050565b7f4552433732313a20617070726f76616c20746f2063757272656e74206f776e6560008201527f7200000000000000000000000000000000000000000000000000000000000000602082015250565b600061247c602183611ea0565b915061248782612420565b604082019050919050565b600060208201905081810360008301526124ab8161246f565b9050919050565b7f4552433732313a20617070726f76652063616c6c6572206973206e6f7420746f60008201527f6b656e206f776e6572206f7220617070726f76656420666f7220616c6c000000602082015250565b600061250e603d83611ea0565b9150612519826124b2565b604082019050919050565b6000602082019050818103600083015261253d81612501565b9050919050565b7f4552433732313a20746f6b656e206c6f636b6564000000000000000000000000600082015250565b600061257a601483611ea0565b915061258582612544565b602082019050919050565b600060208201905081810360008301526125a98161256d565b9050919050565b7f4552433732313a2063616c6c6572206973206e6f7420746f6b656e206f776e6560008201527f72206f7220617070726f76656400000000000000000000000000000000000000602082015250565b600061260c602d83611ea0565b9150612617826125b0565b604082019050919050565b6000602082019050818103600083015261263b816125ff565b9050919050565b7f4552433732313a206c6f636b2063616c6c6572206973206e6f7420746f6b656e60008201527f206f776e6572206f7220617070726f76656420666f7220616c6c000000000000602082015250565b600061269e603a83611ea0565b91506126a982612642565b604082019050919050565b600060208201905081810360008301526126cd81612691565b9050919050565b7f4552433732313a20746f6b656e20617070726f76656400000000000000000000600082015250565b600061270a601683611ea0565b9150612715826126d4565b602082019050919050565b60006020820190508181036000830152612739816126fd565b9050919050565b7f4552433732313a20696e76616c696420746f6b656e2049440000000000000000600082015250565b6000612776601883611ea0565b915061278182612740565b602082019050919050565b600060208201905081810360008301526127a581612769565b9050919050565b7f4552433732313a2061646472657373207a65726f206973206e6f74206120766160008201527f6c6964206f776e65720000000000000000000000000000000000000000000000602082015250565b6000612808602983611ea0565b9150612813826127ac565b604082019050919050565b60006020820190508181036000830152612837816127fb565b9050919050565b600081905092915050565b600061285482611e95565b61285e818561283e565b935061286e818560208601611eb1565b80840191505092915050565b60006128868285612849565b91506128928284612849565b91508190509392505050565b7f4552433732313a207472616e736665722066726f6d20696e636f72726563742060008201527f6f776e6572000000000000000000000000000000000000000000000000000000602082015250565b60006128fa602583611ea0565b91506129058261289e565b604082019050919050565b60006020820190508181036000830152612929816128ed565b9050919050565b7f4552433732313a207472616e7366657220746f20746865207a65726f2061646460008201527f7265737300000000000000000000000000000000000000000000000000000000602082015250565b600061298c602483611ea0565b915061299782612930565b604082019050919050565b600060208201905081810360008301526129bb8161297f565b9050919050565b60006040820190506129d76000830185611fdc565b6129e46020830184611e6b565b9392505050565b7f4552433732313a20617070726f766520746f2063616c6c657200000000000000600082015250565b6000612a21601983611ea0565b9150612a2c826129eb565b602082019050919050565b60006020820190508181036000830152612a5081612a14565b9050919050565b7f4552433732313a207472616e7366657220746f206e6f6e20455243373231526560008201527f63656976657220696d706c656d656e7465720000000000000000000000000000602082015250565b6000612ab3603283611ea0565b9150612abe82612a57565b604082019050919050565b60006020820190508181036000830152612ae281612aa6565b9050919050565b7f4e487b7100000000000000000000000000000000000000000000000000000000600052601260045260246000fd5b600081519050919050565b600082825260208201905092915050565b6000612b3f82612b18565b612b498185612b23565b9350612b59818560208601611eb1565b612b6281611edb565b840191505092915050565b6000608082019050612b82600083018761205f565b612b8f602083018661205f565b612b9c6040830185611fdc565b8181036060830152612bae8184612b34565b905095945050505050565b600081519050612bc881611e06565b92915050565b600060208284031215612be457612be3611dd0565b5b6000612bf284828501612bb9565b91505092915050565b7f4552433732313a206d696e7420746f20746865207a65726f2061646472657373600082015250565b6000612c31602083611ea0565b9150612c3c82612bfb565b602082019050919050565b60006020820190508181036000830152612c6081612c24565b9050919050565b7f4552433732313a20746f6b656e20616c7265616479206d696e74656400000000600082015250565b6000612c9d601c83611ea0565b9150612ca882612c67565b602082019050919050565b60006020820190508181036000830152612ccc81612c90565b905091905056fea2646970667358221220b85985d3d78a20dc6f092cdbb38426ac5299eadcb7f279c37e5fcfdac12d746964736f6c63430008120033",
					"opcodes": "PUSH1 0x80 PUSH1 0x40 MSTORE CALLVALUE DUP1 ISZERO PUSH3 0x11 JUMPI PUSH1 0x0 DUP1 REVERT JUMPDEST POP PUSH1 0x40 MLOAD PUSH3 0x32C6 CODESIZE SUB DUP1 PUSH3 0x32C6 DUP4 CODECOPY DUP2 DUP2 ADD PUSH1 0x40 MSTORE DUP2 ADD SWAP1 PUSH3 0x37 SWAP2 SWAP1 PUSH3 0x1F6 JUMP JUMPDEST DUP2 PUSH1 0x0 SWAP1 DUP2 PUSH3 0x48 SWAP2 SWAP1 PUSH3 0x4C6 JUMP JUMPDEST POP DUP1 PUSH1 0x1 SWAP1 DUP2 PUSH3 0x5A SWAP2 SWAP1 PUSH3 0x4C6 JUMP JUMPDEST POP POP POP PUSH3 0x5AD JUMP JUMPDEST PUSH1 0x0 PUSH1 0x40 MLOAD SWAP1 POP SWAP1 JUMP JUMPDEST PUSH1 0x0 DUP1 REVERT JUMPDEST PUSH1 0x0 DUP1 REVERT JUMPDEST PUSH1 0x0 DUP1 REVERT JUMPDEST PUSH1 0x0 DUP1 REVERT JUMPDEST PUSH1 0x0 PUSH1 0x1F NOT PUSH1 0x1F DUP4 ADD AND SWAP1 POP SWAP2 SWAP1 POP JUMP JUMPDEST PUSH32 0x4E487B7100000000000000000000000000000000000000000000000000000000 PUSH1 0x0 MSTORE PUSH1 0x41 PUSH1 0x4 MSTORE PUSH1 0x24 PUSH1 0x0 REVERT JUMPDEST PUSH3 0xCC DUP3 PUSH3 0x81 JUMP JUMPDEST DUP2 ADD DUP2 DUP2 LT PUSH8 0xFFFFFFFFFFFFFFFF DUP3 GT OR ISZERO PUSH3 0xEE JUMPI PUSH3 0xED PUSH3 0x92 JUMP JUMPDEST JUMPDEST DUP1 PUSH1 0x40 MSTORE POP POP POP JUMP JUMPDEST PUSH1 0x0 PUSH3 0x103 PUSH3 0x63 JUMP JUMPDEST SWAP1 POP PUSH3 0x111 DUP3 DUP3 PUSH3 0xC1 JUMP JUMPDEST SWAP2 SWAP1 POP JUMP JUMPDEST PUSH1 0x0 PUSH8 0xFFFFFFFFFFFFFFFF DUP3 GT ISZERO PUSH3 0x134 JUMPI PUSH3 0x133 PUSH3 0x92 JUMP JUMPDEST JUMPDEST PUSH3 0x13F DUP3 PUSH3 0x81 JUMP JUMPDEST SWAP1 POP PUSH1 0x20 DUP2 ADD SWAP1 POP SWAP2 SWAP1 POP JUMP JUMPDEST PUSH1 0x0 JUMPDEST DUP4 DUP2 LT ISZERO PUSH3 0x16C JUMPI DUP1 DUP3 ADD MLOAD DUP2 DUP5 ADD MSTORE PUSH1 0x20 DUP2 ADD SWAP1 POP PUSH3 0x14F JUMP JUMPDEST PUSH1 0x0 DUP5 DUP5 ADD MSTORE POP POP POP POP JUMP JUMPDEST PUSH1 0x0 PUSH3 0x18F PUSH3 0x189 DUP5 PUSH3 0x116 JUMP JUMPDEST PUSH3 0xF7 JUMP JUMPDEST SWAP1 POP DUP3 DUP2 MSTORE PUSH1 0x20 DUP2 ADD DUP5 DUP5 DUP5 ADD GT ISZERO PUSH3 0x1AE JUMPI PUSH3 0x1AD PUSH3 0x7C JUMP JUMPDEST JUMPDEST PUSH3 0x1BB DUP5 DUP3 DUP6 PUSH3 0x14C JUMP JUMPDEST POP SWAP4 SWAP3 POP POP POP JUMP JUMPDEST PUSH1 0x0 DUP3 PUSH1 0x1F DUP4 ADD SLT PUSH3 0x1DB JUMPI PUSH3 0x1DA PUSH3 0x77 JUMP JUMPDEST JUMPDEST DUP2 MLOAD PUSH3 0x1ED DUP5 DUP3 PUSH1 0x20 DUP7 ADD PUSH3 0x178 JUMP JUMPDEST SWAP2 POP POP SWAP3 SWAP2 POP POP JUMP JUMPDEST PUSH1 0x0 DUP1 PUSH1 0x40 DUP4 DUP6 SUB SLT ISZERO PUSH3 0x210 JUMPI PUSH3 0x20F PUSH3 0x6D JUMP JUMPDEST JUMPDEST PUSH1 0x0 DUP4 ADD MLOAD PUSH8 0xFFFFFFFFFFFFFFFF DUP2 GT ISZERO PUSH3 0x231 JUMPI PUSH3 0x230 PUSH3 0x72 JUMP JUMPDEST JUMPDEST PUSH3 0x23F DUP6 DUP3 DUP7 ADD PUSH3 0x1C3 JUMP JUMPDEST SWAP3 POP POP PUSH1 0x20 DUP4 ADD MLOAD PUSH8 0xFFFFFFFFFFFFFFFF DUP2 GT ISZERO PUSH3 0x263 JUMPI PUSH3 0x262 PUSH3 0x72 JUMP JUMPDEST JUMPDEST PUSH3 0x271 DUP6 DUP3 DUP7 ADD PUSH3 0x1C3 JUMP JUMPDEST SWAP2 POP POP SWAP3 POP SWAP3 SWAP1 POP JUMP JUMPDEST PUSH1 0x0 DUP2 MLOAD SWAP1 POP SWAP2 SWAP1 POP JUMP JUMPDEST PUSH32 0x4E487B7100000000000000000000000000000000000000000000000000000000 PUSH1 0x0 MSTORE PUSH1 0x22 PUSH1 0x4 MSTORE PUSH1 0x24 PUSH1 0x0 REVERT JUMPDEST PUSH1 0x0 PUSH1 0x2 DUP3 DIV SWAP1 POP PUSH1 0x1 DUP3 AND DUP1 PUSH3 0x2CE JUMPI PUSH1 0x7F DUP3 AND SWAP2 POP JUMPDEST PUSH1 0x20 DUP3 LT DUP2 SUB PUSH3 0x2E4 JUMPI PUSH3 0x2E3 PUSH3 0x286 JUMP JUMPDEST JUMPDEST POP SWAP2 SWAP1 POP JUMP JUMPDEST PUSH1 0x0 DUP2 SWAP1 POP DUP2 PUSH1 0x0 MSTORE PUSH1 0x20 PUSH1 0x0 KECCAK256 SWAP1 POP SWAP2 SWAP1 POP JUMP JUMPDEST PUSH1 0x0 PUSH1 0x20 PUSH1 0x1F DUP4 ADD DIV SWAP1 POP SWAP2 SWAP1 POP JUMP JUMPDEST PUSH1 0x0 DUP3 DUP3 SHL SWAP1 POP SWAP3 SWAP2 POP POP JUMP JUMPDEST PUSH1 0x0 PUSH1 0x8 DUP4 MUL PUSH3 0x34E PUSH32 0xFFFFFFFFFFFFFFFFFFFFFFFFFFFFFFFFFFFFFFFFFFFFFFFFFFFFFFFFFFFFFFFF DUP3 PUSH3 0x30F JUMP JUMPDEST PUSH3 0x35A DUP7 DUP4 PUSH3 0x30F JUMP JUMPDEST SWAP6 POP DUP1 NOT DUP5 AND SWAP4 POP DUP1 DUP7 AND DUP5 OR SWAP3 POP POP POP SWAP4 SWAP3 POP POP POP JUMP JUMPDEST PUSH1 0x0 DUP2 SWAP1 POP SWAP2 SWAP1 POP JUMP JUMPDEST PUSH1 0x0 DUP2 SWAP1 POP SWAP2 SWAP1 POP JUMP JUMPDEST PUSH1 0x0 PUSH3 0x3A7 PUSH3 0x3A1 PUSH3 0x39B DUP5 PUSH3 0x372 JUMP JUMPDEST PUSH3 0x37C JUMP JUMPDEST PUSH3 0x372 JUMP JUMPDEST SWAP1 POP SWAP2 SWAP1 POP JUMP JUMPDEST PUSH1 0x0 DUP2 SWAP1 POP SWAP2 SWAP1 POP JUMP JUMPDEST PUSH3 0x3C3 DUP4 PUSH3 0x386 JUMP JUMPDEST PUSH3 0x3DB PUSH3 0x3D2 DUP3 PUSH3 0x3AE JUMP JUMPDEST DUP5 DUP5 SLOAD PUSH3 0x31C JUMP JUMPDEST DUP3 SSTORE POP POP POP POP JUMP JUMPDEST PUSH1 0x0 SWAP1 JUMP JUMPDEST PUSH3 0x3F2 PUSH3 0x3E3 JUMP JUMPDEST PUSH3 0x3FF DUP2 DUP5 DUP5 PUSH3 0x3B8 JUMP JUMPDEST POP POP POP JUMP JUMPDEST JUMPDEST DUP2 DUP2 LT ISZERO PUSH3 0x427 JUMPI PUSH3 0x41B PUSH1 0x0 DUP3 PUSH3 0x3E8 JUMP JUMPDEST PUSH1 0x1 DUP2 ADD SWAP1 POP PUSH3 0x405 JUMP JUMPDEST POP POP JUMP JUMPDEST PUSH1 0x1F DUP3 GT ISZERO PUSH3 0x476 JUMPI PUSH3 0x440 DUP2 PUSH3 0x2EA JUMP JUMPDEST PUSH3 0x44B DUP5 PUSH3 0x2FF JUMP JUMPDEST DUP2 ADD PUSH1 0x20 DUP6 LT ISZERO PUSH3 0x45B JUMPI DUP2 SWAP1 POP JUMPDEST PUSH3 0x473 PUSH3 0x46A DUP6 PUSH3 0x2FF JUMP JUMPDEST DUP4 ADD DUP3 PUSH3 0x404 JUMP JUMPDEST POP POP JUMPDEST POP POP POP JUMP JUMPDEST PUSH1 0x0 DUP3 DUP3 SHR SWAP1 POP SWAP3 SWAP2 POP POP JUMP JUMPDEST PUSH1 0x0 PUSH3 0x49B PUSH1 0x0 NOT DUP5 PUSH1 0x8 MUL PUSH3 0x47B JUMP JUMPDEST NOT DUP1 DUP4 AND SWAP2 POP POP SWAP3 SWAP2 POP POP JUMP JUMPDEST PUSH1 0x0 PUSH3 0x4B6 DUP4 DUP4 PUSH3 0x488 JUMP JUMPDEST SWAP2 POP DUP3 PUSH1 0x2 MUL DUP3 OR SWAP1 POP SWAP3 SWAP2 POP POP JUMP JUMPDEST PUSH3 0x4D1 DUP3 PUSH3 0x27B JUMP JUMPDEST PUSH8 0xFFFFFFFFFFFFFFFF DUP2 GT ISZERO PUSH3 0x4ED JUMPI PUSH3 0x4EC PUSH3 0x92 JUMP JUMPDEST JUMPDEST PUSH3 0x4F9 DUP3 SLOAD PUSH3 0x2B5 JUMP JUMPDEST PUSH3 0x506 DUP3 DUP3 DUP6 PUSH3 0x42B JUMP JUMPDEST PUSH1 0x0 PUSH1 0x20 SWAP1 POP PUSH1 0x1F DUP4 GT PUSH1 0x1 DUP2 EQ PUSH3 0x53E JUMPI PUSH1 0x0 DUP5 ISZERO PUSH3 0x529 JUMPI DUP3 DUP8 ADD MLOAD SWAP1 POP JUMPDEST PUSH3 0x535 DUP6 DUP3 PUSH3 0x4A8 JUMP JUMPDEST DUP7 SSTORE POP PUSH3 0x5A5 JUMP JUMPDEST PUSH1 0x1F NOT DUP5 AND PUSH3 0x54E DUP7 PUSH3 0x2EA JUMP JUMPDEST PUSH1 0x0 JUMPDEST DUP3 DUP2 LT ISZERO PUSH3 0x578 JUMPI DUP5 DUP10 ADD MLOAD DUP3 SSTORE PUSH1 0x1 DUP3 ADD SWAP2 POP PUSH1 0x20 DUP6 ADD SWAP5 POP PUSH1 0x20 DUP2 ADD SWAP1 POP PUSH3 0x551 JUMP JUMPDEST DUP7 DUP4 LT ISZERO PUSH3 0x598 JUMPI DUP5 DUP10 ADD MLOAD PUSH3 0x594 PUSH1 0x1F DUP10 AND DUP3 PUSH3 0x488 JUMP JUMPDEST DUP4 SSTORE POP JUMPDEST PUSH1 0x1 PUSH1 0x2 DUP9 MUL ADD DUP9 SSTORE POP POP POP JUMPDEST POP POP POP POP POP POP JUMP JUMPDEST PUSH2 0x2D09 DUP1 PUSH3 0x5BD PUSH1 0x0 CODECOPY PUSH1 0x0 RETURN INVALID PUSH1 0x80 PUSH1 0x40 MSTORE CALLVALUE DUP1 ISZERO PUSH2 0x10 JUMPI PUSH1 0x0 DUP1 REVERT JUMPDEST POP PUSH1 0x4 CALLDATASIZE LT PUSH2 0x10B JUMPI PUSH1 0x0 CALLDATALOAD PUSH1 0xE0 SHR DUP1 PUSH4 0x42842E0E GT PUSH2 0xA2 JUMPI DUP1 PUSH4 0xA0712D68 GT PUSH2 0x71 JUMPI DUP1 PUSH4 0xA0712D68 EQ PUSH2 0x2DC JUMPI DUP1 PUSH4 0xA22CB465 EQ PUSH2 0x2F8 JUMPI DUP1 PUSH4 0xB88D4FDE EQ PUSH2 0x314 JUMPI DUP1 PUSH4 0xC87B56DD EQ PUSH2 0x330 JUMPI DUP1 PUSH4 0xE985E9C5 EQ PUSH2 0x360 JUMPI PUSH2 0x10B JUMP JUMPDEST DUP1 PUSH4 0x42842E0E EQ PUSH2 0x242 JUMPI DUP1 PUSH4 0x6352211E EQ PUSH2 0x25E JUMPI DUP1 PUSH4 0x70A08231 EQ PUSH2 0x28E JUMPI DUP1 PUSH4 0x95D89B41 EQ PUSH2 0x2BE JUMPI PUSH2 0x10B JUMP JUMPDEST DUP1 PUSH4 0x95EA7B3 GT PUSH2 0xDE JUMPI DUP1 PUSH4 0x95EA7B3 EQ PUSH2 0x1BE JUMPI DUP1 PUSH4 0x23B872DD EQ PUSH2 0x1DA JUMPI DUP1 PUSH4 0x346C94CF EQ PUSH2 0x1F6 JUMPI DUP1 PUSH4 0x3B035DF6 EQ PUSH2 0x212 JUMPI PUSH2 0x10B JUMP JUMPDEST DUP1 PUSH4 0x1FFC9A7 EQ PUSH2 0x110 JUMPI DUP1 PUSH4 0x6FDDE03 EQ PUSH2 0x140 JUMPI DUP1 PUSH4 0x7F0661C EQ PUSH2 0x15E JUMPI DUP1 PUSH4 0x81812FC EQ PUSH2 0x18E JUMPI JUMPDEST PUSH1 0x0 DUP1 REVERT JUMPDEST PUSH2 0x12A PUSH1 0x4 DUP1 CALLDATASIZE SUB DUP2 ADD SWAP1 PUSH2 0x125 SWAP2 SWAP1 PUSH2 0x1E32 JUMP JUMPDEST PUSH2 0x390 JUMP JUMPDEST PUSH1 0x40 MLOAD PUSH2 0x137 SWAP2 SWAP1 PUSH2 0x1E7A JUMP JUMPDEST PUSH1 0x40 MLOAD DUP1 SWAP2 SUB SWAP1 RETURN JUMPDEST PUSH2 0x148 PUSH2 0x472 JUMP JUMPDEST PUSH1 0x40 MLOAD PUSH2 0x155 SWAP2 SWAP1 PUSH2 0x1F25 JUMP JUMPDEST PUSH1 0x40 MLOAD DUP1 SWAP2 SUB SWAP1 RETURN JUMPDEST PUSH2 0x178 PUSH1 0x4 DUP1 CALLDATASIZE SUB DUP2 ADD SWAP1 PUSH2 0x173 SWAP2 SWAP1 PUSH2 0x1FA5 JUMP JUMPDEST PUSH2 0x504 JUMP JUMPDEST PUSH1 0x40 MLOAD PUSH2 0x185 SWAP2 SWAP1 PUSH2 0x1FEB JUMP JUMPDEST PUSH1 0x40 MLOAD DUP1 SWAP2 SUB SWAP1 RETURN JUMPDEST PUSH2 0x1A8 PUSH1 0x4 DUP1 CALLDATASIZE SUB DUP2 ADD SWAP1 PUSH2 0x1A3 SWAP2 SWAP1 PUSH2 0x2032 JUMP JUMPDEST PUSH2 0x54D JUMP JUMPDEST PUSH1 0x40 MLOAD PUSH2 0x1B5 SWAP2 SWAP1 PUSH2 0x206E JUMP JUMPDEST PUSH1 0x40 MLOAD DUP1 SWAP2 SUB SWAP1 RETURN JUMPDEST PUSH2 0x1D8 PUSH1 0x4 DUP1 CALLDATASIZE SUB DUP2 ADD SWAP1 PUSH2 0x1D3 SWAP2 SWAP1 PUSH2 0x2089 JUMP JUMPDEST PUSH2 0x593 JUMP JUMPDEST STOP JUMPDEST PUSH2 0x1F4 PUSH1 0x4 DUP1 CALLDATASIZE SUB DUP2 ADD SWAP1 PUSH2 0x1EF SWAP2 SWAP1 PUSH2 0x20C9 JUMP JUMPDEST PUSH2 0x70B JUMP JUMPDEST STOP JUMPDEST PUSH2 0x210 PUSH1 0x4 DUP1 CALLDATASIZE SUB DUP2 ADD SWAP1 PUSH2 0x20B SWAP2 SWAP1 PUSH2 0x2148 JUMP JUMPDEST PUSH2 0x7CC JUMP JUMPDEST STOP JUMPDEST PUSH2 0x22C PUSH1 0x4 DUP1 CALLDATASIZE SUB DUP2 ADD SWAP1 PUSH2 0x227 SWAP2 SWAP1 PUSH2 0x2032 JUMP JUMPDEST PUSH2 0x98C JUMP JUMPDEST PUSH1 0x40 MLOAD PUSH2 0x239 SWAP2 SWAP1 PUSH2 0x1E7A JUMP JUMPDEST PUSH1 0x40 MLOAD DUP1 SWAP2 SUB SWAP1 RETURN JUMPDEST PUSH2 0x25C PUSH1 0x4 DUP1 CALLDATASIZE SUB DUP2 ADD SWAP1 PUSH2 0x257 SWAP2 SWAP1 PUSH2 0x20C9 JUMP JUMPDEST PUSH2 0x9B6 JUMP JUMPDEST STOP JUMPDEST PUSH2 0x278 PUSH1 0x4 DUP1 CALLDATASIZE SUB DUP2 ADD SWAP1 PUSH2 0x273 SWAP2 SWAP1 PUSH2 0x2032 JUMP JUMPDEST PUSH2 0x9D6 JUMP JUMPDEST PUSH1 0x40 MLOAD PUSH2 0x285 SWAP2 SWAP1 PUSH2 0x206E JUMP JUMPDEST PUSH1 0x40 MLOAD DUP1 SWAP2 SUB SWAP1 RETURN JUMPDEST PUSH2 0x2A8 PUSH1 0x4 DUP1 CALLDATASIZE SUB DUP2 ADD SWAP1 PUSH2 0x2A3 SWAP2 SWAP1 PUSH2 0x1FA5 JUMP JUMPDEST PUSH2 0xA5C JUMP JUMPDEST PUSH1 0x40 MLOAD PUSH2 0x2B5 SWAP2 SWAP1 PUSH2 0x1FEB JUMP JUMPDEST PUSH1 0x40 MLOAD DUP1 SWAP2 SUB SWAP1 RETURN JUMPDEST PUSH2 0x2C6 PUSH2 0xB13 JUMP JUMPDEST PUSH1 0x40 MLOAD PUSH2 0x2D3 SWAP2 SWAP1 PUSH2 0x1F25 JUMP JUMPDEST PUSH1 0x40 MLOAD DUP1 SWAP2 SUB SWAP1 RETURN JUMPDEST PUSH2 0x2F6 PUSH1 0x4 DUP1 CALLDATASIZE SUB DUP2 ADD SWAP1 PUSH2 0x2F1 SWAP2 SWAP1 PUSH2 0x2032 JUMP JUMPDEST PUSH2 0xBA5 JUMP JUMPDEST STOP JUMPDEST PUSH2 0x312 PUSH1 0x4 DUP1 CALLDATASIZE SUB DUP2 ADD SWAP1 PUSH2 0x30D SWAP2 SWAP1 PUSH2 0x2188 JUMP JUMPDEST PUSH2 0xBB2 JUMP JUMPDEST STOP JUMPDEST PUSH2 0x32E PUSH1 0x4 DUP1 CALLDATASIZE SUB DUP2 ADD SWAP1 PUSH2 0x329 SWAP2 SWAP1 PUSH2 0x22FD JUMP JUMPDEST PUSH2 0xBC8 JUMP JUMPDEST STOP JUMPDEST PUSH2 0x34A PUSH1 0x4 DUP1 CALLDATASIZE SUB DUP2 ADD SWAP1 PUSH2 0x345 SWAP2 SWAP1 PUSH2 0x2032 JUMP JUMPDEST PUSH2 0xC8B JUMP JUMPDEST PUSH1 0x40 MLOAD PUSH2 0x357 SWAP2 SWAP1 PUSH2 0x1F25 JUMP JUMPDEST PUSH1 0x40 MLOAD DUP1 SWAP2 SUB SWAP1 RETURN JUMPDEST PUSH2 0x37A PUSH1 0x4 DUP1 CALLDATASIZE SUB DUP2 ADD SWAP1 PUSH2 0x375 SWAP2 SWAP1 PUSH2 0x2380 JUMP JUMPDEST PUSH2 0xCF3 JUMP JUMPDEST PUSH1 0x40 MLOAD PUSH2 0x387 SWAP2 SWAP1 PUSH2 0x1E7A JUMP JUMPDEST PUSH1 0x40 MLOAD DUP1 SWAP2 SUB SWAP1 RETURN JUMPDEST PUSH1 0x0 PUSH32 0x2842DA8000000000000000000000000000000000000000000000000000000000 PUSH28 0xFFFFFFFFFFFFFFFFFFFFFFFFFFFFFFFFFFFFFFFFFFFFFFFFFFFFFFFF NOT AND DUP3 PUSH28 0xFFFFFFFFFFFFFFFFFFFFFFFFFFFFFFFFFFFFFFFFFFFFFFFFFFFFFFFF NOT AND EQ DUP1 PUSH2 0x45B JUMPI POP PUSH32 0x5B5E139F00000000000000000000000000000000000000000000000000000000 PUSH28 0xFFFFFFFFFFFFFFFFFFFFFFFFFFFFFFFFFFFFFFFFFFFFFFFFFFFFFFFF NOT AND DUP3 PUSH28 0xFFFFFFFFFFFFFFFFFFFFFFFFFFFFFFFFFFFFFFFFFFFFFFFFFFFFFFFF NOT AND EQ JUMPDEST DUP1 PUSH2 0x46B JUMPI POP PUSH2 0x46A DUP3 PUSH2 0xD87 JUMP JUMPDEST JUMPDEST SWAP1 POP SWAP2 SWAP1 POP JUMP JUMPDEST PUSH1 0x60 PUSH1 0x0 DUP1 SLOAD PUSH2 0x481 SWAP1 PUSH2 0x23EF JUMP JUMPDEST DUP1 PUSH1 0x1F ADD PUSH1 0x20 DUP1 SWAP2 DIV MUL PUSH1 0x20 ADD PUSH1 0x40 MLOAD SWAP1 DUP2 ADD PUSH1 0x40 MSTORE DUP1 SWAP3 SWAP2 SWAP1 DUP2 DUP2 MSTORE PUSH1 0x20 ADD DUP3 DUP1 SLOAD PUSH2 0x4AD SWAP1 PUSH2 0x23EF JUMP JUMPDEST DUP1 ISZERO PUSH2 0x4FA JUMPI DUP1 PUSH1 0x1F LT PUSH2 0x4CF JUMPI PUSH2 0x100 DUP1 DUP4 SLOAD DIV MUL DUP4 MSTORE SWAP2 PUSH1 0x20 ADD SWAP2 PUSH2 0x4FA JUMP JUMPDEST DUP3 ADD SWAP2 SWAP1 PUSH1 0x0 MSTORE PUSH1 0x20 PUSH1 0x0 KECCAK256 SWAP1 JUMPDEST DUP2 SLOAD DUP2 MSTORE SWAP1 PUSH1 0x1 ADD SWAP1 PUSH1 0x20 ADD DUP1 DUP4 GT PUSH2 0x4DD JUMPI DUP3 SWAP1 SUB PUSH1 0x1F AND DUP3 ADD SWAP2 JUMPDEST POP POP POP POP POP SWAP1 POP SWAP1 JUMP JUMPDEST PUSH1 0x0 PUSH1 0x8 PUSH1 0x0 DUP4 PUSH20 0xFFFFFFFFFFFFFFFFFFFFFFFFFFFFFFFFFFFFFFFF AND PUSH20 0xFFFFFFFFFFFFFFFFFFFFFFFFFFFFFFFFFFFFFFFF AND DUP2 MSTORE PUSH1 0x20 ADD SWAP1 DUP2 MSTORE PUSH1 0x20 ADD PUSH1 0x0 KECCAK256 SLOAD SWAP1 POP SWAP2 SWAP1 POP JUMP JUMPDEST PUSH1 0x0 PUSH2 0x558 DUP3 PUSH2 0xDF1 JUMP JUMPDEST PUSH1 0x4 PUSH1 0x0 DUP4 DUP2 MSTORE PUSH1 0x20 ADD SWAP1 DUP2 MSTORE PUSH1 0x20 ADD PUSH1 0x0 KECCAK256 PUSH1 0x0 SWAP1 SLOAD SWAP1 PUSH2 0x100 EXP SWAP1 DIV PUSH20 0xFFFFFFFFFFFFFFFFFFFFFFFFFFFFFFFFFFFFFFFF AND SWAP1 POP SWAP2 SWAP1 POP JUMP JUMPDEST PUSH1 0x0 PUSH2 0x59E DUP3 PUSH2 0x9D6 JUMP JUMPDEST SWAP1 POP DUP1 PUSH20 0xFFFFFFFFFFFFFFFFFFFFFFFFFFFFFFFFFFFFFFFF AND DUP4 PUSH20 0xFFFFFFFFFFFFFFFFFFFFFFFFFFFFFFFFFFFFFFFF AND SUB PUSH2 0x60E JUMPI PUSH1 0x40 MLOAD PUSH32 0x8C379A000000000000000000000000000000000000000000000000000000000 DUP2 MSTORE PUSH1 0x4 ADD PUSH2 0x605 SWAP1 PUSH2 0x2492 JUMP JUMPDEST PUSH1 0x40 MLOAD DUP1 SWAP2 SUB SWAP1 REVERT JUMPDEST DUP1 PUSH20 0xFFFFFFFFFFFFFFFFFFFFFFFFFFFFFFFFFFFFFFFF AND PUSH2 0x62D PUSH2 0xE3C JUMP JUMPDEST PUSH20 0xFFFFFFFFFFFFFFFFFFFFFFFFFFFFFFFFFFFFFFFF AND EQ DUP1 PUSH2 0x65C JUMPI POP PUSH2 0x65B DUP2 PUSH2 0x656 PUSH2 0xE3C JUMP JUMPDEST PUSH2 0xCF3 JUMP JUMPDEST JUMPDEST PUSH2 0x69B JUMPI PUSH1 0x40 MLOAD PUSH32 0x8C379A000000000000000000000000000000000000000000000000000000000 DUP2 MSTORE PUSH1 0x4 ADD PUSH2 0x692 SWAP1 PUSH2 0x2524 JUMP JUMPDEST PUSH1 0x40 MLOAD DUP1 SWAP2 SUB SWAP1 REVERT JUMPDEST PUSH1 0x6 PUSH1 0x0 DUP4 DUP2 MSTORE PUSH1 0x20 ADD SWAP1 DUP2 MSTORE PUSH1 0x20 ADD PUSH1 0x0 KECCAK256 PUSH1 0x0 SWAP1 SLOAD SWAP1 PUSH2 0x100 EXP SWAP1 DIV PUSH1 0xFF AND ISZERO PUSH2 0x6FC JUMPI PUSH1 0x40 MLOAD PUSH32 0x8C379A000000000000000000000000000000000000000000000000000000000 DUP2 MSTORE PUSH1 0x4 ADD PUSH2 0x6F3 SWAP1 PUSH2 0x2590 JUMP JUMPDEST PUSH1 0x40 MLOAD DUP1 SWAP2 SUB SWAP1 REVERT JUMPDEST PUSH2 0x706 DUP4 DUP4 PUSH2 0xE44 JUMP JUMPDEST POP POP POP JUMP JUMPDEST PUSH2 0x71C PUSH2 0x716 PUSH2 0xE3C JUMP JUMPDEST DUP3 PUSH2 0xEFD JUMP JUMPDEST PUSH2 0x75B JUMPI PUSH1 0x40 MLOAD PUSH32 0x8C379A000000000000000000000000000000000000000000000000000000000 DUP2 MSTORE PUSH1 0x4 ADD PUSH2 0x752 SWAP1 PUSH2 0x2622 JUMP JUMPDEST PUSH1 0x40 MLOAD DUP1 SWAP2 SUB SWAP1 REVERT JUMPDEST PUSH1 0x6 PUSH1 0x0 DUP3 DUP2 MSTORE PUSH1 0x20 ADD SWAP1 DUP2 MSTORE PUSH1 0x20 ADD PUSH1 0x0 KECCAK256 PUSH1 0x0 SWAP1 SLOAD SWAP1 PUSH2 0x100 EXP SWAP1 DIV PUSH1 0xFF AND ISZERO PUSH2 0x7BC JUMPI PUSH1 0x40 MLOAD PUSH32 0x8C379A000000000000000000000000000000000000000000000000000000000 DUP2 MSTORE PUSH1 0x4 ADD PUSH2 0x7B3 SWAP1 PUSH2 0x2590 JUMP JUMPDEST PUSH1 0x40 MLOAD DUP1 SWAP2 SUB SWAP1 REVERT JUMPDEST PUSH2 0x7C7 DUP4 DUP4 DUP4 PUSH2 0xF92 JUMP JUMPDEST POP POP POP JUMP JUMPDEST PUSH1 0x0 PUSH2 0x7D7 DUP4 PUSH2 0x9D6 JUMP JUMPDEST SWAP1 POP DUP1 PUSH20 0xFFFFFFFFFFFFFFFFFFFFFFFFFFFFFFFFFFFFFFFF AND PUSH2 0x7F8 PUSH2 0xE3C JUMP JUMPDEST PUSH20 0xFFFFFFFFFFFFFFFFFFFFFFFFFFFFFFFFFFFFFFFF AND EQ PUSH2 0x84E JUMPI PUSH1 0x40 MLOAD PUSH32 0x8C379A000000000000000000000000000000000000000000000000000000000 DUP2 MSTORE PUSH1 0x4 ADD PUSH2 0x845 SWAP1 PUSH2 0x26B4 JUMP JUMPDEST PUSH1 0x40 MLOAD DUP1 SWAP2 SUB SWAP1 REVERT JUMPDEST PUSH1 0x0 PUSH20 0xFFFFFFFFFFFFFFFFFFFFFFFFFFFFFFFFFFFFFFFF AND PUSH1 0x4 PUSH1 0x0 DUP6 DUP2 MSTORE PUSH1 0x20 ADD SWAP1 DUP2 MSTORE PUSH1 0x20 ADD PUSH1 0x0 KECCAK256 PUSH1 0x0 SWAP1 SLOAD SWAP1 PUSH2 0x100 EXP SWAP1 DIV PUSH20 0xFFFFFFFFFFFFFFFFFFFFFFFFFFFFFFFFFFFFFFFF AND PUSH20 0xFFFFFFFFFFFFFFFFFFFFFFFFFFFFFFFFFFFFFFFF AND EQ PUSH2 0x8F0 JUMPI PUSH1 0x40 MLOAD PUSH32 0x8C379A000000000000000000000000000000000000000000000000000000000 DUP2 MSTORE PUSH1 0x4 ADD PUSH2 0x8E7 SWAP1 PUSH2 0x2720 JUMP JUMPDEST PUSH1 0x40 MLOAD DUP1 SWAP2 SUB SWAP1 REVERT JUMPDEST PUSH1 0x7 PUSH1 0x0 DUP3 PUSH20 0xFFFFFFFFFFFFFFFFFFFFFFFFFFFFFFFFFFFFFFFF AND PUSH20 0xFFFFFFFFFFFFFFFFFFFFFFFFFFFFFFFFFFFFFFFF AND DUP2 MSTORE PUSH1 0x20 ADD SWAP1 DUP2 MSTORE PUSH1 0x20 ADD PUSH1 0x0 KECCAK256 PUSH1 0x0 SWAP1 SLOAD SWAP1 PUSH2 0x100 EXP SWAP1 DIV PUSH1 0xFF AND ISZERO PUSH2 0x97D JUMPI PUSH1 0x40 MLOAD PUSH32 0x8C379A000000000000000000000000000000000000000000000000000000000 DUP2 MSTORE PUSH1 0x4 ADD PUSH2 0x974 SWAP1 PUSH2 0x2720 JUMP JUMPDEST PUSH1 0x40 MLOAD DUP1 SWAP2 SUB SWAP1 REVERT JUMPDEST PUSH2 0x987 DUP4 DUP4 PUSH2 0x128B JUMP JUMPDEST POP POP POP JUMP JUMPDEST PUSH1 0x0 PUSH1 0x6 PUSH1 0x0 DUP4 DUP2 MSTORE PUSH1 0x20 ADD SWAP1 DUP2 MSTORE PUSH1 0x20 ADD PUSH1 0x0 KECCAK256 PUSH1 0x0 SWAP1 SLOAD SWAP1 PUSH2 0x100 EXP SWAP1 DIV PUSH1 0xFF AND SWAP1 POP SWAP2 SWAP1 POP JUMP JUMPDEST PUSH2 0x9D1 DUP4 DUP4 DUP4 PUSH1 0x40 MLOAD DUP1 PUSH1 0x20 ADD PUSH1 0x40 MSTORE DUP1 PUSH1 0x0 DUP2 MSTORE POP PUSH2 0xBC8 JUMP JUMPDEST POP POP POP JUMP JUMPDEST PUSH1 0x0 DUP1 PUSH2 0x9E2 DUP4 PUSH2 0x1423 JUMP JUMPDEST SWAP1 POP PUSH1 0x0 PUSH20 0xFFFFFFFFFFFFFFFFFFFFFFFFFFFFFFFFFFFFFFFF AND DUP2 PUSH20 0xFFFFFFFFFFFFFFFFFFFFFFFFFFFFFFFFFFFFFFFF AND SUB PUSH2 0xA53 JUMPI PUSH1 0x40 MLOAD PUSH32 0x8C379A000000000000000000000000000000000000000000000000000000000 DUP2 MSTORE PUSH1 0x4 ADD PUSH2 0xA4A SWAP1 PUSH2 0x278C JUMP JUMPDEST PUSH1 0x40 MLOAD DUP1 SWAP2 SUB SWAP1 REVERT JUMPDEST DUP1 SWAP2 POP POP SWAP2 SWAP1 POP JUMP JUMPDEST PUSH1 0x0 DUP1 PUSH20 0xFFFFFFFFFFFFFFFFFFFFFFFFFFFFFFFFFFFFFFFF AND DUP3 PUSH20 0xFFFFFFFFFFFFFFFFFFFFFFFFFFFFFFFFFFFFFFFF AND SUB PUSH2 0xACC JUMPI PUSH1 0x40 MLOAD PUSH32 0x8C379A000000000000000000000000000000000000000000000000000000000 DUP2 MSTORE PUSH1 0x4 ADD PUSH2 0xAC3 SWAP1 PUSH2 0x281E JUMP JUMPDEST PUSH1 0x40 MLOAD DUP1 SWAP2 SUB SWAP1 REVERT JUMPDEST PUSH1 0x3 PUSH1 0x0 DUP4 PUSH20 0xFFFFFFFFFFFFFFFFFFFFFFFFFFFFFFFFFFFFFFFF AND PUSH20 0xFFFFFFFFFFFFFFFFFFFFFFFFFFFFFFFFFFFFFFFF AND DUP2 MSTORE PUSH1 0x20 ADD SWAP1 DUP2 MSTORE PUSH1 0x20 ADD PUSH1 0x0 KECCAK256 SLOAD SWAP1 POP SWAP2 SWAP1 POP JUMP JUMPDEST PUSH1 0x60 PUSH1 0x1 DUP1 SLOAD PUSH2 0xB22 SWAP1 PUSH2 0x23EF JUMP JUMPDEST DUP1 PUSH1 0x1F ADD PUSH1 0x20 DUP1 SWAP2 DIV MUL PUSH1 0x20 ADD PUSH1 0x40 MLOAD SWAP1 DUP2 ADD PUSH1 0x40 MSTORE DUP1 SWAP3 SWAP2 SWAP1 DUP2 DUP2 MSTORE PUSH1 0x20 ADD DUP3 DUP1 SLOAD PUSH2 0xB4E SWAP1 PUSH2 0x23EF JUMP JUMPDEST DUP1 ISZERO PUSH2 0xB9B JUMPI DUP1 PUSH1 0x1F LT PUSH2 0xB70 JUMPI PUSH2 0x100 DUP1 DUP4 SLOAD DIV MUL DUP4 MSTORE SWAP2 PUSH1 0x20 ADD SWAP2 PUSH2 0xB9B JUMP JUMPDEST DUP3 ADD SWAP2 SWAP1 PUSH1 0x0 MSTORE PUSH1 0x20 PUSH1 0x0 KECCAK256 SWAP1 JUMPDEST DUP2 SLOAD DUP2 MSTORE SWAP1 PUSH1 0x1 ADD SWAP1 PUSH1 0x20 ADD DUP1 DUP4 GT PUSH2 0xB7E JUMPI DUP3 SWAP1 SUB PUSH1 0x1F AND DUP3 ADD SWAP2 JUMPDEST POP POP POP POP POP SWAP1 POP SWAP1 JUMP JUMPDEST PUSH2 0xBAF CALLER DUP3 PUSH2 0x1460 JUMP JUMPDEST POP JUMP JUMPDEST PUSH2 0xBC4 PUSH2 0xBBD PUSH2 0xE3C JUMP JUMPDEST DUP4 DUP4 PUSH2 0x147E JUMP JUMPDEST POP POP JUMP JUMPDEST PUSH2 0xBD9 PUSH2 0xBD3 PUSH2 0xE3C JUMP JUMPDEST DUP4 PUSH2 0xEFD JUMP JUMPDEST PUSH2 0xC18 JUMPI PUSH1 0x40 MLOAD PUSH32 0x8C379A000000000000000000000000000000000000000000000000000000000 DUP2 MSTORE PUSH1 0x4 ADD PUSH2 0xC0F SWAP1 PUSH2 0x2622 JUMP JUMPDEST PUSH1 0x40 MLOAD DUP1 SWAP2 SUB SWAP1 REVERT JUMPDEST PUSH1 0x6 PUSH1 0x0 DUP4 DUP2 MSTORE PUSH1 0x20 ADD SWAP1 DUP2 MSTORE PUSH1 0x20 ADD PUSH1 0x0 KECCAK256 PUSH1 0x0 SWAP1 SLOAD SWAP1 PUSH2 0x100 EXP SWAP1 DIV PUSH1 0xFF AND ISZERO PUSH2 0xC79 JUMPI PUSH1 0x40 MLOAD PUSH32 0x8C379A000000000000000000000000000000000000000000000000000000000 DUP2 MSTORE PUSH1 0x4 ADD PUSH2 0xC70 SWAP1 PUSH2 0x2590 JUMP JUMPDEST PUSH1 0x40 MLOAD DUP1 SWAP2 SUB SWAP1 REVERT JUMPDEST PUSH2 0xC85 DUP5 DUP5 DUP5 DUP5 PUSH2 0x16C3 JUMP JUMPDEST POP POP POP POP JUMP JUMPDEST PUSH1 0x60 PUSH2 0xC96 DUP3 PUSH2 0xDF1 JUMP JUMPDEST PUSH1 0x0 PUSH2 0xCA0 PUSH2 0x171F JUMP JUMPDEST SWAP1 POP PUSH1 0x0 DUP2 MLOAD GT PUSH2 0xCC0 JUMPI PUSH1 0x40 MLOAD DUP1 PUSH1 0x20 ADD PUSH1 0x40 MSTORE DUP1 PUSH1 0x0 DUP2 MSTORE POP PUSH2 0xCEB JUMP JUMPDEST DUP1 PUSH2 0xCCA DUP5 PUSH2 0x1736 JUMP JUMPDEST PUSH1 0x40 MLOAD PUSH1 0x20 ADD PUSH2 0xCDB SWAP3 SWAP2 SWAP1 PUSH2 0x287A JUMP JUMPDEST PUSH1 0x40 MLOAD PUSH1 0x20 DUP2 DUP4 SUB SUB DUP2 MSTORE SWAP1 PUSH1 0x40 MSTORE JUMPDEST SWAP2 POP POP SWAP2 SWAP1 POP JUMP JUMPDEST PUSH1 0x0 PUSH1 0x5 PUSH1 0x0 DUP5 PUSH20 0xFFFFFFFFFFFFFFFFFFFFFFFFFFFFFFFFFFFFFFFF AND PUSH20 0xFFFFFFFFFFFFFFFFFFFFFFFFFFFFFFFFFFFFFFFF AND DUP2 MSTORE PUSH1 0x20 ADD SWAP1 DUP2 MSTORE PUSH1 0x20 ADD PUSH1 0x0 KECCAK256 PUSH1 0x0 DUP4 PUSH20 0xFFFFFFFFFFFFFFFFFFFFFFFFFFFFFFFFFFFFFFFF AND PUSH20 0xFFFFFFFFFFFFFFFFFFFFFFFFFFFFFFFFFFFFFFFF AND DUP2 MSTORE PUSH1 0x20 ADD SWAP1 DUP2 MSTORE PUSH1 0x20 ADD PUSH1 0x0 KECCAK256 PUSH1 0x0 SWAP1 SLOAD SWAP1 PUSH2 0x100 EXP SWAP1 DIV PUSH1 0xFF AND SWAP1 POP SWAP3 SWAP2 POP POP JUMP JUMPDEST PUSH1 0x0 PUSH32 0x1FFC9A700000000000000000000000000000000000000000000000000000000 PUSH28 0xFFFFFFFFFFFFFFFFFFFFFFFFFFFFFFFFFFFFFFFFFFFFFFFFFFFFFFFF NOT AND DUP3 PUSH28 0xFFFFFFFFFFFFFFFFFFFFFFFFFFFFFFFFFFFFFFFFFFFFFFFFFFFFFFFF NOT AND EQ SWAP1 POP SWAP2 SWAP1 POP JUMP JUMPDEST PUSH2 0xDFA DUP2 PUSH2 0x1804 JUMP JUMPDEST PUSH2 0xE39 JUMPI PUSH1 0x40 MLOAD PUSH32 0x8C379A000000000000000000000000000000000000000000000000000000000 DUP2 MSTORE PUSH1 0x4 ADD PUSH2 0xE30 SWAP1 PUSH2 0x278C JUMP JUMPDEST PUSH1 0x40 MLOAD DUP1 SWAP2 SUB SWAP1 REVERT JUMPDEST POP JUMP JUMPDEST PUSH1 0x0 CALLER SWAP1 POP SWAP1 JUMP JUMPDEST DUP2 PUSH1 0x4 PUSH1 0x0 DUP4 DUP2 MSTORE PUSH1 0x20 ADD SWAP1 DUP2 MSTORE PUSH1 0x20 ADD PUSH1 0x0 KECCAK256 PUSH1 0x0 PUSH2 0x100 EXP DUP2 SLOAD DUP2 PUSH20 0xFFFFFFFFFFFFFFFFFFFFFFFFFFFFFFFFFFFFFFFF MUL NOT AND SWAP1 DUP4 PUSH20 0xFFFFFFFFFFFFFFFFFFFFFFFFFFFFFFFFFFFFFFFF AND MUL OR SWAP1 SSTORE POP DUP1 DUP3 PUSH20 0xFFFFFFFFFFFFFFFFFFFFFFFFFFFFFFFFFFFFFFFF AND PUSH2 0xEB7 DUP4 PUSH2 0x9D6 JUMP JUMPDEST PUSH20 0xFFFFFFFFFFFFFFFFFFFFFFFFFFFFFFFFFFFFFFFF AND PUSH32 0x8C5BE1E5EBEC7D5BD14F71427D1E84F3DD0314C0F7B2291E5B200AC8C7C3B925 PUSH1 0x40 MLOAD PUSH1 0x40 MLOAD DUP1 SWAP2 SUB SWAP1 LOG4 POP POP JUMP JUMPDEST PUSH1 0x0 DUP1 PUSH2 0xF09 DUP4 PUSH2 0x9D6 JUMP JUMPDEST SWAP1 POP DUP1 PUSH20 0xFFFFFFFFFFFFFFFFFFFFFFFFFFFFFFFFFFFFFFFF AND DUP5 PUSH20 0xFFFFFFFFFFFFFFFFFFFFFFFFFFFFFFFFFFFFFFFF AND EQ DUP1 PUSH2 0xF4B JUMPI POP PUSH2 0xF4A DUP2 DUP6 PUSH2 0xCF3 JUMP JUMPDEST JUMPDEST DUP1 PUSH2 0xF89 JUMPI POP DUP4 PUSH20 0xFFFFFFFFFFFFFFFFFFFFFFFFFFFFFFFFFFFFFFFF AND PUSH2 0xF71 DUP5 PUSH2 0x54D JUMP JUMPDEST PUSH20 0xFFFFFFFFFFFFFFFFFFFFFFFFFFFFFFFFFFFFFFFF AND EQ JUMPDEST SWAP2 POP POP SWAP3 SWAP2 POP POP JUMP JUMPDEST DUP3 PUSH20 0xFFFFFFFFFFFFFFFFFFFFFFFFFFFFFFFFFFFFFFFF AND PUSH2 0xFB2 DUP3 PUSH2 0x9D6 JUMP JUMPDEST PUSH20 0xFFFFFFFFFFFFFFFFFFFFFFFFFFFFFFFFFFFFFFFF AND EQ PUSH2 0x1008 JUMPI PUSH1 0x40 MLOAD PUSH32 0x8C379A000000000000000000000000000000000000000000000000000000000 DUP2 MSTORE PUSH1 0x4 ADD PUSH2 0xFFF SWAP1 PUSH2 0x2910 JUMP JUMPDEST PUSH1 0x40 MLOAD DUP1 SWAP2 SUB SWAP1 REVERT JUMPDEST PUSH1 0x0 PUSH20 0xFFFFFFFFFFFFFFFFFFFFFFFFFFFFFFFFFFFFFFFF AND DUP3 PUSH20 0xFFFFFFFFFFFFFFFFFFFFFFFFFFFFFFFFFFFFFFFF AND SUB PUSH2 0x1077 JUMPI PUSH1 0x40 MLOAD PUSH32 0x8C379A000000000000000000000000000000000000000000000000000000000 DUP2 MSTORE PUSH1 0x4 ADD PUSH2 0x106E SWAP1 PUSH2 0x29A2 JUMP JUMPDEST PUSH1 0x40 MLOAD DUP1 SWAP2 SUB SWAP1 REVERT JUMPDEST PUSH2 0x1084 DUP4 DUP4 DUP4 PUSH1 0x1 PUSH2 0x1845 JUMP JUMPDEST DUP3 PUSH20 0xFFFFFFFFFFFFFFFFFFFFFFFFFFFFFFFFFFFFFFFF AND PUSH2 0x10A4 DUP3 PUSH2 0x9D6 JUMP JUMPDEST PUSH20 0xFFFFFFFFFFFFFFFFFFFFFFFFFFFFFFFFFFFFFFFF AND EQ PUSH2 0x10FA JUMPI PUSH1 0x40 MLOAD PUSH32 0x8C379A000000000000000000000000000000000000000000000000000000000 DUP2 MSTORE PUSH1 0x4 ADD PUSH2 0x10F1 SWAP1 PUSH2 0x2910 JUMP JUMPDEST PUSH1 0x40 MLOAD DUP1 SWAP2 SUB SWAP1 REVERT JUMPDEST PUSH1 0x4 PUSH1 0x0 DUP3 DUP2 MSTORE PUSH1 0x20 ADD SWAP1 DUP2 MSTORE PUSH1 0x20 ADD PUSH1 0x0 KECCAK256 PUSH1 0x0 PUSH2 0x100 EXP DUP2 SLOAD SWAP1 PUSH20 0xFFFFFFFFFFFFFFFFFFFFFFFFFFFFFFFFFFFFFFFF MUL NOT AND SWAP1 SSTORE PUSH1 0x1 PUSH1 0x3 PUSH1 0x0 DUP6 PUSH20 0xFFFFFFFFFFFFFFFFFFFFFFFFFFFFFFFFFFFFFFFF AND PUSH20 0xFFFFFFFFFFFFFFFFFFFFFFFFFFFFFFFFFFFFFFFF AND DUP2 MSTORE PUSH1 0x20 ADD SWAP1 DUP2 MSTORE PUSH1 0x20 ADD PUSH1 0x0 KECCAK256 PUSH1 0x0 DUP3 DUP3 SLOAD SUB SWAP3 POP POP DUP2 SWAP1 SSTORE POP PUSH1 0x1 PUSH1 0x3 PUSH1 0x0 DUP5 PUSH20 0xFFFFFFFFFFFFFFFFFFFFFFFFFFFFFFFFFFFFFFFF AND PUSH20 0xFFFFFFFFFFFFFFFFFFFFFFFFFFFFFFFFFFFFFFFF AND DUP2 MSTORE PUSH1 0x20 ADD SWAP1 DUP2 MSTORE PUSH1 0x20 ADD PUSH1 0x0 KECCAK256 PUSH1 0x0 DUP3 DUP3 SLOAD ADD SWAP3 POP POP DUP2 SWAP1 SSTORE POP DUP2 PUSH1 0x2 PUSH1 0x0 DUP4 DUP2 MSTORE PUSH1 0x20 ADD SWAP1 DUP2 MSTORE PUSH1 0x20 ADD PUSH1 0x0 KECCAK256 PUSH1 0x0 PUSH2 0x100 EXP DUP2 SLOAD DUP2 PUSH20 0xFFFFFFFFFFFFFFFFFFFFFFFFFFFFFFFFFFFFFFFF MUL NOT AND SWAP1 DUP4 PUSH20 0xFFFFFFFFFFFFFFFFFFFFFFFFFFFFFFFFFFFFFFFF AND MUL OR SWAP1 SSTORE POP DUP1 DUP3 PUSH20 0xFFFFFFFFFFFFFFFFFFFFFFFFFFFFFFFFFFFFFFFF AND DUP5 PUSH20 0xFFFFFFFFFFFFFFFFFFFFFFFFFFFFFFFFFFFFFFFF AND PUSH32 0xDDF252AD1BE2C89B69C2B068FC378DAA952BA7F163C4A11628F55A4DF523B3EF PUSH1 0x40 MLOAD PUSH1 0x40 MLOAD DUP1 SWAP2 SUB SWAP1 LOG4 PUSH2 0x1286 DUP4 DUP4 DUP4 PUSH1 0x1 PUSH2 0x184B JUMP JUMPDEST POP POP POP JUMP JUMPDEST PUSH1 0x0 PUSH2 0x1296 DUP4 PUSH2 0x9D6 JUMP JUMPDEST SWAP1 POP DUP2 DUP1 ISZERO PUSH2 0x12C3 JUMPI POP PUSH1 0x6 PUSH1 0x0 DUP5 DUP2 MSTORE PUSH1 0x20 ADD SWAP1 DUP2 MSTORE PUSH1 0x20 ADD PUSH1 0x0 KECCAK256 PUSH1 0x0 SWAP1 SLOAD SWAP1 PUSH2 0x100 EXP SWAP1 DIV PUSH1 0xFF AND ISZERO JUMPDEST ISZERO PUSH2 0x131B JUMPI PUSH1 0x1 PUSH1 0x8 PUSH1 0x0 DUP4 PUSH20 0xFFFFFFFFFFFFFFFFFFFFFFFFFFFFFFFFFFFFFFFF AND PUSH20 0xFFFFFFFFFFFFFFFFFFFFFFFFFFFFFFFFFFFFFFFF AND DUP2 MSTORE PUSH1 0x20 ADD SWAP1 DUP2 MSTORE PUSH1 0x20 ADD PUSH1 0x0 KECCAK256 PUSH1 0x0 DUP3 DUP3 SLOAD ADD SWAP3 POP POP DUP2 SWAP1 SSTORE POP PUSH2 0x139B JUMP JUMPDEST DUP2 ISZERO DUP1 ISZERO PUSH2 0x1346 JUMPI POP PUSH1 0x6 PUSH1 0x0 DUP5 DUP2 MSTORE PUSH1 0x20 ADD SWAP1 DUP2 MSTORE PUSH1 0x20 ADD PUSH1 0x0 KECCAK256 PUSH1 0x0 SWAP1 SLOAD SWAP1 PUSH2 0x100 EXP SWAP1 DIV PUSH1 0xFF AND JUMPDEST ISZERO PUSH2 0x139A JUMPI PUSH1 0x1 PUSH1 0x8 PUSH1 0x0 DUP4 PUSH20 0xFFFFFFFFFFFFFFFFFFFFFFFFFFFFFFFFFFFFFFFF AND PUSH20 0xFFFFFFFFFFFFFFFFFFFFFFFFFFFFFFFFFFFFFFFF AND DUP2 MSTORE PUSH1 0x20 ADD SWAP1 DUP2 MSTORE PUSH1 0x20 ADD PUSH1 0x0 KECCAK256 PUSH1 0x0 DUP3 DUP3 SLOAD SUB SWAP3 POP POP DUP2 SWAP1 SSTORE POP JUMPDEST JUMPDEST DUP2 PUSH1 0x6 PUSH1 0x0 DUP6 DUP2 MSTORE PUSH1 0x20 ADD SWAP1 DUP2 MSTORE PUSH1 0x20 ADD PUSH1 0x0 KECCAK256 PUSH1 0x0 PUSH2 0x100 EXP DUP2 SLOAD DUP2 PUSH1 0xFF MUL NOT AND SWAP1 DUP4 ISZERO ISZERO MUL OR SWAP1 SSTORE POP PUSH2 0x13CF DUP4 PUSH2 0x9D6 JUMP JUMPDEST PUSH20 0xFFFFFFFFFFFFFFFFFFFFFFFFFFFFFFFFFFFFFFFF AND PUSH32 0xB5AAF11176F7B5020892B8A131E119463931075DB10E5E370C7D63292206EC63 DUP5 DUP5 PUSH1 0x40 MLOAD PUSH2 0x1416 SWAP3 SWAP2 SWAP1 PUSH2 0x29C2 JUMP JUMPDEST PUSH1 0x40 MLOAD DUP1 SWAP2 SUB SWAP1 LOG2 POP POP POP JUMP JUMPDEST PUSH1 0x0 PUSH1 0x2 PUSH1 0x0 DUP4 DUP2 MSTORE PUSH1 0x20 ADD SWAP1 DUP2 MSTORE PUSH1 0x20 ADD PUSH1 0x0 KECCAK256 PUSH1 0x0 SWAP1 SLOAD SWAP1 PUSH2 0x100 EXP SWAP1 DIV PUSH20 0xFFFFFFFFFFFFFFFFFFFFFFFFFFFFFFFFFFFFFFFF AND SWAP1 POP SWAP2 SWAP1 POP JUMP JUMPDEST PUSH2 0x147A DUP3 DUP3 PUSH1 0x40 MLOAD DUP1 PUSH1 0x20 ADD PUSH1 0x40 MSTORE DUP1 PUSH1 0x0 DUP2 MSTORE POP PUSH2 0x1851 JUMP JUMPDEST POP POP JUMP JUMPDEST DUP2 PUSH20 0xFFFFFFFFFFFFFFFFFFFFFFFFFFFFFFFFFFFFFFFF AND DUP4 PUSH20 0xFFFFFFFFFFFFFFFFFFFFFFFFFFFFFFFFFFFFFFFF AND SUB PUSH2 0x14EC JUMPI PUSH1 0x40 MLOAD PUSH32 0x8C379A000000000000000000000000000000000000000000000000000000000 DUP2 MSTORE PUSH1 0x4 ADD PUSH2 0x14E3 SWAP1 PUSH2 0x2A37 JUMP JUMPDEST PUSH1 0x40 MLOAD DUP1 SWAP2 SUB SWAP1 REVERT JUMPDEST PUSH1 0x0 PUSH1 0x8 PUSH1 0x0 DUP6 PUSH20 0xFFFFFFFFFFFFFFFFFFFFFFFFFFFFFFFFFFFFFFFF AND PUSH20 0xFFFFFFFFFFFFFFFFFFFFFFFFFFFFFFFFFFFFFFFF AND DUP2 MSTORE PUSH1 0x20 ADD SWAP1 DUP2 MSTORE PUSH1 0x20 ADD PUSH1 0x0 KECCAK256 SLOAD EQ PUSH2 0x156E JUMPI PUSH1 0x40 MLOAD PUSH32 0x8C379A000000000000000000000000000000000000000000000000000000000 DUP2 MSTORE PUSH1 0x4 ADD PUSH2 0x1565 SWAP1 PUSH2 0x2590 JUMP JUMPDEST PUSH1 0x40 MLOAD DUP1 SWAP2 SUB SWAP1 REVERT JUMPDEST DUP1 PUSH1 0x5 PUSH1 0x0 DUP6 PUSH20 0xFFFFFFFFFFFFFFFFFFFFFFFFFFFFFFFFFFFFFFFF AND PUSH20 0xFFFFFFFFFFFFFFFFFFFFFFFFFFFFFFFFFFFFFFFF AND DUP2 MSTORE PUSH1 0x20 ADD SWAP1 DUP2 MSTORE PUSH1 0x20 ADD PUSH1 0x0 KECCAK256 PUSH1 0x0 DUP5 PUSH20 0xFFFFFFFFFFFFFFFFFFFFFFFFFFFFFFFFFFFFFFFF AND PUSH20 0xFFFFFFFFFFFFFFFFFFFFFFFFFFFFFFFFFFFFFFFF AND DUP2 MSTORE PUSH1 0x20 ADD SWAP1 DUP2 MSTORE PUSH1 0x20 ADD PUSH1 0x0 KECCAK256 PUSH1 0x0 PUSH2 0x100 EXP DUP2 SLOAD DUP2 PUSH1 0xFF MUL NOT AND SWAP1 DUP4 ISZERO ISZERO MUL OR SWAP1 SSTORE POP DUP1 PUSH1 0x7 PUSH1 0x0 DUP6 PUSH20 0xFFFFFFFFFFFFFFFFFFFFFFFFFFFFFFFFFFFFFFFF AND PUSH20 0xFFFFFFFFFFFFFFFFFFFFFFFFFFFFFFFFFFFFFFFF AND DUP2 MSTORE PUSH1 0x20 ADD SWAP1 DUP2 MSTORE PUSH1 0x20 ADD PUSH1 0x0 KECCAK256 PUSH1 0x0 PUSH2 0x100 EXP DUP2 SLOAD DUP2 PUSH1 0xFF MUL NOT AND SWAP1 DUP4 ISZERO ISZERO MUL OR SWAP1 SSTORE POP DUP2 PUSH20 0xFFFFFFFFFFFFFFFFFFFFFFFFFFFFFFFFFFFFFFFF AND DUP4 PUSH20 0xFFFFFFFFFFFFFFFFFFFFFFFFFFFFFFFFFFFFFFFF AND PUSH32 0x17307EAB39AB6107E8899845AD3D59BD9653F200F220920489CA2B5937696C31 DUP4 PUSH1 0x40 MLOAD PUSH2 0x16B6 SWAP2 SWAP1 PUSH2 0x1E7A JUMP JUMPDEST PUSH1 0x40 MLOAD DUP1 SWAP2 SUB SWAP1 LOG3 POP POP POP JUMP JUMPDEST PUSH2 0x16CE DUP5 DUP5 DUP5 PUSH2 0xF92 JUMP JUMPDEST PUSH2 0x16DA DUP5 DUP5 DUP5 DUP5 PUSH2 0x18AC JUMP JUMPDEST PUSH2 0x1719 JUMPI PUSH1 0x40 MLOAD PUSH32 0x8C379A000000000000000000000000000000000000000000000000000000000 DUP2 MSTORE PUSH1 0x4 ADD PUSH2 0x1710 SWAP1 PUSH2 0x2AC9 JUMP JUMPDEST PUSH1 0x40 MLOAD DUP1 SWAP2 SUB SWAP1 REVERT JUMPDEST POP POP POP POP JUMP JUMPDEST PUSH1 0x60 PUSH1 0x40 MLOAD DUP1 PUSH1 0x20 ADD PUSH1 0x40 MSTORE DUP1 PUSH1 0x0 DUP2 MSTORE POP SWAP1 POP SWAP1 JUMP JUMPDEST PUSH1 0x60 PUSH1 0x0 PUSH1 0x1 PUSH2 0x1745 DUP5 PUSH2 0x1A33 JUMP JUMPDEST ADD SWAP1 POP PUSH1 0x0 DUP2 PUSH8 0xFFFFFFFFFFFFFFFF DUP2 GT ISZERO PUSH2 0x1764 JUMPI PUSH2 0x1763 PUSH2 0x21D2 JUMP JUMPDEST JUMPDEST PUSH1 0x40 MLOAD SWAP1 DUP1 DUP3 MSTORE DUP1 PUSH1 0x1F ADD PUSH1 0x1F NOT AND PUSH1 0x20 ADD DUP3 ADD PUSH1 0x40 MSTORE DUP1 ISZERO PUSH2 0x1796 JUMPI DUP2 PUSH1 0x20 ADD PUSH1 0x1 DUP3 MUL DUP1 CALLDATASIZE DUP4 CALLDATACOPY DUP1 DUP3 ADD SWAP2 POP POP SWAP1 POP JUMPDEST POP SWAP1 POP PUSH1 0x0 DUP3 PUSH1 0x20 ADD DUP3 ADD SWAP1 POP JUMPDEST PUSH1 0x1 ISZERO PUSH2 0x17F9 JUMPI DUP1 DUP1 PUSH1 0x1 SWAP1 SUB SWAP2 POP POP PUSH32 0x3031323334353637383961626364656600000000000000000000000000000000 PUSH1 0xA DUP7 MOD BYTE DUP2 MSTORE8 PUSH1 0xA DUP6 DUP2 PUSH2 0x17ED JUMPI PUSH2 0x17EC PUSH2 0x2AE9 JUMP JUMPDEST JUMPDEST DIV SWAP5 POP PUSH1 0x0 DUP6 SUB PUSH2 0x17A4 JUMPI JUMPDEST DUP2 SWAP4 POP POP POP POP SWAP2 SWAP1 POP JUMP JUMPDEST PUSH1 0x0 DUP1 PUSH20 0xFFFFFFFFFFFFFFFFFFFFFFFFFFFFFFFFFFFFFFFF AND PUSH2 0x1826 DUP4 PUSH2 0x1423 JUMP JUMPDEST PUSH20 0xFFFFFFFFFFFFFFFFFFFFFFFFFFFFFFFFFFFFFFFF AND EQ ISZERO SWAP1 POP SWAP2 SWAP1 POP JUMP JUMPDEST POP POP POP POP JUMP JUMPDEST POP POP POP POP JUMP JUMPDEST PUSH2 0x185B DUP4 DUP4 PUSH2 0x1B86 JUMP JUMPDEST PUSH2 0x1868 PUSH1 0x0 DUP5 DUP5 DUP5 PUSH2 0x18AC JUMP JUMPDEST PUSH2 0x18A7 JUMPI PUSH1 0x40 MLOAD PUSH32 0x8C379A000000000000000000000000000000000000000000000000000000000 DUP2 MSTORE PUSH1 0x4 ADD PUSH2 0x189E SWAP1 PUSH2 0x2AC9 JUMP JUMPDEST PUSH1 0x40 MLOAD DUP1 SWAP2 SUB SWAP1 REVERT JUMPDEST POP POP POP JUMP JUMPDEST PUSH1 0x0 PUSH2 0x18CD DUP5 PUSH20 0xFFFFFFFFFFFFFFFFFFFFFFFFFFFFFFFFFFFFFFFF AND PUSH2 0x1DA3 JUMP JUMPDEST ISZERO PUSH2 0x1A26 JUMPI DUP4 PUSH20 0xFFFFFFFFFFFFFFFFFFFFFFFFFFFFFFFFFFFFFFFF AND PUSH4 0x150B7A02 PUSH2 0x18F6 PUSH2 0xE3C JUMP JUMPDEST DUP8 DUP7 DUP7 PUSH1 0x40 MLOAD DUP6 PUSH4 0xFFFFFFFF AND PUSH1 0xE0 SHL DUP2 MSTORE PUSH1 0x4 ADD PUSH2 0x1918 SWAP5 SWAP4 SWAP3 SWAP2 SWAP1 PUSH2 0x2B6D JUMP JUMPDEST PUSH1 0x20 PUSH1 0x40 MLOAD DUP1 DUP4 SUB DUP2 PUSH1 0x0 DUP8 GAS CALL SWAP3 POP POP POP DUP1 ISZERO PUSH2 0x1954 JUMPI POP PUSH1 0x40 MLOAD RETURNDATASIZE PUSH1 0x1F NOT PUSH1 0x1F DUP3 ADD AND DUP3 ADD DUP1 PUSH1 0x40 MSTORE POP DUP2 ADD SWAP1 PUSH2 0x1951 SWAP2 SWAP1 PUSH2 0x2BCE JUMP JUMPDEST PUSH1 0x1 JUMPDEST PUSH2 0x19D6 JUMPI RETURNDATASIZE DUP1 PUSH1 0x0 DUP2 EQ PUSH2 0x1984 JUMPI PUSH1 0x40 MLOAD SWAP2 POP PUSH1 0x1F NOT PUSH1 0x3F RETURNDATASIZE ADD AND DUP3 ADD PUSH1 0x40 MSTORE RETURNDATASIZE DUP3 MSTORE RETURNDATASIZE PUSH1 0x0 PUSH1 0x20 DUP5 ADD RETURNDATACOPY PUSH2 0x1989 JUMP JUMPDEST PUSH1 0x60 SWAP2 POP JUMPDEST POP PUSH1 0x0 DUP2 MLOAD SUB PUSH2 0x19CE JUMPI PUSH1 0x40 MLOAD PUSH32 0x8C379A000000000000000000000000000000000000000000000000000000000 DUP2 MSTORE PUSH1 0x4 ADD PUSH2 0x19C5 SWAP1 PUSH2 0x2AC9 JUMP JUMPDEST PUSH1 0x40 MLOAD DUP1 SWAP2 SUB SWAP1 REVERT JUMPDEST DUP1 MLOAD DUP2 PUSH1 0x20 ADD REVERT JUMPDEST PUSH4 0x150B7A02 PUSH1 0xE0 SHL PUSH28 0xFFFFFFFFFFFFFFFFFFFFFFFFFFFFFFFFFFFFFFFFFFFFFFFFFFFFFFFF NOT AND DUP2 PUSH28 0xFFFFFFFFFFFFFFFFFFFFFFFFFFFFFFFFFFFFFFFFFFFFFFFFFFFFFFFF NOT AND EQ SWAP2 POP POP PUSH2 0x1A2B JUMP JUMPDEST PUSH1 0x1 SWAP1 POP JUMPDEST SWAP5 SWAP4 POP POP POP POP JUMP JUMPDEST PUSH1 0x0 DUP1 PUSH1 0x0 SWAP1 POP PUSH27 0x184F03E93FF9F4DAA797ED6E38ED64BF6A1F010000000000000000 DUP4 LT PUSH2 0x1A91 JUMPI PUSH27 0x184F03E93FF9F4DAA797ED6E38ED64BF6A1F010000000000000000 DUP4 DUP2 PUSH2 0x1A87 JUMPI PUSH2 0x1A86 PUSH2 0x2AE9 JUMP JUMPDEST JUMPDEST DIV SWAP3 POP PUSH1 0x40 DUP2 ADD SWAP1 POP JUMPDEST PUSH14 0x4EE2D6D415B85ACEF8100000000 DUP4 LT PUSH2 0x1ACE JUMPI PUSH14 0x4EE2D6D415B85ACEF8100000000 DUP4 DUP2 PUSH2 0x1AC4 JUMPI PUSH2 0x1AC3 PUSH2 0x2AE9 JUMP JUMPDEST JUMPDEST DIV SWAP3 POP PUSH1 0x20 DUP2 ADD SWAP1 POP JUMPDEST PUSH7 0x2386F26FC10000 DUP4 LT PUSH2 0x1AFD JUMPI PUSH7 0x2386F26FC10000 DUP4 DUP2 PUSH2 0x1AF3 JUMPI PUSH2 0x1AF2 PUSH2 0x2AE9 JUMP JUMPDEST JUMPDEST DIV SWAP3 POP PUSH1 0x10 DUP2 ADD SWAP1 POP JUMPDEST PUSH4 0x5F5E100 DUP4 LT PUSH2 0x1B26 JUMPI PUSH4 0x5F5E100 DUP4 DUP2 PUSH2 0x1B1C JUMPI PUSH2 0x1B1B PUSH2 0x2AE9 JUMP JUMPDEST JUMPDEST DIV SWAP3 POP PUSH1 0x8 DUP2 ADD SWAP1 POP JUMPDEST PUSH2 0x2710 DUP4 LT PUSH2 0x1B4B JUMPI PUSH2 0x2710 DUP4 DUP2 PUSH2 0x1B41 JUMPI PUSH2 0x1B40 PUSH2 0x2AE9 JUMP JUMPDEST JUMPDEST DIV SWAP3 POP PUSH1 0x4 DUP2 ADD SWAP1 POP JUMPDEST PUSH1 0x64 DUP4 LT PUSH2 0x1B6E JUMPI PUSH1 0x64 DUP4 DUP2 PUSH2 0x1B64 JUMPI PUSH2 0x1B63 PUSH2 0x2AE9 JUMP JUMPDEST JUMPDEST DIV SWAP3 POP PUSH1 0x2 DUP2 ADD SWAP1 POP JUMPDEST PUSH1 0xA DUP4 LT PUSH2 0x1B7D JUMPI PUSH1 0x1 DUP2 ADD SWAP1 POP JUMPDEST DUP1 SWAP2 POP POP SWAP2 SWAP1 POP JUMP JUMPDEST PUSH1 0x0 PUSH20 0xFFFFFFFFFFFFFFFFFFFFFFFFFFFFFFFFFFFFFFFF AND DUP3 PUSH20 0xFFFFFFFFFFFFFFFFFFFFFFFFFFFFFFFFFFFFFFFF AND SUB PUSH2 0x1BF5 JUMPI PUSH1 0x40 MLOAD PUSH32 0x8C379A000000000000000000000000000000000000000000000000000000000 DUP2 MSTORE PUSH1 0x4 ADD PUSH2 0x1BEC SWAP1 PUSH2 0x2C47 JUMP JUMPDEST PUSH1 0x40 MLOAD DUP1 SWAP2 SUB SWAP1 REVERT JUMPDEST PUSH2 0x1BFE DUP2 PUSH2 0x1804 JUMP JUMPDEST ISZERO PUSH2 0x1C3E JUMPI PUSH1 0x40 MLOAD PUSH32 0x8C379A000000000000000000000000000000000000000000000000000000000 DUP2 MSTORE PUSH1 0x4 ADD PUSH2 0x1C35 SWAP1 PUSH2 0x2CB3 JUMP JUMPDEST PUSH1 0x40 MLOAD DUP1 SWAP2 SUB SWAP1 REVERT JUMPDEST PUSH2 0x1C4C PUSH1 0x0 DUP4 DUP4 PUSH1 0x1 PUSH2 0x1845 JUMP JUMPDEST PUSH2 0x1C55 DUP2 PUSH2 0x1804 JUMP JUMPDEST ISZERO PUSH2 0x1C95 JUMPI PUSH1 0x40 MLOAD PUSH32 0x8C379A000000000000000000000000000000000000000000000000000000000 DUP2 MSTORE PUSH1 0x4 ADD PUSH2 0x1C8C SWAP1 PUSH2 0x2CB3 JUMP JUMPDEST PUSH1 0x40 MLOAD DUP1 SWAP2 SUB SWAP1 REVERT JUMPDEST PUSH1 0x1 PUSH1 0x3 PUSH1 0x0 DUP5 PUSH20 0xFFFFFFFFFFFFFFFFFFFFFFFFFFFFFFFFFFFFFFFF AND PUSH20 0xFFFFFFFFFFFFFFFFFFFFFFFFFFFFFFFFFFFFFFFF AND DUP2 MSTORE PUSH1 0x20 ADD SWAP1 DUP2 MSTORE PUSH1 0x20 ADD PUSH1 0x0 KECCAK256 PUSH1 0x0 DUP3 DUP3 SLOAD ADD SWAP3 POP POP DUP2 SWAP1 SSTORE POP DUP2 PUSH1 0x2 PUSH1 0x0 DUP4 DUP2 MSTORE PUSH1 0x20 ADD SWAP1 DUP2 MSTORE PUSH1 0x20 ADD PUSH1 0x0 KECCAK256 PUSH1 0x0 PUSH2 0x100 EXP DUP2 SLOAD DUP2 PUSH20 0xFFFFFFFFFFFFFFFFFFFFFFFFFFFFFFFFFFFFFFFF MUL NOT AND SWAP1 DUP4 PUSH20 0xFFFFFFFFFFFFFFFFFFFFFFFFFFFFFFFFFFFFFFFF AND MUL OR SWAP1 SSTORE POP DUP1 DUP3 PUSH20 0xFFFFFFFFFFFFFFFFFFFFFFFFFFFFFFFFFFFFFFFF AND PUSH1 0x0 PUSH20 0xFFFFFFFFFFFFFFFFFFFFFFFFFFFFFFFFFFFFFFFF AND PUSH32 0xDDF252AD1BE2C89B69C2B068FC378DAA952BA7F163C4A11628F55A4DF523B3EF PUSH1 0x40 MLOAD PUSH1 0x40 MLOAD DUP1 SWAP2 SUB SWAP1 LOG4 PUSH2 0x1D9F PUSH1 0x0 DUP4 DUP4 PUSH1 0x1 PUSH2 0x184B JUMP JUMPDEST POP POP JUMP JUMPDEST PUSH1 0x0 DUP1 DUP3 PUSH20 0xFFFFFFFFFFFFFFFFFFFFFFFFFFFFFFFFFFFFFFFF AND EXTCODESIZE GT SWAP1 POP SWAP2 SWAP1 POP JUMP JUMPDEST PUSH1 0x0 PUSH1 0x40 MLOAD SWAP1 POP SWAP1 JUMP JUMPDEST PUSH1 0x0 DUP1 REVERT JUMPDEST PUSH1 0x0 DUP1 REVERT JUMPDEST PUSH1 0x0 PUSH32 0xFFFFFFFF00000000000000000000000000000000000000000000000000000000 DUP3 AND SWAP1 POP SWAP2 SWAP1 POP JUMP JUMPDEST PUSH2 0x1E0F DUP2 PUSH2 0x1DDA JUMP JUMPDEST DUP2 EQ PUSH2 0x1E1A JUMPI PUSH1 0x0 DUP1 REVERT JUMPDEST POP JUMP JUMPDEST PUSH1 0x0 DUP2 CALLDATALOAD SWAP1 POP PUSH2 0x1E2C DUP2 PUSH2 0x1E06 JUMP JUMPDEST SWAP3 SWAP2 POP POP JUMP JUMPDEST PUSH1 0x0 PUSH1 0x20 DUP3 DUP5 SUB SLT ISZERO PUSH2 0x1E48 JUMPI PUSH2 0x1E47 PUSH2 0x1DD0 JUMP JUMPDEST JUMPDEST PUSH1 0x0 PUSH2 0x1E56 DUP5 DUP3 DUP6 ADD PUSH2 0x1E1D JUMP JUMPDEST SWAP2 POP POP SWAP3 SWAP2 POP POP JUMP JUMPDEST PUSH1 0x0 DUP2 ISZERO ISZERO SWAP1 POP SWAP2 SWAP1 POP JUMP JUMPDEST PUSH2 0x1E74 DUP2 PUSH2 0x1E5F JUMP JUMPDEST DUP3 MSTORE POP POP JUMP JUMPDEST PUSH1 0x0 PUSH1 0x20 DUP3 ADD SWAP1 POP PUSH2 0x1E8F PUSH1 0x0 DUP4 ADD DUP5 PUSH2 0x1E6B JUMP JUMPDEST SWAP3 SWAP2 POP POP JUMP JUMPDEST PUSH1 0x0 DUP2 MLOAD SWAP1 POP SWAP2 SWAP1 POP JUMP JUMPDEST PUSH1 0x0 DUP3 DUP3 MSTORE PUSH1 0x20 DUP3 ADD SWAP1 POP SWAP3 SWAP2 POP POP JUMP JUMPDEST PUSH1 0x0 JUMPDEST DUP4 DUP2 LT ISZERO PUSH2 0x1ECF JUMPI DUP1 DUP3 ADD MLOAD DUP2 DUP5 ADD MSTORE PUSH1 0x20 DUP2 ADD SWAP1 POP PUSH2 0x1EB4 JUMP JUMPDEST PUSH1 0x0 DUP5 DUP5 ADD MSTORE POP POP POP POP JUMP JUMPDEST PUSH1 0x0 PUSH1 0x1F NOT PUSH1 0x1F DUP4 ADD AND SWAP1 POP SWAP2 SWAP1 POP JUMP JUMPDEST PUSH1 0x0 PUSH2 0x1EF7 DUP3 PUSH2 0x1E95 JUMP JUMPDEST PUSH2 0x1F01 DUP2 DUP6 PUSH2 0x1EA0 JUMP JUMPDEST SWAP4 POP PUSH2 0x1F11 DUP2 DUP6 PUSH1 0x20 DUP7 ADD PUSH2 0x1EB1 JUMP JUMPDEST PUSH2 0x1F1A DUP2 PUSH2 0x1EDB JUMP JUMPDEST DUP5 ADD SWAP2 POP POP SWAP3 SWAP2 POP POP JUMP JUMPDEST PUSH1 0x0 PUSH1 0x20 DUP3 ADD SWAP1 POP DUP2 DUP2 SUB PUSH1 0x0 DUP4 ADD MSTORE PUSH2 0x1F3F DUP2 DUP5 PUSH2 0x1EEC JUMP JUMPDEST SWAP1 POP SWAP3 SWAP2 POP POP JUMP JUMPDEST PUSH1 0x0 PUSH20 0xFFFFFFFFFFFFFFFFFFFFFFFFFFFFFFFFFFFFFFFF DUP3 AND SWAP1 POP SWAP2 SWAP1 POP JUMP JUMPDEST PUSH1 0x0 PUSH2 0x1F72 DUP3 PUSH2 0x1F47 JUMP JUMPDEST SWAP1 POP SWAP2 SWAP1 POP JUMP JUMPDEST PUSH2 0x1F82 DUP2 PUSH2 0x1F67 JUMP JUMPDEST DUP2 EQ PUSH2 0x1F8D JUMPI PUSH1 0x0 DUP1 REVERT JUMPDEST POP JUMP JUMPDEST PUSH1 0x0 DUP2 CALLDATALOAD SWAP1 POP PUSH2 0x1F9F DUP2 PUSH2 0x1F79 JUMP JUMPDEST SWAP3 SWAP2 POP POP JUMP JUMPDEST PUSH1 0x0 PUSH1 0x20 DUP3 DUP5 SUB SLT ISZERO PUSH2 0x1FBB JUMPI PUSH2 0x1FBA PUSH2 0x1DD0 JUMP JUMPDEST JUMPDEST PUSH1 0x0 PUSH2 0x1FC9 DUP5 DUP3 DUP6 ADD PUSH2 0x1F90 JUMP JUMPDEST SWAP2 POP POP SWAP3 SWAP2 POP POP JUMP JUMPDEST PUSH1 0x0 DUP2 SWAP1 POP SWAP2 SWAP1 POP JUMP JUMPDEST PUSH2 0x1FE5 DUP2 PUSH2 0x1FD2 JUMP JUMPDEST DUP3 MSTORE POP POP JUMP JUMPDEST PUSH1 0x0 PUSH1 0x20 DUP3 ADD SWAP1 POP PUSH2 0x2000 PUSH1 0x0 DUP4 ADD DUP5 PUSH2 0x1FDC JUMP JUMPDEST SWAP3 SWAP2 POP POP JUMP JUMPDEST PUSH2 0x200F DUP2 PUSH2 0x1FD2 JUMP JUMPDEST DUP2 EQ PUSH2 0x201A JUMPI PUSH1 0x0 DUP1 REVERT JUMPDEST POP JUMP JUMPDEST PUSH1 0x0 DUP2 CALLDATALOAD SWAP1 POP PUSH2 0x202C DUP2 PUSH2 0x2006 JUMP JUMPDEST SWAP3 SWAP2 POP POP JUMP JUMPDEST PUSH1 0x0 PUSH1 0x20 DUP3 DUP5 SUB SLT ISZERO PUSH2 0x2048 JUMPI PUSH2 0x2047 PUSH2 0x1DD0 JUMP JUMPDEST JUMPDEST PUSH1 0x0 PUSH2 0x2056 DUP5 DUP3 DUP6 ADD PUSH2 0x201D JUMP JUMPDEST SWAP2 POP POP SWAP3 SWAP2 POP POP JUMP JUMPDEST PUSH2 0x2068 DUP2 PUSH2 0x1F67 JUMP JUMPDEST DUP3 MSTORE POP POP JUMP JUMPDEST PUSH1 0x0 PUSH1 0x20 DUP3 ADD SWAP1 POP PUSH2 0x2083 PUSH1 0x0 DUP4 ADD DUP5 PUSH2 0x205F JUMP JUMPDEST SWAP3 SWAP2 POP POP JUMP JUMPDEST PUSH1 0x0 DUP1 PUSH1 0x40 DUP4 DUP6 SUB SLT ISZERO PUSH2 0x20A0 JUMPI PUSH2 0x209F PUSH2 0x1DD0 JUMP JUMPDEST JUMPDEST PUSH1 0x0 PUSH2 0x20AE DUP6 DUP3 DUP7 ADD PUSH2 0x1F90 JUMP JUMPDEST SWAP3 POP POP PUSH1 0x20 PUSH2 0x20BF DUP6 DUP3 DUP7 ADD PUSH2 0x201D JUMP JUMPDEST SWAP2 POP POP SWAP3 POP SWAP3 SWAP1 POP JUMP JUMPDEST PUSH1 0x0 DUP1 PUSH1 0x0 PUSH1 0x60 DUP5 DUP7 SUB SLT ISZERO PUSH2 0x20E2 JUMPI PUSH2 0x20E1 PUSH2 0x1DD0 JUMP JUMPDEST JUMPDEST PUSH1 0x0 PUSH2 0x20F0 DUP7 DUP3 DUP8 ADD PUSH2 0x1F90 JUMP JUMPDEST SWAP4 POP POP PUSH1 0x20 PUSH2 0x2101 DUP7 DUP3 DUP8 ADD PUSH2 0x1F90 JUMP JUMPDEST SWAP3 POP POP PUSH1 0x40 PUSH2 0x2112 DUP7 DUP3 DUP8 ADD PUSH2 0x201D JUMP JUMPDEST SWAP2 POP POP SWAP3 POP SWAP3 POP SWAP3 JUMP JUMPDEST PUSH2 0x2125 DUP2 PUSH2 0x1E5F JUMP JUMPDEST DUP2 EQ PUSH2 0x2130 JUMPI PUSH1 0x0 DUP1 REVERT JUMPDEST POP JUMP JUMPDEST PUSH1 0x0 DUP2 CALLDATALOAD SWAP1 POP PUSH2 0x2142 DUP2 PUSH2 0x211C JUMP JUMPDEST SWAP3 SWAP2 POP POP JUMP JUMPDEST PUSH1 0x0 DUP1 PUSH1 0x40 DUP4 DUP6 SUB SLT ISZERO PUSH2 0x215F JUMPI PUSH2 0x215E PUSH2 0x1DD0 JUMP JUMPDEST JUMPDEST PUSH1 0x0 PUSH2 0x216D DUP6 DUP3 DUP7 ADD PUSH2 0x201D JUMP JUMPDEST SWAP3 POP POP PUSH1 0x20 PUSH2 0x217E DUP6 DUP3 DUP7 ADD PUSH2 0x2133 JUMP JUMPDEST SWAP2 POP POP SWAP3 POP SWAP3 SWAP1 POP JUMP JUMPDEST PUSH1 0x0 DUP1 PUSH1 0x40 DUP4 DUP6 SUB SLT ISZERO PUSH2 0x219F JUMPI PUSH2 0x219E PUSH2 0x1DD0 JUMP JUMPDEST JUMPDEST PUSH1 0x0 PUSH2 0x21AD DUP6 DUP3 DUP7 ADD PUSH2 0x1F90 JUMP JUMPDEST SWAP3 POP POP PUSH1 0x20 PUSH2 0x21BE DUP6 DUP3 DUP7 ADD PUSH2 0x2133 JUMP JUMPDEST SWAP2 POP POP SWAP3 POP SWAP3 SWAP1 POP JUMP JUMPDEST PUSH1 0x0 DUP1 REVERT JUMPDEST PUSH1 0x0 DUP1 REVERT JUMPDEST PUSH32 0x4E487B7100000000000000000000000000000000000000000000000000000000 PUSH1 0x0 MSTORE PUSH1 0x41 PUSH1 0x4 MSTORE PUSH1 0x24 PUSH1 0x0 REVERT JUMPDEST PUSH2 0x220A DUP3 PUSH2 0x1EDB JUMP JUMPDEST DUP2 ADD DUP2 DUP2 LT PUSH8 0xFFFFFFFFFFFFFFFF DUP3 GT OR ISZERO PUSH2 0x2229 JUMPI PUSH2 0x2228 PUSH2 0x21D2 JUMP JUMPDEST JUMPDEST DUP1 PUSH1 0x40 MSTORE POP POP POP JUMP JUMPDEST PUSH1 0x0 PUSH2 0x223C PUSH2 0x1DC6 JUMP JUMPDEST SWAP1 POP PUSH2 0x2248 DUP3 DUP3 PUSH2 0x2201 JUMP JUMPDEST SWAP2 SWAP1 POP JUMP JUMPDEST PUSH1 0x0 PUSH8 0xFFFFFFFFFFFFFFFF DUP3 GT ISZERO PUSH2 0x2268 JUMPI PUSH2 0x2267 PUSH2 0x21D2 JUMP JUMPDEST JUMPDEST PUSH2 0x2271 DUP3 PUSH2 0x1EDB JUMP JUMPDEST SWAP1 POP PUSH1 0x20 DUP2 ADD SWAP1 POP SWAP2 SWAP1 POP JUMP JUMPDEST DUP3 DUP2 DUP4 CALLDATACOPY PUSH1 0x0 DUP4 DUP4 ADD MSTORE POP POP POP JUMP JUMPDEST PUSH1 0x0 PUSH2 0x22A0 PUSH2 0x229B DUP5 PUSH2 0x224D JUMP JUMPDEST PUSH2 0x2232 JUMP JUMPDEST SWAP1 POP DUP3 DUP2 MSTORE PUSH1 0x20 DUP2 ADD DUP5 DUP5 DUP5 ADD GT ISZERO PUSH2 0x22BC JUMPI PUSH2 0x22BB PUSH2 0x21CD JUMP JUMPDEST JUMPDEST PUSH2 0x22C7 DUP5 DUP3 DUP6 PUSH2 0x227E JUMP JUMPDEST POP SWAP4 SWAP3 POP POP POP JUMP JUMPDEST PUSH1 0x0 DUP3 PUSH1 0x1F DUP4 ADD SLT PUSH2 0x22E4 JUMPI PUSH2 0x22E3 PUSH2 0x21C8 JUMP JUMPDEST JUMPDEST DUP2 CALLDATALOAD PUSH2 0x22F4 DUP5 DUP3 PUSH1 0x20 DUP7 ADD PUSH2 0x228D JUMP JUMPDEST SWAP2 POP POP SWAP3 SWAP2 POP POP JUMP JUMPDEST PUSH1 0x0 DUP1 PUSH1 0x0 DUP1 PUSH1 0x80 DUP6 DUP8 SUB SLT ISZERO PUSH2 0x2317 JUMPI PUSH2 0x2316 PUSH2 0x1DD0 JUMP JUMPDEST JUMPDEST PUSH1 0x0 PUSH2 0x2325 DUP8 DUP3 DUP9 ADD PUSH2 0x1F90 JUMP JUMPDEST SWAP5 POP POP PUSH1 0x20 PUSH2 0x2336 DUP8 DUP3 DUP9 ADD PUSH2 0x1F90 JUMP JUMPDEST SWAP4 POP POP PUSH1 0x40 PUSH2 0x2347 DUP8 DUP3 DUP9 ADD PUSH2 0x201D JUMP JUMPDEST SWAP3 POP POP PUSH1 0x60 DUP6 ADD CALLDATALOAD PUSH8 0xFFFFFFFFFFFFFFFF DUP2 GT ISZERO PUSH2 0x2368 JUMPI PUSH2 0x2367 PUSH2 0x1DD5 JUMP JUMPDEST JUMPDEST PUSH2 0x2374 DUP8 DUP3 DUP9 ADD PUSH2 0x22CF JUMP JUMPDEST SWAP2 POP POP SWAP3 SWAP6 SWAP2 SWAP5 POP SWAP3 POP JUMP JUMPDEST PUSH1 0x0 DUP1 PUSH1 0x40 DUP4 DUP6 SUB SLT ISZERO PUSH2 0x2397 JUMPI PUSH2 0x2396 PUSH2 0x1DD0 JUMP JUMPDEST JUMPDEST PUSH1 0x0 PUSH2 0x23A5 DUP6 DUP3 DUP7 ADD PUSH2 0x1F90 JUMP JUMPDEST SWAP3 POP POP PUSH1 0x20 PUSH2 0x23B6 DUP6 DUP3 DUP7 ADD PUSH2 0x1F90 JUMP JUMPDEST SWAP2 POP POP SWAP3 POP SWAP3 SWAP1 POP JUMP JUMPDEST PUSH32 0x4E487B7100000000000000000000000000000000000000000000000000000000 PUSH1 0x0 MSTORE PUSH1 0x22 PUSH1 0x4 MSTORE PUSH1 0x24 PUSH1 0x0 REVERT JUMPDEST PUSH1 0x0 PUSH1 0x2 DUP3 DIV SWAP1 POP PUSH1 0x1 DUP3 AND DUP1 PUSH2 0x2407 JUMPI PUSH1 0x7F DUP3 AND SWAP2 POP JUMPDEST PUSH1 0x20 DUP3 LT DUP2 SUB PUSH2 0x241A JUMPI PUSH2 0x2419 PUSH2 0x23C0 JUMP JUMPDEST JUMPDEST POP SWAP2 SWAP1 POP JUMP JUMPDEST PUSH32 0x4552433732313A20617070726F76616C20746F2063757272656E74206F776E65 PUSH1 0x0 DUP3 ADD MSTORE PUSH32 0x7200000000000000000000000000000000000000000000000000000000000000 PUSH1 0x20 DUP3 ADD MSTORE POP JUMP JUMPDEST PUSH1 0x0 PUSH2 0x247C PUSH1 0x21 DUP4 PUSH2 0x1EA0 JUMP JUMPDEST SWAP2 POP PUSH2 0x2487 DUP3 PUSH2 0x2420 JUMP JUMPDEST PUSH1 0x40 DUP3 ADD SWAP1 POP SWAP2 SWAP1 POP JUMP JUMPDEST PUSH1 0x0 PUSH1 0x20 DUP3 ADD SWAP1 POP DUP2 DUP2 SUB PUSH1 0x0 DUP4 ADD MSTORE PUSH2 0x24AB DUP2 PUSH2 0x246F JUMP JUMPDEST SWAP1 POP SWAP2 SWAP1 POP JUMP JUMPDEST PUSH32 0x4552433732313A20617070726F76652063616C6C6572206973206E6F7420746F PUSH1 0x0 DUP3 ADD MSTORE PUSH32 0x6B656E206F776E6572206F7220617070726F76656420666F7220616C6C000000 PUSH1 0x20 DUP3 ADD MSTORE POP JUMP JUMPDEST PUSH1 0x0 PUSH2 0x250E PUSH1 0x3D DUP4 PUSH2 0x1EA0 JUMP JUMPDEST SWAP2 POP PUSH2 0x2519 DUP3 PUSH2 0x24B2 JUMP JUMPDEST PUSH1 0x40 DUP3 ADD SWAP1 POP SWAP2 SWAP1 POP JUMP JUMPDEST PUSH1 0x0 PUSH1 0x20 DUP3 ADD SWAP1 POP DUP2 DUP2 SUB PUSH1 0x0 DUP4 ADD MSTORE PUSH2 0x253D DUP2 PUSH2 0x2501 JUMP JUMPDEST SWAP1 POP SWAP2 SWAP1 POP JUMP JUMPDEST PUSH32 0x4552433732313A20746F6B656E206C6F636B6564000000000000000000000000 PUSH1 0x0 DUP3 ADD MSTORE POP JUMP JUMPDEST PUSH1 0x0 PUSH2 0x257A PUSH1 0x14 DUP4 PUSH2 0x1EA0 JUMP JUMPDEST SWAP2 POP PUSH2 0x2585 DUP3 PUSH2 0x2544 JUMP JUMPDEST PUSH1 0x20 DUP3 ADD SWAP1 POP SWAP2 SWAP1 POP JUMP JUMPDEST PUSH1 0x0 PUSH1 0x20 DUP3 ADD SWAP1 POP DUP2 DUP2 SUB PUSH1 0x0 DUP4 ADD MSTORE PUSH2 0x25A9 DUP2 PUSH2 0x256D JUMP JUMPDEST SWAP1 POP SWAP2 SWAP1 POP JUMP JUMPDEST PUSH32 0x4552433732313A2063616C6C6572206973206E6F7420746F6B656E206F776E65 PUSH1 0x0 DUP3 ADD MSTORE PUSH32 0x72206F7220617070726F76656400000000000000000000000000000000000000 PUSH1 0x20 DUP3 ADD MSTORE POP JUMP JUMPDEST PUSH1 0x0 PUSH2 0x260C PUSH1 0x2D DUP4 PUSH2 0x1EA0 JUMP JUMPDEST SWAP2 POP PUSH2 0x2617 DUP3 PUSH2 0x25B0 JUMP JUMPDEST PUSH1 0x40 DUP3 ADD SWAP1 POP SWAP2 SWAP1 POP JUMP JUMPDEST PUSH1 0x0 PUSH1 0x20 DUP3 ADD SWAP1 POP DUP2 DUP2 SUB PUSH1 0x0 DUP4 ADD MSTORE PUSH2 0x263B DUP2 PUSH2 0x25FF JUMP JUMPDEST SWAP1 POP SWAP2 SWAP1 POP JUMP JUMPDEST PUSH32 0x4552433732313A206C6F636B2063616C6C6572206973206E6F7420746F6B656E PUSH1 0x0 DUP3 ADD MSTORE PUSH32 0x206F776E6572206F7220617070726F76656420666F7220616C6C000000000000 PUSH1 0x20 DUP3 ADD MSTORE POP JUMP JUMPDEST PUSH1 0x0 PUSH2 0x269E PUSH1 0x3A DUP4 PUSH2 0x1EA0 JUMP JUMPDEST SWAP2 POP PUSH2 0x26A9 DUP3 PUSH2 0x2642 JUMP JUMPDEST PUSH1 0x40 DUP3 ADD SWAP1 POP SWAP2 SWAP1 POP JUMP JUMPDEST PUSH1 0x0 PUSH1 0x20 DUP3 ADD SWAP1 POP DUP2 DUP2 SUB PUSH1 0x0 DUP4 ADD MSTORE PUSH2 0x26CD DUP2 PUSH2 0x2691 JUMP JUMPDEST SWAP1 POP SWAP2 SWAP1 POP JUMP JUMPDEST PUSH32 0x4552433732313A20746F6B656E20617070726F76656400000000000000000000 PUSH1 0x0 DUP3 ADD MSTORE POP JUMP JUMPDEST PUSH1 0x0 PUSH2 0x270A PUSH1 0x16 DUP4 PUSH2 0x1EA0 JUMP JUMPDEST SWAP2 POP PUSH2 0x2715 DUP3 PUSH2 0x26D4 JUMP JUMPDEST PUSH1 0x20 DUP3 ADD SWAP1 POP SWAP2 SWAP1 POP JUMP JUMPDEST PUSH1 0x0 PUSH1 0x20 DUP3 ADD SWAP1 POP DUP2 DUP2 SUB PUSH1 0x0 DUP4 ADD MSTORE PUSH2 0x2739 DUP2 PUSH2 0x26FD JUMP JUMPDEST SWAP1 POP SWAP2 SWAP1 POP JUMP JUMPDEST PUSH32 0x4552433732313A20696E76616C696420746F6B656E2049440000000000000000 PUSH1 0x0 DUP3 ADD MSTORE POP JUMP JUMPDEST PUSH1 0x0 PUSH2 0x2776 PUSH1 0x18 DUP4 PUSH2 0x1EA0 JUMP JUMPDEST SWAP2 POP PUSH2 0x2781 DUP3 PUSH2 0x2740 JUMP JUMPDEST PUSH1 0x20 DUP3 ADD SWAP1 POP SWAP2 SWAP1 POP JUMP JUMPDEST PUSH1 0x0 PUSH1 0x20 DUP3 ADD SWAP1 POP DUP2 DUP2 SUB PUSH1 0x0 DUP4 ADD MSTORE PUSH2 0x27A5 DUP2 PUSH2 0x2769 JUMP JUMPDEST SWAP1 POP SWAP2 SWAP1 POP JUMP JUMPDEST PUSH32 0x4552433732313A2061646472657373207A65726F206973206E6F742061207661 PUSH1 0x0 DUP3 ADD MSTORE PUSH32 0x6C6964206F776E65720000000000000000000000000000000000000000000000 PUSH1 0x20 DUP3 ADD MSTORE POP JUMP JUMPDEST PUSH1 0x0 PUSH2 0x2808 PUSH1 0x29 DUP4 PUSH2 0x1EA0 JUMP JUMPDEST SWAP2 POP PUSH2 0x2813 DUP3 PUSH2 0x27AC JUMP JUMPDEST PUSH1 0x40 DUP3 ADD SWAP1 POP SWAP2 SWAP1 POP JUMP JUMPDEST PUSH1 0x0 PUSH1 0x20 DUP3 ADD SWAP1 POP DUP2 DUP2 SUB PUSH1 0x0 DUP4 ADD MSTORE PUSH2 0x2837 DUP2 PUSH2 0x27FB JUMP JUMPDEST SWAP1 POP SWAP2 SWAP1 POP JUMP JUMPDEST PUSH1 0x0 DUP2 SWAP1 POP SWAP3 SWAP2 POP POP JUMP JUMPDEST PUSH1 0x0 PUSH2 0x2854 DUP3 PUSH2 0x1E95 JUMP JUMPDEST PUSH2 0x285E DUP2 DUP6 PUSH2 0x283E JUMP JUMPDEST SWAP4 POP PUSH2 0x286E DUP2 DUP6 PUSH1 0x20 DUP7 ADD PUSH2 0x1EB1 JUMP JUMPDEST DUP1 DUP5 ADD SWAP2 POP POP SWAP3 SWAP2 POP POP JUMP JUMPDEST PUSH1 0x0 PUSH2 0x2886 DUP3 DUP6 PUSH2 0x2849 JUMP JUMPDEST SWAP2 POP PUSH2 0x2892 DUP3 DUP5 PUSH2 0x2849 JUMP JUMPDEST SWAP2 POP DUP2 SWAP1 POP SWAP4 SWAP3 POP POP POP JUMP JUMPDEST PUSH32 0x4552433732313A207472616E736665722066726F6D20696E636F727265637420 PUSH1 0x0 DUP3 ADD MSTORE PUSH32 0x6F776E6572000000000000000000000000000000000000000000000000000000 PUSH1 0x20 DUP3 ADD MSTORE POP JUMP JUMPDEST PUSH1 0x0 PUSH2 0x28FA PUSH1 0x25 DUP4 PUSH2 0x1EA0 JUMP JUMPDEST SWAP2 POP PUSH2 0x2905 DUP3 PUSH2 0x289E JUMP JUMPDEST PUSH1 0x40 DUP3 ADD SWAP1 POP SWAP2 SWAP1 POP JUMP JUMPDEST PUSH1 0x0 PUSH1 0x20 DUP3 ADD SWAP1 POP DUP2 DUP2 SUB PUSH1 0x0 DUP4 ADD MSTORE PUSH2 0x2929 DUP2 PUSH2 0x28ED JUMP JUMPDEST SWAP1 POP SWAP2 SWAP1 POP JUMP JUMPDEST PUSH32 0x4552433732313A207472616E7366657220746F20746865207A65726F20616464 PUSH1 0x0 DUP3 ADD MSTORE PUSH32 0x7265737300000000000000000000000000000000000000000000000000000000 PUSH1 0x20 DUP3 ADD MSTORE POP JUMP JUMPDEST PUSH1 0x0 PUSH2 0x298C PUSH1 0x24 DUP4 PUSH2 0x1EA0 JUMP JUMPDEST SWAP2 POP PUSH2 0x2997 DUP3 PUSH2 0x2930 JUMP JUMPDEST PUSH1 0x40 DUP3 ADD SWAP1 POP SWAP2 SWAP1 POP JUMP JUMPDEST PUSH1 0x0 PUSH1 0x20 DUP3 ADD SWAP1 POP DUP2 DUP2 SUB PUSH1 0x0 DUP4 ADD MSTORE PUSH2 0x29BB DUP2 PUSH2 0x297F JUMP JUMPDEST SWAP1 POP SWAP2 SWAP1 POP JUMP JUMPDEST PUSH1 0x0 PUSH1 0x40 DUP3 ADD SWAP1 POP PUSH2 0x29D7 PUSH1 0x0 DUP4 ADD DUP6 PUSH2 0x1FDC JUMP JUMPDEST PUSH2 0x29E4 PUSH1 0x20 DUP4 ADD DUP5 PUSH2 0x1E6B JUMP JUMPDEST SWAP4 SWAP3 POP POP POP JUMP JUMPDEST PUSH32 0x4552433732313A20617070726F766520746F2063616C6C657200000000000000 PUSH1 0x0 DUP3 ADD MSTORE POP JUMP JUMPDEST PUSH1 0x0 PUSH2 0x2A21 PUSH1 0x19 DUP4 PUSH2 0x1EA0 JUMP JUMPDEST SWAP2 POP PUSH2 0x2A2C DUP3 PUSH2 0x29EB JUMP JUMPDEST PUSH1 0x20 DUP3 ADD SWAP1 POP SWAP2 SWAP1 POP JUMP JUMPDEST PUSH1 0x0 PUSH1 0x20 DUP3 ADD SWAP1 POP DUP2 DUP2 SUB PUSH1 0x0 DUP4 ADD MSTORE PUSH2 0x2A50 DUP2 PUSH2 0x2A14 JUMP JUMPDEST SWAP1 POP SWAP2 SWAP1 POP JUMP JUMPDEST PUSH32 0x4552433732313A207472616E7366657220746F206E6F6E204552433732315265 PUSH1 0x0 DUP3 ADD MSTORE PUSH32 0x63656976657220696D706C656D656E7465720000000000000000000000000000 PUSH1 0x20 DUP3 ADD MSTORE POP JUMP JUMPDEST PUSH1 0x0 PUSH2 0x2AB3 PUSH1 0x32 DUP4 PUSH2 0x1EA0 JUMP JUMPDEST SWAP2 POP PUSH2 0x2ABE DUP3 PUSH2 0x2A57 JUMP JUMPDEST PUSH1 0x40 DUP3 ADD SWAP1 POP SWAP2 SWAP1 POP JUMP JUMPDEST PUSH1 0x0 PUSH1 0x20 DUP3 ADD SWAP1 POP DUP2 DUP2 SUB PUSH1 0x0 DUP4 ADD MSTORE PUSH2 0x2AE2 DUP2 PUSH2 0x2AA6 JUMP JUMPDEST SWAP1 POP SWAP2 SWAP1 POP JUMP JUMPDEST PUSH32 0x4E487B7100000000000000000000000000000000000000000000000000000000 PUSH1 0x0 MSTORE PUSH1 0x12 PUSH1 0x4 MSTORE PUSH1 0x24 PUSH1 0x0 REVERT JUMPDEST PUSH1 0x0 DUP2 MLOAD SWAP1 POP SWAP2 SWAP1 POP JUMP JUMPDEST PUSH1 0x0 DUP3 DUP3 MSTORE PUSH1 0x20 DUP3 ADD SWAP1 POP SWAP3 SWAP2 POP POP JUMP JUMPDEST PUSH1 0x0 PUSH2 0x2B3F DUP3 PUSH2 0x2B18 JUMP JUMPDEST PUSH2 0x2B49 DUP2 DUP6 PUSH2 0x2B23 JUMP JUMPDEST SWAP4 POP PUSH2 0x2B59 DUP2 DUP6 PUSH1 0x20 DUP7 ADD PUSH2 0x1EB1 JUMP JUMPDEST PUSH2 0x2B62 DUP2 PUSH2 0x1EDB JUMP JUMPDEST DUP5 ADD SWAP2 POP POP SWAP3 SWAP2 POP POP JUMP JUMPDEST PUSH1 0x0 PUSH1 0x80 DUP3 ADD SWAP1 POP PUSH2 0x2B82 PUSH1 0x0 DUP4 ADD DUP8 PUSH2 0x205F JUMP JUMPDEST PUSH2 0x2B8F PUSH1 0x20 DUP4 ADD DUP7 PUSH2 0x205F JUMP JUMPDEST PUSH2 0x2B9C PUSH1 0x40 DUP4 ADD DUP6 PUSH2 0x1FDC JUMP JUMPDEST DUP2 DUP2 SUB PUSH1 0x60 DUP4 ADD MSTORE PUSH2 0x2BAE DUP2 DUP5 PUSH2 0x2B34 JUMP JUMPDEST SWAP1 POP SWAP6 SWAP5 POP POP POP POP POP JUMP JUMPDEST PUSH1 0x0 DUP2 MLOAD SWAP1 POP PUSH2 0x2BC8 DUP2 PUSH2 0x1E06 JUMP JUMPDEST SWAP3 SWAP2 POP POP JUMP JUMPDEST PUSH1 0x0 PUSH1 0x20 DUP3 DUP5 SUB SLT ISZERO PUSH2 0x2BE4 JUMPI PUSH2 0x2BE3 PUSH2 0x1DD0 JUMP JUMPDEST JUMPDEST PUSH1 0x0 PUSH2 0x2BF2 DUP5 DUP3 DUP6 ADD PUSH2 0x2BB9 JUMP JUMPDEST SWAP2 POP POP SWAP3 SWAP2 POP POP JUMP JUMPDEST PUSH32 0x4552433732313A206D696E7420746F20746865207A65726F2061646472657373 PUSH1 0x0 DUP3 ADD MSTORE POP JUMP JUMPDEST PUSH1 0x0 PUSH2 0x2C31 PUSH1 0x20 DUP4 PUSH2 0x1EA0 JUMP JUMPDEST SWAP2 POP PUSH2 0x2C3C DUP3 PUSH2 0x2BFB JUMP JUMPDEST PUSH1 0x20 DUP3 ADD SWAP1 POP SWAP2 SWAP1 POP JUMP JUMPDEST PUSH1 0x0 PUSH1 0x20 DUP3 ADD SWAP1 POP DUP2 DUP2 SUB PUSH1 0x0 DUP4 ADD MSTORE PUSH2 0x2C60 DUP2 PUSH2 0x2C24 JUMP JUMPDEST SWAP1 POP SWAP2 SWAP1 POP JUMP JUMPDEST PUSH32 0x4552433732313A20746F6B656E20616C7265616479206D696E74656400000000 PUSH1 0x0 DUP3 ADD MSTORE POP JUMP JUMPDEST PUSH1 0x0 PUSH2 0x2C9D PUSH1 0x1C DUP4 PUSH2 0x1EA0 JUMP JUMPDEST SWAP2 POP PUSH2 0x2CA8 DUP3 PUSH2 0x2C67 JUMP JUMPDEST PUSH1 0x20 DUP3 ADD SWAP1 POP SWAP2 SWAP1 POP JUMP JUMPDEST PUSH1 0x0 PUSH1 0x20 DUP3 ADD SWAP1 POP DUP2 DUP2 SUB PUSH1 0x0 DUP4 ADD MSTORE PUSH2 0x2CCC DUP2 PUSH2 0x2C90 JUMP JUMPDEST SWAP1 POP SWAP2 SWAP1 POP JUMP INVALID LOG2 PUSH5 0x6970667358 0x22 SLT KECCAK256 0xB8 MSIZE DUP6 0xD3 0xD7 DUP11 KECCAK256 0xDC PUSH16 0x92CDBB38426AC5299EADCB7F279C37E 0x5F 0xCF 0xDA 0xC1 0x2D PUSH21 0x6964736F6C63430008120033000000000000000000 "
				},
				"gasEstimates": {
					"creation": {
						"codeDepositCost": "2305800",
						"executionCost": "infinite",
						"totalCost": "infinite"
					},
					"external": {
						"approve(address,uint256)": "infinite",
						"balanceOf(address)": "2943",
						"getApproved(uint256)": "5322",
						"getLocked(uint256)": "2911",
						"getLockedCountByOwner(address)": "2909",
						"isApprovedForAll(address,address)": "infinite",
						"lock(uint256,bool)": "infinite",
						"mint(uint256)": "infinite",
						"name()": "infinite",
						"ownerOf(uint256)": "3044",
						"safeTransferFrom(address,address,uint256)": "infinite",
						"safeTransferFrom(address,address,uint256,bytes)": "infinite",
						"setApprovalForAll(address,bool)": "infinite",
						"supportsInterface(bytes4)": "797",
						"symbol()": "infinite",
						"tokenURI(uint256)": "3481",
						"transferFrom(address,address,uint256)": "infinite"
					},
					"internal": {
						"__unsafe_increaseBalance(address,uint256)": "infinite",
						"_afterTokenTransfer(address,address,uint256,uint256)": "17",
						"_approve(address,uint256)": "infinite",
						"_baseURI()": "infinite",
						"_beforeTokenTransfer(address,address,uint256,uint256)": "17",
						"_burn(uint256)": "infinite",
						"_checkOnERC721Received(address,address,uint256,bytes memory)": "infinite",
						"_exists(uint256)": "2312",
						"_isApprovedOrOwner(address,uint256)": "infinite",
						"_lock(uint256,bool)": "infinite",
						"_mint(address,uint256)": "infinite",
						"_ownerOf(uint256)": "2248",
						"_requireMinted(uint256)": "infinite",
						"_safeMint(address,uint256)": "infinite",
						"_safeMint(address,uint256,bytes memory)": "infinite",
						"_safeTransfer(address,address,uint256,bytes memory)": "infinite",
						"_setApprovalForAll(address,address,bool)": "infinite",
						"_transfer(address,address,uint256)": "infinite"
					}
				},
				"methodIdentifiers": {
					"approve(address,uint256)": "095ea7b3",
					"balanceOf(address)": "70a08231",
					"getApproved(uint256)": "081812fc",
					"getLocked(uint256)": "3b035df6",
					"getLockedCountByOwner(address)": "07f0661c",
					"isApprovedForAll(address,address)": "e985e9c5",
					"lock(uint256,bool)": "346c94cf",
					"mint(uint256)": "a0712d68",
					"name()": "06fdde03",
					"ownerOf(uint256)": "6352211e",
					"safeTransferFrom(address,address,uint256)": "42842e0e",
					"safeTransferFrom(address,address,uint256,bytes)": "b88d4fde",
					"setApprovalForAll(address,bool)": "a22cb465",
					"supportsInterface(bytes4)": "01ffc9a7",
					"symbol()": "95d89b41",
					"tokenURI(uint256)": "c87b56dd",
					"transferFrom(address,address,uint256)": "23b872dd"
				}
			},
			"storageLayout": {
				"storage": [
					{
						"astId": 25,
						"contract": "contracts/token/ERC721/ERC721.sol:ERC721",
						"label": "_name",
						"offset": 0,
						"slot": "0",
						"type": "t_string_storage"
					},
					{
						"astId": 27,
						"contract": "contracts/token/ERC721/ERC721.sol:ERC721",
						"label": "_symbol",
						"offset": 0,
						"slot": "1",
						"type": "t_string_storage"
					},
					{
						"astId": 31,
						"contract": "contracts/token/ERC721/ERC721.sol:ERC721",
						"label": "_owners",
						"offset": 0,
						"slot": "2",
						"type": "t_mapping(t_uint256,t_address)"
					},
					{
						"astId": 35,
						"contract": "contracts/token/ERC721/ERC721.sol:ERC721",
						"label": "_balances",
						"offset": 0,
						"slot": "3",
						"type": "t_mapping(t_address,t_uint256)"
					},
					{
						"astId": 39,
						"contract": "contracts/token/ERC721/ERC721.sol:ERC721",
						"label": "_tokenApprovals",
						"offset": 0,
						"slot": "4",
						"type": "t_mapping(t_uint256,t_address)"
					},
					{
						"astId": 45,
						"contract": "contracts/token/ERC721/ERC721.sol:ERC721",
						"label": "_operatorApprovals",
						"offset": 0,
						"slot": "5",
						"type": "t_mapping(t_address,t_mapping(t_address,t_bool))"
					},
					{
						"astId": 49,
						"contract": "contracts/token/ERC721/ERC721.sol:ERC721",
						"label": "_tokenLock",
						"offset": 0,
						"slot": "6",
						"type": "t_mapping(t_uint256,t_bool)"
					},
					{
						"astId": 53,
						"contract": "contracts/token/ERC721/ERC721.sol:ERC721",
						"label": "_isOperatorApprovals",
						"offset": 0,
						"slot": "7",
						"type": "t_mapping(t_address,t_bool)"
					},
					{
						"astId": 57,
						"contract": "contracts/token/ERC721/ERC721.sol:ERC721",
						"label": "_lockedCount",
						"offset": 0,
						"slot": "8",
						"type": "t_mapping(t_address,t_uint256)"
					}
				],
				"types": {
					"t_address": {
						"encoding": "inplace",
						"label": "address",
						"numberOfBytes": "20"
					},
					"t_bool": {
						"encoding": "inplace",
						"label": "bool",
						"numberOfBytes": "1"
					},
					"t_mapping(t_address,t_bool)": {
						"encoding": "mapping",
						"key": "t_address",
						"label": "mapping(address => bool)",
						"numberOfBytes": "32",
						"value": "t_bool"
					},
					"t_mapping(t_address,t_mapping(t_address,t_bool))": {
						"encoding": "mapping",
						"key": "t_address",
						"label": "mapping(address => mapping(address => bool))",
						"numberOfBytes": "32",
						"value": "t_mapping(t_address,t_bool)"
					},
					"t_mapping(t_address,t_uint256)": {
						"encoding": "mapping",
						"key": "t_address",
						"label": "mapping(address => uint256)",
						"numberOfBytes": "32",
						"value": "t_uint256"
					},
					"t_mapping(t_uint256,t_address)": {
						"encoding": "mapping",
						"key": "t_uint256",
						"label": "mapping(uint256 => address)",
						"numberOfBytes": "32",
						"value": "t_address"
					},
					"t_mapping(t_uint256,t_bool)": {
						"encoding": "mapping",
						"key": "t_uint256",
						"label": "mapping(uint256 => bool)",
						"numberOfBytes": "32",
						"value": "t_bool"
					},
					"t_string_storage": {
						"encoding": "bytes",
						"label": "string",
						"numberOfBytes": "32"
					},
					"t_uint256": {
						"encoding": "inplace",
						"label": "uint256",
						"numberOfBytes": "32"
					}
				}
			},
			"userdoc": {
				"kind": "user",
				"methods": {},
				"version": 1
			}
		}
	}
}